:100000000C94B4030C94E5030C94E5030C94E50301
:100010000C94E5030C94E5030C94E5030C94E503C0
:100020000C94E5030C94E5030C94E5030C94E503B0
:100030000C94E5030C94E5030C94E5030C94E503A0
:100040000C94E5030C94E5030C94E5030C94E50390
:100050000C9438180C94E5030C94E5030C94A82B2D
:100060000C94E5030C94F42A0C94872A0C94E50371
:100070000C94E5030C94E5030C94E5030C94E50360
:100080000C94E5030C94E5030C94E5030C94E50350
:100090000C94E5030C94E5030C94E5030C94E50340
:1000A0000C94E5030C94E5030C94E5030C94E50330
:1000B0000C94E5030C94E5030C94E5030C94E50320
:1000C0000C94E5030C94E5030C94E5030C944D1695
:1000D0000C9484180C94E5030C94CA2A0C945D2AA1
:1000E0000C94E50329052C052F0538053B053E0535
:1000F0004105440578057B057E0581058405870556
:100100008A0593059C05A505A805AB05EA12ED1225
:10011000DC12E012E6122413F112F512FB12FF12A8
:10012000031309130D131113241317131B131F1398
:10013000BA24BA24C724C724C724D424D424E1244D
:100140000C947E380C94ED120C94EA120C942F054A
:100150000C943B050C9481050C94E7030C947E05EC
:100160000C9411130C9409130C94A5050C94C7243A
:100170000C9441050C94F5120C94DC120C9488122A
:100180000C9493050C9484050C9487050C94FF1231
:100190000C9444050C948A050C9478050C94BA24AC
:1001A0000C9424130C940D130C942C050C943E0504
:1001B0000C94E0120C94DB270C94F5180C94290590
:1001C0000C94E6120C94E1240C949C050C940313FB
:1001D0000C941F130C94F1120C9466120C94AB0542
:1001E0000C94AE180C941B130C94A8050C94FB12E1
:1001F0000C943B3D0C9417130C947B050C94380520
:100200000C947A120C94D4244C45442043757020ED
:1002100048616E646C65202D204F46460072656112
:1002200064206565702E2063757020737461636B44
:10023000657220706F732E203D20004F4B00437578
:100240007020737461636B6572203E3E204F4B00DB
:10025000454D5054590043757020737461636B654C
:1002600072203E3E20456D707479004F4646004F27
:100270004E004F4B00504F574552204F4E00232306
:1002800023206D696E69436F66666565204861630A
:100290006B20762E333032203E3E205374617274D0
:1002A0002E2E007772697465206565702E20697442
:1002B000656D5F70726963655B004F726465722083
:1002C0004E6F2E2069732057726F6E6720212100B8
:1002D0006D616B655369676E616C546F436F696ED6
:1002E000203E3E20556E7375636365737320212134
:1002F000004F72646572205061796F7574203E3EC4
:10030000204F4B004F72646572205061796F757495
:10031000203E3E2054696D656F7574002000554E77
:1003200053554343455353005472616E7361637474
:10033000696F6E203E3E20554E53554343455353FF
:10034000200053554343455353005472616E73610B
:100350006374696F6E203E3E2053554343455353AB
:100360002000454D505459004375702073746163EB
:100370006B6572203E3E20456D707479004F4B00D6
:1003800043757020737461636B6572203E3E204F2D
:100390004B004F4E00426F696C6572203E3E20500C
:1003A0006F776572204F4E004F464600426F696C72
:1003B0006572203E3E20506F776572204F464600A2
:1003C0004C4F57005761746572204C6576656C2000
:1003D0003E3E204C4F57004F4B00576174657220D2
:1003E0004C6576656C203E3E204F4B004F464600E4
:1003F00050756D70203E3E20436C6F736500455212
:10040000524F520050756D70203E3E204572726F03
:1004100072004F4E0050756D70203E3E204F70654B
:100420006E007772697465206565702E2063757043
:1004300020737461636B657220706F732E203D2092
:100440000072656164206565702E206974656D5F5A
:1004500070726963655B00300030300045004F4BBF
:10046000004F50454E00434C4F5345005365742098
:1004700050756D702031202D204F4E005365742033
:1004800050756D702031202D204F464600736574E5
:100490004C45444974656D53656C6563745077725F
:1004A000203E3E204E6F7420666F756E64202121C1
:1004B0000043422B555000230000434C4F5544420B
:1004C0004F580000002100240027002A002D003092
:1004D00000330001010000040107010A01000022AD
:1004E00000250028002B002E0031003400020100FE
:1004F00000050108010B010000200023002600294F
:10050000002C002F00320000010000030106010949
:100510000105050505070508080808020202020A88
:100520000A08080404040401010101010101010396
:1005300003030303030303040707070C0C0C0C0C51
:100540000C0C0C0202020206060606060606060B44
:100550000B0B0B0B0B0B0B010210202008081020BB
:10056000401020408002010201080402010102043F
:1005700008102040808040201008040201800402FE
:100580000180402010080402010804020101020455
:100590000810204080010204081020408000000A5A
:1005A0000B02090C0D0E08070304010000000000F7
:1005B000000000000000000000000000000000003B
:1005C00000000000000000000012111000000000F8
:1005D000000000000000000000000000000000001B
:1005E0000000003000003A003A0064617461203E6F
:1005F0003E20656D707479212100436865636B202E
:10060000436C6F7564426F78205265616479203F56
:1006100000436865636B20436C6F7564426F78209C
:10062000436F6E6E656374696F6E203F0052657331
:10063000657420436F6D706F727421210052657371
:10064000706F6E73652054696D656F75742121003C
:1006500053746174652072657475726E2054696D8F
:10066000656F757421210000436C6F7564426F786B
:100670002052657475726E203E3E2052455345549B
:100680000000436C6F7564426F7820526574757218
:100690006E203E3E204552524F520000436C6F7513
:1006A00064426F782052657475726E203C3C204223
:1006B0005553590000436C6F7564426F7820526542
:1006C0007475726E203C3C20526561647900004371
:1006D0006C6F7564426F782052657475726E203C41
:1006E0003C204F4B005245414459004E4F5420523C
:1006F00045414459004E4F54205245414459004E03
:100700004F54205245414459004E4F5420524541C8
:100710004459004E4F54205245414459004E4F54C5
:10072000205245414459004C4544204375702048AF
:10073000616E646C65202D204F4E002D002D002D24
:10074000002D002D002D002D002D002D002D002D41
:10075000002D002D003D003A0043422B53455440EC
:10076000002300007E383B3D11241FBECFEFD1E2B5
:10077000DEBFCDBF00E00CBF16E0A0E0B2E0E2E6D5
:10078000FAE800E00BBF02C007900D92A233B10758
:10079000D9F72CE0A2E3B6E001C01D92A73FB20753
:1007A000E1F713E0C3EBD3E000E006C021970109B5
:1007B000802FFE010E941B3EC23BD10780E008074C
:1007C000A9F70E94F22B0C941F450C940000CF93C4
:1007D00080910802833009F4D9C134F4813059F092
:1007E000823009F46AC178C2843009F4E8C18530E6
:1007F00009F43CC271C22091600630916106211556
:10080000310509F40DC18091860C9091870C281751
:10081000390761F1203553EC350730F420348CE989
:10082000380738F0C90102C08FE493EC80549C492A
:1008300019C0203395E7390720F0C9018053954747
:1008400011C020325EE4350720F0C90180529E4479
:1008500009C0203187E2380720F0C9018051974252
:1008600001C0C9019093870C8093860C4091790C4C
:100870004130E1F038F0423009F457C0433009F418
:100880008CC0C1C06AE070E00E94D13DFC01E55916
:10089000F34F83812031374208F08F7D90E09093B1
:1008A0007D0C80937C0C8DEF90E0A9C020323E44FB
:1008B00020F18A30910568F064E670E00E94D13D35
:1008C0006AE070E00E94D13DFB01E559F34F83815E
:1008D00002C080916E0C90E090937D0C80937C0C14
:1008E00080917C0C90917D0C8F7D992790937D0C4D
:1008F00080937C0C8FEE90E082C08A30910570F07E
:1009000064E670E00E94D13D6AE070E00E94D13D53
:10091000FB01E559F34F838190E0E8CF8FEF90E042
:1009200090937D0C80937C0C6AC02033354720F176
:100930008436910568F068EE73E00E94D13D64E66C
:1009400070E00E94D13DFB01E559F34F838102C065
:1009500080916E0C90E090937D0C80937C0C809144
:100960007C0C90917D0C8F7D992790937D0C8093CA
:100970007C0C87EF90E043C08436910578F268EEF6
:1009800073E00E94D13D64E670E00E94D13DFB011E
:10099000E559F34F838190E0E8CF20343C49D8F00B
:1009A000883E23E0920748F068EE73E00E94D13D54
:1009B000FB01E559F34F838102C080916E0C90E0FA
:1009C00090937D0C80937C0C80917C0C90917D0C9D
:1009D0008F7D99270EC0883E53E0950708F49ECF7F
:1009E00068EE73E00E94D13DFB01E559F34F83812E
:1009F00090E090937D0C80937C0C8BEF90E0909333
:100A00007F0C80937E0C4F5F443018F44093790C38
:100A100002C01092790C8CE79CE0CF910C940F10DF
:100A20008091800C9091810C01979093810C809320
:100A3000800C892B09F050C18091780C90E08830AF
:100A4000910550F5FC018827EE58FF4F8F4F0C940D
:100A50001B3E8BEF90E005C087EF90E017C08FEE54
:100A600090E090937F0C80937E0C0E94541014C0F1
:100A70008DEF90E00BC08DEF90E0F3CF8FEE90E024
:100A800005C087EF90E0EDCF8BEF90E090937F0C67
:100A900080937E0C0E945E108091780C8F5F88306E
:100AA00018F48093780C02C01092780C86E990E0DC
:100AB0009093810C8093800C0FC18091820C909157
:100AC000830C01979093830C8093820C892B09F0FF
:100AD00003C190917B0C492F50E04C30510508F038
:100AE00046C0FA018827E658FF4F8F4F0C941B3EF3
:100AF0002EEF30E032C02EEF30E020C02EEF30E09D
:100B000014C02EEF30E008C02BEF30E005C02FEE10
:100B100030E002C02FEB30E030937D0C20937C0C52
:100B20002DEF30E020C02FEB30E030937D0C209390
:100B30007C0C2FEE30E017C02FEB30E030937D0CB3
:100B400020937C0C27EF30E00EC02FEB30E005C087
:100B50002FE730E002C02DEF30E030937D0C209382
:100B60007C0C2BEF30E030937F0C20937E0C24E143
:100B700030E03093830C2093820C9F5F9C3018F4FC
:100B800090937B0C48CF10927B0C45CFC09183068D
:100B9000C13059F008F474C0C23061F0C33011F5AF
:100BA0006DEF70E08BE590E01BC067EF70E082ECCA
:100BB00090E016C06FEE70E087ED90E011C080917C
:100BC0005C0C882309F44DC0082E000C990BC091D1
:100BD0008306C130A9F078F46BEF70E08BEC90E005
:100BE0000E947810CF5FC0938306C43008F474C0AD
:100BF0001092830671C0C23041F0C330E1F0F2CFF1
:100C000067EF70E083EE90E0EBCF8F3F2FEF92071E
:100C100009F440C0843691051CF06FEE70E017C0F7
:100C20008A309105BCF16AE070E00E94E53DCB019D
:100C30006FEE70E033C08F3F5FEF950719F46DEFF3
:100C400070E02AC0843691052CF06DEF70E089E0E9
:100C500090E024C06AE070E00E94E53D6DEF70E036
:100C60001DC080915F068093080236C0C091830644
:100C7000C13059F028F0C23069F0C33091F0B2CFE2
:100C80006BEF70E083EC90E0ABCF67EF70E088E053
:100C900090E0A6CF6FEE70E080E090E00E946810D8
:100CA000A1CF8091050283FD05C06DEF70E081E06A
:100CB00090E0F4CF82FD05C06DEF70E082E090E03F
:100CC000EDCF84FD05C06DEF70E083E090E0E6CFEE
:100CD00081E08093080286CFCF91089583E00E943F
:100CE000171921E0892B09F020E0822F0895CF9376
:100CF000DF9300D000D0CDB7DEB7FC01E65CF94F42
:100D000020812617F9F060838230910539F0833015
:100D1000910531F0019741F484E303C083E301C0FE
:100D20008FE20E9440190EC06DE874E0CE0101967A
:100D30000E94D429CE0101960E941E2BCE0101965D
:100D40000E944A2926960FB6F894DEBF0FBECDBF8B
:100D5000DF91CF91089560E081E090E00E947706F6
:100D600060E082E090E00E94770660E083E090E03F
:100D70000C9477060F931F93CF93DF938C01C1E000
:100D8000D0E0C017D10711F461E001C060E0CE01EE
:100D90000E9477062196C430D10599F7DF91CF9153
:100DA0001F910F9108950F931F93CF93DF93EC0141
:100DB0000E949C2B00918506109186062091870643
:100DC00030918806DC01CB01801B910BA20BB30B89
:100DD0008D329140A105B105C8F080918406811142
:100DE00007C0CE010E94BA0681E08093840604C049
:100DF0000E94AB06109284060E949C2B609385068D
:100E00007093860680938706909388060E949C2B99
:100E100000918506109186062091870630918806FC
:100E2000601771078207930750F40E949C2B609310
:100E30008506709386068093870690938806DF91D7
:100E4000CF911F910F910895E1E8F0E0908180919A
:100E50006208892B8083089510920802E1E8F0E08F
:100E60008081887F80830895CF92DF92EF92FF92F6
:100E70000F931F936B017C010E949C2B00915206E3
:100E80001091530620915406309155066017710752
:100E90008207930750F40E949C2B60935206709334
:100EA000530680935406909355060E949C2B009104
:100EB0005206109153062091540630915506AB010D
:100EC000BC01401B510B620B730B81E0C416D506AD
:100ED000E606F70608F080E01F910F91FF90EF9073
:100EE000DF90CF900895E6E4F6E01182128213823B
:100EF00010925B0610925D0610925C06EBE6FCE039
:100F0000158686E990E0968B858B108A84E190E0C7
:100F1000908F878B08951F93CF93DF9300D000D0DD
:100F2000CDB7DEB7182F8CE20E94171921E0892B6C
:100F300009F420E0121721F1112381F06CE674E02E
:100F4000CE0101960E94D429CE0101960E941E2B4B
:100F5000CE0101960E944A2961E00FC06CE774E05F
:100F6000CE0101960E94D429CE0101960E941E2B2B
:100F7000CE0101960E944A2960E08CE20E9440194D
:100F800026960FB6F894DEBF0FBECDBFDF91CF918E
:100F90001F9108958F929F92AF92BF92EF92FF920E
:100FA0001F93CF93DF9300D000D0CDB7DEB780E39F
:100FB0000E94171911E0892B09F410E08091820634
:100FC000181761F00E949C2B60937E0670937F0639
:100FD0008093800690938106109382060E949C2B3A
:100FE00080907E0690907F06A0908006B09081064B
:100FF000DC01CB0188199909AA09BB09893E9340F4
:10100000A105B10558F40E949C2B681579058A0545
:101010009B0520F080910C02882389F12091050224
:1010200030910602812F90E021FBEE24E0F8F12CB4
:101030008E159F0521F480910C02882301F1112364
:1010400011F0226001C02D7F30930602209305022B
:101050008091050281FF03C066E674E002C061E68C
:1010600074E0CE0101960E94D429CE0101960E941F
:101070006E24CE0101960E944A2910920C02812F03
:1010800026960FB6F894DEBF0FBECDBFDF91CF918D
:101090001F91FF90EF90BF90AF909F908F90089519
:1010A0001F93CF93DF93CDB7DEB768970FB6F89451
:1010B000DEBF0FBECDBF10915C0C111118C06EE5E4
:1010C00074E0CE0101960E94D429CE0101960E94BF
:1010D0003424CE0101960E944A2980910502909104
:1010E0000602806290930602809305027EC06CE542
:1010F00074E0CE0101960E94D4291F3F29F5BE015C
:101100006F5F7F4FCE0107960E940C2A69E574E05D
:10111000CE0107960E945828811104C0CE0107967F
:101120000E94BD28BE01695F7F4FCE010D960E94CF
:101130000C2ACE010D960E943424CE010D960E94F9
:101140004A29CE01079642C0612F012E000C770B71
:101150004AE0CE010D961A30B4F40E947B29BE01FC
:101160006F5F7F4FCE0107960E940C2A67E574E0FF
:10117000CE0107960E94582881110EC0CE01079615
:101180000E94BD2809C00E947B29BE016F5F7F4F6E
:10119000CE0107960E940C2ABE01635F7F4FCE01ED
:1011A00007960E94E828BC01CE0143960E940C2AB3
:1011B000CE0143960E943424CE0143960E944A29D0
:1011C000CE0107960E944A29CE010D960E944A2917
:1011D00080910502909106028F7D90930602809384
:1011E0000502CE0101960E944A2968960FB6F8942E
:1011F000DEBF0FBECDBFDF91CF911F9108955F92EB
:101200006F927F928F929F92AF92BF92CF92DF9216
:10121000EF92FF920F931F93CF93DF93CDB7DEB77B
:10122000A0970FB6F894DEBF0FBECDBF66246394BF
:10123000712C552453948E010F5F1F4F96E4E92EB5
:1012400093E0F92E22E3C22E23E0D22E82E068162C
:1012500029F093E0691621F082E303C085E301C021
:1012600081E30E94171921E0892B09F420E0F301A2
:10127000EE5BF94F4F012083C301825C994F5C0103
:10128000FC0180818217E9F0211109C0F301EA5BBA
:10129000F94F50827F926F92DF92CF9204C07F927B
:1012A0006F92FF92EF921F930F930E94A0400F90B6
:1012B0000F900F900F900F900F90F4018081F50127
:1012C0008083FFEF6F1A7F0A84E06816710409F0CB
:1012D000BDCFA0960FB6F894DEBF0FBECDBFDF9195
:1012E000CF911F910F91FF90EF90DF90CF90BF9023
:1012F000AF909F908F907F906F905F900895CF9365
:10130000DF93CDB7DEB768970FB6F894DEBF0FBE98
:10131000CDBF62E274E0CE0101960E94D4296091B3
:101320005E0680E190E00E9411456AE070E080E096
:1013300090E00E94622B60915E06062E000C770BF7
:101340004AE0CE010D960E947B29BE016F5F7F4F60
:10135000CE0107960E940C2ABE01635F7F4FCE012B
:1013600007960E94E828BC01CE0143960E940C2AF1
:10137000CE0143960E941E2BCE0143960E944A291D
:10138000CE0107960E944A29CE010D960E944A2955
:10139000CE0101960E944A2968960FB6F894DEBFE6
:1013A0000FBECDBFDF91CF910895EAE4F6E08281D0
:1013B0009381883E934010F013821282329686E029
:1013C000E035F807A1F708958F929F92AF92BF92F0
:1013D000CF92DF92EF92FF921F93CF93DF93CDB71F
:1013E000DEB762970FB6F894DEBF0FBECDBF8CE4B8
:1013F000A82E86E0B82E98E5E92E96E0F92E11E0A9
:101400002AE0C22ED12CC6010E940945982EC601A1
:1014100001960E940945292D30E0A901582BCA01E7
:101420004501F50151834083209105023091060268
:10143000F701892BD9F4808180688083123039F0DC
:10144000133071F02F7B30930602209305028091B8
:101450000502909106029E7F9093060280930502FA
:1014600080910502909106029B7F1AC080818F7740
:101470008083123039F0133071F02064309306020B
:10148000209305028091050290910602916090934D
:1014900006028093050280910502909106029460F5
:1014A00090930602809305020E94D50961E474E0DE
:1014B000CE010D960E94D4294AE0612FCE010796F5
:1014C0000E94A729BE01695F7F4FCE0101960E944D
:1014D0000C2A6CE472E0CE0101960E94CF28BC0178
:1014E000CE010D960E94B628CE0101960E944A298F
:1014F000CE0107960E944A29F2E0AF0EB11CF4011A
:10150000608171814AE0CE0101960E944F29BE019F
:101510006F5F7F4FCE010D960E94B628CE010196D7
:101520000E944A29BE01635F7F4FCE0101960E944F
:101530000C2ACE0101960E941E2BCE0101960E941C
:101540004A29CE010D960E944A29F2E0CF0ED11C05
:101550001F5F4FEFE41AF40A143009F054CF62967B
:101560000FB6F894DEBF0FBECDBFDF91CF911F91B4
:10157000FF90EF90DF90CF90BF90AF909F908F90B3
:10158000089585E30E94171921E0892B09F420E0D2
:10159000822F0895CF92DF92EF92FF92CF93DF9345
:1015A00000D000D0CDB7DEB78091050284FD34C0F5
:1015B0008CE20E941719892B79F580910B02882300
:1015C00059F181E00E948B0765E174E0CE0101963C
:1015D0000E94D429CE0101960E941E2BCE010196B5
:1015E0000E944A2962E174E0CE0101960E94D4294A
:1015F00061E0CE0101960E949123CE0101960E94E6
:101600004A290E949C2B60937A0670937B068093F4
:101610007C0690937D0682C08CE20E941719892B6C
:1016200009F47CC08091050284FD39C00E949C2B86
:10163000C0907A06D0907B06E0907C06F0907D0604
:10164000DC01CB018C199D09AE09BF0981349C498D
:10165000A105B10508F462C080E00E948B0764E038
:1016600074E0CE0101960E94D429CE0101960E9419
:101670001E2BCE0101960E944A296EEF73E0CE0127
:1016800001960E94D42961E0CE0101960E94912327
:10169000CE0101960E944A2910920B023FC00E947F
:1016A0009C2BC0907A06D0907B06E0907C06F09050
:1016B0007D06DC01CB018C199D09AE09BF0981347F
:1016C0009C49A105B10538F40E949C2B6C157D0541
:1016D0008E059F0518F580E00E948B0760EF73E090
:1016E000CE0101960E94D429CE0101960E941E2BA4
:1016F000CE0101960E944A296CEE73E0CE0101965C
:101700000E94D42961E0CE0101960E949123CE016E
:1017100001960E944A2981E080930B0226960FB61B
:10172000F894DEBF0FBECDBFDF91CF91FF90EF9059
:10173000DF90CF900895CF92DF92EF92FF921F93A8
:10174000CF93DF93C82F0E949C2B6B017C0110E08C
:10175000D0E00E94CA0A0E94FF19CE010E94D3065F
:101760000E949C2B6C157D058E059F0520F40E9420
:101770009C2B6B017C010E949C2BDC01CB018C1902
:101780009D09AE09BF09893C9105A105B10558F431
:101790008FE10E941719892BE1F20E949C2B6B01AB
:1017A0007C0111E0D6CF812FDF91CF911F91FF9067
:1017B000EF90DF90CF9008950F931F93CF93DF9317
:1017C00000D000D0CDB7DEB78DE10E94171920916F
:1017D000050230910602892B11F0206101C02F7E95
:1017E000309306022093050220910502809179062C
:1017F00090E024FB002700F910E08017910729F4FE
:1018000080910A02882309F44AC024FF1DC06AEDB2
:1018100073E0CE0101960E94D429CE0101960E9468
:101820001E2BCE0101960E944A2967ED73E0CE017E
:1018300001960E94D429CE0101960E946027CE0114
:1018400001960E944A2923C064EC73E0CE01019600
:101850000E94D429CE0101960E941E2BCE01019632
:101860000E944A2960EC73E0CE0101960E94D429BF
:10187000CE0101960E946027CE0101960E944A295E
:101880008091080280935F0685E080930802809132
:101890000502829581708093790610920A0226963D
:1018A0000FB6F894DEBF0FBECDBFDF91CF911F9171
:1018B0000F9108950F931F9385E20E941719892BAA
:1018C00061F40E949C2B60933206709333068093E0
:1018D00034069093350681E027C00E949C2B00912E
:1018E0003206109133062091340630913506DC0122
:1018F000CB01801B910BA20BB30B853F9140A1053F
:10190000B10588F40E949C2B009132061091330699
:1019100020913406309135066017710782079307CE
:1019200010F08FEF01C080E01F910F9108950F9389
:101930001F93CF93DF9300D000D0CDB7DEB70E94C6
:101940005A0C2091050230910602811102C02860D4
:1019500003C0813029F4277F3093060220930502CB
:10196000209105028091780690E023FB002700F982
:1019700010E08017910729F480910902882309F467
:101980004BC023FF1DC06CEA73E0CE0101960E949C
:10199000D429CE0101960E941E2BCE0101960E94F1
:1019A0004A2968EA73E0CE0101960E94D429CE014B
:1019B00001960E942627CE0101960E944A2923C043
:1019C00065E973E0CE0101960E94D429CE0101960B
:1019D0000E941E2BCE0101960E944A2962E973E003
:1019E000CE0101960E94D429CE0101960E9426279D
:1019F000CE0101960E944A298091080280935F06D9
:101A000085E0809308028091050283FB882780F996
:101A1000809378061092090226960FB6F894DEBFDE
:101A20000FBECDBFDF91CF911F910F91089561E05F
:101A300085E00C944019CF92DF92EF92FF920F93C2
:101A40001F93CF93DF93CDB7DEB762970FB6F894AD
:101A5000DEBF0FBECDBF0E946E06811106C061E0E1
:101A600086E00E944019F12C06C060E086E00E94EA
:101A70004019FF24F39460E085E00E9440190E9421
:101A80005C1300E010E0EE24E3948BE9C82E8FE0B5
:101A9000D82E0E94CA0A83E20E941719892B69F086
:101AA00066E173E0CE0101960E94152ACE010196EF
:101AB0000E941E2BCE01019657C061E087E00E9474
:101AC0004019C6010197F1F760E087E00E944019D4
:101AD000C6010197F1F70E946E06882311F0E1100C
:101AE00031C0FF2009F47CC00E946E06811176C0CF
:101AF00081E080935E064AE0B801CE0107960E941D
:101B00004F2960E773E0CE0101960E94152ABE01BD
:101B1000695F7F4FCE0101960E94E828BC01CE018B
:101B20000D960E940C2ACE010D960E941E2BCE010E
:101B30000D960E944A29CE0101960E944A29CE01A3
:101B4000079612C00E94170D6CE271E080E090E0F1
:101B50000E94622B60E086E00E94401960E085E010
:101B60000E944019E12CC0CF0E944A290E94170D03
:101B70000E947F0960915E06633681F46CE573E034
:101B8000CE0101960E94152ACE0101960E941E2BBD
:101B9000CE0101960E944A2960915E06062E000C35
:101BA000770B4AE0CE0101960E947B2961E0CE01CD
:101BB00001960E949A27CE0101960E944A296296B8
:101BC0000FB6F894DEBF0FBECDBFDF91CF911F914E
:101BD0000F91FF90EF90DF90CF900895FF24F39442
:101BE0000F5F1F4F093883E1180709F052CF83E6D2
:101BF00080935E06BBCF0E949C2B6093A40C7093D5
:101C0000A50C8093A60C9093A70C08950F931F9397
:101C10000E949C2B0091A40C1091A50C2091A60C65
:101C20003091A70C601771078207930710F40E9488
:101C3000FB0D0E949C2B0091A40C1091A50C2091EF
:101C4000A60C3091A70CDC01CB01801B910BA20BE1
:101C5000B30B21E0883C9105A105B10508F420E013
:101C6000822F1F910F910895FF920F931F93CF938F
:101C7000DF93CDB7DEB762970FB6F894DEBF0FBE25
:101C8000CDBF64E176E0CE010D960E94152A0E9438
:101C9000FB0D00E010E080919E0C90919F0CDC0108
:101CA000ED91FC910480F581E02D1995892B09F4C3
:101CB00047C0053011050CF043C080919E0C9091F7
:101CC0009F0CDC01ED91FC910680F781E02D1995C8
:101CD000F82E4AE0682FCE0101960E94A729BE0186
:101CE0006F5F7F4FCE010D960E94B628CE01019600
:101CF0000E944A29F801E456F34FF48E0F5F1F4FFC
:101D000005301105D1F466E973E0CE0107960E9413
:101D1000152ABE01635F7F4FCE0107960E94E82817
:101D2000BC01CE0101960E940C2ACE0101960E94B0
:101D30004A29CE0107960E944A290E94FB0DABCF8B
:101D40000E94060EF82E811124C0053011050CF4F6
:101D5000A2CF0530110549F520E080E090E0FC01BC
:101D6000E456F34F348D230F019685309105B9F772
:101D70008091BA0C883221F08091BA0C823059F4EB
:101D80008091BB0C811107C0211105C0FF24F39481
:101D90000CC0F12C0AC06EE973E0CE0101960E94DE
:101DA000152ACE0101960E944A29CE010D960E9465
:101DB0004A298F2D62960FB6F894DEBF0FBECDBFB5
:101DC000DF91CF911F910F91FF9008951F93CF93B3
:101DD000DF9300D000D0CDB7DEB7182F0E94FB0DE7
:101DE000112359F180919E0C90919F0CDC01ED9193
:101DF000FC910480F581E02D1995892B71F080917B
:101E00009E0C90919F0CDC01ED91FC910680F78176
:101E1000E02D199511500E94FB0D0E94060E88239B
:101E2000F9F26DEB73E0CE0101960E94152ACE0106
:101E300001960E944A2980E001C081E026960FB6F3
:101E4000F894DEBF0FBECDBFDF91CF911F910895F3
:101E5000FF920F931F93CF93DF93CDB7DEB7C05898
:101E6000D1090FB6F894DEBF0FBECDBF8091A80C8C
:101E700089830091AA0C0A838091AB0C8B8380919B
:101E8000AD0C8C83FE01359680E090E010E0801769
:101E9000910744F4DC01A456B34F53962C9121933F
:101EA0000196F5CF0C5F1F4FE1E0F0E0EC0FFD1F56
:101EB000E00FF11F8091B70C8083F12C2F2D30E0C3
:101EC00002171307A4F080919E0C90919F0CDC01E7
:101ED000ED91FC91A1E0B0E0AC0FBD1FA20FB31FCC
:101EE0000190F081E02D6C911995F394E7CF80E09B
:101EF000C058DF4F0FB6F894DEBF0FBECDBFDF91E5
:101F0000CF911F910F91FF9008951F93CF93DF936F
:101F100000D000D0CDB7DEB780915C0C811134C009
:101F20006FED73E0CE0101960E94152ACE01019655
:101F30000E944A2982E090E09093A90C8093A80C1B
:101F400011E01093AA0C81E090E09093AC0C809388
:101F5000AB0C84EE90E09093AE0C8093AD0C10939C
:101F6000AF0C87E18093B70C0E94280F86E00E9497
:101F7000E60E882339F00E94340E882319F010935E
:101F8000650C02C01092650C26960FB6F894DEBF61
:101F90000FBECDBFDF91CF911F910895CF93DF93F7
:101FA00000D000D0CDB7DEB780915C0C81112EC07F
:101FB00060EF73E0CE0101960E94152ACE010196D2
:101FC0000E944A2982E090E09093A90C8093A80C8B
:101FD00081E08093AA0C81E090E09093AC0C809318
:101FE000AB0C84EE90E09093AE0C8093AD0C10920D
:101FF000AF0C88E18093B70C0E94280F86E00E9406
:10200000E60E81110E94340E1092650C26960FB6D2
:10201000F894DEBF0FBECDBFDF91CF910895AF9290
:10202000BF92CF92DF92EF92FF920F931F93CF93C5
:10203000DF936C0160E080916D0C0E944019E60115
:102040002496BA90AA9008E010E090E8E92EF12CCE
:1020500060E080916B0C0E94401961E097012A2199
:102060003B21232B09F460E080916C0C0E94401905
:1020700061E080916B0C0E944019F594E794015047
:10208000110931F7CC15DD05E1F661E080916D0CA9
:10209000DF91CF911F910F91FF90EF90DF90CF9044
:1020A000BF90AF900C94401987E290E090937D0C24
:1020B00080937C0C8CE79CE00C940F1080EF90E0F8
:1020C00090937D0C80937C0C8CE79CE00C940F101B
:1020D000EBE6FCE08559934FDC0113968C9190E080
:1020E000928B818B748B638B8CE79CE00C940F102C
:1020F000EBE6FCE02FEF30E0281B390B328B218B15
:10210000748B638B8CE79CE00C940F10CF93DF9360
:1021100000D000D0CDB7DEB7BC01CE0101960E9441
:102120000C2ABE016F5F7F4F8091980890919908AB
:102130000E947716CE0101960E944A2926960FB674
:10214000F894DEBF0FBECDBFDF91CF9108950F93FE
:102150001F93CF93DF93CDB7DEB762970FB6F89496
:10216000DEBF0FBECDBF8C0164E176E0CE010D96DF
:102170000E94152AF80184819581892B09F457C0A2
:1021800062E074E0CE010D960E941C2960919F08C8
:102190007091A0084AE0CE0107960E944F29BE0127
:1021A000695F7F4FCE0101960E940C2A6CE472E0B9
:1021B000CE0101960E94CF28BC01CE010D960E944F
:1021C000B628CE0101960E944A29CE0107960E94A8
:1021D0004A29B801CE010D960E94B628BE01635F60
:1021E0007F4FCE0101960E940C2ACE0101960E94DB
:1021F0008610CE0101960E944A2920919F083091B5
:10220000A00846E0429FC001439F900D1124B801F1
:102210008155974F0E94332980919F089091A00883
:1022200001968F7799279093A00880939F08CE01FD
:102230000D960E944A2962960FB6F894DEBF0FBE33
:10224000CDBFDF91CF911F910F910895CF93DF9371
:10225000CDB7DEB72C970FB6F894DEBF0FBECDBF5B
:1022600069EB74E0CE0107960E94D42967EB74E015
:10227000CE0107960E94582860919F087091A0088F
:102280004AE0CE0101960E944F29BE016F5F7F4F49
:10229000CE0107960E94B628CE0101960E944A29D7
:1022A00061EB74E0CE0107960E945828BE01695F79
:1022B0007F4FCE0101960E940C2ACE0101960E940A
:1022C000A710CE0101960E944A29CE0107960E94CE
:1022D0004A2980E02C960FB6F894DEBF0FBECDBF22
:1022E000DF91CF9108954F925F926F927F928F927C
:1022F0009F92AF92BF92CF92DF92EF92FF920F9395
:102300001F93CF93DF934B015C0180917D089091E7
:102310007E08A0917F08B091800888169906AA06C9
:10232000BB0609F4C2C08CE3C82ED12CE12CF12CE1
:10233000C501B401A70196010E94F93D609376089A
:10234000CA01B901A70196010E94F93D609377087F
:10235000CA01B90128E130E040E050E00E94F93DB7
:1023600069017A0160937808CA01B9016C5F7F4FF7
:102370008F4F9F4F27E030E040E050E00E94F93D52
:102380006F5F60937908412C512C320140E004E6E4
:1023900010E0C0E9D1E0242F30E02E54384FF9018D
:1023A000E370FF27309789F4C901B8010E94E53D29
:1023B000892B31F4C901BE010E94E53D892B29F426
:1023C0008EE691E0A0E0B0E004C08DE691E0A0E0F0
:1023D000B0E0480E591E6A1E7B1ED301C201AA2717
:1023E000BB27C816D906EA06FB0610F04F5FD3CF0D
:1023F00040937C08309799F4C90164E670E00E942C
:10240000E53D892B39F4C90160E971E00E94E53DA1
:10241000892B29F48EE691E0A0E0B0E004C08DE6BF
:1024200091E0A0E0B0E0481A590A6A0A7B0AC41891
:10243000D508E608F708C90164E670E00E94E53DAA
:10244000EC01C90160E971E00E94E53DA3E2B2E060
:1024500020E0213039F4309749F4209729F400978F
:1024600029F402C04C9103C04DE101C04CE150E0A1
:1024700060E070E0C416D506E606F70640F0C41A20
:10248000D50AE60AF70A2F5F11962C3011F72F5F55
:1024900020937B08C394C0927A0880927D08909222
:1024A0007E08A0927F08B0928008DF91CF911F91A3
:1024B0000F91FF90EF90DF90CF90BF90AF909F90E3
:1024C0008F907F906F905F904F900895FC01918D59
:1024D000828D981761F0828DDF01A80FB11D5D9686
:1024E0008C91928D9F5F9F73928F90E008958FEFF4
:1024F0009FEF0895FC01918D828D981731F0828DA8
:10250000E80FF11D858D90E008958FEF9FEF0895FE
:10251000FC01918D228D892F90E0805C9F4F821B62
:1025200091098F739927089589E896E00E9488128F
:1025300021E0892B09F420E0822F089580E090E0CB
:10254000892B21F00E944E2881111DC080E090E06F
:10255000892B41F080E090E0892B21F00E9400005F
:10256000811114C080E090E0892B21F00E94941228
:1025700081110FC080E090E0892B81F00E944428F7
:1025800081110AC008950E940000E0CF0E9400005F
:10259000E9CF0E940000EECF0C940000089590E077
:1025A000FC013197E231F10508F04EC08827EA5767
:1025B000FF4F8F4F0C941B3E809180008F7703C09C
:1025C000809180008F7D80938000089580918000AD
:1025D000877FF9CF84B58F7702C084B58F7D84BDA6
:1025E00008958091B0008F7703C08091B0008F7DF7
:1025F0008093B0000895809190008F7707C08091FC
:1026000090008F7D03C080919000877F8093900021
:1026100008958091A0008F7707C08091A0008F7DE2
:1026200003C08091A000877F8093A00008958091CF
:1026300020018F7707C0809120018F7D03C080919A
:102640002001877F809320010895EF92FF920F93DE
:102650001F93CF93DF9300D000D0CDB7DEB78C01AE
:102660007A0165EE75E00E94D4298AE0E816F1044B
:102670002CF463EE75E0C8010E9458284AE0B701C7
:10268000CE0101960E947B29BE016F5F7F4FC8017A
:102690000E94B628CE0101960E944A29C8012696BA
:1026A0000FB6F894DEBF0FBECDBFDF91CF911F9163
:1026B0000F91FF90EF900895EBE6FCE08FEF90E034
:1026C000928B818B948B838B8CE79CE00C940F1006
:1026D000CF93DF932091B30B3091B40B232B79F080
:1026E000FC01C091AF0BD091B00B60817181CE0124
:1026F0000E948640009719F08C1B9D0B02C08FEF43
:102700009FEFDF91CF910895CF92DF92EF92FF92EA
:102710000F931F93CF93DF93EC016A017B01E8894C
:10272000F98982E080834115514E61057105B1F050
:1027300060E079E08DE390E0A70196010E94F93D09
:1027400089019A010150110921093109369527950E
:1027500017950795980101151041A8F0E889F989A6
:10276000108260E874E88EE190E0A70196010E9473
:10277000F93DDA01C9010197A109B109B695A795FB
:10278000979587959C01EC85FD853083EE85FF85C7
:102790002083188EEC89FD8986E08083EA89FB8995
:1027A000808180618083EA89FB8980818860808361
:1027B000EA89FB89808180688083EA89FB8980813E
:1027C0008F7D8083DF91CF911F910F91FF90EF90CC
:1027D000DF90CF9008950F931F930E949C2B009140
:1027E000A3081091A4082091A5083091A6086017AD
:1027F00071078207930750F40E949C2B6093A308F3
:102800007093A4088093A5089093A6080E949C2B1F
:102810000091A3081091A4082091A5083091A60862
:10282000DC01CB01801B910BA20BB30B21E088389C
:102830009341A105B10508F420E0822F1F910F916B
:102840000895CF93DF93CDB7DEB762970FB6F894B4
:10285000DEBF0FBECDBFBC01CE0101960E940C2A87
:102860006FED7BE0CE0107960E940C2A69ED7BE0BC
:10287000CE010D960E940C2AAE014F5F5F4FBE0144
:10288000695F7F4FCE010D960E94BE20CE010D964E
:102890000E944A29CE0107960E944A29CE0101963C
:1028A0000E944A290E94261162960FB6F894DEBF54
:1028B0000FBECDBFDF91CF9108950F931F93CF939C
:1028C000DF93CDB7DEB769970FB6F894DEBF0FBEC2
:1028D000CDBF282F8B0165EE7BE0CE014396298F7B
:1028E0000E940C2A298D223069F02330A1F021307A
:1028F000D9F54AE0B801CE0101960E944F2965E161
:102900007CE011C04AE0B801CE0101960E944F2937
:1029100061E27CE008C04AE0B801CE0101960E9465
:102920004F296DE27CE0CE0107960E940C2ABE0181
:102930006D5E7F4FCE010D960E940C2AAE014F5F57
:102940005F4FBE01695F7F4FCE010D960E94BE2092
:10295000CE010D960E944A29CE0107960E944A296F
:10296000CE0101960E944A29CE0143960E944A292F
:1029700069960FB6F894DEBF0FBECDBFDF91CF9141
:102980001F910F9108952091790C2F5F243018F436
:102990002093790C02C01092790C2091790C21308F
:1029A000F9F070F02230D1F1233009F051C080E508
:1029B00090E090937D0C80937C0C8BEF90E044C072
:1029C0006AE070E00E94D13DFC01E559F34F83813C
:1029D00090E090937D0C80937C0C8DEF90E034C060
:1029E0008A309105A0F064E670E00E94D13D6AE073
:1029F00070E00E94D13DFB01E559F34F838190E0E7
:102A000090937D0C80937C0C8FEE90E01DC08FEF37
:102A100090E090937D0C80937C0C16C084369105D9
:102A2000B0F368EE73E00E94D13D64E670E00E946E
:102A3000D13DFB01E559F34F838190E090937D0CEC
:102A400080937C0C87EF90E090937F0C80937E0CBA
:102A50008CE79CE00C940F100F931F930E949C2B0B
:102A60000091510C1091520C2091530C3091540C48
:102A7000601771078207930750F40E949C2B6093A4
:102A8000510C7093520C8093530C9093540C0E94F1
:102A90009C2B0091510C1091520C2091530C3091B1
:102AA000540CDC01CB01801B910BA20BB30B21E07A
:102AB000843F9140A105B10508F420E0822F1F91C9
:102AC0000F910895CF93DF93CDB7DEB762970FB61E
:102AD000F894DEBF0FBECDBF4AE0682FCE0101964D
:102AE0000E94A72961EC7BE0CE0107960E940C2A88
:102AF0006BEB7BE0CE010D960E940C2AAE014F5F7E
:102B00005F4FBE01695F7F4FCE010D960E94BE20D0
:102B1000CE010D960E944A29CE0107960E944A29AD
:102B2000CE0101960E944A2962960FB6F894DEBF44
:102B30000FBECDBFDF91CF910895CF93DF93CDB777
:102B4000DEB762970FB6F894DEBF0FBECDBF4AE086
:102B5000BC01CE0101960E944F2967EC7BE0CE01BB
:102B600007960E940C2A6BEB7BE0CE010D960E942B
:102B70000C2AAE014F5F5F4FBE01695F7F4FCE01F0
:102B80000D960E94BE20CE010D960E944A29CE01CC
:102B900007960E944A29CE0101960E944A29629610
:102BA0000FB6F894DEBF0FBECDBFDF91CF91089571
:102BB000CF93DF93CDB7DEB762970FB6F894DEBF41
:102BC0000FBECDBF4AE0BC01CE0101960E944F2945
:102BD0006DEC7BE0CE0107960E940C2A6BEB7BE04C
:102BE000CE010D960E940C2AAE014F5F5F4FBE01D1
:102BF000695F7F4FCE010D960E94BE20CE010D96DB
:102C00000E944A29CE0107960E944A29CE010196C8
:102C10000E944A2962960FB6F894DEBF0FBECDBF60
:102C2000DF91CF910895CF93DF93CDB7DEB7629751
:102C30000FB6F894DEBF0FBECDBFBC01CE0101962A
:102C40000E940C2A63ED7BE0CE0107960E940C2ABD
:102C50006BEB7BE0CE010D960E940C2AAE014F5F1C
:102C60005F4FBE01695F7F4FCE010D960E94BE206F
:102C7000CE010D960E944A29CE0107960E944A294C
:102C8000CE0101960E944A2962960FB6F894DEBFE3
:102C90000FBECDBFDF91CF9108951F920F920FB657
:102CA0000F9211240BB60F922F933F934F935F9384
:102CB0006F937F938F939F93AF93BF93EF93FF9304
:102CC00089E896E00E94B12AFF91EF91BF91AF9100
:102CD0009F918F917F916F915F914F913F912F9134
:102CE0000F900BBE0F900FBE0F901F9018954F9234
:102CF0005F926F927F928F929F92AF92BF92EF926C
:102D0000FF920F931F93CF93DF93CDB7DEB76E97EC
:102D10000FB6F894DEBF0FBECDBF8C017B0164E11E
:102D200076E0CE010D960E94152AB701CE0143969A
:102D30000E940C2A64E176E0CE0149960E94152A91
:102D400078012EE0E20EF11C0E949C2B40906E0850
:102D500050906F0860907008709071084B015C0192
:102D600084189508A608B708809172089091730896
:102D7000A0917408B0917508E8EE8E16E3E09E0607
:102D8000A104B104D0F00196A11DB11D8093720879
:102D900090937308A0937408B0937508B301A201CF
:102DA00048515C4F6F4F7F4F40936E0850936F08B0
:102DB0006093700870937108C7CF40916A08509172
:102DC0006B0860916C0870916D0884179507A607D1
:102DD000B70708F456C0E0916808F0916908309789
:102DE00009F44FC01995611571058105910539F1F7
:102DF00060937208709373088093740890937508B9
:102E0000DC01CB01845D9E4FAF4FBF4F80936A08BA
:102E100090936B08A0936C08B0936D0882E090E0EB
:102E200090936708809366080E949C2B60936E08BD
:102E300070936F08809370089093710822C08091FE
:102E4000720890917308A0917408B0917508845D20
:102E50009E4FAF4FBF4F80936A0890936B08A0932B
:102E60006C08B0936D0881E090E020916608309185
:102E70006708232B11F480E090E09093670880931B
:102E800066088090720890907308A0907408B090C3
:102E90007508C501B4010E9473114091780850E093
:102EA000B801CE0107960E94251368EE75E0CE01A9
:102EB00007960E945828C501B4010E9473114091E1
:102EC000770850E0B801CE0101960E942513BE019B
:102ED0006F5F7F4FCE0107960E94B628CE01019604
:102EE0000E944A2966EE75E0CE0107960E94582896
:102EF000C501B4010E9473114091760850E0B801F9
:102F0000CE0101960E942513BE016F5F7F4FCE0157
:102F100007960E94B628CE0101960E944A29BE015A
:102F2000695F7F4FCE0101960E940C2A6FE074E02A
:102F3000CE0101960E94CF28B7010E94E8286DE0DB
:102F400074E00E94CF28BE016D5E7F4F0E94E8288A
:102F5000BC01CE0149960E943329CE0101960E9400
:102F60004A29CE0107960E944A298D859E850097A1
:102F7000A9F0698D7A8D6115710571F04F855889B9
:102F80002D8D3E8D4217530738F00E947F408D8D66
:102F90009E8D9A8B898B12C00E94E73E898D9A8DF7
:102FA0009E878D878B8D9C8D988B8F878D8D9E8D29
:102FB0009A8B898B1A8E198E1C8E1B8E1E8E1D8EDF
:102FC000CE0149960E944A29CE0143960E944A2981
:102FD000BE01635F7F4FF801808191810E943E2A8C
:102FE000CE010D960E944A296E960FB6F894DEBF68
:102FF0000FBECDBFDF91CF911F910F91FF90EF904A
:10300000BF90AF909F908F907F906F905F904F9008
:103010000895EF92FF920F931F93CF93DF93EC01EC
:103020007B0164E176E008960E94152A8E01025F1A
:103030001F4F64E176E0C8010E94152A89E896E0F6
:103040009983888380E092ECA1E0B0E08C839D833B
:10305000AE83BF8381E194E09B838A83B701C8017B
:10306000DF91CF911F910F91FF90EF900C94332936
:103070001F920F920FB60F9211240BB60F922F933F
:103080003F934F935F936F937F938F939F93AF93F0
:10309000BF93EF93FF93E0916408F0916508199551
:1030A000FF91EF91BF91AF919F918F917F916F9120
:1030B0005F914F913F912F910F900BBE0F900FBEDC
:1030C0000F901F901895FC01848DDF01A80FB11D92
:1030D000A35ABF4F2C91848D90E001968F7399274E
:1030E000848FA689B7892C93A089B1898C9180643B
:1030F0008C93938D848D981306C00288F389E02DFC
:1031000080818F7D808308951F920F920FB60F925A
:1031100011240BB60F922F933F934F935F936F93AE
:103120007F938F939F93AF93BF93EF93FF9389E820
:1031300096E00E946318FF91EF91BF91AF919F912C
:103140008F917F916F915F914F913F912F910F9050
:103150000BBE0F900FBE0F901F901895EF92FF922D
:103160000F931F93CF93DF93EC0181E0888F9B8DAA
:103170008C8D981305C0E889F989808185FD24C06C
:10318000F62E0B8D10E00F5F1F4F0F731127E02EEF
:103190008C8DE8120CC00FB607FCFACFE889F989CC
:1031A000808185FFF5CFCE010E946318F1CF8B8D12
:1031B000FE01E80FF11DE35AFF4FF0820B8FEA8901
:1031C000FB898081806207C0EE89FF896083E8897E
:1031D000F98980818064808381E090E0DF91CF91E4
:1031E0001F910F91FF90EF900895CF93DF93EC0123
:1031F000888D8823C9F0EA89FB89808185FD05C017
:10320000A889B9898C9186FD0FC00FB607FCF5CF50
:10321000808185FFF2CFA889B9898C9185FFEDCF98
:10322000CE010E946318E7CFDF91CF910895CF932D
:10323000DF93282F30E0F901E356FA4F8491F9012A
:10324000E95AFA4FD491F901EF5EFA4FC491CC23B9
:1032500091F081110E94CF12EC2FF0E0EE0FFF1FD2
:10326000E950FB4FA591B491EC91ED2381E090E002
:1032700021F480E002C080E090E0DF91CF910895DA
:103280001F93CF93DF93282F30E0F901E356FA4FD5
:103290008491F901E95AFA4FD491F901EF5EFA4F9E
:1032A000C491CC23C9F0162F81110E94CF12EC2FAC
:1032B000F0E0EE0FFF1FE352FB4FA591B4918FB7E3
:1032C000F894111105C09C91ED2FE095E92302C0FF
:1032D000EC91ED2BEC938FBFDF91CF911F9108956F
:1032E0001F93CF93DF9300D000D0CDB7DEB7182F58
:1032F0008091550C1817B1F0112319F065E174E0B5
:1033000002C061E374E0CE0101960E94152ACE014D
:1033100001960E944A29612F8091600C0E944019F9
:103320001093550C0E949C2B6093510C7093520C7F
:103330008093530C9093540C0E942C15811119C04A
:1033400080919E0C90919F0CDC01ED91FC9104808A
:10335000F581E02D1995892B79F380919E0C909140
:103360009F0CDC01ED91FC910680F781E02D199511
:10337000E3CF26960FB6F894DEBF0FBECDBFDF9128
:10338000CF911F910895CF93DF9390E0FC01E95A0C
:10339000FA4F2491FC01EF5EFA4F8491882361F18A
:1033A00090E0880F991FFC01ED53FB4FC591D4911C
:1033B000FC01E352FB4FA591B491611109C09FB785
:1033C000F8948881209582238883EC912E230BC06A
:1033D000623061F49FB7F8943881822F80958323FF
:1033E0008883EC912E2B2C939FBF06C08FB7F89447
:1033F000E8812E2B28838FBFDF91CF910895CF9244
:10340000DF92EF92FF920F931F93CF93DF93CDB78D
:10341000DEB762970FB6F894DEBF0FBECDBF9091B6
:103420009C0880919D08992309F459C08F3FB1F4FD
:103430000E94EB13882309F4A4C160E576E0CE0175
:1034400001960E94D429CE0101960E948610CE01D9
:1034500001960E944A2910929C0893C10E94EB1386
:10346000882309F48EC110929C086DE376E0CE01AA
:1034700001960E94D429CE0101960E948610CE01A9
:1034800001960E944A2980919E088F5F80939E0832
:103490008B3008F45EC06DE276E0CE0101960E94AA
:1034A000D429CE0101960E948610CE0101960E9479
:1034B0004A2940E052EC61E070E080919A089091D6
:1034C0009B080E94841380919A0890919B08DC01CC
:1034D000ED91FC910284F385E02D19953AC084307A
:1034E000E1F56CE474E0CE0101960E94152ACE014C
:1034F00001960E948610CE0101960E944A2962E739
:1035000075E080919A0890919B080E942A2A8091E8
:103510009A0890919B08DC01ED91FC910284F3855F
:10352000E02D199564E670E080E090E00E94622B47
:1035300061E088E00E9440190E949C2B6093A308E0
:103540007093A4088093A5089093A60881E08093C7
:103550009C088FEF80939D0814C18F3FA9F56BE500
:1035600074E085EB9BE00E941C2961E176E0CE01CE
:1035700001960E94D429CE0101960E948610CE01A8
:1035800001960E944A2940E052EC61E070E080918F
:103590009A0890919B080E9484136BE574E08091D7
:1035A0009A0890919B080E942A2A80919A089091EB
:1035B0009B08DC01ED91FC910284F385E02D1995C7
:1035C00081E080939C08B2C4823039F10E949C2B28
:1035D0000091AB081091AC082091AD083091AE0875
:1035E000DC01CB01801B910BA20BB30B89389341FB
:1035F000A105B10508F066C40E949C2B0091AB08A0
:103600001091AC082091AD083091AE086017710799
:103610008207930708F456C4B4C080919F08909124
:10362000A0082091A1083091A208821B930B8F77EC
:103630009927892B09F47FC08091A1089091A20855
:1036400016E0189FF001199FF00D1124E155F74F76
:1036500084819581892B09F45AC08091A1089091A9
:10366000A208189FB001199F700D11246155774F62
:1036700080919A0890919B080E943E2A80919A0816
:1036800090919B08DC01ED91FC910284F385E02D83
:103690001995E090A108F090A20864E674E0CE01CC
:1036A00001960E94152A1E9DB0011F9D700D1124C8
:1036B0006155774FCE0101960E94E828BC01CE01EA
:1036C00007960E940C2ACE0107960E948610CE0112
:1036D00007960E944A29CE0101960E944A2981E05C
:1036E00080939C080E949C2B6093A3087093A4086D
:1036F0008093A5089093A6080E949C2B6093A7082E
:103700007093A8088093A9089093AA080EC06AEE47
:1037100075E0CE0101960E94D429CE0101960E9447
:103720008610CE0101960E944A296CE674E085EB72
:103730009BE00E941C290E949C2B0091A7081091DD
:10374000A8082091A9083091AA08DC01CB01801BB0
:10375000910BA20BB30B89389341A105B10508F079
:10376000F0C30E949C2B0091A7081091A8082091FB
:10377000A9083091AA08601771078207930708F417
:10378000E0C380919A0890919B08DC01ED91FC9137
:103790000480F581E02D1995892B09F478C1809179
:1037A0009A0890919B08DC01ED91FC910680F781CD
:1037B000E02D1995182F89831A8241E050E0BE014F
:1037C0006F5F7F4F8FEA9BE00E94882810929E08CF
:1037D0001D3009F05CC161E774E0CE0107960E94DC
:1037E000152A6FEA7BE0CE0107960E94E828BC010B
:1037F000CE0101960E940C2ACE0101960E948610ED
:10380000CE0101960E944A29CE0107960E944A29BC
:103810008091B90B9091BA0B892B79F16CE674E029
:103820008091B50B9091B60B0E947640892B29F5BB
:103830008091AF0B9091B00B009719F00E947743E5
:1038400003C060E070E0CB012091A1083091A20894
:10385000890120E030E0601771078207930709F0C3
:1038600010C18091A1089091A20801968F779927A5
:103870009093A2088093A10802C162E775E0CE018F
:1038800001960E94152ACE0101960E9468138C01B0
:10389000CE0101960E944A290F3F1F4F79F16FEC2C
:1038A00076E0CE0101960E94D429CE0101960E94B5
:1038B0008610CE0101960E944A296EEC76E0CE0178
:1038C00001960E94D429CE0101960E948610CE0155
:1038D00001960E944A298091B90B9091BA0B892BCD
:1038E00009F4CDC06BE574E08091B50B9091B60BF7
:1038F0000E947640892B09F48FC0C1C06FED74E03F
:10390000CE0101960E94152ACE0101960E946813ED
:103910008C01CE0101960E944A290F3F1F4FF1F002
:1039200065EB76E0CE0101960E94D429CE01019686
:103930000E948610CE0101960E944A2964EB76E02F
:10394000CE0101960E94D429CE0101960E948610D4
:10395000CE0101960E944A2982E08FC06AE774E096
:10396000CE0101960E94152ACE0101960E9468138D
:103970008C01CE0101960E944A290F3F1F4FF1F0A2
:103980006CE976E0CE0101960E94D429CE01019621
:103990000E948610CE0101960E944A296BE976E0CA
:1039A000CE0101960E94D429CE0101960E94861074
:1039B000CE0101960E944A2983E05FC067EF72E062
:1039C000CE0101960E94152ACE0101960E9468132D
:1039D0008C01CE0101960E944A290F3F1F4FF1F042
:1039E00062E876E0CE0101960E94D429CE010196CC
:1039F0000E948610CE0101960E944A2961E876E075
:103A0000CE0101960E94D429CE0101960E94861013
:103A1000CE0101960E944A2981E02FC06FE774E031
:103A2000CE0101960E94152ACE0101960E946813CC
:103A30008C01CE0101960E944A290F3F1F4F09F1C8
:103A400068E676E0CE0101960E94D429CE01019667
:103A50000E948610CE0101960E944A2967E676E010
:103A6000CE0101960E94D429CE0101960E948610B3
:103A7000CE0101960E944A2984E080939D0810920D
:103A80009C0864E176E08FEA9BE00E941C290E947A
:103A9000CA07209105023091060280918108909119
:103AA00082088217930709F461C08091040221FD06
:103AB00006C0882309F450C06DE177E01BC025FDE6
:103AC00006C0882309F448C063E177E013C0A90168
:103AD00040745570452B29F48823F1F169E077E0B3
:103AE00009C0A90140785A70452BA1F48823A1F19F
:103AF0006FEF76E0CE0101960E94D42960E0CE01FE
:103B000001960E943521CE0101960E944A29109209
:103B1000040222C022FD05C08823F1F065EF76E0A3
:103B2000E9CF23FD05C08823B9F06BEE76E0E2CF44
:103B3000813091F065EE76E0CE0101960E94D429A5
:103B400060E0CE0101960E943521CE0101960E94CF
:103B50004A2981E0809304020E9426118091050287
:103B600090910602909382088093810887E20E94D8
:103B70001719892B59F40E949C2B60933606709379
:103B80003706809338069093390617C00E949C2B05
:103B9000009136061091370620913806309139068B
:103BA000DC01CB01801B910BA20BB30B813D974035
:103BB000A105B10510F40E949C2B0E945A0C809123
:103BC0005606882329F10E949C2B609384087093E9
:103BD00085088093860890938708809183088111D7
:103BE00015C067E277E0CE0101960E94D429CE018C
:103BF00001960E941E2BCE0101960E944A2961E087
:103C00008EE20E94401981E080938308109256064C
:103C1000809183088823D9F10E949C2BC09084084E
:103C2000D0908508E0908608F0908708DC01CB01F1
:103C30008C199D09AE09BF0989389341A105B105C9
:103C4000A8F068E072E0CE0101960E94D429CE016E
:103C500001960E941E2BCE0101960E944A2960E027
:103C60008EE20E9440191092830811C00E949C2B82
:103C70006C157D058E059F0550F40E949C2B60936A
:103C800084087093850880938608909387088091B4
:103C90009708882321F00E94FF08109297088091CE
:103CA0009608882309F48BC080915C0C811185C033
:103CB0008091650C882309F480C08091620C8F5F2D
:103CC0008093620C823008F478C082E090E0909398
:103CD000A90C8093A80C1092AA0C81E090E090931C
:103CE000AC0C8093AB0C85EE90E09093AE0C80937F
:103CF000AD0C88E18093B70C0E94280F81E080937F
:103D0000E30C85E00E94E60EF82E882309F41AC21F
:103D100064E176E0CE010D960E94152A0E94FB0D0B
:103D2000E12CD12C0E2D1D2D80919E0C90919F0C7D
:103D3000DC01ED91FC910480F581E02D1995892B32
:103D400009F430C1003111050CF44AC12BC1809136
:103D5000C80C882309F4AAC18091C70C281709F45C
:103D6000B9C18091C80C0E94A8248C018091C70C15
:103D70008093E40C0F3F09F4B0C18091570C9091EF
:103D8000580C800F911D07FD9A959093580C8093C5
:103D9000570C8091640C882371F067EB74E0CE01BE
:103DA00001960E94152ACE0101960E944A290E947E
:103DB000850F1092640C1092620C109296088091FC
:103DC0009508882399F08CE00E94171961E0892BEF
:103DD00009F060E08CE00E9440198CE00E94171905
:103DE000682F8DE00E9440191092950880919408E8
:103DF0008111109294080E949C2B609390087093FC
:103E000091088093920890939308C0908C08D0906A
:103E10008D08E0908E08F0908F088B019C010C19A2
:103E20001D092E093F090230110521053105D8F180
:103E300020918B082C19260F20938B0860938C08F7
:103E400070938D0880938E0890938F082A3008F421
:103E500086C110928B0890918A089F5F90938A0880
:103E600081E0809397089A3008F479C110928A080B
:103E7000909189089F5F9093890880939608953068
:103E800008F46DC110928908909188089F5F909303
:103E9000880880939508923008F461C110928808D0
:103EA000809394085CC16C157D058E059F0508F014
:103EB00056C160938C0870938D0880938E08909300
:103EC0008F084DC16CED74E085EB9BE00E941C29CE
:103ED0006AEF75E0CE0101960E94D429CE010196C9
:103EE0000E948610CE0101960E944A296CED74E072
:103EF00080919A0890919B080E942A2A80919A08A2
:103F000090919B08DC01ED91FC910284F385E02DFA
:103F1000199581E080939C080E949C2B6093AB08CC
:103F20007093AC088093AD089093AE080E949C2BD0
:103F30006093A3087093A4088093A5089093A608A3
:103F400020CC6CED74E085EB9BE00E941C296CEDAD
:103F500074E080919A0890919B080E942A2A80918F
:103F60009A0890919B08DC01ED91FC910284F38505
:103F7000E02D199581E080939C080E949C2B609312
:103F8000A3087093A4088093A5089093A6080E94A4
:103F90009C2B6093A7087093A8088093A90890931E
:103FA000AA08EFCBE02ED12E0E94060E882361F0E6
:103FB00064E974E0CE0101960E94152ACE010196B3
:103FC0000E944A29F12C04C0003111050CF4AACE3C
:103FD000CE010D960E944A29FF2009F4B3C043C0C8
:103FE00080919E0C90919F0CDC01ED91FC910680DC
:103FF000F781E02D1995E82E4AE0682FCE01019651
:104000000E94A729BE016F5F7F4FCE010D960E94CF
:10401000B628CE0101960E944A290F301105D1F42D
:1040200065E874E0CE0101960E94152ABE01635F27
:104030007F4FCE0101960E94E828BC01CE01079671
:104040000E940C2ACE0107960E944A29CE010196B1
:104050000E944A29F801E456F34FE7A20F5F1F4F71
:104060000E94FB0D61CE8091C70C2091E40C90E082
:10407000821B910902970CF46ACEF090C70CF21AD9
:10408000EF2DEE0F00E010E08EEFE82EEE0EFF2099
:1040900009F46CCEED5FF0E0E456F34F87A10E9487
:1040A000A824080F191FFA94EE2DEECF8091C70CAB
:1040B000281310C08091C90C8E3051F48091E60C09
:1040C0008F5F8093E60C853128F01092E60C05C0D6
:1040D0001092E60C00E010E049CE6091640C6F5F36
:1040E0006093640C4AE0CE0107960E94A7296CEB0E
:1040F00074E0CE010D960E94152ABE01695F7F4FC4
:10410000CE010D960E94E828BC01CE0101960E94C6
:104110000C2ACE0101960E944A29CE010D960E94DA
:104120004A29CE0107960E944A298091640C8B305F
:1041300008F441CE0E94CE0F81E08093650C0E946E
:10414000F92437CE6091640C6F5F6093640C4AE091
:10415000CE0107960E94A72965EE74E0CACF629649
:104160000FB6F894DEBF0FBECDBFDF91CF911F9188
:104170000F91FF90EF90DF90CF900895CF92DF9254
:10418000EF92FF920F931F93CF93DF93CDB7DEB7DC
:104190002C970FB6F894DEBF0FBECDBF6C017B012C
:1041A0008A0163E677E0CE0107960E94D42961E692
:1041B00077E0CE0107960E94582860919F08709181
:1041C000A0084AE0CE0101960E944F29BE016F5F10
:1041D0007F4FCE0107960E94B628CE0101960E941D
:1041E0004A2969E577E0CE0107960E945828B60172
:1041F000CE0107960E94B62867E577E0CE010796C4
:104200000E945828B701CE0107960E94B62865E59E
:1042100077E0CE0107960E945828B801CE01079694
:104220000E94B628BE01695F7F4FCE0101960E94B1
:104230000C2ACE0101960E94A710CE0101960E9481
:104240004A29CE0107960E944A2980E02C960FB693
:10425000F894DEBF0FBECDBFDF91CF911F910F91BC
:10426000FF90EF90DF90CF900895FF920F931F93F0
:10427000CF93DF93CDB7DEB762970FB6F894DEBF6A
:104280000FBECDBF8C01F62EBC01CE0101960E945F
:104290000C2A6BEE7BE0CE0107960E940C2A65EE9D
:1042A0007BE0CE010D960E940C2AAE014F5F5F4F5E
:1042B000BE01695F7F4FCE010D960E94BE20CE01E8
:1042C0000D960E944A29CE0107960E944A29CE01E6
:1042D00001960E944A29F80184819581892B09F46D
:1042E00011C265E075E0808191810E947640892B42
:1042F00009F008C263E577E0CE0101960E94D42957
:1043000061EF7BE0CE0107960E940C2A65EE7BE010
:10431000CE010D960E940C2AAE014F5F5F4FBE0189
:10432000695F7F4FCE010D960E94BE20CE010D9693
:104330000E944A29CE0107960E944A29CE01019681
:104340000E944A2961E577E0CE0101960E94D429B6
:1043500067EF7BE0CE0107960E940C2A65EE7BE0BA
:10436000CE010D960E940C2AAE014F5F5F4FBE0139
:10437000695F7F4FCE010D960E94BE20CE010D9643
:104380000E944A29CE0107960E944A29CE01019631
:104390000E944A296FE477E0CE0101960E94D42959
:1043A0006DEF7BE0CE0107960E940C2A65EE7BE064
:1043B000CE010D960E940C2AAE014F5F5F4FBE01E9
:1043C000695F7F4FCE010D960E94BE20CE010D96F3
:1043D0000E944A29CE0107960E944A29CE010196E1
:1043E0000E944A296DE477E0CE0101960E94D4290B
:1043F00063E07CE0CE0107960E940C2A65EE7BE02C
:10440000CE010D960E940C2AAE014F5F5F4FBE0198
:10441000695F7F4FCE010D960E94BE20CE010D96A2
:104420000E944A29CE0107960E944A29CE01019690
:104430000E944A296BE477E0CE0101960E94D429BC
:1044400069E07CE0CE0107960E940C2A65EE7BE0D5
:10445000CE010D960E940C2AAE014F5F5F4FBE0148
:10446000695F7F4FCE010D960E94BE20CE010D9652
:104470000E944A29CE0107960E944A29CE01019640
:104480000E944A2969E477E0CE0101960E94D4296E
:104490006FE07CE0CE0107960E940C2A65EE7BE07F
:1044A000CE010D960E940C2AAE014F5F5F4FBE01F8
:1044B000695F7F4FCE010D960E94BE20CE010D9602
:1044C0000E944A29CE0107960E944A29CE010196F0
:1044D0000E944A2967E477E0CE0101960E94D42920
:1044E00065E17CE0CE0107960E940C2A65EE7BE038
:1044F000CE010D960E940C2AAE014F5F5F4FBE01A8
:10450000695F7F4FCE010D960E94BE20CE010D96B1
:104510000E944A29CE0107960E944A29CE0101969F
:104520000E944A2965E477E0CE0101960E94D429D1
:104530006BE17CE0CE0107960E940C2A65EE7BE0E1
:10454000CE010D960E940C2AAE014F5F5F4FBE0157
:10455000695F7F4FCE010D960E94BE20CE010D9661
:104560000E944A29CE0107960E944A29CE0101964F
:104570000E944A2963E477E0CE0101960E94D42983
:1045800061E27CE0CE0107960E940C2A65EE7BE09A
:10459000CE010D960E940C2AAE014F5F5F4FBE0107
:1045A000695F7F4FCE010D960E94BE20CE010D9611
:1045B0000E944A29CE0107960E944A29CE010196FF
:1045C0000E944A2961E477E0CE0101960E94D42935
:1045D00067E27CE0CE0107960E940C2A65EE7BE044
:1045E000CE010D960E940C2AAE014F5F5F4FBE01B7
:1045F000695F7F4FCE010D960E94BE20CE010D96C1
:104600000E944A29CE0107960E944A29CE010196AE
:104610000E944A296FE377E0CE0101960E94D429D7
:104620006DE27CE0CE0107960E940C2A65EE7BE0ED
:10463000CE010D960E940C2AAE014F5F5F4FBE0166
:10464000695F7F4FCE010D960E94BE20CE010D9670
:104650000E944A29CE0107960E944A29CE0101965E
:104660000E944A296DE377E0CE0101960E94D42989
:1046700063E37CE0CE0107960E940C2A65EE7BE0A6
:10468000CE010D960E940C2AAE014F5F5F4FBE0116
:10469000695F7F4FCE010D960E94BE20CE010D9620
:1046A0000E944A29CE0107960E944A29CE0101960E
:1046B0000E944A296BE377E0CE0101960E94D4293B
:1046C00069E37CE0CE0107960E940C2A65EE7BE050
:1046D000CE010D960E940C2AAE014F5F5F4FBE01C6
:1046E000695F7F4FCE010D960E94BE20CE010D96D0
:1046F0000E944A29CE0107960E944A29CE010196BE
:104700000E944A29F1100E94261162960FB6F89471
:10471000DEBF0FBECDBFDF91CF911F910F91FF90F4
:1047200008951F93CF93DF93CDB7DEB762970FB68F
:10473000F894DEBF0FBECDBF162FBC01CE0101968F
:104740000E940C2A69E07CE0CE0107960E940C2AA8
:1047500065EE7BE0CE010D960E940C2AAE014F5F04
:104760005F4FBE01695F7F4FCE010D960E94BE2054
:10477000CE010D960E944A29CE0107960E944A2931
:10478000CE0101960E944A2911110E9426116296BB
:104790000FB6F894DEBF0FBECDBFDF91CF911F9152
:1047A00008950F931F93CF93DF93CDB7DEB769972B
:1047B0000FB6F894DEBF0FBECDBF282F8B0165EE7C
:1047C0007BE0CE014396298F0E940C2A298D22304E
:1047D00061F0233091F02130C1F5B801CE0101968E
:1047E0000E940C2A6BE17CE00FC0B801CE0101965B
:1047F0000E940C2A67E27CE007C0B801CE01019656
:104800000E940C2A63E37CE0CE0107960E940C2AEA
:10481000BE016D5E7F4FCE010D960E940C2AAE0147
:104820004F5F5F4FBE01695F7F4FCE010D960E94C3
:10483000BE20CE010D960E944A29CE0107960E9405
:104840004A29CE0101960E944A29CE0143960E9430
:104850004A2969960FB6F894DEBF0FBECDBFDF912F
:10486000CF911F910F910895CF93DF93CDB7DEB70E
:1048700062970FB6F894DEBF0FBECDBFBC01CE016C
:1048800001960E940C2A6FE07CE0CE0107960E9400
:104890000C2A65EE7BE0CE010D960E940C2AAE013B
:1048A0004F5F5F4FBE01695F7F4FCE010D960E9443
:1048B000BE20CE010D960E944A29CE0107960E9485
:1048C0004A29CE0101960E944A2962960FB6F894B1
:1048D000DEBF0FBECDBFDF91CF910895CF93DF93A1
:1048E000CDB7DEB762970FB6F894DEBF0FBECDBF6F
:1048F000BC01CE0101960E940C2A61EF7BE0CE0143
:1049000007960E940C2A65EE7BE0CE010D960E9470
:104910000C2AAE014F5F5F4FBE01695F7F4FCE0132
:104920000D960E94BE20CE010D960E944A29CE010E
:1049300007960E944A29CE0101960E944A29629652
:104940000FB6F894DEBF0FBECDBFDF91CF910895B3
:10495000CF93DF9300D000D0CDB7DEB790E0FC015D
:104960003897E830F105D0F58827E856FF4F8F4F8C
:104970000C941B3E6EE075E0CE0101960E94152A54
:10498000CE0101960E944A2981E090E029C061E2AF
:1049900075E0CE0101960E94152ACE0101960E9473
:1049A0004A2982E090E01CC064E375E0CE010196E4
:1049B0000E94152ACE0101960E944A2985E090E0C6
:1049C0000FC067E475E0CE0101960E94152ACE0162
:1049D00001960E944A298AE090E002C080E090E0BF
:1049E00026960FB6F894DEBF0FBECDBFDF91CF91F4
:1049F0000895EF92FF920F931F93CF93DF93CDB75C
:104A0000DEB762970FB6F894DEBF0FBECDBF82E06F
:104A100090E09093A90C8093A80C1092AA0C81E0CE
:104A200090E09093AC0C8093AB0C9093AE0C809381
:104A3000AD0C8CEF8093B70C0E94280F85E00E948C
:104A4000E60E882309F429C10E94340E882309F454
:104A500024C180915C0C8F3F51F46BE575E0CE0171
:104A600001960E94152ACE0101960E944A2968ECFF
:104A700070E080E090E00E94622B82E090E09093F2
:104A8000A90C8093A80C1092AA0C81E090E090935E
:104A9000AC0C8093AB0C88EE90E09093AE0C8093BE
:104AA000AD0C85E18093B70C0E94280F85E00E9431
:104AB000E60E882399F10E94FB0DE12CF12C870171
:104AC00080919E0C90919F0CDC01ED91FC910480F3
:104AD000F581E02D1995892BD9F006301105A1F04B
:104AE00080919E0C90919F0CDC01ED91FC910680D1
:104AF000F781E02D1995F801E456F34F81A30F5F7C
:104B00001F4F0E94FB0DDCCF86E0E82EF12C01C088
:104B100078010E94060E882309F4C8C068EC70E092
:104B200080E090E00E94622B6091E90C60935C0C45
:104B3000611139C065E775E0CE0101960E94152A22
:104B4000CE0101960E944A2982E090E09093A90C40
:104B50008093A80C8093AA0C81E090E09093AC0C19
:104B60008093AB0C87EE90E09093AE0C8093AD0CED
:104B700080E88093AF0C8FEF8093B00C85E9809331
:104B8000B70C0E94280F87E00E94E60E81110E9458
:104B9000340E8091650C882319F00E94850F59C04E
:104BA0000E94CE0F56C080915D0C1616C4F56A3077
:104BB00074F4681709F44DC0062E000C770B4AE018
:104BC000CE0107960E947B2964E875E00DC0681746
:104BD00009F43FC0062E000C770B4AE0CE01079681
:104BE0000E947B296AE975E0CE010D960E94152A84
:104BF000BE01695F7F4FCE010D960E94E828BC017F
:104C0000CE0101960E940C2ACE0101960E944A29EB
:104C1000CE010D960E944A29CE01079614C068174E
:104C2000C1F06FEA75E0CE0101960E94152ACE010F
:104C300001960E944A296CEC75E0CE0101960E9413
:104C4000152ACE0101960E944A2980915C0C80931E
:104C50005D0C80915C0C81111EC080915D0C8823DD
:104C600071F063EE75E0CE0101960E94152ACE0127
:104C700001960E944A2980915C0C80935D0C0E94F1
:104C80009C2B6093510C7093520C8093530C909317
:104C9000540C81E045C080E043C08FEF80935C0CF2
:104CA00080915D0C8F3F09F0BCCFD3CF063011054A
:104CB00009F005CFB6E0EB16F10409F02FCF20E0A4
:104CC00080E090E0FC01E456F34F31A1230F019600
:104CD00086309105B9F78091BA0C883221F0809125
:104CE000BA0C823029F4211103C08091C10C15C087
:104CF0006CEF75E0CE0101960E94152ACE01019657
:104D00000E944A2965E176E0CE0101960E94152AAB
:104D1000CE0101960E944A298FEF8093E90CFECEC6
:104D200062960FB6F894DEBF0FBECDBFDF91CF9174
:104D30001F910F91FF90EF900895CF93DF93CDB720
:104D4000DEB762970FB6F894DEBF0FBECDBFBC01D1
:104D5000CE0101960E940C2A67EF7BE0CE010796F8
:104D60000E940C2A65EE7BE0CE010D960E940C2A73
:104D7000AE014F5F5F4FBE01695F7F4FCE010D9661
:104D80000E94BE20CE010D960E944A29CE010796B0
:104D90000E944A29CE0101960E944A2962960FB6C6
:104DA000F894DEBF0FBECDBFDF91CF910895CF93B2
:104DB000DF93CDB7DEB762970FB6F894DEBF0FBEB4
:104DC000CDBF20919D08223079F069E276E0CE01D6
:104DD00001960E94152ACE0101960E948610CE01EE
:104DE00001960E944A2929C0BC01CE0101960E9469
:104DF0000C2A65E47CE0CE0107960E940C2A6FE342
:104E00007CE0CE010D960E940C2AAE014F5F5F4FF1
:104E1000BE01695F7F4FCE010D960E94BE20CE017C
:104E20000D960E944A29CE0107960E944A29CE017A
:104E300001960E944A290E94261162960FB6F894A4
:104E4000DEBF0FBECDBFDF91CF910895CF93DF932B
:104E5000CDB7DEB762970FB6F894DEBF0FBECDBFF9
:104E6000BC01CE0101960E940C2A6DEF7BE0CE01C1
:104E700007960E940C2A65EE7BE0CE010D960E94FB
:104E80000C2AAE014F5F5F4FBE01695F7F4FCE01BD
:104E90000D960E94BE20CE010D960E944A29CE0199
:104EA00007960E944A29CE0101960E944A296296DD
:104EB0000FB6F894DEBF0FBECDBFDF91CF9108953E
:104EC000CF93DF93CDB7DEB762970FB6F894DEBF0E
:104ED0000FBECDBFBC01CE0101960E940C2A63E03B
:104EE0007CE0CE0107960E940C2A65EE7BE0CE01A5
:104EF0000D960E940C2AAE014F5F5F4FBE01695FA5
:104F00007F4FCE010D960E94BE20CE010D960E94CD
:104F10004A29CE0107960E944A29CE0101960E9495
:104F20004A2962960FB6F894DEBF0FBECDBFDF915F
:104F3000CF9108951F93CF93DF93CDB7DEB76297DC
:104F40000FB6F894DEBF0FBECDBF162FBC01CE0149
:104F500001960E940C2A69E37CE0CE0107960E942C
:104F60000C2A65EE7BE0CE010D960E940C2AAE0164
:104F70004F5F5F4FBE01695F7F4FCE010D960E946C
:104F8000BE20CE010D960E944A29CE0107960E94AE
:104F90004A29CE0101960E944A2911110E94261128
:104FA00062960FB6F894DEBF0FBECDBFDF91CF91F2
:104FB0001F9108950895CF92DF92EF92FF920F9381
:104FC0001F93CF93DF936C017A018B01C0E0D0E097
:104FD000CE15DF0589F0D8016D918D01D601ED91D7
:104FE000FC910190F081E02DC6011995892B11F4F7
:104FF0007E0102C02196ECCFC701DF91CF911F91B6
:105000000F91FF90EF90DF90CF9008950E9468403D
:105010006115710579F0FB0101900020E9F73197E6
:10502000AF01461B570BDC01ED91FC910280F3812F
:10503000E02D199480E090E008950F931F93CF9393
:10504000DF93EC0188819981009729F02A813B81C7
:105050002617370788F48B016F5F7F4F0E947F3FD1
:10506000009761F0998388831B830A832C813D819B
:10507000232B11F4FC01108281E001C080E0DF915C
:10508000CF911F910F91089586E297E00E948812B8
:1050900021E0892B09F420E0822F089583EC97E02A
:1050A0000E94881221E0892B09F420E0822F0895C4
:1050B000EF92FF920F931F93CF93DF9361157105CA
:1050C00011F480E01EC08B01EC01CB010E94A543CE
:1050D0000097B1F02C813D817C01E20EF31EB701F7
:1050E000CE010E941D28882361F3288139818C819B
:1050F0009D81B801820F931F0E949E43FD82EC8226
:1051000081E0DF91CF911F910F91FF90EF90089573
:10511000EF92FF920F931F93CF93DF93FC012481B3
:1051200035816115710511F480E019C041155105F3
:10513000A9F07B01EC018A01020F131FB8010E9444
:105140001D28882389F3288139818C819D81B701AD
:10515000820F931F0E947F401D830C8381E0DF91AB
:10516000CF911F910F91FF90EF900895FB01448123
:105170005581608171810C948828CF93DF93EC0175
:1051800088819981009711F00E94E73E1982188268
:105190001D821C821B821A82DF91CF910895CF93CA
:1051A000DF93EC016115710561F0FB0101900020B6
:1051B000E9F73197AF01461B570B0E9488288111F0
:1051C00003C0CE010E94BD28CE01DF91CF9108958A
:1051D000CF93DF93EC01FB014481558160817181A4
:1051E0000E948828811103C0CE010E94BD28CE01F3
:1051F000DF91CF910895EF92FF920F931F93CF937A
:10520000DF93EC017B018A01BA010E941D28811104
:1052100004C0CE010E94BD2807C01D830C83B701C6
:10522000888199810E947F40CE01DF91CF911F91AB
:105230000F91FF90EF900895CF93DF93EC016115EC
:10524000710559F0FB0101900020E9F73197AF019A
:10525000461B570B0E94FB2802C00E94BD28CE01AE
:10526000DF91CF910895CF93DF93EC01FB01861777
:10527000970761F0608171816115710529F04481A2
:1052800055810E94FB2802C00E94BD28CE01DF91FB
:10529000CF910895FC01808191810C94E73E0F939A
:1052A0001F93CF93DF93CDB7DEB761970FB6F89416
:1052B000DEBF0FBECDBF8C01CB01F8011182108281
:1052C000138212821582148250E0BE016F5F7F4FFD
:1052D0000E94D943BE016F5F7F4FC8010E941C2905
:1052E00061960FB6F894DEBF0FBECDBFDF91CF91B0
:1052F0001F910F9108950F931F93CF93DF93CDB715
:10530000DEB762970FB6F894DEBF0FBECDBF8C013B
:10531000CB01F8011182108213821282158214824D
:1053200050E0BE016F5F7F4F0E94AE43BE016F5FD2
:105330007F4FC8010E941C2962960FB6F894DEBF09
:105340000FBECDBFDF91CF911F910F9108950F93A5
:105350001F93CF93DF93CDB7DEB729970FB6F8949D
:10536000DEBF0FBECDBF8C01862FF80111821082E7
:10537000138212821582148250E0BE016F5F7F4F4C
:1053800090E00E94D943BE016F5F7F4FC8010E9429
:105390001C2929960FB6F894DEBF0FBECDBFDF9152
:1053A000CF911F910F910895EF92FF920F931F934A
:1053B000CF93DF93EC01198218821B821A821D821F
:1053C0001C826115710509F18B01CB010E94A54377
:1053D0007C01BC01CE010E941D28811109C0CE01B3
:1053E000DF91CF911F910F91FF90EF900C94BD280A
:1053F000FD82EC82B80188819981DF91CF911F9164
:105400000F91FF90EF900C949E43DF91CF911F91ED
:105410000F91FF90EF900895FC011182108213828A
:105420001282158214820C943329FC01118210829D
:1054300013821282158214826115710551F0FB01ED
:1054400001900020E9F73197AF01461B570B0C94F0
:10545000FB2808950F931F93CF93DF93EC010E94D5
:1054600008288C0162E176E0CE010E940828800FB6
:10547000911FDF91CF911F910F9108950F931F936B
:10548000CF93DF93EC01E881F981DB0114964D9114
:105490005C9115976D917C910280F381E02D1995B7
:1054A0008C0162E176E0CE010E940828800F911FF6
:1054B000DF91CF911F910F9108951F920F920FB618
:1054C0000F9211240BB60F922F933F934F935F933C
:1054D0006F937F938F939F93AF93BF93EF93FF93BC
:1054E00086E297E00E946318FF91EF91BF91AF9120
:1054F0009F918F917F916F915F914F913F912F91EC
:105500000F900BBE0F900FBE0F901F9018951F921B
:105510000F920FB60F9211240BB60F922F933F9359
:105520004F935F936F937F938F939F93AF93BF93AB
:10553000EF93FF9383EC97E00E946318FF91EF9144
:10554000BF91AF919F918F917F916F915F914F919B
:105550003F912F910F900BBE0F900FBE0F901F9099
:105560001895FC01A089B1898C91A689B78982FD23
:105570000FC09C91818D8F5F8F73228D821749F0B0
:10558000218DDF01A20FB11D5D969C93818F08953F
:105590008C9108951F920F920FB60F9211240BB6A3
:1055A0000F922F933F934F935F936F937F938F93BC
:1055B0009F93AF93BF93EF93FF9386E297E00E9490
:1055C000B12AFF91EF91BF91AF919F918F917F9100
:1055D0006F915F914F913F912F910F900BBE0F9064
:1055E0000FBE0F901F9018951F920F920FB60F923B
:1055F00011240BB60F922F933F934F935F936F93AA
:105600007F938F939F93AF93BF93EF93FF9383EC1D
:1056100097E00E94B12AFF91EF91BF91AF919F91C6
:105620008F917F916F915F914F913F912F910F904B
:105630000BBE0F900FBE0F901F901895CF93DF9366
:1056400000D000D0CDB7DEB7BC01CE0101960E94DC
:105650000C2ABE016F5F7F4F88E89CE00E9477169E
:10566000CE0101960E944A2926960FB6F894DEBF15
:105670000FBECDBFDF91CF9108953FB7F8948091D1
:10568000EF0C9091F00CA091F10CB091F20C26B5BA
:10569000A89B05C02F3F19F00196A11DB11D3FBF6A
:1056A000BA2FA92F982F8827820F911DA11DB11DF8
:1056B000BC01CD0142E0660F771F881F991F4A95F4
:1056C000D1F708958F929F92AF92BF92CF92DF92BF
:1056D000EF92FF926B017C010E943D2B4B015C011C
:1056E000C114D104E104F104F1F00E943D2BDC016E
:1056F000CB0188199909AA09BB09883E9340A105E5
:10570000B10570F321E0C21AD108E108F10888EE72
:10571000880E83E0981EA11CB11CC114D104E104C1
:10572000F10419F7DDCFFF90EF90DF90CF90BF909D
:10573000AF909F908F9008952FB7F8946091EB0CE5
:105740007091EC0C8091ED0C9091EE0C2FBF0895B0
:105750001F920F920FB60F9211242F933F938F93A6
:105760009F93AF93BF938091EB0C9091EC0CA09121
:10577000ED0CB091EE0C3091EA0C23E0230F2D37A5
:1057800020F40196A11DB11D05C026E8230F029645
:10579000A11DB11D2093EA0C8093EB0C9093EC0CAF
:1057A000A093ED0CB093EE0C8091EF0C9091F00C67
:1057B000A091F10CB091F20C0196A11DB11D809346
:1057C000EF0C9093F00CA093F10CB093F20CBF91FE
:1057D000AF919F918F913F912F910F900FBE0F909E
:1057E0001F901895CF93DF93CDB7DEB7CD55D10974
:1057F0000FB6F894DEBF0FBECDBF789484B582603B
:1058000084BD84B5816084BD85B5826085BD85B564
:10581000816085BD80916E00816080936E001092E2
:10582000810080918100826080938100809181005D
:1058300081608093810080918000816080938000EE
:105840008091B10084608093B1008091B00081604C
:105850008093B0008091910082608093910080914C
:10586000910081608093910080919000816080938D
:1058700090008091A10082608093A1008091A1009E
:1058800081608093A1008091A00081608093A0003E
:1058900080912101826080932101809121018160AA
:1058A000809321018091200181608093200180916B
:1058B0007A00846080937A0080917A00826080937D
:1058C0007A0080917A00816080937A0080917A00DA
:1058D000806880937A001092C10040918C0C5091A6
:1058E0008D0C60918E0C70918F0C8091880C909132
:1058F000890C0E9484131092800080E180938100C3
:10590000FF24F394F09262088FB780936308F894B1
:1059100080E09DE7909361088093600890938700F2
:1059200080938600809163088FBF80918100887F7B
:10593000809381009091810080916208982B9093D0
:10594000810027EE33E03093650820936408F092DD
:105950006F0090918100892B80938100809181005C
:10596000887F809381006EE772E08E010F5F1F4F8A
:10597000C8010E94D429C8010E941E2BC8010E94A0
:105980004A2961E08DE20E94C31961E08BE20E9426
:10599000C31961E089E20E94C31961E081E20E94BB
:1059A000C31961E084E30E94C31961E083E30E94AC
:1059B000C31961E08FE20E94C31961E08AE20E948C
:1059C000C31961E08BE00E94C31961E08AE00E9484
:1059D000C31961E089E00E94C31961E08CE20E9472
:1059E000C31961E08EE20E94C31961E08CE00E945D
:1059F000C31961E08DE00E94C31961E088E00E9454
:105A0000C31961E086E00E94C31961E087E00E944B
:105A1000C31961E085E00E94C31960E083E00E9441
:105A2000C31960E084E00E94C31960E088E00E942E
:105A3000401960E08DE00E94401960E086E00E941D
:105A4000401960E087E00E94401960E085E00E9414
:105A5000401961E08DE20E94401961E08BE20E94F2
:105A6000401961E089E20E94401960E081E20E94F1
:105A7000401960E084E30E94401960E083E30E94E3
:105A8000401960E08FE20E94401960E08AE20E94C3
:105A9000401960E08BE00E94401960E08AE00E94BB
:105AA000401960E089E00E94401960E08CE20E94A9
:105AB000401960E08EE20E94401960E08CE00E9494
:105AC000401960E08FE10E94C31960E087E20E9404
:105AD000C31960E085E20E94C31960E083E20E947E
