:100000000C94CA030C94FB030C94FB030C94FB03A9
:100010000C94FB030C94FB030C94FB030C94FB0368
:100020000C94FB030C94FB030C94FB030C94FB0358
:100030000C94FB030C94FB030C94FB030C94FB0348
:100040000C94FB030C94FB030C94FB030C94FB0338
:100050000C94F7240C94FB030C94FB030C941928C8
:100060000C94FB030C947D2B0C94102B0C94FB0331
:100070000C94FB030C94FB030C94FB030C94FB0308
:100080000C94FB030C94FB030C94FB030C94FB03F8
:100090000C94FB030C94FB030C94FB030C94FB03E8
:1000A0000C94FB030C94FB030C94FB030C94FB03D8
:1000B0000C94FB030C94FB030C94FB030C94FB03C8
:1000C0000C94FB030C94FB030C94FB030C948D2306
:1000D0000C9463230C94FB030C94532B0C94E62A8E
:1000E0000C94FB03450448044B04540457045A047D
:1000F0005D046004940497049A049D04A004A3047E
:10010000A604AF04B804C104C404C704891789173E
:100110009A179A179A17AB17AB17BC1731243424C8
:10012000232427242D246B2438243C2442244624D1
:100130004A245024542458246B245E2462246624C8
:100140000C942D240C949D040C94A3040C949A17E5
:100150000C9434240C944A240C94CB230C94450422
:100160000C94AB170C9494040C9448040C949704CE
:100170000C94AF040C945A040C943C240C948917EE
:100180000C94FD030C9438240C94A3380C94BC17E5
:100190000C945D040C94B7230C94C1040C94A0043B
:1001A0000C94B8040C9442240C946B240C949A0480
:1001B0000C9443250C9458240C9450240C946224E1
:1001C0000C9431240C94D9230C9427240C94A60469
:1001D0000C94C7040C949F3D0C9457040C94462433
:1001E0000C948A250C945E240C9454240C9454048E
:1001F0000C944B040C9423240C9460040C946624FB
:100200000C94C4040C9464284C454420437570201D
:1002100048616E646C65202D204F46460072656112
:1002200064206565702E2063757020737461636B44
:10023000657220706F732E203D20004F4B00437578
:100240007020737461636B6572203E3E204F4B00DB
:10025000454D5054590043757020737461636B654C
:1002600072203E3E20456D707479004F4646004F27
:100270004E004F4B00504F574552204F4E00232306
:10028000206D696E69436F66666565204861636BC2
:1002900020762E323031203E3E2053746172742E0F
:1002A0002E2E007772697465206565702E20697442
:1002B000656D5F70726963655B004F726465722083
:1002C0004E6F2E2069732057726F6E6720212100B8
:1002D0006D616B655369676E616C546F436F696ED6
:1002E000203E3E20556E7375636365737320212134
:1002F000004F72646572205061796F7574203E3EC4
:10030000204F4B004F72646572205061796F757495
:10031000203E3E2054696D656F7574002000554E77
:1003200053554343455353005472616E7361637474
:10033000696F6E203E3E20554E53554343455353FF
:10034000200053554343455353005472616E73610B
:100350006374696F6E203E3E2053554343455353AB
:100360002000454D505459004375702073746163EB
:100370006B6572203E3E20456D707479004F4B00D6
:1003800043757020737461636B6572203E3E204F2D
:100390004B004F4E00426F696C6572203E3E20500C
:1003A0006F776572204F4E004F464600426F696C72
:1003B0006572203E3E20506F776572204F464600A2
:1003C0004C4F57005761746572204C6576656C2000
:1003D0003E3E204C4F57004F4B00576174657220D2
:1003E0004C6576656C203E3E204F4B004F464600E4
:1003F00050756D70203E3E20436C6F736500455212
:10040000524F520050756D70203E3E204572726F03
:1004100072004F4E0050756D70203E3E204F70654B
:100420006E007772697465206565702E2063757043
:1004300020737461636B657220706F732E203D2092
:100440000072656164206565702E206974656D5F5A
:1004500070726963655B00300030300045004F4BBF
:10046000004F50454E00434C4F5345005365742098
:1004700050756D702031202D204F4E005365742033
:1004800050756D702031202D204F464600736574E5
:100490004C45444974656D53656C6563745077725F
:1004A000203E3E204E6F7420666F756E64202121C1
:1004B00000434354414C4B00434C4F5544424F582A
:1004C00000434354414C4B2D444556494345002D70
:1004D000002D002D002D002D002D002D002D002DB4
:1004E000002D002D002D002D003D003A0043422B31
:1004F000534554400023000043422B555000230035
:100500000064617461203E3E20656D707479212124
:1005100000436865636B20436C6F7564426F78209D
:100520005265616479203F00436865636B20436CCA
:100530006F7564426F7820436F6E6E656374696F88
:100540006E203F00526573657420436F6D706F724B
:1005500074212100526573706F6E73652054696D4C
:10056000656F757421210053746174652072657420
:1005700075726E2054696D656F757421210000439A
:100580006C6F7564426F782052657475726E203E90
:100590003E2052455345540000436C6F7564426FD2
:1005A000782052657475726E203E3E204552524F3F
:1005B000520000436C6F7564426F78205265747509
:1005C000726E203C3C20425553590000436C6F75BD
:1005D00064426F782052657475726E203C3C2052E4
:1005E000656164790000436C6F7564426F782052D6
:1005F000657475726E203C3C204F4B00524541445F
:1006000059004E4F54205245414459004E4F5420FA
:100610005245414459004E4F5420524541445900DF
:100620004E4F54205245414459004E4F542052459C
:10063000414459004E4F54205245414459202D20E9
:100640004F5045524154494E47004E4F5420524559
:10065000414459004C4544204375702048616E6404
:100660006C65202D204F4E00000021002400270043
:100670002A002D00300033000101000004010701B1
:100680000A0100002200250028002B002E00310066
:10069000340002010000050108010B0100002000E8
:1006A0002300260029002C002F003200000100004A
:1006B00003010601090105050505070508080808E5
:1006C000020202020A0A08080404040401010101EA
:1006D00001010101030303030303030304070707E5
:1006E0000C0C0C0C0C0C0C0C02020202060606068A
:1006F000060606060B0B0B0B0B0B0B0B0102102057
:100700002008081020401020408002010201080447
:1007100002010102040810204080804020100804DB
:100720000201800402018040201008040201080434
:100730000201010204081020408001020408102078
:10074000408000000A0B02090C0D0E08070304018B
:100750000000000000000000000000000000000099
:100760000000000000000000000000000000121166
:100770001000000000000000000000000000000069
:1007800000000000000000003000003A003A0000C5
:10079000A3389F3D11241FBECFEFD1E2DEBFCDBFF6
:1007A00000E00CBF15E0A0E0B2E0E2E5FBE800E00D
:1007B0000BBF02C007900D92A03EB107D9F72CE005
:1007C000A0EEB5E001C01D92A53AB207E1F713E033
:1007D000C9ECD3E000E006C021970109802FFE019B
:1007E0000E94933EC83CD10780E00807A9F70E9409
:1007F000C62B0C9497450C940000CF93809108026F
:10080000833009F4E3C034F4813059F0823009F4C4
:1008100070C082C1843009F4F2C0853009F446C149
:100820007BC12091F70580910F069091100622233D
:1008300089F02091F5053091F6052817390728F041
:10084000A901481B590BCA0102C080E090E0CF917A
:100850000C94730F0097D9F78091370C9091380C56
:1008600001979093380C8093370C892B09F054C171
:1008700080912F0C90E08830910550F5FC0188277D
:10088000EE58FF4F8F4F0C94933E8BEF90E005C0D6
:1008900087EF90E017C08FEE90E09093360C809336
:1008A000350C0E94A01014C08DEF90E00BC08DEFAE
:1008B00090E0F3CF8FEE90E005C087EF90E0EDCFB2
:1008C0008BEF90E09093360C8093350C0E94AA1029
:1008D00080912F0C8F5F883018F480932F0C02C00A
:1008E00010922F0C86E990E09093380C8093370C8F
:1008F00013C18091390C90913A0C019790933A0C66
:100900008093390C892B09F007C19091320C492F43
:1009100050E04C30510508F046C0FA018827E658EF
:10092000FF4F8F4F0C94933E2EEF30E032C02EEFEE
:1009300030E020C02EEF30E014C02EEF30E008C0D1
:100940002BEF30E005C02FEE30E002C02FEB30E09F
:100950003093340C2093330C2DEF30E020C02FEB7C
:1009600030E03093340C2093330C2FEE30E017C07E
:100970002FEB30E03093340C2093330C27EF30E032
:100980000EC02FEB30E005C02FE730E002C02DEFA6
:1009900030E03093340C2093330C2BEF30E0309365
:1009A000360C2093350C24E130E030933A0C209340
:1009B000390C9F5F9C3018F49093320C02C0109257
:1009C000320C83E39CE0CF910C942E0FC091320641
:1009D000C13059F008F474C0C23061F0C33011F571
:1009E0006DEF70E08BE590E01BC067EF70E082EC8C
:1009F00090E016C06FEE70E087ED90E011C080913E
:100A0000140C882309F44DC0082E000C990BC091DA
:100A10003206C130A9F078F46BEF70E08BEC90E017
:100A20000E949210CF5FC0933206C43008F474C0A5
:100A30001092320671C0C23041F0C330E1F0F2CF03
:100A400067EF70E083EE90E0EBCF8F3F5FEF9507AD
:100A500009F440C0843691051CF06FEE70E017C0B9
:100A60008A309105BCF16AE070E00E945D3ECB01E6
:100A70006FEE70E033C08F3F2FEF920719F46DEFE8
:100A800070E02AC0843691052CF06DEF70E089E0AB
:100A900090E024C06AE070E00E945D3E6DEF70E07F
:100AA0001DC080910E068093080236C0C0913206A8
:100AB000C13059F028F0C23069F0C33091F0B2CFA4
:100AC0006BEF70E083EC90E0ABCF67EF70E088E015
:100AD00090E0A6CF6FEE70E080E090E00E94821080
:100AE000A1CF8091050283FD05C06DEF70E081E02C
:100AF00090E0F4CF82FD05C06DEF70E082E090E001
:100B0000EDCF84FD05C06DEF70E083E090E0E6CFAF
:100B100081E08093080286CFCF91089583E00E9400
:100B2000AC2521E0892B09F020E0822F0895CF9396
:100B3000DF9300D000D0CDB7DEB7FC01E851FA4F0B
:100B40002081261360838230910539F0833091052E
:100B500031F0019741F484E303C083E301C08FE2E5
:100B60000E94D5250EC06DE874E0CE0101960E946A
:100B70005D2ACE0101960E94A72BCE0101960E940C
:100B8000D32926960FB6F894DEBF0FBECDBFDF91F6
:100B9000CF91089560E081E090E00E94970560E0C9
:100BA00082E090E00E94970560E083E090E00C9482
:100BB00097050F931F93CF93DF938C01C1E0D0E093
:100BC000C017D10711F461E001C060E0CE010E94BE
:100BD00097052196C430D10599F7DF91CF911F91E8
:100BE0000F9108950F931F93CF93DF93EC010E9411
:100BF0007B260091340610913506209136063091FF
:100C00003706DC01CB01801B910BA20BB30B8D329D
:100C10009140A105B105C8F080913306811107C04C
:100C2000CE010E94D90581E08093330604C00E9462
:100C3000CA05109233060E947B2660933406709397
:100C4000350680933606909337060E947B260091E6
:100C5000340610913506209136063091370660171C
:100C600071078207930750F40E947B266093340635
:100C7000709335068093360690933706DF91CF91B7
:100C80001F910F910895E1E8F0E090818091330881
:100C9000892B8083089510920802E1E8F0E08081BA
:100CA000887F80830895CF92DF92EF92FF920F9317
:100CB0001F936B017C010E947B260091F00510912F
:100CC000F1052091F2053091F30560177107820755
:100CD000930750F40E947B266093F0057093F10512
:100CE0008093F2059093F3050E947B260091F00516
:100CF0001091F1052091F2053091F305AB01BC0193
:100D0000401B510B620B730B81E0C416D506E6063F
:100D1000F70608F080E01F910F91FF90EF90DF90B1
:100D2000CF900895ECEFF5E01182128213821092B9
:100D3000F705109208061092F6051092F505E2E20A
:100D4000FCE0158686E990E0968B858B108A84E11D
:100D500090E0908F878B08951F93CF93DF9300D0FF
:100D600000D0CDB7DEB7182F8CE20E94AC2521E071
:100D7000892B09F420E0121721F1112381F06CE690
:100D800074E0CE0101960E945D2ACE0101960E9478
:100D9000A72BCE0101960E94D32961E00FC06CE71A
:100DA00074E0CE0101960E945D2ACE0101960E9458
:100DB000A72BCE0101960E94D32960E08CE20E940D
:100DC000D52526960FB6F894DEBF0FBECDBFDF91B6
:100DD000CF911F9108958F929F92AF92BF92EF9201
:100DE000FF921F93CF93DF9300D000D0CDB7DEB733
:100DF00080E30E94AC2511E0892B09F410E080917A
:100E00003106181761F00E947B2660932D067093BF
:100E10002E0680932F0690933006109331060E9481
:100E20007B2680902D0690902E06A0902F06B090E5
:100E30003006DC01CB0188199909AA09BB09893E52
:100E40009340A105B10558F40E947B2668157905E9
:100E50008A059B0520F080910C02882389F120915E
:100E6000050230910602812F90E021FBEE24E0F88C
:100E7000F12C8E159F0521F480910C02882301F13D
:100E8000112311F0226001C02D7F309306022093C0
:100E900005028091050281FF03C066E674E002C08E
:100EA00061E674E0CE0101960E945D2ACE010196B2
:100EB0000E945115CE0101960E94D32910920C0276
:100EC000812F26960FB6F894DEBF0FBECDBFDF91FF
:100ED000CF911F91FF90EF90BF90AF909F908F9018
:100EE00008951F93CF93DF93CDB7DEB768970FB602
:100EF000F894DEBF0FBECDBF1091140C111118C0B5
:100F00006EE574E0CE0101960E945D2ACE01019645
:100F10000E941715CE0101960E94D32980910502E7
:100F200090910602806290930602809305027EC033
:100F30006CE574E0CE0101960E945D2A1F3F29F501
:100F4000BE016F5F7F4FCE0107960E94952A69E52B
:100F500074E0CE0107960E94E128811104C0CE0101
:100F600007960E944629BE01695F7F4FCE010D960C
:100F70000E94952ACE010D960E941715CE010D965E
:100F80000E94D329CE01079642C0612F012E000C8A
:100F9000770B4AE0CE010D961A30B4F40E94042A71
:100FA000BE016F5F7F4FCE0107960E94952A67E5CD
:100FB00074E0CE0107960E94E12881110EC0CE0197
:100FC00007960E94462909C00E94042ABE016F5F4D
:100FD0007F4FCE0107960E94952ABE01635F7F4F27
:100FE000CE0107960E947129BC01CE0143960E9452
:100FF000952ACE0143960E941715CE0143960E9472
:10100000D329CE0107960E94D329CE010D960E94C6
:10101000D32980910502909106028F7D909306025C
:1010200080930502CE0101960E94D32968960FB6DF
:10103000F894DEBF0FBECDBFDF91CF911F91089511
:101040005F926F927F928F929F92AF92BF92CF9258
:10105000DF92EF92FF920F931F93CF93DF93CDB761
:10106000DEB7A0970FB6F894DEBF0FBECDBF6624E3
:101070006394712C552453948E010F5F1F4F96E497
:10108000E92E93E0F92E22E3C22E23E0D22E82E055
:10109000681629F093E0691621F082E303C085E326
:1010A00001C081E30E94AC2521E0892B09F420E0F6
:1010B000F301E850FA4F4F012083C30184519A4F46
:1010C0005C01FC0180818217E9F0211109C0F30164
:1010D000E450FA4F50827F926F92DF92CF9204C019
:1010E0007F926F92FF92EF921F930F930E9418418D
:1010F0000F900F900F900F900F900F90F401808140
:10110000F5018083FFEF6F1A7F0A84E0681671048F
:1011100009F0BDCFA0960FB6F894DEBF0FBECDBFCD
:10112000DF91CF911F910F91FF90EF90DF90CF90C3
:10113000BF90AF909F908F907F906F905F90089539
:10114000CF93DF93CDB7DEB768970FB6F894DEBFC5
:101150000FBECDBF62E274E0CE0101960E945D2A0F
:1011600060910D0680E190E00E9489456AE070E0A0
:1011700080E090E00E94412660910D06062E000C52
:10118000770B4AE0CE010D960E94042ABE016F5FE4
:101190007F4FCE0107960E94952ABE01635F7F4F65
:1011A000CE0107960E947129BC01CE0143960E9490
:1011B000952ACE0143960E94A72BCE0143960E940A
:1011C000D329CE0107960E94D329CE010D960E9405
:1011D000D329CE0101960E94D32968960FB6F894C0
:1011E000DEBF0FBECDBFDF91CF910895E0E0F6E006
:1011F00082819381883E934010F01382128232964E
:1012000086E0E630F807A1F708958F929F92AF929B
:10121000BF92CF92DF92EF92FF921F93CF93DF9313
:10122000CDB7DEB762970FB6F894DEBF0FBECDBF65
:1012300082E0A82E86E0B82E9AE0E92E96E0F92EFC
:1012400011E02AE0C22ED12CC6010E948145982EC1
:10125000C60101960E948145292D30E0A901582B35
:10126000CA014501F5015183408320910502309167
:101270000602F701892BD9F48081806880831230BF
:1012800039F0133071F02F7B309306022093050262
:1012900080910502909106029E7F909306028093B2
:1012A000050280910502909106029B7F1AC0808101
:1012B0008F778083123039F0133071F020643093CF
:1012C000060220930502809105029091060291602A
:1012D0009093060280930502809105029091060288
:1012E000946090930602809305020E94F60861E4E0
:1012F00074E0CE010D960E945D2A4AE0612FCE0176
:1013000007960E94302ABE01695F7F4FCE01019689
:101310000E94952A6CE472E0CE0101960E94582941
:10132000BC01CE010D960E943F29CE0101960E947C
:10133000D329CE0107960E94D329F2E0AF0EB11C4B
:10134000F401608171814AE0CE0101960E94D829A2
:10135000BE016F5F7F4FCE010D960E943F29CE01E7
:1013600001960E94D329BE01635F7F4FCE01019693
:101370000E94952ACE0101960E94A72BCE010196CC
:101380000E94D329CE010D960E94D329F2E0CF0E00
:10139000D11C1F5F4FEFE41AF40A143009F054CF48
:1013A00062960FB6F894DEBF0FBECDBFDF91CF912E
:1013B0001F91FF90EF90DF90CF90BF90AF909F90E4
:1013C0008F90089585E30E94AC2521E0892B09F4D4
:1013D00020E0822F0895CF92DF92EF92FF92CF9379
:1013E000DF9300D000D0CDB7DEB78091050284FD39
:1013F00034C08CE20E94AC25892B79F580910B02D8
:10140000882359F181E00E94AC0665E174E0CE01C9
:1014100001960E945D2ACE0101960E94A72BCE0163
:1014200001960E94D32962E174E0CE0101960E94E8
:101430005D2A60E0CE0101960E947414CE010196EF
:101440000E94D3290E947B266093290670932A0666
:1014500080932B0690932C0682C08CE20E94AC25D0
:10146000892B09F47CC08091050284FD39C00E945B
:101470007B26C0902906D0902A06E0902B06F0909B
:101480002C06DC01CB018C199D09AE09BF09813402
:101490009F41A105B10508F462C080E00E94AC063E
:1014A00064E074E0CE0101960E945D2ACE010196AF
:1014B0000E94A72BCE0101960E94D3296EEF73E004
:1014C000CE0101960E945D2A61E0CE0101960E9444
:1014D0007414CE0101960E94D32910920B023FC0D2
:1014E0000E947B26C0902906D0902A06E0902B0609
:1014F000F0902C06DC01CB018C199D09AE09BF09C7
:1015000081349C49A105B10538F40E947B266C15F5
:101510007D058E059F0518F580E00E94AC0660EF02
:1015200073E0CE0101960E945D2ACE0101960E94D1
:10153000A72BCE0101960E94D3296CEE73E0CE0159
:1015400001960E945D2A61E0CE0101960E9474140A
:10155000CE0101960E94D32981E080930B0226964A
:101560000FB6F894DEBF0FBECDBFDF91CF91FF90D5
:10157000EF90DF90CF900895CF92DF92EF92FF929D
:101580001F93CF93DF93C82F0E947B266B017C01B2
:1015900010E0D0E00E94EB090E94D817CE010E9413
:1015A000F2050E947B266C157D058E059F0520F4B3
:1015B0000E947B266B017C010E947B26DC01CB0113
:1015C0008C199D09AE09BF09893C9105A105B1059A
:1015D00058F48FE10E94AC25892BE1F20E947B2612
:1015E0006B017C0111E0D6CF812FDF91CF911F914C
:1015F000FF90EF90DF90CF9008950F931F93CF93BC
:10160000DF9300D000D0CDB7DEB78DE10E94AC25CE
:101610002091050230910602892B11F0206101C052
:101620002F7E3093060220930502209105028091BF
:10163000280690E024FB002700F910E080179107AE
:1016400029F480910A02882309F44AC024FF1DC0AE
:101650006AED73E0CE0101960E945D2ACE010196EB
:101660000E94A72BCE0101960E94D32967ED73E05B
:10167000CE0101960E945D2ACE0101960E94EE1EC7
:10168000CE0101960E94D32923C064EC73E0CE0101
:1016900001960E945D2ACE0101960E94A72BCE01E1
:1016A00001960E94D32960EC73E0CE0101960E945E
:1016B0005D2ACE0101960E94EE1ECE0101960E9487
:1016C000D3298091080280930E0685E0809308025A
:1016D00080910502829581708093280610920A02FB
:1016E00026960FB6F894DEBF0FBECDBFDF91CF9127
:1016F0001F910F9108950F931F9387E20E94AC25CD
:10170000892B59F40E947B266093E4057093E505CC
:101710008093E6059093E70524C00E947B26009104
:10172000E4051091E5052091E6053091E705DC011F
:10173000CB01801B910BA20BB30B853F9140A10500
:10174000B10588F40E947B260091E4051091E5051F
:101750002091E6053091E70560177107820793072E
:1017600010F081E001C080E01F910F9108950F9368
:101770001F9385E20E94AC25892B61F40E947B2691
:101780006093E0057093E1058093E2059093E30593
:1017900081E027C00E947B260091E0051091E105C1
:1017A0002091E2053091E305DC01CB01801B910B18
:1017B000A20BB30B853F9140A105B10588F40E94AF
:1017C0007B260091E0051091E1052091E205309122
:1017D000E305601771078207930710F08FEF01C0D0
:1017E00080E01F910F9108950F931F93CF93DF9384
:1017F00000D000D0CDB7DEB70E94B70B2091050214
:1018000030910602811102C0286003C0813029F4A2
:10181000277F3093060220930502209105028091D4
:10182000270690E023FB002700F910E080179107BE
:1018300029F480910902882309F44BC023FF1DC0BD
:101840006CEA73E0CE0101960E945D2ACE010196FA
:101850000E94A72BCE0101960E94D32968EA73E06B
:10186000CE0101960E945D2ACE0101960E94B41E0F
:10187000CE0101960E94D32923C065E973E0CE0111
:1018800001960E945D2ACE0101960E94A72BCE01EF
:1018900001960E94D32962E973E0CE0101960E946D
:1018A0005D2ACE0101960E94B41ECE0101960E94CF
:1018B000D3298091080280930E0685E08093080268
:1018C0008091050283FB882780F980932706109278
:1018D000090226960FB6F894DEBF0FBECDBFDF918A
:1018E000CF911F910F91089561E085E00C94D5256B
:1018F000CF92DF92EF92FF920F931F93CF93DF93DC
:10190000CDB7DEB762970FB6F894DEBF0FBECDBF7E
:101910000E948E05811106C061E086E00E94D525F7
:10192000F12C06C060E086E00E94D525FF24F394E8
:1019300060E085E00E94D5250E94281F00E010E0AD
:10194000EE24E3948BE9C82E8FE0D82E0E94EB0999
:1019500083E20E94AC25892B69F06DE273E0CE0131
:1019600001960E949E2ACE0101960E94A72BCE01CD
:10197000019657C061E087E00E94D525C601019716
:10198000F1F760E087E00E94D525C6010197F1F7E5
:101990000E948E05882311F0E11031C0FF2009F468
:1019A0006EC00E948E05811168C081E080930D0693
:1019B0004AE0B801CE0107960E94D82960E773E09B
:1019C000CE0101960E949E2ABE01695F7F4FCE0123
:1019D00001960E947129BC01CE010D960E94952AA4
:1019E000CE010D960E94A72BCE010D960E94D32901
:1019F000CE0101960E94D329CE01079612C00E9403
:101A0000740C6CE271E080E090E00E94412660E09E
:101A100086E00E94D52560E085E00E94D525E12C76
:101A2000C0CF0E94D3290E94740C0E94A00880910C
:101A30000D06833679F56CE573E0CE0101960E94C0
:101A40009E2ACE0101960E94A72BCE0101960E94EC
:101A5000D32960910D06062E000C770B4AE0CE01CB
:101A600001960E94042A61E0CE0101960E94251E83
:101A7000CE0101960E94D3290DC0FF24F3940F5F7D
:101A80001F4F093883E1180709F060CF83E6809380
:101A90000D06C9CF62960FB6F894DEBF0FBECDBF5C
:101AA000DF91CF911F910F91FF90EF90DF90CF903A
:101AB0000895CF93DF9300D000D0CDB7DEB7BC013F
:101AC000CE0101960E94952ABE016F5F7F4F8091E3
:101AD000530C9091540C0E948726CE0101960E94CF
:101AE000D32926960FB6F894DEBF0FBECDBFDF9187
:101AF000CF9108950E947B2660935B0C70935C0CE1
:101B000080935D0C90935E0C08950F931F930E9439
:101B10007B2600915B0C10915C0C20915D0C309148
:101B20005E0C601771078207930710F40E947A0D0C
:101B30000E947B2600915B0C10915C0C20915D0C47
:101B400030915E0CDC01CB01801B910BA20BB30B1F
:101B500021E0883C9105A105B10508F420E0822F21
:101B60001F910F910895CF92DF92FF920F931F93D1
:101B7000CF93DF9300D000D0CDB7DEB70E947A0DAF
:101B800000E010E08091550C9091560CDC01ED9135
:101B9000FC910480F581E02D1995892BD9F0053051
:101BA0001105A1F08091550C9091560CDC01ED913E
:101BB000FC910680F781E02D1995F801ED5AF34F5D
:101BC000848F0F5F1F4F0E947A0DDCCF85E0C82EF7
:101BD000D12C01C068010E94850DF82E811124C00E
:101BE000B5E0CB16D10471F60530110569F520E09A
:101BF00080E090E0FC01ED5AF34F348D230F019605
:101C000085309105B9F78091710C883221F080916F
:101C1000710C823059F48091720C811107C021112E
:101C200005C0FF24F39410C0F12C0EC066E973E0E8
:101C3000CE0101960E949E2ACE0101960E94590D66
:101C4000CE0101960E94D3298F2D26960FB6F894C7
:101C5000DEBF0FBECDBFDF91CF911F910F91FF90DF
:101C6000DF90CF9008951F93CF93DF9300D000D0E3
:101C7000CDB7DEB7182F0E947A0D112379F180912C
:101C8000550C9091560CDC01ED91FC910480F5818E
:101C9000E02D1995892B71F08091550C9091560C7F
:101CA000DC01ED91FC910680F781E02D1995115032
:101CB0000E947A0D0E94850D8823F9F265EB73E08E
:101CC000CE0101960E949E2ACE0101960E94590DD6
:101CD000CE0101960E94D32980E001C081E02696C2
:101CE0000FB6F894DEBF0FBECDBFDF91CF911F912D
:101CF0000895FF920F931F93CF93DF93CDB7DEB775
:101D0000C058D1090FB6F894DEBF0FBECDBF809189
:101D10005F0C89830091610C0A838091620C8B8334
:101D20008091640C8C83FE01359680E090E010E099
:101D30008017910744F4DC01AD5AB34F53962C91B0
:101D400021930196F5CF0C5F1F4FE1E0F0E0EC0F1F
:101D5000FD1FE00FF11F80916E0C8083F12C2F2D61
:101D600030E002171307A4F08091550C9091560CA7
:101D7000DC01ED91FC91A1E0B0E0AC0FBD1FA20F22
:101D8000B31F0190F081E02D6C911995F394E7CF8A
:101D900080E0C058DF4F0FB6F894DEBF0FBECDBF56
:101DA000DF91CF911F910F91FF9008951F93CF93D3
:101DB000DF9300D000D0CDB7DEB7182F882319F0FD
:101DC00067ED73E002C068EE73E0CE0101960E94F9
:101DD0009E2ACE0101960E94590DCE0101960E94C5
:101DE000D32982E090E09093600C80935F0C91E0A7
:101DF0009093610C21E030E03093630C2093620CEF
:101E000024EE30E03093650C2093640C112319F01C
:101E10009093660C02C01092660C8091660C8851FB
:101E2000819580936E0C0E94790E86E00E94330E9D
:101E300081110E94B30D26960FB6F894DEBF0FBE37
:101E4000CDBFDF91CF911F9108958091140C811126
:101E500004C00E94D60E10921C0C0895AF92BF923F
:101E6000CF92DF92EF92FF920F931F93CF93DF9366
:101E70006C0160E08091240C0E94D525E601249637
:101E8000BA90AA9008E010E090E8E92EF12C60E00A
:101E90008091220C0E94D52561E097012A213B21E7
:101EA000232B09F460E08091230C0E94D52561E08A
:101EB0008091220C0E94D525F594E79401501109D8
:101EC00031F7CC15DD05E1F661E08091240CDF915E
:101ED000CF911F910F91FF90EF90DF90CF90BF9027
:101EE000AF900C94D525FC0180913D0C90913E0C57
:101EF000E817F90769F1E03533ECF30730F4E03423
:101F00008CE9F80740F09F0102C02FE433ECC901CF
:101F100080549C4919C0E03395E7F90720F0CF01C0
:101F20008053954711C0E0323EE4F30720F0CF0123
:101F300080529E4409C0E03187E2F80720F0CF01CB
:101F40008051974201C0CF0190933E0C80933D0C8D
:101F50002091300C2130E9F038F0223009F458C0DB
:101F6000233009F48DC0C2C06AE070E00E94493E8F
:101F7000DC01AE5DB34F13968C91E031F74208F06F
:101F80008F7D90E09093340C8093330C8DEF90E034
:101F9000A9C0E032FE4420F18A30910568F064E681
:101FA00070E00E94493E6AE070E00E94493EFB01F9
:101FB000EE5DF34F838102C08091250C90E09093F9
:101FC000340C8093330C8091330C9091340C8F7DC2
:101FD00099279093340C8093330C8FEE90E082C05D
:101FE0008A30910570F064E670E00E94493E6AE034
:101FF00070E00E94493EFB01EE5DF34F838190E06B
:10200000E8CF8FEF90E09093340C8093330C6AC04C
:10201000E033F54720F18436910568F068EE73E00F
:102020000E94493E64E670E00E94493EFB01EE5D7D
:10203000F34F838102C08091250C90E09093340C83
:102040008093330C8091330C9091340C8F7D9927C1
:102050009093340C8093330C87EF90E043C0843628
:10206000910578F268EE73E00E94493E64E670E004
:102070000E94493EFB01EE5DF34F838190E0E8CF83
:10208000E034FC49D8F0883E33E0930748F068EE2E
:1020900073E00E94493EFB01EE5DF34F838102C075
:1020A0008091250C90E09093340C8093330C8091B8
:1020B000330C9091340C8F7D99270EC0883E33E00D
:1020C000930708F49ECF68EE73E00E94493EFB013F
:1020D000EE5DF34F838190E09093340C8093330C4A
:1020E0008BEF90E09093360C8093350C2F5F24306B
:1020F00018F42093300C02C01092300C83E39CE063
:102100000C942E0FE2E2FCE08E5D934FDC011396FF
:102110008C9190E0928B818B748B638B83E39CE03A
:102120000C942E0FE2E2FCE02FEF30E0281B390B7D
:10213000328B218B748B638B83E39CE00C942E0F8A
:1021400087E290E09093340C8093330C83E39CE01F
:102150000C942E0F80EF90E09093340C8093330C0E
:1021600083E39CE00C942E0FCF93DF9300D000D03C
:10217000CDB7DEB7BC01CE0101960E94952ABE0103
:102180006F5F7F4F80915008909151080E94872681
:10219000CE0101960E94D32926960FB6F894DEBF91
:1021A0000FBECDBFDF91CF9108950F931F93CF93B3
:1021B000DF93CDB7DEB762970FB6F894DEBF0FBEE0
:1021C000CDBF8C0167EC74E0CE010D960E949E2A73
:1021D000F80184819581892B09F457C06AEF73E077
:1021E000CE010D960E94A52960915708709158085C
:1021F0004AE0CE0107960E94D829BE01695F7F4F51
:10220000CE0101960E94952A6CE472E0CE010196FF
:102210000E945829BC01CE010D960E943F29CE0193
:1022200001960E94D329CE0107960E94D329B801B6
:10223000CE010D960E943F29BE01635F7F4FCE0104
:1022400001960E94952ACE0101960E94B410CE01FB
:1022500001960E94D329209157083091580846E0F2
:10226000429FC001439F900D1124B8018959974F97
:102270000E94BC29809157089091580801968F7749
:1022800099279093580880935708CE010D960E9485
:10229000D32962960FB6F894DEBF0FBECDBFDF9193
:1022A000CF911F910F910895CF93DF93CDB7DEB7F4
:1022B0002C970FB6F894DEBF0FBECDBF60E075E07F
:1022C000CE0107960E945D2A6EEF74E0CE0107965C
:1022D0000E94E12860915708709158084AE0CE01A9
:1022E00001960E94D829BE016F5F7F4FCE010796ED
:1022F0000E943F29CE0101960E94D32968EF74E025
:10230000CE0107960E94E128BE01695F7F4FCE0192
:1023100001960E94952ACE0101960E94D510CE0109
:1023200001960E94D329CE0107960E94D32980E00E
:102330002C960FB6F894DEBF0FBECDBFDF91CF91C4
:102340000895CF92DF92EF92FF920F931F93CF9356
:10235000DF93CDB7DEB72C970FB6F894DEBF0FBE74
:10236000CDBF6C017B018A0167EF74E0CE01079657
:102370000E945D2A65EF74E0CE0107960E94E12875
:1023800060915708709158084AE0CE0101960E946A
:10239000D829BE016F5F7F4FCE0107960E943F296B
:1023A000CE0101960E94D3296DEE74E0CE0107960E
:1023B0000E94E128B601CE0107960E943F296BEEEC
:1023C00074E0CE0107960E94E128B701CE0107967E
:1023D0000E943F2969EE74E0CE0107960E94E12831
:1023E000B801CE0107960E943F29BE01695F7F4F69
:1023F000CE0101960E94952ACE0101960E94D51029
:10240000CE0101960E94D329CE0107960E94D329BE
:1024100080E02C960FB6F894DEBF0FBECDBFDF91E3
:10242000CF911F910F91FF90EF90DF90CF90089583
:10243000FF920F931F93CF93DF93CDB7DEB76297D1
:102440000FB6F894DEBF0FBECDBF8C01F62EBC01D7
:10245000CE0101960E94952A63EA7BE0CE010796A1
:102460000E94952A6DE97BE0CE010D960E94952A87
:10247000AE014F5F5F4FBE01695F7F4FCE010D968A
:102480000E94A111CE010D960E94D329CE0107967C
:102490000E94D329CE0101960E94D329F80184819C
:1024A0009581892B09F411C265E074E080819181E6
:1024B0000E94EE40892B09F008C267EE74E0CE015D
:1024C00001960E945D2A69EA7BE0CE0107960E9490
:1024D000952A6DE97BE0CE010D960E94952AAE010A
:1024E0004F5F5F4FBE01695F7F4FCE010D960E9427
:1024F000A111CE010D960E94D329CE0107960E940C
:10250000D329CE0101960E94D32965EE74E0CE0155
:1025100001960E945D2A6FEA7BE0CE0107960E9439
:10252000952A6DE97BE0CE010D960E94952AAE01B9
:102530004F5F5F4FBE01695F7F4FCE010D960E94D6
:10254000A111CE010D960E94D329CE0107960E94BB
:10255000D329CE0101960E94D32963EE74E0CE0107
:1025600001960E945D2A65EB7BE0CE0107960E94F2
:10257000952A6DE97BE0CE010D960E94952AAE0169
:102580004F5F5F4FBE01695F7F4FCE010D960E9486
:10259000A111CE010D960E94D329CE0107960E946B
:1025A000D329CE0101960E94D32961EE74E0CE01B9
:1025B00001960E945D2A6BEB7BE0CE0107960E949C
:1025C000952A6DE97BE0CE010D960E94952AAE0119
:1025D0004F5F5F4FBE01695F7F4FCE010D960E9436
:1025E000A111CE010D960E94D329CE0107960E941B
:1025F000D329CE0101960E94D3296FED74E0CE015C
:1026000001960E945D2A61EC7BE0CE0107960E9454
:10261000952A6DE97BE0CE010D960E94952AAE01C8
:102620004F5F5F4FBE01695F7F4FCE010D960E94E5
:10263000A111CE010D960E94D329CE0107960E94CA
:10264000D329CE0101960E94D3296DED74E0CE010D
:1026500001960E945D2A67EC7BE0CE0107960E94FE
:10266000952A6DE97BE0CE010D960E94952AAE0178
:102670004F5F5F4FBE01695F7F4FCE010D960E9495
:10268000A111CE010D960E94D329CE0107960E947A
:10269000D329CE0101960E94D3296BED74E0CE01BF
:1026A00001960E945D2A6DEC7BE0CE0107960E94A8
:1026B000952A6DE97BE0CE010D960E94952AAE0128
:1026C0004F5F5F4FBE01695F7F4FCE010D960E9445
:1026D000A111CE010D960E94D329CE0107960E942A
:1026E000D329CE0101960E94D32969ED74E0CE0171
:1026F00001960E945D2A63ED7BE0CE0107960E9461
:10270000952A6DE97BE0CE010D960E94952AAE01D7
:102710004F5F5F4FBE01695F7F4FCE010D960E94F4
:10272000A111CE010D960E94D329CE0107960E94D9
:10273000D329CE0101960E94D32967ED74E0CE0122
:1027400001960E945D2A69ED7BE0CE0107960E940A
:10275000952A6DE97BE0CE010D960E94952AAE0187
:102760004F5F5F4FBE01695F7F4FCE010D960E94A4
:10277000A111CE010D960E94D329CE0107960E9489
:10278000D329CE0101960E94D32965ED74E0CE01D4
:1027900001960E945D2A6FED7BE0CE0107960E94B4
:1027A000952A6DE97BE0CE010D960E94952AAE0137
:1027B0004F5F5F4FBE01695F7F4FCE010D960E9454
:1027C000A111CE010D960E94D329CE0107960E9439
:1027D000D329CE0101960E94D32963ED74E0CE0186
:1027E00001960E945D2A65EE7BE0CE0107960E946D
:1027F000952A6DE97BE0CE010D960E94952AAE01E7
:102800004F5F5F4FBE01695F7F4FCE010D960E9403
:10281000A111CE010D960E94D329CE0107960E94E8
:10282000D329CE0101960E94D32961ED74E0CE0137
:1028300001960E945D2A6BEE7BE0CE0107960E9416
:10284000952A6DE97BE0CE010D960E94952AAE0196
:102850004F5F5F4FBE01695F7F4FCE010D960E94B3
:10286000A111CE010D960E94D329CE0107960E9498
:10287000D329CE0101960E94D3296FEC74E0CE01DA
:1028800001960E945D2A61EF7BE0CE0107960E94CF
:10289000952A6DE97BE0CE010D960E94952AAE0146
:1028A0004F5F5F4FBE01695F7F4FCE010D960E9463
:1028B000A111CE010D960E94D329CE0107960E9448
:1028C000D329CE0101960E94D329F1100E94541100
:1028D00062960FB6F894DEBF0FBECDBFDF91CF91E9
:1028E0001F910F91FF9008951F93CF93DF93CDB762
:1028F000DEB762970FB6F894DEBF0FBECDBF162FBE
:10290000BC01CE0101960E94952A61EC7BE0CE01CC
:1029100007960E94952A6DE97BE0CE010D960E94F4
:10292000952AAE014F5F5F4FBE01695F7F4FCE01B9
:102930000D960E94A111CE010D960E94D329CE01C1
:1029400007960E94D329CE0101960E94D329111126
:102950000E94541162960FB6F894DEBF0FBECDBF31
:10296000DF91CF911F9108950F931F93CF93DF9322
:10297000CDB7DEB769970FB6F894DEBF0FBECDBFF7
:10298000282F8B016DE97BE0CE014396298F0E94B1
:10299000952A298D223061F0233091F02130C1F544
:1029A000B801CE0101960E94952A63ED7BE00FC02D
:1029B000B801CE0101960E94952A6FED7BE007C019
:1029C000B801CE0101960E94952A6BEE7BE0CE0104
:1029D00007960E94952ABE016D5E7F4FCE010D962F
:1029E0000E94952AAE014F5F5F4FBE01695F7F4F26
:1029F000CE010D960E94A111CE010D960E94D32901
:102A0000CE0107960E94D329CE0101960E94D329B8
:102A1000CE0143960E94D32969960FB6F894DEBF83
:102A20000FBECDBFDF91CF911F910F910895CF932E
:102A3000DF93CDB7DEB762970FB6F894DEBF0FBE57
:102A4000CDBFBC01CE0101960E94952A67EC7BE0C8
:102A5000CE0107960E94952A6DE97BE0CE010D9686
:102A60000E94952AAE014F5F5F4FBE01695F7F4FA5
:102A7000CE010D960E94A111CE010D960E94D32980
:102A8000CE0107960E94D329CE0101960E94D32938
:102A900062960FB6F894DEBF0FBECDBFDF91CF9127
:102AA0000895CF93DF93CDB7DEB762970FB6F89452
:102AB000DEBF0FBECDBFBC01CE0101960E94952A9C
:102AC00069EA7BE0CE0107960E94952A6DE97BE0DA
:102AD000CE010D960E94952AAE014F5F5F4FBE0159
:102AE000695F7F4FCE010D960E94A111CE010D9618
:102AF0000E94D329CE0107960E94D329CE010196C8
:102B00000E94D32962960FB6F894DEBF0FBECDBFE8
:102B1000DF91CF910895CF93DF9300D000D0CDB750
:102B2000DEB7BC01CE0101960E94952ABE016F5FFF
:102B30007F4F8091030C9091040C0E948726CE0158
:102B400001960E94D32926960FB6F894DEBF0FBED9
:102B5000CDBFDF91CF910895EF92FF920F931F9316
:102B6000CF93DF93CDB7DEB762970FB6F894DEBF91
:102B70000FBECDBF82E090E09093600C80935F0C1D
:102B80001092610C81E090E09093630C8093620C52
:102B90009093650C8093640C8CEF80936E0C0E9474
:102BA000790E85E00E94330E882309F447C10E9404
:102BB000B30D882309F442C18091140C8F3F71F446
:102BC0006EE074E0CE0101960E949E2ACE0101962D
:102BD0000E948B15CE0101960E94D32968EC70E00B
:102BE00080E090E00E94412682E090E09093600CAB
:102BF00080935F0C1092610C81E090E09093630CE5
:102C00008093620C88EE90E09093650C8093640C46
:102C100085E180936E0C0E94790E85E00E94330E50
:102C2000882399F10E947A0DE12CF12C8701809183
:102C3000550C9091560CDC01ED91FC910480F581CE
:102C4000E02D1995892BD9F006301105A1F080915E
:102C5000550C9091560CDC01ED91FC910680F781AA
:102C6000E02D1995F801ED5AF34F81A30F5F1F4F27
:102C70000E947A0DDCCF86E0E82EF12C01C07801AD
:102C80000E94850D882309F4E2C068EC70E080E0C2
:102C900090E00E9441266091A00C6093140C611199
:102CA00043C068E274E0CE0101960E949E2ACE01E4
:102CB00001960E94590DCE0101960E94D32982E00F
:102CC00090E09093600C80935F0C8093610C81E0A6
:102CD00090E09093630C8093620C87EE90E0909369
:102CE000650C8093640C80E88093660C8FEF809372
:102CF000670C85E980936E0C0E94790E87E00E9434
:102D0000330E81110E94B30D8091140C81116EC09D
:102D100081E00E94D60E882321F081E080931C0C74
:102D200065C010921C0C62C08091150C1616E4F55B
:102D30006A3074F4681709F459C0062E000C770B3A
:102D40004AE0CE0107960E94042A67E374E00DC0B2
:102D5000681709F44BC0062E000C770B4AE0CE0131
:102D600007960E94042A6DE474E0CE010D960E943D
:102D70009E2ABE01695F7F4FCE010D960E94712988
:102D8000BC01CE0101960E94952ACE0101960E94B7
:102D90008B15CE0101960E94D329CE010D960E947B
:102DA000D329CE0107961CC0681701F162E674E0D2
:102DB000CE0101960E949E2ACE0101960E948B159B
:102DC000CE0101960E94D3296FE774E0CE010196EF
:102DD0000E949E2ACE0101960E948B15CE0101967B
:102DE0000E94D3298091140C8093150C8091140CAF
:102DF000811122C08091150C882391F066E974E05E
:102E0000CE0101960E949E2ACE0101960E948B154A
:102E1000CE0101960E94D3298091140C8093150C49
:102E20000E947B266093090C70930A0C80930B0C14
:102E300090930C0C81E04DC080E04BC08FEF8093ED
:102E4000140C8091150C8F3F09F0B0CFCFCF063016
:102E5000110509F0EBCEB6E0EB16F10409F015CF41
:102E600020E080E090E0FC01ED5AF34F31A1230F08
:102E7000019686309105B9F78091710C883221F066
:102E80008091710C823029F4211103C08091780C5B
:102E90001DC06FEA74E0CE0101960E949E2ACE0109
:102EA00001960E94590DCE0101960E94D32968EC2B
:102EB00074E0CE0101960E949E2ACE0101960E94E6
:102EC000590DCE0101960E94D3298FEF8093A00C5B
:102ED000DCCE62960FB6F894DEBF0FBECDBFDF9199
:102EE000CF911F910F91FF90EF900895CF93DF93B3
:102EF00000D000D0CDB7DEB790E0FC013897E830C5
:102F0000F10508F04AC08827EA57FF4F8F4F0C940D
:102F1000933E6CED74E0CE0101960E949E2ACE0194
:102F200001960E94590DCE0101960E94D32981E09D
:102F300090E035C06FEE74E0CE0101960E949E2AAB
:102F4000CE0101960E94590DCE0101960E94D3290F
:102F500082E090E024C062E075E0CE0101960E941C
:102F60009E2ACE0101960E94590DCE0101960E9423
:102F7000D32985E090E013C065E175E0CE010196AC
:102F80000E949E2ACE0101960E94590DCE01019603
:102F90000E94D3298AE090E002C080E090E026966B
:102FA0000FB6F894DEBF0FBECDBFDF91CF9108956D
:102FB000CF92DF92EF92FF920F931F93CF93DF9305
:102FC000CDB7DEB72C970FB6F894DEBF0FBECDBFDE
:102FD0009091540880915508992309F45BC08F3F64
:102FE000B1F40E94B71F882309F497C167E675E022
:102FF000CE0101960E945D2ACE0101960E94B41076
:10300000CE0101960E94D3291092540886C10E94D5
:10301000B71F882309F481C11092540864E575E054
:10302000CE0101960E945D2ACE0101960E94B41045
:10303000CE0101960E94D329809156088F5F80931C
:1030400056088B3018F164E475E0CE0101960E94B9
:103050005D2ACE0101960E94B410CE0101960E9415
:10306000D32940E052EC61E070E0809152089091E9
:1030700053080E94501F8091520890915308DC0120
:10308000ED91FC910284F385E02D19958FEF8093EB
:10309000550843C1843059F569E275E0CE010196C7
:1030A0000E949E2ACE0101960E94B410CE01019684
:1030B0000E94D32968E375E08091520890915308EB
:1030C0000E94B32A8091520890915308DC01ED913F
:1030D000FC910284F385E02D199564EF71E080E0A6
:1030E00090E00E94412661E088E00E94D525809111
:1030F00055088F3FA9F562E475E08DE69BE00E94DC
:10310000A52968E275E0CE0101960E945D2ACE01F4
:1031100001960E94B410CE0101960E94D32940E08E
:1031200052EC61E070E080915208909153080E9447
:10313000501F62E475E080915208909153080E94FC
:10314000B32A8091520890915308DC01ED91FC91D3
:103150000284F385E02D199581E08093540870C4B2
:10316000823039F10E947B26009163081091640837
:103170002091650830916608DC01CB01801B910B22
:10318000A20BB30B89389341A105B10508F024C403
:103190000E947B26009163081091640820916508C5
:1031A00030916608601771078207930708F414C40A
:1031B000B4C08091570890915808209159083091D7
:1031C0005A08821B930B8F779927892B09F47FC0AC
:1031D0008091590890915A0816E0189FF001199FA4
:1031E000F00D1124E959F74F84819581892B09F459
:1031F0005AC08091590890915A08189FB001199FA0
:10320000700D11246959774F80915208909153089D
:103210000E94C72A8091520890915308DC01ED91D9
:10322000FC910284F385E02D1995E0905908F09007
:103230005A086BE475E0CE0101960E949E2A1E9DFD
:10324000B0011F9D700D11246959774FCE01019671
:103250000E947129BC01CE0107960E94952ACE01D9
:1032600007960E94B410CE0107960E94D329CE0182
:1032700001960E94D32981E0809354080E947B2606
:1032800060935B0870935C0880935D0890935E0880
:103290000E947B2660935F087093600880936108AA
:1032A000909362080EC061E075E0CE0101960E9425
:1032B0005D2ACE0101960E94B410CE0101960E94B3
:1032C000D32963E575E08DE69BE00E94A5290E9465
:1032D0007B2600915F081091600820916108309171
:1032E0006208DC01CB01801B910BA20BB30B893868
:1032F0009341A105B10508F0AEC30E947B26009161
:103300005F08109160082091610830916208601791
:1033100071078207930708F49EC380915208909129
:103320005308DC01ED91FC910480F581E02D1995A5
:10333000892B09F478C18091520890915308DC01DF
:10334000ED91FC910680F781E02D1995182F898366
:103350001A8241E050E0BE016F5F7F4F87E69BE03D
:103360000E941129109256081D3009F05CC168E5D1
:1033700075E0CE0107960E949E2A67E67BE0CE01AB
:1033800007960E947129BC01CE0101960E94952AE0
:10339000CE0101960E94B410CE0101960E94D3295D
:1033A000CE0107960E94D3298091710B9091720BE8
:1033B000892B79F163E575E080916D0B90916E0B2F
:1033C0000E94EE40892B29F58091670B9091680B44
:1033D000009719F00E94EF4303C060E070E0CB015A
:1033E0002091590830915A08890120E030E0601797
:1033F00071078207930709F010C1809159089091D5
:103400005A0801968F77992790935A088093590804
:1034100002C165E274E0CE0101960E949E2ACE01AF
:1034200001960E94341F8C01CE0101960E94D3297F
:103430000F3F1F4F79F166EE75E0CE0101960E94B5
:103440005D2ACE0101960E94B410CE0101960E9421
:10345000D32965EE75E0CE0101960E945D2ACE016A
:1034600001960E94B410CE0101960E94D32980914A
:10347000710B9091720B892B09F4CDC062E475E059
:1034800080916D0B90916E0B0E94EE40892B09F498
:103490008FC0C1C062E975E0CE0101960E949E2AEC
:1034A000CE0101960E94341F8C01CE0101960E942C
:1034B000D3290F3F1F4FF1F06CEC75E0CE01019660
:1034C0000E945D2ACE0101960E94B410CE010196A1
:1034D0000E94D3296BEC75E0CE0101960E945D2A13
:1034E000CE0101960E94B410CE0101960E94D3290C
:1034F00082E08FC061E675E0CE0101960E949E2AAF
:10350000CE0101960E94341F8C01CE0101960E94CB
:10351000D3290F3F1F4FF1F063EB75E0CE01019609
:103520000E945D2ACE0101960E94B410CE01019640
:103530000E94D32962EB75E0CE0101960E945D2ABC
:10354000CE0101960E94B410CE0101960E94D329AB
:1035500083E05FC06BEA72E0CE0101960E949E2A72
:10356000CE0101960E94341F8C01CE0101960E946B
:10357000D3290F3F1F4FF1F069E975E0CE010196A5
:103580000E945D2ACE0101960E94B410CE010196E0
:103590000E94D32968E975E0CE0101960E945D2A58
:1035A000CE0101960E94B410CE0101960E94D3294B
:1035B00081E02FC066E675E0CE0101960E949E2A4A
:1035C000CE0101960E94341F8C01CE0101960E940B
:1035D000D3290F3F1F4F09F16FE775E0CE01019628
:1035E0000E945D2ACE0101960E94B410CE01019680
:1035F0000E94D3296EE775E0CE0101960E945D2AF4
:10360000CE0101960E94B410CE0101960E94D329EA
:1036100084E0809355081092540867EC74E087E6C4
:103620009BE00E94A5290E94EB06209105023091A3
:10363000060280910F08909110088217930709F4F1
:1036400069C08091040221FD06C0882309F458C096
:103650006AE476E019C020FD06C0882309F450C052
:1036600064E376E011C025FD06C0882309F448C054
:103670006AE276E009C0A90140745570452BA1F4B7
:103680008823F1F160E276E0CE0101960E945D2A86
:1036900060E0CE0101960E941812CE0101960E94B0
:1036A000D329109204022CC0A90140785A70452BEE
:1036B00029F4882329F166E176E0E6CF22FD05C0F2
:1036C0008823F1F06CE076E0DFCF23FD05C088238E
:1036D000B9F062E076E0D8CF813091F06CEF75E020
:1036E000CE0101960E945D2A60E0CE0101960E9403
:1036F0001812CE0101960E94D32981E08093040222
:103700000E94541180910502909106029093100836
:1037100080930F080E947B0B0E94B70B8091F405E9
:10372000882329F10E947B26609312087093130866
:10373000809314089093150880911108811115C089
:1037400064E576E0CE0101960E945D2ACE010196E5
:103750000E94A72BCE0101960E94D32961E08EE240
:103760000E94D52581E0809311081092F405809184
:1037700011088823D9F10E947B26C0901208D090AE
:103780001308E0901408F0901508DC01CB018C19A7
:103790009D09AE09BF0989389341A105B105A8F07B
:1037A00068E072E0CE0101960E945D2ACE0101968A
:1037B0000E94A72BCE0101960E94D32960E08EE2E1
:1037C0000E94D5251092110811C00E947B266C150D
:1037D0007D058E059F0550F40E947B26609312089C
:1037E000709313088093140890931508809125080E
:1037F000882321F00E942008109225088091240837
:10380000882309F466C08091140C811160C08091F6
:103810001C0C882309F45BC080911A0C8F5F809385
:103820001A0C823008F453C082E090E09093600C50
:1038300080935F0C1092610C81E090E09093630C98
:103840008093620C85EE90E09093650C8093640CFD
:1038500088E180936E0C0E94790E81E080939A0C2F
:1038600085E00E94330E882381F10E947A0DF12CAD
:10387000E12C0F2D1E2D8091550C9091560CDC01E2
:10388000ED91FC910480F581E02D1995892B41F093
:103890000031110509F015C190E1F92EE12C02C0AB
:1038A000F02EE12E0E94850D882309F405C16CE6F7
:1038B00075E0CE0101960E949E2ACE0101960E94DB
:1038C000590DCE0101960E94D3290E94AC15109289
:1038D000240880912308882399F08CE00E94AC256D
:1038E00061E0892B09F060E08CE00E94D5258CE036
:1038F0000E94AC25682F8DE00E94D52510922308E8
:10390000809122088111109222080E947B266093E8
:103910001E0870931F088093200890932108C09080
:103920001A08D0901B08E0901C08F0901D088B012D
:103930009C010C191D092E093F09023011052105B2
:103940003105D8F1209119082C19260F2093190858
:1039500060931A0870931B0880931C0890931D08AD
:103960002A3008F41FC110921908909118089F5F1F
:103970009093180881E0809325089A3008F412C1CA
:1039800010921808909117089F5F909317088093E2
:103990002408953008F406C1109217089091160873
:1039A0009F5F9093160880932308923008F4FAC022
:1039B0001092160880932208F5C06C157D058E05BF
:1039C0009F0508F0EFC060931A0870931B0880935E
:1039D0001C0890931D08E6C06FE875E08DE69BE03B
:1039E0000E94A52961E175E0CE0101960E945D2A41
:1039F000CE0101960E94B410CE0101960E94D329F7
:103A00006FE875E080915208909153080E94B32AA4
:103A10008091520890915308DC01ED91FC91028451
:103A2000F385E02D199581E0809354080E947B2650
:103A300060936308709364088093650890936608A8
:103A40000E947B2660935B0870935C0880935D08FE
:103A500090935E0862CC6FE875E08DE69BE00E9473
:103A6000A5296FE875E080915208909153080E9453
:103A7000B32A8091520890915308DC01ED91FC919A
:103A80000284F385E02D199581E0809354080E940B
:103A90007B2660935B0870935C0880935D0890932D
:103AA0005E080E947B2660935F0870936008809395
:103AB00061089093620831CC0031110509F0D9CE2C
:103AC00014C08091550C9091560CDC01ED91FC9145
:103AD0000680F781E02D1995F801ED5AF34F87A381
:103AE0000F5F1F4F0E947A0DC6CE80917E0C2091F1
:103AF0009B0C90E0821B91090297C4F0F0907E0C21
:103B0000F21AEF2DEE0F00E010E08EEFE82EEE0E31
:103B1000FF2081F1ED5FF0E0ED5AF34F87A10E94A5
:103B20007617080F191FFA94EE2DEFCF80917F0CB6
:103B3000882351F080917E0C2817D1F080917F0C62
:103B40000E9476178C0116C080917E0C281310C03D
:103B50008091800C8E3051F480919D0C8F5F80930A
:103B60009D0C853128F010929D0C17C010929D0C71
:103B700000E010E080917E0C80939B0C0F3F69F079
:103B800080910F0C9091100C800F911D07FD9A955C
:103B90009093100C80930F0C02C00E94AC151092F1
:103BA0001A0C95CE2C960FB6F894DEBF0FBECDBF83
:103BB000DF91CF911F910F91FF90EF90DF90CF9009
:103BC000089588E396E00E94D92321E0892B09F427
:103BD00020E0822F0895CF93DF93CDB7DEB76297B1
:103BE0000FB6F894DEBF0FBECDBFBC01CE0101966B
:103BF0000E94952A6FEA7BE0CE0107960E94952AE3
:103C00006DE97BE0CE010D960E94952AAE014F5FD3
:103C10005F4FBE01695F7F4FCE010D960E94A111DB
:103C2000CE010D960E94D329CE0107960E94D3297A
:103C3000CE0101960E94D32962960FB6F894DEBF9A
:103C40000FBECDBFDF91CF9108951F93CF93DF9328
:103C5000CDB7DEB762970FB6F894DEBF0FBECDBF0B
:103C6000162FBC01CE0101960E94952A61EF7BE0E0
:103C7000CE0107960E94952A6DE97BE0CE010D9654
:103C80000E94952AAE014F5F5F4FBE01695F7F4F73
:103C9000CE010D960E94A111CE010D960E94D3294E
:103CA000CE0107960E94D329CE0101960E94D32906
:103CB00011110E94541162960FB6F894DEBF0FBE28
:103CC000CDBFDF91CF911F910895CF93DF93CDB7F3
:103CD000DEB762970FB6F894DEBF0FBECDBF20915E
:103CE0005508223079F068E975E0CE0101960E940E
:103CF0009E2ACE0101960E94B410CE0101960E9428
:103D0000D32929C0BC01CE0101960E94952A6DEFEE
:103D10007BE0CE0107960E94952A67EF7BE0CE01FB
:103D20000D960E94952AAE014F5F5F4FBE01695FFD
:103D30007F4FCE010D960E94A111CE010D960E94DB
:103D4000D329CE0107960E94D329CE0101960E9465
:103D5000D3290E94541162960FB6F894DEBF0FBEAD
:103D6000CDBFDF91CF910895CF93DF93CDB7DEB76D
:103D700062970FB6F894DEBF0FBECDBFBC01CE0177
:103D800001960E94952A65EB7BE0CE0107960E9482
:103D9000952A6DE97BE0CE010D960E94952AAE0131
:103DA0004F5F5F4FBE01695F7F4FCE010D960E944E
:103DB000A111CE010D960E94D329CE0107960E9433
:103DC000D329CE0101960E94D32962960FB6F894AA
:103DD000DEBF0FBECDBFDF91CF910895CF93DF93AC
:103DE000CDB7DEB762970FB6F894DEBF0FBECDBF7A
:103DF000BC01CE0101960E94952A6BEB7BE0CE01BF
:103E000007960E94952A6DE97BE0CE010D960E94EF
:103E1000952AAE014F5F5F4FBE01695F7F4FCE01B4
:103E20000D960E94A111CE010D960E94D329CE01BC
:103E300007960E94D329CE0101960E94D32962964B
:103E40000FB6F894DEBF0FBECDBFDF91CF910895BE
:103E5000E2E2FCE08FEF90E0928B818B948B838B7E
:103E600083E39CE00C942E0FCF93DF9320916B0B98
:103E700030916C0B232B79F0FC01C091670BD09132
:103E8000680B60817181CE010E94FE40009719F09D
:103E90008C1B9D0B02C08FEF9FEFDF91CF91089598
:103EA000CF92DF92EF92FF920F931F93CF93DF9306
:103EB000EC016A017B01E889F98982E08083411580
:103EC000514E61057105B1F060E079E08DE390E05D
:103ED000A70196010E94713E89019A0101501109C2
:103EE00021093109369527951795079598010115F0
:103EF0001041A8F0E889F989108260E874E88EE141
:103F000090E0A70196010E94713EDA01C901019774
:103F1000A109B109B695A795979587959C01EC8560
:103F2000FD853083EE85FF852083188EEC89FD8921
:103F300086E08083EA89FB89808180618083EA89C9
:103F4000FB89808188608083EA89FB898081806821
:103F50008083EA89FB8980818F7D8083DF91CF9187
:103F60001F910F91FF90EF90DF90CF9008950F93E6
:103F70001F930E947B2600915B0810915C082091A2
:103F80005D0830915E08601771078207930750F44F
:103F90000E947B2660935B0870935C0880935D08A9
:103FA00090935E080E947B2600915B0810915C084C
:103FB00020915D0830915E08DC01CB01801B910BE4
:103FC000A20BB30B21E088389341A105B10508F499
:103FD00020E0822F1F910F910895CF93DF93CDB7EB
:103FE000DEB762970FB6F894DEBF0FBECDBFBC013F
:103FF000CE0101960E94952A67E97BE0CE010796E3
:104000000E94952A61E97BE0CE010D960E94952AD7
:10401000AE014F5F5F4FBE01695F7F4FCE010D96CE
:104020000E94A111CE010D960E94D329CE010796C0
:104030000E94D329CE0101960E94D3290E945411D7
:1040400062960FB6F894DEBF0FBECDBFDF91CF9161
:1040500008950F931F93CF93DF93CDB7DEB7699782
:104060000FB6F894DEBF0FBECDBF282F8B016DE9D0
:104070007BE0CE014396298F0E94952A298D22301C
:1040800069F02330A1F02130D9F54AE0B801CE0122
:1040900001960E94D8296DEC7BE011C04AE0B8017E
:1040A000CE0101960E94D82969ED7BE008C04AE064
:1040B000B801CE0101960E94D82965EE7BE0CE01C1
:1040C00007960E94952ABE016D5E7F4FCE010D9628
:1040D0000E94952AAE014F5F5F4FBE01695F7F4F1F
:1040E000CE010D960E94A111CE010D960E94D329FA
:1040F000CE0107960E94D329CE0101960E94D329B2
:10410000CE0143960E94D32969960FB6F894DEBF7C
:104110000FBECDBFDF91CF911F910F9108952091D8
:10412000300C2F5F243018F42093300C02C0109212
:10413000300C2091300C2130F9F070F02230D1F1A8
:10414000233009F051C080E590E09093340C8093C7
:10415000330C8BEF90E044C06AE070E00E94493E6F
:10416000FC01EE5DF34F838190E09093340C8093DB
:10417000330C8DEF90E034C08A309105A0F064E6F6
:1041800070E00E94493E6AE070E00E94493EFB01F7
:10419000EE5DF34F838190E09093340C8093330C69
:1041A0008FEE90E01DC08FEF90E09093340C8093E1
:1041B000330C16C084369105B0F368EE73E00E94AC
:1041C000493E64E670E00E94493EFB01EE5DF34F1C
:1041D000838190E09093340C8093330C87EF90E0D0
:1041E0009093360C8093350C83E39CE00C942E0F57
:1041F0000F931F930E947B260091090C10910A0CCB
:1042000020910B0C30910C0C6017710782079307FB
:1042100050F40E947B266093090C70930A0C8093E3
:104220000B0C90930C0C0E947B260091090C1091B2
:104230000A0C20910B0C30910C0CDC01CB01801B83
:10424000910BA20BB30B21E0843F9140A105B10576
:1042500008F420E0822F1F910F9108951F93CF93B0
:10426000DF9300D000D0CDB7DEB7182F80910D0CB2
:104270001817D1F0112319F060EA75E002C06CEB59
:1042800075E0CE0101960E949E2ACE0101960E9401
:104290008B15CE0101960E94D329612F8091180CB5
:1042A0000E94D52510930D0C0E947B266093090C6B
:1042B00070930A0C80930B0C90930C0C0E94F820C6
:1042C000811119C08091550C9091560CDC01ED9133
:1042D000FC910480F581E02D1995892B79F380916B
:1042E000550C9091560CDC01ED91FC910680F78104
:1042F000E02D1995E3CF26960FB6F894DEBF0FBEDA
:10430000CDBFDF91CF911F910895CF93DF93CDB7AC
:10431000DEB762970FB6F894DEBF0FBECDBF4AE09E
:10432000682FCE0101960E94302A69E77BE0CE011A
:1043300007960E94952A63E77BE0CE010D960E94C6
:10434000952AAE014F5F5F4FBE01695F7F4FCE017F
:104350000D960E94A111CE010D960E94D329CE0187
:1043600007960E94D329CE0101960E94D329629616
:104370000FB6F894DEBF0FBECDBFDF91CF91089589
:10438000CF93DF93CDB7DEB762970FB6F894DEBF59
:104390000FBECDBF4AE0BC01CE0101960E94D829D4
:1043A0006FE77BE0CE0107960E94952A63E77BE0EA
:1043B000CE010D960E94952AAE014F5F5F4FBE0160
:1043C000695F7F4FCE010D960E94A111CE010D961F
:1043D0000E94D329CE0107960E94D329CE010196CF
:1043E0000E94D32962960FB6F894DEBF0FBECDBFF0
:1043F000DF91CF910895CF93DF93CDB7DEB762976A
:104400000FB6F894DEBF0FBECDBF4AE0BC01CE01AF
:1044100001960E94D82965E87BE0CE0107960E94AC
:10442000952A63E77BE0CE010D960E94952AAE01A6
:104430004F5F5F4FBE01695F7F4FCE010D960E94B7
:10444000A111CE010D960E94D329CE0107960E949C
:10445000D329CE0101960E94D32962960FB6F89413
:10446000DEBF0FBECDBFDF91CF910895CF93DF9315
:10447000CDB7DEB762970FB6F894DEBF0FBECDBFE3
:10448000BC01CE0101960E94952A6BE87BE0CE012B
:1044900007960E94952A63E77BE0CE010D960E9465
:1044A000952AAE014F5F5F4FBE01695F7F4FCE011E
:1044B0000D960E94A111CE010D960E94D329CE0126
:1044C00007960E94D329CE0101960E94D3296296B5
:1044D0000FB6F894DEBF0FBECDBFDF91CF91089528
:1044E0004F925F926F927F928F929F92AF92BF9204
:1044F000CF92DF92EF92FF920F931F93CF93DF93B0
:104500004B015C0180912D0890912E08A0912F08FD
:10451000B091300888169906AA06BB0609F4C2C0F5
:104520008CE3C82ED12CE12CF12CC501B401A701DC
:1045300096010E94713E60932608CA01B901A70145
:1045400096010E94713E60932708CA01B90128E1D3
:1045500030E040E050E00E94713E69017A016093D2
:104560002808CA01B9016C5F7F4F8F4F9F4F27E02A
:1045700030E040E050E00E94713E6F5F6093290898
:10458000412C512C320140E004E610E0C0E9D1E0BA
:10459000242F30E02E54384FF901E370FF27309775
:1045A00089F4C901B8010E945D3E892B31F4C9012B
:1045B000BE010E945D3E892B29F48EE691E0A0E0C9
:1045C000B0E004C08DE691E0A0E0B0E0480E591ED6
:1045D0006A1E7B1ED301C201AA27BB27C816D906B3
:1045E000EA06FB0610F04F5FD3CF40932C083097BC
:1045F00099F4C90164E670E00E945D3E892B39F4AC
:10460000C90160E971E00E945D3E892B29F48EE6C4
:1046100091E0A0E0B0E004C08DE691E0A0E0B0E061
:10462000481A590A6A0A7B0AC418D508E608F70826
:10463000C90164E670E00E945D3EEC01C90160E9D9
:1046400071E00E945D3EA3E2B2E020E0213039F447
:10465000309749F4209729F4009729F402C04C912F
:1046600003C04DE101C04CE150E060E070E0C416D1
:10467000D506E606F70640F0C41AD50AE60AF70A98
:104680002F5F11962C3011F72F5F20932B08C394C6
:10469000C0922A0880922D0890922E08A0922F088E
:1046A000B0923008DF91CF911F910F91FF90EF9062
:1046B000DF90CF90BF90AF909F908F907F906F9042
:1046C0005F904F9008951F920F920FB60F92112492
:1046D0000BB60F922F933F934F935F936F937F93FC
:1046E0008F939F93AF93BF93EF93FF9388E396E0ED
:1046F0000E942225FF91EF91BF91AF919F918F91E1
:104700007F916F915F914F913F912F910F900BBED1
:104710000F900FBE0F901F9018951F920F920FB61B
:104720000F9211240BB60F922F933F934F935F93E9
:104730006F937F938F939F93AF93BF93EF93FF9369
:1047400088E396E00E943A2BFF91EF91BF91AF91E1
:104750009F918F917F916F915F914F913F912F9199
:104760000F900BBE0F900FBE0F901F901895FC017D
:10477000918D828D981761F0828DDF01A80FB11D98
:104780005D968C91928D9F5F9F73928F90E00895BC
:104790008FEF9FEF0895FC01918D828D981731F076
:1047A000828DE80FF11D858D90E008958FEF9FEFCA
:1047B0000895FC01918D228D892F90E0805C9F4FA0
:1047C000821B91098F739927089580E090E0892BCF
:1047D00021F00E94D72881111DC080E090E0892B34
:1047E00041F080E090E0892B21F00E9400008111CF
:1047F00014C080E090E0892B21F00E94E11D81111E
:104800000FC080E090E0892B81F00E94CD288111BB
:104810000AC008950E940000E0CF0E940000E9CF86
:104820000E940000EECF0C940000089590E0FC017F
:104830003197E231F10508F04EC08827E257FF4F6B
:104840008F4F0C94933E809180008F7703C08091AE
:1048500080008F7D80938000089580918000877F05
:10486000F9CF84B58F7702C084B58F7D84BD08955C
:104870008091B0008F7703C08091B0008F7D8093CE
:10488000B0000895809190008F7707C080919000CC
:104890008F7D03C080919000877F80939000089562
:1048A0008091A0008F7707C08091A0008F7D03C00A
:1048B0008091A000877F8093A000089580912001BF
:1048C0008F7707C0809120018F7D03C080912001E8
:1048D000877F8093200108953FB7F89480913C082A
:1048E00090913D08A0913E08B0913F0826B5A89B45
:1048F00005C02F3F19F00196A11DB11D3FBFBA2F72
:10490000A92F982F8827820F911DA11DB11DBC01D1
:10491000CD0142E0660F771F881F991F4A95D1F796
:104920000895EF92FF920F931F93CF93DF9300D0E0
:1049300000D0CDB7DEB78C017A016AE877E00E943B
:104940005D2A8AE0E816F1042CF468E877E0C801F3
:104950000E94E1284AE0B701CE0101960E94042A94
:10496000BE016F5F7F4FC8010E943F29CE010196B3
:104970000E94D329C80126960FB6F894DEBF0FBE59
:10498000CDBFDF91CF911F910F91FF90EF900895D0
:10499000EF92FF920F931F93CF93DF93EC017B0174
:1049A00067EC74E008960E949E2A8E01025F1F4FFA
:1049B00067EC74E0C8010E949E2A88E396E0998320
:1049C000888380E092ECA1E0B0E08C839D83AE838D
:1049D000BF8387ED95E09B838A83B701C801DF9190
:1049E000CF911F910F91FF90EF900C94BC291F92D3
:1049F0000F920FB60F9211240BB60F922F933F9385
:104A00004F935F936F937F938F939F93AF93BF93D6
:104A1000EF93FF93E0913508F09136081995FF91D7
:104A2000EF91BF91AF919F918F917F916F915F9126
:104A30004F913F912F910F900BBE0F900FBE0F9093
:104A40001F901895FC01848DDF01A80FB11DA35A9A
:104A5000BF4F2C91848D90E001968F739927848F9E
:104A6000A689B7892C93A089B1898C9180648C9395
:104A7000938D848D981306C00288F389E02D808180
:104A80008F7D80830895EF92FF920F931F93CF93B2
:104A9000DF93EC0181E0888F9B8D8C8D981305C08E
:104AA000E889F989808185FD24C0F62E0B8D10E000
:104AB0000F5F1F4F0F731127E02E8C8DE8120CC073
:104AC0000FB607FCFACFE889F989808185FFF5CF19
:104AD000CE010E942225F1CF8B8DFE01E80FF11D42
:104AE000E35AFF4FF0820B8FEA89FB898081806255
:104AF00007C0EE89FF896083E889F9898081806435
:104B0000808381E090E0DF91CF911F910F91FF9022
:104B1000EF900895CF93DF93EC01888D8823C9F03F
:104B2000EA89FB89808185FD05C0A889B9898C91B6
:104B300086FD0FC00FB607FCF5CF808185FFF2CF51
:104B4000A889B9898C9185FFEDCFCE010E942225DD
:104B5000E7CFDF91CF910895CF93DF93282F30E0F7
:104B6000F901EE5BF84F8491F901E450F94FD491CB
:104B7000F901EA54F94FC491CC2391F081110E94BC
:104B80001624EC2FF0E0EE0FFF1FE456F94FA5912D
:104B9000B491EC91ED2381E090E021F480E002C03B
:104BA00080E090E0DF91CF9108951F93CF93DF9342
:104BB000282F30E0F901EE5BF84F8491F901E450C1
:104BC000F94FD491F901EA54F94FC491CC23C9F0BB
:104BD000162F81110E941624EC2FF0E0EE0FFF1F1C
:104BE000EE57F94FA591B4918FB7F894111105C004
:104BF0009C91ED2FE095E92302C0EC91ED2BEC9315
:104C00008FBFDF91CF911F910895CF93DF9390E0F5
:104C1000FC01E450F94F2491FC01EA54F94F8491CE
:104C2000882361F190E0880F991FFC01E859F94F42
:104C3000C591D491FC01EE57F94FA591B491611142
:104C400009C09FB7F8948881209582238883EC91CE
:104C50002E230BC0623061F49FB7F8943881822F05
:104C6000809583238883EC912E2B2C939FBF06C0C5
:104C70008FB7F894E8812E2B28838FBFDF91CF91D7
:104C800008958F929F92AF92BF92CF92DF92EF9250
:104C9000FF926B017C010E946C244B015C01C114EA
:104CA000D104E104F104F1F00E946C24DC01CB0199
:104CB00088199909AA09BB09883E9340A105B10545
:104CC00070F321E0C21AD108E108F10888EE880EDD
:104CD00083E0981EA11CB11CC114D104E104F104AD
:104CE00019F7DDCFFF90EF90DF90CF90BF90AF909E
:104CF0009F908F9008952FB7F89460913808709125
:104D0000390880913A0890913B082FBF08954F923F
:104D10005F926F927F928F929F92AF92BF92EF922B
:104D2000FF920F931F93CF93DF93CDB7DEB76E97AC
:104D30000FB6F894DEBF0FBECDBF8C017B0167ECD0
:104D400074E0CE010D960E949E2AB701CE014396D3
:104D50000E94952A67EC74E0CE0149960E949E2A33
:104D600078012EE0E20EF11C0E947B26409048085C
:104D70005090490860904A0870904B084B015C01C4
:104D800084189508A608B70880914C0890914D08A2
:104D9000A0914E08B0914F08E8EE8E16E3E09E0613
:104DA000A104B104D0F00196A11DB11D80934C085F
:104DB00090934D08A0934E08B0934F08B301A20101
:104DC00048515C4F6F4F7F4F4093480850934908BC
:104DD00060934A0870934B08C7CF409144085091A4
:104DE0004508609146087091470884179507A60703
:104DF000B70708F456C0E0914208F0914308309795
:104E000009F44FC01995611571058105910539F1B6
:104E100060934C0870934D0880934E0890934F0810
:104E2000DC01CB01845D9E4FAF4FBF4F80934408A0
:104E300090934508A0934608B093470882E090E01D
:104E400090934108809340080E947B266093480815
:104E50007093490880934A0890934B0822C0809130
:104E60004C0890914D08A0914E08B0914F08845D78
:104E70009E4FAF4FBF4F8093440890934508A09337
:104E80004608B093470881E090E0209140083091B7
:104E90004108232B11F480E090E090934108809327
:104EA000400880904C0890904D08A0904E08B0901B
:104EB0004F08C501B4010E9470224091280850E0BB
:104EC000B801CE0107960E9491246DE877E0CE01EB
:104ED00007960E94E128C501B4010E94702240910A
:104EE000270850E0B801CE0101960E949124BE012E
:104EF0006F5F7F4FCE0107960E943F29CE0101963A
:104F00000E94D3296BE877E0CE0107960E94E12842
:104F1000C501B4010E9470224091260850E0B801FA
:104F2000CE0101960E949124BE016F5F7F4FCE019A
:104F300007960E943F29CE0101960E94D329BE0107
:104F4000695F7F4FCE0101960E94952A6DED75E055
:104F5000CE0101960E945829B7010E9471296BED7C
:104F600075E00E945829BE016D5E7F4F0E94712935
:104F7000BC01CE0149960E94BC29CE0101960E9437
:104F8000D329CE0107960E94D3298D859E8500974F
:104F9000A9F0698D7A8D6115710571F04F85588979
:104FA0002D8D3E8D4217530738F00E94F7408D8DAE
:104FB0009E8D9A8B898B12C00E945F3F898D9A8D3E
:104FC0009E878D878B8D9C8D988B8F878D8D9E8DE9
:104FD0009A8B898B1A8E198E1C8E1B8E1E8E1D8E9F
:104FE000CE0149960E94D329CE0143960E94D3292F
:104FF000BE01635F7F4FF801808191810E94C72AC3
:10500000CE010D960E94D3296E960FB6F894DEBF9E
:105010000FBECDBFDF91CF911F910F91FF90EF9009
:10502000BF90AF909F908F907F906F905F904F90C8
:1050300008951F920F920FB60F9211242F933F9352
:105040008F939F93AF93BF938091380890913908C5
:10505000A0913A08B0913B083091370823E0230F24
:105060002D3720F40196A11DB11D05C026E8230FA0
:105070000296A11DB11D20933708809338089093A4
:105080003908A0933A08B0933B0880913C0890916E
:105090003D08A0913E08B0913F080196A11DB11DA9
:1050A00080933C0890933D08A0933E08B0933F083E
:1050B000BF91AF919F918F913F912F910F900FBE14
:1050C0000F901F9018950895CF92DF92EF92FF9264
:1050D0000F931F93CF93DF936C017A018B01C0E094
:1050E000D0E0CE15DF0589F0D8016D918D01D60194
:1050F000ED91FC910190F081E02DC6011995892B6D
:1051000011F47E0102C02196ECCFC701DF91CF914F
:105110001F910F91FF90EF90DF90CF9008950E9424
:10512000E0406115710579F0FB0101900020E9F77D
:105130003197AF01461B570BDC01ED91FC910280CA
:10514000F381E02D199480E090E008950F931F9370
:10515000CF93DF93EC0188819981009729F02A8110
:105160003B812617370788F48B016F5F7F4F0E94C2
:10517000F73F009761F0998388831B830A832C8112
:105180003D81232B11F4FC01108281E001C080E0FD
:10519000DF91CF911F910F91089585ED96E00E94C8
:1051A000D92321E0892B09F420E0822F089582E79A
:1051B00097E00E94D92321E0892B09F420E0822F77
:1051C0000895EF92FF920F931F93CF93DF93611592
:1051D000710511F480E01EC08B01EC01CB010E942F
:1051E0001D440097B1F02C813D817C01E20EF31E3D
:1051F000B701CE010E94A628882361F32881398156
:105200008C819D81B801820F931F0E941644FD82FC
:10521000EC8281E0DF91CF911F910F91FF90EF9091
:105220000895EF92FF920F931F93CF93DF93FC01AA
:10523000248135816115710511F480E019C0411593
:105240005105A9F07B01EC018A01020F131FB8017F
:105250000E94A628882389F3288139818C819D8129
:10526000B701820F931F0E94F7401D830C8381E0DA
:10527000DF91CF911F910F91FF90EF900895FB0167
:1052800044815581608171810C941129CF93DF9302
:10529000EC0188819981009711F00E945F3F19828B
:1052A00018821D821C821B821A82DF91CF91089581
:1052B000CF93DF93EC016115710561F0FB01019063
:1052C0000020E9F73197AF01461B570B0E941129C7
:1052D000811103C0CE010E944629CE01DF91CF91FA
:1052E0000895CF93DF93EC01FB01448155816081E8
:1052F00071810E941129811103C0CE010E944629AB
:10530000CE01DF91CF910895EF92FF920F931F93FB
:10531000CF93DF93EC017B018A01BA010E94A6289A
:10532000811104C0CE010E94462907C01D830C8351
:10533000B701888199810E94F740CE01DF91CF911A
:105340001F910F91FF90EF900895CF93DF93EC01A1
:105350006115710559F0FB0101900020E9F73197C3
:10536000AF01461B570B0E94842902C00E944629A8
:10537000CE01DF91CF910895CF93DF93EC01FB0134
:105380008617970761F0608171816115710529F0B9
:10539000448155810E94842902C00E944629CE0181
:1053A000DF91CF910895FC01808191810C945F3F42
:1053B0000F931F93CF93DF93CDB7DEB761970FB6EF
:1053C000F894DEBF0FBECDBF8C01CB01F801118276
:1053D0001082138212821582148250E0BE016F5F28
:1053E0007F4F0E945144BE016F5F7F4FC8010E94F2
:1053F000A52961960FB6F894DEBF0FBECDBFDF9131
:10540000CF911F910F9108950F931F93CF93DF9327
:10541000CDB7DEB762970FB6F894DEBF0FBECDBF33
:105420008C01CB01F8011182108213821282158245
:10543000148250E0BE016F5F7F4F0E942644BE0180
:105440006F5F7F4FC8010E94A52962960FB6F8943E
:10545000DEBF0FBECDBFDF91CF911F910F91089599
:105460000F931F93CF93DF93CDB7DEB729970FB676
:10547000F894DEBF0FBECDBF8C01862FF8011182DC
:105480001082138212821582148250E0BE016F5F77
:105490007F4F90E00E945144BE016F5F7F4FC80173
:1054A0000E94A52929960FB6F894DEBF0FBECDBF86
:1054B000DF91CF911F910F910895EF92FF920F937B
:1054C0001F93CF93DF93EC01198218821B821A82FB
:1054D0001D821C826115710509F18B01CB010E94AF
:1054E0001D447C01BC01CE010E94A628811109C087
:1054F000CE01DF91CF911F910F91FF90EF900C940F
:105500004629FD82EC82B80188819981DF91CF9193
:105510001F910F91FF90EF900C941644DF91CF9163
:105520001F910F91FF90EF900895FC01118210825E
:1055300013821282158214820C94BC29FC01118200
:10554000108213821282158214826115710551F046
:10555000FB0101900020E9F73197AF01461B570B83
:105560000C94842908950F931F93CF93DF93EC013C
:105570000E9491288C0165EC74E0CE010E94912874
:10558000800F911FDF91CF911F910F9108950F937D
:105590001F93CF93DF93EC01E881F981DB0114962F
:1055A0004D915C9115976D917C910280F381E02D76
:1055B00019958C0165EC74E0CE010E949128800F52
:1055C000911FDF91CF911F910F9108951F920F921C
:1055D0000FB60F9211240BB60F922F933F934F9358
:1055E0005F936F937F938F939F93AF93BF93EF934B
:1055F000FF9385ED96E00E942225FF91EF91BF91E8
:10560000AF919F918F917F916F915F914F913F915A
:105610002F910F900BBE0F900FBE0F901F901895FB
:105620001F920F920FB60F9211240BB60F922F9369
:105630003F934F935F936F937F938F939F93AF931A
:10564000BF93EF93FF9382E797E00E942225FF919B
:10565000EF91BF91AF919F918F917F916F915F91EA
:105660004F913F912F910F900BBE0F900FBE0F9057
:105670001F901895FC01A089B1898C91A689B789E2
:1056800082FD0FC09C91818D8F5F8F73228D821759
:1056900049F0218DDF01A20FB11D5D969C93818F92
:1056A00008958C9108951F920F920FB60F921124B6
:1056B0000BB60F922F933F934F935F936F937F930C
:1056C0008F939F93AF93BF93EF93FF9385ED96E0F6
:1056D0000E943A2BFF91EF91BF91AF919F918F91D3
:1056E0007F916F915F914F913F912F910F900BBEE2
:1056F0000F900FBE0F901F9018951F920F920FB62C
:105700000F9211240BB60F922F933F934F935F93F9
:105710006F937F938F939F93AF93BF93EF93FF9379
:1057200082E797E00E943A2BFF91EF91BF91AF91F2
:105730009F918F917F916F915F914F913F912F91A9
:105740000F900BBE0F900FBE0F901F901895CF9328
:10575000DF9300D000D0CDB7DEB7BC01CE010196FB
:105760000E94952ABE016F5F7F4F8FE39CE00E94ED
:105770008726CE0101960E94D32926960FB6F8946B
:10578000DEBF0FBECDBFDF91CF910895CF93DF93E2
:10579000CDB7DEB7CE55D1090FB6F894DEBF0FBE38
:1057A000CDBF789484B5826084BD84B5816084BDAA
:1057B00085B5826085BD85B5816085BD80916E00AF
:1057C000816080936E0010928100809181008260E0
:1057D000809381008091810081608093810080911D
:1057E00080008160809380008091B100846080930C
:1057F000B1008091B00081608093B00080919100F1
:1058000082608093910080919100816080939100EB
:10581000809190008160809390008091A1008260CF
:105820008093A1008091A10081608093A10080916C
:10583000A00081608093A00080912101826080930C
:1058400021018091210181608093210180912001BB
:1058500081608093200180917A00846080937A0037
:1058600080917A00826080937A0080917A008160D2
:1058700080937A0080917A00806880937A001092F9
:10588000C1004091430C5091440C6091450C7091C3
:10589000460C80913F0C9091400C0E94501F10923A
:1058A000800080E180938100FF24F394F09233081C
:1058B0008FB780933408F89480E09DE79093320886
:1058C00080933108909387008093860080913408FC
:1058D0008FBF80918100887F8093810090918100AB
:1058E00080913308982B909381002DEF33E0309313
:1058F000360820933508F0926F0090918100892B33
:105900008093810080918100887F809381006EE781
:1059100072E08E010F5F1F4FC8010E945D2AC8010F
:105920000E94A72BC8010E94D32961E08DE20E944A
:10593000052661E08BE20E94052661E089E20E9473
:10594000052661E081E20E94052661E084E30E9471
:10595000052661E083E30E94052661E08FE20E9454
:10596000052661E08AE20E94052661E08BE00E9444
:10597000052661E08AE00E94052661E089E00E9438
:10598000052661E08CE20E94052661E08EE20E941D
:10599000052661E08CE00E94052661E08DE00E9412
:1059A000052661E088E00E94052661E086E00E940D
:1059B000052661E087E00E94052661E085E00E94FF
:1059C000052660E083E00E94052660E084E00E94F6
:1059D000052660E088E00E94D52560E08DE00E9409
:1059E000D52560E086E00E94D52560E087E00E9432
:1059F000D52560E085E00E94D52561E08DE20E941A
:105A0000D52561E08BE20E94D52561E089E20E9404
:105A1000D52560E081E20E94D52561E084E30E9403
:105A2000D52561E083E30E94D52561E08FE20E94E5
:105A3000D52560E08AE20E94D52560E08BE00E94D7
:105A4000D52560E08AE00E94D52560E089E00E94CB
:105A5000D52560E08CE20E94D52560E08EE20E94B0
:105A6000D52560E08CE00E94D52560E08FE10E94A2
:105A7000052660E087E20E94052660E085E20E943C
:105A8000052660E083E20E94052660E08BE10E942B
:105A9000052660E089E10E94052660E087E10E941A
:105AA000052660E08FE00E94052660E08DE10E94FF
:105AB000052660E082E30E94052660E085E30E94FF
:105AC000052660E081E30E940526F09208020E940C
:105AD000740C60E081E090E00E94970560E082E055
