:100000000C94B5030C94E6030C94E6030C94E603FD
:100010000C94E6030C94E6030C94E6030C94E603BC
:100020000C94E6030C94E6030C94E6030C94E603AC
:100030000C94E6030C94E6030C94E6030C94E6039C
:100040000C94E6030C94E6030C94E6030C94E6038C
:100050000C9479220C94E6030C94E6030C94682B20
:100060000C94E6030C94B42A0C94472A0C94E603EF
:100070000C94E6030C94E6030C94E6030C94E6035C
:100080000C94E6030C94E6030C94E6030C94E6034C
:100090000C94E6030C94E6030C94E6030C94E6033C
:1000A0000C94E6030C94E6030C94E6030C94E6032C
:1000B0000C94E6030C94E6030C94E6030C94E6031C
:1000C0000C94E6030C94E6030C94E6030C948E2047
:1000D0000C94C5220C94E6030C948A2A0C941D2AD5
:1000E0000C94E6033004330436043F044204450410
:1000F00048044B047F048204850488048B048E0426
:1001000091049A04A304AC04AF04B204A911A91188
:10011000B611B611B611C311C311D0112B1D2E1D6E
:100120001D1D211D271D651D321D361D3C1D401D39
:10013000441D4A1D4E1D521D651D581D5C1D601D30
:100140000C94EF220C9433040C94581D0C944E1D07
:100150000C9430040C94271D0C9436230C94C91C69
:100160000C942B1D0C949A040C948B040C942E1D4F
:100170000C94211D0C94E8030C94651D0C94C31180
:100180000C9445040C94521D0C9491040C94361D4F
:100190000C94BB1C0C94D0110C94A7380C9436040E
:1001A0000C943C1D0C94A71C0C94321D0C943F0421
:1001B0000C9482040C94601D0C94441D0C947F04D8
:1001C0000C94401D0C949B270C948E040C94AC044E
:1001D0000C94B2040C9488040C94B6110C94AF04E3
:1001E0000C9485040C9448040C944B040C94A304C4
:1001F0000C94643D0C94A9110C944A1D0C945C1D44
:100200000C941D1D0C9442044C45442043757020F1
:1002100048616E646C65202D204F46460072656112
:1002200064206565702E2063757020737461636B44
:10023000657220706F732E203D20004F4B00437578
:100240007020737461636B6572203E3E204F4B00DB
:10025000454D5054590043757020737461636B654C
:1002600072203E3E20456D707479004F4646004F27
:100270004E004F4B00504F574552204F4E00232306
:1002800023206D696E69436F66666565204861630A
:100290006B20762E333031203E3E205374617274D1
:1002A0002E2E2E2E007772697465206565702E20C3
:1002B0006974656D5F70726963655B004F72646538
:1002C00072204E6F2E2069732057726F6E67202147
:1002D00021006D616B655369676E616C546F436F8C
:1002E000696E203E3E20556E73756363657373209F
:1002F0002121004F72646572205061796F757420FE
:100300003E3E204F4B004F72646572205061796F02
:100310007574203E3E2054696D656F757400200031
:10032000554E53554343455353005472616E7361A8
:100330006374696F6E203E3E20554E5355434345CE
:100340005353200053554343455353005472616E39
:1003500073616374696F6E203E3E2053554343457D
:1003600053532000454D5054590043757020737409
:1003700061636B6572203E3E20456D707479004F5D
:100380004B0043757020737461636B6572203E3E51
:10039000204F4B004F4E00426F696C6572203E3E0D
:1003A00020506F776572204F4E004F464600426FD7
:1003B000696C6572203E3E20506F776572204F4613
:1003C00046004C4F57005761746572204C65766546
:1003D0006C203E3E204C4F57004F4B0057617465D8
:1003E00072204C6576656C203E3E204F4B004F4698
:1003F000460050756D70203E3E20436C6F73650063
:100400004552524F520050756D70203E3E2045724D
:10041000726F72004F4E0050756D70203E3E204F3F
:1004200070656E007772697465206565702E206353
:10043000757020737461636B657220706F732E200A
:100440003D200072656164206565702E20697465C9
:100450006D5F70726963655B00300030300045008D
:100460004F4B004F50454E00434C4F534500536592
:10047000742050756D702031202D204F4E00536533
:10048000742050756D702031202D204F464600732A
:1004900065744C45444974656D53656C656374506F
:1004A0007772203E3E204E6F7420666F756E64201A
:1004B0002121002D002D002D002D002D002D002DBF
:1004C000002D002D002D002D002D002D003D003AA7
:1004D0000043422B534554400023000043422B5518
:1004E000500023000064617461203E3E20656D7001
:1004F0007479212100436865636B20436C6F7564D8
:10050000426F78205265616479203F0043686563DB
:100510006B20436C6F7564426F7820436F6E6E651D
:100520006374696F6E203F00526573657420436F7A
:100530006D706F7274212100526573706F6E7365F8
:100540002054696D656F7574212100537461746561
:100550002072657475726E2054696D656F757421B3
:10056000210000436C6F7564426F7820526574758A
:10057000726E203E3E2052455345540000436C6F3E
:100580007564426F782052657475726E203E3E200D
:100590004552524F520000436C6F7564426F782091
:1005A00052657475726E203C3C20425553590000D0
:1005B000436C6F7564426F782052657475726E205B
:1005C0003C3C2052656164790000436C6F75644265
:1005D0006F782052657475726E203C3C204F4B0042
:1005E0005245414459004E4F542052454144590010
:1005F0004E4F54205245414459004E4F54205245CD
:10060000414459004E4F54205245414459004E4FE9
:1006100054205245414459004E4F542052454144C4
:1006200059004C4544204375702048616E646C65E8
:10063000202D204F4E0000002100240027002A001A
:100640002D003000330001010000040107010A0100
:1006500000002200250028002B002E00310034006D
:1006600002010000050108010B0100002000230029
:10067000260029002C002F00320000010000030199
:100680000601090105050505070508080808020215
:1006900002020A0A0808040404040101010101011C
:1006A00001010303030303030303040707070C0CFF
:1006B0000C0C0C0C0C0C02020202060606060606C6
:1006C00006060B0B0B0B0B0B0B0B0102102020086B
:1006D000081020401020408002010201080402019D
:1006E000010204081020408080402010080402010C
:1006F0008004020180402010080402010804020165
:1007000001020408102040800102040810204080EB
:1007100000000A0B02090C0D0E080703040100007B
:1007200000000000000000000000000000000000C9
:100730000000000000000000000000001211100086
:1007400000000000000000000000000000000000A9
:100750000000000000003000003A003A00434C4F17
:100760005544424F5800A738643D11241FBECFEFB7
:10077000D1E2DEBFCDBF00E00CBF16E0A0E0B2E0EA
:10078000E4EBFAE800E00BBF02C007900D92A6313F
:10079000B107D9F72CE0A6E1B6E001C01D92AC3D4F
:1007A000B207E1F713E0C4EBD3E000E006C0219705
:1007B0000109802FFE010E94443EC33BD10780E027
:1007C0000807A9F70E94B22B0C9448450C9400002E
:1007D000CF9380910802833009F4E3C034F4813070
:1007E00059F0823009F470C082C1843009F4F2C03B
:1007F000853009F446C17BC120912D0680914506C4
:1008000090914606222389F020912B0630912C06E8
:100810002817390728F0A901481B590BCA0102C043
:1008200080E090E0CF910C9463260097D9F78091F7
:10083000650C9091660C01979093660C8093650C03
:10084000892B09F054C180915D0C90E088309105AE
:1008500050F5FC018827EE58FF4F8F4F0C94443E13
:100860008BEF90E005C087EF90E017C08FEE90E02F
:100870009093640C8093630C0E94902714C08DEFBA
:1008800090E00BC08DEF90E0F3CF8FEE90E005C0CD
:1008900087EF90E0EDCF8BEF90E09093640C809326
:1008A000630C0E94B60C80915D0C8F5F883018F449
:1008B00080935D0C02C010925D0C86E990E09093ED
:1008C000660C8093650C13C18091670C9091680C45
:1008D00001979093680C8093670C892B09F007C1EE
:1008E0009091600C492F50E04C30510508F046C003
:1008F000FA018827E658FF4F8F4F0C94443E2EEFA5
:1009000030E032C02EEF30E020C02EEF30E014C0D7
:100910002EEF30E008C02BEF30E005C02FEE30E0C6
:1009200002C02FEB30E03093620C2093610C2DEF6E
:1009300030E020C02FEB30E03093620C2093610C4C
:100940002FEE30E017C02FEB30E03093620C209395
:10095000610C27EF30E00EC02FEB30E005C02FE731
:1009600030E002C02DEF30E03093620C2093610C38
:100970002BEF30E03093640C2093630C24E130E0E3
:100980003093680C2093670C9F5F9C3018F4909311
:10099000600C02C01092600C81E69CE0CF910C9438
:1009A0001E26C0916806C13059F008F474C0C230E8
:1009B00061F0C33011F56DEF70E08BE590E01BC086
:1009C00067EF70E082EC90E016C06FEE70E087EDAC
:1009D00090E011C08091410C882309F44DC0082E8D
:1009E000000C990BC0916806C130A9F078F46BEF48
:1009F00070E08BEC90E00E948227CF5FC093680686
:100A0000C43008F474C01092680671C0C23041F05E
:100A1000C330E1F0F2CF67EF70E083EE90E0EBCF10
:100A20008F3F5FEF950709F440C0843691051CF0B5
:100A30006FEE70E017C08A309105BCF16AE070E09B
:100A40000E940E3ECB016FEE70E033C08F3F2FEF60
:100A5000920719F46DEF70E02AC0843691052CF0EE
:100A60006DEF70E089E090E024C06AE070E00E94E1
:100A70000E3E6DEF70E01DC0809144068093080229
:100A800036C0C0916806C13059F028F0C23069F014
:100A9000C33091F0B2CF6BEF70E083EC90E0ABCF5E
:100AA00067EF70E088E090E0A6CF6FEE70E080E046
:100AB00090E00E947227A1CF8091050283FD05C0BE
:100AC0006DEF70E081E090E0F4CF82FD05C06DEF46
:100AD00070E082E090E0EDCF84FD05C06DEF70E046
:100AE00083E090E0E6CF81E08093080286CFCF914B
:100AF000089583E00E94582321E0892B09F020E02B
:100B0000822F0895CF93DF9300D000D0CDB7DEB70A
:100B1000FC01E25EF94F208126136083823091054B
:100B200039F08330910531F0019741F484E303C03B
:100B300083E301C08FE20E9481230EC06FE874E05E
:100B4000CE0101960E949429CE0101960E94DE2AD0
:100B5000CE0101960E940A2926960FB6F894DEBFB0
:100B60000FBECDBFDF91CF91089560E081E090E0AE
:100B70000E94820560E082E090E00E94820560E0D1
:100B800083E090E00C9482050F931F93CF93DF9343
:100B90008C01C1E0D0E0C017D10711F461E001C0C1
:100BA00060E0CE010E9482052196C430D10599F7FC
:100BB000DF91CF911F910F910895E1E8F0E09081CE
:100BC00080918706892B8083089510920802E1E8BE
:100BD000F0E08081887F80830895CF92DF92EF924A
:100BE000FF920F931F936B017C010E945C2B00917D
:100BF00026061091270620912806309129066017B5
:100C000071078207930750F40E945C2B60932606BD
:100C10007093270680932806909329060E945C2BE8
:100C2000009126061091270620912806309129066A
:100C3000AB01BC01401B510B620B730B81E0C4166E
:100C4000D506E606F70608F080E01F910F91FF90A9
:100C5000EF90DF90CF900895E2E3F6E011821282E8
:100C6000138210922D0610923E0610922C061092BE
:100C70002B06E0E5FCE0158686E990E0968B858BF7
:100C8000108A84E190E0908F878B08951F93CF9313
:100C9000DF9300D000D0CDB7DEB7182F8CE20E94D2
:100CA000582321E0892B09F420E0121721F11123A8
:100CB00081F06EE674E0CE0101960E949429CE0187
:100CC00001960E94DE2ACE0101960E940A2961E067
:100CD0000FC06EE774E0CE0101960E949429CE0108
:100CE00001960E94DE2ACE0101960E940A2960E048
:100CF0008CE20E94812326960FB6F894DEBF0FBEC9
:100D0000CDBFDF91CF911F9108958F929F92AF92A7
:100D1000BF92EF92FF921F93CF93DF9300D000D04A
:100D2000CDB7DEB780E30E94582311E0892B09F488
:100D300010E080916706181761F00E945C2B6093A9
:100D4000630670936406809365069093660610931D
:100D500067060E945C2B8090630690906406A090CA
:100D60006506B0906606DC01CB0188199909AA09CD
:100D7000BB09893E9340A105B10558F40E945C2B44
:100D8000681579058A059B0520F080910C0288235F
:100D900089F12091050230910602812F90E021FB1C
:100DA000EE24E0F8F12C8E159F0521F480910C02C1
:100DB000882301F1112311F0226001C02D7F3093AF
:100DC0000602209305028091050281FF03C068E6B8
:100DD00074E002C063E674E0CE0101960E9494299B
:100DE000CE0101960E945D11CE0101960E940A2952
:100DF00010920C02812F26960FB6F894DEBF0FBE1C
:100E0000CDBFDF91CF911F91FF90EF90BF90AF903A
:100E10009F908F9008951F93CF93DF93CDB7DEB748
:100E200068970FB6F894DEBF0FBECDBF1091410C8E
:100E3000111118C060E674E0CE0101960E94942959
:100E4000CE0101960E942311CE0101960E940A292B
:100E50008091050290910602806290930602809331
:100E600005027EC06EE574E0CE0101960E949429D1
:100E70001F3F29F5BE016F5F7F4FCE0107960E948D
:100E8000CC296BE574E0CE0107960E9418288111E9
:100E900004C0CE0107960E947D28BE01695F7F4F86
:100EA000CE010D960E94CC29CE010D960E942311F1
:100EB000CE010D960E940A29CE01079642C0612FED
:100EC000012E000C770B4AE0CE010D961A30B4F4D7
:100ED0000E943B29BE016F5F7F4FCE0107960E94A3
:100EE000CC2969E574E0CE0107960E94182881118B
:100EF0000EC0CE0107960E947D2809C00E943B29A2
:100F0000BE016F5F7F4FCE0107960E94CC29BE01C4
:100F1000635F7F4FCE0107960E94A828BC01CE01D7
:100F200043960E94CC29CE0143960E942311CE0104
:100F300043960E940A29CE0107960E940A29CE01F3
:100F40000D960E940A2980910502909106028F7DDC
:100F50009093060280930502CE0101960E940A2911
:100F600068960FB6F894DEBF0FBECDBFDF91CF916C
:100F70001F9108955F926F927F928F929F92AF928E
:100F8000BF92CF92DF92EF92FF920F931F93CF9376
:100F9000DF93CDB7DEB7A0970FB6F894DEBF0FBED4
:100FA000CDBF66246394712C552453948E010F5F3A
:100FB0001F4F96E4E92E93E0F92E22E3C22E23E0A0
:100FC000D22E82E0681629F093E0691621F082E3C0
:100FD00003C085E301C081E30E94582321E0892BEF
:100FE00009F420E0F301E25DF94F4F012083C301D2
:100FF0008E5D994F5C01FC0180818217E9F021111F
:1010000009C0F301EE5CF94F50827F926F92DF923C
:10101000CF9204C07F926F92FF92EF921F930F9333
:101020000E94C9400F900F900F900F900F900F905B
:10103000F4018081F5018083FFEF6F1A7F0A84E05D
:101040006816710409F0BDCFA0960FB6F894DEBF04
:101050000FBECDBFDF91CF911F910F91FF90EF9009
:10106000DF90CF90BF90AF909F908F907F906F90C8
:101070005F900895CF93DF93CDB7DEB768970FB633
:10108000F894DEBF0FBECDBF64E274E0CE010196DE
:101090000E9494296091430680E190E00E943A45C5
:1010A0006AE070E080E090E00E94222B60914306AD
:1010B000062E000C770B4AE0CE010D960E943B29CC
:1010C000BE016F5F7F4FCE0107960E94CC29BE0103
:1010D000635F7F4FCE0107960E94A828BC01CE0116
:1010E00043960E94CC29CE0143960E94DE2ACE016F
:1010F00043960E940A29CE0107960E940A29CE0132
:101100000D960E940A29CE0101960E940A2968962E
:101110000FB6F894DEBF0FBECDBFDF91CF9108951B
:10112000E6E3F6E082819381883E934010F01382DB
:101130001282329686E0EC33F807A1F708958F9279
:101140009F92AF92BF92CF92DF92EF92FF921F9346
:10115000CF93DF93CDB7DEB762970FB6F894DEBFBB
:101160000FBECDBF88E3A82E86E0B82E90E4E92E0E
:1011700096E0F92E11E02AE0C22ED12CC6010E9481
:101180003245982EC60101960E943245292D30E045
:10119000A901582BCA014501F501518340832091D3
:1011A000050230910602F701892BD9F4808180680D
:1011B0008083123039F0133071F02F7B30930602A8
:1011C0002093050280910502909106029E7F9093E4
:1011D00006028093050280910502909106029B7F92
:1011E0001AC080818F778083123039F0133071F00C
:1011F00020643093060220930502809105029091AD
:101200000602916090930602809305028091050288
:1012100090910602946090930602809305020E94CA
:10122000900863E474E0CE010D960E9494294AE090
:10123000612FCE0107960E946729BE01695F7F4F2B
:10124000CE0101960E94CC296CE472E0CE01019699
:101250000E948F28BC01CE010D960E947628CE01F7
:1012600001960E940A29CE0107960E940A29F2E0FF
:10127000AF0EB11CF401608171814AE0CE0101968C
:101280000E940F29BE016F5F7F4FCE010D960E9415
:101290007628CE0101960E940A29BE01635F7F4F26
:1012A000CE0101960E94CC29CE0101960E94DE2A31
:1012B000CE0101960E940A29CE010D960E940A29AC
:1012C000F2E0CF0ED11C1F5F4FEFE41AF40A143086
:1012D00009F054CF62960FB6F894DEBF0FBECDBFB3
:1012E000DF91CF911F91FF90EF90DF90CF90BF9053
:1012F000AF909F908F90089585E30E94582321E03E
:10130000892B09F420E0822F0895CF92DF92EF928B
:10131000FF92CF93DF9300D000D0CDB7DEB780919E
:10132000050284FD34C08CE20E945823892B79F594
:1013300080910B02882359F181E00E94460667E103
:1013400074E0CE0101960E949429CE0101960E947C
:10135000DE2ACE0101960E940A2964E174E0CE01E2
:1013600001960E94942961E0CE0101960E948010AE
:10137000CE0101960E940A290E945C2B60935F06B1
:1013800070936006809361069093620682C08CE23F
:101390000E945823892B09F47CC08091050284FDAA
:1013A00039C00E945C2BC0905F06D0906006E09030
:1013B0006106F0906206DC01CB018C199D09AE0933
:1013C000BF0981349C49A105B10508F462C080E0E1
:1013D0000E94460666E074E0CE0101960E949429C0
:1013E000CE0101960E94DE2ACE0101960E940A29B2
:1013F00060E074E0CE0101960E94942961E0CE0184
:1014000001960E948010CE0101960E940A29109236
:101410000B023FC00E945C2BC0905F06D09060061C
:10142000E0906106F0906206DC01CB018C199D0909
:10143000AE09BF0981349C49A105B10538F40E9469
:101440005C2B6C157D058E059F0518F580E00E94CC
:10145000460662EF73E0CE0101960E949429CE0108
:1014600001960E94DE2ACE0101960E940A296EEEA4
:1014700073E0CE0101960E94942961E0CE010196AD
:101480000E948010CE0101960E940A2981E080937B
:101490000B0226960FB6F894DEBF0FBECDBFDF91CC
:1014A000CF91FF90EF90DF90CF900895CF92DF9291
:1014B000EF92FF921F93CF93DF93C82F0E945C2B74
:1014C0006B017C0110E0D0E00E9485090E94C914E4
:1014D000CE010E94631B0E945C2B6C157D058E055E
:1014E0009F0520F40E945C2B6B017C010E945C2B09
:1014F000DC01CB018C199D09AE09BF09893C91051E
:10150000A105B10558F48FE10E945823892BE1F21F
:101510000E945C2B6B017C0111E0D6CF812FDF9103
:10152000CF911F91FF90EF90DF90CF9008950F9390
:101530001F93CF93DF9300D000D0CDB7DEB78DE1FE
:101540000E9458232091050230910602892B11F048
:10155000206101C02F7E3093060220930502209166
:10156000050280915E0690E024FB002700F910E060
:101570008017910729F480910A02882309F44AC050
:1015800024FF1DC06CED73E0CE0101960E949429EA
:10159000CE0101960E94DE2ACE0101960E940A2900
:1015A00069ED73E0CE0101960E949429CE01019667
:1015B0000E944F14CE0101960E940A2923C066ECB6
:1015C00073E0CE0101960E949429CE0101960E94FB
:1015D000DE2ACE0101960E940A2962EC73E0CE0158
:1015E00001960E949429CE0101960E944F14CE01CB
:1015F00001960E940A29809108028093440685E0A2
:1016000080930802809105028295817080935E0626
:1016100010920A0226960FB6F894DEBF0FBECDBF19
:10162000DF91CF911F910F9108950F931F9385E242
:101630000E945823892B61F40E945C2B609316064C
:1016400070931706809318069093190681E027C0BF
:101650000E945C2B00911606109117062091180627
:1016600030911906DC01CB01801B910BA20BB30B4F
:10167000853F9140A105B10588F40E945C2B009143
:10168000160610911706209118063091190660175A
:1016900071078207930710F08FEF01C080E01F9160
:1016A0000F9108950F931F93CF93DF9300D000D035
:1016B000CDB7DEB70E94150B2091050230910602CE
:1016C000811102C0286003C0813029F4277F309344
:1016D0000602209305022091050280915D0690E0AC
:1016E00023FB002700F910E08017910729F480916F
:1016F0000902882309F44BC023FF1DC06EEA73E082
:10170000CE0101960E949429CE0101960E94DE2A04
:10171000CE0101960E940A296AEA73E0CE01019681
:101720000E949429CE0101960E941514CE010196C3
:101730000E940A2923C067E973E0CE0101960E9446
:101740009429CE0101960E94DE2ACE0101960E94C4
:101750000A2964E973E0CE0101960E949429CE0122
:1017600001960E941514CE0101960E940A298091CB
:1017700008028093440685E0809308028091050268
:1017800083FB882780F980935D06109209022696D4
:101790000FB6F894DEBF0FBECDBFDF91CF911F9182
:1017A0000F91089561E085E00C948123CF92DF9240
:1017B000EF92FF920F931F93CF93DF93CDB7DEB7D6
:1017C00062970FB6F894DEBF0FBECDBF0E947905B9
:1017D000811106C061E086E00E948123F12C06C0E1
:1017E00060E086E00E948123FF24F39460E085E0BE
:1017F0000E9481230E949D1D00E010E0EE24E394EE
:101800008BE9C82E8FE0D82E0E94850983E20E94C2
:101810005823892B69F066E173E0CE0101960E949E
:10182000D529CE0101960E94DE2ACE01019657C02D
:1018300061E087E00E948123C6010197F1F760E033
:1018400087E00E948123C6010197F1F70E94790584
:10185000882311F0E11031C0FF2009F47CC00E9400
:101860007905811176C081E0809343064AE0B80192
:10187000CE0107960E940F2960E773E0CE01019622
:101880000E94D529BE01695F7F4FCE0101960E945B
:10189000A828BC01CE010D960E94CC29CE010D9640
:1018A0000E94DE2ACE010D960E940A29CE010196E1
:1018B0000E940A29CE01079612C00E94D20B6CE248
:1018C00071E080E090E00E94222B60E086E00E94C0
:1018D000812360E085E00E948123E12CC0CF0E943B
:1018E0000A290E94D20B0E943A086091430663368F
:1018F00081F46CE573E0CE0101960E94D529CE01FA
:1019000001960E94DE2ACE0101960E940A2960916A
:101910004306062E000C770B4AE0CE0101960E948A
:101920003B2961E0CE0101960E948914CE01019607
:101930000E940A2962960FB6F894DEBF0FBECDBF93
:10194000DF91CF911F910F91FF90EF90DF90CF909B
:101950000895FF24F3940F5F1F4F093883E11807A0
:1019600009F052CF83E680934306BBCF80EF90E02F
:101970009093620C8093610C81E69CE00C941E268F
:10198000CF93DF9300D000D0CDB7DEB7BC01CE013E
:1019900001960E94CC29BE016F5F7F4F80917D0828
:1019A00090917E080E94B820CE0101960E940A29DB
:1019B00026960FB6F894DEBF0FBECDBFDF91CF9154
:1019C00008950F931F93CF93DF93CDB7DEB7629740
:1019D0000FB6F894DEBF0FBECDBF8C0162E974E094
:1019E000CE010D960E94D529F80184819581892B1D
:1019F00009F457C068E773E0CE010D960E94DC2819
:101A000060918408709185084AE0CE0107960E9493
:101A10000F29BE01695F7F4FCE0101960E94CC293C
:101A20006CE472E0CE0101960E948F28BC01CE01C9
:101A30000D960E947628CE0101960E940A29CE01B9
:101A400007960E940A29B801CE010D960E947628B9
:101A5000BE01635F7F4FCE0101960E94CC29CE016B
:101A600001960E94C00CCE0101960E940A29209185
:101A700084083091850846E0429FC001439F900D45
:101A80001124B8018C56974F0E94F3288091840846
:101A90009091850801968F77992790938508809378
:101AA0008408CE010D960E940A2962960FB6F8941A
:101AB000DEBF0FBECDBFDF91CF911F910F91089573
:101AC000CF93DF93CDB7DEB72C970FB6F894DEBF78
:101AD0000FBECDBF64EE74E0CE0107960E9494293C
:101AE00062EE74E0CE0107960E9418286091840887
:101AF000709185084AE0CE0101960E940F29BE012F
:101B00006F5F7F4FCE0107960E947628CE01019627
:101B10000E940A296CED74E0CE0107960E941828F5
:101B2000BE01695F7F4FCE0101960E94CC29CE0194
:101B300001960E94E10CCE0101960E940A29CE0175
:101B400007960E940A2980E02C960FB6F894DEBF13
:101B50000FBECDBFDF91CF910895CF92DF92EF926C
:101B6000FF920F931F93CF93DF93CDB7DEB72C97E0
:101B70000FB6F894DEBF0FBECDBF6C017B018A01AA
:101B80006BED74E0CE0107960E94942969ED74E034
:101B9000CE0107960E9418286091840870918508EC
:101BA0004AE0CE0101960E940F29BE016F5F7F4F70
:101BB000CE0107960E947628CE0101960E940A293E
:101BC00061ED74E0CE0107960E941828B601CE019F
:101BD00007960E9476286FEC74E0CE0107960E946B
:101BE0001828B701CE0107960E9476286DEC74E0A4
:101BF000CE0107960E941828B801CE0107960E94D0
:101C00007628BE01695F7F4FCE0101960E94CC29E4
:101C1000CE0101960E94E10CCE0101960E940A2994
:101C2000CE0107960E940A2980E02C960FB6F89400
:101C3000DEBF0FBECDBFDF91CF911F910F91FF90FF
:101C4000EF90DF90CF900895FF920F931F93CF9363
:101C5000DF93CDB7DEB762970FB6F894DEBF0FBE45
:101C6000CDBF8C01F62EBC01CE0101960E94CC297D
:101C700060ED7BE0CE0107960E94CC296AEC7BE008
:101C8000CE010D960E94CC29AE014F5F5F4FBE0181
:101C9000695F7F4FCE010D960E94AD0DCE010D966E
:101CA0000E940A29CE0107960E940A29CE010196B8
:101CB0000E940A29F80184819581892B09F411C2B7
:101CC00063E873E0808191810E949F40892B09F035
:101CD00008C26BEC74E0CE0101960E94942966ED77
:101CE0007BE0CE0107960E94CC296AEC7BE0CE0116
:101CF0000D960E94CC29AE014F5F5F4FBE01695F18
:101D00007F4FCE010D960E94AD0DCE010D960E9423
:101D10000A29CE0107960E940A29CE0101960E9447
:101D20000A2969EC74E0CE0101960E9494296CEDB9
:101D30007BE0CE0107960E94CC296AEC7BE0CE01C5
:101D40000D960E94CC29AE014F5F5F4FBE01695FC7
:101D50007F4FCE010D960E94AD0DCE010D960E94D3
:101D60000A29CE0107960E940A29CE0101960E94F7
:101D70000A2967EC74E0CE0101960E94942962EE74
:101D80007BE0CE0107960E94CC296AEC7BE0CE0175
:101D90000D960E94CC29AE014F5F5F4FBE01695F77
:101DA0007F4FCE010D960E94AD0DCE010D960E9483
:101DB0000A29CE0107960E940A29CE0101960E94A7
:101DC0000A2965EC74E0CE0101960E94942968EE20
:101DD0007BE0CE0107960E94CC296AEC7BE0CE0125
:101DE0000D960E94CC29AE014F5F5F4FBE01695F27
:101DF0007F4FCE010D960E94AD0DCE010D960E9433
:101E00000A29CE0107960E940A29CE0101960E9456
:101E10000A2963EC74E0CE0101960E9494296EEECB
:101E20007BE0CE0107960E94CC296AEC7BE0CE01D4
:101E30000D960E94CC29AE014F5F5F4FBE01695FD6
:101E40007F4FCE010D960E94AD0DCE010D960E94E2
:101E50000A29CE0107960E940A29CE0101960E9406
:101E60000A2961EC74E0CE0101960E94942964EF86
:101E70007BE0CE0107960E94CC296AEC7BE0CE0184
:101E80000D960E94CC29AE014F5F5F4FBE01695F86
:101E90007F4FCE010D960E94AD0DCE010D960E9492
:101EA0000A29CE0107960E940A29CE0101960E94B6
:101EB0000A296FEB74E0CE0101960E9494296AEF23
:101EC0007BE0CE0107960E94CC296AEC7BE0CE0134
:101ED0000D960E94CC29AE014F5F5F4FBE01695F36
:101EE0007F4FCE010D960E94AD0DCE010D960E9442
:101EF0000A29CE0107960E940A29CE0101960E9466
:101F00000A296DEB74E0CE0101960E94942960E0ED
:101F10007CE0CE0107960E94CC296AEC7BE0CE01E2
:101F20000D960E94CC29AE014F5F5F4FBE01695FE5
:101F30007F4FCE010D960E94AD0DCE010D960E94F1
:101F40000A29CE0107960E940A29CE0101960E9415
:101F50000A296BEB74E0CE0101960E94942966E099
:101F60007CE0CE0107960E94CC296AEC7BE0CE0192
:101F70000D960E94CC29AE014F5F5F4FBE01695F95
:101F80007F4FCE010D960E94AD0DCE010D960E94A1
:101F90000A29CE0107960E940A29CE0101960E94C5
:101FA0000A2969EB74E0CE0101960E9494296CE045
:101FB0007CE0CE0107960E94CC296AEC7BE0CE0142
:101FC0000D960E94CC29AE014F5F5F4FBE01695F45
:101FD0007F4FCE010D960E94AD0DCE010D960E9451
:101FE0000A29CE0107960E940A29CE0101960E9475
:101FF0000A2967EB74E0CE0101960E94942962E100
:102000007CE0CE0107960E94CC296AEC7BE0CE01F1
:102010000D960E94CC29AE014F5F5F4FBE01695FF4
:102020007F4FCE010D960E94AD0DCE010D960E9400
:102030000A29CE0107960E940A29CE0101960E9424
:102040000A2965EB74E0CE0101960E94942968E1AB
:102050007CE0CE0107960E94CC296AEC7BE0CE01A1
:102060000D960E94CC29AE014F5F5F4FBE01695FA4
:102070007F4FCE010D960E94AD0DCE010D960E94B0
:102080000A29CE0107960E940A29CE0101960E94D4
:102090000A2963EB74E0CE0101960E9494296EE157
:1020A0007CE0CE0107960E94CC296AEC7BE0CE0151
:1020B0000D960E94CC29AE014F5F5F4FBE01695F54
:1020C0007F4FCE010D960E94AD0DCE010D960E9460
:1020D0000A29CE0107960E940A29CE0101960E9484
:1020E0000A29F1100E94600D62960FB6F894DEBFC7
:1020F0000FBECDBFDF91CF911F910F91FF9008953B
:102100001F93CF93DF93CDB7DEB762970FB6F894E6
:10211000DEBF0FBECDBF162FBC01CE0101960E94BF
:10212000CC296EEE7BE0CE0107960E94CC296AECAA
:102130007BE0CE010D960E94CC29AE014F5F5F4F30
:10214000BE01695F7F4FCE010D960E94AD0DCE019D
:102150000D960E940A29CE0107960E940A29CE01F7
:1021600001960E940A2911110E94600D62960FB615
:10217000F894DEBF0FBECDBFDF91CF911F910895C0
:102180000F931F93CF93DF93CDB7DEB769970FB649
:10219000F894DEBF0FBECDBF282F8B016AEC7BE029
:1021A000CE014396298F0E94CC29298D223061F0DF
:1021B000233091F02130C1F5B801CE0101960E9483
:1021C000CC2960E07CE00FC0B801CE0101960E94EE
:1021D000CC296CE07CE007C0B801CE0101960E94DA
:1021E000CC2968E17CE0CE0107960E94CC29BE0193
:1021F0006D5E7F4FCE010D960E94CC29AE014F5FE0
:102200005F4FBE01695F7F4FCE010D960E94AD0DFD
:10221000CE010D960E940A29CE0107960E940A2936
:10222000CE0101960E940A29CE0143960E940A29F6
:1022300069960FB6F894DEBF0FBECDBFDF91CF9188
:102240001F910F910895CF93DF93CDB7DEB76297BB
:102250000FB6F894DEBF0FBECDBFBC01CE01019614
:102260000E94CC2964EF7BE0CE0107960E94CC2926
:102270006AEC7BE0CE010D960E94CC29AE014F5F47
:102280005F4FBE01695F7F4FCE010D960E94AD0D7D
:10229000CE010D960E940A29CE0107960E940A29B6
:1022A000CE0101960E940A2962960FB6F894DEBF0D
:1022B0000FBECDBFDF91CF910895CF93DF93CDB700
:1022C000DEB762970FB6F894DEBF0FBECDBFBC017C
:1022D000CE0101960E94CC2966ED7BE0CE010796E7
:1022E0000E94CC296AEC7BE0CE010D960E94CC299D
:1022F000AE014F5F5F4FBE01695F7F4FCE010D960C
:102300000E94AD0DCE010D960E940A29CE010796BE
:102310000E940A29CE0101960E940A2962960FB6F0
:10232000F894DEBF0FBECDBFDF91CF910895CF935C
:10233000DF9300D000D0CDB7DEB790E0FC01389736
:10234000E830F105D0F58827EA57FF4F8F4F0C94FE
:10235000443E6CE873E0CE0101960E94D529CE017F
:1023600001960E940A2981E090E029C06FE973E09C
:10237000CE0101960E94D529CE0101960E940A291C
:1023800082E090E01CC062EB73E0CE0101960E94F7
:10239000D529CE0101960E940A2985E090E00FC060
:1023A00065EC73E0CE0101960E94D529CE0101961D
:1023B0000E940A298AE090E002C080E090E0269620
:1023C0000FB6F894DEBF0FBECDBFDF91CF91089559
:1023D000EF92FF920F931F93CF93DF93CDB7DEB7AA
:1023E00062970FB6F894DEBF0FBECDBF82E090E0DB
:1023F00090938E0C80938D0C10928F0C81E090E066
:102400009093910C8093900C9093930C8093920CEA
:102410008CEF80939C0C0E94372585E00E94F52468
:10242000882309F429C10E947924882309F424C14E
:102430008091410C8F3F51F469ED73E0CE0101961C
:102440000E94D529CE0101960E940A2968EC70E00D
:1024500080E090E00E94222B82E090E090938E0C2E
:1024600080938D0C10928F0C81E090E09093910CF2
:102470008093900C88EE90E09093930C8093920C54
:1024800085E180939C0C0E94372585E00E94F5240D
:10249000882399F10E944024E12CF12C870180913E
:1024A000830C9091840CDC01ED91FC910480F5810A
:1024B000E02D1995892BD9F006301105A1F08091F6
:1024C000830C9091840CDC01ED91FC910680F781E6
:1024D000E02D1995F801EF57F34F81A30F5F1F4FC0
:1024E0000E944024DCCF86E0E82EF12C01C0780168
:1024F0000E944B24882309F4C8C068EC70E080E097
:1025000090E00E94222B6091CE0C6093410C6111EF
:1025100039C063EF73E0CE0101960E94D529CE0148
:1025200001960E940A2982E090E090938E0C80939D
:102530008D0C80938F0C81E090E09093910C8093B0
:10254000900C87EE90E09093930C8093920C80E82F
:102550008093940C8FEF8093950C85E980939C0C6D
:102560000E94372587E00E94F52481110E9479247A
:1025700080914A0C882319F00E94942559C00E942A
:10258000DD2556C08091420C1616C4F56A3074F4ED
:10259000681709F44DC0062E000C770B4AE0CE01F7
:1025A00007960E943B2962E074E00DC0681709F4A9
:1025B0003FC0062E000C770B4AE0CE0107960E9422
:1025C0003B2968E174E0CE010D960E94D529BE0139
:1025D000695F7F4FCE010D960E94A828BC01CE01F5
:1025E00001960E94CC29CE0101960E940A29CE01B3
:1025F0000D960E940A29CE01079614C06817C1F0F3
:102600006DE274E0CE0101960E94D529CE010196BB
:102610000E940A296AE474E0CE0101960E94D5293D
:10262000CE0101960E940A298091410C8093420CB0
:102630008091410C81111EC08091420C882371F061
:1026400061E674E0CE0101960E94D529CE01019683
:102650000E940A298091410C8093420C0E945C2BBD
:102660006093360C7093370C8093380C9093390C30
:1026700081E045C080E043C08FEF8093410C8091A2
:10268000420C8F3F09F0BCCFD3CF0630110509F0C3
:1026900005CFB6E0EB16F10409F02FCF20E080E083
:1026A00090E0FC01EF57F34F31A1230F01968630E4
:1026B0009105B9F780919F0C883221F080919F0C91
:1026C000823029F4211103C08091A60C15C06AE75D
:1026D00074E0CE0101960E94D529CE0101960E9498
:1026E0000A2963E974E0CE0101960E94D529CE0142
:1026F00001960E940A298FEF8093CE0CFECE62963F
:102700000FB6F894DEBF0FBECDBFDF91CF911F9102
:102710000F91FF90EF900895CF93DF93CDB7DEB781
:1027200062970FB6F894DEBF0FBECDBFBC01CE01DD
:1027300001960E94CC296CED7BE0CE0107960E94A9
:10274000CC296AEC7BE0CE010D960E94CC29AE012B
:102750004F5F5F4FBE01695F7F4FCE010D960E94B4
:10276000AD0DCE010D960E940A29CE0107960E945A
:102770000A29CE0101960E940A2962960FB6F894A2
:10278000DEBF0FBECDBFDF91CF910895CF93DF9312
:10279000CDB7DEB762970FB6F894DEBF0FBECDBFE0
:1027A00020918208223079F067EA74E0CE01019628
:1027B0000E94D529CE0101960E94C00CCE0101963F
:1027C0000E940A2929C0BC01CE0101960E94CC2991
:1027D0006AE27CE0CE0107960E94CC2964E27CE0AC
:1027E000CE010D960E94CC29AE014F5F5F4FBE0116
:1027F000695F7F4FCE010D960E94AD0DCE010D9603
:102800000E940A29CE0107960E940A29CE0101964C
:102810000E940A290E94600D62960FB6F894DEBFEE
:102820000FBECDBFDF91CF910895CF93DF93CDB78A
:10283000DEB762970FB6F894DEBF0FBECDBFBC0106
:10284000CE0101960E94CC2962EE7BE0CE01079674
:102850000E94CC296AEC7BE0CE010D960E94CC2927
:10286000AE014F5F5F4FBE01695F7F4FCE010D9696
:102870000E94AD0DCE010D960E940A29CE01079649
:102880000E940A29CE0101960E940A2962960FB67B
:10289000F894DEBF0FBECDBFDF91CF910895CF93E7
:1028A000DF93CDB7DEB762970FB6F894DEBF0FBEE9
:1028B000CDBFBC01CE0101960E94CC2968EE7BE021
:1028C000CE0107960E94CC296AEC7BE0CE010D96E2
:1028D0000E94CC29AE014F5F5F4FBE01695F7F4F01
:1028E000CE010D960E94AD0DCE010D960E940A29D3
:1028F000CE0107960E940A29CE0101960E940A295C
:1029000062960FB6F894DEBF0FBECDBFDF91CF91B8
:1029100008951F93CF93DF93CDB7DEB762970FB6BD
:10292000F894DEBF0FBECDBF162FBC01CE010196BD
:102930000E94CC296EE17CE0CE0107960E94CC2952
:102940006AEC7BE0CE010D960E94CC29AE014F5F70
:102950005F4FBE01695F7F4FCE010D960E94AD0DA6
:10296000CE010D960E940A29CE0107960E940A29DF
:10297000CE0101960E940A2911110E94600D6296F3
:102980000FB6F894DEBF0FBECDBFDF91CF911F9180
:102990000895CF92DF92EF92FF920F931F93CF9300
:1029A000DF93CDB7DEB762970FB6F894DEBF0FBEE8
:1029B000CDBF9091810880918208992309F459C074
:1029C0008F3FB1F40E942C1E882309F4A4C16BE44C
:1029D00075E0CE0101960E949429CE0101960E94D5
:1029E000C00CCE0101960E940A291092810893C161
:1029F0000E942C1E882309F48EC11092810868E37E
:102A000075E0CE0101960E949429CE0101960E94A4
:102A1000C00CCE0101960E940A29809183088F5F25
:102A2000809383088B3008F45EC068E275E0CE01C5
:102A300001960E949429CE0101960E94C00CCE01FD
:102A400001960E940A2940E052EC61E070E080911A
:102A50007F08909180080E94C51D80917F08909109
:102A60008008DC01ED91FC910284F385E02D19953D
:102A70003AC08430E1F56FEA74E0CE0101960E941D
:102A8000D529CE0101960E94C00CCE0101960E946C
:102A90000A2960EF73E080917F08909180080E947E
:102AA000EA2980917F0890918008DC01ED91FC91EA
:102AB0000284F385E02D199564E670E080E090E0F3
:102AC0000E94222B61E088E00E9481230E945C2BFF
:102AD000609388087093890880938A0890938B0884
:102AE00081E0809381088FEF8093820814C18F3F2B
:102AF000A9F56EEB74E08AE99BE00E94DC286CE0AB
:102B000075E0CE0101960E949429CE0101960E94A3
:102B1000C00CCE0101960E940A2940E052EC61E00F
:102B200070E080917F08909180080E94C51D6EEB37
:102B300074E080917F08909180080E94EA2980913A
:102B40007F0890918008DC01ED91FC910284F3856F
:102B5000E02D199581E080938108A2C4823039F17B
:102B60000E945C2B0091900810919108209192088E
:102B700030919308DC01CB01801B910BA20BB30BAE
:102B800089389341A105B10508F056C40E945C2B19
:102B9000009190081091910820919208309193082B
:102BA000601771078207930708F446C4B4C0809188
:102BB0008408909185082091860830918708821BAF
:102BC000930B8F779927892B09F47FC08091860812
:102BD0009091870816E0189FF001199FF00D1124BD
:102BE000EC56F74F84819581892B09F45AC0809166
:102BF000860890918708189FB001199F700D1124C5
:102C00006C56774F80917F08909180080E94FE2932
:102C100080917F0890918008DC01ED91FC91028405
:102C2000F385E02D1995E0908608F090870867EC11
:102C300074E0CE0101960E94D5291E9DB0011F9D12
:102C4000700D11246C56774FCE0101960E94A82872
:102C5000BC01CE0107960E94CC29CE0107960E94A6
:102C6000C00CCE0107960E940A29CE0101960E944F
:102C70000A2981E0809381080E945C2B6093880878
:102C80007093890880938A0890938B080E945C2B2C
:102C900060938C0870938D0880938E0890938F08B2
:102CA0000EC065EE74E0CE0101960E949429CE011B
:102CB00001960E94C00CCE0101960E940A296FEC79
:102CC00074E08AE99BE00E94DC280E945C2B009162
:102CD0008C0810918D0820918E0830918F08DC01AE
:102CE000CB01801B910BA20BB30B89389341A1053B
:102CF000B10508F0E0C30E945C2B00918C08109194
:102D00008D0820918E0830918F0860177107820717
:102D1000930708F4D0C380917F0890918008DC016C
:102D2000ED91FC910480F581E02D1995892B09F432
:102D300078C180917F0890918008DC01ED91FC9131
:102D40000680F781E02D1995182F89831A8241E0BA
:102D500050E0BE016F5F7F4F84E99BE00E944828EE
:102D6000109283081D3009F05CC164ED74E0CE015F
:102D700007960E94D52964E97BE0CE0107960E9460
:102D8000A828BC01CE0101960E94CC29CE01019653
:102D90000E94C00CCE0101960E940A29CE0107961E
:102DA0000E940A2980919E0B90919F0B892B79F1AB
:102DB0006FEC74E080919A0B90919B0B0E949F4066
:102DC000892B29F58091940B9091950B009719F020
:102DD0000E94A04303C060E070E0CB012091860810
:102DE00030918708890120E030E060177107820781
:102DF000930709F010C18091860890918708019689
:102E00008F779927909387088093860802C160EF97
:102E100073E0CE0101960E94D529CE0101960E9451
:102E2000A91D8C01CE0101960E940A290F3F1F4F58
:102E300079F16AEC75E0CE0101960E949429CE01E9
:102E400001960E94C00CCE0101960E940A2969ECED
:102E500075E0CE0101960E949429CE0101960E9450
:102E6000C00CCE0101960E940A2980919E0B909180
:102E70009F0B892B09F4CDC06EEB74E080919A0B07
:102E800090919B0B0E949F40892B09F48FC0C1C079
:102E90006EE275E0CE0101960E94D529CE01019621
:102EA0000E94A91D8C01CE0101960E940A290F3FA4
:102EB0001F4FF1F060EB75E0CE0101960E9494295E
:102EC000CE0101960E94C00CCE0101960E940A29F3
:102ED0006FEA75E0CE0101960E949429CE01019619
:102EE0000E94C00CCE0101960E940A2982E08FC088
:102EF0006DED74E0CE0101960E94D529CE010196B8
:102F00000E94A91D8C01CE0101960E940A290F3F43
:102F10001F4FF1F067E975E0CE0101960E949429F8
:102F2000CE0101960E94C00CCE0101960E940A2992
:102F300066E975E0CE0101960E949429CE010196C2
:102F40000E94C00CCE0101960E940A2983E05FC056
:102F50006BEA72E0CE0101960E94D529CE0101965E
:102F60000E94A91D8C01CE0101960E940A290F3FE3
:102F70001F4FF1F06DE775E0CE0101960E94942994
:102F8000CE0101960E94C00CCE0101960E940A2932
:102F90006CE775E0CE0101960E949429CE0101965E
:102FA0000E94C00CCE0101960E940A2981E02FC028
:102FB00062EE74E0CE0101960E94D529CE01019601
:102FC0000E94A91D8C01CE0101960E940A290F3F83
:102FD0001F4F09F163E675E0CE0101960E94942926
:102FE000CE0101960E94C00CCE0101960E940A29D2
:102FF00062E675E0CE0101960E949429CE01019609
:103000000E94C00CCE0101960E940A2984E08093A0
:1030100082081092810862E974E084E99BE00E94D2
:10302000DC280E94850620910502309106028091DD
:103030006E0690916F068217930709F461C0809124
:10304000040221FD06C0882309F450C068E176E03F
:103050001BC025FD06C0882309F448C06EE076E059
:1030600013C0A90140745570452B29F48823F1F150
:1030700064E076E009C0A90140785A70452BA1F4BC
:103080008823A1F16AEF75E0CE0101960E94942990
:1030900060E0CE0101960E94240ECE0101960E94AE
:1030A0000A291092040222C022FD05C08823F1F0F3
:1030B00060EF75E0E9CF23FD05C08823B9F066EE27
:1030C00075E0E2CF813091F060EE75E0CE010196BF
:1030D0000E94942960E0CE0101960E94240ECE0148
:1030E00001960E940A2981E0809304020E94600DEB
:1030F000809105029091060290936F0680936E0670
:1031000087E20E945823892B59F40E945C2B60931C
:103110001A0670931B0680931C0690931D0617C019
:103120000E945C2B00911A0610911B0620911C0630
:1031300030911D06DC01CB01801B910BA20BB30B60
:10314000813D9740A105B10510F40E945C2B0E94BF
:10315000150B80912A06882329F10E945C2B60932D
:103160007106709372068093730690937406809133
:103170007006811115C062E276E0CE0101960E94D0
:103180009429CE0101960E94DE2ACE0101960E946A
:103190000A2961E08EE20E94812381E0809370061B
:1031A00010922A06809170068823D9F10E945C2B28
:1031B000C0907106D0907206E0907306F09074068D
:1031C000DC01CB018C199D09AE09BF0989389341F7
:1031D000A105B105A8F068E072E0CE0101960E9459
:1031E0009429CE0101960E94DE2ACE0101960E940A
:1031F0000A2960E08EE20E9481231092700611C0BD
:103200000E945C2B6C157D058E059F0550F40E9475
:103210005C2B609371067093720680937306909393
:10322000740680918406882321F00E94BA071092C8
:10323000840680918306882309F47BC08091410C29
:10324000811175C080914A0C882309F470C0809167
:10325000470C8F5F8093470C823008F468C082E08F
:1032600090E090938E0C80938D0C10928F0C81E0E7
:1032700090E09093910C8093900C85EE90E0909369
:10328000930C8093920C88E180939C0C0E943725CC
:1032900081E08093C80C85E00E94F524F82E8823F5
:1032A00009F47DC162E974E0CE0107960E94D52938
:1032B0000E944024E12CD12C0E2D1D2D8091830CD9
:1032C0009091840CDC01ED91FC910480F581E02D5E
:1032D0001995892B09F420C10031110509F039C174
:1032E00090E1E92ED12C1AC18091AD0C8111AEC1B3
:1032F0008091AC0C2813B6C18091AE0C8E3009F0D1
:10330000AFC18091CB0C8F5F8093CB0C853108F4DB
:10331000A9C11092CB0C0FEF8091490C882309F4BE
:10332000A8C10E9494251092490C1092470C10924B
:10333000830680918206882399F08CE00E945823AE
:1033400061E0892B09F060E08CE00E9481238CE031
:103350000E945823682F8DE00E94812310928206DC
:10336000809181068111109281060E945C2B6093EE
:103370007D0670937E0680937F0690938006C090B2
:103380007906D0907A06E0907B06F0907C068B015F
:103390009C010C191D092E093F0902301105210558
:1033A0003105D8F1209178062C19260F2093780644
:1033B0006093790670937A0680937B0690937C06DF
:1033C0002A3008F471C110927806909177069F5FB9
:1033D0009093770681E0809384069A3008F464C164
:1033E00010927706909176069F5F90937606809371
:1033F0008306953008F458C11092760690917506B0
:103400009F5F9093750680938206923008F44CC1BA
:10341000109275068093810647C16C157D058E0557
:103420009F0508F041C16093790670937A068093F6
:103430007B0690937C0638C16BE275E08AE99BE0DD
:103440000E94DC2865EF74E0CE0101960E94942969
:10345000CE0101960E94C00CCE0101960E940A295D
:103460006BE275E080917F08909180080E94EA29C4
:1034700080917F0890918008DC01ED91FC9102849D
:10348000F385E02D199581E0809381080E945C2BE3
:10349000609390087093910880939208909393089A
:1034A0000E945C2B609388087093890880938A0837
:1034B00090938B0830CC6BE275E08AE99BE00E9428
:1034C000DC286BE275E080917F08909180080E9473
:1034D000EA2980917F0890918008DC01ED91FC91B0
:1034E0000284F385E02D199581E0809381080E9484
:1034F0005C2B609388087093890880938A08909366
:103500008B080E945C2B60938C0870938D088093CD
:103510008E0890938F08FFCBE02ED12E0E944B2473
:10352000882361F068EE74E0CE0101960E94D529EF
:10353000CE0101960E940A29F12C04C00031110528
:1035400009F0BACECE0107960E940A29FF2039F170
:103550005BC08091830C9091840CDC01ED91FC9117
:103560000680F781E02D1995E82E4AE0682FCE01FC
:1035700001960E946729BE016F5F7F4FCE010796BB
:103580000E947628CE0101960E940A29F801EF5781
:10359000F34FE7A20F5F1F4F0E9440248FCE609130
:1035A000490C6F5F6093490C4AE0CE0107960E9478
:1035B000672964E375E0CE010D960E94D529BE010E
:1035C000695F7F4FCE010D960E94A828BC01CE01F5
:1035D00001960E94CC29CE0101960E940A29CE01B3
:1035E0000D960E940A29CE0107960E940A29809111
:1035F000490C8B3008F499CE0E94DD2581E0809340
:103600004A0C0E94E8118FCE8091AC0C2091C90C1D
:1036100090E0821B910902970CF466CEF090AC0CFE
:10362000F21AEF2DEE0F00E010E08EEFE82EEE0E16
:10363000FF20D1F0ED5FF0E0EF57F34F87A10E943C
:103640009711080F191FFA94EE2DEFCF8091AC0C53
:10365000281741F08091AD0C0E9497118C0104C095
:103660001092CB0C00E010E08091AC0C8093C90C60
:1036700053CE0F3F69F080913C0C90913D0C800F30
:10368000911D07FD9A9590933D0C80933C0C4BCE79
:1036900081E08093490C4AE061E0CE0107960E94E8
:1036A00067296BE075E087CF62960FB6F894DEBFAE
:1036B0000FBECDBFDF91CF911F910F91FF90EF9083
:1036C000DF90CF9008950F931F93CF93DF93EC017A
:1036D0000E945C2B00916A0610916B0620916C068B
:1036E00030916D06DC01CB01801B910BA20BB30B5B
:1036F0008D329140A105B105C8F080916906811114
:1037000007C0CE010E94C40581E08093690604C011
:103710000E94B505109269060E945C2B60936A06B0
:1037200070936B0680936C0690936D060E945C2BE1
:1037300000916A0610916B0620916C0630916D061F
:10374000601771078207930750F40E945C2B609307
:103750006A0670936B0680936C0690936D06DF91FA
:10376000CF911F910F9108954F925F926F927F9228
:103770008F929F92AF92BF92CF92DF92EF92FF9281
:103780000F931F93CF93DF934B015C018091A206AF
:103790009091A306A091A406B091A506881699065B
:1037A000AA06BB0609F4C2C08CE3C82ED12CE12CBA
:1037B000F12CC501B401A70196010E94223E60933D
:1037C0009B06CA01B901A70196010E94223E60939F
:1037D0009C06CA01B90128E130E040E050E00E94B7
:1037E000223E69017A0160939D06CA01B9016C5FAE
:1037F0007F4F8F4F9F4F27E030E040E050E00E9426
:10380000223E6F5F60939E06412C512C320140E0B6
:1038100004E610E0C0E9D1E0242F30E02E54384F08
:10382000F901E370FF27309789F4C901B8010E94BC
:103830000E3E892B31F4C901BE010E940E3E892B38
:1038400029F48EE691E0A0E0B0E004C08DE691E0BE
:10385000A0E0B0E0480E591E6A1E7B1ED301C201D3
:10386000AA27BB27C816D906EA06FB0610F04F5F49
:10387000D3CF4093A106309799F4C90164E670E074
:103880000E940E3E892B39F4C90160E971E00E9463
:103890000E3E892B29F48EE691E0A0E0B0E004C052
:1038A0008DE691E0A0E0B0E0481A590A6A0A7B0A66
:1038B000C418D508E608F708C90164E670E00E945C
:1038C0000E3EEC01C90160E971E00E940E3EA3E1E9
:1038D000B2E020E0213039F4309749F4209729F400
:1038E000009729F402C04C9103C04DE101C04CE1A6
:1038F00050E060E070E0C416D506E606F70640F03A
:10390000C41AD50AE60AF70A2F5F11962C3011F770
:103910002F5F2093A006C394C0929F068092A206B8
:103920009092A306A092A406B092A506DF91CF9133
:103930001F910F91FF90EF90DF90CF90BF90AF90CD
:103940009F908F907F906F905F904F900895FC01B3
:10395000918D828D981761F0828DDF01A80FB11DC6
:103960005D968C91928D9F5F9F73928F90E00895EA
:103970008FEF9FEF0895FC01918D828D981731F0A4
:10398000828DE80FF11D858D90E008958FEF9FEFF8
:103990000895FC01918D228D892F90E0805C9F4FCE
:1039A000821B91098F739927089586EA96E00E94F9
:1039B000C91C21E0892B09F420E0822F089580E0C2
:1039C00090E0892B21F00E940E2881111DC080E01B
:1039D00090E0892B41F080E090E0892B21F00E945B
:1039E0000000811114C080E090E0892B21F00E943A
:1039F000D51C81110FC080E090E0892B81F00E94DE
:103A0000042881110AC008950E940000E0CF0E949E
:103A10000000E9CF0E940000EECF0C940000089552
:103A200090E0FC013197E231F10508F04EC08827A3
:103A3000E257FF4F8F4F0C94443E809180008F7768
:103A400003C0809180008F7D8093800008958091D5
:103A50008000877FF9CF84B58F7702C084B58F7DD2
:103A600084BD08958091B0008F7703C08091B0002D
:103A70008F7D8093B0000895809190008F7707C06C
:103A8000809190008F7D03C080919000877F80930C
:103A9000900008958091A0008F7707C08091A000CA
:103AA0008F7D03C08091A000877F8093A000089540
:103AB000809120018F7707C0809120018F7D03C006
:103AC00080912001877F809320010895EF92FF92DB
:103AD0000F931F93CF93DF9300D000D0CDB7DEB705
:103AE0008C017A0168E577E00E9494298AE0E81663
:103AF000F1042CF466E577E0C8010E9418284AE03A
:103B0000B701CE0101960E943B29BE016F5F7F4F36
:103B1000C8010E947628CE0101960E940A29C80198
:103B200026960FB6F894DEBF0FBECDBFDF91CF91C2
:103B30001F910F91FF90EF900895E0E5FCE08FEF6B
:103B400090E0928B818B948B838B81E69CE00C942C
:103B50001E26CF93DF932091980B3091990B232B46
:103B600079F0FC01C091940BD091950B608171812B
:103B7000CE010E94AF40009719F08C1B9D0B02C034
:103B80008FEF9FEFDF91CF910895CF92DF92EF9269
:103B9000FF920F931F93CF93DF93EC016A017B0198
:103BA000E889F98982E080834115514E61057105EC
:103BB000B1F060E079E08DE390E0A70196010E940A
:103BC000223E89019A0101501109210931093695D6
:103BD000279517950795980101151041A8F0E889D8
:103BE000F989108260E874E88EE190E0A7019601FF
:103BF0000E94223EDA01C9010197A109B109B695D7
:103C0000A795979587959C01EC85FD853083EE857A
:103C1000FF852083188EEC89FD8986E08083EA8900
:103C2000FB89808180618083EA89FB89808188604B
:103C30008083EA89FB89808180688083EA89FB89A7
:103C400080818F7D8083DF91CF911F910F91FF90B5
:103C5000EF90DF90CF9008950F931F930E945C2BFD
:103C6000009188081091890820918A0830918B086A
:103C7000601771078207930750F40E945C2B6093D2
:103C800088087093890880938A0890938B080E9413
:103C90005C2B009188081091890820918A08309146
:103CA0008B08DC01CB01801B910BA20BB30B21E035
:103CB00088389341A105B10508F420E0822F1F91B7
:103CC0000F910895CF93DF93CDB7DEB762970FB60C
:103CD000F894DEBF0FBECDBFBC01CE0101960E949D
:103CE000CC2964EC7BE0CE0107960E94CC296EEBD8
:103CF0007BE0CE010D960E94CC29AE014F5F5F4F55
:103D0000BE01695F7F4FCE010D960E94AD0DCE01C1
:103D10000D960E940A29CE0107960E940A29CE011B
:103D200001960E940A290E94600D62960FB6F894CF
:103D3000DEBF0FBECDBFDF91CF9108950F931F93CC
:103D4000CF93DF93CDB7DEB769970FB6F894DEBF98
:103D50000FBECDBF282F8B016AEC7BE0CE014396CE
:103D6000298F0E94CC29298D223069F02330A1F0BF
:103D70002130D9F54AE0B801CE0101960E940F2901
:103D80006AEF7BE011C04AE0B801CE0101960E94C3
:103D90000F2966E07CE008C04AE0B801CE01019638
:103DA0000E940F2962E17CE0CE0107960E94CC2997
:103DB000BE016D5E7F4FCE010D960E94CC29AE01F3
:103DC0004F5F5F4FBE01695F7F4FCE010D960E942E
:103DD000AD0DCE010D960E940A29CE0107960E94D4
:103DE0000A29CE0101960E940A29CE0143960E941B
:103DF0000A2969960FB6F894DEBF0FBECDBFDF91DA
:103E0000CF911F910F91089520915E0C2F5F243068
:103E100018F420935E0C02C010925E0C20915E0C90
:103E20002130F9F070F02230D1F1233009F051C087
:103E300080E590E09093620C8093610C8BEF90E0B2
:103E400044C06AE070E00E94FA3DFC01E05BF34F81
:103E5000838190E09093620C8093610C8DEF90E0F1
:103E600034C08A309105A0F064E670E00E94FA3D0B
:103E70006AE070E00E94FA3DFB01E05BF34F838152
:103E800090E09093620C8093610C8FEE90E01DC0E7
:103E90008FEF90E09093620C8093610C16C0843693
:103EA0009105B0F368EE73E00E94FA3D64E670E0BD
:103EB0000E94FA3DFB01E05BF34F838190E0909319
:103EC000620C8093610C87EF90E09093640C809378
:103ED000630C81E69CE00C941E260F931F930E94B6
:103EE0005C2B0091360C1091370C2091380C3091DE
:103EF000390C601771078207930750F40E945C2BFE
:103F00006093360C7093370C8093380C9093390C77
:103F10000E945C2B0091360C1091370C2091380CCC
:103F20003091390CDC01CB01801B910BA20BB30B40
:103F300021E0843F9140A105B10508F420E0822FE3
:103F40001F910F910895CF93DF93CDB7DEB762979E
:103F50000FB6F894DEBF0FBECDBF4AE0682FCE018A
:103F600001960E94672966EA7BE0CE0107960E94CF
:103F7000CC2960EA7BE0CE010D960E94CC29AE01EF
:103F80004F5F5F4FBE01695F7F4FCE010D960E946C
:103F9000AD0DCE010D960E940A29CE0107960E9412
:103FA0000A29CE0101960E940A2962960FB6F8945A
:103FB000DEBF0FBECDBFDF91CF910895CF93DF93CA
:103FC000CDB7DEB762970FB6F894DEBF0FBECDBF98
:103FD0004AE0BC01CE0101960E940F296CEA7BE009
:103FE000CE0107960E94CC2960EA7BE0CE010D96B7
:103FF0000E94CC29AE014F5F5F4FBE01695F7F4FCA
:10400000CE010D960E94AD0DCE010D960E940A299B
:10401000CE0107960E940A29CE0101960E940A2924
:1040200062960FB6F894DEBF0FBECDBFDF91CF9181
:104030000895CF93DF93CDB7DEB762970FB6F894AC
:10404000DEBF0FBECDBF4AE0BC01CE0101960E948B
:104050000F2962EB7BE0CE0107960E94CC2960EA33
:104060007BE0CE010D960E94CC29AE014F5F5F4FE1
:10407000BE01695F7F4FCE010D960E94AD0DCE014E
:104080000D960E940A29CE0107960E940A29CE01A8
:1040900001960E940A2962960FB6F894DEBF0FBE01
:1040A000CDBFDF91CF910895CF93DF93CDB7DEB72A
:1040B00062970FB6F894DEBF0FBECDBFBC01CE0134
:1040C00001960E94CC2968EB7BE0CE0107960E9406
:1040D000CC2960EA7BE0CE010D960E94CC29AE018E
:1040E0004F5F5F4FBE01695F7F4FCE010D960E940B
:1040F000AD0DCE010D960E940A29CE0107960E94B1
:104100000A29CE0101960E940A2962960FB6F894F8
:10411000DEBF0FBECDBFDF91CF9108951F920F92EA
:104120000FB60F9211240BB60F922F933F934F931C
:104130005F936F937F938F939F93AF93BF93EF930F
:10414000FF9386EA96E00E94712AFF91EF91BF915A
:10415000AF919F918F917F916F915F914F913F911F
:104160002F910F900BBE0F900FBE0F901F901895C0
:104170004F925F926F927F928F929F92AF92BF9277
:10418000EF92FF920F931F93CF93DF93CDB7DEB7DC
:104190006E970FB6F894DEBF0FBECDBF8C017B01CA
:1041A00062E974E0CE010D960E94D529B701CE01D7
:1041B00043960E94CC2962E974E0CE0149960E94A0
:1041C000D52978012EE0E20EF11C0E945C2B409074
:1041D00093065090940660909506709096064B0159
:1041E0005C0184189508A608B708809197069091FD
:1041F0009806A0919906B0919A06E8EE8E16E3E033
:104200009E06A104B104D0F00196A11DB11D8093BA
:10421000970690939806A0939906B0939A06B301D7
:10422000A20148515C4F6F4F7F4F409393065093CC
:1042300094066093950670939606C7CF40918F06BB
:10424000509190066091910670919206841795079F
:10425000A607B70708F456C0E0918D06F0918E06C8
:10426000309709F44FC019956115710581059105C5
:1042700039F160939706709398068093990690930E
:104280009A06DC01CB01845D9E4FAF4FBF4F8093F8
:104290008F0690939006A0939106B093920682E0C9
:1042A00090E090938C0680938B060E945C2B609329
:1042B000930670939406809395069093960622C079
:1042C0008091970690919806A0919906B0919A06D0
:1042D000845D9E4FAF4FBF4F80938F0690939006A3
:1042E000A0939106B093920681E090E020918B0616
:1042F00030918C06232B11F480E090E090938C0693
:1043000080938B068090970690909806A0909906CF
:10431000B0909A06C501B4010E94B41B40919D065D
:1043200050E0B801CE0107960E94661D6BE577E06C
:10433000CE0107960E941828C501B4010E94B41B43
:1043400040919C0650E0B801CE0101960E94661D86
:10435000BE016F5F7F4FCE0107960E947628CE0187
:1043600001960E940A2969E577E0CE0107960E942E
:104370001828C501B4010E94B41B40919B0650E06F
:10438000B801CE0101960E94661DBE016F5F7F4F8E
:10439000CE0107960E947628CE0101960E940A2936
:1043A000BE01695F7F4FCE0101960E94CC2966E570
:1043B00075E0CE0101960E948F28B7010E94A828BF
:1043C00064E575E00E948F28BE016D5E7F4F0E94FC
:1043D000A828BC01CE0149960E94F328CE0101967F
:1043E0000E940A29CE0107960E940A298D859E8582
:1043F0000097A9F0698D7A8D6115710571F04F856F
:1044000058892D8D3E8D4217530738F00E94A840E1
:104410008D8D9E8D9A8B898B12C00E94103F898D45
:104420009A8D9E878D878B8D9C8D988B8F878D8D98
:104430009E8D9A8B898B1A8E198E1C8E1B8E1E8ECA
:104440001D8ECE0149960E940A29CE0143960E94F4
:104450000A29BE01635F7F4FF801808191810E942C
:10446000FE29CE010D960E940A296E960FB6F89489
:10447000DEBF0FBECDBFDF91CF911F910F91FF9097
:10448000EF90BF90AF909F908F907F906F905F90D4
:104490004F900895EF92FF920F931F93CF93DF9366
:1044A000EC017B0162E974E008960E94D5298E0137
:1044B000025F1F4F62E974E0C8010E94D52986EAB5
:1044C00096E09983888380E092ECA1E0B0E08C8351
:1044D0009D83AE83BF8388E595E09B838A83B70184
:1044E000C801DF91CF911F910F91FF90EF900C9435
:1044F000F3281F920F920FB60F9211240BB60F9252
:104500002F933F934F935F936F937F938F939F93DB
:10451000AF93BF93EF93FF93E0918906F0918A06E2
:104520001995FF91EF91BF91AF919F918F917F91DD
:104530006F915F914F913F912F910F900BBE0F9014
:104540000FBE0F901F901895FC01848DDF01A80FFE
:10455000B11DA35ABF4F2C91848D90E001968F73AB
:104560009927848FA689B7892C93A089B1898C91CA
:1045700080648C93938D848D981306C00288F38990
:10458000E02D80818F7D808308951F920F920FB65A
:104590000F9211240BB60F922F933F934F935F937B
:1045A0006F937F938F939F93AF93BF93EF93FF93FB
:1045B00086EA96E00E94A422FF91EF91BF91AF910D
:1045C0009F918F917F916F915F914F913F912F912B
:1045D0000F900BBE0F900FBE0F901F901895EF928B
:1045E000FF920F931F93CF93DF93EC0181E0888FAD
:1045F0009B8D8C8D981305C0E889F989808185FD94
:1046000024C0F62E0B8D10E00F5F1F4F0F73112784
:10461000E02E8C8DE8120CC00FB607FCFACFE889AB
:10462000F989808185FFF5CFCE010E94A422F1CFC8
:104630008B8DFE01E80FF11DE35AFF4FF0820B8FC7
:10464000EA89FB898081806207C0EE89FF896083E7
:10465000E889F98980818064808381E090E0DF913E
:10466000CF911F910F91FF90EF900895CF93DF931B
:10467000EC01888D8823C9F0EA89FB89808185FD5A
:1046800005C0A889B9898C9186FD0FC00FB607FCBB
:10469000F5CF808185FFF2CFA889B9898C9185FFFC
:1046A000EDCFCE010E94A422E7CFDF91CF910895F4
:1046B000CF93DF93282F30E0F901E05FF84F84912A
:1046C000F901E653F94FD491F901EC57F94FC49130
:1046D000CC2391F081110E94101DEC2FF0E0EE0F21
:1046E000FF1FE659F94FA591B491EC91ED2381E0BC
:1046F00090E021F480E002C080E090E0DF91CF9173
:1047000008951F93CF93DF93282F30E0F901E05FE6
:10471000F84F8491F901E653F94FD491F901EC5720
:10472000F94FC491CC23C9F0162F81110E94101D9E
:10473000EC2FF0E0EE0FFF1FE05BF94FA591B49175
:104740008FB7F894111105C09C91ED2FE095E923E6
:1047500002C0EC91ED2BEC938FBFDF91CF911F91B5
:1047600008951F93CF93DF9300D000D0CDB7DEB76D
:10477000182F80913A0C1817B1F0112319F06CE53D
:1047800075E002C068E775E0CE0101960E94D52968
:10479000CE0101960E940A29612F8091450C0E944A
:1047A000812310933A0C0E945C2B6093360C70931B
:1047B000370C8093380C9093390C0E946D1F811137
:1047C00019C08091830C9091840CDC01ED91FC91D7
:1047D0000480F581E02D1995892B79F38091830C64
:1047E0009091840CDC01ED91FC910680F781E02D25
:1047F0001995E3CF26960FB6F894DEBF0FBECDBF56
:10480000DF91CF911F910895CF93DF9390E0FC014A
:10481000E653F94F2491FC01EC57F94F849188231A
:1048200061F190E0880F991FFC01EA5CF94FC59196
:10483000D491FC01E05BF94FA591B491611109C0DD
:104840009FB7F8948881209582238883EC912E234A
:104850000BC0623061F49FB7F8943881822F809545
:1048600083238883EC912E2B2C939FBF06C08FB798
:10487000F894E8812E2B28838FBFDF91CF91089584
:104880000E945C2B6093890C70938A0C80938B0C34
:1048900090938C0C08950F931F930E945C2B0091B2
:1048A000890C10918A0C20918B0C30918C0C601724
:1048B00071078207930710F40E9440240E945C2B2A
:1048C0000091890C10918A0C20918B0C30918C0CEA
:1048D000DC01CB01801B910BA20BB30B21E0883CC8
:1048E0009105A105B10508F420E0822F1F910F91D9
:1048F0000895CF92DF92FF920F931F93CF93DF9390
:1049000000D000D0CDB7DEB70E94402400E010E018
:104910008091830C9091840CDC01ED91FC910480DA
:10492000F581E02D1995892BD9F005301105A1F0FD
:104930008091830C9091840CDC01ED91FC910680B8
:10494000F781E02D1995F801EF57F34F848F0F5F32
:104950001F4F0E944024DCCF85E0C82ED12C01C01F
:1049600068010E944B24F82E811124C0B5E0CB16BB
:10497000D10471F60530110549F520E080E090E0A2
:10498000FC01EF57F34F348D230F019685309105CD
:10499000B9F780919F0C883221F080919F0C823072
:1049A00059F48091A00C811107C0211105C0FF248A
:1049B000F3940CC0F12C0AC061EB75E0CE010196B6
:1049C0000E94D529CE0101960E940A298F2D269694
:1049D0000FB6F894DEBF0FBECDBFDF91CF911F9110
:1049E0000F91FF90DF90CF9008951F93CF93DF93A7
:1049F00000D000D0CDB7DEB7182F0E94402411237D
:104A000059F18091830C9091840CDC01ED91FC9123
:104A10000480F581E02D1995892B71F08091830C2C
:104A20009091840CDC01ED91FC910680F781E02DE2
:104A3000199511500E9440240E944B248823F9F2BA
:104A400060ED75E0CE0101960E94D529CE01019658
:104A50000E940A2980E001C081E026960FB6F894F2
:104A6000DEBF0FBECDBFDF91CF911F910895FF92A2
:104A70000F931F93CF93DF93CDB7DEB7C058D10903
:104A80000FB6F894DEBF0FBECDBF80918D0C898329
:104A900000918F0C0A838091900C8B838091920CF3
:104AA0008C83FE01359680E090E010E0801791073E
:104AB00044F4DC01AF57B34F53962C9121930196E8
:104AC000F5CF0C5F1F4FE1E0F0E0EC0FFD1FE00FB2
:104AD000F11F80919C0C8083F12C2F2D30E0021768
:104AE0001307A4F08091830C9091840CDC01ED916C
:104AF000FC91A1E0B0E0AC0FBD1FA20FB31F01906D
:104B0000F081E02D6C911995F394E7CF80E0C058C7
:104B1000DF4F0FB6F894DEBF0FBECDBFDF91CF9150
:104B20001F910F91FF9008951F93CF93DF9300D0B3
:104B300000D0CDB7DEB78091410C811134C062EF57
:104B400075E0CE0101960E94D529CE0101960E9402
:104B50000A2982E090E090938E0C80938D0C11E0F6
:104B600010938F0C81E090E09093910C8093900CC7
:104B700084EE90E09093930C8093920C1093940C9D
:104B800087E180939C0C0E94372586E00E94F524E3
:104B9000882339F00E947924882319F010934A0C55
:104BA00002C010924A0C26960FB6F894DEBF0FBED4
:104BB000CDBFDF91CF911F910895CF93DF9300D0A8
:104BC00000D0CDB7DEB78091410C81112EC063E0DB
:104BD00076E0CE0101960E94D529CE0101960E9471
:104BE0000A2982E090E090938E0C80938D0C81E0F6
:104BF00080938F0C81E090E09093910C8093900CC7
:104C000084EE90E09093930C8093920C1092940C0D
:104C100088E180939C0C0E94372586E00E94F52451
:104C200081110E94792410924A0C26960FB6F894AE
:104C3000DEBF0FBECDBFDF91CF910895AF92BF927F
:104C4000CF92DF92EF92FF920F931F93CF93DF9358
:104C50006C0160E08091520C0E948123E601249651
:104C6000BA90AA9008E010E090E8E92EF12C60E0FC
:104C70008091500C0E94812361E097012A213B2101
:104C8000232B09F460E08091510C0E94812361E0A4
:104C90008091500C0E948123F594E79401501109F2
:104CA00031F7CC15DD05E1F661E08091520CDF9122
:104CB000CF911F910F91FF90EF90DF90CF90BF9019
:104CC000AF900C948123FC0180916B0C90916C0C43
:104CD000E817F90769F1E03533ECF30730F4E03415
:104CE0008CE9F80740F09F0102C02FE433ECC901C2
:104CF00080549C4919C0E03395E7F90720F0CF01B3
:104D00008053954711C0E0323EE4F30720F0CF0115
:104D100080529E4409C0E03187E2F80720F0CF01BD
:104D20008051974201C0CF0190936C0C80936B0C23
:104D300020915E0C2130E9F038F0223009F458C09F
:104D4000233009F48DC0C2C06AE070E00E94FA3DD1
:104D5000DC01A05BB34F13968C91E031F74208F071
:104D60008F7D90E09093620C8093610C8DEF90E0CA
:104D7000A9C0E032FE4420F18A30910568F064E673
:104D800070E00E94FA3D6AE070E00E94FA3DFB018B
:104D9000E05BF34F838102C08091530C90E09093CD
:104DA000620C8093610C8091610C9091620C8F7DFC
:104DB00099279093620C8093610C8FEE90E082C0F3
:104DC0008A30910570F064E670E00E94FA3D6AE076
:104DD00070E00E94FA3DFB01E05BF34F838190E0BD
:104DE000E8CF8FEF90E09093620C8093610C6AC0E3
:104DF000E033F54720F18436910568F068EE73E002
:104E00000E94FA3D64E670E00E94FA3DFB01E05B1F
:104E1000F34F838102C08091530C90E09093620C19
:104E20008093610C8091610C9091620C8F7D992729
:104E30009093620C8093610C87EF90E043C08436BE
:104E4000910578F268EE73E00E94FA3D64E670E046
:104E50000E94FA3DFB01E05BF34F838190E0E8CFD5
:104E6000E034FC49D8F0883E33E0930748F068EE20
:104E700073E00E94FA3DFB01E05BF34F838102C0C7
:104E80008091530C90E09093620C8093610C809120
:104E9000610C9091620C8F7D99270EC0883E33E0A3
:104EA000930708F49ECF68EE73E00E94FA3DFB0181
:104EB000E05BF34F838190E09093620C8093610CF0
:104EC0008BEF90E09093640C8093630C2F5F243001
:104ED00018F420935E0C02C010925E0C81E69CE0F8
:104EE0000C941E26E0E5FCE0805B934FDC011396FA
:104EF0008C9190E0928B818B748B638B81E69CE02C
:104F00000C941E26E0E5FCE02FEF30E0281B390B67
:104F1000328B218B748B638B81E69CE00C941E2674
:104F200087E290E09093620C8093610C81E69CE0B4
:104F30000C941E260895CF92DF92EF92FF920F936A
:104F40001F93CF93DF936C017A018B01C0E0D0E017
:104F5000CE15DF0589F0D8016D918D01D601ED9157
:104F6000FC910190F081E02DC6011995892B11F477
:104F70007E0102C02196ECCFC701DF91CF911F9136
:104F80000F91FF90EF90DF90CF9008950E94914095
:104F90006115710579F0FB0101900020E9F7319767
:104FA000AF01461B570BDC01ED91FC910280F381B0
:104FB000E02D199480E090E008950F931F93CF9314
:104FC000DF93EC0188819981009729F02A813B8148
:104FD0002617370788F48B016F5F7F4F0E94A83F29
:104FE000009761F0998388831B830A832C813D811C
:104FF000232B11F4FC01108281E001C080E0DF91DD
:10500000CF911F910F91089583E497E00E94C91CEE
:1050100021E0892B09F420E0822F089580EE97E0AB
:105020000E94C91C21E0892B09F420E0822F0895F9
:10503000EF92FF920F931F93CF93DF93611571054A
:1050400011F480E01EC08B01EC01CB010E94CE4325
:105050000097B1F02C813D817C01E20EF31EB70177
:10506000CE010E94DD27882361F3288139818C815C
:105070009D81B801820F931F0E94C743FD82EC827D
:1050800081E0DF91CF911F910F91FF90EF900895F4
:10509000EF92FF920F931F93CF93DF93FC01248134
:1050A00035816115710511F480E019C04115510574
:1050B000A9F07B01EC018A01020F131FB8010E94C5
:1050C000DD27882389F3288139818C819D81B7016F
:1050D000820F931F0E94A8401D830C8381E0DF9103
:1050E000CF911F910F91FF90EF900895FB014481A4
:1050F0005581608171810C944828CF93DF93EC0136
:1051000088819981009711F00E94103F19821882BE
:105110001D821C821B821A82DF91CF910895CF934A
:10512000DF93EC016115710561F0FB010190002036
:10513000E9F73197AF01461B570B0E9448288111B0
:1051400003C0CE010E947D28CE01DF91CF9108954A
:10515000CF93DF93EC01FB01448155816081718124
:105160000E944828811103C0CE010E947D28CE01F3
:10517000DF91CF910895EF92FF920F931F93CF93FA
:10518000DF93EC017B018A01BA010E94DD278111C6
:1051900004C0CE010E947D2807C01D830C83B70187
:1051A000888199810E94A840CE01DF91CF911F9103
:1051B0000F91FF90EF900895CF93DF93EC0161156D
:1051C000710559F0FB0101900020E9F73197AF011B
:1051D000461B570B0E94BB2802C00E947D28CE01AF
:1051E000DF91CF910895CF93DF93EC01FB018617F8
:1051F000970761F0608171816115710529F0448123
:1052000055810E94BB2802C00E947D28CE01DF91FB
:10521000CF910895FC01808191810C94103F0F93F0
:105220001F93CF93DF93CDB7DEB761970FB6F89496
:10523000DEBF0FBECDBF8C01CB01F8011182108201
:10524000138212821582148250E0BE016F5F7F4F7D
:105250000E940244BE016F5F7F4FC8010E94DC289C
:1052600061960FB6F894DEBF0FBECDBFDF91CF9130
:105270001F910F9108950F931F93CF93DF93CDB795
:10528000DEB762970FB6F894DEBF0FBECDBF8C01BC
:10529000CB01F801118210821382128215821482CE
:1052A00050E0BE016F5F7F4F0E94D743BE016F5F2A
:1052B0007F4FC8010E94DC2862960FB6F894DEBFCB
:1052C0000FBECDBFDF91CF911F910F9108950F9326
:1052D0001F93CF93DF93CDB7DEB729970FB6F8941E
:1052E000DEBF0FBECDBF8C01862FF8011182108268
:1052F000138212821582148250E0BE016F5F7F4FCD
:1053000090E00E940244BE016F5F7F4FC8010E947F
:10531000DC2829960FB6F894DEBF0FBECDBFDF9113
:10532000CF911F910F910895EF92FF920F931F93CA
:10533000CF93DF93EC01198218821B821A821D829F
:105340001C826115710509F18B01CB010E94CE43CE
:105350007C01BC01CE010E94DD27811109C0CE0174
:10536000DF91CF911F910F91FF90EF900C947D28CA
:10537000FD82EC82B80188819981DF91CF911F91E4
:105380000F91FF90EF900C94C743DF91CF911F9145
:105390000F91FF90EF900895FC011182108213820B
:1053A0001282158214820C94F328FC01118210825F
:1053B00013821282158214826115710551F0FB016E
:1053C00001900020E9F73197AF01461B570B0C9471
:1053D000BB2808950F931F93CF93DF93EC010E9496
:1053E000C8278C0160E974E0CE010E94C827800FB5
:1053F000911FDF91CF911F910F9108950F931F93EC
:10540000CF93DF93EC01E881F981DB0114964D9194
:105410005C9115976D917C910280F381E02D199537
:105420008C0160E974E0CE010E94C827800F911FB3
:10543000DF91CF911F910F9108951F920F920FB698
:105440000F9211240BB60F922F933F934F935F93BC
:105450006F937F938F939F93AF93BF93EF93FF933C
:1054600083E497E00E94A422FF91EF91BF91AF9156
:105470009F918F917F916F915F914F913F912F916C
:105480000F900BBE0F900FBE0F901F9018951F929C
:105490000F920FB60F9211240BB60F922F933F93DA
:1054A0004F935F936F937F938F939F93AF93BF932C
:1054B000EF93FF9380EE97E00E94A422FF91EF917B
:1054C000BF91AF919F918F917F916F915F914F911C
:1054D0003F912F910F900BBE0F900FBE0F901F901A
:1054E0001895FC01A089B1898C91A689B78982FDA4
:1054F0000FC09C91818D8F5F8F73228D821749F031
:10550000218DDF01A20FB11D5D969C93818F0895BF
:105510008C9108951F920F920FB60F9211240BB623
:105520000F922F933F934F935F936F937F938F933C
:105530009F93AF93BF93EF93FF9383E497E00E9411
:10554000712AFF91EF91BF91AF919F918F917F91C0
:105550006F915F914F913F912F910F900BBE0F90E4
:105560000FBE0F901F9018951F920F920FB60F92BB
:1055700011240BB60F922F933F934F935F936F932A
:105580007F938F939F93AF93BF93EF93FF9380EE9F
:1055900097E00E94712AFF91EF91BF91AF919F9187
:1055A0008F917F916F915F914F913F912F910F90CC
:1055B0000BBE0F900FBE0F901F901895CF93DF93E7
:1055C00000D000D0CDB7DEB7BC01CE0101960E945D
:1055D000CC29BE016F5F7F4F8DE69CE00E94B82012
:1055E000CE0101960E940A2926960FB6F894DEBFD6
:1055F0000FBECDBFDF91CF9108953FB7F894809152
:10560000D40C9091D50CA091D60CB091D70C26B5A6
:10561000A89B05C02F3F19F00196A11DB11D3FBFEA
:10562000BA2FA92F982F8827820F911DA11DB11D78
:10563000BC01CD0142E0660F771F881F991F4A9574
:10564000D1F708958F929F92AF92BF92CF92DF923F
:10565000EF92FF926B017C010E94FD2A4B015C01DD
:10566000C114D104E104F104F1F00E94FD2ADC012F
:10567000CB0188199909AA09BB09883E9340A10565
:10568000B10570F321E0C21AD108E108F10888EEF3
:10569000880E83E0981EA11CB11CC114D104E10442
:1056A000F10419F7DDCFFF90EF90DF90CF90BF901E
:1056B000AF909F908F9008952FB7F8946091D00C81
:1056C0007091D10C8091D20C9091D30C2FBF089582
:1056D0001F920F920FB60F9211242F933F938F9327
:1056E0009F93AF93BF938091D00C9091D10CA091D8
:1056F000D20CB091D30C3091CF0C23E0230F2D3777
:1057000020F40196A11DB11D05C026E8230F0296C5
:10571000A11DB11D2093CF0C8093D00C9093D10C80
:10572000A093D20CB093D30C8091D40C9091D50C53
:10573000A091D60CB091D70C0196A11DB11D8093FC
:10574000D40C9093D50CA093D60CB093D70CBF91EA
:10575000AF919F918F913F912F910F900FBE0F901E
:105760001F901895CF93DF93CDB7DEB7CD55D109F4
:105770000FB6F894DEBF0FBECDBF789484B58260BB
:1057800084BD84B5816084BD85B5826085BD85B5E5
:10579000816085BD80916E00816080936E00109263
:1057A00081008091810082608093810080918100DE
:1057B000816080938100809180008160809380006F
:1057C0008091B10084608093B1008091B0008160CD
:1057D0008093B000809191008260809391008091CD
:1057E000910081608093910080919000816080930E
:1057F00090008091A10082608093A1008091A1001F
:1058000081608093A1008091A00081608093A000BE
:10581000809121018260809321018091210181602A
:1058200080932101809120018160809320018091EB
:105830007A00846080937A0080917A0082608093FD
:105840007A0080917A00816080937A0080917A005A
:10585000806880937A001092C1004091710C509141
:10586000720C6091730C7091740C80916D0C90911E
:105870006E0C0E94C51D1092800080E18093810013
:10588000FF24F394F09287068FB780938806F894EC
:1058900080E09DE79093860680938506909387002D
:1058A00080938600809188068FBF80918100887FD9
:1058B000809381009091810080918706982B90932E
:1058C000810028EE33E030938A0620938906F09217
:1058D0006F0090918100892B8093810080918100DD
:1058E000887F809381006EE772E08E010F5F1F4F0B
:1058F000C8010E949429C8010E94DE2AC8010E94A2
:105900000A2961E08DE20E94042461E08BE20E949A
:10591000042461E089E20E94042461E081E20E94A3
:10592000042461E084E30E94042461E083E30E9494
:10593000042461E08FE20E94042461E08AE20E9474
:10594000042461E08BE00E94042461E08AE00E946C
:10595000042461E089E00E94042461E08CE20E945A
:10596000042461E08EE20E94042461E08CE00E9445
:10597000042461E08DE00E94042461E088E00E943C
:10598000042461E086E00E94042461E087E00E9434
:10599000042461E085E00E94042460E083E00E942A
:1059A000042460E084E00E94042460E088E00E9417
:1059B000812360E08DE00E94812360E086E00E9408
:1059C000812360E087E00E94812360E085E00E94FF
:1059D000812361E08DE20E94812361E08BE20E94DD
:1059E000812361E089E20E94812360E081E20E94DC
:1059F000812361E084E30E94812361E083E30E94CC
:105A0000812361E08FE20E94812360E08AE20E94AC
:105A1000812360E08BE00E94812360E08AE00E94A5
:105A2000812360E089E00E94812360E08CE20E9493
:105A3000812360E08EE20E94812360E08CE00E947E
:105A4000812360E08FE10E94042460E087E20E94ED
:105A5000042460E085E20E94042460E083E20E9466
:105A6000042460E08BE10E94042460E089E10E944C
:105A7000042460E087E10E94042460E08FE00E943B
:105A8000042460E08DE10E94042460E082E30E942F
:105A9000042460E085E30E94042460E081E30E9426
:105AA0000424F09208020E94D20B60E081E090E0B2
:105AB0000E94820560E082E090E00E94820560E042
:105AC00083E090E00E94820568E072E0C8010E94D5
:105AD0009429C8010E94DE2AC8010E940A2960E0B8
