:100000000C94CA030C94FB030C94FB030C94FB03A9
:100010000C94FB030C94FB030C94FB030C94FB0368
:100020000C94FB030C94FB030C94FB030C94FB0358
:100030000C94FB030C94FB030C94FB030C94FB0348
:100040000C94FB030C94FB030C94FB030C94FB0338
:100050000C94F6240C94FB030C94FB030C941828CA
:100060000C94FB030C947C2B0C940F2B0C94FB0333
:100070000C94FB030C94FB030C94FB030C94FB0308
:100080000C94FB030C94FB030C94FB030C94FB03F8
:100090000C94FB030C94FB030C94FB030C94FB03E8
:1000A0000C94FB030C94FB030C94FB030C94FB03D8
:1000B0000C94FB030C94FB030C94FB030C94FB03C8
:1000C0000C94FB030C94FB030C94FB030C948C2307
:1000D0000C9462230C94FB030C94522B0C94E52A91
:1000E0000C94FB03450448044B04540457045A047D
:1000F0005D046004940497049A049D04A004A3047E
:10010000A604AF04B804C104C404C704891789173E
:100110009A179A179A17AB17AB17BC1730243324CA
:10012000222426242C246A2437243B2441244524D9
:1001300049244F24532457246A245D2461246524D0
:100140000C942C240C949D040C94A3040C949A17E6
:100150000C9433240C9449240C94CA230C94450425
:100160000C94AB170C9494040C9448040C949704CE
:100170000C94AF040C945A040C943B240C948917EF
:100180000C94FD030C9437240C94A2380C94BC17E7
:100190000C945D040C94B6230C94C1040C94A0043C
:1001A0000C94B8040C9441240C946A240C949A0482
:1001B0000C9442250C9457240C944F240C946124E5
:1001C0000C9430240C94D8230C9426240C94A6046C
:1001D0000C94C7040C949F3D0C9457040C94452434
:1001E0000C9489250C945D240C9453240C94540491
:1001F0000C944B040C9422240C9460040C946524FD
:100200000C94C4040C9463284C454420437570201E
:1002100048616E646C65202D204F46460072656112
:1002200064206565702E2063757020737461636B44
:10023000657220706F732E203D20004F4B00437578
:100240007020737461636B6572203E3E204F4B00DB
:10025000454D5054590043757020737461636B654C
:1002600072203E3E20456D707479004F4646004F27
:100270004E004F4B00504F574552204F4E00232306
:1002800023206D696E69436F66666565204861630A
:100290006B20762E323032203E3E205374617274D1
:1002A0002E2E2E007772697465206565702E206988
:1002B00074656D5F70726963655B004F726465722F
:1002C000204E6F2E2069732057726F6E6720212198
:1002D000006D616B655369676E616C546F436F6944
:1002E0006E203E3E20556E737563636573732021E7
:1002F00021004F72646572205061796F7574203EE1
:100300003E204F4B004F72646572205061796F75CB
:1003100074203E3E2054696D656F75740020005551
:100320004E53554343455353005472616E7361639A
:1003300074696F6E203E3E20554E535543434553DE
:1003400053200053554343455353005472616E7319
:10035000616374696F6E203E3E205355434345539D
:10036000532000454D5054590043757020737461FB
:10037000636B6572203E3E20456D707479004F4B73
:100380000043757020737461636B6572203E3E207C
:100390004F4B004F4E00426F696C6572203E3E200D
:1003A000506F776572204F4E004F464600426F698E
:1003B0006C6572203E3E20506F776572204F464636
:1003C000004C4F57005761746572204C6576656C20
:1003D000203E3E204C4F57004F4B005761746572D2
:1003E000204C6576656C203E3E204F4B004F4646C4
:1003F0000050756D70203E3E20436C6F7365004564
:1004000052524F520050756D70203E3E2045727220
:100410006F72004F4E0050756D70203E3E204F7041
:10042000656E007772697465206565702E2063754E
:100430007020737461636B657220706F732E203D42
:10044000200072656164206565702E206974656D99
:100450005F70726963655B00300030300045004FAB
:100460004B004F50454E00434C4F5345005365746D
:100470002050756D702031202D204F4E0053657433
:100480002050756D702031202D204F464600736539
:10049000744C45444974656D53656C65637450775D
:1004A00072203E3E204E6F7420666F756E64202170
:1004B0002100434354414C4B00434C4F5544424F61
:1004C0005800434354414C4B2D4445564943450045
:1004D0002D002D002D002D002D002D002D002D00B4
:1004E0002D002D002D002D002D003D003A0043422F
:1004F0002B534554400023000043422B555000230A
:10050000000064617461203E3E20656D7074792145
:100510002100436865636B20436C6F7564426F789C
:10052000205265616479203F00436865636B204316
:100530006C6F7564426F7820436F6E6E656374698B
:100540006F6E203F00526573657420436F6D706F4E
:100550007274212100526573706F6E736520546947
:100560006D656F7574212100537461746520726527
:100570007475726E2054696D656F75742121000069
:10058000436C6F7564426F782052657475726E208B
:100590003E3E2052455345540000436C6F75644203
:1005A0006F782052657475726E203E3E204552521F
:1005B0004F520000436C6F7564426F78205265742F
:1005C00075726E203C3C20425553590000436C6FBD
:1005D0007564426F782052657475726E203C3C20C1
:1005E00052656164790000436C6F7564426F7820D6
:1005F00052657475726E203C3C204F4B0052454151
:100600004459004E4F54205245414459004E4F54D6
:10061000205245414459004E4F54205245414459BF
:10062000004E4F54205245414459004E4F542052E1
:1006300045414459004E4F54205245414459202DC4
:10064000204F5045524154494E47004E4F5420527E
:1006500045414459004C4544204375702048616E23
:10066000646C65202D204F4E0000002100240027DF
:10067000002A002D003000330001010000040107B2
:10068000010A0100002200250028002B002E003165
:1006900000340002010000050108010B01000020E8
:1006A000002300260029002C002F0032000001004A
:1006B00000030106010901050505050705080808ED
:1006C00008020202020A0A080804040404010101E3
:1006D00001010101010303030303030303040707EB
:1006E000070C0C0C0C0C0C0C0C0202020206060689
:1006F00006060606060B0B0B0B0B0B0B0B01021071
:10070000202008081020401020408002010201082B
:1007100004020101020408102040808040201008DB
:100720000402018004020180402010080402010834
:100730000402010102040810204080010204081094
:1007400020408000000A0B02090C0D0E080703046C
:100750000100000000000000000000000000000098
:100760000000000000000000000000000000001277
:100770001110000000000000000000000000000058
:100780000000000000000000003000003A003A00C5
:10079000A2389F3D11241FBECFEFD1E2DEBFCDBFF7
:1007A00000E00CBF15E0A0E0B2E0E2E5FBE800E00D
:1007B0000BBF02C007900D92A63DB107D9F72CE000
:1007C000A6EDB5E001C01D92AC39B207E1F713E028
:1007D000C9ECD3E000E006C021970109802FFE019B
:1007E0000E94933EC83CD10780E00807A9F70E9409
:1007F000C52B0C9497450C940000CF938091080270
:10080000833009F4E3C034F4813059F0823009F4C4
:1008100070C082C1843009F4F2C0853009F446C149
:100820007BC12091ED05809105069091060622235B
:1008300089F02091EB053091EC052817390728F055
:10084000A901481B590BCA0102C080E090E0CF917A
:100850000C94730F0097D9F780912E0C90912F0C68
:10086000019790932F0C80932E0C892B09F054C183
:100870008091260C90E08830910550F5FC01882786
:10088000EE58FF4F8F4F0C94933E8BEF90E005C0D6
:1008900087EF90E017C08FEE90E090932D0C80933F
:1008A0002C0C0E94A01014C08DEF90E00BC08DEFB7
:1008B00090E0F3CF8FEE90E005C087EF90E0EDCFB2
:1008C0008BEF90E090932D0C80932C0C0E94AA103B
:1008D0008091260C8F5F883018F48093260C02C01C
:1008E0001092260C86E990E090932F0C80932E0CAA
:1008F00013C18091300C9091310C01979093310C81
:100900008093300C892B09F007C19091290C492F55
:1009100050E04C30510508F046C0FA018827E658EF
:10092000FF4F8F4F0C94933E2EEF30E032C02EEFEE
:1009300030E020C02EEF30E014C02EEF30E008C0D1
:100940002BEF30E005C02FEE30E002C02FEB30E09F
:1009500030932B0C20932A0C2DEF30E020C02FEB8E
:1009600030E030932B0C20932A0C2FEE30E017C090
:100970002FEB30E030932B0C20932A0C27EF30E044
:100980000EC02FEB30E005C02FE730E002C02DEFA6
:1009900030E030932B0C20932A0C2BEF30E0309377
:1009A0002D0C20932C0C24E130E03093310C20935B
:1009B000300C9F5F9C3018F49093290C02C0109269
:1009C000290C8AE29CE0CF910C942E0FC09128064E
:1009D000C13059F008F474C0C23061F0C33011F571
:1009E0006DEF70E08BE590E01BC067EF70E082EC8C
:1009F00090E016C06FEE70E087ED90E011C080913E
:100A00000B0C882309F44DC0082E000C990BC091E3
:100A10002806C130A9F078F46BEF70E08BEC90E021
:100A20000E949210CF5FC0932806C43008F474C0AF
:100A30001092280671C0C23041F0C330E1F0F2CF0D
:100A400067EF70E083EE90E0EBCF8F3F5FEF9507AD
:100A500009F440C0843691051CF06FEE70E017C0B9
:100A60008A309105BCF16AE070E00E945D3ECB01E6
:100A70006FEE70E033C08F3F2FEF920719F46DEFE8
:100A800070E02AC0843691052CF06DEF70E089E0AB
:100A900090E024C06AE070E00E945D3E6DEF70E07F
:100AA0001DC0809104068093080236C0C0912806BC
:100AB000C13059F028F0C23069F0C33091F0B2CFA4
:100AC0006BEF70E083EC90E0ABCF67EF70E088E015
:100AD00090E0A6CF6FEE70E080E090E00E94821080
:100AE000A1CF8091050283FD05C06DEF70E081E02C
:100AF00090E0F4CF82FD05C06DEF70E082E090E001
:100B0000EDCF84FD05C06DEF70E083E090E0E6CFAF
:100B100081E08093080286CFCF91089583E00E9400
:100B2000AB2521E0892B09F020E0822F0895CF9397
:100B3000DF9300D000D0CDB7DEB7FC01E252FA4F10
:100B40002081261360838230910539F0833091052E
:100B500031F0019741F484E303C083E301C08FE2E5
:100B60000E94D4250EC06EE874E0CE0101960E946A
:100B70005C2ACE0101960E94A62BCE0101960E940E
:100B8000D22926960FB6F894DEBF0FBECDBFDF91F7
:100B9000CF91089560E081E090E00E94970560E0C9
:100BA00082E090E00E94970560E083E090E00C9482
:100BB00097050F931F93CF93DF938C01C1E0D0E093
:100BC000C017D10711F461E001C060E0CE010E94BE
:100BD00097052196C430D10599F7DF91CF911F91E8
:100BE0000F9108950F931F93CF93DF93EC010E9411
:100BF0007A2600912A0610912B0620912C0630911E
:100C00002D06DC01CB01801B910BA20BB30B8D32A7
:100C10009140A105B105C8F080912906811107C056
:100C2000CE010E94D90581E08093290604C00E946C
:100C3000CA05109229060E947A2660932A067093AC
:100C40002B0680932C0690932D060E947A26009105
:100C50002A0610912B0620912C0630912D06601744
:100C600071078207930750F40E947A2660932A0640
:100C700070932B0680932C0690932D06DF91CF91D5
:100C80001F910F910895E1E8F0E09081809129088B
:100C9000892B8083089510920802E1E8F0E08081BA
:100CA000887F80830895CF92DF92EF92FF920F9317
:100CB0001F936B017C010E947A260091E60510913A
:100CC000E7052091E8053091E90560177107820773
:100CD000930750F40E947A266093E6057093E70527
:100CE0008093E8059093E9050E947A260091E60535
:100CF0001091E7052091E8053091E905AB01BC01B1
:100D0000401B510B620B730B81E0C416D506E6063F
:100D1000F70608F080E01F910F91FF90EF90DF90B1
:100D2000CF900895E2EFF5E01182128213821092C3
:100D3000ED051092FE051092EC051092EB05E9E12D
:100D4000FCE0158686E990E0968B858B108A84E11D
:100D500090E0908F878B08951F93CF93DF9300D0FF
:100D600000D0CDB7DEB7182F8CE20E94AB2521E072
:100D7000892B09F420E0121721F1112381F06DE68F
:100D800074E0CE0101960E945C2ACE0101960E9479
:100D9000A62BCE0101960E94D22961E00FC06DE71B
:100DA00074E0CE0101960E945C2ACE0101960E9459
:100DB000A62BCE0101960E94D22960E08CE20E940F
:100DC000D42526960FB6F894DEBF0FBECDBFDF91B7
:100DD000CF911F9108958F929F92AF92BF92EF9201
:100DE000FF921F93CF93DF9300D000D0CDB7DEB733
:100DF00080E30E94AB2511E0892B09F410E080917B
:100E00002706181761F00E947A26609323067093D4
:100E100024068093250690932606109327060E94A9
:100E20007A268090230690902406A0902506B09004
:100E30002606DC01CB0188199909AA09BB09893E5C
:100E40009340A105B10558F40E947A2668157905EA
:100E50008A059B0520F080910C02882389F120915E
:100E6000050230910602812F90E021FBEE24E0F88C
:100E7000F12C8E159F0521F480910C02882301F13D
:100E8000112311F0226001C02D7F309306022093C0
:100E900005028091050281FF03C067E674E002C08D
:100EA00062E674E0CE0101960E945C2ACE010196B2
:100EB0000E945115CE0101960E94D22910920C0277
:100EC000812F26960FB6F894DEBF0FBECDBFDF91FF
:100ED000CF911F91FF90EF90BF90AF909F908F9018
:100EE00008951F93CF93DF93CDB7DEB768970FB602
:100EF000F894DEBF0FBECDBF10910B0C111118C0BE
:100F00006FE574E0CE0101960E945C2ACE01019645
:100F10000E941715CE0101960E94D22980910502E8
:100F200090910602806290930602809305027EC033
:100F30006DE574E0CE0101960E945C2A1F3F29F501
:100F4000BE016F5F7F4FCE0107960E94942A6AE52B
:100F500074E0CE0107960E94E028811104C0CE0102
:100F600007960E944529BE01695F7F4FCE010D960D
:100F70000E94942ACE010D960E941715CE010D965F
:100F80000E94D229CE01079642C0612F012E000C8B
:100F9000770B4AE0CE010D961A30B4F40E94032A72
:100FA000BE016F5F7F4FCE0107960E94942A68E5CD
:100FB00074E0CE0107960E94E02881110EC0CE0198
:100FC00007960E94452909C00E94032ABE016F5F4F
:100FD0007F4FCE0107960E94942ABE01635F7F4F28
:100FE000CE0107960E947029BC01CE0143960E9453
:100FF000942ACE0143960E941715CE0143960E9473
:10100000D229CE0107960E94D229CE010D960E94C8
:10101000D22980910502909106028F7D909306025D
:1010200080930502CE0101960E94D22968960FB6E0
:10103000F894DEBF0FBECDBFDF91CF911F91089511
:101040005F926F927F928F929F92AF92BF92CF9258
:10105000DF92EF92FF920F931F93CF93DF93CDB761
:10106000DEB7A0970FB6F894DEBF0FBECDBF6624E3
:101070006394712C552453948E010F5F1F4F96E497
:10108000E92E93E0F92E22E3C22E23E0D22E82E055
:10109000681629F093E0691621F082E303C085E326
:1010A00001C081E30E94AB2521E0892B09F420E0F7
:1010B000F301E251FA4F4F012083C3018E519A4F41
:1010C0005C01FC0180818217E9F0211109C0F30164
:1010D000EE50FA4F50827F926F92DF92CF9204C00F
:1010E0007F926F92FF92EF921F930F930E9418418D
:1010F0000F900F900F900F900F900F90F401808140
:10110000F5018083FFEF6F1A7F0A84E0681671048F
:1011100009F0BDCFA0960FB6F894DEBF0FBECDBFCD
:10112000DF91CF911F910F91FF90EF90DF90CF90C3
:10113000BF90AF909F908F907F906F905F90089539
:10114000CF93DF93CDB7DEB768970FB6F894DEBFC5
:101150000FBECDBF63E274E0CE0101960E945C2A0F
:101160006091030680E190E00E9489456AE070E0AA
:1011700080E090E00E94402660910306062E000C5D
:10118000770B4AE0CE010D960E94032ABE016F5FE5
:101190007F4FCE0107960E94942ABE01635F7F4F66
:1011A000CE0107960E947029BC01CE0143960E9491
:1011B000942ACE0143960E94A62BCE0143960E940C
:1011C000D229CE0107960E94D229CE010D960E9407
:1011D000D229CE0101960E94D22968960FB6F894C2
:1011E000DEBF0FBECDBFDF91CF910895E6EFF5E0F2
:1011F00082819381883E934010F01382128232964E
:1012000085E0EC3FF807A1F708958F929F92AF9287
:10121000BF92CF92DF92EF92FF921F93CF93DF9313
:10122000CDB7DEB762970FB6F894DEBF0FBECDBF65
:1012300088EFA82E85E0B82E90E0E92E96E0F92EF2
:1012400011E02AE0C22ED12CC6010E948145982EC1
:10125000C60101960E948145292D30E0A901582B35
:10126000CA014501F5015183408320910502309167
:101270000602F701892BD9F48081806880831230BF
:1012800039F0133071F02F7B309306022093050262
:1012900080910502909106029E7F909306028093B2
:1012A000050280910502909106029B7F1AC0808101
:1012B0008F778083123039F0133071F020643093CF
:1012C000060220930502809105029091060291602A
:1012D0009093060280930502809105029091060288
:1012E000946090930602809305020E94F60862E4DF
:1012F00074E0CE010D960E945C2A4AE0612FCE0177
:1013000007960E942F2ABE01695F7F4FCE0101968A
:101310000E94942A6CE472E0CE0101960E94572943
:10132000BC01CE010D960E943E29CE0101960E947D
:10133000D229CE0107960E94D229F2E0AF0EB11C4D
:10134000F401608171814AE0CE0101960E94D729A3
:10135000BE016F5F7F4FCE010D960E943E29CE01E8
:1013600001960E94D229BE01635F7F4FCE01019694
:101370000E94942ACE0101960E94A62BCE010196CE
:101380000E94D229CE010D960E94D229F2E0CF0E02
:10139000D11C1F5F4FEFE41AF40A143009F054CF48
:1013A00062960FB6F894DEBF0FBECDBFDF91CF912E
:1013B0001F91FF90EF90DF90CF90BF90AF909F90E4
:1013C0008F90089585E30E94AB2521E0892B09F4D5
:1013D00020E0822F0895CF92DF92EF92FF92CF9379
:1013E000DF9300D000D0CDB7DEB78091050284FD39
:1013F00034C08CE20E94AB25892B79F580910B02D9
:10140000882359F181E00E94AC0666E174E0CE01C8
:1014100001960E945C2ACE0101960E94A62BCE0165
:1014200001960E94D22963E174E0CE0101960E94E8
:101430005C2A60E0CE0101960E947414CE010196F0
:101440000E94D2290E947A2660931F06709320067C
:10145000809321069093220682C08CE20E94AB25E5
:10146000892B09F47CC08091050284FD39C00E945B
:101470007A26C0901F06D0902006E0902106F090BA
:101480002206DC01CB018C199D09AE09BF0981340C
:101490009F41A105B10508F462C080E00E94AC063E
:1014A00065E074E0CE0101960E945C2ACE010196AF
:1014B0000E94A62BCE0101960E94D2296FEF73E005
:1014C000CE0101960E945C2A61E0CE0101960E9445
:1014D0007414CE0101960E94D22910920B023FC0D3
:1014E0000E947A26C0901F06D0902006E090210628
:1014F000F0902206DC01CB018C199D09AE09BF09D1
:1015000081349C49A105B10538F40E947A266C15F6
:101510007D058E059F0518F580E00E94AC0661EF01
:1015200073E0CE0101960E945C2ACE0101960E94D2
:10153000A62BCE0101960E94D2296DEE73E0CE015A
:1015400001960E945C2A61E0CE0101960E9474140B
:10155000CE0101960E94D22981E080930B0226964B
:101560000FB6F894DEBF0FBECDBFDF91CF91FF90D5
:10157000EF90DF90CF900895CF92DF92EF92FF929D
:101580001F93CF93DF93C82F0E947A266B017C01B3
:1015900010E0D0E00E94EB090E94D817CE010E9413
:1015A000F2050E947A266C157D058E059F0520F4B4
:1015B0000E947A266B017C010E947A26DC01CB0115
:1015C0008C199D09AE09BF09893C9105A105B1059A
:1015D00058F48FE10E94AB25892BE1F20E947A2614
:1015E0006B017C0111E0D6CF812FDF91CF911F914C
:1015F000FF90EF90DF90CF9008950F931F93CF93BC
:10160000DF9300D000D0CDB7DEB78DE10E94AB25CF
:101610002091050230910602892B11F0206101C052
:101620002F7E3093060220930502209105028091BF
:101630001E0690E024FB002700F910E080179107B8
:1016400029F480910A02882309F44AC024FF1DC0AE
:101650006BED73E0CE0101960E945C2ACE010196EB
:101660000E94A62BCE0101960E94D22968ED73E05C
:10167000CE0101960E945C2ACE0101960E94ED1EC9
:10168000CE0101960E94D22923C065EC73E0CE0101
:1016900001960E945C2ACE0101960E94A62BCE01E3
:1016A00001960E94D22961EC73E0CE0101960E945E
:1016B0005C2ACE0101960E94ED1ECE0101960E9489
:1016C000D229809108028093040685E08093080265
:1016D000809105028295817080931E0610920A0205
:1016E00026960FB6F894DEBF0FBECDBFDF91CF9127
:1016F0001F910F9108950F931F9387E20E94AB25CE
:10170000892B59F40E947A266093DA057093DB05E1
:101710008093DC059093DD0524C00E947A26009119
:10172000DA051091DB052091DC053091DD05DC0147
:10173000CB01801B910BA20BB30B853F9140A10500
:10174000B10588F40E947A260091DA051091DB0534
:101750002091DC053091DD05601771078207930742
:1017600010F081E001C080E01F910F9108950F9368
:101770001F9385E20E94AB25892B61F40E947A2693
:101780006093D6057093D7058093D8059093D905BB
:1017900081E027C00E947A260091D6051091D705D6
:1017A0002091D8053091D905DC01CB01801B910B2C
:1017B000A20BB30B853F9140A105B10588F40E94AF
:1017C0007A260091D6051091D7052091D805309141
:1017D000D905601771078207930710F08FEF01C0DA
:1017E00080E01F910F9108950F931F93CF93DF9384
:1017F00000D000D0CDB7DEB70E94B70B2091050214
:1018000030910602811102C0286003C0813029F4A2
:10181000277F3093060220930502209105028091D4
:101820001D0690E023FB002700F910E080179107C8
:1018300029F480910902882309F44BC023FF1DC0BD
:101840006DEA73E0CE0101960E945C2ACE010196FA
:101850000E94A62BCE0101960E94D22969EA73E06C
:10186000CE0101960E945C2ACE0101960E94B31E11
:10187000CE0101960E94D22923C066E973E0CE0111
:1018800001960E945C2ACE0101960E94A62BCE01F1
:1018900001960E94D22963E973E0CE0101960E946D
:1018A0005C2ACE0101960E94B31ECE0101960E94D1
:1018B000D229809108028093040685E08093080273
:1018C0008091050283FB882780F980931D06109282
:1018D000090226960FB6F894DEBF0FBECDBFDF918A
:1018E000CF911F910F91089561E085E00C94D4256C
:1018F000CF92DF92EF92FF920F931F93CF93DF93DC
:10190000CDB7DEB762970FB6F894DEBF0FBECDBF7E
:101910000E948E05811106C061E086E00E94D425F8
:10192000F12C06C060E086E00E94D425FF24F394E9
:1019300060E085E00E94D4250E94271F00E010E0AF
:10194000EE24E3948BE9C82E8FE0D82E0E94EB0999
:1019500083E20E94AB25892B69F06DE273E0CE0132
:1019600001960E949D2ACE0101960E94A62BCE01CF
:10197000019657C061E087E00E94D425C601019717
:10198000F1F760E087E00E94D425C6010197F1F7E6
:101990000E948E05882311F0E11031C0FF2009F468
:1019A0006EC00E948E05811168C081E0809303069D
:1019B0004AE0B801CE0107960E94D72960E773E09C
:1019C000CE0101960E949D2ABE01695F7F4FCE0124
:1019D00001960E947029BC01CE010D960E94942AA6
:1019E000CE010D960E94A62BCE010D960E94D22903
:1019F000CE0101960E94D229CE01079612C00E9404
:101A0000740C6CE271E080E090E00E94402660E09F
:101A100086E00E94D42560E085E00E94D425E12C78
:101A2000C0CF0E94D2290E94740C0E94A00880910D
:101A30000306833679F56CE573E0CE0101960E94CA
:101A40009D2ACE0101960E94A62BCE0101960E94EE
:101A5000D22960910306062E000C770B4AE0CE01D6
:101A600001960E94032A61E0CE0101960E94241E85
:101A7000CE0101960E94D2290DC0FF24F3940F5F7E
:101A80001F4F093883E1180709F060CF83E6809380
:101A90000306C9CF62960FB6F894DEBF0FBECDBF66
:101AA000DF91CF911F910F91FF90EF90DF90CF903A
:101AB0000895CF93DF9300D000D0CDB7DEB7BC013F
:101AC000CE0101960E94942ABE016F5F7F4F8091E4
:101AD0004A0C90914B0C0E948626CE0101960E94E2
:101AE000D22926960FB6F894DEBF0FBECDBFDF9188
:101AF000CF9108950E947A266093520C7093530CF4
:101B00008093540C9093550C08950F931F930E944B
:101B10007A260091520C1091530C2091540C309164
:101B2000550C601771078207930710F40E947A0D15
:101B30000E947A260091520C1091530C2091540C63
:101B40003091550CDC01CB01801B910BA20BB30B28
:101B500021E0883C9105A105B10508F420E0822F21
:101B60001F910F910895CF92DF92FF920F931F93D1
:101B7000CF93DF9300D000D0CDB7DEB70E947A0DAF
:101B800000E010E080914C0C90914D0CDC01ED9147
:101B9000FC910480F581E02D1995892BD9F0053051
:101BA0001105A1F080914C0C90914D0CDC01ED9150
:101BB000FC910680F781E02D1995F801E65BF34F63
:101BC000848F0F5F1F4F0E947A0DDCCF85E0C82EF7
:101BD000D12C01C068010E94850DF82E811124C00E
:101BE000B5E0CB16D10471F60530110569F520E09A
:101BF00080E090E0FC01E65BF34F348D230F01960B
:101C000085309105B9F78091680C883221F0809178
:101C1000680C823059F48091690C811107C0211140
:101C200005C0FF24F39410C0F12C0EC066E973E0E8
:101C3000CE0101960E949D2ACE0101960E94590D67
:101C4000CE0101960E94D2298F2D26960FB6F894C8
:101C5000DEBF0FBECDBFDF91CF911F910F91FF90DF
:101C6000DF90CF9008951F93CF93DF9300D000D0E3
:101C7000CDB7DEB7182F0E947A0D112379F180912C
:101C80004C0C90914D0CDC01ED91FC910480F581A0
:101C9000E02D1995892B71F080914C0C90914D0C91
:101CA000DC01ED91FC910680F781E02D1995115032
:101CB0000E947A0D0E94850D8823F9F265EB73E08E
:101CC000CE0101960E949D2ACE0101960E94590DD7
:101CD000CE0101960E94D22980E001C081E02696C3
:101CE0000FB6F894DEBF0FBECDBFDF91CF911F912D
:101CF0000895FF920F931F93CF93DF93CDB7DEB775
:101D0000C058D1090FB6F894DEBF0FBECDBF809189
:101D1000560C89830091580C0A838091590C8B834F
:101D200080915B0C8C83FE01359680E090E010E0A2
:101D30008017910744F4DC01A65BB34F53962C91B6
:101D400021930196F5CF0C5F1F4FE1E0F0E0EC0F1F
:101D5000FD1FE00FF11F8091650C8083F12C2F2D6A
:101D600030E002171307A4F080914C0C90914D0CB9
:101D7000DC01ED91FC91A1E0B0E0AC0FBD1FA20F22
:101D8000B31F0190F081E02D6C911995F394E7CF8A
:101D900080E0C058DF4F0FB6F894DEBF0FBECDBF56
:101DA000DF91CF911F910F91FF9008951F93CF93D3
:101DB000DF9300D000D0CDB7DEB7182F882319F0FD
:101DC00067ED73E002C068EE73E0CE0101960E94F9
:101DD0009D2ACE0101960E94590DCE0101960E94C6
:101DE000D22982E090E09093570C8093560C91E0BA
:101DF0009093580C21E030E030935A0C2093590C0A
:101E000024EE30E030935C0C20935B0C112319F02E
:101E100090935D0C02C010925D0C80915D0C885116
:101E200081958093650C0E94790E86E00E94330EA6
:101E300081110E94B30D26960FB6F894DEBF0FBE37
:101E4000CDBFDF91CF911F91089580910B0C81112F
:101E500004C00E94D60E1092130C0895AF92BF9248
:101E6000CF92DF92EF92FF920F931F93CF93DF9366
:101E70006C0160E080911B0C0E94D425E601249641
:101E8000BA90AA9008E010E090E8E92EF12C60E00A
:101E90008091190C0E94D42561E097012A213B21F1
:101EA000232B09F460E080911A0C0E94D42561E094
:101EB0008091190C0E94D425F594E79401501109E2
:101EC00031F7CC15DD05E1F661E080911B0CDF9167
:101ED000CF911F910F91FF90EF90DF90CF90BF9027
:101EE000AF900C94D425FC018091340C9091350C6A
:101EF000E817F90769F1E03533ECF30730F4E03423
:101F00008CE9F80740F09F0102C02FE433ECC901CF
:101F100080549C4919C0E03395E7F90720F0CF01C0
:101F20008053954711C0E0323EE4F30720F0CF0123
:101F300080529E4409C0E03187E2F80720F0CF01CB
:101F40008051974201C0CF019093350C8093340C9F
:101F50002091270C2130E9F038F0223009F458C0E4
:101F6000233009F48DC0C2C06AE070E00E94493E8F
:101F7000DC01A75EB34F13968C91E031F74208F075
:101F80008F7D90E090932B0C80932A0C8DEF90E046
:101F9000A9C0E032FE4420F18A30910568F064E681
:101FA00070E00E94493E6AE070E00E94493EFB01F9
:101FB000E75EF34F838102C080911C0C90E0909308
:101FC0002B0C80932A0C80912A0C90912B0C8F7DE6
:101FD000992790932B0C80932A0C8FEE90E082C06F
:101FE0008A30910570F064E670E00E94493E6AE034
:101FF00070E00E94493EFB01E75EF34F838190E071
:10200000E8CF8FEF90E090932B0C80932A0C6AC05E
:10201000E033F54720F18436910568F068EE73E00F
:102020000E94493E64E670E00E94493EFB01E75E83
:10203000F34F838102C080911C0C90E090932B0C95
:1020400080932A0C80912A0C90912B0C8F7D9927DC
:1020500090932B0C80932A0C87EF90E043C084363A
:10206000910578F268EE73E00E94493E64E670E004
:102070000E94493EFB01E75EF34F838190E0E8CF89
:10208000E034FC49D8F0883E33E0930748F068EE2E
:1020900073E00E94493EFB01E75EF34F838102C07B
:1020A00080911C0C90E090932B0C80932A0C8091D3
:1020B0002A0C90912B0C8F7D99270EC0883E33E01F
:1020C000930708F49ECF68EE73E00E94493EFB013F
:1020D000E75EF34F838190E090932B0C80932A0C62
:1020E0008BEF90E090932D0C80932C0C2F5F24307D
:1020F00018F42093270C02C01092270C8AE29CE06F
:102100000C942E0FE9E1FCE0875E934FDC011396FF
:102110008C9190E0928B818B748B638B8AE29CE034
:102120000C942E0FE9E1FCE02FEF30E0281B390B77
:10213000328B218B748B638B8AE29CE00C942E0F84
:1021400087E290E090932B0C80932A0C8AE29CE02B
:102150000C942E0F80EF90E090932B0C80932A0C20
:102160008AE29CE00C942E0FCF93DF9300D000D036
:10217000CDB7DEB7BC01CE0101960E94942ABE0104
:102180006F5F7F4F80914608909147080E94862696
:10219000CE0101960E94D22926960FB6F894DEBF92
:1021A0000FBECDBFDF91CF9108950F931F93CF93B3
:1021B000DF93CDB7DEB762970FB6F894DEBF0FBEE0
:1021C000CDBF8C0167EC74E0CE010D960E949D2A74
:1021D000F80184819581892B09F457C06AEF73E077
:1021E000CE010D960E94A42960914E0870914F086F
:1021F0004AE0CE0107960E94D729BE01695F7F4F52
:10220000CE0101960E94942A6CE472E0CE01019600
:102210000E945729BC01CE010D960E943E29CE0195
:1022200001960E94D229CE0107960E94D229B801B8
:10223000CE010D960E943E29BE01635F7F4FCE0105
:1022400001960E94942ACE0101960E94B410CE01FC
:1022500001960E94D22920914E0830914F0846E005
:10226000429FC001439F900D1124B801825A974F9D
:102270000E94BB2980914E0890914F0801968F775C
:10228000992790934F0880934E08CE010D960E9497
:10229000D22962960FB6F894DEBF0FBECDBFDF9194
:1022A000CF911F910F910895CF93DF93CDB7DEB7F4
:1022B0002C970FB6F894DEBF0FBECDBF61E075E07E
:1022C000CE0107960E945C2A6FEF74E0CE0107965C
:1022D0000E94E02860914E0870914F084AE0CE01BC
:1022E00001960E94D729BE016F5F7F4FCE010796EE
:1022F0000E943E29CE0101960E94D22969EF74E026
:10230000CE0107960E94E028BE01695F7F4FCE0193
:1023100001960E94942ACE0101960E94D510CE010A
:1023200001960E94D229CE0107960E94D22980E010
:102330002C960FB6F894DEBF0FBECDBFDF91CF91C4
:102340000895CF92DF92EF92FF920F931F93CF9356
:10235000DF93CDB7DEB72C970FB6F894DEBF0FBE74
:10236000CDBF6C017B018A0168EF74E0CE01079656
:102370000E945C2A66EF74E0CE0107960E94E02876
:1023800060914E0870914F084AE0CE0101960E947C
:10239000D729BE016F5F7F4FCE0107960E943E296D
:1023A000CE0101960E94D2296EEE74E0CE0107960E
:1023B0000E94E028B601CE0107960E943E296CEEED
:1023C00074E0CE0107960E94E028B701CE0107967F
:1023D0000E943E296AEE74E0CE0107960E94E02832
:1023E000B801CE0107960E943E29BE01695F7F4F6A
:1023F000CE0101960E94942ACE0101960E94D5102A
:10240000CE0101960E94D229CE0107960E94D229C0
:1024100080E02C960FB6F894DEBF0FBECDBFDF91E3
:10242000CF911F910F91FF90EF90DF90CF90089583
:10243000FF920F931F93CF93DF93CDB7DEB76297D1
:102440000FB6F894DEBF0FBECDBF8C01F62EBC01D7
:10245000CE0101960E94942A6AE97BE0CE0107969C
:102460000E94942A64E97BE0CE010D960E94942A92
:10247000AE014F5F5F4FBE01695F7F4FCE010D968A
:102480000E94A111CE010D960E94D229CE0107967D
:102490000E94D229CE0101960E94D229F80184819E
:1024A0009581892B09F411C265E074E080819181E6
:1024B0000E94EE40892B09F008C268EE74E0CE015C
:1024C00001960E945C2A60EA7BE0CE0107960E949A
:1024D000942A64E97BE0CE010D960E94942AAE0115
:1024E0004F5F5F4FBE01695F7F4FCE010D960E9427
:1024F000A111CE010D960E94D229CE0107960E940D
:10250000D229CE0101960E94D22966EE74E0CE0156
:1025100001960E945C2A66EA7BE0CE0107960E9443
:10252000942A64E97BE0CE010D960E94942AAE01C4
:102530004F5F5F4FBE01695F7F4FCE010D960E94D6
:10254000A111CE010D960E94D229CE0107960E94BC
:10255000D229CE0101960E94D22964EE74E0CE0108
:1025600001960E945C2A6CEA7BE0CE0107960E94ED
:10257000942A64E97BE0CE010D960E94942AAE0174
:102580004F5F5F4FBE01695F7F4FCE010D960E9486
:10259000A111CE010D960E94D229CE0107960E946C
:1025A000D229CE0101960E94D22962EE74E0CE01BA
:1025B00001960E945C2A62EB7BE0CE0107960E94A6
:1025C000942A64E97BE0CE010D960E94942AAE0124
:1025D0004F5F5F4FBE01695F7F4FCE010D960E9436
:1025E000A111CE010D960E94D229CE0107960E941C
:1025F000D229CE0101960E94D22960EE74E0CE016C
:1026000001960E945C2A68EB7BE0CE0107960E944F
:10261000942A64E97BE0CE010D960E94942AAE01D3
:102620004F5F5F4FBE01695F7F4FCE010D960E94E5
:10263000A111CE010D960E94D229CE0107960E94CB
:10264000D229CE0101960E94D2296EED74E0CE010E
:1026500001960E945C2A6EEB7BE0CE0107960E94F9
:10266000942A64E97BE0CE010D960E94942AAE0183
:102670004F5F5F4FBE01695F7F4FCE010D960E9495
:10268000A111CE010D960E94D229CE0107960E947B
:10269000D229CE0101960E94D2296CED74E0CE01C0
:1026A00001960E945C2A64EC7BE0CE0107960E94B2
:1026B000942A64E97BE0CE010D960E94942AAE0133
:1026C0004F5F5F4FBE01695F7F4FCE010D960E9445
:1026D000A111CE010D960E94D229CE0107960E942B
:1026E000D229CE0101960E94D2296AED74E0CE0172
:1026F00001960E945C2A6AEC7BE0CE0107960E945C
:10270000942A64E97BE0CE010D960E94942AAE01E2
:102710004F5F5F4FBE01695F7F4FCE010D960E94F4
:10272000A111CE010D960E94D229CE0107960E94DA
:10273000D229CE0101960E94D22968ED74E0CE0123
:1027400001960E945C2A60ED7BE0CE0107960E9414
:10275000942A64E97BE0CE010D960E94942AAE0192
:102760004F5F5F4FBE01695F7F4FCE010D960E94A4
:10277000A111CE010D960E94D229CE0107960E948A
:10278000D229CE0101960E94D22966ED74E0CE01D5
:1027900001960E945C2A66ED7BE0CE0107960E94BE
:1027A000942A64E97BE0CE010D960E94942AAE0142
:1027B0004F5F5F4FBE01695F7F4FCE010D960E9454
:1027C000A111CE010D960E94D229CE0107960E943A
:1027D000D229CE0101960E94D22964ED74E0CE0187
:1027E00001960E945C2A6CED7BE0CE0107960E9468
:1027F000942A64E97BE0CE010D960E94942AAE01F2
:102800004F5F5F4FBE01695F7F4FCE010D960E9403
:10281000A111CE010D960E94D229CE0107960E94E9
:10282000D229CE0101960E94D22962ED74E0CE0138
:1028300001960E945C2A62EE7BE0CE0107960E9420
:10284000942A64E97BE0CE010D960E94942AAE01A1
:102850004F5F5F4FBE01695F7F4FCE010D960E94B3
:10286000A111CE010D960E94D229CE0107960E9499
:10287000D229CE0101960E94D22960ED74E0CE01EA
:1028800001960E945C2A68EE7BE0CE0107960E94CA
:10289000942A64E97BE0CE010D960E94942AAE0151
:1028A0004F5F5F4FBE01695F7F4FCE010D960E9463
:1028B000A111CE010D960E94D229CE0107960E9449
:1028C000D229CE0101960E94D229F1100E94541102
:1028D00062960FB6F894DEBF0FBECDBFDF91CF91E9
:1028E0001F910F91FF9008951F93CF93DF93CDB762
:1028F000DEB762970FB6F894DEBF0FBECDBF162FBE
:10290000BC01CE0101960E94942A68EB7BE0CE01C7
:1029100007960E94942A64E97BE0CE010D960E94FE
:10292000942AAE014F5F5F4FBE01695F7F4FCE01BA
:102930000D960E94A111CE010D960E94D229CE01C2
:1029400007960E94D229CE0101960E94D229111128
:102950000E94541162960FB6F894DEBF0FBECDBF31
:10296000DF91CF911F9108950F931F93CF93DF9322
:10297000CDB7DEB769970FB6F894DEBF0FBECDBFF7
:10298000282F8B0164E97BE0CE014396298F0E94BA
:10299000942A298D223061F0233091F02130C1F545
:1029A000B801CE0101960E94942A6AEC7BE00FC028
:1029B000B801CE0101960E94942A66ED7BE007C023
:1029C000B801CE0101960E94942A62EE7BE0CE010E
:1029D00007960E94942ABE016D5E7F4FCE010D9630
:1029E0000E94942AAE014F5F5F4FBE01695F7F4F27
:1029F000CE010D960E94A111CE010D960E94D22902
:102A0000CE0107960E94D229CE0101960E94D229BA
:102A1000CE0143960E94D22969960FB6F894DEBF84
:102A20000FBECDBFDF91CF911F910F910895CF932E
:102A3000DF93CDB7DEB762970FB6F894DEBF0FBE57
:102A4000CDBFBC01CE0101960E94942A6EEB7BE0C3
:102A5000CE0107960E94942A64E97BE0CE010D9690
:102A60000E94942AAE014F5F5F4FBE01695F7F4FA6
:102A7000CE010D960E94A111CE010D960E94D22981
:102A8000CE0107960E94D229CE0101960E94D2293A
:102A900062960FB6F894DEBF0FBECDBFDF91CF9127
:102AA0000895CF93DF93CDB7DEB762970FB6F89452
:102AB000DEBF0FBECDBFBC01CE0101960E94942A9D
:102AC00060EA7BE0CE0107960E94942A64E97BE0ED
:102AD000CE010D960E94942AAE014F5F5F4FBE015A
:102AE000695F7F4FCE010D960E94A111CE010D9618
:102AF0000E94D229CE0107960E94D229CE010196CA
:102B00000E94D22962960FB6F894DEBF0FBECDBFE9
:102B1000DF91CF910895CF93DF9300D000D0CDB750
:102B2000DEB7BC01CE0101960E94942ABE016F5F00
:102B30007F4F8091FA0B9091FB0B0E948626CE016D
:102B400001960E94D22926960FB6F894DEBF0FBEDA
:102B5000CDBFDF91CF910895EF92FF920F931F9316
:102B6000CF93DF93CDB7DEB762970FB6F894DEBF91
:102B70000FBECDBF82E090E09093570C8093560C2F
:102B80001092580C81E090E090935A0C8093590C6D
:102B900090935C0C80935B0C8CEF8093650C0E948F
:102BA000790E85E00E94330E882309F447C10E9404
:102BB000B30D882309F442C180910B0C8F3F71F44F
:102BC0006EE074E0CE0101960E949D2ACE0101962E
:102BD0000E948B15CE0101960E94D22968EC70E00C
:102BE00080E090E00E94402682E090E09093570CB5
:102BF0008093560C1092580C81E090E090935A0C00
:102C00008093590C88EE90E090935C0C80935B0C61
:102C100085E18093650C0E94790E85E00E94330E59
:102C2000882399F10E947A0DE12CF12C8701809183
:102C30004C0C90914D0CDC01ED91FC910480F581E0
:102C4000E02D1995892BD9F006301105A1F080915E
:102C50004C0C90914D0CDC01ED91FC910680F781BC
:102C6000E02D1995F801E65BF34F81A30F5F1F4F2D
:102C70000E947A0DDCCF86E0E82EF12C01C07801AD
:102C80000E94850D882309F4E2C068EC70E080E0C2
:102C900090E00E9440266091970C60930B0C6111AC
:102CA00043C068E274E0CE0101960E949D2ACE01E5
:102CB00001960E94590DCE0101960E94D22982E010
:102CC00090E09093570C8093560C8093580C81E0C1
:102CD00090E090935A0C8093590C87EE90E090937B
:102CE0005C0C80935B0C80E880935D0C8FEF80938D
:102CF0005E0C85E98093650C0E94790E87E00E9446
:102D0000330E81110E94B30D80910B0C81116EC0A6
:102D100081E00E94D60E882321F081E08093130C7D
:102D200065C01092130C62C080910C0C1616E4F56D
:102D30006A3074F4681709F459C0062E000C770B3A
:102D40004AE0CE0107960E94032A67E374E00DC0B3
:102D5000681709F44BC0062E000C770B4AE0CE0131
:102D600007960E94032A6DE474E0CE010D960E943E
:102D70009D2ABE01695F7F4FCE010D960E9470298A
:102D8000BC01CE0101960E94942ACE0101960E94B8
:102D90008B15CE0101960E94D229CE010D960E947C
:102DA000D229CE0107961CC0681701F162E674E0D3
:102DB000CE0101960E949D2ACE0101960E948B159C
:102DC000CE0101960E94D2296FE774E0CE010196F0
:102DD0000E949D2ACE0101960E948B15CE0101967C
:102DE0000E94D22980910B0C80930C0C80910B0CCB
:102DF000811122C080910C0C882391F066E974E067
:102E0000CE0101960E949D2ACE0101960E948B154B
:102E1000CE0101960E94D22980910B0C80930C0C5C
:102E20000E947A266093000C7093010C8093020C30
:102E30009093030C81E04DC080E04BC08FEF8093F6
:102E40000B0C80910C0C8F3F09F0B0CFCFCF063028
:102E5000110509F0EBCEB6E0EB16F10409F015CF41
:102E600020E080E090E0FC01E65BF34F31A1230F0E
:102E7000019686309105B9F78091680C883221F06F
:102E80008091680C823029F4211103C080916F0C6D
:102E90001DC06FEA74E0CE0101960E949D2ACE010A
:102EA00001960E94590DCE0101960E94D22968EC2C
:102EB00074E0CE0101960E949D2ACE0101960E94E7
:102EC000590DCE0101960E94D2298FEF8093970C65
:102ED000DCCE62960FB6F894DEBF0FBECDBFDF9199
:102EE000CF911F910F91FF90EF900895CF93DF93B3
:102EF00000D000D0CDB7DEB790E0FC013897E830C5
:102F0000F10508F04AC08827EA57FF4F8F4F0C940D
:102F1000933E6CED74E0CE0101960E949D2ACE0195
:102F200001960E94590DCE0101960E94D22981E09E
:102F300090E035C06FEE74E0CE0101960E949D2AAC
:102F4000CE0101960E94590DCE0101960E94D22910
:102F500082E090E024C062E075E0CE0101960E941C
:102F60009D2ACE0101960E94590DCE0101960E9424
:102F7000D22985E090E013C065E175E0CE010196AD
:102F80000E949D2ACE0101960E94590DCE01019604
:102F90000E94D2298AE090E002C080E090E026966C
:102FA0000FB6F894DEBF0FBECDBFDF91CF9108956D
:102FB000CF92DF92EF92FF920F931F93CF93DF9305
:102FC000CDB7DEB72C970FB6F894DEBF0FBECDBFDE
:102FD00090914A0880914C08992309F45BC08F3F77
:102FE000B1F40E94B61F882309F496C168E675E023
:102FF000CE0101960E945C2ACE0101960E94B41077
:10300000CE0101960E94D22910924A0885C10E94E1
:10301000B61F882309F480C110924A0865E575E05F
:10302000CE0101960E945C2ACE0101960E94B41046
:10303000CE0101960E94D22980914D088F5F809326
:103040004D088B3018F165E475E0CE0101960E94C1
:103050005C2ACE0101960E94B410CE0101960E9416
:10306000D22940E052EC61E070E0809148089091F4
:1030700049080E944F1F8091480890914908DC013F
:10308000ED91FC910284F385E02D19958FEF8093EB
:103090004C0842C1843061F569E275E0CE010196C9
:1030A0000E949D2ACE0101960E94B410CE01019685
:1030B0000E94D22965E274E0809148089091490805
:1030C0000E94B22A8091480890914908DC01ED9154
:1030D000FC910284F385E02D199564E670E080E0B0
:1030E00090E00E94402661E088E00E94D42514C14F
:1030F0008F3FA9F568E375E084E69BE00E94A42970
:1031000069E275E0CE0101960E945C2ACE0101962B
:103110000E94B410CE0101960E94D22940E052ECE8
:1031200061E070E080914808909149080E944F1F2B
:1031300068E375E080914808909149080E94B22A9E
:103140008091480890914908DC01ED91FC9102843E
:10315000F385E02D199581E080934A0870C4823090
:1031600039F10E947A2600915A0810915B0820914B
:103170005C0830915D08DC01CB01801B910BA20B38
:10318000B30B89389341A105B10508F024C40E940E
:103190007A2600915A0810915B0820915C083091C2
:1031A0005D08601771078207930708F414C4B4C060
:1031B00080914E0890914F0820915008309151080D
:1031C000821B930B8F779927892B09F47FC08091FD
:1031D00050089091510816E0189FF001199FF00DCA
:1031E0001124E25AF74F84819581892B09F45AC042
:1031F0008091500890915108189FB001199F700D4F
:103200001124625A774F80914808909149080E9492
:10321000C62A8091480890914908DC01ED91FC9103
:103220000284F385E02D1995E0905008F090510844
:1032300061E475E0CE0101960E949D2A1E9DB001B9
:103240001F9D700D1124625A774FCE0101960E9486
:103250007029BC01CE0107960E94942ACE010796E0
:103260000E94B410CE0107960E94D229CE01019689
:103270000E94D22981E080934A080E947A266093B6
:1032800052087093530880935408909355080E94F5
:103290007A26609356087093570880935808909345
:1032A00059080EC062E075E0CE0101960E945C2ACA
:1032B000CE0101960E94B410CE0101960E94D2293F
:1032C00069E475E084E69BE00E94A4290E947A26C6
:1032D00000915608109157082091580830915908CC
:1032E000DC01CB01801B910BA20BB30B89389341FE
:1032F000A105B10508F0AEC30E947A2600915608D8
:10330000109157082091580830915908601771079B
:103310008207930708F49EC380914808909149085A
:10332000DC01ED91FC910480F581E02D1995892B4C
:1033300009F478C18091480890914908DC01ED9129
:10334000FC910680F781E02D1995182F89831A8248
:1033500041E050E0BE016F5F7F4F8EE59BE00E9431
:10336000102910924D081D3009F05CC16EE475E023
:10337000CE0107960E949D2A6EE57BE0CE0107965E
:103380000E947029BC01CE0101960E94942ACE01B0
:1033900001960E94B410CE0101960E94D229CE015E
:1033A00007960E94D2298091680B9091690B892B16
:1033B00079F169E475E08091640B9091650B0E944E
:1033C000EE40892B29F580915E0B90915F0B009761
:1033D00019F00E94EF4303C060E070E0CB01209140
:1033E000500830915108890120E030E060177107E2
:1033F0008207930709F010C18091500890915108FD
:1034000001968F779927909351088093500802C1B5
:1034100065E274E0CE0101960E949D2ACE010196DC
:103420000E94331F8C01CE0101960E94D2290F3FCA
:103430001F4F79F167EE75E0CE0101960E945C2A7C
:10344000CE0101960E94B410CE0101960E94D229AD
:1034500066EE75E0CE0101960E945C2ACE010196CF
:103460000E94B410CE0101960E94D2298091680B6F
:103470009091690B892B09F4CDC068E375E08091C8
:10348000640B9091650B0E94EE40892B09F48FC06C
:10349000C1C068E875E0CE0101960E949D2ACE0168
:1034A00001960E94331F8C01CE0101960E94D22901
:1034B0000F3F1F4FF1F06DEC75E0CE0101960E94B9
:1034C0005C2ACE0101960E94B410CE0101960E94A2
:1034D000D2296CEC75E0CE0101960E945C2ACE01E7
:1034E00001960E94B410CE0101960E94D22982E07A
:1034F0008FC067E575E0CE0101960E949D2ACE013E
:1035000001960E94331F8C01CE0101960E94D229A0
:103510000F3F1F4FF1F064EB75E0CE0101960E9462
:103520005C2ACE0101960E94B410CE0101960E9441
:10353000D22963EB75E0CE0101960E945C2ACE0190
:1035400001960E94B410CE0101960E94D22983E018
:103550005FC06BEA72E0CE0101960E949D2ACE0107
:1035600001960E94331F8C01CE0101960E94D22940
:103570000F3F1F4FF1F06AE975E0CE0101960E94FE
:103580005C2ACE0101960E94B410CE0101960E94E1
:10359000D22969E975E0CE0101960E945C2ACE012C
:1035A00001960E94B410CE0101960E94D22981E0BA
:1035B0002FC06CE575E0CE0101960E949D2ACE01D8
:1035C00001960E94331F8C01CE0101960E94D229E0
:1035D0000F3F1F4F09F160E875E0CE0101960E9490
:1035E0005C2ACE0101960E94B410CE0101960E9481
:1035F000D2296FE775E0CE0101960E945C2ACE01C8
:1036000001960E94B410CE0101960E94D22984E056
:1036100080934C0810924A0867EC74E08EE59BE0BA
:103620000E94A4290E94EB06209105023091060217
:1036300080910508909106088217930709F469C0E4
:103640008091040221FD06C0882309F458C06BE470
:1036500076E019C020FD06C0882309F450C065E358
:1036600076E011C025FD06C0882309F448C06BE24E
:1036700076E009C0A90140745570452BA1F4882358
:10368000F1F161E276E0CE0101960E945C2A60E0F1
:10369000CE0101960E941812CE0101960E94D229F5
:1036A000109204022CC0A90140785A70452B29F4CD
:1036B000882329F167E176E0E6CF22FD05C0882363
:1036C000F1F06DE076E0DFCF23FD05C08823B9F08F
:1036D00063E076E0D8CF813091F06DEF75E0CE01F8
:1036E00001960E945C2A60E0CE0101960E941812A9
:1036F000CE0101960E94D22981E0809304020E94AB
:1037000054118091050290910602909306088093CF
:1037100005080E947B0B0E94B70B8091EA05882365
:1037200029F10E947A266093080870930908809313
:103730000A0890930B0880910708811115C065E570
:1037400076E0CE0101960E945C2ACE0101960E948D
:10375000A62BCE0101960E94D22961E08EE20E9442
:10376000D42581E0809307081092EA05809107082C
:103770008823D9F10E947A26C0900808D0900908C1
:10378000E0900A08F0900B08DC01CB018C199D0930
:10379000AE09BF0989389341A105B105A8F068E0D9
:1037A00072E0CE0101960E945C2ACE0101960E9431
:1037B000A62BCE0101960E94D22960E08EE20E94E3
:1037C000D4251092070811C00E947A266C157D0539
:1037D0008E059F0550F40E947A2660930808709326
:1037E000090880930A0890930B0880911B0888238E
:1037F00021F00E94200810921B0880911A0888234B
:1038000009F466C080910B0C811160C08091130C8B
:10381000882309F45BC08091110C8F5F8093110C99
:10382000823008F453C082E090E09093570C80936C
:10383000560C1092580C81E090E090935A0C8093B3
:10384000590C85EE90E090935C0C80935B0C88E1C2
:103850008093650C0E94790E81E08093910C85E045
:103860000E94330E882381F10E947A0DF12CE12C05
:103870000F2D1E2D80914C0C90914D0CDC01ED9183
:10388000FC910480F581E02D1995892B41F00031E0
:10389000110509F015C190E1F92EE12C02C0F02EBE
:1038A000E12E0E94850D882309F405C162E675E0CA
:1038B000CE0101960E949D2ACE0101960E94590DCB
:1038C000CE0101960E94D2290E94AC1510921A08CE
:1038D00080911908882399F08CE00E94AB2561E063
:1038E000892B09F060E08CE00E94D4258CE00E94D6
:1038F000AB25682F8DE00E94D42510921908809185
:1039000018088111109218080E947A2660931408F2
:10391000709315088093160890931708C0901008AC
:10392000D0901108E0901208F09013088B019C01D0
:103930000C191D092E093F09023011052105310519
:10394000D8F120910F082C19260F20930F086093AF
:1039500010087093110880931208909313082A306E
:1039600008F41FC110920F0890910E089F5F90936A
:103970000E0881E080931B089A3008F412C110925F
:103980000E0890910D089F5F90930D0880931A0880
:10399000953008F406C110920D0890910C089F5FB5
:1039A00090930C0880931908923008F4FAC0109292
:1039B0000C0880931808F5C06C157D058E059F05D1
:1039C00008F0EFC0609310087093110880931208FC
:1039D00090931308E6C065E875E084E69BE00E94DA
:1039E000A42962E175E0CE0101960E945C2ACE0115
:1039F00001960E94B410CE0101960E94D22965E87A
:103A000075E080914808909149080E94B22A8091FF
:103A1000480890914908DC01ED91FC910284F385FE
:103A2000E02D199581E080934A080E947A266093E0
:103A30005A0870935B0880935C0890935D080E941D
:103A40007A26609352087093530880935408909399
:103A5000550862CC65E875E084E69BE00E94A429E5
:103A600065E875E080914808909149080E94B22A63
:103A70008091480890914908DC01ED91FC91028405
:103A8000F385E02D199581E080934A080E947A26FB
:103A9000609352087093530880935408909355088C
:103AA0000E947A26609356087093570880935808AE
:103AB0009093590831CC0031110509F0D9CE14C0CA
:103AC00080914C0C90914D0CDC01ED91FC910680A5
:103AD000F781E02D1995F801E65BF34F87A30F5F9F
:103AE0001F4F0E947A0DC6CE8091750C2091920CCA
:103AF00090E0821B91090297C4F0F090750CF21AC5
:103B0000EF2DEE0F00E010E08EEFE82EEE0EFF201E
:103B100081F1ED5FF0E0E65BF34F87A10E9476173D
:103B2000080F191FFA94EE2DEFCF8091760C8823A1
:103B300051F08091750C2817D1F08091760C0E947D
:103B400076178C0116C08091750C281310C08091D7
:103B5000770C8E3051F48091940C8F5F8093940C8D
:103B6000853128F01092940C17C01092940C00E04C
:103B700010E08091750C8093920C0F3F69F080915A
:103B8000060C9091070C800F911D07FD9A9590935C
:103B9000070C8093060C02C00E94AC151092110C09
:103BA00095CE2C960FB6F894DEBF0FBECDBFDF9139
:103BB000CF911F910F91FF90EF90DF90CF900895DC
:103BC0008EE296E00E94D82321E0892B09F420E0C0
:103BD000822F0895CF93DF93CDB7DEB762970FB6EC
:103BE000F894DEBF0FBECDBFBC01CE0101960E948E
:103BF000942A66EA7BE0CE0107960E94942A64E943
:103C00007BE0CE010D960E94942AAE014F5F5F4F7C
:103C1000BE01695F7F4FCE010D960E94A111CE01BA
:103C20000D960E94D229CE0107960E94D229CE017C
:103C300001960E94D22962960FB6F894DEBF0FBE9D
:103C4000CDBFDF91CF9108951F93CF93DF93CDB771
:103C5000DEB762970FB6F894DEBF0FBECDBF162F4A
:103C6000BC01CE0101960E94942A68EE7BE0CE0151
:103C700007960E94942A64E97BE0CE010D960E948B
:103C8000942AAE014F5F5F4FBE01695F7F4FCE0147
:103C90000D960E94A111CE010D960E94D229CE014F
:103CA00007960E94D229CE0101960E94D2291111B5
:103CB0000E94541162960FB6F894DEBF0FBECDBFBE
:103CC000DF91CF911F910895CF93DF93CDB7DEB7EA
:103CD00062970FB6F894DEBF0FBECDBF20914C089F
:103CE000223079F06EE875E0CE0101960E949D2A9F
:103CF000CE0101960E94B410CE0101960E94D229F5
:103D000029C0BC01CE0101960E94942A64EF7BE099
:103D1000CE0107960E94942A6EEE7BE0CE010D96AE
:103D20000E94942AAE014F5F5F4FBE01695F7F4FD3
:103D3000CE010D960E94A111CE010D960E94D229AE
:103D4000CE0107960E94D229CE0101960E94D22967
:103D50000E94541162960FB6F894DEBF0FBECDBF1D
:103D6000DF91CF910895CF93DF93CDB7DEB7629700
:103D70000FB6F894DEBF0FBECDBFBC01CE010196D9
:103D80000E94942A6CEA7BE0CE0107960E94942A56
:103D900064E97BE0CE010D960E94942AAE014F5F4C
:103DA0005F4FBE01695F7F4FCE010D960E94A1114A
:103DB000CE010D960E94D229CE0107960E94D229EB
:103DC000CE0101960E94D22962960FB6F894DEBF0A
:103DD0000FBECDBFDF91CF910895CF93DF93CDB7C5
:103DE000DEB762970FB6F894DEBF0FBECDBFBC0141
:103DF000CE0101960E94942A62EB7BE0CE010796E9
:103E00000E94942A64E97BE0CE010D960E94942AD8
:103E1000AE014F5F5F4FBE01695F7F4FCE010D96D0
:103E20000E94A111CE010D960E94D229CE010796C3
:103E30000E94D229CE0101960E94D22962960FB625
:103E4000F894DEBF0FBECDBFDF91CF910895E9E1B9
:103E5000FCE08FEF90E0928B818B948B838B8AE2D6
:103E60009CE00C942E0FCF93DF932091620B309146
:103E7000630B232B79F0FC01C0915E0BD0915F0B9B
:103E800060817181CE010E94FE40009719F08C1B69
:103E90009D0B02C08FEF9FEFDF91CF910895CF92DE
:103EA000DF92EF92FF920F931F93CF93DF93EC017A
:103EB0006A017B01E889F98982E080834115514ECE
:103EC00061057105B1F060E079E08DE390E0A70154
:103ED00096010E94713E89019A0101501109210940
:103EE00031093695279517950795980101151041C9
:103EF000A8F0E889F989108260E874E88EE190E022
:103F0000A70196010E94713EDA01C9010197A1093A
:103F1000B109B695A795979587959C01EC85FD8588
:103F20003083EE85FF852083188EEC89FD8986E03D
:103F30008083EA89FB89808180618083EA89FB89AB
:103F4000808188608083EA89FB89808180688083A2
:103F5000EA89FB8980818F7D8083DF91CF911F91DA
:103F60000F91FF90EF90DF90CF9008950F931F93E4
:103F70000E947A260091520810915308209154080B
:103F800030915508601771078207930750F40E941B
:103F90007A26609352087093530880935408909344
:103FA00055080E947A2600915208109153082091DA
:103FB000540830915508DC01CB01801B910BA20BFA
:103FC000B30B21E088389341A105B10508F420E046
:103FD000822F1F910F910895CF93DF93CDB7DEB756
:103FE00062970FB6F894DEBF0FBECDBFBC01CE0105
:103FF00001960E94942A6EE87BE0CE0107960E940B
:10400000942A68E87BE0CE010D960E94942AAE01C6
:104010004F5F5F4FBE01695F7F4FCE010D960E94DB
:10402000A111CE010D960E94D229CE0107960E94C1
:10403000D229CE0101960E94D2290E945411629683
:104040000FB6F894DEBF0FBECDBFDF91CF910895BC
:104050000F931F93CF93DF93CDB7DEB769970FB65A
:10406000F894DEBF0FBECDBF282F8B0164E97BE043
:10407000CE014396298F0E94942A298D223069F01F
:104080002330A1F02130D9F54AE0B801CE010196E4
:104090000E94D72964EC7BE011C04AE0B801CE0150
:1040A00001960E94D72960ED7BE008C04AE0B80184
:1040B000CE0101960E94D7296CED7BE0CE010796D8
:1040C0000E94942ABE016D5E7F4FCE010D960E9424
:1040D000942AAE014F5F5F4FBE01695F7F4FCE01F3
:1040E0000D960E94A111CE010D960E94D229CE01FB
:1040F00007960E94D229CE0101960E94D229CE01B4
:1041000043960E94D22969960FB6F894DEBF0FBE7F
:10411000CDBFDF91CF911F910F9108952091270C72
:104120002F5F243018F42093270C02C01092270C24
:104130002091270C2130F9F070F02230D1F123309A
:1041400009F051C080E590E090932B0C80932A0CED
:104150008BEF90E044C06AE070E00E94493EFC01B1
:10416000E75EF34F838190E090932B0C80932A0CB1
:104170008DEF90E034C08A309105A0F064E670E0E5
:104180000E94493E6AE070E00E94493EFB01E75E02
:10419000F34F838190E090932B0C80932A0C8FEE49
:1041A00090E01DC08FEF90E090932B0C80932A0C31
:1041B00016C084369105B0F368EE73E00E94493E64
:1041C00064E670E00E94493EFB01E75EF34F8381A5
:1041D00090E090932B0C80932A0C87EF90E09093C3
:1041E0002D0C80932C0C8AE29CE00C942E0F0F93E4
:1041F0001F930E947A260091000C1091010C2091CF
:10420000020C3091030C601771078207930750F47A
:104210000E947A266093000C7093010C8093020C2C
:104220009093030C0E947A260091000C1091010CCF
:104230002091020C3091030CDC01CB01801B910B0F
:10424000A20BB30B21E0843F9140A105B10508F416
:1042500020E0822F1F910F9108951F93CF93DF933A
:1042600000D000D0CDB7DEB7182F8091040C1817FE
:10427000D1F0112319F066E975E002C062EB75E038
:10428000CE0101960E949D2ACE0101960E948B15B7
:10429000CE0101960E94D229612F80910F0C0E94BD
:1042A000D4251093040C0E947A266093000C70931E
:1042B000010C8093020C9093030C0E94F720811153
:1042C00019C080914C0C90914D0CDC01ED91FC914A
:1042D0000480F581E02D1995892B79F380914C0CA0
:1042E00090914D0CDC01ED91FC910680F781E02D61
:1042F0001995E3CF26960FB6F894DEBF0FBECDBF5B
:10430000DF91CF911F910895CF93DF93CDB7DEB7A3
:1043100062970FB6F894DEBF0FBECDBF4AE0682F9C
:10432000CE0101960E942F2A60E77BE0CE0107961E
:104330000E94942A6AE67BE0CE010D960E94942AA0
:10434000AE014F5F5F4FBE01695F7F4FCE010D969B
:104350000E94A111CE010D960E94D229CE0107968E
:104360000E94D229CE0101960E94D22962960FB6F0
:10437000F894DEBF0FBECDBFDF91CF910895CF93EC
:10438000DF93CDB7DEB762970FB6F894DEBF0FBEEE
:10439000CDBF4AE0BC01CE0101960E94D72966E755
:1043A0007BE0CE0107960E94942A6AE67BE0CE016C
:1043B0000D960E94942AAE014F5F5F4FBE01695F68
:1043C0007F4FCE010D960E94A111CE010D960E9445
:1043D000D229CE0107960E94D229CE0101960E94D1
:1043E000D22962960FB6F894DEBF0FBECDBFDF9123
:1043F000CF910895CF93DF93CDB7DEB762970FB615
:10440000F894DEBF0FBECDBF4AE0BC01CE010196DD
:104410000E94D7296CE77BE0CE0107960E94942A80
:104420006AE67BE0CE010D960E94942AAE014F5FB2
:104430005F4FBE01695F7F4FCE010D960E94A111B3
:10444000CE010D960E94D229CE0107960E94D22954
:10445000CE0101960E94D22962960FB6F894DEBF73
:104460000FBECDBFDF91CF910895CF93DF93CDB72E
:10447000DEB762970FB6F894DEBF0FBECDBFBC01AA
:10448000CE0101960E94942A62E87BE0CE01079655
:104490000E94942A6AE67BE0CE010D960E94942A3F
:1044A000AE014F5F5F4FBE01695F7F4FCE010D963A
:1044B0000E94A111CE010D960E94D229CE0107962D
:1044C0000E94D229CE0101960E94D22962960FB68F
:1044D000F894DEBF0FBECDBFDF91CF9108954F920C
:1044E0005F926F927F928F929F92AF92BF92CF9284
:1044F000DF92EF92FF920F931F93CF93DF934B01C5
:104500005C018091230890912408A0912508B09126
:10451000260888169906AA06BB0609F4C2C08CE3D1
:10452000C82ED12CE12CF12CC501B401A7019601B4
:104530000E94713E60931C08CA01B901A70196014F
:104540000E94713E60931D08CA01B90128E130E064
:1045500040E050E00E94713E69017A0160931E08BC
:10456000CA01B9016C5F7F4F8F4F9F4F27E030E04A
:1045700040E050E00E94713E6F5F60931F08412C45
:10458000512C320140E004E610E0C0E9D1E0242FD4
:1045900030E02E54384FF901E370FF27309789F44B
:1045A000C901B8010E945D3E892B31F4C901BE01E9
:1045B0000E945D3E892B29F48EE691E0A0E0B0E0F8
:1045C00004C08DE691E0A0E0B0E0480E591E6A1EDE
:1045D0007B1ED301C201AA27BB27C816D906EA064B
:1045E000FB0610F04F5FD3CF40932208309799F429
:1045F000C90164E670E00E945D3E892B39F4C9016F
:1046000060E971E00E945D3E892B29F48EE691E01D
:10461000A0E0B0E004C08DE691E0A0E0B0E0481A70
:10462000590A6A0A7B0AC418D508E608F708C901BE
:1046300064E670E00E945D3EEC01C90160E971E052
:104640000E945D3EA3E2B2E020E0213039F43097D1
:1046500049F4209729F4009729F402C04C9103C033
:104660004DE101C04CE150E060E070E0C416D506B9
:10467000E606F70640F0C41AD50AE60AF70A2F5FE5
:1046800011962C3011F72F5F20932108C394C0920C
:1046900020088092230890922408A0922508B092C6
:1046A0002608DF91CF911F910F91FF90EF90DF903F
:1046B000CF90BF90AF909F908F907F906F905F90C2
:1046C0004F9008951F920F920FB60F9211240BB6C0
:1046D0000F922F933F934F935F936F937F938F939B
:1046E0009F93AF93BF93EF93FF938EE296E00E9468
:1046F0002125FF91EF91BF91AF919F918F917F9174
:104700006F915F914F913F912F910F900BBE0F9042
:104710000FBE0F901F9018951F920F920FB60F9219
:1047200011240BB60F922F933F934F935F936F9388
:104730007F938F939F93AF93BF93EF93FF938EE2FB
:1047400096E00E94392BFF91EF91BF91AF919F911D
:104750008F917F916F915F914F913F912F910F902A
:104760000BBE0F900FBE0F901F901895FC01918DFE
:10477000828D981761F0828DDF01A80FB11D5D96C3
:104780008C91928D9F5F9F73928F90E008958FEF31
:104790009FEF0895FC01918D828D981731F0828DE5
:1047A000E80FF11D858D90E008958FEF9FEF08953C
:1047B000FC01918D228D892F90E0805C9F4F821BA0
:1047C00091098F739927089580E090E0892B21F05B
:1047D0000E94D62881111DC080E090E0892B41F015
:1047E00080E090E0892B21F00E940000811114C02C
:1047F00080E090E0892B21F00E94E01D81110FC024
:1048000080E090E0892B81F00E94CC2881110AC0C1
:1048100008950E940000E0CF0E940000E9CF0E94AE
:104820000000EECF0C940000089590E0FC01319759
:10483000E231F10508F04EC08827E257FF4F8F4F55
:104840000C94933E809180008F7703C0809180000C
:104850008F7D80938000089580918000877FF9CFBD
:1048600084B58F7702C084B58F7D84BD0895809113
:10487000B0008F7703C08091B0008F7D8093B0002F
:104880000895809190008F7707C0809190008F7D70
:1048900003C080919000877F80939000089580915D
:1048A000A0008F7707C08091A0008F7D03C080910A
:1048B000A000877F8093A0000895809120018F77CA
:1048C00007C0809120018F7D03C080912001877FE8
:1048D0008093200108953FB7F89480913208909119
:1048E0003308A0913408B091350826B5A89B05C0BF
:1048F0002F3F19F00196A11DB11D3FBFBA2FA92F5F
:10490000982F8827820F911DA11DB11DBC01CD01DB
:1049100042E0660F771F881F991F4A95D1F70895C7
:10492000EF92FF920F931F93CF93DF9300D000D0AD
:10493000CDB7DEB78C017A016BE877E00E945C2A84
:104940008AE0E816F1042CF469E877E0C8010E94D7
:10495000E0284AE0B701CE0101960E94032ABE0179
:104960006F5F7F4FC8010E943E29CE0101960E94D1
:10497000D229C80126960FB6F894DEBF0FBECDBF70
:10498000DF91CF911F910F91FF90EF900895EF92DB
:10499000FF920F931F93CF93DF93EC017B0167ECA2
:1049A00074E008960E949D2A8E01025F1F4F67ECFB
:1049B00074E0C8010E949D2A8EE296E09983888364
:1049C00080E092ECA1E0B0E08C839D83AE83BF8356
:1049D0008DEC95E09B838A83B701C801DF91CF916D
:1049E0001F910F91FF90EF900C94BB291F920F9293
:1049F0000FB60F9211240BB60F922F933F934F9344
:104A00005F936F937F938F939F93AF93BF93EF9336
:104A1000FF93E0912B08F0912C081995FF91EF91ED
:104A2000BF91AF919F918F917F916F915F914F91C6
:104A30003F912F910F900BBE0F900FBE0F901F90C4
:104A40001895FC01848DDF01A80FB11DA35ABF4F3B
:104A50002C91848D90E001968F739927848FA6897D
:104A6000B7892C93A089B1898C9180648C93938DA4
:104A7000848D981306C00288F389E02D80818F7D94
:104A800080830895EF92FF920F931F93CF93DF934C
:104A9000EC0181E0888F9B8D8C8D981305C0E8898F
:104AA000F989808185FD24C0F62E0B8D10E00F5F03
:104AB0001F4F0F731127E02E8C8DE8120CC00FB61C
:104AC00007FCFACFE889F989808185FFF5CFCE010F
:104AD0000E942125F1CF8B8DFE01E80FF11DE35AD5
:104AE000FF4FF0820B8FEA89FB898081806207C0CB
:104AF000EE89FF896083E889F989808180648083F9
:104B000081E090E0DF91CF911F910F91FF90EF90A6
:104B10000895CF93DF93EC01888D8823C9F0EA894B
:104B2000FB89808185FD05C0A889B9898C9186FDA6
:104B30000FC00FB607FCF5CF808185FFF2CFA889A3
:104B4000B9898C9185FFEDCFCE010E942125E7CF59
:104B5000DF91CF910895CF93DF93282F30E0F901B3
:104B6000ED5BF84F8491F901E350F94FD491F901CD
:104B7000E954F94FC491CC2391F081110E9415247E
:104B8000EC2FF0E0EE0FFF1FE356F94FA591B49123
:104B9000EC91ED2381E090E021F480E002C080E020
:104BA00090E0DF91CF9108951F93CF93DF93282F4B
:104BB00030E0F901ED5BF84F8491F901E350F94FD2
:104BC000D491F901E954F94FC491CC23C9F0162FBF
:104BD00081110E941524EC2FF0E0EE0FFF1FED571E
:104BE000F94FA591B4918FB7F894111105C09C911C
:104BF000ED2FE095E92302C0EC91ED2BEC938FBFF4
:104C0000DF91CF911F910895CF93DF9390E0FC0146
:104C1000E350F94F2491FC01E954F94F8491882322
:104C200061F190E0880F991FFC01E759F94FC59198
:104C3000D491FC01ED57F94FA591B491611109C0D0
:104C40009FB7F8948881209582238883EC912E2346
:104C50000BC0623061F49FB7F8943881822F809541
:104C600083238883EC912E2B2C939FBF06C08FB794
:104C7000F894E8812E2B28838FBFDF91CF91089580
:104C80008F929F92AF92BF92CF92DF92EF92FF925C
:104C90006B017C010E946B244B015C01C114D104A7
:104CA000E104F104F1F00E946B24DC01CB018819CE
:104CB0009909AA09BB09883E9340A105B10570F383
:104CC00021E0C21AD108E108F10888EE880E83E0DD
:104CD000981EA11CB11CC114D104E104F10419F700
:104CE000DDCFFF90EF90DF90CF90BF90AF909F907F
:104CF0008F9008952FB7F89460912E0870912F0827
:104D000080913008909131082FBF08954F925F92A3
:104D10006F927F928F929F92AF92BF92EF92FF928B
:104D20000F931F93CF93DF93CDB7DEB76E970FB678
:104D3000F894DEBF0FBECDBF8C017B0167EC74E041
:104D4000CE010D960E949D2AB701CE0143960E9486
:104D5000942A67EC74E0CE0149960E949D2A78015E
:104D60002EE0E20EF11C0E947A2640903E08509000
:104D70003F0860904008709041084B015C01841826
:104D80009508A608B7088091420890914308A09121
:104D90004408B0914508E8EE8E16E3E09E06A104B3
:104DA000B104D0F00196A11DB11D809342089093EB
:104DB0004308A0934408B0934508B301A2014851A9
:104DC0005C4F6F4F7F4F40933E0850933F08609376
:104DD000400870934108C7CF40913A0850913B0872
:104DE00060913C0870913D0884179507A607B707A6
:104DF00008F456C0E0913808F0913908309709F46A
:104E00004FC01995611571058105910539F16093C0
:104E10004208709343088093440890934508DC014E
:104E2000CB01845D9E4FAF4FBF4F80933A08909364
:104E30003B08A0933C08B0933D0882E090E090933B
:104E40003708809336080E947A2660933E08709354
:104E50003F08809340089093410822C08091420807
:104E600090914308A0914408B0914508845D9E4FFD
:104E7000AF4FBF4F80933A0890933B08A0933C08F4
:104E8000B0933D0881E090E02091360830913708DA
:104E9000232B11F480E090E090933708809336083C
:104EA0008090420890904308A0904408B090450834
:104EB000C501B4010E946F2240911E0850E0B80164
:104EC000CE0107960E9490246EE877E0CE01079607
:104ED0000E94E028C501B4010E946F2240911D0884
:104EE00050E0B801CE0101960E949024BE016F5F90
:104EF0007F4FCE0107960E943E29CE0101960E9467
:104F0000D2296CE877E0CE0107960E94E028C5011F
:104F1000B4010E946F2240911C0850E0B801CE01FC
:104F200001960E949024BE016F5F7F4FCE010796CD
:104F30000E943E29CE0101960E94D229BE01695FDE
:104F40007F4FCE0101960E94942A63ED75E0CE0159
:104F500001960E945729B7010E94702961ED75E002
:104F60000E945729BE016D5E7F4F0E947029BC01CF
:104F7000CE0149960E94BB29CE0101960E94D229FA
:104F8000CE0107960E94D2298D859E850097A9F0B3
:104F9000698D7A8D6115710571F04F8558892D8D58
:104FA0003E8D4217530738F00E94F7408D8D9E8D3D
:104FB0009A8B898B12C00E945F3F898D9A8D9E8744
:104FC0008D878B8D9C8D988B8F878D8D9E8D9A8BE9
:104FD000898B1A8E198E1C8E1B8E1E8E1D8ECE01F5
:104FE00049960E94D229CE0143960E94D229BE0141
:104FF000635F7F4FF801808191810E94C62ACE01B4
:105000000D960E94D2296E960FB6F894DEBF0FBEA1
:10501000CDBFDF91CF911F910F91FF90EF90BF9087
:10502000AF909F908F907F906F905F904F9008957A
:105030001F920F920FB60F9211242F933F938F93CD
:105040009F93AF93BF9380912E0890912F08A091CA
:105050003008B091310830912D0823E0230F2D370F
:1050600020F40196A11DB11D05C026E8230F02966C
:10507000A11DB11D20932D0880932E0890932F0819
:10508000A0933008B0933108809132089091330892
:10509000A0913408B09135080196A11DB11D8093EF
:1050A000320890933308A0933408B0933508BF9129
:1050B000AF919F918F913F912F910F900FBE0F90C5
:1050C0001F9018950895CF92DF92EF92FF920F9361
:1050D0001F93CF93DF936C017A018B01C0E0D0E086
:1050E000CE15DF0589F0D8016D918D01D601ED91C6
:1050F000FC910190F081E02DC6011995892B11F4E6
:105100007E0102C02196ECCFC701DF91CF911F91A4
:105110000F91FF90EF90DF90CF9008950E94E040B4
:105120006115710579F0FB0101900020E9F73197D5
:10513000AF01461B570BDC01ED91FC910280F3811E
:10514000E02D199480E090E008950F931F93CF9382
:10515000DF93EC0188819981009729F02A813B81B6
:105160002617370788F48B016F5F7F4F0E94F73F48
:10517000009761F0998388831B830A832C813D818A
:10518000232B11F4FC01108281E001C080E0DF914B
:10519000CF911F910F9108958BEC96E00E94D82338
:1051A00021E0892B09F420E0822F089588E697E01A
:1051B0000E94D82321E0892B09F420E0822F089552
:1051C000EF92FF920F931F93CF93DF9361157105B9
:1051D00011F480E01EC08B01EC01CB010E941D4444
:1051E0000097B1F02C813D817C01E20EF31EB701E6
:1051F000CE010E94A528882361F3288139818C8102
:105200009D81B801820F931F0E941644FD82EC829B
:1052100081E0DF91CF911F910F91FF90EF90089562
:10522000EF92FF920F931F93CF93DF93FC012481A2
:1052300035816115710511F480E019C041155105E2
:10524000A9F07B01EC018A01020F131FB8010E9433
:10525000A528882389F3288139818C819D81B70114
:10526000820F931F0E94F7401D830C8381E0DF9122
:10527000CF911F910F91FF90EF900895FB01448112
:105280005581608171810C941029CF93DF93EC01DB
:1052900088819981009711F00E945F3F19821882DE
:1052A0001D821C821B821A82DF91CF910895CF93B9
:1052B000DF93EC016115710561F0FB0101900020A5
:1052C000E9F73197AF01461B570B0E941029811156
:1052D00003C0CE010E944529CE01DF91CF910895F0
:1052E000CF93DF93EC01FB01448155816081718193
:1052F0000E941029811103C0CE010E944529CE01D0
:10530000DF91CF910895EF92FF920F931F93CF9368
:10531000DF93EC017B018A01BA010E94A52881116B
:1053200004C0CE010E94452907C01D830C83B7012C
:10533000888199810E94F740CE01DF91CF911F9122
:105340000F91FF90EF900895CF93DF93EC016115DB
:10535000710559F0FB0101900020E9F73197AF0189
:10536000461B570B0E94832902C00E944529CE018B
:10537000DF91CF910895CF93DF93EC01FB01861766
:10538000970761F0608171816115710529F0448191
:1053900055810E94832902C00E944529CE01DF91D8
:1053A000CF910895FC01808191810C945F3F0F9310
:1053B0001F93CF93DF93CDB7DEB761970FB6F89405
:1053C000DEBF0FBECDBF8C01CB01F8011182108270
:1053D000138212821582148250E0BE016F5F7F4FEC
:1053E0000E945144BE016F5F7F4FC8010E94A429F3
:1053F00061960FB6F894DEBF0FBECDBFDF91CF919F
:105400001F910F9108950F931F93CF93DF93CDB703
:10541000DEB762970FB6F894DEBF0FBECDBF8C012A
:10542000CB01F8011182108213821282158214823C
:1054300050E0BE016F5F7F4F0E942644BE016F5F48
:105440007F4FC8010E94A42962960FB6F894DEBF70
:105450000FBECDBFDF91CF911F910F9108950F9394
:105460001F93CF93DF93CDB7DEB729970FB6F8948C
:10547000DEBF0FBECDBF8C01862FF80111821082D6
:10548000138212821582148250E0BE016F5F7F4F3B
:1054900090E00E945144BE016F5F7F4FC8010E949F
:1054A000A42929960FB6F894DEBF0FBECDBFDF91B9
:1054B000CF911F910F910895EF92FF920F931F9339
:1054C000CF93DF93EC01198218821B821A821D820E
:1054D0001C826115710509F18B01CB010E941D44ED
:1054E0007C01BC01CE010E94A528811109C0CE011A
:1054F000DF91CF911F910F91FF90EF900C94452970
:10550000FD82EC82B80188819981DF91CF911F9152
:105510000F91FF90EF900C941644DF91CF911F9163
:105520000F91FF90EF900895FC0111821082138279
:105530001282158214820C94BB29FC011182108204
:1055400013821282158214826115710551F0FB01DC
:1055500001900020E9F73197AF01461B570B0C94DF
:10556000832908950F931F93CF93DF93EC010E943B
:1055700090288C0165EC74E0CE010E949028800F89
:10558000911FDF91CF911F910F9108950F931F935A
:10559000CF93DF93EC01E881F981DB0114964D9103
:1055A0005C9115976D917C910280F381E02D1995A6
:1055B0008C0165EC74E0CE010E949028800F911F51
:1055C000DF91CF911F910F9108951F920F920FB607
:1055D0000F9211240BB60F922F933F934F935F932B
:1055E0006F937F938F939F93AF93BF93EF93FF93AB
:1055F0008BEC96E00E942125FF91EF91BF91AF9136
:105600009F918F917F916F915F914F913F912F91DA
:105610000F900BBE0F900FBE0F901F9018951F920A
:105620000F920FB60F9211240BB60F922F933F9348
:105630004F935F936F937F938F939F93AF93BF939A
:10564000EF93FF9388E697E00E942125FF91EF9169
:10565000BF91AF919F918F917F916F915F914F918A
:105660003F912F910F900BBE0F900FBE0F901F9088
:105670001895FC01A089B1898C91A689B78982FD12
:105680000FC09C91818D8F5F8F73228D821749F09F
:10569000218DDF01A20FB11D5D969C93818F08952E
:1056A0008C9108951F920F920FB60F9211240BB692
:1056B0000F922F933F934F935F936F937F938F93AB
:1056C0009F93AF93BF93EF93FF938BEC96E00E9471
:1056D000392BFF91EF91BF91AF919F918F917F9166
:1056E0006F915F914F913F912F910F900BBE0F9053
:1056F0000FBE0F901F9018951F920F920FB60F922A
:1057000011240BB60F922F933F934F935F936F9398
:105710007F938F939F93AF93BF93EF93FF9388E60D
:1057200097E00E94392BFF91EF91BF91AF919F912C
:105730008F917F916F915F914F913F912F910F903A
:105740000BBE0F900FBE0F901F901895CF93DF9355
:1057500000D000D0CDB7DEB7BC01CE0101960E94CB
:10576000942ABE016F5F7F4F86E39CE00E948626ED
:10577000CE0101960E94D22926960FB6F894DEBF7C
:105780000FBECDBFDF91CF910895CF93DF93CDB7FB
:10579000DEB7CE55D1090FB6F894DEBF0FBECDBF30
:1057A000789484B5826084BD84B5816084BD85B5FC
:1057B000826085BD85B5816085BD80916E00816008
:1057C00080936E00109281008091810082608093AE
:1057D00081008091810081608093810080918000B0
:1057E0008160809380008091B10084608093B100DB
:1057F0008091B00081608093B000809191008260C0
:1058000080939100809191008160809391008091BC
:1058100090008160809390008091A10082608093CD
:10582000A1008091A10081608093A1008091A000DF
:1058300081608093A000809121018260809321018A
:1058400080912101816080932101809120018160FC
:105850008093200180917A00846080937A00809107
:105860007A00826080937A0080917A0081608093D0
:105870007A0080917A00806880937A001092C1004B
:1058800040913A0C50913B0C60913C0C70913D0C56
:105890008091360C9091370C0E944F1F109280001F
:1058A00080E180938100FF24F394F09229088FB760
:1058B00080932A08F89480E09DE7909328088093CD
:1058C0002708909387008093860080912A088FBFD5
:1058D00080918100887F80938100909181008091E8
:1058E0002908982B909381002DEF33E030932C08FA
:1058F00020932B08F0926F0090918100892B809368
:10590000810080918100887F809381006EE772E042
:105910008E010F5F1F4FC8010E945C2AC8010E94C0
:10592000A62BC8010E94D22961E08DE20E940426C4
:1059300061E08BE20E94042661E089E20E94042675
:1059400061E081E20E94042661E084E30E94042673
:1059500061E083E30E94042661E08FE20E94042656
:1059600061E08AE20E94042661E08BE00E94042646
:1059700061E08AE00E94042661E089E00E9404263A
:1059800061E08CE20E94042661E08EE20E9404261F
:1059900061E08CE00E94042661E08DE00E94042614
:1059A00061E088E00E94042661E086E00E9404260F
:1059B00061E087E00E94042661E085E00E94042601
:1059C00060E083E00E94042660E084E00E940426F8
:1059D00060E088E00E94D42560E08DE00E94D4253C
:1059E00060E086E00E94D42560E087E00E94D42534
:1059F00060E085E00E94D42561E08DE20E94D4251C
:105A000061E08BE20E94D42561E089E20E94D42506
:105A100060E081E20E94D42561E084E30E94D42505
:105A200061E083E30E94D42561E08FE20E94D425E7
:105A300060E08AE20E94D42560E08BE00E94D425D9
:105A400060E08AE00E94D42560E089E00E94D425CD
:105A500060E08CE20E94D42560E08EE20E94D425B2
:105A600060E08CE00E94D42560E08FE10E94042673
:105A700060E087E20E94042660E085E20E9404263E
:105A800060E083E20E94042660E08BE10E9404262D
:105A900060E089E10E94042660E087E10E9404261C
:105AA00060E08FE00E94042660E08DE10E94042601
:105AB00060E082E30E94042660E085E30E94042601
:105AC00060E081E30E940426F09208020E94740CB8
:105AD00060E081E090E00E94970560E082E090E065
