:100000000C94A9030C94DA030C94DA030C94DA032D
:100010000C94DA030C94DA030C94DA030C94DA03EC
:100020000C94DA030C94571E0C94571E0C94571E14
:100030000C94DA030C94DA030C94DA030C94DA03CC
:100040000C94DA030C94DA030C94DA030C94DA03BC
:100050000C94DA030C94DA030C94DA030C94D92090
:100060000C94DA030C9432140C9408140C94DA03F4
:100070000C94DA030C94DA030C94DA030C94DA038C
:100080000C94DA030C94DA030C94DA030C94DA037C
:100090000C94DE130C94B4130C94DA030C94DA036E
:1000A0000C94DA030C94DA030C94DA030C94DA035C
:1000B0000C94DA030C94DA030C94DA030C94DA034C
:1000C0000C94DA030C94DA030C94DA030C948A137C
:1000D0000C9460130C94DA030C9436130C940C13E8
:1000E0000C94DA03F7079808A808B8088808880865
:1000F00088088808E808F808C808D808DF1DE21D45
:10010000D11DD51DDB1D191EE61DEA1DF01DF41DB8
:10011000F81DFE1D021E061E191E0C1E101E141EAA
:100120000C9498080C94FE1D0C94D11D0C94EA1D9F
:100130000C9488080C94E8080C94191E0C94F80888
:100140000C94700F0C94E61D0C94A31D0C94AD2C14
:100150000C94061E0C94A8080C94021E0C944632B3
:100160000C94D51D0C94F81D0C940C1E0C94B50E1B
:100170000C94F41D0C941B0F0C94DB1D0C94E21DCD
:100180000C94141E0C94C8080C94F90E0C94B80826
:100190000C94F7070C94F01D0C94B70F0C94101EE0
:1001A0000C94361D0C94D8080C940D0F0C948B1DD8
:1001B0000C941E1D0C94DF1D0C94371D434E3120F2
:1001C000436F6E6E656374656400434E31206469ED
:1001D00073636F6E6E6563740052454144590069E4
:1001E0006E69742073657420554341455320656ED4
:1001F00061626C652E004E4F5420524541445900B7
:10020000696E6974207365742055434145532064B9
:10021000697361626C652E00434F494E20416363F0
:100220002E20646973636F6E6E65637400434F497B
:100230004E2041636320636F6E6E65637465640076
:10024000504F574552204F4E003C3C3C20536F6668
:10025000776172652076657273696F6E2032303314
:1002600020646174653A32312F30362F32353630A2
:10027000203E3E3E00232320626967436F66666529
:1002800065204861636B203E3E2053746172742E7A
:100290002E2E0064617461203E3E20656D7074797D
:1002A000212100436865636B20436C6F7564426F66
:1002B00078205265616479203F00436865636B2054
:1002C000436C6F7564426F7820436F6E6E65637424
:1002D000696F6E203F00526573657420436F6D70C7
:1002E0006F7274212100526573706F6E73652054B4
:1002F000696D656F75742121005374617465207296
:10030000657475726E2054696D656F757421210076
:1003100000436C6F7564426F782052657475726E1D
:10032000203E3E20524553455400436C6F75644255
:100330006F782052657475726E203E3E2045525291
:100340004F5200436C6F7564426F7820526574752C
:10035000726E203C3C204255535900436C6F7564CB
:10036000426F782052657475726E203C3C20526555
:1003700061647900436C6F7564426F7820526574D4
:1003800075726E203C3C204F4B00434F494E203C41
:100390002038352E2E00434F494E204F766572206F
:1003A0003E3D2038352E00636F696E2064697363AB
:1003B0006F6E6E65637465642E00636F696E206393
:1003C0006F6E6E65637465642E005543414553201E
:1003D00067657420636F696E203D20004E4F542086
:1003E000524541445900736574205543414553209B
:1003F00064697361626C652E005245414459007313
:10040000657420554341455320656E61626C652ECD
:1004100000434E3120436F6E6E6563746564004324
:100420004E3120646973636F6E6E6563740055505E
:100430002054656D70204E6F726D616C00555020B8
:1004400054656D70204F76657200446F6F72204363
:100450006C6F736500446F6F72204F70656E005350
:10046000454C4543542043482E380053454C4543A2
:10047000542043482E370053454C454354204348AD
:100480002E360053454C4543542043482E350053E7
:10049000454C4543542043482E340053454C454376
:1004A000542043482E330053454C45435420434881
:1004B0002E320053454C4543542043482E31003AD8
:1004C000344431300054656D70203D200050554D4E
:1004D00050204F46462E00445241494E2054414E32
:1004E0004B204E4F524D414C2E00424F494C4552ED
:1004F0002046554C4C2E00435550204E4F524D41F6
:100500004C2E00524F205741544552204E4F524DD1
:10051000414C2E0050554D50204F4E2E004452411C
:10052000494E2054414E4B2046554C4C2E00424FD4
:10053000494C45522046494C4C494E472E004355A4
:1005400050204C4F53542E00524F20574154455287
:10055000204452592E0050554D50204F46462E00F3
:10056000445241494E2054414E4B204E4F524D4132
:100570004C2E00424F494C45522046554C4C2E00C3
:10058000435550204E4F524D414C2E00524F205754
:1005900041544552204E4F524D414C2E0050554D26
:1005A00050204F4E2E00445241494E2054414E4B54
:1005B0002046554C4C2E00424F494C45522046494E
:1005C0004C4C494E472E00435550204C4F53542E0F
:1005D00000524F205741544552204452592E004753
:1005E000657420636F696E203D2000476574206349
:1005F0006F696E203D003D003A0043422B53455445
:100600004000230043422B555000230000434C4F31
:100610005544424F580000002200250028002B00BE
:100620002E003100340002010000050108010B0119
:10063000000020002300260029002C002F0032009B
:100640000001000003010601090105050505070574
:1006500008080808020202020A0A0808040404043E
:10066000010101010101010103030303030303036A
:10067000040707070C0C0C0C0C0C0C0C02020202F9
:1006800006060606060606060B0B0B0B0B0B0B0BE2
:100690000102102020080810204010204080020194
:1006A0000201080402010102040810204080804079
:1006B0002010080402018004020180402010080478
:1006C0000201080402010102040810204080010216
:1006D0000408102040803000003A003A002D002D20
:1006E000002D002D002D002D002D002D00000021DB
:1006F00000240027002A002D0030003300010100F3
:1007000000040107010A0100000A0B02090C0D0E8A
:1007100008070304010000000000000000000000C2
:1007200000000000000000000000000000000000C9
:100730000000001211100000000000000000000086
:100740000000000000000000000000000000AD2CD0
:10075000463211241FBECFEFD1E2DEBFCDBF00E095
:100760000CBF13E0A0E0B2E0E2E4FFE600E00BBF64
:1007700002C007900D92AA33B107D9F72AE0AAE385
:10078000B3E001C01D92AD3BB207E1F713E0C8EA48
:10079000D3E000E006C021970109802FFE010E94EE
:1007A0001633C73AD10780E00807A9F70E94232132
:1007B0000C948F370C940000AF92BF92CF92DF92CF
:1007C000EF92FF921F93CF93DF9300D000D0CDB76D
:1007D000DEB78EE9E82E83E0F82E99E9C92E93E082
:1007E000D92E10E05701F7018081F6012081909108
:1007F0000002821303C0992309F479C1992309F4F3
:1008000076C08823A9F1123071F018F4113041F04C
:1008100004C0133059F01430D1F068E475E077C0AB
:100820006EE375E088C06EE275E098C06DE175E03A
:10083000CE0101960E942312CE0101960E94A116BC
:10084000CE0101960E94C51163ED72E034C064E1EF
:1008500075E0CE0101960E942312CE0101960E94FE
:10086000A116CE0101960E94C51166E373E039C05E
:10087000123071F018F4113041F004C0133059F007
:100880001430F9F063E075E0ACC067EF74E0C4C009
:100890006AEE74E0DCC067ED74E0CE0101960E9460
:1008A0002312CE0101960E94A116CE0101960E944C
:1008B000C51169EC72E0CE0101960E947E1260E0E3
:1008C000F4C06DEC74E0CE0101960E942312CE01BB
:1008D00001960E94A116CE0101960E94C51168EDF5
:1008E00072E0CE0101960E947E1260E0F8C088237B
:1008F00009F468C0123081F118F41130D1F005C04C
:100900001330F1F1143009F44CC061ED75E0CE0103
:1009100001960E942312CE0101960E94A116CE01DB
:1009200001960E94C51181E08093520369EC72E048
:1009300068C067EC75E0CE0101960E942312CE01DB
:1009400001960E94A116CE0101960E94C511109336
:1009500053036DEC72E070C067EB75E0CE01019659
:100960000E942312CE0101960E94A116CE0101968B
:100970000E94C51181E08093510369EC72E077C059
:1009800066EA75E0CE0101960E942312CE0101961F
:100990000E94A116CE0101960E94C51163ED72E07E
:1009A0007FC06DE975E0CE0101960E942312CE0151
:1009B00001960E94A116CE0101960E94C51166E320
:1009C00073E088C0123009F440C018F4113011F1FE
:1009D00006C0133009F454C0143009F46BC06CE83D
:1009E00075E0CE0101960E942312CE0101960E946D
:1009F000A116CE0101960E94C5111092520363ED1B
:100A000072E0CE0101960E947E12CE0101960E94F4
:100A10007D1B69C060E875E0CE0101960E9423123B
:100A2000CE0101960E94A116CE0101960E94C51129
:100A30001092530364E672E0CE0101960E947E128A
:100A4000CE0101960E94431B4EC063E775E0CE01C4
:100A500001960E942312CE0101960E94A116CE019A
:100A600001960E94C5111092510363ED72E0CE0110
:100A700001960E947E12CE0101960E94091B33C08E
:100A800060E675E0CE0101960E942312CE01019628
:100A90000E94A116CE0101960E94C51169EC72E078
:100AA000CE0101960E947E1261E0CE0101960E9465
:100AB000C91A19C066E575E0CE0101960E9423129D
:100AC000CE0101960E94A116CE0101960E94C51189
:100AD00068ED72E0CE0101960E947E1261E0CE01C7
:100AE00001960E94891ACE0101960E94C511FFEF5E
:100AF000EF1AFF0AF5018081F60181936F011F5FF4
:100B0000153009F06FCE1092000226960FB6F894B9
:100B1000DEBF0FBECDBFDF91CF911F91FF90EF9051
:100B2000DF90CF90BF90AF9008958F929F92AF9239
:100B3000BF92FF920F931F93CF93DF93CDB7DEB792
:100B40002C970FB6F894DEBF0FBECDBF80914C033B
:100B500090914D03DC01ED91FC910480F581E02D35
:100B60001995892B09F4BEC167E273E085EA9AE022
:100B70000E94971180914C0390914D03DC01ED91FF
:100B8000FC910680F781E02D19958A3309F0AAC1FE
:100B900000E010E00C311105C1F180914C039091FF
:100BA0004D03DC01ED91FC910480F581E02D199558
:100BB000892B81F380914C0390914D03DC01ED91E1
:100BC000FC910680F781E02D1995F82E65EA7AE010
:100BD000CE0101960E9475126F2DCE0101960E94E2
:100BE000BC10811104C0CE0101960E941011BE01FB
:100BF0006F5F7F4F85EA9AE00E94AE11CE010196A9
:100C00000E94C5110F5F1F4FC5CF28E030E046E0BE
:100C100050E065EA7AE0CE0101960E9493126CEDF5
:100C200072E0CE0107960E947E12BE016F5F7F4F79
:100C3000CE0107960E943B11BC018FE99AE00E9409
:100C4000AE11CE0107960E94C511CE0101960E94F9
:100C5000C5112CE030E04AE050E065EA7AE0CE01D0
:100C600001960E9493126CED72E0CE0107960E94ED
:100C70007E12BE016F5F7F4FCE0107960E943B112F
:100C8000BC0189E99AE00E94AE11CE0107960E944C
:100C9000C511CE0101960E94C51140E050E060E010
:100CA00070E08091990A90919A0A0E948035F62E00
:100CB00022E130E040E150E065EA7AE0CE010196C1
:100CC0000E9493126CED72E0CE0107960E947E1294
:100CD000BE016F5F7F4FCE0107960E943B11BC01A2
:100CE00083E99AE00E94AE11CE0107960E94C511D9
:100CF000CE0101960E94C51140E050E060E070E036
:100D00008091930A9091940A0E948035062F40E0CA
:100D100050E060E070E080919F0A9091A00A0E94EC
:100D200080356093580390919803911115C060939A
:100D3000970381E0809398036FED72E0CE010196F6
:100D40000E947E12CE0101960E94A116CE0101964C
:100D50000E94C5111FEF01C0162F209197038091AB
:100D6000580390E0821B91090A964597C0F0809144
:100D700098038823A1F080915903811110C020931A
:100D8000580369EE72E0CE0101960E947E12CE01F8
:100D900001960E94A116CE0101960E94C511111163
:100DA00032C00E9497208090930390909403A0906B
:100DB0009503B0909603681579058A059B0550F454
:100DC0000E949720609393037093940380939503FC
:100DD000909396030E9497208090930390909403A1
:100DE000A0909503B0909603DC01CB018819990976
:100DF000AA09BB0989389341A105B10580F081E0BA
:100E0000809359030CC00E949720609393037093C2
:100E100094038093950390939603109259039091B5
:100E2000580380919703981779F165EC74E0CE012F
:100E300007960E9423124AE060915803CE01019662
:100E40000E94F611BE016F5F7F4FCE0107960E9490
:100E5000D010CE0101960E94C511BE01695F7F4F7F
:100E6000CE0101960E947512CE0101960E94A11634
:100E7000CE0101960E94C51180915803809397037B
:100E8000CE0107960E94C511F11005C010929E0375
:100E900010929F030CC081E0F81203C0F0929E03F1
:100EA00006C0A0E2FA1203C081E080939F030930DC
:100EB00091F030F4083091F481E08093A0030CC0ED
:100EC0000C3029F00D3051F41092A00307C081E0DE
:100ED0008093A00303C081E08093A1038091A003CD
:100EE0008093A2032C960FB6F894DEBF0FBECDBF41
:100EF000DF91CF911F910F91FF90BF90AF909F9086
:100F00008F900895CF92DF92EF92FF920F931F93ED
:100F1000CF93DF93CDB7DEB72C970FB6F894DEBF33
:100F20000FBECDBF6091B703609392036A3319F48B
:100F300081E08093910310919103112339F08BEAA2
:100F40009AE00E94BC101F5F10939103809191035F
:100F5000863008F45DC16FEB74E0CE0101960E940B
:100F600023128091AF0A9091B00A892B81F00091F1
:100F7000AB0A1091AC0A69817A81C8010E9466357A
:100F8000009729F09C01201B310B890102C00FEF53
:100F90001FEFCE0101960E94C5110F3F1F4F09F4AC
:100FA00077C080919103893208F432C11092910385
:100FB0000E949720C0908D03D0908E03E0908F0305
:100FC000F0909003DC01CB018C199D09AE09BF099B
:100FD00089389341A105B10508F063C00E949720AC
:100FE0006C157D058E059F0508F45BC04AC063EB58
:100FF00074E0CE0101960E942312CE0101960E9458
:10100000A116CE0101960E94C51181E00E944E1AE0
:1010100081E0809362038093600380915003882372
:1010200009F47BC090E00E94131A1092500367EC01
:1010300072E0CE0101960E947E12CE0101960E94BE
:10104000D919CE0101960E94C51165EF72E0CE015B
:1010500001960E947E12CE0101960E949F19CE0138
:1010600001960E94C5110E94F50C1092AE030E94D9
:10107000972060938D0370938E0380938F039093DA
:10108000900367E273E08BEA9AE00E949711C0C078
:1010900067E273E08BEA9AE00E9497111092910345
:1010A000B7C02DE030E04BE050E06BEA7AE0CE01D3
:1010B00001960E9493126CED72E0CE0107960E9499
:1010C0007E12BE016F5F7F4FCE0107960E943B11DB
:1010D000BC0187E89AE00E94AE11CE0107960E94FB
:1010E000C511CE0101960E94C51140E050E060E0BC
:1010F00070E08091870A9091880A0E948035609301
:101100008C03862F90E0FC013197EC30F10550F014
:10111000109262031092600380CF80E090E00E9402
:10112000131A85CF8827EE58FF4F8F4F0C94163334
:1011300067EA74E0CE0101960E942312CE01019667
:101140000E94A116CE0101960E94C51182E05ECFD9
:101150006BE974E0CE0101960E942312CE01019644
:101160000E94A116CE0101960E94C51183E04ECFC8
:101170006FE874E0CE0101960E942312CE01019621
:101180000E94A116CE0101960E94C51184E03ECFB7
:1011900063E874E0CE0101960E942312CE0101960D
:1011A0000E94A116CE0101960E94C51185E02ECFA6
:1011B00067E774E0CE0101960E942312CE010196EA
:1011C0000E94A116CE0101960E94C51186E01ECF95
:1011D0006BE674E0CE0101960E942312CE010196C7
:1011E0000E94A116CE0101960E94C51187E00ECF84
:1011F0006FE574E0CE0101960E942312CE010196A4
:101200000E94A116CE0101960E94C51188E0FECE73
:101210002C960FB6F894DEBF0FBECDBFDF91CF91F5
:101220001F910F91FF90EF90DF90CF900895DC0118
:10123000ED91FC910190F081E02D1994FF920F93B4
:101240001F93CF93DF93CDB7DEB768970FB6F894AF
:10125000DEBF0FBECDBF80914E0390914F03DC01E6
:10126000ED91FC910480F581E02D1995892B09F40D
:1012700084C280916003811180C211E010936103E8
:101280000E949720609354037093550380935603F4
:101290009093570380914E0390914F03DC01ED91A1
:1012A000FC910680F781E02D19958093B70390910A
:1012B000B5039093B6038093B503903631F48F391C
:1012C00009F0F5C00E94E816F2C09835C9F4873AD3
:1012D00009F0EDC00AE313E082E1F82EF00E8091F0
:1012E0004E0390914F03F80161918F01DC01ED9164
:1012F000FC910190F081E02D1995F012F0CFD7C04C
:10130000913631F48E3909F0D2C00E94C016CFC098
:10131000923621F48D3909F0CAC0D4CF933669F4DE
:101320008C3909F0C4C00E94E8161093B4031092DF
:10133000B3038FEF8093B103BAC0953621F48A3995
:1013400009F0B5C0BFCF923099F48111B0C080913F
:10135000B403882309F4ABC08091B0038111A7C006
:101360008091B3038111A3C081E08093B0039FC03B
:10137000953071F4823009F09AC08091B4038823CB
:1013800009F495C081E08093B3031092AF038FC03E
:101390009B3509F053C0843A09F089C090915A03F3
:1013A0008091AE03981721F08091B303882321F038
:1013B0008091AD03882351F00E94F01680915A036A
:1013C0008093AE0381E08093AD0371C08091B3033D
:1013D000882349F162E270E080914E0390914F03BF
:1013E0000E94170962E070E080914E0390914F03D4
:1013F0000E9417096BE070E080914E0390914F03BB
:101400000E94170965E170E080914E0390914F03AF
:101410000E9417096CE170E080914E0390914F0398
:101420000E94170944C08091AC0381116ECF809156
:10143000AB038823E1F10E94F01639C09A3501F51B
:10144000853AA9F58091B303882329F00E94C0163C
:101450001092B30304C00E94F0161092AD03809165
:10146000AC03882321F00E94C0161092AC03809137
:10147000AB038823E1F00E94F0161092AB0317C073
:10148000993519F4863A99F4F2CF9D3519F4823AD8
:1014900071F4EDCF9C3519F4833A49F4E8CF9111FA
:1014A00006C0873109F40ECF843009F40BCF809148
:1014B000B403882309F469C08091B003882309F438
:1014C00064C01091B1031093B2038091B70380936D
:1014D000B1039091AA039F5F933018F49093AA03ED
:1014E00059C01092AA031092B4031092B0031111C4
:1014F00009C0823009F04EC081E08093A9030E94A8
:10150000E81648C01230C1F5811144C08091A9038A
:10151000882329F00E94E8161092A9033BC00E947C
:10152000E81681E08093AC0310925A0367EC72E0F6
:10153000CE0101960E947E12CE0101960E94400EBD
:10154000CE0101960E94C51167EC72E0CE010196B2
:101550000E947E12CE0101960E947A0ECE01019663
:101560000E94C51180915A0390E00E9454170E9476
:10157000F50C1092AE030EC0113061F4833051F4BB
:101580000E94E8161093AB0305C08FEF8093B10360
:101590008093B20367E273E0CE0143960E947E120D
:1015A00067E273E0CE010D960E947E1267E273E05F
:1015B000CE0107960E947E128091B403882309F41D
:1015C000CEC08091B303882309F4C9C0E091AF0372
:1015D00081E08E0F8093AF03F0E0ED55FC4F9091CA
:1015E000B7039083853008F4BAC01092B403109208
:1015F000AF0340E16091A403CE0101960E94F61171
:10160000BE016F5F7F4FCE0143960E94D710CE017F
:1016100001960E94C51140E16091A703CE01019699
:101620000E94F611BE016F5F7F4FCE010D960E94A2
:10163000D710CE0101960E94C5118B899C89009715
:1016400021F00E94AB36162F01C010E08D859E85DB
:10165000009719F00E94AB3601C060E0BAE06B9FC2
:10166000100D112410935A036BEE75E0CE01019614
:101670000E942312CE0101960E94A116CE0101966E
:101680000E94C5114AE060915A03CE0101960E9462
:10169000F611CE0101960E94A116CE0101960E947C
:1016A000C511BE016D5E7F4FCE0101960E9475127D
:1016B000CE0101960E94A116CE0101960E94C5118D
:1016C000BE01635F7F4FCE0101960E947512CE016D
:1016D00001960E94A116CE0101960E94C5116FEDE0
:1016E00075E0CE0107960E944E114AE060915A03C0
:1016F000CE0101960E94F611BE016F5F7F4FCE01B1
:1017000007960E94D710CE0101960E94C511BE0116
:10171000695F7F4FCE0101960E947512CE0101963E
:101720000E94A116CE0101960E94C5110E94E816E2
:1017300090915A038091AE03981789F081E08093CD
:101740005B030E94972060935C0370935D0380931A
:101750005E0390935F0380915A038093AE03CE01A2
:1017600007960E94C511CE010D960E94C511CE01AB
:1017700043960E94C5110E94820768960FB6F8949E
:10178000DEBF0FBECDBFDF91CF911F910F91FF90B4
:101790000895CF93DF93C5E9D6E060E970E08881D2
:1017A00099810E94170965E070E0888199810E9403
:1017B000170961E170E0888199810E94170963E04F
:1017C00070E0888199810E94170969EA70E0888138
:1017D0009981DF91CF910C9417090F931F938091FA
:1017E000950690919606DC01ED91FC910480F581BF
:1017F000E02D1995892B09F463C081E08093A1063F
:101800008091950690919606DC01ED91FC91068001
:10181000F781E02D199520919B0620939C069091CD
:101820009A0690939B063091990630939A06E09120
:101830009806E09399064091970640939806809306
:101840009706903909F53530D9F5E631D1F068F4CD
:10185000E331B9F028F4E131A1F0E23191F030C088
:10186000E43179F0E53169F02BC0E93151F028F429
:10187000E73139F0E83129F023C0EB3411F0E035DD
:10188000F9F4E093A4061CC02039D1F49630C1F4D9
:10189000E150E63028F4F0E0E95FFD4F908101C0AF
:1018A0009FEF8091A506890F8093A5060E9497203F
:1018B00060939D0670939E0680939F069093A0066A
:1018C0000E94972000919D0610919E0620919F06F0
:1018D0003091A006DC01CB01801B910BA20BB30B56
:1018E00089389341A105B10578F40E9497200091B1
:1018F0009D0610919E0620919F063091A0066017CC
:1019000071078207930730F50E94C90B8091A106E9
:10191000811106C08091A3068F5F8093A30605C046
:101920001092A30681E08093A2068091A3068230E4
:1019300028F081E08093A3061092A2061092A106DF
:101940000E94972060939D0670939E0680939F0649
:101950009093A0061F910F910895CF93DF93C5E94F
:10196000D6E060E970E0888199810E94170965E0FE
:1019700070E0888199810E94170961E070E0888198
:1019800099810E94170963E070E0888199810E9423
:10199000170969E970E088819981DF91CF910C94F2
:1019A0001709CF93DF93C5E9D6E060E970E088813D
:1019B00099810E94170965E070E0888199810E94F1
:1019C000170962E070E0888199810E94170963E03D
:1019D00070E0888199810E9417096AE970E0888126
:1019E0009981DF91CF910C941709CF93DF93CDB7F5
:1019F000DEB72C970FB6F894DEBF0FBECDBF6CE0FC
:101A000076E0CE0107960E9423126AE076E0CE01CE
:101A100007960E948C106091AD067091AE064AE068
:101A2000CE0101960E94CA11BE016F5F7F4FCE01A9
:101A300007960E94D010CE0101960E94C51164E065
:101A400076E0CE0107960E948C10BE01695F7F4F41
:101A5000CE0101960E9475128D819E81892BE1F045
:101A60002091AD063091AE0646E0429FC001439FF3
:101A7000900D1124BE016F5F7F4F8354994F0E94D8
:101A8000AE118091AD069091AE0601968F779927A1
:101A90009093AE068093AD06CE0101960E94C511CB
:101AA000CE0107960E94C51180E02C960FB6F894DF
:101AB000DEBF0FBECDBFDF91CF910895CF93DF93EF
:101AC00000D000D0CDB7DEB7BC01CE0101960E9498
:101AD0007512BE016F5F7F4F8091A6069091A70699
:101AE0000E94C114CE0101960E94C51126960FB620
:101AF000F894DEBF0FBECDBFDF91CF910895CF9296
:101B0000DF92EF92FF920F931F93CF93DF93CDB7A6
:101B1000DEB762970FB6F894DEBF0FBECDBF6C0183
:101B20007B018A0167E273E0CE010D960E947E126E
:101B300062E173E0CE0107960E947E12B601CE01EB
:101B400007960E943B1160E273E00E942211B701E8
:101B50000E943B1160E273E00E942211B8010E94D2
:101B60003B1163E273E00E942211BC01CE01019699
:101B70000E947512CE0101960E945E0DCE01019663
:101B80000E94C511CE0107960E94C51162E076E061
:101B9000CE010D960E948C106091AD067091AE063C
:101BA0004AE0CE0101960E94CA11BE016F5F7F4FCD
:101BB000CE010D960E94D010CE0101960E94C51153
:101BC0006AEF75E0CE010D960E948C10B601CE0131
:101BD0000D960E94D01068EF75E0CE010D960E9420
:101BE0008C10B701CE010D960E94D01066EF75E003
:101BF000CE010D960E948C10B801CE010D960E9468
:101C0000D010BE01635F7F4FCE0101960E94751216
:101C10008D819E81892BE1F02091AD063091AE0639
:101C200046E0429FC001439F900D1124BE016F5FAB
:101C30007F4F8354994F0E94AE118091AD069091D1
:101C4000AE0601968F7799279093AE068093AD06E6
:101C5000CE0101960E94C511CE010D960E94C511BC
:101C600080E062960FB6F894DEBF0FBECDBFDF9165
:101C7000CF911F910F91FF90EF90DF90CF9008953B
:101C8000CF93DF93CDB7DEB762970FB6F894DEBF80
:101C90000FBECDBFBC01CE0101960E9475126FEC44
:101CA00079E0CE0107960E94751269EC79E0CE01C9
:101CB0000D960E947512AE014F5F5F4FBE01695FC6
:101CC0007F4FCE010D960E947F0DCE010D960E9492
:101CD000C511CE0107960E94C511CE0101960E9442
:101CE000C51162960FB6F894DEBF0FBECDBFDF916F
:101CF000CF910895CF93DF93CDB7DEB762970FB63C
:101D0000F894DEBF0FBECDBFBC01CE0101960E948C
:101D1000751265ED79E0CE0107960E94751269ECA7
:101D200079E0CE010D960E947512AE014F5F5F4FB4
:101D3000BE01695F7F4FCE010D960E947F0DCE01DF
:101D40000D960E94C511CE0107960E94C511CE01C5
:101D500001960E94C51162960FB6F894DEBF0FBEC1
:101D6000CDBFDF91CF9108950895CF92DF92EF928A
:101D7000FF920F931F93CF93DF936C017A018B0136
:101D8000C0E0D0E0CE15DF0589F0D8016D918D015E
:101D9000D601ED91FC910190F081E02DC6011995DD
:101DA000892B11F47E0102C02196ECCFC701DF918F
:101DB000CF911F910F91FF90EF90DF90CF900895FA
:101DC000FC01A089B1898C91A689B78982FD0FC0D9
:101DD0009C91818D8F5F8F73228D821749F0218DA9
:101DE000DF01A20FB11D5D969C93818F08958C91A8
:101DF0000895FC01918D828D981761F0828DDF012D
:101E0000A80FB11D5D968C91928D9F5F9F73928FED
:101E100090E008958FEF9FEF0895FC01918D828DE2
:101E2000981731F0828DE80FF11D858D90E00895AF
:101E30008FEF9FEF0895FC01918D228D892F90E007
:101E4000805C9F4F821B91098F739927089588EBBF
:101E500093E00E941B0F21E0892B09F420E0822FE0
:101E6000089585E594E00E941B0F21E0892B09F479
:101E700020E0822F089582EF94E00E941B0F21E062
:101E8000892B09F420E0822F08958FE895E00E94C5
:101E90001B0F21E0892B09F420E0822F0895FC011B
:101EA000848DDF01A80FB11DA35ABF4F2C91848DE3
:101EB00090E001968F739927848FA689B7892C9318
:101EC000A089B1898C9180648C93938D848D9813B3
:101ED00006C00288F389E02D80818F7D808308957C
:101EE000EF92FF920F931F93CF93DF93EC0181E06A
:101EF000888F9B8D8C8D981305C0E889F989808126
:101F000085FD24C0F62E0B8D10E00F5F1F4F0F7361
:101F10001127E02E8C8DE8120CC00FB607FCFACF0B
:101F2000E889F989808185FFF5CFCE010E944F0FA6
:101F3000F1CF8B8DFE01E80FF11DE35AFF4FF082C8
:101F40000B8FEA89FB898081806207C0EE89FF8957
:101F50006083E889F98980818064808381E090E0F2
:101F6000DF91CF911F910F91FF90EF900895CF9344
:101F7000DF93EC01888D8823C9F0EA89FB89808191
:101F800085FD05C0A889B9898C9186FD0FC00FB663
:101F900007FCF5CF808185FFF2CFA889B9898C91A4
:101FA00085FFEDCFCE010E944F0FE7CFDF91CF919C
:101FB000089580E090E0892B21F00E94450F811167
:101FC00019C080E090E0892B21F00E943B0F811125
:101FD00014C080E090E0892B21F00E94310F811124
:101FE0000FC080E090E0892B81F00E94270F8111C3
:101FF0000AC008950E940000E4CF0E940000E9CFCB
:102000000E940000EECF0C94000008950E94483515
:102010006115710579F0FB0101900020E9F7319716
:10202000AF01461B570BDC01ED91FC910280F3815F
:10203000E02D199480E090E008950F931F93CF93C3
:10204000DF93EC0188819981009729F02A813B81F7
:102050002617370788F48B016F5F7F4F0E945F342C
:10206000009761F0998388831B830A832C813D81CB
:10207000232B11F4FC01108281E001C080E0DF918C
:10208000CF911F910F910895EF92FF920F931F939D
:10209000CF93DF93FC01248135816115710511F423
:1020A00080E019C041155105A9F07B01EC018A01BE
:1020B000020F131FB8010E941D10882389F3288185
:1020C00039818C819D81B701820F931F0E945F35FA
:1020D0001D830C8381E0DF91CF911F910F91FF90C1
:1020E000EF900895CF93DF93FC0124813581232B5A
:1020F00071F0FB01DC01CD91DC9160817181CE0139
:102100000E946635009719F08C1B9D0B02C08FEF63
:102110009FEFDF91CF910895EF92FF920F931F935E
:10212000CF93DF936115710511F480E01EC08B0120
:10213000EC01CB010E94E2360097B1F02C813D8189
:102140007C01E20EF31EB701CE010E941D10882310
:1021500061F3288139818C819D81B801820F931FA1
:102160000E94DB36FD82EC8281E0DF91CF911F91EE
:102170000F91FF90EF900895CF93DF931F921F92DE
:10218000CDB7DEB769831A8241E050E0BE016F5FD0
:102190007F4F0E9444100F900F90DF91CF910895D0
:1021A000FB0144815581608171810C9444100F932F
:1021B0001F93CF93DF938C01EB01FC018081918110
:1021C0000097B1F0688179816115710579F04281DC
:1021D00053812C813D814217530740F00E945F35A7
:1021E0008C819D81F8019583848313C00E94C7333D
:1021F00088819981F801918380838A819B8193836F
:1022000082838C819D8195838483198218821B82AD
:102210001A821D821C82DF91CF911F910F91089528
:10222000CF93DF93EC0188819981009711F00E9490
:10223000C733198218821D821C821B821A82DF9189
:10224000CF910895CF93DF93EC016115710561F093
:10225000FB0101900020E9F73197AF01461B570BB6
:102260000E944410811103C0CE010E941011CE01C2
:10227000DF91CF910895CF93DF93EC01FB0144816F
:102280005581608171810E944410811103C0CE018B
:102290000E941011CE01DF91CF910895EF92FF922D
:1022A0000F931F93CF93DF93EC018B0161157105A1
:1022B00051F0CB010E94E2367C01BC01CE010E94AC
:1022C0001D10811104C0CE010E94101107C0FD82B3
:1022D000EC82B801888199810E94DB36CE01DF91C2
:1022E000CF911F910F91FF90EF900895EF92FF9281
:1022F0000F931F93CF93DF93EC017B018A01BA0107
:102300000E941D10811104C0CE010E94101107C04F
:102310001D830C83B701888199810E945F35CE01AE
:10232000DF91CF911F910F91FF90EF900895CF9380
:10233000DF93EC016115710559F0FB01019000205C
:10234000E9F73197AF01461B570B0E94761102C087
:102350000E941011CE01DF91CF910895CF93DF93AA
:10236000EC01FB018617970761F0608171816115AF
:10237000710529F0448155810E94761102C00E94A6
:102380001011CE01DF91CF910895FC0180819181E0
:102390000C94C7330F931F93CF93DF93CDB7DEB762
:1023A00061970FB6F894DEBF0FBECDBF8C01CB0195
:1023B000F80111821082138212821582148250E079
:1023C000BE016F5F7F4F0E940B37BE016F5F7F4F73
:1023D000C8010E94971161960FB6F894DEBF0FBE38
:1023E000CDBFDF91CF911F910F9108950F931F9350
:1023F000CF93DF93CDB7DEB729970FB6F894DEBF42
:102400000FBECDBF8C01862FF8011182108213827E
:1024100012821582148250E0BE016F5F7F4F90E000
:102420000E940B37BE016F5F7F4FC8010E9497115A
:1024300029960FB6F894DEBF0FBECDBFDF91CF91C6
:102440001F910F910895FC01118210821382128254
:10245000158214820C944E11EF92FF920F931F93EA
:10246000CF93DF93CDB7DEB768970FB6F894DEBF92
:102470000FBECDBF8C017A0168ED76E00E94231279
:102480008AE0E816F1042CF466ED76E0C8010E94BB
:102490008C101C8A1B8A1E8A1D8A188E1F8A4AE08D
:1024A000BE016F5F7F4FC7010E94EB36BE016F5FB9
:1024B0007F4FCE0143960E949711BE016D5E7F4F04
:1024C000C8010E94D010CE0143960E94C511C801D8
:1024D00068960FB6F894DEBF0FBECDBFDF91CF91E7
:1024E0001F910F91FF90EF900895FC0111821082CF
:1024F00013821282158214820C94AE11FC01118297
:10250000108213821282158214826115710551F0B6
:10251000FB0101900020E9F73197AF01461B570BF3
:102520000C9476110895BF92CF92DF92EF92FF92B2
:102530000F931F93CF93DF937C016B018A01E90115
:102540002417350720F4812F8901C42FD82F67E283
:1025500073E0C7010E947E12D60114968D919C9162
:10256000159708171907D0F48C179D0708F4EC018C
:10257000D601ED91FC911197EC0FFD1FB0801082F8
:102580004D915C91BA01600F711FC7010E949711B4
:10259000D601ED91FC91EC0FFD1FB082C701DF91D8
:1025A000CF911F910F91FF90EF90DF90CF90BF9050
:1025B00008950F931F93CF93DF93EC010E940810AF
:1025C0008C0165E273E0CE010E940810800F911F1C
:1025D000DF91CF911F910F9108950F931F93CF9388
:1025E000DF93EC01E881F981DB0114964D915C9158
:1025F00015976D917C910280F381E02D19958C01E6
:1026000065E273E0CE010E940810800F911FDF91F8
:10261000CF911F910F9108951F920F920FB60F92B5
:1026200011240BB60F922F933F934F935F936F93A9
:102630007F938F939F93AF93BF93EF93FF9388EB19
:1026400093E00E944F0FFF91EF91BF91AF919F9147
:102650008F917F916F915F914F913F912F910F904B
:102660000BBE0F900FBE0F901F9018951F920F92E8
:102670000FB60F9211240BB60F922F933F934F93E7
:102680005F936F937F938F939F93AF93BF93EF93DA
:10269000FF9388EB93E00E94E00EFF91EF91BF91D2
:1026A000AF919F918F917F916F915F914F913F91EA
:1026B0002F910F900BBE0F900FBE0F901F9018958B
:1026C0001F920F920FB60F9211240BB60F922F93F9
:1026D0003F934F935F936F937F938F939F93AF93AA
:1026E000BF93EF93FF9385E594E00E944F0FFF9116
:1026F000EF91BF91AF919F918F917F916F915F917A
:102700004F913F912F910F900BBE0F900FBE0F90E6
:102710001F9018951F920F920FB60F9211240BB6AF
:102720000F922F933F934F935F936F937F938F936A
:102730009F93AF93BF93EF93FF9385E594E00E943F
:10274000E00EFF91EF91BF91AF919F918F917F919B
:102750006F915F914F913F912F910F900BBE0F9012
:102760000FBE0F901F9018951F920F920FB60F92E9
:1027700011240BB60F922F933F934F935F936F9358
:102780007F938F939F93AF93BF93EF93FF9382EFCA
:1027900094E00E944F0FFF91EF91BF91AF919F91F5
:1027A0008F917F916F915F914F913F912F910F90FA
:1027B0000BBE0F900FBE0F901F9018951F920F9297
:1027C0000FB60F9211240BB60F922F933F934F9396
:1027D0005F936F937F938F939F93AF93BF93EF9389
:1027E000FF9382EF94E00E94E00EFF91EF91BF9182
:1027F000AF919F918F917F916F915F914F913F9199
:102800002F910F900BBE0F900FBE0F901F90189539
:102810001F920F920FB60F9211240BB60F922F93A7
:102820003F934F935F936F937F938F939F93AF9358
:10283000BF93EF93FF938FE895E00E944F0FFF91B6
:10284000EF91BF91AF919F918F917F916F915F9128
:102850004F913F912F910F900BBE0F900FBE0F9095
:102860001F9018951F920F920FB60F9211240BB65E
:102870000F922F933F934F935F936F937F938F9319
:102880009F93AF93BF93EF93FF938FE895E00E94E0
:10289000E00EFF91EF91BF91AF919F918F917F914A
:1028A0006F915F914F913F912F910F900BBE0F90C1
:1028B0000FBE0F901F901895CF92DF92EF92FF926C
:1028C0001F93CF93DF93EC016A017B01122FE889FC
:1028D000F98982E080834115514E61057105B1F09F
:1028E00060E079E08DE390E0A70196010E94533704
:1028F000DA01C9010197A109B109B695A795979584
:102900008795AC01411580E15807A8F0E889F9895D
:10291000108260E874E88EE190E0A70196010E94C1
:102920005337BA01A90141505109610971097695DE
:10293000679557954795EC85FD855083EE85FF8516
:102940004083188EEC89FD891083EA89FB89808198
:1029500080618083EA89FB89808188608083EA893D
:10296000FB89808180688083EA89FB8980818F7DF3
:102970008083DF91CF911F91FF90EF90DF90CF90F8
:1029800008954F925F926F927F928F929F92AF9233
:10299000BF92EF92FF920F931F93CF93DF93CDB728
:1029A000DEB76E970FB6F894DEBF0FBECDBF8C01B9
:1029B0007B0167E273E0CE010D960E947E12B701A3
:1029C000CE0143960E94751267E273E0CE014996EC
:1029D0000E947E1278012EE0E20EF11C0E949720E8
:1029E0004090350650903606609037067090380655
:1029F0004B015C0184189508A608B7088091390638
:102A000090913A06A0913B06B0913C06E8EE8E16F6
:102A1000E3E09E06A104B104D0F00196A11DB11D12
:102A20008093390690933A06A0933B06B0933C06F8
:102A3000B301A20148515C4F6F4F7F4F4093350661
:102A4000509336066093370670933806C7CF40918F
:102A50003106509132066091330670913406841726
:102A60009507A607B70708F456C0E0912F06F09126
:102A70003006309709F44FC019956115710581052D
:102A8000910539F16093390670933A0680933B06BD
:102A900090933C06DC01CB01845D9E4FAF4FBF4F4E
:102AA0008093310690933206A0933306B093340698
:102AB00082E090E090932E0680932D060E9497204E
:102AC00060933506709336068093370690933806E8
:102AD00022C08091390690913A06A0913B06B091B0
:102AE0003C06845D9E4FAF4FBF4F8093310690935D
:102AF0003206A0933306B093340681E090E0209133
:102B00002D0630912E06232B11F480E090E0909357
:102B10002E0680932D068090390690903A06A0905C
:102B20003B06B0903C06C501B4010E94D51E409101
:102B30003F0650E0B801CE0107960E942C126BEDC3
:102B400076E0CE0107960E948C10C501B4010E9468
:102B5000D51E40913E0650E0B801CE0101960E947C
:102B60002C12BE016F5F7F4FCE0107960E94D010DE
:102B7000CE0101960E94C51169ED76E0CE0107965F
:102B80000E948C10C501B4010E94D51E40913D06E3
:102B900050E0B801CE0101960E942C12BE016F5F79
:102BA0007F4FCE0107960E94D010CE0101960E9461
:102BB000C511BE01695F7F4FCE0101960E9475125B
:102BC0006AE273E0CE0101960E942211B7010E94D1
:102BD0003B1168E273E00E942211BE016D5E7F4FDF
:102BE0000E943B11BC01CE0149960E94AE11CE015C
:102BF00001960E94C511CE0107960E94C511BE0123
:102C0000675E7F4FCE010D960E94D710CE01499688
:102C10000E94C511CE0143960E94C511BE01635F9B
:102C20007F4FF801808191810E94ED12CE010D96B7
:102C30000E94C5116E960FB6F894DEBF0FBECDBFD1
:102C4000DF91CF911F910F91FF90EF90BF90AF90C8
:102C50009F908F907F906F905F904F9008950F930B
:102C60001F93CF93DF93EC010881198101151105A2
:102C700031F0C8010E943F1EC8010E94C733CE0137
:102C80000E960E94C511CE010896DF91CF911F913B
:102C90000F910C94C511EF92FF920F931F93CF9356
:102CA000DF93EC017B0167E273E008960E947E12DD
:102CB0008E01025F1F4F67E273E0C8010E947E121F
:102CC00088E69AE09983888380E895E2A0E0B0E006
:102CD0008C839D83AE83BF838CE293E09B838A8346
:102CE000B701C801DF91CF911F910F91FF90EF9035
:102CF0000C94AE110F931F93CF93DF9300E010E07D
:102D0000C82FD0E00C171D07BCF461E084E20E94DC
:102D1000F11F66E470E080E090E00E945D2060E0DA
:102D200084E20E94F11F66E470E080E090E00E947F
:102D30005D200F5F1F4FE6CFDF91CF911F910F9165
:102D40000895CF93DF9300D000D0CDB7DEB7BC019C
:102D5000CE0101960E947512BE016F5F7F4F8BE31B
:102D60009AE00E94C114CE0101960E94C5112696D8
:102D70000FB6F894DEBF0FBECDBFDF91CF9108959F
:102D800062E270E080914E0390914F030E94170918
:102D900062E070E080914E0390914F030E9417090A
:102DA0006BE070E080914E0390914F030E941709F1
:102DB00061E270E080914E0390914F030E941709E9
:102DC00068E270E080914E0390914F030C941709D4
:102DD00061E170E080914E0390914F030C941709CC
:102DE0000F931F93CF93DF93CDB7DEB72C970FB61A
:102DF000F894DEBF0FBECDBF4AE060915A03CE010A
:102E000007960E94F6116CED72E0CE0101960E94C9
:102E10007E12BE01695F7F4FCE0101960E943B1179
:102E2000BC018DE89AE00E94AE11CE0101960E948D
:102E3000C511CE0107960E94C51140E050E060E048
:102E400070E080918D0A90918E0A0E948035162F35
:102E500067E273E08DE89AE00E94971110933E03B9
:102E6000105F1093440310922C060AE313E0809144
:102E70004E0390914F03D8016D918D01DC01ED91CE
:102E8000FC910190F081E02D1995B3E00C341B0703
:102E900071F72C960FB6F894DEBF0FBECDBFDF9151
:102EA000CF911F910F910895CF93DF93CDB7DEB7E8
:102EB00062970FB6F894DEBF0FBECDBF4AE0BC01EB
:102EC000CE0101960E94CA116BED79E0CE01079602
:102ED0000E94751269EC79E0CE010D960E94751280
:102EE000AE014F5F5F4FBE01695F7F4FCE010D9610
:102EF0000E947F0DCE010D960E94C511CE0107964E
:102F00000E94C511CE0101960E94C51162960FB6AE
:102F1000F894DEBF0FBECDBFDF91CF9108951F9310
:102F2000CF93DF93CDB7DEB762970FB6F894DEBFCD
:102F30000FBECDBF162FBC01CE0101960E947512A7
:102F400069E27AE0CE0107960E94751263EF79E09C
:102F5000CE010D960E947512AE014F5F5F4FBE010C
:102F6000695F7F4FCE010D960E947F0DCE010D96B9
:102F70000E94C511CE0107960E94C511CE0101968F
:102F80000E94C51111110E94F50C62960FB6F894BB
:102F9000DEBF0FBECDBFDF91CF911F910895CF93BC
:102FA000DF93CDB7DEB762970FB6F894DEBF0FBEE2
:102FB000CDBFBC01CE0101960E94751265E37AE097
:102FC000CE0107960E9475126FE27AE0CE010D964F
:102FD0000E947512AE014F5F5F4FBE01695F7F4F68
:102FE000CE010D960E947F0DCE010D960E94C51157
:102FF000CE0107960E94C511CE0101960E94C5110F
:103000000E94F50C62960FB6F894DEBF0FBECDBFDE
:10301000DF91CF910895FF920F931F93CF93DF938A
:10302000CDB7DEB762970FB6F894DEBF0FBECDBF47
:103030008C01F62EBC01CE0101960E94751269EF3B
:1030400079E0CE0107960E94751263EF79E0CE0118
:103050000D960E947512AE014F5F5F4FBE01695F12
:103060007F4FCE010D960E947F0DCE010D960E94DE
:10307000C511CE0107960E94C511CE0101960E948E
:10308000C511F80184819581892B09F449C160E358
:1030900073E0808191810E945635892B09F040C1EF
:1030A0006BEE76E0CE0101960E9423126FEF79E07D
:1030B000CE0107960E94751263EF79E0CE010D965E
:1030C0000E947512AE014F5F5F4FBE01695F7F4F77
:1030D000CE010D960E947F0DCE010D960E94C51166
:1030E000CE0107960E94C511CE0101960E94C5111E
:1030F00069EE76E0CE0101960E94231265E07AE047
:10310000CE0107960E94751263EF79E0CE010D960D
:103110000E947512AE014F5F5F4FBE01695F7F4F26
:10312000CE010D960E947F0DCE010D960E94C51115
:10313000CE0107960E94C511CE0101960E94C511CD
:1031400067EE76E0CE0101960E9423126BE07AE0F2
:10315000CE0107960E94751263EF79E0CE010D96BD
:103160000E947512AE014F5F5F4FBE01695F7F4FD6
:10317000CE010D960E947F0DCE010D960E94C511C5
:10318000CE0107960E94C511CE0101960E94C5117D
:1031900065EE76E0CE0101960E94231261E17AE0AD
:1031A000CE0107960E94751263EF79E0CE010D966D
:1031B0000E947512AE014F5F5F4FBE01695F7F4F86
:1031C000CE010D960E947F0DCE010D960E94C51175
:1031D000CE0107960E94C511CE0101960E94C5112D
:1031E00063EE76E0CE0101960E94231267E17AE059
:1031F000CE0107960E94751263EF79E0CE010D961D
:103200000E947512AE014F5F5F4FBE01695F7F4F35
:10321000CE010D960E947F0DCE010D960E94C51124
:10322000CE0107960E94C511CE0101960E94C511DC
:1032300061EE76E0CE0101960E9423126DE17AE004
:10324000CE0107960E94751263EF79E0CE010D96CC
:103250000E947512AE014F5F5F4FBE01695F7F4FE5
:10326000CE010D960E947F0DCE010D960E94C511D4
:10327000CE0107960E94C511CE0101960E94C5118C
:103280006FED76E0CE0101960E94231263E27AE0B0
:10329000CE0107960E94751263EF79E0CE010D967C
:1032A0000E947512AE014F5F5F4FBE01695F7F4F95
:1032B000CE010D960E947F0DCE010D960E94C51184
:1032C000CE0107960E94C511CE0101960E94C5113C
:1032D0006DED76E0CE0101960E94231269E27AE05C
:1032E000CE0107960E94751263EF79E0CE010D962C
:1032F0000E947512AE014F5F5F4FBE01695F7F4F45
:10330000CE010D960E947F0DCE010D960E94C51133
:10331000CE0107960E94C511CE0101960E94C511EB
:10332000F1100E94F50C62960FB6F894DEBF0FBE46
:10333000CDBFDF91CF911F910F91FF900895CF9353
:10334000DF93CDB7DEB762970FB6F894DEBF0FBE3E
:10335000CDBFBC01CE0101960E94751261EE79E0ED
:10336000CE0107960E94751269EC79E0CE010D96A8
:103370000E947512AE014F5F5F4FBE01695F7F4FC4
:10338000CE010D960E947F0DCE010D960E94C511B3
:10339000CE0107960E94C511CE0101960E94C5116B
:1033A00062960FB6F894DEBF0FBECDBFDF91CF910E
:1033B0000895CF93DF93CDB7DEB762970FB6F89439
:1033C000DEBF0FBECDBFBC01CE0101960E947512BB
:1033D0006BED79E0CE0107960E94751269EC79E0F9
:1033E000CE010D960E947512AE014F5F5F4FBE0178
:1033F000695F7F4FCE010D960E947F0DCE010D9625
:103400000E94C511CE0107960E94C511CE010196FA
:103410000E94C51162960FB6F894DEBF0FBECDBFF5
:10342000DF91CF910895CF93DF93CDB7DEB7629749
:103430000FB6F894DEBF0FBECDBF4AE0BC01CE018F
:1034400001960E94CA1165ED79E0CE0107960E94AF
:10345000751269EC79E0CE010D960E947512AE01ED
:103460004F5F5F4FBE01695F7F4FCE010D960E9497
:103470007F0DCE010D960E94C511CE0107960E94C8
:10348000C511CE0101960E94C51162960FB6F8943F
:10349000DEBF0FBECDBFDF91CF910895CF93DF93F5
:1034A000CDB7DEB762970FB6F894DEBF0FBECDBFC3
:1034B0004AE0682FCE0101960E94F6116FEC79E088
:1034C000CE0107960E94751269EC79E0CE010D9647
:1034D0000E947512AE014F5F5F4FBE01695F7F4F63
:1034E000CE010D960E947F0DCE010D960E94C51152
:1034F000CE0107960E94C511CE0101960E94C5110A
:1035000062960FB6F894DEBF0FBECDBFDF91CF91AC
:1035100008951F93CF93DF93CDB7DEB762970FB6B1
:10352000F894DEBF0FBECDBF162FBC01CE010196B1
:103530000E94751267E17AE0CE0107960E9475122B
:1035400063EF79E0CE010D960E947512AE014F5FD8
:103550005F4FBE01695F7F4FCE010D960E947F0DC8
:10356000CE010D960E94C511CE0107960E94C5118D
:10357000CE0101960E94C51111110E94F50C6296B0
:103580000FB6F894DEBF0FBECDBFDF91CF911F9174
:1035900008951F93CF93DF93CDB7DEB762970FB631
:1035A000F894DEBF0FBECDBF162FBC01CE01019631
:1035B0000E9475126DE17AE0CE0107960E947512A5
:1035C00063EF79E0CE010D960E947512AE014F5F58
:1035D0005F4FBE01695F7F4FCE010D960E947F0D48
:1035E000CE010D960E94C511CE0107960E94C5110D
:1035F000CE0101960E94C51111110E94F50C629630
:103600000FB6F894DEBF0FBECDBFDF91CF911F91F3
:103610000895CF93DF93CDB7DEB762970FB6F894D6
:10362000DEBF0FBECDBFBC01CE0101960E94751258
:103630006BE07AE0CE0107960E94751263EF79E0A5
:10364000CE010D960E947512AE014F5F5F4FBE0115
:10365000695F7F4FCE010D960E947F0DCE010D96C2
:103660000E94C511CE0107960E94C511CE01019698
:103670000E94C51162960FB6F894DEBF0FBECDBF93
:10368000DF91CF910895CF93DF93CDB7DEB76297E7
:103690000FB6F894DEBF0FBECDBFBC01CE010196C0
:1036A0000E94751265E07AE0CE0107960E947512BD
:1036B00063EF79E0CE010D960E947512AE014F5F67
:1036C0005F4FBE01695F7F4FCE010D960E947F0D57
:1036D000CE010D960E94C511CE0107960E94C5111C
:1036E000CE0101960E94C51162960FB6F894DEBF16
:1036F0000FBECDBFDF91CF910895CF93DF93CDB7AC
:10370000DEB762970FB6F894DEBF0FBECDBFBC0127
:10371000CE0101960E94751261E17AE0CE01079612
:103720000E94751263EF79E0CE010D960E9475122A
:10373000AE014F5F5F4FBE01695F7F4FCE010D96B7
:103740000E947F0DCE010D960E94C511CE010796F5
:103750000E94C511CE0101960E94C51162960FB656
:10376000F894DEBF0FBECDBFDF91CF910895CF9209
:10377000DF92EF92FF920F931F938091610A811164
:103780001092610A8091620A81111092620A8091FE
:10379000630A81111092630A8091640A882361F0A0
:1037A0008CE10E94C81F61E0892B09F060E08CE188
:1037B0000E94F11F1092640A8091650A8111109293
:1037C000650A8091660A81111092660A0E9497200C
:1037D0006093550A7093560A8093570A9093580A3B
:1037E0000091590A10915A0A20915B0A30915C0AA3
:1037F0006B017C01C01AD10AE20AF30A42E0C41646
:10380000D104E104F10408F449C06093590A7093AB
:103810005A0A80935B0A90935C0A90914F0A9F5FCB
:1038200090934F0A81E08093610A9A3008F443C074
:1038300010924F0A9091500A9F5F9093500A809384
:10384000620A9A30C0F11092500A9091510A9F5F1B
:103850009093510A8093630A953068F11092510A4F
:103860009091520A9F5F9093520A8093640A92301B
:1038700010F11092520A9091530A9F5F9093530A4D
:103880008093650A9430B8F01092530A9091540ACC
:103890009F5F9093540A8093660A0DC0601771076A
:1038A0008207930740F46093590A70935A0A8093F1
:1038B0005B0A90935C0A1F910F91FF90EF90DF904D
:1038C000CF9008951F93CF93DF93CDB7DEB7629764
:1038D0000FB6F894DEBF0FBECDBF162FBC01CE01D0
:1038E00001960E9475126FEF79E0CE0107960E9453
:1038F000751263EF79E0CE010D960E947512AE014C
:103900004F5F5F4FBE01695F7F4FCE010D960E94F2
:103910007F0DCE010D960E94C511CE0107960E9423
:10392000C511CE0101960E94C51111110E94F50C1E
:1039300062960FB6F894DEBF0FBECDBFDF91CF9178
:103940001F9108951F93CF93DF93CDB7DEB7629792
:103950000FB6F894DEBF0FBECDBF162FBC01CE014F
:1039600001960E94751263E27AE0CE0107960E94EA
:10397000751263EF79E0CE010D960E947512AE01CB
:103980004F5F5F4FBE01695F7F4FCE010D960E9472
:103990007F0DCE010D960E94C511CE0107960E94A3
:1039A000C511CE0101960E94C51111110E94F50C9E
:1039B00062960FB6F894DEBF0FBECDBFDF91CF91F8
:1039C0001F910895CF93DF93CDB7DEB762970FB6FF
:1039D000F894DEBF0FBECDBFBC01CE0101960E94A0
:1039E00075126DEE79E0CE0107960E94751267EEB2
:1039F00079E0CE010D960E947512AE014F5F5F4FC8
:103A0000BE01695F7F4FCE010D960E947F0DCE01F2
:103A10000D960E94C511CE0107960E94C511CE01D8
:103A200001960E94C5110E94F50C62960FB6F8949B
:103A3000DEBF0FBECDBFDF91CF9108952091460626
:103A4000309147062817390771F490914506809107
:103A50004406981741F0E0914506F0E0EB5AF94F23
:103A6000808190E008958FEF9FEF089508951F9350
:103A7000CF93DF93DC015C962D913C915D972115EE
:103A8000310539F481E090E013969C938E93129760
:103A90003DC05196ED91FC91529750969C91509754
:103AA000892F80951FB75E964C915E9741FB7727D3
:103AB00070F941FD6095F8944081772311F0492B0E
:103AC00001C048234083E9012197F1F748E0508184
:103AD00060FF02C0592B01C058235083E901219790
:103AE000F1F76695415099F7772321F0908189236A
:103AF000808303C08081982B90831FBF5C968D913B
:103B00009C915D970197F1F721E030E0C901DF91C9
:103B1000CF911F91089520914606309147062817AE
:103B2000390771F4809144062091450690E0805C4D
:103B30009F4F821B910960E470E00E94E332089578
:103B400080E090E0089520914606309147062817BE
:103B50003907B9F49091450680914406981789F089
:103B6000E0914506F0E0EB5AF94F8081209145063F
:103B700030E02F5F3F4F2F7333272093450690E0AF
:103B800008958FEF9FEF089590E0FC013197E231A7
:103B9000F10508F04EC08827E258FF4F8F4F0C9474
:103BA0001633809180008F7703C0809180008F7DD5
:103BB00080938000089580918000877FF9CF84B53D
:103BC0008F7702C084B58F7D84BD08958091B00049
:103BD0008F7703C08091B0008F7D8093B0000895EF
:103BE000809190008F7707C0809190008F7D03C0F7
:103BF00080919000877F8093900008958091A0002D
:103C00008F7707C08091A0008F7D03C08091A000B6
:103C1000877F8093A0000895809120018F7707C04F
:103C2000809120018F7D03C080912001877F809348
:103C3000200108953FB7F89480914D0690914E066B
:103C4000A0914F06B091500626B5A89B05C02F3F06
:103C500019F00196A11DB11D3FBFBA2FA92F982FB2
:103C60008827820F911DA11DB11DBC01CD0142E02D
:103C7000660F771F881F991F4A95D1F7089521E293
:103C800032E0FC0131832083E0914606F091470643
:103C9000E817F90759F4A389B4899C91858980951F
:103CA00089238C93109247061092460608951F921E
:103CB0000F920FB60F9211240BB60F922F933F93D2
:103CC0004F935F936F937F938F939F93AF93BF9324
:103CD000EF93FF93E0914606F0914706309709F481
:103CE00051C0968DA685B785858591FF04C09C91AE
:103CF000892329F447C09C91892309F043C0A389F3
:103D0000B4899C918589809589238C93868997892C
:103D10000197F1F7608D718DA685B785558538E0DF
:103D200020E0CB010197F1F7822F90E095958795E0
:103D3000282F4C91452309F02068315091F7868D4A
:103D400081FD20958091440690E001968F7399271C
:103D500030914506381749F0A0914406B0E0AB5ABF
:103D6000B94F2C938093440603C0868D8160868F63
:103D7000828D938D0197F1F7A389B4899C918589F0
:103D8000892B8C93FF91EF91BF91AF919F918F9170
:103D90007F916F915F914F913F912F910F900BBE4B
:103DA0000F900FBE0F901F9018954F925F926F92D9
:103DB0007F928F929F92AF92BF92CF92DF92EF92BB
:103DC000FF920F931F93CF93DF934B015C01809180
:103DD000510690915206A0915306B0915406881650
:103DE0009906AA06BB0609F4C2C08CE3C82ED12CE2
:103DF000E12CF12CC501B401A70196010E945337B3
:103E000060933D06CA01B901A70196010E9453378C
:103E100060933E06CA01B90128E130E040E050E07D
:103E20000E94533769017A0160933F06CA01B901C4
:103E30006C5F7F4F8F4F9F4F27E030E040E050E0B6
:103E40000E9453376F5F60934006412C512C320122
:103E500040E004E610E0C0E9D1E0242F30E02E5429
:103E6000384FF901E370FF27309789F4C901B80191
:103E70000E94E332892B31F4C901BE010E94E33272
:103E8000892B29F48EE691E0A0E0B0E004C08DE635
:103E900091E0A0E0B0E0480E591E6A1E7B1ED301DF
:103EA000C201AA27BB27C816D906EA06FB0610F0EE
:103EB0004F5FD3CF40934306309799F4C90164E62E
:103EC00070E00E94E332892B39F4C90160E971E0A6
:103ED0000E94E332892B29F48EE691E0A0E0B0E065
:103EE00004C08DE691E0A0E0B0E0481A590A6A0AE1
:103EF0007B0AC418D508E608F708C90164E670E033
:103F00000E94E332EC01C90160E971E00E94E332F2
:103F1000ADE2B2E020E0213039F4309749F4209747
:103F200029F4009729F402C04C9103C04DE101C06F
:103F30004CE150E060E070E0C416D506E606F706F6
:103F400040F0C41AD50AE60AF70A2F5F11962C3002
:103F500011F72F5F20934206C394C09241068092CE
:103F6000510690925206A0925306B0925406DF91E9
:103F7000CF911F910F91FF90EF90DF90CF90BF9066
:103F8000AF909F908F907F906F905F904F9008952B
:103F9000CF93DF93282F30E0F901E95FF84F849148
:103FA000F901E057F94FD491F901E65BF94FC4915B
:103FB000CC2391F081110E94C41DEC2FF0E0EE0F94
:103FC000FF1FE05DF94FA591B491EC91ED2381E0E5
:103FD00090E021F480E002C080E090E0DF91CF919A
:103FE00008951F93CF93DF93282F30E0F901E95F05
:103FF000F84F8491F901E057F94FD491F901E65B4C
:10400000F94FC491CC23C9F0162F81110E94C41D11
:10401000EC2FF0E0EE0FFF1FEA5EF94FA591B4918F
:104020008FB7F894111105C09C91ED2FE095E9230D
:1040300002C0EC91ED2BEC938FBFDF91CF911F91DC
:104040000895CF93DF9390E0FC01E057F94F24915E
:10405000FC01E65BF94F8491882361F190E0880FC1
:10406000991FFC01E351F94FC591D491FC01EA5E1F
:10407000F94FA591B491611109C09FB7F894888157
:10408000209582238883EC912E230BC0623061F44B
:104090009FB7F8943881822F809583238883EC9191
:1040A0002E2B2C939FBF06C08FB7F894E8812E2B40
:1040B00028838FBFDF91CF9108958F929F92AF9207
:1040C000BF92CF92DF92EF92FF926B017C010E9430
:1040D0001A1E4B015C01C114D104E104F104F1F09A
:1040E0000E941A1EDC01CB0188199909AA09BB0993
:1040F000883E9340A105B10570F321E0C21AD108B2
:10410000E108F10888EE880E83E0981EA11CB11C1E
:10411000C114D104E104F10419F7DDCFFF90EF9051
:10412000DF90CF90BF90AF909F908F9008952FB762
:10413000F8946091490670914A0680914B069091DF
:104140004C062FBF08950F931F930E949720009154
:10415000B1061091B2062091B3063091B4066017F3
:1041600071078207930750F40E9497206093B1066D
:104170007093B2068093B3069093B4060E94972082
:104180000091B1061091B2062091B3063091B406A9
:10419000DC01CB01801B910BA20BB30B21E0883813
:1041A0009341A105B10508F420E0822F1F910F91E2
:1041B00008951F920F920FB60F9211242F933F93E1
:1041C0008F939F93AF93BF938091490690914A0636
:1041D000A0914B06B0914C063091480623E0230F86
:1041E0002D3720F40196A11DB11D05C026E8230F2F
:1041F0000296A11DB11D2093480680934906909315
:104200004A06A0934B06B0934C0680914D069091C0
:104210004E06A0914F06B09150060196A11DB11D0A
:1042200080934D0690934E06A0934F06B093500690
:10423000BF91AF919F918F913F912F910F900FBEA2
:104240000F901F901895CF93DF93CDB7DEB762978D
:104250000FB6F894DEBF0FBECDBF789484B58260F0
:1042600084BD84B5816084BD85B5826085BD85B51A
:10427000816085BD80916E00816080936E00109298
:104280008100809181008260809381008091810013
:1042900081608093810080918000816080938000A4
:1042A0008091B10084608093B1008091B000816002
:1042B0008093B00080919100826080939100809102
:1042C0009100816080939100809190008160809343
:1042D00090008091A10082608093A1008091A10054
:1042E00081608093A1008091A00081608093A000F4
:1042F0008091210182608093210180912101816060
:104300008093210180912001816080932001809120
:104310007A00846080937A0080917A008260809332
:104320007A0080917A00816080937A0080917A008F
:10433000806880937A001092C10068E873E180E0A1
:1043400090E00E945D2062E083E10E94212062E013
:1043500081E10E94212061E087E00E94212082EF1C
:1043600094E090934F0380934E0385E594E09093FF
:104370004D0380934C0326E240EC52E160E070E094
:1043800082EF94E00E945C1426E240EC52E160E08F
:1043900070E085E594E00E945C1420913F0A309122
:1043A000400A4091410A5091420A00913B0A109103
:1043B0003C0AD8015B961C921E925A9759961C9201
:1043C0001E92589757961C921E92569760E079E07D
:1043D0008DE390E00E94F732F9012430310518F0A6
:1043E000C901039702C081E090E0D8015D969C93DB
:1043F0008E935C971C968C91B6EFFB2EF80EB3E073
:10440000BF1548F49EEC980F943028F092EC980F6A
:10441000983008F093C0B9017695679564317105BD
:1044200018F06351710902C061E070E0D80157963D
:104430007C936E935697369720F0B90165507109B9
:1044400002C061E070E0F801718F608FB901660F02
:10445000771F260F371F36952795369527952D30D0
:10446000310518F02C50310902C021E030E0D801AC
:104470005B963C932E935A97B3E0BF1570F49EEC75
:10448000980F943050F092EC980F983010F40C94F0
:10449000A32CA0E0B0E00C94A52CA8E6B0E0E8E6E0
:1044A000F0E09081E3E0EF1518F48E53883010F0BF
:1044B00081E001C084E0892B8C93D8011C968C91FB
:1044C00096EF980F943058F02EEC280F243038F0E7
:1044D00022EC280F283030F020E030E005C02BE639
:1044E00030E002C02DE630E0F801348B238B9430AD
:1044F00010F49AEF0BC0823381F0833381F0843360
:1045000081F092EC980F983070F492EC980F81E063
:1045100001C0880F9A95EAF707C088E005C084E0DB
:1045200003C082E001C081E0D80155968C93559775
:104530005C968D919C915D970197F1F7F801828DC2
:10454000938D892B49F1E0914606F0914706E017DB
:10455000F10711F1309739F0A389B4899C918589CD
:10456000809589238C93D8015E968C915E978E7F7F
:104570005E968C935E9710924406109245061093B7
:104580004706009346065396ED91FC91549790810F
:1045900055968C91892B808365E772E0CE01019658
:1045A0000E942312CE0101960E94A116CE0101960F
:1045B0000E94C51169E472E0CE0101960E942312A7
:1045C000CE0101960E94A116CE0101960E94C5114E
:1045D00060E082E20E94212060E08EE10E942120C2
:1045E00061E08CE10E94212061E084E20E942120B0
:1045F00061E086E20E94212061E08CE10E94F11FCF
:1046000060E084E20E94F11F60E086E20E94F11FF8
:1046100061E086E20E94F11F8FE895E09093A90681
:104620008093A80626E040E052EC61E070E00E9432
:104630005C1460E472E0CE0101960E94231261E0F6
:10464000CE0101960E940B18CE0101960E94C51161
:1046500088EB93E0909396068093950662E08FE056
:104660000E94212026E040E855E260E070E0809161
:104670009506909196060E945C1461E086E20E9485
:10468000F11F64EF71E080E090E00E945D200E94E5
:10469000972060936C0370936D0380936E039093E7
:1046A0006F0311E00E949720C0906C03D0906D03BF
:1046B000E0906E03F0906F03AB01BC014C195D09F3
:1046C0006E097F0980917103483853416105710576
:1046D000B8F5811135C00E94C90B64EF71E080E02C
:1046E00090E00E945D200E94ED0B8091A206811156
:1046F00007C068EE73E080E090E00E945D20D2CFBA
:104700006DE272E0CE0101960E942312CE01019665
:104710000E94A116CE0101960E94C51164E672E0C6
:10472000CE0101960E947E1260E0CE0101960E94A9
:10473000A21CCE0101960E94C51110937103D9CF1E
:104740008093700381111FC068E172E0CE01019671
:104750000E942312CE0101960E94A116CE0101965D
:104760000E94C51169E372E0CE0101960E947E129B
:1047700060E0CE0101960E94A21CCE0101960E942B
:10478000C511109271030E94D10C83E380933A0308
:104790008FE080933B0385E080933C0398E0909307
:1047A0003D0310923E0310923F031092400310927B
:1047B00041038093420389E08093430380E1809327
:1047C000440310924503109246031092470382E07F
:1047D000809348038BE08093490381E280934A03EE
:1047E00086E380934B0368EE73E080E090E00E94E4
:1047F0005D2082E20E94C81F892B19F56EE372E0EA
:10480000CE0101960E947E1260E0CE0101960E94C8
:10481000621CCE0101960E94C51163E472E0CE01D4
:1048200001960E947E12CE0101960E94A116CE0131
:1048300001960E94C51181E080937E0380937D03E1
:1048400021C06EE472E0CE0101960E947E1260E00B
:10485000CE0101960E94621CCE0101960E94C511F4
:1048600064E572E0CE0101960E947E12CE010196AF
:104870000E94A116CE0101960E94C51110927E03DE
:1048800010927D030E941E090E94972000915403FC
:10489000109155032091560330915703DC01CB0151
:1048A000801B910BA20BB30B89389341A105B10575
:1048B00028F080916103882309F47EC0109276036A
:1048C0008091760390917503891304C090916303DE
:1048D000911130C0882389F06AEC71E0CE01019615
:1048E0000E942312CE0101960E94A116CE010196CC
:1048F0000E94C51160E672E010C06CEB71E0CE0161
:1049000001960E942312CE0101960E94A116CE01AB
:1049100001960E94C51164E672E0CE0101960E94E4
:104920007E1260E0CE0101960E948F17CE010196A3
:104930000E94C51181E08093630380917603809388
:1049400075030E94972060936403709365038093BE
:1049500066039093670311E00E949720C090640360
:10496000D0906503E0906603F09067036C157D05B9
:104970008E059F0550F40E94972060936403709306
:10498000650380936603909367030E949720C0900D
:104990006403D0906503E0906603F0906703DC0148
:1049A000CB018C199D09AE09BF0981319742A10540
:1049B000B10508F4BCC304C081E08093760380CFC6
:1049C0008091530381110CC080915203882321F000
:1049D00080915103811104C0809158038C34F8F404
:1049E000109274030E949720609368037093690388
:1049F00080936A0390936B030E94D10C60E072E095
:104A0000CE0101960E942312CE0101960E94A116AA
:104A1000CE0101960E94C51166EF71E01FC081E0D2
:104A2000809374030E9497206093680370936903D6
:104A300080936A0390936B030E94AD0C6FED71E05D
:104A4000CE0101960E942312CE0101960E94A1166A
:104A5000CE0101960E94C51169ED71E0CE0101966B
:104A60000E94231260E0CE0101960E940B18CE0135
:104A700001960E94C51180917403809373030E9474
:104A8000F50C0E9497206093540370935503809314
:104A900056039093570311E006E0FF24FA9484E054
:104AA000E82E93E0D92E22E0C22E1093670A0E94CE
:104AB000B71B9091AA068091AB06992309F45AC0BE
:104AC0008F3FB1F40E94A320882309F496C169EFB7
:104AD00072E0CE0101960E942312CE0101960E943F
:104AE0005E0DCE0101960E94C5111092AA0685C1E5
:104AF0000E94A320882309F480C11092AA0666EEC2
:104B000072E0CE0101960E942312CE0101960E940E
:104B10005E0DCE0101960E94C5118091AC068F5F9B
:104B20008093AC068B3008F45EC066ED72E0CE0177
:104B300001960E942312CE0101960E945E0DCE01C5
:104B400001960E94C51126E040E052EC61E070E061
:104B50008091A8069091A9060E945C148091A806F5
:104B60009091A906DC01ED91FC910284F385E02D82
:104B7000199539C08430D1F567E672E0CE0101960F
:104B80000E947E12CE0101960E945E0DCE0101961A
:104B90000E94C51164E672E08091A8069091A90672
:104BA0000E94D9128091A8069091A906DC01ED918E
:104BB000FC910284F385E02D199564E670E080E0B5
:104BC00090E00E945D2061E087E00E94F11F0E945A
:104BD00097206093B1067093B2068093B3069093CA
:104BE000B4061093AA06F092AB0607C18F3F51F5A9
:104BF00066E772E083EC99E00E9497116AEB72E03D
:104C0000CE0101960E942312CE0101960E945E0DF4
:104C1000CE0101960E94C51126E040E052EC61E011
:104C200070E08091A8069091A9060E945C1466E746
:104C300072E08091A8069091A9060E94D912109363
:104C4000AA06B5C2823039F10E9497208090B90639
:104C50009090BA06A090BB06B090BC06DC01CB01D8
:104C600088199909AA09BB0989389341A105B10599
:104C700008F06AC20E9497208090B9069090BA0608
:104C8000A090BB06B090BC06681579058A059B0507
:104C900008F45AC2B2C08091AD069091AE06209140
:104CA000AF063091B006821B930B8F779927892B23
:104CB00009F47DC08091AF069091B006089FF00185
:104CC000099FF00D1124E354F94F84819581892BBC
:104CD00009F459C08091AF069091B006089FB001C9
:104CE000099F700D11246354794F8091A80690910B
:104CF000A9060E94ED128091A8069091A906DC01F8
:104D0000ED91FC910284F385E02D1995A090AF06FA
:104D1000B090B0066FE772E0CE0101960E947E125D
:104D20000A9DB0010B9D700D11246354794FCE0183
:104D300001960E943B11BC01CE0107960E9475129C
:104D4000CE0107960E945E0DCE0107960E94C51106
:104D5000CE0101960E94C5111093AA060E949720C9
:104D60006093B1067093B2068093B3069093B40635
:104D70000E9497206093B5067093B6068093B7069D
:104D80009093B8060EC063E972E0CE0101960E94CE
:104D90002312CE0101960E945E0DCE0101960E9463
:104DA000C51167E872E083EC99E00E9497110E94B8
:104DB00097208090B5069090B606A090B706B09068
:104DC000B806DC01CB0188199909AA09BB09893801
:104DD0009341A105B10508F0F5C10E94972080908C
:104DE000B5069090B606A090B706B090B8066815C4
:104DF00079058A059B0508F4E5C18091A806909184
:104E0000A906DC01ED91FC910480F581E02D199556
:104E1000892B09F47CC18091A8069091A906DC0138
:104E2000ED91FC910680F781E02D1995B82E682F41
:104E30008DEB99E00E94BC1018861F821A86198695
:104E40001C861B86B9821A82BE016F5F7F4FCE011E
:104E500007960E9497116CE872E0CE010D960E94B1
:104E60007E12BE01695F7F4FCE010D960E943B11FD
:104E7000BC01CE0101960E947512CE0101960E94DE
:104E80005E0DCE0101960E94C511CE010D960E94C5
:104E9000C511CE0107960E94C5111092AC06BDE067
:104EA000BB1235C16EE872E0CE0107960E947E12F9
:104EB0006DEB79E0CE0107960E943B11BC01CE015B
:104EC00001960E947512CE0101960E945E0DCE01E0
:104ED00001960E94C511CE0107960E94C5118091CE
:104EE000C7099091C809892B79F167E872E0809130
:104EF000C3099091C4090E945635892B29F58091E8
:104F0000BD099091BE09009719F00E94AB3603C00D
:104F100060E070E0CB012091AF063091B00649010E
:104F2000A12CB12C681579058A059B0509F0E9C00B
:104F30008091AF069091B00601968F779927909354
:104F4000B0068093AF06DBC064E672E0CE01019646
:104F50000E947E12BE016F5F7F4F8DEB99E00E9431
:104F600072105C01CE0101960E94C511AB20A09485
:104F700009F164E773E0CE0101960E942312CE018D
:104F800001960E945E0DCE0101960E94C51180918E
:104F9000C7099091C809892B09F4B1C066E772E08E
:104FA0008091C3099091C4090E945635892B09F458
:104FB00070C0A5C06BEA72E0CE0101960E947E121D
:104FC000BE016F5F7F4F8DEB99E00E9472105C0114
:104FD000CE0101960E94C511AB20A09489F06BE52B
:104FE00073E0CE0101960E942312CE0101960E9429
:104FF0005E0DCE0101960E94C511C092AB067FC026
:1050000067E972E0CE0101960E947E12BE016F5FD9
:105010007F4F8DEB99E00E9472105C01CE010196EA
:105020000E94C511AB20A09489F063E473E0CE0127
:1050300001960E942312CE0101960E945E0DCE01C0
:1050400001960E94C511D092AB0659C06CE972E07E
:10505000CE0101960E947E12BE016F5F7F4F8DEBE5
:1050600099E00E9472105C01CE0101960E94C51168
:10507000AB20A09489F06AE273E0CE0101960E9411
:105080002312CE0101960E945E0DCE0101960E9470
:10509000C5111093AB0633C062EA72E0CE010196EF
:1050A0000E947E12BE016F5F7F4F8DEB99E00E94E0
:1050B00072105C01CE0101960E94C511AB20A09434
:1050C00001F161E173E0CE0101960E942312CE014D
:1050D00001960E945E0DCE0101960E94C51160E10D
:1050E00073E0CE0101960E942312CE0101960E9428
:1050F0005E0DCE0101960E94C511E092AB061092A2
:10510000AA0667E273E08DEB99E00E949711809107
:105110006203811106C080916103811102C00E9467
:10512000ED0B8091A206882309F446C37BC00E9440
:105130001E090E9482070E9495050E94DC031093BD
:10514000670A0E94B71B08CC68EA72E083EC99E01A
:105150000E94971163EA72E0CE0101960E94231229
:10516000CE0101960E945E0DCE0101960E94C511EE
:1051700068EA72E08091A8069091A9060E94D9126F
:105180008091A8069091A906DC01ED91FC91028422
:10519000F385E02D19951093AA060E94972060933D
:1051A000B9067093BA068093BB069093BC060E9422
:1051B00097206093B1067093B2068093B3069093E4
:1051C000B4061BCE68EA72E083EC99E00E94971166
:1051D00068EA72E08091A8069091A9060E94D9120F
:1051E0008091A8069091A906DC01ED91FC910284C2
:1051F000F385E02D19951093AA060E9497206093DD
:10520000B1067093B2068093B3069093B4060E94E1
:1052100097206093B5067093B6068093B706909377
:10522000B806EBCD109371038091A506882309F48D
:1052300042C067E273E0CE0107960E947E12809121
:10524000A5061092A50690915A03980F90935A03C1
:1052500090915003890F809350036AEC73E0CE0164
:1052600007960E944E114AE060915A03CE010196C2
:105270000E94F611BE016F5F7F4FCE0107960E941C
:10528000D010CE0101960E94C511BE01695F7F4F0B
:10529000CE0101960E947512CE0101960E94A116C0
:1052A000CE0101960E94C51181E00E947A16CE01BE
:1052B00007960E94C51180915A038535B0F0809100
:1052C0007203811112C0109372030E94D10C66E91F
:1052D00073E0CE0101960E942312CE0101960E9436
:1052E000A116CE0101960E94C51180915A03853501
:1052F000B0F480917203882391F00E94AD0C6AE8AB
:1053000073E0CE0101960E942312CE0101960E9405
:10531000A116CE0101960E94C511109272038091D0
:10532000710390917003891709F442C08823F9F042
:105330006AEB73E0CE0101960E942312CE01019622
:105340000E94A116CE0101960E94C51164E672E08A
:10535000CE0101960E947E1261E0CE0101960E946C
:10536000A21CCE0101960E94C51161E01EC067EA31
:1053700073E0CE0101960E942312CE0101960E9495
:10538000A116CE0101960E94C51169E372E0CE011B
:1053900001960E947E1261E0CE0101960E94A21C3D
:1053A000CE0101960E94C51160E086E20E94F11FC5
:1053B000809171038093700380915303811118C011
:1053C00080915203882321F080915103811110C0F4
:1053D000809158038C3460F080917E03811108C065
:1053E00080915903811104C080917603882319F0BC
:1053F0001092740302C0109374038091740390910F
:105400007303891709F448C0882319F18091720346
:1054100081111FC00E94AD0C6FEF73E0CE010196A9
:105420000E942312CE0101960E94A116CE01019680
:105430000E94C51169EF73E0CE0101960E9423120C
:1054400061E0CE0101960E940B18CE0101960E94E8
:10545000C5118091740381111FC00E94D10C66EEAA
:1054600073E0CE0101960E942312CE0101960E94A4
:10547000A116CE0101960E94C5116CED73E0CE011C
:1054800001960E94231261E0CE0101960E940B1842
:10549000CE0101960E94C51180917403809373031D
:1054A0000E9497208090540390905503A09056033B
:1054B000B0905703DC01CB0188199909AA09BB09EF
:1054C00089389341A105B10508F479C18091610340
:1054D000811175C1109376038091760390917503C5
:1054E000891781F1882389F06FE174E0CE0101967C
:1054F0000E942312CE0101960E94A116CE010196B0
:105500000E94C51160E672E010C061E174E0CE0156
:1055100001960E942312CE0101960E94A116CE018F
:1055200001960E94C51164E672E0CE0101960E94C8
:105530007E1261E0CE0101960E948F17CE01019686
:105540000E94C511809176038093750310926103C8
:105550000E941E099091590380917C03981779F15C
:105560006091580380917B03861749F14AE0CE0190
:1055700001960E94F611CE0101960E94CF17CE012E
:1055800001960E94C5110E94972060937703709343
:1055900078038093790390937A03809158038093E2
:1055A0007B036DE374E0CE0101960E942312CE01CD
:1055B00001960E94A116CE0101960E94C51180910C
:1055C000590380937C030E949720809077039090EA
:1055D0007803A0907903B0907A03DC01CB0188199D
:1055E0009909AA09BB09813E9349A440B10538F441
:1055F0000E949720681579058A059B0578F56091CA
:10560000580380917B03861749F14AE0CE01019649
:105610000E94F611CE0101960E94CF17CE0101968D
:105620000E94C5110E9497206093770370937803BE
:105630008093790390937A038091580380937B033E
:105640006EE274E0CE0101960E942312CE01019613
:105650000E94A116CE0101960E94C511809162039D
:1056600081110FC00E9495050E94DC030E949720C3
:10567000609388037093890380938A0390938B03CC
:1056800017C00E9497208090880390908903A09073
:105690008A03B0908B03DC01CB0188199909AA0910
:1056A000BB0981319742A105B10510F01092620348
:1056B000809160038823C1F00E949720809084032A
:1056C00090908503A0908603B0908703DC01CB0106
:1056D00088199909AA09BB0981329340A105B1052E
:1056E00068F0109260030AC00E94972060938403C0
:1056F00070938503809386039093870382E20E94D0
:10570000C81F21E0892B09F020E020937E038091BF
:105710007D03281709F441C02223F9F06EE372E0FB
:10572000CE0101960E947E1261E0CE0101960E9498
:10573000621CCE0101960E94C51165E574E0CE01A0
:1057400001960E942312CE0101960E94A116CE015D
:1057500001960E94C51182E01EC06EE472E0CE0187
:1057600001960E947E1261E0CE0101960E94621CA9
:10577000CE0101960E94C5116AE474E0CE01019643
:105780000E942312CE0101960E94A116CE0101961D
:105790000E94C51181E00E947A1680917E03809359
:1057A0007D038EE10E94C81F892B09F077C080918C
:1057B0008303811173C006C010927103B0CD1092A3
:1057C00076038ACE0E94972080907F03909080037A
:1057D000A0908103B0908203681579058A059B0526
:1057E00050F40E94972060937F037093800380930E
:1057F0008103909382030E94972080907F03909072
:105800008003A0908103B0908203DC01CB01881952
:105810009909AA09BB09893B9B40A105B10508F07C
:105820004AC00E949720681579058A059B0508F4EF
:1058300042C00E94972080905C0390905D03A090EE
:105840005E03B0905F03681579058A059B0550F4E7
:105850000E94972060935C0370935D0380935E03C6
:1058600090935F030E94972080905C0390905D036B
:10587000A0905E03B0905F03DC01CB018819990909
:10588000AA09BB09893B9B40A105B10520F0809185
:105890005B03811132C00E94D90F07C910928303A4
:1058A0000E94972060937F0370938003809381030D
:1058B00090938203BECF1093830361EB72E0CE011D
:1058C00001960E947E12CE0101960E94E21CCE013A
:1058D00001960E94C51164EB72E0CE0101960E9410
:1058E0007E12CE0101960E94A116CE0101960E9461
:1058F000C51183E00E947A169CCF67EC72E0CE015E
:1059000001960E947E12CE0101960E94400ECE01A9
:1059100001960E94C51167EC72E0CE0101960E94CB
:105920007E12CE0101960E947A0ECE0101960E944F
:10593000C51180915A0390E00E9454170E94F50C03
:1059400010925B03A8CFA8E6B0E0983010F40C9456
:105950004F22E0E0F0E00C945122CF92DF92EF92E0
:10596000FF92CF93DF9300D000D0CDB7DEB7109277
:10597000BB031092BA0398EEC92E93E0D92EE12C06
:10598000F12CC092BC03D092BD03E092BE03F09212
:10599000BF0381E192E09093B9038093B80325E3BC
:1059A00031E03093C5032093C40324E331E0309306
:1059B000C7032093C60320E331E03093C90320934B
:1059C000C80321E331E03093CB032093CA0322E3E1
:1059D00031E03093CD032093CC0326E331E03093C4
:1059E000CF032093CE031092D1031092D2031092D2
:1059F000D3031092D4031092580410925704C0920B
:105A00005904D0925A04E0925B04F0925C049093A3
:105A100056048093550425ED30E0309362042093C2
:105A2000610424ED30E0309364042093630420ED9E
:105A300030E0309366042093650421ED30E030932C
:105A400068042093670422ED30E030936A042093C9
:105A5000690426ED30E030936C0420936B041092BF
:105A60006E0410926F0410927004109271041092E0
:105A7000F5041092F404C092F604D092F704E09278
:105A8000F804F092F9049093F3048093F2042DEC5F
:105A900030E03093FF042093FE042CEC30E0309390
:105AA00001052093000528EC30E030930305209396
:105AB000020529EC30E030930505209304052AEC1B
:105AC00030E030930705209306052EEC30E030934C
:105AD00009052093080510920B0510920C051092F1
