:100000000C949F030C94D0030C94D0030C94D00355
:100010000C94D0030C94D0030C94D0030C94D00314
:100020000C94D0030C94D0030C94D0030C94D00304
:100030000C94D0030C94D0030C94D0030C94D003F4
:100040000C94D0030C94D0030C94D0030C94D003E4
:100050000C9406170C94D0030C94D0030C942E2D02
:100060000C94D0030C94A62A0C94392A0C94D00337
:100070000C94D0030C94D0030C94D0030C94D003B4
:100080000C94D0030C94D0030C94D0030C94D003A4
:100090000C94D0030C94D0030C94D0030C94D00394
:1000A0000C94D0030C94D0030C94D0030C94D00384
:1000B0000C94D0030C94D0030C94D0030C94D00374
:1000C0000C94D0030C94D0030C94D0030C941B1507
:1000D0000C94F1140C94D0030C947C2A0C940F2AE9
:1000E0000C94D003140517051A05230526052905C8
:1000F0002C052F056305660569056C056F057205FE
:1001000075057E0587059005930596052E102E1022
:100110003F103F103F10501050106110692B6C2B96
:100120005B2B5F2B652BA32B702B742B7A2B7E2BD9
:10013000822B882B8C2B902BA32B962B9A2B9E2BD0
:100140000C947E050C948D270C9472050C949E2BB8
:100150000C94652B0C94882B0C949A2B0C942905E9
:100160000C9466050C9461100C9450100C947E2B2A
:100170000C94D2030C94312C0C9414050C948C2BFD
:100180000C9475050C945B2B0C94692B0C94230533
:100190000C943F100C94702B0C9463050C94032B5F
:1001A0000C94902B0C94112B0C942C050C940F3F59
:1001B0000C9490050C9493050C94742B0C94822B46
:1001C0000C94EF2A0C945F2B0C94962B0C9417052F
:1001D0000C942E100C94EA2B0C9487050C947A2B1B
:1001E0000C9469050C946C2B0C941A050C946C05FA
:1001F0000C9426050C94123A0C94A32B0C9496059F
:100200000C942F050C946F054C45442043757020C9
:1002100048616E646C65202D204F46460072656112
:1002200064206565702E2063757020737461636B44
:10023000657220706F732E203D20004F4B00437578
:100240007020737461636B6572203E3E204F4B00DB
:10025000454D5054590043757020737461636B654C
:1002600072203E3E20456D707479004F4646004F27
:100270004E004F4B00504F574552204F4E00232306
:1002800023206D696E69436F66666565204861630A
:100290006B20762E333033203E3E205374617274CF
:1002A0002E2E007772697465206565702E20697442
:1002B000656D5F70726963655B004F726465722083
:1002C0004E6F2E2069732057726F6E6720212100B8
:1002D0006D616B655369676E616C546F436F696ED6
:1002E000203E3E20556E7375636365737320212134
:1002F000004F72646572205061796F7574203E3EC4
:10030000204F4B004F72646572205061796F757495
:10031000203E3E2054696D656F7574002000554E77
:1003200053554343455353005472616E7361637474
:10033000696F6E203E3E20554E53554343455353FF
:10034000200053554343455353005472616E73610B
:100350006374696F6E203E3E2053554343455353AB
:100360002000454D505459004375702073746163EB
:100370006B6572203E3E20456D707479004F4B00D6
:1003800043757020737461636B6572203E3E204F2D
:100390004B004F4E00426F696C6572203E3E20500C
:1003A0006F776572204F4E004F464600426F696C72
:1003B0006572203E3E20506F776572204F464600A2
:1003C0004C4F57005761746572204C6576656C2000
:1003D0003E3E204C4F57004F4B00576174657220D2
:1003E0004C6576656C203E3E204F4B004F464600E4
:1003F00050756D70203E3E20436C6F736500455212
:10040000524F520050756D70203E3E204572726F03
:1004100072004F4E0050756D70203E3E204F70654B
:100420006E007772697465206565702E2063757043
:1004300020737461636B657220706F732E203D2092
:100440000072656164206565702E206974656D5F5A
:1004500070726963655B00300030300045004F4BBF
:10046000004F50454E00434C4F5345005365742098
:1004700050756D702031202D204F4E005365742033
:1004800050756D702031202D204F464600736574E5
:100490004C45444974656D53656C6563745077725F
:1004A000203E3E204E6F7420666F756E64202121C1
:1004B000003000003A003A0064617461203E3E2042
:1004C000656D707479212100526573657420436FE6
:1004D0006D706F7274212100526573706F6E736559
:1004E0002054696D656F757421210000436C6F7530
:1004F00064426F782052657475726E203E3E2052C1
:10050000455345540000436C6F7564426F78205228
:10051000657475726E203E3E204552524F52000067
:10052000436C6F7564426F782052657475726E20EB
:100530003C3C20425553590000436C6F7564426F38
:10054000782052657475726E203C3C20526561645F
:10055000790000436C6F7564426F78205265747542
:10056000726E203C3C204F4B005245414459004E96
:100570004F54205245414459004E4F54205245415A
:100580004459004E4F54205245414459004E4F5457
:10059000205245414459004E4F5420524541445940
:1005A000004E4F54205245414459004E4F54205262
:1005B00045414459004C4544204375702048616EC4
:1005C000646C65202D204F4E00434354414C4B003A
:1005D000434C4F5544424F5800434354414C4B2DDC
:1005E000444556494345002D002D002D002D002D7A
:1005F000002D002D002D002D002D002D002D002D93
:10060000003D003A0043422B534554400023000074
:1006100043422B55500023000000002100240027F6
:10062000002A002D00300033000101000004010702
:10063000010A0100002200250028002B002E0031B5
:1006400000340002010000050108010B0100002038
:10065000002300260029002C002F0032000001009A
:10066000000301060109010505050507050808083D
:1006700008020202020A0A08080404040401010133
:10068000010101010103030303030303030407073B
:10069000070C0C0C0C0C0C0C0C02020202060606D9
:1006A00006060606060B0B0B0B0B0B0B0B010210C1
:1006B000202008081020401020408002010201087C
:1006C000040201010204081020408080402010082C
:1006D0000402018004020180402010080402010885
:1006E00004020101020408102040800102040810E5
:1006F00020408000000A0B02090C0D0E08070304BD
:1007000001000000000000000000000000000000E8
:1007100000000000000000000000000000000012C7
:1007200011100000000000000000000000000000A8
:1007300000000000000000000000123A0F3F1124EA
:100740001FBECFEFD1E2DEBFCDBF00E00CBF16E091
:10075000A0E0B2E0E2E3FEE800E00BBF02C00790D9
:100760000D92A036B107D9F72DE0A0E6B6E001C0A2
:100770001D92AA32B207E1F713E0CEE9D3E000E020
:1007800006C021970109802FFE010E940340CD3948
:10079000D10780E00807A9F70E94782D0C9407473D
:1007A0000C940000CF9380910802833009F4D9C1E2
:1007B00034F4813059F0823009F46AC178C284304F
:1007C00009F4E8C1853009F43CC271C220918E065B
:1007D00030918F062115310509F40DC18091C20CAD
:1007E0009091C30C2817390761F1203553EC350778
:1007F00030F420348CE9380738F0C90102C08FE4A6
:1008000093EC80549C4919C0203395E7390720F0B8
:10081000C9018053954711C020325EE4350720F0AE
:10082000C90180529E4409C0203187E2380720F078
:10083000C9018051974201C0C9019093C30C8093B4
:10084000C20C4091B50C4130E1F038F0423009F46F
:1008500057C0433009F48CC0C1C06AE070E00E9408
:10086000B93FFC01E955F34F83812031374208F04D
:100870008F7D90E09093B90C8093B80C8DEF90E051
:10088000A9C020323E4420F18A30910568F064E628
:1008900070E00E94B93F6AE070E00E94B93FFB013E
:1008A000E955F34F838102C08091AA0C90E09093A8
:1008B000B90C8093B80C8091B80C9091B90C8F7DD5
:1008C00099279093B90C8093B80C8FEE90E082C07A
:1008D0008A30910570F064E670E00E94B93F6AE0EA
:1008E00070E00E94B93FFB01E955F34F838190E02E
:1008F000E8CF8FEF90E09093B90C8093B80C6AC06A
:100900002033354720F18436910568F068EE73E0B6
:100910000E94B93F64E670E00E94B93FFB01E955CF
:10092000F34F838102C08091AA0C90E09093B90CA0
:100930008093B80C8091B80C9091B90C8F7D992759
:100940009093B90C8093B80C87EF90E043C0843645
:10095000910578F268EE73E00E94B93F64E670E0BA
:100960000E94B93FFB01E955F34F838190E0E8CF46
:1009700020343C49D8F0883E23E0920748F068EEE6
:1009800073E00E94B93FFB01E955F34F838102C038
:100990008091AA0C90E09093B90C8093B80C809150
:1009A000B80C9091B90C8F7D99270EC0883E53E00A
:1009B000950708F49ECF68EE73E00E94B93FFB01F3
:1009C000E955F34F838190E09093B90C8093B80C74
:1009D0008BEF90E09093BB0C8093BA0C4F5F443048
:1009E00018F44093B50C02C01092B50C88EB9CE053
:1009F000CF910C9455238091BC0C9091BD0C019724
:100A00009093BD0C8093BC0C892B09F050C1809150
:100A1000B40C90E08830910550F5FC018827EE5821
:100A2000FF4F8F4F0C9403408BEF90E005C087EF92
:100A300090E017C08FEE90E09093BB0C8093BA0CBF
:100A40000E949A2314C08DEF90E00BC08DEF90E0D0
:100A5000F3CF8FEE90E005C087EF90E0EDCF8BEF06
:100A600090E09093BB0C8093BA0C0E94A4238091D9
:100A7000B40C8F5F883018F48093B40C02C01092CD
:100A8000B40C86E990E09093BD0C8093BC0C0FC130
:100A90008091BE0C9091BF0C01979093BF0C8093F6
:100AA000BE0C892B09F003C19091B70C492F50E07F
:100AB0004C30510508F046C0FA018827E658FF4F30
:100AC0008F4F0C9403402EEF30E032C02EEF30E019
:100AD00020C02EEF30E014C02EEF30E008C02BEF26
:100AE00030E005C02FEE30E002C02FEB30E0309355
:100AF000B90C2093B80C2DEF30E020C02FEB30E084
:100B00003093B90C2093B80C2FEE30E017C02FEBC8
:100B100030E03093B90C2093B80C27EF30E00EC0D2
:100B20002FEB30E005C02FE730E002C02DEF30E0C2
:100B30003093B90C2093B80C2BEF30E03093BB0C02
:100B40002093BA0C24E130E03093BF0C2093BE0C0C
:100B50009F5F9C3018F49093B70C48CF1092B70C5D
:100B600045CFC091B606C13059F008F474C0C23008
:100B700061F0C33011F56DEF70E08BE590E01BC0C4
:100B800067EF70E082EC90E016C06FEE70E087EDEA
:100B900090E011C08091980C882309F44DC0082E74
:100BA000000C990BC091B606C130A9F078F46BEF38
:100BB00070E08BEC90E00E94BE23CF5FC093B6063E
:100BC000C43008F474C01092B60671C0C23041F04F
:100BD000C330E1F0F2CF67EF70E083EE90E0EBCF4F
:100BE0008F3F2FEF920709F440C0843691051CF027
:100BF0006FEE70E017C08A309105BCF16AE070E0DA
:100C00000E94CD3FCB016FEE70E033C08F3F5FEFAE
:100C1000950719F46DEF70E02AC0843691052CF029
:100C20006DEF70E089E090E024C06AE070E00E941F
:100C3000CD3F6DEF70E01DC080918D06809308025E
:100C400036C0C091B606C13059F028F0C23069F004
:100C5000C33091F0B2CF6BEF70E083EC90E0ABCF9C
:100C600067EF70E088E090E0A6CF6FEE70E080E084
:100C700090E00E94AE23A1CF8091050283FD05C0C4
:100C80006DEF70E081E090E0F4CF82FD05C06DEF84
:100C900070E082E090E0EDCF84FD05C06DEF70E084
:100CA00083E090E0E6CF81E08093080286CFCF9189
:100CB000089583E00E94532C21E0892B09F020E065
:100CC000822F0895CF93DF9300D000D0CDB7DEB749
:100CD000FC01E859F94F20812617F9F06083823032
:100CE000910539F08330910531F0019741F484E3A7
:100CF00003C083E301C08FE20E947C2C0EC06DE82C
:100D000074E0CE0101960E948629CE0101960E94D0
:100D1000D02ACE0101960E94FC2826960FB6F894A0
:100D2000DEBF0FBECDBFDF91CF91089560E081E0BF
:100D300090E00E94620660E082E090E00E9462061D
:100D400060E083E090E00C9462060F931F93CF93D2
:100D5000DF938C01C1E0D0E0C017D10711F461E04E
:100D600001C060E0CE010E9462062196C430D10528
:100D700099F7DF91CF911F910F910895E1E8F0E08D
:100D800090818091B906892B808308951092080282
:100D9000E1E8F0E08081887F80830895CF92DF9240
:100DA000EF92FF920F931F936B017C010E94222D03
:100DB0000091800610918106209182063091830671
:100DC000601771078207930750F40E94222D6093E9
:100DD00080067093810680938206909383060E941A
:100DE000222D00918006109181062091820630917B
:100DF0008306AB01BC01401B510B620B730B81E0FE
:100E0000C416D506E606F70608F080E01F910F919C
:100E1000FF90EF90DF90CF900895E4E7F6E0118225
:100E2000128213821092890610928B0610928A0603
:100E3000E7EAFCE0158686E990E0968B858B108AC0
:100E400084E190E0908F878B08951F93CF93DF9379
:100E500000D000D0CDB7DEB7182F8CE20E94532C03
:100E600021E0892B09F420E0121721F1112381F0F0
:100E70006CE674E0CE0101960E948629CE010196AF
:100E80000E94D02ACE0101960E94FC2861E00FC08A
:100E90006CE774E0CE0101960E948629CE0101968E
:100EA0000E94D02ACE0101960E94FC2860E08CE2CC
:100EB0000E947C2C26960FB6F894DEBF0FBECDBFE5
:100EC000DF91CF911F9108958F929F92AF92BF9221
:100ED000EF92FF921F93CF93DF9300D000D0CDB756
:100EE000DEB780E30E94532C11E0892B09F410E057
:100EF0008091B506181761F00E94222D6093B1060B
:100F00007093B2068093B3069093B4061093B5061F
:100F10000E94222D8090B1069090B206A090B30658
:100F2000B090B406DC01CB0188199909AA09BB0964
:100F3000893E9340A105B10558F40E94222D681501
:100F400079058A059B0520F080910C02882389F1A0
:100F50002091050230910602812F90E021FBEE24C2
:100F6000E0F8F12C8E159F0521F480910C02882366
:100F700001F1112311F0226001C02D7F3093060290
:100F8000209305028091050281FF03C066E674E0AC
:100F900002C061E674E0CE0101960E948629CE016E
:100FA00001960E94E10FCE0101960E94FC2810924A
:100FB0000C02812F26960FB6F894DEBF0FBECDBF70
:100FC000DF91CF911F91FF90EF90BF90AF909F90D6
:100FD0008F9008951F93CF93DF93CDB7DEB76897B7
:100FE0000FB6F894DEBF0FBECDBF1091980C111153
:100FF00018C06EE574E0CE0101960E948629CE01EC
:1010000001960E94A70FCE0101960E94FC288091B4
:101010000502909106028062909306028093050279
:101020007EC06CE574E0CE0101960E9486291F3FC8
:1010300029F5BE016F5F7F4FCE0107960E94BE2942
:1010400069E574E0CE0107960E940A28811104C068
:10105000CE0107960E946F28BE01695F7F4FCE01C7
:101060000D960E94BE29CE010D960E94A70FCE01BB
:101070000D960E94FC28CE01079642C0612F012EDA
:10108000000C770B4AE0CE010D961A30B4F40E94A2
:101090002D29BE016F5F7F4FCE0107960E94BE29AA
:1010A00067E574E0CE0107960E940A2881110EC000
:1010B000CE0107960E946F2809C00E942D29BE010B
:1010C0006F5F7F4FCE0107960E94BE29BE01635F0E
:1010D0007F4FCE0107960E949A28BC01CE0143960D
:1010E0000E94BE29CE0143960E94A70FCE014396CF
:1010F0000E94FC28CE0107960E94FC28CE010D9686
:101100000E94FC2880910502909106028F7D9093A9
:10111000060280930502CE0101960E94FC28689683
:101120000FB6F894DEBF0FBECDBFDF91CF911F91F8
:1011300008955F926F927F928F929F92AF92BF922B
:10114000CF92DF92EF92FF920F931F93CF93DF9393
:10115000CDB7DEB7A0970FB6F894DEBF0FBECDBFF8
:1011600066246394712C552453948E010F5F1F4F96
:1011700096E4E92E93E0F92E22E3C22E23E0D22E4C
:1011800082E0681629F093E0691621F082E303C03B
:1011900085E301C081E30E94532C21E0892B09F4EF
:1011A00020E0F301E059F94F4F012083C301845936
:1011B000994F5C01FC0180818217E9F0211109C07F
:1011C000F301EC58F94F50827F926F92DF92CF92E9
:1011D00004C07F926F92FF92EF921F930F930E9431
:1011E00088420F900F900F900F900F900F90F40186
:1011F0008081F5018083FFEF6F1A7F0A84E0681613
:10120000710409F0BDCFA0960FB6F894DEBF0FBEF3
:10121000CDBFDF91CF911F910F91FF90EF90DF90A5
:10122000CF90BF90AF909F908F907F906F905F9086
:101230000895CF93DF93CDB7DEB768970FB6F894D4
:10124000DEBF0FBECDBF62E274E0CE0101960E9408
:10125000862960918C0680E190E00E94F9466AE060
:1012600070E080E090E00E94E82C60918C06062EF1
:10127000000C770B4AE0CE010D960E942D29BE018D
:101280006F5F7F4FCE0107960E94BE29BE01635F4C
:101290007F4FCE0107960E949A28BC01CE0143964B
:1012A0000E94BE29CE0143960E94D02ACE014396C9
:1012B0000E94FC28CE0107960E94FC28CE010D96C4
:1012C0000E94FC28CE0101960E94FC2868960FB669
:1012D000F894DEBF0FBECDBFDF91CF910895E8E750
:1012E000F6E082819381883E934010F0138212824F
:1012F000329686E0EE37F807A1F708958F929F9215
:10130000AF92BF92CF92DF92EF92FF921F93CF9353
:10131000DF93CDB7DEB762970FB6F894DEBF0FBE8E
:10132000CDBF8AE7A82E86E0B82E96E8E92E96E093
:10133000F92E11E02AE0C22ED12CC6010E94F146FE
:10134000982EC60101960E94F146292D30E0A90190
:10135000582BCA014501F5015183408320910502B4
:1013600030910602F701892BD9F48081806880834F
:10137000123039F0133071F02F7B30930602209336
:10138000050280910502909106029E7F90930602CD
:101390008093050280910502909106029B7F1AC0FE
:1013A00080818F778083123039F0133071F02064A0
:1013B0003093060220930502809105029091060267
:1013C00091609093060280930502809105029091AE
:1013D0000602946090930602809305020E946F09B2
:1013E00061E474E0CE010D960E9486294AE0612FE7
:1013F000CE0107960E945929BE01695F7F4FCE0139
:1014000001960E94BE296CE472E0CE0101960E9412
:101410008128BC01CE010D960E946828CE0101965C
:101420000E94FC28CE0107960E94FC28F2E0AF0E35
:10143000B11CF401608171814AE0CE0101960E94E5
:101440000129BE016F5F7F4FCE010D960E94682873
:10145000CE0101960E94FC28BE01635F7F4FCE0142
:1014600001960E94BE29CE0101960E94D02ACE018B
:1014700001960E94FC28CE010D960E94FC28F2E005
:10148000CF0ED11C1F5F4FEFE41AF40A143009F09D
:1014900054CF62960FB6F894DEBF0FBECDBFDF917A
:1014A000CF911F91FF90EF90DF90CF90BF90AF90C2
:1014B0009F908F90089585E30E94532C21E0892B03
:1014C00009F420E0822F0895CF92DF92EF92FF92ED
:1014D0000F931F93CF93DF9300D000D0CDB7DEB72B
:1014E0008DE10E94532C2091AC0630E082179307C7
:1014F00099F08DE10E94532C21E0892B09F420E022
:101500002093AC060E94222D6093A8067093A90632
:101510008093AA069093AB060E94222DC090A80645
:10152000D090A906E090AA06F090AB06DC01CB01B2
:101530008C199D09AE09BF098D329140A105B105F5
:1015400028F480910A02882309F46CC08DE10E947E
:10155000532C2091050230910602892B11F0206155
:1015600001C02F7E309306022093050220910502D0
:101570008091A70690E024FB002700F910E0801777
:10158000910729F480910A02882309F45CC024FFA2
:101590001DC06AED73E0CE0101960E948629CE013E
:1015A00001960E94D02ACE0101960E94FC2867ED88
:1015B00073E0CE0101960E948629CE0101960E9419
:1015C0004011CE0101960E94FC2823C064EC73E018
:1015D000CE0101960E948629CE0101960E94D02A52
:1015E000CE0101960E94FC2860EC73E0CE010196CA
:1015F0000E948629CE0101960E944011CE010196DB
:101600000E94FC288091080280938D0685E08093DB
:10161000080280910502829581708093A70610923E
:101620000A0211C00E94222D6C157D058E059F05B2
:1016300050F40E94222D6093A8067093A90680930F
:10164000AA069093AB068091050284FD34C08CE21B
:101650000E94532C892B79F580910B02882359F134
:1016600081E00E94250765E174E0CE0101960E94A9
:101670008629CE0101960E94D02ACE0101960E94B1
:10168000FC2862E174E0CE0101960E94862960E0A8
:10169000CE0101960E94040FCE0101960E94FC2803
:1016A0000E94222D6093AD067093AE068093AF0624
:1016B0009093B00682C08CE20E94532C892B09F4CF
:1016C0007CC08091050284FD39C00E94222D0091CA
:1016D000AD061091AE062091AF063091B006DC0148
:1016E000CB01801B910BA20BB30B81349C49A1054C
:1016F000B10508F462C080E00E94250764E074E050
:10170000CE0101960E948629CE0101960E94D02A20
:10171000CE0101960E94FC286EEF73E0CE01019687
:101720000E94862961E0CE0101960E94040FCE013D
:1017300001960E94FC2810920B023FC00E94222DAD
:10174000C090AD06D090AE06E090AF06F090B00627
:10175000DC01CB018C199D09AE09BF0981349C497C
:10176000A105B10538F40E94222D6C157D058E056A
:101770009F0518F580E00E94250760EF73E0CE0119
:1017800001960E948629CE0101960E94D02ACE01A0
:1017900001960E94FC286CEE73E0CE0101960E9437
:1017A000862961E0CE0101960E94040FCE010196C8
:1017B0000E94FC2881E080930B0226960FB6F894D5
:1017C000DEBF0FBECDBFDF91CF911F910F91FF9074
:1017D000EF90DF90CF900895CF92DF92EF92FF923B
:1017E0001F93CF93DF93C82F0E94222D6B017C01A2
:1017F00010E0D0E00E94640A0E943117CE010E94DE
:10180000CF1D0E94222D6C157D058E059F0520F4AD
:101810000E94222D6B017C010E94222DDC01CB0154
:101820008C199D09AE09BF09893C9105A105B10537
:1018300058F48FE10E94532C892BE1F20E94222D53
:101840006B017C0111E0D6CF812FDF91CF911F91E9
:10185000FF90EF90DF90CF9008950F931F9385E254
:101860000E94532C892B61F40E94222D6093600604
:1018700070936106809362069093630681E027C0AF
:101880000E94222D0091600610916106209162064F
:1018900030916306DC01CB01801B910BA20BB30BD3
:1018A000853F9140A105B10588F40E94222D009149
:1018B0006006109161062091620630916306601700
:1018C00071078207930710F08FEF01C080E01F912E
:1018D0000F9108950F931F93CF93DF9300D000D003
:1018E000CDB7DEB70E942D0C209105023091060283
:1018F000811102C0286003C0813029F4277F309312
:10190000060220930502209105028091A60690E030
:1019100023FB002700F910E08017910729F480913C
:101920000902882309F44BC023FF1DC06CEA73E051
:10193000CE0101960E948629CE0101960E94D02AEE
:10194000CE0101960E94FC2868EA73E0CE01019660
:101950000E948629CE0101960E940611CE010196B1
:101960000E94FC2823C065E973E0CE0101960E9425
:101970008629CE0101960E94D02ACE0101960E94AE
:10198000FC2862E973E0CE0101960E948629CE010F
:1019900001960E940611CE0101960E94FC288091BA
:1019A000080280938D0685E08093080280910502ED
:1019B00083FB882780F98093A60610920902269659
:1019C0000FB6F894DEBF0FBECDBFDF91CF911F9150
:1019D0000F91089561E085E00C947C2CCF92DF920A
:1019E000EF92FF920F931F93CF93DF93CDB7DEB7A4
:1019F00062970FB6F894DEBF0FBECDBF0E945906A6
:101A0000811106C061E086E00E947C2CF12C06C0AA
:101A100060E086E00E947C2CFF24F39460E085E087
:101A20000E947C2C0E94731200E010E0EE24E394EC
:101A30008BE9C82E8FE0D82E0E94640A0E943117CD
:101A400083E20E94532C892B69F066E173E0CE019A
:101A500001960E94C729CE0101960E94D02ACE018C
:101A6000019657C061E087E00E947C2CC601019777
:101A7000F1F760E087E00E947C2CC6010197F1F746
:101A80000E945906882311F0E11031C0FF2009F4AB
:101A90007CC00E945906811176C081E080938C063B
:101AA0004AE0B801CE0107960E94012960E773E081
:101AB000CE0101960E94C729BE01695F7F4FCE010A
:101AC00001960E949A28BC01CE010D960E94BE2963
:101AD000CE010D960E94D02ACE010D960E94FC28C0
:101AE000CE0101960E94FC28CE01079612C00E94EA
:101AF000EA0C6CE271E080E090E00E94E82C60E08B
:101B000086E00E947C2C60E085E00E947C2CE12C29
:101B1000C0CF0E94FC280E94EA0C0E941909609123
:101B20008C06633681F46CE573E0CE0101960E9469
:101B3000C729CE0101960E94D02ACE0101960E94AB
:101B4000FC2860918C06062E000C770B4AE0CE0133
:101B500001960E942D2961E0CE0101960E947A1122
:101B6000CE0101960E94FC2862960FB6F894DEBF63
:101B70000FBECDBFDF91CF911F910F91FF90EF90DE
:101B8000DF90CF900895FF24F3940F5F1F4F093823
:101B900083E1180709F050CF83E680938C06BBCF12
:101BA0004F925F926F927F928F929F92AF92BF926D
:101BB000CF92DF92EF92FF920F931F93CF93DF9319
:101BC0004B015C018091D4069091D506A091D60678
:101BD000B091D70688169906AA06BB0609F4C2C0BA
:101BE0008CE3C82ED12CE12CF12CC501B401A70146
:101BF00096010E94E13F6093CD06CA01B901A70199
:101C000096010E94E13F6093CE06CA01B90128E126
:101C100030E040E050E00E94E13F69017A016093CA
:101C2000CF06CA01B9016C5F7F4F8F4F9F4F27E0EE
:101C300030E040E050E00E94E13F6F5F6093D006EB
:101C4000412C512C320140E004E610E0C0E9D1E023
:101C5000242F30E02E54384FF901E370FF273097DE
:101C600089F4C901B8010E94CD3F892B31F4C90123
:101C7000BE010E94CD3F892B29F48EE691E0A0E0C1
:101C8000B0E004C08DE691E0A0E0B0E0480E591E3F
:101C90006A1E7B1ED301C201AA27BB27C816D9061C
:101CA000EA06FB0610F04F5FD3CF4093D306309780
:101CB00099F4C90164E670E00E94CD3F892B39F4A4
:101CC000C90160E971E00E94CD3F892B29F48EE6BD
:101CD00091E0A0E0B0E004C08DE691E0A0E0B0E0CB
:101CE000481A590A6A0A7B0AC418D508E608F70890
:101CF000C90164E670E00E94CD3FEC01C90160E9D2
:101D000071E00E94CD3FA3E1B2E020E0213039F440
:101D1000309749F4209729F4009729F402C04C9198
:101D200003C04DE101C04CE150E060E070E0C4163A
:101D3000D506E606F70640F0C41AD50AE60AF70A01
:101D40002F5F11962C3011F72F5F2093D206C3948A
:101D5000C092D1068092D4069092D506A092D60663
:101D6000B092D706DF91CF911F910F91FF90EF9026
:101D7000DF90CF90BF90AF909F908F907F906F90AB
:101D80005F904F90089584EF96E00E94112B21E020
:101D9000892B09F420E0822F0895EF92FF920F9390
:101DA0001F93CF93DF9300D000D0CDB7DEB78C0167
:101DB0007A0163EB74E00E9486298AE0E816F10458
:101DC0002CF461EB74E0C8010E940A284AE0B701D4
:101DD000CE0101960E942D29BE016F5F7F4FC80181
:101DE0000E946828CE0101960E94FC28C801269610
:101DF0000FB6F894DEBF0FBECDBFDF91CF911F911C
:101E00000F91FF90EF9008951F93CF93DF93CDB77D
:101E1000DEB762970FB6F894DEBF0FBECDBF162FA8
:101E2000BC01CE0101960E94BE2965E47CE0CE0192
:101E300007960E94BE2961E27CE0CE010D960E94C9
:101E4000BE29AE014F5F5F4FBE01695F7F4FCE017C
:101E50000D960E94B924CE010D960E94FC28CE0159
:101E600007960E94FC28CE0101960E94FC281111C1
:101E70000E946C2462960FB6F894DEBF0FBECDBFF1
:101E8000DF91CF911F9108950F931F93CF93DF930D
:101E9000CDB7DEB769970FB6F894DEBF0FBECDBFE2
:101EA000282F8B0161E27CE0CE014396298F0E94AE
:101EB000BE29298D223061F0233091F02130C1F507
:101EC000B801CE0101960E94BE2967E57CE00FC0F3
:101ED000B801CE0101960E94BE2963E67CE007C0EE
:101EE000B801CE0101960E94BE296FE67CE0CE01CA
:101EF00007960E94BE29BE016D5E7F4FCE010D96F2
:101F00000E94BE29AE014F5F5F4FBE01695F7F4FE8
:101F1000CE010D960E94B924CE010D960E94FC2898
:101F2000CE0107960E94FC28CE0101960E94FC2853
:101F3000CE0143960E94FC2869960FB6F894DEBF46
:101F40000FBECDBFDF91CF911F910F910895CF9319
:101F5000DF93CDB7DEB762970FB6F894DEBF0FBE42
:101F6000CDBFBC01CE0101960E94BE296BE47CE08E
:101F7000CE0107960E94BE2961E27CE0CE010D965B
:101F80000E94BE29AE014F5F5F4FBE01695F7F4F68
:101F9000CE010D960E94B924CE010D960E94FC2818
:101FA000CE0107960E94FC28CE0101960E94FC28D3
:101FB00062960FB6F894DEBF0FBECDBFDF91CF9112
:101FC0000895CF93DF93CDB7DEB762970FB6F8943D
:101FD000DEBF0FBECDBFBC01CE0101960E94BE295F
:101FE0006DE27CE0CE0107960E94BE2961E27CE0B2
:101FF000CE010D960E94BE29AE014F5F5F4FBE011C
:10200000695F7F4FCE010D960E94B924CE010D96D7
:102010000E94FC28CE0107960E94FC28CE01019662
:102020000E94FC2862960FB6F894DEBF0FBECDBFAB
:10203000DF91CF910895CF93DF9300D000D0CDB73B
:10204000DEB790E0FC013897E830F10508F04AC0AF
:102050008827EA57FF4F8F4F0C94034068E773E0DF
:10206000CE0101960E94C729CE0101960E94201E32
:10207000CE0101960E94FC2881E090E035C06BE81B
:1020800073E0CE0101960E94C729CE0101960E94FD
:10209000201ECE0101960E94FC2882E090E024C020
:1020A0006EE973E0CE0101960E94C729CE01019628
:1020B0000E94201ECE0101960E94FC2885E090E03F
:1020C00013C061EB73E0CE0101960E94C729CE01D7
:1020D00001960E94201ECE0101960E94FC288AE0F3
:1020E00090E002C080E090E026960FB6F894DEBF44
:1020F0000FBECDBFDF91CF910895CF93DF93CDB7C2
:10210000DEB762970FB6F894DEBF0FBECDBFBC013D
:10211000CE0101960E94BE2963E37CE0CE010796C2
:102120000E94BE2961E27CE0CE010D960E94BE298C
:10213000AE014F5F5F4FBE01695F7F4FCE010D96CD
:102140000E94B924CE010D960E94FC28CE0107966C
:102150000E94FC28CE0101960E94FC2862960FB6D0
:10216000F894DEBF0FBECDBFDF91CF910895CF931E
:10217000DF93CDB7DEB762970FB6F894DEBF0FBE20
:10218000CDBF2091D908223079F065EC73E0CE0103
:1021900001960E94C729CE0101960E94CC23CE0150
:1021A00001960E94FC2829C0BC01CE0101960E9424
:1021B000BE2961E87CE0CE0107960E94BE296BE74C
:1021C0007CE0CE010D960E94BE29AE014F5F5F4FAD
:1021D000BE01695F7F4FCE010D960E94B924CE01EA
:1021E0000D960E94FC28CE0107960E94FC28CE0185
:1021F00001960E94FC280E946C2462960FB6F89407
:10220000DEBF0FBECDBFDF91CF910895CF93DF9397
:10221000CDB7DEB762970FB6F894DEBF0FBECDBF65
:10222000BC01CE0101960E94BE2969E37CE0CE018B
:1022300007960E94BE2961E27CE0CE010D960E94C5
:10224000BE29AE014F5F5F4FBE01695F7F4FCE0178
:102250000D960E94B924CE010D960E94FC28CE0155
:1022600007960E94FC28CE0101960E94FC286296E7
:102270000FB6F894DEBF0FBECDBFDF91CF910895AA
:10228000CF93DF93CDB7DEB762970FB6F894DEBF7A
:102290000FBECDBFBC01CE0101960E94BE296FE3E7
:1022A0007CE0CE0107960E94BE2961E27CE0CE016F
:1022B0000D960E94BE29AE014F5F5F4FBE01695F60
:1022C0007F4FCE010D960E94B924CE010D960E943B
:1022D000FC28CE0107960E94FC28CE0101960E94A0
:1022E000FC2862960FB6F894DEBF0FBECDBFDF911B
:1022F000CF9108951F93CF93DF93CDB7DEB7629749
:102300000FB6F894DEBF0FBECDBF162FBC01CE01B5
:1023100001960E94BE2965E77CE0CE0107960E94E7
:10232000BE2961E27CE0CE010D960E94BE29AE017D
:102330004F5F5F4FBE01695F7F4FCE010D960E94D8
:10234000B924CE010D960E94FC28CE0107960E946A
:10235000FC28CE0101960E94FC2811110E946C24D9
:1023600062960FB6F894DEBF0FBECDBFDF91CF915E
:102370001F910895CF93DF932091EF0B3091F00BD5
:10238000232B79F0FC01C091EB0BD091EC0B608119
:102390007181CE010E946E42009719F08C1B9D0B3B
:1023A00002C08FEF9FEFDF91CF910895CF92DF9220
:1023B000EF92FF920F931F93CF93DF93EC016A018B
:1023C0007B01E889F98982E080834115514E6105DE
:1023D0007105B1F060E079E08DE390E0A70196012E
:1023E0000E94E13F89019A01015011092109310937
:1023F0003695279517950795980101151041A8F076
:10240000E889F989108260E874E88EE190E0A7011C
:1024100096010E94E13FDA01C9010197A109B109C2
:10242000B695A795979587959C01EC85FD8530839A
:10243000EE85FF852083188EEC89FD8986E08083F8
:10244000EA89FB89808180618083EA89FB898081B8
:1024500088608083EA89FB89808180688083EA893B
:10246000FB8980818F7D8083DF91CF911F910F91B8
:10247000FF90EF90DF90CF9008950F931F930E94ED
:10248000222D0091DF081091E0082091E1083091A1
:10249000E208601771078207930750F40E94222D0B
:1024A0006093DF087093E0088093E1089093E2085E
:1024B0000E94222D0091DF081091E0082091E10890
:1024C0003091E208DC01CB01801B910BA20BB30B16
:1024D00021E088389341A105B10508F420E0822F5E
:1024E0001F910F910895E7EAFCE08FEF90E0928B47
:1024F000818B948B838B88EB9CE00C945523CF933A
:10250000DF93CDB7DEB762970FB6F894DEBF0FBE8C
:10251000CDBFBC01CE0101960E94BE296BE17CE0DB
:10252000CE0107960E94BE2965E17CE0CE010D96A2
:102530000E94BE29AE014F5F5F4FBE01695F7F4FB2
:10254000CE010D960E94B924CE010D960E94FC2862
:10255000CE0107960E94FC28CE0101960E94FC281D
:102560000E946C2462960FB6F894DEBF0FBECDBFFA
:10257000DF91CF9108950F931F93CF93DF93CDB742
:10258000DEB769970FB6F894DEBF0FBECDBF282F18
:102590008B0161E27CE0CE014396298F0E94BE2927
:1025A000298D223069F02330A1F02130D9F54AE09D
:1025B000B801CE0101960E94012961E57CE011C0BD
:1025C0004AE0B801CE0101960E9401296DE57CE048
:1025D00008C04AE0B801CE0101960E94012969E6CF
:1025E0007CE0CE0107960E94BE29BE016D5E7F4F42
:1025F000CE010D960E94BE29AE014F5F5F4FBE0116
:10260000695F7F4FCE010D960E94B924CE010D96D1
:102610000E94FC28CE0107960E94FC28CE0101965C
:102620000E94FC28CE0143960E94FC2869960FB6B2
:10263000F894DEBF0FBECDBFDF91CF911F910F91F8
:1026400008952091B50C2F5F243018F42093B50C19
:1026500002C01092B50C2091B50C2130F9F070F049
:102660002230D1F1233009F051C080E590E0909301
:10267000B90C8093B80C8BEF90E044C06AE070E036
:102680000E94B93FFC01E955F34F838190E090939C
:10269000B90C8093B80C8DEF90E034C08A3091056E
:1026A000A0F064E670E00E94B93F6AE070E00E942A
:1026B000B93FFB01E955F34F838190E09093B90C4A
:1026C0008093B80C8FEE90E01DC08FEF90E0909358
:1026D000B90C8093B80C16C084369105B0F368EE3F
:1026E00073E00E94B93F64E670E00E94B93FFB01CD
:1026F000E955F34F838190E09093B90C8093B80C27
:1027000087EF90E09093BB0C8093BA0C88EB9CE031
:102710000C945523CF92DF92EF92FF920F931F9369
:102720006B017C010E94222D00918D0C10918E0C6A
:1027300020918F0C3091900C6017710782079307DE
:1027400050F40E94222D60938D0C70938E0C809318
:102750008F0C9093900C0E94222D00918D0C109163
:102760008E0C20918F0C3091900CAB01BC01401B62
:10277000510B620B730B81E04C155D056E057F05F7
:1027800008F480E01F910F91FF90EF90DF90CF90C1
:102790000895CF93DF9300D000D0CDB7DEB78091FE
:1027A000910C8823A9F06DEC73E0CE0101960E9494
:1027B000C729CE0101960E945E20CE0101960E949B
:1027C000FC2860E080919C0C0E947C2C1092910C63
:1027D0000E94222D60938D0C70938E0C80938F0C31
:1027E0009093900C64EF71E080E090E00E948A1377
:1027F000811103C00E94411EF5CF26960FB6F894B2
:10280000DEBF0FBECDBFDF91CF910895CF93DF9391
:10281000CDB7DEB762970FB6F894DEBF0FBECDBF5F
:102820004AE0682FCE0101960E9459296DEF7BE0A6
:10283000CE0107960E94BE2967EF7BE0CE010D9680
:102840000E94BE29AE014F5F5F4FBE01695F7F4F9F
:10285000CE010D960E94B924CE010D960E94FC284F
:10286000CE0107960E94FC28CE0101960E94FC280A
:1028700062960FB6F894DEBF0FBECDBFDF91CF9149
:102880000895CF93DF93CDB7DEB762970FB6F89474
:10289000DEBF0FBECDBF4AE0BC01CE0101960E9453
:1028A000012963E07CE0CE0107960E94BE2967EF14
:1028B0007BE0CE010D960E94BE29AE014F5F5F4FB7
:1028C000BE01695F7F4FCE010D960E94B924CE01F3
:1028D0000D960E94FC28CE0107960E94FC28CE018E
:1028E00001960E94FC2862960FB6F894DEBF0FBED8
:1028F000CDBFDF91CF910895CF93DF93CDB7DEB7F2
:1029000062970FB6F894DEBF0FBECDBF4AE0BC01A0
:10291000CE0101960E94012969E07CE0CE01079674
:102920000E94BE2967EF7BE0CE010D960E94BE2972
:10293000AE014F5F5F4FBE01695F7F4FCE010D96C5
:102940000E94B924CE010D960E94FC28CE01079664
:102950000E94FC28CE0101960E94FC2862960FB6C8
:10296000F894DEBF0FBECDBFDF91CF910895CF9316
:10297000DF93CDB7DEB762970FB6F894DEBF0FBE18
:10298000CDBFBC01CE0101960E94BE296FE07CE064
:10299000CE0107960E94BE2967EF7BE0CE010D961F
:1029A0000E94BE29AE014F5F5F4FBE01695F7F4F3E
:1029B000CE010D960E94B924CE010D960E94FC28EE
:1029C000CE0107960E94FC28CE0101960E94FC28A9
:1029D00062960FB6F894DEBF0FBECDBFDF91CF91E8
:1029E00008951F920F920FB60F9211240BB60F92FB
:1029F0002F933F934F935F936F937F938F939F9307
:102A0000AF93BF93EF93FF9384EF96E00E94C92B9F
:102A1000FF91EF91BF91AF919F918F917F916F91B6
:102A20005F914F913F912F910F900BBE0F900FBE72
:102A30000F901F9018951F920F920FB60F921124AE
:102A40000BB60F922F933F934F935F936F937F93A8
:102A50008F939F93AF93BF93EF93FF9384EF96E091
:102A60000E94632AFF91EF91BF91AF919F918F9147
:102A70007F916F915F914F913F912F910F900BBE7E
:102A80000F900FBE0F901F9018954F925F926F920C
:102A90007F928F929F92AF92BF92EF92FF920F938D
:102AA0001F93CF93DF93CDB7DEB76E970FB6F89431
:102AB000DEBF0FBECDBF8C017B0167E376E0CE01A8
:102AC0000D960E94C729B701CE0143960E94BE29E8
:102AD00067E376E0CE0149960E94C72978012EE08F
:102AE000E20EF11C0E94222D4090C5065090C606B1
:102AF0006090C7067090C8064B015C018418950869
:102B0000A608B7088091C9069091CA06A091CB0685
:102B1000B091CC06E8EE8E16E3E09E06A104B10467
:102B2000D0F00196A11DB11D8093C9069093CA06ED
:102B3000A093CB06B093CC06B301A20148515C4FE1
:102B40006F4F7F4F4093C5065093C6066093C706EC
:102B50007093C806C7CF4091C1065091C2066091DC
:102B6000C3067091C40684179507A607B70708F433
:102B700056C0E091BF06F091C006309709F44FC0EF
:102B80001995611571058105910539F16093C906A3
:102B90007093CA068093CB069093CC06DC01CB01E0
:102BA000845D9E4FAF4FBF4F8093C1069093C20686
:102BB000A093C306B093C40682E090E09093BE0653
:102BC0008093BD060E94222D6093C5067093C606B1
:102BD0008093C7069093C80622C08091C906909141
:102BE000CA06A091CB06B091CC06845D9E4FAF4F34
:102BF000BF4F8093C1069093C206A093C306B093C3
:102C0000C40681E090E02091BD063091BE06232BE2
:102C100011F480E090E09093BE068093BD06809012
:102C2000C9069090CA06A090CB06B090CC06C5010C
:102C3000B4010E94D00D4091CF0650E0B801CE0102
:102C400007960E94CD0E66EB74E0CE0107960E94B7
:102C50000A28C501B4010E94D00D4091CE0650E073
:102C6000B801CE0101960E94CD0EBE016F5F7F4F6D
:102C7000CE0107960E946828CE0101960E94FC288A
:102C800064EB74E0CE0107960E940A28C501B401E6
:102C90000E94D00D4091CD0650E0B801CE010196C2
:102CA0000E94CD0EBE016F5F7F4FCE0107960E943E
:102CB0006828CE0101960E94FC28BE01695F7F4F03
:102CC000CE0101960E94BE296AEE73E0CE01019604
:102CD0000E948128B7010E949A2868EE73E00E9442
:102CE0008128BE016D5E7F4F0E949A28BC01CE01F3
:102CF00049960E94E528CE0101960E94FC28CE014B
:102D000007960E94FC288D859E850097A9F0698D05
:102D10007A8D6115710571F04F8558892D8D3E8D25
:102D20004217530738F00E9467428D8D9E8D9A8B13
:102D3000898B12C00E94CF40898D9A8D9E878D8786
:102D40008B8D9C8D988B8F878D8D9E8D9A8B898B8B
:102D50001A8E198E1C8E1B8E1E8E1D8ECE014996CC
:102D60000E94FC28CE0143960E94FC28BE01635FAE
:102D70007F4FF801808191810E94F029CE010D964C
:102D80000E94FC286E960FB6F894DEBF0FBECDBF32
:102D9000DF91CF911F910F91FF90EF90BF90AF9077
:102DA0009F908F907F906F905F904F900895EF92DB
:102DB000FF920F931F93CF93DF93EC017B0167E3A7
:102DC00076E008960E94C7298E01025F1F4F67E3D5
:102DD00076E0C8010E94C72984EF96E09983888332
:102DE00080E092ECA1E0B0E08C839D83AE83BF8352
:102DF0008CEE93E09B838A83B701C801DF91CF916A
:102E00001F910F91FF90EF900C94E5281F920F9265
:102E10000FB60F9211240BB60F922F933F934F933F
:102E20005F936F937F938F939F93AF93BF93EF9332
:102E3000FF93E091BB06F091BC061995FF91EF91CD
:102E4000BF91AF919F918F917F916F915F914F91C2
:102E50003F912F910F900BBE0F900FBE0F901F90C0
:102E60001895CF92DF92EF92FF920F931F93CF931B
:102E7000DF93CDB7DEB762970FB6F894DEBF0FBE13
:102E8000CDBF9091D8088091D908992309F44BC0FF
:102E90008F3F41F40E943D12882309F488C11092AB
:102EA000D80885C10E943D12882309F480C1109280
:102EB000D80868ED74E0CE0101960E948629CE0103
:102EC00001960E94CC23CE0101960E94FC2880919D
:102ED000DA088F5F8093DA088B3008F45EC068EC04
:102EE00074E0CE0101960E948629CE0101960E94CF
:102EF000CC23CE0101960E94FC2840E052EC61E018
:102F000070E08091D6089091D7080E94D6118091E8
:102F1000D6089091D708DC01ED91FC910284F385ED
:102F2000E02D19953AC08430E1F560EF73E0CE01F1
:102F300001960E94C729CE0101960E94CC23CE01A2
:102F400001960E94FC286FE775E08091D608909169
:102F5000D7080E94DC298091D6089091D708DC011F
:102F6000ED91FC910284F385E02D199564E670E003
:102F700080E090E00E94E82C61E088E00E947C2CD8
:102F80000E94222D6093DF087093E0088093E1088F
:102F90009093E20881E08093D8088FEF8093D9085E
:102FA00006C18F3F39F56FEF73E081EF9BE00E9420
:102FB000CE2840E052EC61E070E08091D60890911C
:102FC000D7080E94D6116FEF73E08091D6089091D8
:102FD000D7080E94DC298091D6089091D708DC019F
:102FE000ED91FC910284F385E02D199581E08093A9
:102FF000D808B4C4823039F10E94222D0091E7082C
:103000001091E8082091E9083091EA08DC01CB0131
:10301000801B910BA20BB30B89389341A105B1051D
:1030200008F076C40E94222D0091E7081091E8086C
:103030002091E9083091EA08601771078207930729
:1030400008F466C4B4C08091DB089091DC0820913C
:10305000DD083091DE08821B930B8F779927892B2F
:1030600009F47FC08091DD089091DE0816E0189F7A
:10307000F001199FF00D1124E551F74F84819581DE
:10308000892B09F45AC08091DD089091DE08189FC1
:10309000B001199F700D11246551774F8091D608AA
:1030A0009091D7080E94F0298091D6089091D70876
:1030B000DC01ED91FC910284F385E02D1995E090FF
:1030C000DD08F090DE0868E074E0CE0101960E9411
:1030D000C7291E9DB0011F9D700D11246551774FAA
:1030E000CE0101960E949A28BC01CE0107960E944B
:1030F000BE29CE0107960E94CC23CE0107960E94DE
:10310000FC28CE0101960E94FC2881E08093D8081B
:103110000E94222D6093DF087093E0088093E108FD
:103120009093E2080E94222D6093E3087093E408D4
:103130008093E5089093E6080EC068EB74E0CE013A
:1031400001960E948629CE0101960E94CC23CE01D1
:1031500001960E94FC2860E174E081EF9BE00E94F0
:10316000CE280E94222D0091E3081091E4082091BE
:10317000E5083091E608DC01CB01801B910BA20B26
:10318000B30B89389341A105B10508F0F2C30E9441
:10319000222D0091E3081091E4082091E508309178
:1031A000E608601771078207930708F4E2C380916D
:1031B000D6089091D708DC01ED91FC910480F5814F
:1031C000E02D1995892B09F478C18091D60890914A
:1031D000D708DC01ED91FC910680F781E02D19956F
:1031E000182F89831A8241E050E0BE016F5F7F4F44
:1031F0008BEE9BE00E943A281092DA081D3009F00D
:103200005CC165E174E0CE0107960E94C7296BEEB0
:103210007BE0CE0107960E949A28BC01CE01019660
:103220000E94BE29CE0101960E94CC23CE010196B8
:103230000E94FC28CE0107960E94FC288091F50B85
:103240009091F60B892B79F160E174E08091F10B9C
:103250009091F20B0E945E42892B29F58091EB0B35
:103260009091EC0B009719F00E945F4503C060E05D
:1032700070E0CB012091DD083091DE08890120E06B
:1032800030E0601771078207930709F010C1809141
:10329000DD089091DE0801968F7799279093DE08DC
:1032A0008093DD0802C16FE775E0CE0101960E94B0
:1032B000C729CE0101960E94BA118C01CE01019658
:1032C0000E94FC280F3F1F4F79F163E575E0CE01A6
:1032D00001960E948629CE0101960E94CC23CE0140
:1032E00001960E94FC2862E575E0CE0101960E94DD
:1032F0008629CE0101960E94CC23CE0101960E9420
:10330000FC288091F50B9091F60B892B09F4CDC028
:103310006FEF73E08091F10B9091F20B0E945E428F
:10332000892B09F48FC0C1C064E774E0CE01019617
:103330000E94C729CE0101960E94BA118C01CE01CC
:1033400001960E94FC280F3F1F4FF1F069E375E0E2
:10335000CE0101960E948629CE0101960E94CC23BF
:10336000CE0101960E94FC2868E375E0CE0101962B
:103370000E948629CE0101960E94CC23CE0101969F
:103380000E94FC2882E08FC06EE174E0CE010196BD
:103390000E94C729CE0101960E94BA118C01CE016C
:1033A00001960E94FC280F3F1F4FF1F060E275E08C
:1033B000CE0101960E948629CE0101960E94CC235F
:1033C000CE0101960E94FC286FE175E0CE010196C6
:1033D0000E948629CE0101960E94CC23CE0101963F
:1033E0000E94FC2883E05FC067EF72E0CE01019687
:1033F0000E94C729CE0101960E94BA118C01CE010C
:1034000001960E94FC280F3F1F4FF1F066E075E027
:10341000CE0101960E948629CE0101960E94CC23FE
:10342000CE0101960E94FC2865E075E0CE01019670
:103430000E948629CE0101960E94CC23CE010196DE
:103440000E94FC2881E02FC063E274E0CE01019667
:103450000E94C729CE0101960E94BA118C01CE01AB
:1034600001960E94FC280F3F1F4F09F16CEE74E09B
:10347000CE0101960E948629CE0101960E94CC239E
:10348000CE0101960E94FC286BEE74E0CE010196FD
:103490000E948629CE0101960E94CC23CE0101967E
:1034A0000E94FC2884E08093D9081092D80867E332
:1034B00076E08BEE9BE00E94CE280E94640720916C
:1034C0000502309106028091DD069091DE0682179A
:1034D000930709F469C08091040221FD06C0882386
:1034E00009F458C06BEA75E01CC025FD06C08823AE
:1034F00009F450C061EA75E014C0A9014074557028
:10350000452B31F4882309F445C067E975E009C00B
:10351000A90140785A70452BA1F48823D9F16DE8B0
:1035200075E0CE0101960E94862960E0CE010196E9
:103530000E943025CE0101960E94FC2810920402C0
:1035400029C022FD05C0882329F163E875E0E9CF91
:1035500023FD05C08823F1F069E775E0E2CF24FD83
:1035600005C08823B9F06FE675E0DBCF813091F0BC
:1035700069E675E0CE0101960E94862960E0CE01E1
:1035800001960E943025CE0101960E94FC2881E020
:10359000809304020E946C2480910502909106029F
:1035A0009093DE068093DD0687E20E94532C892BE0
:1035B00059F40E94222D60936406709365068093EF
:1035C00066069093670617C00E94222D009164063C
:1035D000109165062091660630916706DC01CB01EB
:1035E000801B910BA20BB30B813D9740A105B10548
:1035F00010F40E94222D0E942D0C809184068823B5
:1036000029F10E94222D6093E0067093E1068093D9
:10361000E2069093E3068091DF06811115C065EB09
:1036200075E0CE0101960E948629CE0101960E9486
:10363000D02ACE0101960E94FC2861E08EE20E9411
:103640007C2C81E08093DF06109284068091DF0657
:103650008823D9F10E94222DC090E006D090E10687
:10366000E090E206F090E306DC01CB018C199D09A5
:10367000AE09BF0989389341A105B105A8F068E0FA
:1036800072E0CE0101960E948629CE0101960E9429
:10369000D02ACE0101960E94FC2860E08EE20E94B2
:1036A0007C2C1092DF0611C00E94222D6C157D0526
:1036B0008E059F0550F40E94222D6093E0067093C2
:1036C000E1068093E2069093E3068091F306882357
:1036D00021F00E9499081092F3068091F206882347
:1036E00009F493C08091980C81118DC08091A10C38
:1036F000882309F488C080919E0C8F5F80939E0C74
:10370000823008F480C082E090E09093E50C8093D2
:10371000E40C1092E60C81E090E09093E80C80932A
:10372000E70C85EE90E09093EA0C8093E90C88E139
:103730008093F30C0E94012081E080931F0D60E0D4
:1037400085E00E94631FF82E882309F40FC267E307
:1037500076E0CE010D960E94C7290E945A1EE12CE8
:10376000D12C0E2D1D2D8091DA0C9091DB0CDC01FB
:10377000ED91FC910480F581E02D1995892B09F4D8
:1037800029C10031110509F049C190E1E92ED12C80
:1037900023C18091040D882309F498C18091030D01
:1037A000281709F4A7C18091040D0E941B108C01F9
:1037B0008091030D8093200D0F3F09F49EC18091ED
:1037C000930C9091940C800F911D07FD9A95909306
:1037D000940C8093930C8091A00C882391F06CE45E
:1037E00074E0CE0101960E94C729CE0101960E9485
:1037F0005E20CE0101960E94FC280E94C5201092F6
:10380000A00C10929E0C1092F2068091F106882373
:1038100099F08CE00E94532C61E0892B09F060E064
:103820008CE00E947C2C8CE00E94532C682F8DE051
:103830000E947C2C1092F1068091F006811110926A
:10384000F0060E94222D6093EC067093ED068093A3
:10385000EE069093EF06C090E806D090E906E0905F
:10386000EA06F090EB068B019C010C191D092E094C
:103870003F090230110521053105D8F12091E706F5
:103880002C19260F2093E7066093E8067093E9064B
:103890008093EA069093EB062A3008F471C11092E7
:1038A000E7069091E6069F5F9093E60681E080939D
:1038B000F3069A3008F464C11092E6069091E5068A
:1038C0009F5F9093E5068093F206953008F458C107
:1038D0001092E5069091E4069F5F9093E406809332
:1038E000F106923008F44CC11092E4068093F00681
:1038F00047C16C157D058E059F0508F041C1609399
:10390000E8067093E9068093EA069093EB0638C1C7
:1039100061E774E081EF9BE00E94CE2861E774E0EC
:103920008091D6089091D7080E94DC298091D60812
:103930009091D708DC01ED91FC910284F385E02D94
:10394000199581E08093D8080E94222D6093E708A2
:103950007093E8088093E9089093EA080E94222D6A
:103960006093DF087093E0088093E1089093E20889
:103970001ECC61E774E081EF9BE00E94CE2861E7F6
:1039800074E08091D6089091D7080E94DC2980913C
:10399000D6089091D708DC01ED91FC910284F38563
:1039A000E02D199581E08093D8080E94222D609324
:1039B000DF087093E0088093E1089093E2080E948A
:1039C000222D6093E3087093E4088093E5089093B8
:1039D000E608EDCBE02ED12E0E94651E882391F0E3
:1039E00069E274E0CE0101960E94C729CE010196DA
:1039F0000E94201ECE0101960E94FC280E94411EBA
:103A0000F12C04C00031110509F0ABCECE010D96AA
:103A10000E94FC28FF2009F4A9C035C08091DA0C6F
:103A20009091DB0CDC01ED91FC910680F781E02D9B
:103A30001995E82E4AE0682FCE0101960E94592977
:103A4000BE016F5F7F4FCE0107960E94BE296AEECE
:103A500073E0CE0107960E948128BC01CE010D962D
:103A60000E946828CE0107960E94FC28CE0101968C
:103A70000E94FC28F801E852F34FE7A20F5F1F4FA6
:103A80000E945A1E70CE8091030D2091200D90E06F
:103A9000821B910902970CF47CCEF090030DF21A70
:103AA000EF2DEE0F00E010E08EEFE82EEE0EFF207F
:103AB00009F47ECEED5FF0E0E852F34F87A10E945B
:103AC0001B10080F191FFA94EE2DEECF8091030DF5
:103AD000281310C08091050D8E3051F48091220D75
:103AE0008F5F8093220D853128F01092220D05C042
:103AF0001092220D00E010E05BCE4AE06091A00C35
:103B0000CE0107960E94592961E574E0CE010D9619
:103B10000E94C729BE01695F7F4FCE010D960E94AA
:103B20009A28BC01CE0101960E94BE29CE010196C1
:103B30000E945E20CE0101960E94FC28CE010D96C7
:103B40000E94FC28CE0107960E94FC288091A00CC0
:103B50008F5F8093A00C8B3008F453CE0E947F209F
:103B600081E08093A10C0E94152149CE4AE060912A
:103B7000A00CCE0107960E9459296AE774E0C6CFCF
:103B800062960FB6F894DEBF0FBECDBFDF91CF9126
:103B90001F910F91FF90EF90DF90CF9008950F93BA
:103BA0001F93CF93DF93EC010E94222D0091D90641
:103BB0001091DA062091DB063091DC06DC01CB01A6
:103BC000801B910BA20BB30B8D329140A105B10567
:103BD000C8F08091D806811107C0CE010E94A506C9
:103BE00081E08093D80604C00E9496061092D80601
:103BF0000E94222D6093D9067093DA068093DB062B
:103C00009093DC060E94222D0091D9061091DA06CD
:103C10002091DB063091DC0660177107820793075D
:103C200050F40E94222D6093D9067093DA06809397
:103C3000DB069093DC06DF91CF911F910F910895E1
:103C4000CF93DF9300D000D0CDB7DEB7BC01CE015B
:103C500001960E94BE29BE016F5F7F4F8091D80CF4
:103C60009091D90C0E944515CE0101960E94FC2826
:103C700026960FB6F894DEBF0FBECDBFDF91CF9171
:103C800008958091DA0C9091DB0CDC01ED91FC91B0
:103C90000480F581E02D1995892B59F08091DA0C7B
:103CA0009091DB0CDC01ED91FC910680F781E02D19
:103CB000199408950E94222D6093E00C7093E10CFA
:103CC0008093E20C9093E30C08950F931F930E944E
:103CD000222D0091E00C1091E10C2091E20C30912A
:103CE000E30C601771078207930710F40E945A1EB5
:103CF0000E94222D0091E00C1091E10C2091E20C29
:103D00003091E30CDC01CB01801B910BA20BB30BB8
:103D100021E0883C9105A105B10508F420E0822F3F
:103D20001F910F910895CF92DF92FF920F931F93EF
:103D3000CF93DF93CDB7DEB762970FB6F894DEBFAF
:103D40000FBECDBF67E376E0CE010D960E94C72976
:103D50000E945A1E00E010E08091DA0C9091DB0C7A
:103D6000DC01ED91FC910480F581E02D1995892B02
:103D700041F00530110509F04EC085E0C82ED12C68
:103D800001C068010E94651EF82E811125C0B5E0B2
:103D9000CB16D10409F768EB74E0CE0107960E94B8
:103DA000C729BE01635F7F4FCE0107960E949A2804
:103DB000BC01CE0101960E94BE29CE0101960E944F
:103DC000201ECE0101960E94FC28CE0107960E947B
:103DD000FC280530110511F0F12C62C020E080E0D4
:103DE00090E0FC01E852F34F348D230F01968530AB
:103DF0009105B9F78091F60C883221F08091F60C8C
:103E00008230F1F58091F70C81113AC0211138C050
:103E1000FF24F39445C08091DA0C9091DB0CDC0117
:103E2000ED91FC910680F781E02D1995F82E4AE07E
:103E3000682FCE0107960E945929BE01695F7F4F06
:103E4000CE0101960E94BE296AEE73E0CE01019672
:103E50000E948128BC01CE010D960E946828CE01E7
:103E600001960E94FC28CE0107960E94FC28F801CA
:103E7000E852F34FF48E0F5F1F4F0E945A1E6CCF13
:103E800065EC74E0CE0101960E94C729CE0101962F
:103E90000E94201ECE0101960E94FC280E94411E15
:103EA000CE010D960E94FC288F2D62960FB6F894D5
:103EB000DEBF0FBECDBFDF91CF911F910F91FF905D
:103EC000DF90CF9008950F931F93CF93DF93CDB7DB
:103ED000DEB762970FB6F894DEBF0FBECDBF182FC6
:103EE000062F67E376E0CE010D960E94C7290E9457
:103EF0005A1E112309F454C08091DA0C9091DB0C06
:103F0000DC01ED91FC910480F581E02D1995892B60
:103F100081F18091DA0C9091DB0CDC01ED91FC9148
:103F20000680F781E02D1995002301F14AE0682F02
:103F3000CE0107960E945929BE01695F7F4FCE01CD
:103F400001960E94BE296AEE73E0CE0101960E949E
:103F50008128BC01CE010D960E946828CE010196F1
:103F60000E94FC28CE0107960E94FC2811500E9456
:103F70005A1E0E94651E882309F4BBCF64EE74E0CC
:103F8000CE0101960E94C729CE0101960E94201EF3
:103F9000CE0101960E94FC280E94411E10E021C023
:103FA0000023F1F066E075E0CE0107960E94C72974
:103FB000BE01635F7F4FCE0107960E949A28BC0125
:103FC000CE0101960E94BE29CE0101960E94201EBC
:103FD000CE0101960E94FC28CE0107960E94FC2883
:103FE00011E0CE010D960E94FC28812F62960FB63B
:103FF000F894DEBF0FBECDBFDF91CF911F910F911F
:104000000895FF920F931F93CF93DF93CDB7DEB741
:10401000C058D1090FB6F894DEBF0FBECDBF809156
:10402000E40C89830091E60C0A838091E70C8B8372
:104030008091E90C8C83FE01359680E090E010E0E1
:104040008017910744F4DC01A852B34F53962C918A
:1040500021930196F5CF0C5F1F4FE1E0F0E0EC0FEC
:10406000FD1FE00FF11F8091F30C8083F12C2F2DA9
:1040700030E002171307A4F08091DA0C9091DB0C6A
:10408000DC01ED91FC91A1E0B0E0AC0FBD1FA20FEF
:10409000B31F0190F081E02D6C911995F394E7CF57
:1040A00080E0C058DF4F0FB6F894DEBF0FBECDBF23
:1040B000DF91CF911F910F91FF900895CF93DF93E0
:1040C00000D000D0CDB7DEB7BC01CE0101960E9472
:1040D000BE29BE016F5F7F4F8091870C9091880C45
:1040E0000E944515CE0101960E94FC2826960FB627
:1040F000F894DEBF0FBECDBFDF91CF910895CF936F
:10410000DF9300D000D0CDB7DEB78091980C81113D
:1041100033C065E175E0CE0101960E94C729CE014A
:1041200001960E94201ECE0101960E94FC2882E08A
:1041300090E09093E50C8093E40C81E08093E60C92
:1041400081E090E09093E80C8093E70C84EE90E09F
:104150009093EA0C8093E90C1092EB0C88E1809329
:10416000F30C0E94012061E086E00E94631F811130
:104170000E94931E1092A10C26960FB6F894DEBFF3
:104180000FBECDBFDF91CF9108951F93CF93DF93E3
:1041900000D000D0CDB7DEB78091980C81113BC024
:1041A00067E275E0CE0101960E94C729CE01019613
:1041B0000E94201ECE0101960E94FC2882E090E021
:1041C0009093E50C8093E40C11E01093E60C81E0F1
:1041D00090E09093E80C8093E70C84EE90E090934D
:1041E000EA0C8093E90C1093EB0C87E18093F30CBD
:1041F0000E94012061E086E00E94631F882339F05D
:104200000E94931E882319F01093A10C04C01092F1
:10421000A10C0E94152126960FB6F894DEBF0FBEA2
:10422000CDBFDF91CF911F910895FF920F931F9300
:10423000CF93DF93CDB7DEB762970FB6F894DEBFAA
:104240000FBECDBF68E375E0CE0101960E94C7297D
:10425000CE0101960E94201ECE0101960E94FC28EC
:1042600082E090E09093E50C8093E40C1092E60CD1
:1042700081E090E09093E80C8093E70C9093EA0C37
:104280008093E90C8CEF8093F30C0E94012061E095
:1042900085E00E94631F882339F00E94931E8111DC
:1042A0001CC068E475E002C068E575E0CE010196C7
:1042B0000E94C729CE0101960E94201ECE010196C0
:1042C0000E94FC280E94411E8FEF8093980C8091E1
:1042D000990C8F3F09F076C095C08091980C8F3F64
:1042E00071F468E675E0CE0101960E94C729CE01FF
:1042F00001960E945E20CE0101960E94FC2868EC87
:1043000070E080E090E00E94E82C82E090E09093E2
:10431000E50C8093E40C1092E60C81E090E0909321
:10432000E80C8093E70C88EE90E09093EA0C809381
:10433000E90C85E18093F30C0E94012061E085E0A7
:104340000E94631F882351F167E376E0CE010D964A
:104350000E94C7290E945A1E1092FA0C00E010E039
:104360008091FA0C90E00496801791070CF4AFC08E
:104370008091DA0C9091DB0CDC01ED91FC910480D2
:10438000F581E02D1995892B09F064C00E94651E06
:10439000882331F3CE010D960E94FC2868EC70E072
:1043A00080E090E00E94E82C6091250D6093980CCD
:1043B000662309F4D2C08091990C16160CF40BC137
:1043C000681701F162ED75E0CE0101960E94C729E0
:1043D000CE0101960E945E20CE0101960E94FC282B
:1043E0006FEE75E0CE0101960E94C729CE010196BD
:1043F0000E945E20CE0101960E94FC288091980CBC
:104400008093990C8091980C811122C08091990C15
:10441000882391F066E076E0CE0101960E94C729DC
:10442000CE0101960E945E20CE0101960E94FC28DA
:104430008091980C8093990C0E94222D60938D0C92
:1044400070938E0C80938F0C9093900C81E021C11F
:1044500080E01FC18091FA0C90E0049680179107CC
:104460000CF494CF8091DA0C9091DB0CDC01ED918F
:10447000FC910680F781E02D1995F82E4AE0682F0F
:10448000CE0101960E945929BE016F5F7F4FCE0178
:1044900007960E94BE296AEE73E0CE0107960E943D
:1044A0008128BC01CE010D960E946828CE01079696
:1044B0000E94FC28CE0101960E94FC28F801E852D7
:1044C000F34FF1A20F5F1F4F0E945A1E51CF62E8B7
:1044D00075E0CE0101960E94C729BE01635F7F4F40
:1044E000CE0101960E949A28BC01CE0107960E9437
:1044F000BE29CE0107960E94201ECE0107960E947B
:10450000FC28CE0101960E94FC288091FA0C90E0D4
:1045100005960817190709F03DCF8091FA0C8B5FBB
:1045200020E030E040E090E02817390744F4F9013A
:10453000E852F34F51A1450F2F5F3F4FF5CF8091C8
:10454000FB0C883229F08091FB0C823009F07FC08F
:1045500041117DC08091FD0C99C068E975E0CE01E4
:1045600001960E94C729CE0101960E94201ECE010D
:1045700001960E94FC2882E090E09093E50C8093E5
:10458000E40C8093E60C81E090E09093E80C80933B
:10459000E70C87EE90E09093EA0C8093E90C80E8BA
:1045A0008093EB0C8FEF8093EC0C85E98093F30CF8
:1045B0000E94012061E087E00E94631F81110E9438
:1045C000931E8091A10C882319F00E94C5201ACF58
:1045D0000E947F2017CF6A3074F4681709F412CF55
:1045E000062E000C770B4AE0CE0107960E942D297B
:1045F00067EA75E00DC0681709F404CF062E000CB9
:10460000770B4AE0CE0107960E942D296DEB75E0ED
:10461000CE010D960E94C729BE01695F7F4FCE0172
:104620000D960E949A28BC01CE0101960E94BE29D7
:10463000CE0101960E945E20CE0101960E94FC28C8
:10464000CE010D960E94FC28CE010796D5CE6FE1D3
:1046500076E0CE0101960E94C729CE0101960E9404
:10466000201ECE0101960E94FC2868E376E0CE0170
:1046700001960E94C729CE0101960E94201ECE01FC
:1046800001960E94FC280E94411E8FEF8093250D09
:1046900081CE62960FB6F894DEBF0FBECDBFDF911C
:1046A000CF911F910F91FF900895AF92BF92CF923B
:1046B000DF92EF92FF920F931F93CF93DF936C01E2
:1046C00060E08091A90C0E947C2CE6012496BA90AF
:1046D000AA9008E010E090E8E92EF12C60E08091CB
:1046E000A70C0E947C2C61E097012A213B21232BFF
:1046F00009F460E08091A80C0E947C2C61E080911C
:10470000A70C0E947C2CF594E7940150110931F715
:10471000CC15DD05E1F661E08091A90CDF91CF9128
:104720001F910F91FF90EF90DF90CF90BF90AF90CF
:104730000C947C2C87E290E09093B90C8093B80C99
:1047400088EB9CE00C94552380EF90E09093B90C9B
:104750008093B80C88EB9CE00C945523E7EAFCE0CE
:104760008955934FDC0113968C9190E0928B818B4D
:10477000748B638B88EB9CE00C945523E7EAFCE098
:104780002FEF30E0281B390B328B218B748B638B1E
:1047900088EB9CE00C945523CF93DF9300D000D09E
:1047A000CDB7DEB7BC01CE0101960E94BE29BE0185
:1047B0006F5F7F4F8091D4089091D5080E94451576
:1047C000CE0101960E94FC2826960FB6F894DEBF13
:1047D0000FBECDBFDF91CF9108950F931F93CF935D
:1047E000DF93CDB7DEB762970FB6F894DEBF0FBE8A
:1047F000CDBF8C0167E376E0CE010D960E94C729FC
:10480000F80184819581892B09F457C06CE476E026
:10481000CE010D960E94CE286091DB087091DC08D5
:104820004AE0CE0107960E940129BE01695F7F4FD1
:10483000CE0101960E94BE296CE472E0CE01019681
:104840000E948128BC01CE010D960E946828CE01ED
:1048500001960E94FC28CE0107960E94FC28B80110
:10486000CE010D960E946828BE01635F7F4FCE0186
:1048700001960E94BE29CE0101960E94CC23CE0152
:1048800001960E94FC282091DB083091DC0846E06C
:10489000429FC001439F900D1124B8018551974F4D
:1048A0000E94E5288091DB089091DC0801968F77C3
:1048B00099279093DC088093DB08CE010D960E9427
:1048C000FC2862960FB6F894DEBF0FBECDBFDF9115
:1048D000CF911F910F910895CF93DF93CDB7DEB79E
:1048E0002C970FB6F894DEBF0FBECDBF68E176E01F
:1048F000CE0107960E94862966E176E0CE010796F2
:104900000E940A286091DB087091DC084AE0CE0121
:1049100001960E940129BE016F5F7F4FCE0107966D
:104920000E946828CE0101960E94FC2860E176E092
:10493000CE0107960E940A28BE01695F7F4FCE0113
:1049400001960E94BE29CE0101960E94ED23CE0160
:1049500001960E94FC28CE0107960E94FC2880E068
:104960002C960FB6F894DEBF0FBECDBFDF91CF916E
:104970000895CF92DF92EF92FF920F931F93CF9300
:10498000DF93CDB7DEB72C970FB6F894DEBF0FBE1E
:10499000CDBF6C017B018A016FE076E0CE01079606
:1049A0000E9486296DE076E0CE0107960E940A28D3
:1049B0006091DB087091DC084AE0CE0101960E940C
:1049C0000129BE016F5F7F4FCE0107960E946828C4
:1049D000CE0101960E94FC2865E076E0CE010796A4
:1049E0000E940A28B601CE0107960E94682863E05B
:1049F00076E0CE0107960E940A28B701CE010796FD
:104A00000E94682861E076E0CE0107960E940A289D
:104A1000B801CE0107960E946828BE01695F7F4FEA
:104A2000CE0101960E94BE29CE0101960E94ED237F
:104A3000CE0101960E94FC28CE0107960E94FC2818
:104A400080E02C960FB6F894DEBF0FBECDBFDF918D
:104A5000CF911F910F91FF90EF90DF90CF9008952D
:104A6000FF920F931F93CF93DF93CDB7DEB762977B
:104A70000FB6F894DEBF0FBECDBF8C01F62EBC0181
:104A8000CE0101960E94BE2967E27CE0CE01079626
:104A90000E94BE2961E27CE0CE010D960E94BE29F3
:104AA000AE014F5F5F4FBE01695F7F4FCE010D9634
:104AB0000E94B924CE010D960E94FC28CE010796D3
:104AC0000E94FC28CE0101960E94FC28F8018481F6
:104AD0009581892B09F411C267E576E08081918187
:104AE0000E945E42892B09F008C26FEF75E0CE018B
:104AF00001960E9486296DE27CE0CE0107960E9415
:104B0000BE2961E27CE0CE010D960E94BE29AE0175
:104B10004F5F5F4FBE01695F7F4FCE010D960E94D0
:104B2000B924CE010D960E94FC28CE0107960E9462
:104B3000FC28CE0101960E94FC286DEF75E0CE01A5
:104B400001960E94862963E37CE0CE0107960E94CD
:104B5000BE2961E27CE0CE010D960E94BE29AE0125
:104B60004F5F5F4FBE01695F7F4FCE010D960E9480
:104B7000B924CE010D960E94FC28CE0107960E9412
:104B8000FC28CE0101960E94FC286BEF75E0CE0157
:104B900001960E94862969E37CE0CE0107960E9477
:104BA000BE2961E27CE0CE010D960E94BE29AE01D5
:104BB0004F5F5F4FBE01695F7F4FCE010D960E9430
:104BC000B924CE010D960E94FC28CE0107960E94C2
:104BD000FC28CE0101960E94FC2869EF75E0CE0109
:104BE00001960E9486296FE37CE0CE0107960E9421
:104BF000BE2961E27CE0CE010D960E94BE29AE0185
:104C00004F5F5F4FBE01695F7F4FCE010D960E94DF
:104C1000B924CE010D960E94FC28CE0107960E9471
:104C2000FC28CE0101960E94FC2867EF75E0CE01BA
:104C300001960E94862965E47CE0CE0107960E94D9
:104C4000BE2961E27CE0CE010D960E94BE29AE0134
:104C50004F5F5F4FBE01695F7F4FCE010D960E948F
:104C6000B924CE010D960E94FC28CE0107960E9421
:104C7000FC28CE0101960E94FC2865EF75E0CE016C
:104C800001960E9486296BE47CE0CE0107960E9483
:104C9000BE2961E27CE0CE010D960E94BE29AE01E4
:104CA0004F5F5F4FBE01695F7F4FCE010D960E943F
:104CB000B924CE010D960E94FC28CE0107960E94D1
:104CC000FC28CE0101960E94FC2863EF75E0CE011E
:104CD00001960E94862961E57CE0CE0107960E943C
:104CE000BE2961E27CE0CE010D960E94BE29AE0194
:104CF0004F5F5F4FBE01695F7F4FCE010D960E94EF
:104D0000B924CE010D960E94FC28CE0107960E9480
:104D1000FC28CE0101960E94FC2861EF75E0CE01CF
:104D200001960E94862967E57CE0CE0107960E94E5
:104D3000BE2961E27CE0CE010D960E94BE29AE0143
:104D40004F5F5F4FBE01695F7F4FCE010D960E949E
:104D5000B924CE010D960E94FC28CE0107960E9430
:104D6000FC28CE0101960E94FC286FEE75E0CE0172
:104D700001960E9486296DE57CE0CE0107960E948F
:104D8000BE2961E27CE0CE010D960E94BE29AE01F3
:104D90004F5F5F4FBE01695F7F4FCE010D960E944E
:104DA000B924CE010D960E94FC28CE0107960E94E0
:104DB000FC28CE0101960E94FC286DEE75E0CE0124
:104DC00001960E94862963E67CE0CE0107960E9448
:104DD000BE2961E27CE0CE010D960E94BE29AE01A3
:104DE0004F5F5F4FBE01695F7F4FCE010D960E94FE
:104DF000B924CE010D960E94FC28CE0107960E9490
:104E0000FC28CE0101960E94FC286BEE75E0CE01D5
:104E100001960E94862969E67CE0CE0107960E94F1
:104E2000BE2961E27CE0CE010D960E94BE29AE0152
:104E30004F5F5F4FBE01695F7F4FCE010D960E94AD
:104E4000B924CE010D960E94FC28CE0107960E943F
:104E5000FC28CE0101960E94FC2869EE75E0CE0187
:104E600001960E9486296FE67CE0CE0107960E949B
:104E7000BE2961E27CE0CE010D960E94BE29AE0102
:104E80004F5F5F4FBE01695F7F4FCE010D960E945D
:104E9000B924CE010D960E94FC28CE0107960E94EF
:104EA000FC28CE0101960E94FC2867EE75E0CE0139
:104EB00001960E94862965E77CE0CE0107960E9454
:104EC000BE2961E27CE0CE010D960E94BE29AE01B2
:104ED0004F5F5F4FBE01695F7F4FCE010D960E940D
:104EE000B924CE010D960E94FC28CE0107960E949F
:104EF000FC28CE0101960E94FC28F1100E946C242F
:104F000062960FB6F894DEBF0FBECDBFDF91CF9192
:104F10001F910F91FF9008950895CF92DF92EF9225
:104F2000FF920F931F93CF93DF936C017A018B0154
:104F3000C0E0D0E0CE15DF0589F0D8016D918D017C
:104F4000D601ED91FC910190F081E02DC6011995FB
:104F5000892B11F47E0102C02196ECCFC701DF91AD
:104F6000CF911F910F91FF90EF90DF90CF90089518
:104F70000E9450426115710579F0FB0101900020FB
:104F8000E9F73197AF01461B570BDC01ED91FC911E
:104F90000280F381E02D199480E090E008950F9352
:104FA0001F93CF93DF93EC0188819981009729F0BB
:104FB0002A813B812617370788F48B016F5F7F4F6B
:104FC0000E946741009761F0998388831B830A835D
:104FD0002C813D81232B11F4FC01108281E001C062
:104FE00080E0DF91CF911F910F91089581E997E0C3
:104FF0000E94112B21E0892B09F420E0822F0895D3
:105000008EE298E00E94112B21E0892B09F420E028
:10501000822F0895EF92FF920F931F93CF93DF9308
:105020006115710511F480E01EC08B01EC01CB010C
:105030000E948D450097B1F02C813D817C01E20EEC
:10504000F31EB701CE010E94CF27882361F3288188
:1050500039818C819D81B801820F931F0E94864502
:10506000FD82EC8281E0DF91CF911F910F91FF9043
:10507000EF900895EF92FF920F931F93CF93DF93DA
:10508000FC01248135816115710511F480E019C09E
:1050900041155105A9F07B01EC018A01020F131F94
:1050A000B8010E94CF27882389F3288139818C8118
:1050B0009D81B701820F931F0E9467421D830C835D
:1050C00081E0DF91CF911F910F91FF90EF900895B4
:1050D000FB0144815581608171810C943A28CF9302
:1050E000DF93EC0188819981009711F00E94CF40F5
:1050F000198218821D821C821B821A82DF91CF9135
:105100000895CF93DF93EC016115710561F0FB0108
:1051100001900020E9F73197AF01461B570B0E9421
:105120003A28811103C0CE010E946F28CE01DF9181
:10513000CF910895CF93DF93EC01FB01448155811A
:10514000608171810E943A28811103C0CE010E94C2
:105150006F28CE01DF91CF910895EF92FF920F93C8
:105160001F93CF93DF93EC017B018A01BA010E9468
:10517000CF27811104C0CE010E946F2807C01D8374
:105180000C83B701888199810E946742CE01DF912B
:10519000CF911F910F91FF90EF900895CF93DF93E0
:1051A000EC016115710559F0FB0101900020E9F750
:1051B0003197AF01461B570B0E94AD2802C00E94D9
:1051C0006F28CE01DF91CF910895CF93DF93EC014B
:1051D000FB018617970761F0608171816115710588
:1051E00029F0448155810E94AD2802C00E946F2899
:1051F000CE01DF91CF910895FC01808191810C94C3
:10520000CF400F931F93CF93DF93CDB7DEB7619756
:105210000FB6F894DEBF0FBECDBF8C01CB01F801F5
:1052200011821082138212821582148250E0BE0114
:105230006F5F7F4F0E94C145BE016F5F7F4FC80106
:105240000E94CE2861960FB6F894DEBF0FBECDBF88
:10525000DF91CF911F910F9108950F931F93CF93DB
:10526000DF93CDB7DEB762970FB6F894DEBF0FBEFF
:10527000CDBF8C01CB01F801118210821382128202
:105280001582148250E0BE016F5F7F4F0E949645E9
:10529000BE016F5F7F4FC8010E94CE2862960FB695
:1052A000F894DEBF0FBECDBFDF91CF911F910F915C
:1052B00008950F931F93CF93DF93CDB7DEB7299750
:1052C0000FB6F894DEBF0FBECDBF8C01862FF8015C
:1052D00011821082138212821582148250E0BE0164
:1052E0006F5F7F4F90E00E94C145BE016F5F7F4FAF
:1052F000C8010E94CE2829960FB6F894DEBF0FBED3
:10530000CDBFDF91CF911F910F910895EF92FF9242
:105310000F931F93CF93DF93EC01198218821B82A6
:105320001A821D821C826115710509F18B01CB0166
:105330000E948D457C01BC01CE010E94CF278111C6
:1053400009C0CE01DF91CF911F910F91FF90EF9097
:105350000C946F28FD82EC82B80188819981DF91DD
:10536000CF911F910F91FF90EF900C948645DF91A4
:10537000CF911F910F91FF90EF900895FC01118242
:10538000108213821282158214820C94E528FC018B
:1053900011821082138212821582148261157105A6
:1053A00051F0FB0101900020E9F73197AF01461B56
:1053B000570B0C94AD2808950F931F93CF93DF9351
:1053C000EC010E94BA278C0165E376E0CE010E94D1
:1053D000BA27800F911FDF91CF911F910F910895F0
:1053E0000F931F93CF93DF93EC01E881F981DB01E9
:1053F00014964D915C9115976D917C910280F3818B
:10540000E02D19958C0165E376E0CE010E94BA2764
:10541000800F911FDF91CF911F910F9108951F92DF
:105420000F920FB60F9211240BB60F922F933F934A
:105430004F935F936F937F938F939F93AF93BF939C
:10544000EF93FF9381E997E00E94C92BFF91EF91C1
:10545000BF91AF919F918F917F916F915F914F918C
:105460003F912F910F900BBE0F900FBE0F901F908A
:1054700018951F920F920FB60F9211240BB60F9230
:105480002F933F934F935F936F937F938F939F934C
:10549000AF93BF93EF93FF938EE298E00E94C92BE6
:1054A000FF91EF91BF91AF919F918F917F916F91FC
:1054B0005F914F913F912F910F900BBE0F900FBEB8
:1054C0000F901F901895FC01A089B1898C91A68935
:1054D000B78982FD0FC09C91818D8F5F8F73228D64
:1054E000821749F0218DDF01A20FB11D5D969C93BB
:1054F000818F08958C9108951F920F920FB60F928D
:1055000011240BB60F922F933F934F935F936F939A
:105510007F938F939F93AF93BF93EF93FF9381E913
:1055200097E00E94632AFF91EF91BF91AF919F9105
:105530008F917F916F915F914F913F912F910F903C
:105540000BBE0F900FBE0F901F9018951F920F92D9
:105550000FB60F9211240BB60F922F933F934F93D8
:105560005F936F937F938F939F93AF93BF93EF93CB
:10557000FF938EE298E00E94632AFF91EF91BF9122
:10558000AF919F918F917F916F915F914F913F91DB
:105590002F910F900BBE0F900FBE0F901F9018957C
:1055A000CF93DF9300D000D0CDB7DEB7BC01CE01E2
:1055B00001960E94BE29BE016F5F7F4F84EC9CE084
:1055C0000E944515CE0101960E94FC2826960FB632
:1055D000F894DEBF0FBECDBFDF91CF910895FC01DF
:1055E000918D828D981761F0828DDF01A80FB11D1A
:1055F0005D968C91928D9F5F9F73928F90E008953E
:105600008FEF9FEF0895FC01918D828D981731F0F7
:10561000828DE80FF11D858D90E008958FEF9FEF4B
:105620000895FC01918D228D892F90E0805C9F4F21
:10563000821B91098F739927089580E090E0892B50
:1056400021F00E94002881111DC080E090E0892B8C
:1056500041F080E090E0892B21F00E940000811150
:1056600014C080E090E0892B21F00E94C30E8111CC
:105670000FC080E090E0892B81F00E94F627811115
:105680000AC008950E940000E0CF0E940000E9CF08
:105690000E940000EECF0C940000089590E0FC0101
:1056A0003197E231F10508F04EC08827E257FF4FED
:1056B0008F4F0C940340809180008F7703C08091BE
:1056C00080008F7D80938000089580918000877F87
:1056D000F9CF84B58F7702C084B58F7D84BD0895DE
:1056E0008091B0008F7703C08091B0008F7D809350
:1056F000B0000895809190008F7707C0809190004E
:105700008F7D03C080919000877F809390000895E3
:105710008091A0008F7707C08091A0008F7D03C08B
:105720008091A000877F8093A00008958091200140
:105730008F7707C0809120018F7D03C08091200169
:10574000877F8093200108953FB7F8948091D00817
:105750009091D108A091D208B091D30826B5A89B0A
:1057600005C02F3F19F00196A11DB11D3FBFBA2FF3
:10577000A92F982F8827820F911DA11DB11DBC0153
:10578000CD0142E0660F771F881F991F4A95D1F718
:105790000895FC01848DDF01A80FB11DA35ABF4FEE
:1057A0002C91848D90E001968F739927848FA68920
:1057B000B7892C93A089B1898C9180648C93938D47
:1057C000848D981306C00288F389E02D80818F7D37
:1057D00080830895EF92FF920F931F93CF93DF93EF
:1057E000EC0181E0888F9B8D8C8D981305C0E88932
:1057F000F989808185FD24C0F62E0B8D10E00F5FA6
:105800001F4F0F731127E02E8C8DE8120CC00FB6BE
:1058100007FCFACFE889F989808185FFF5CFCE01B1
:105820000E94C92BF1CF8B8DFE01E80FF11DE35AC9
:10583000FF4FF0820B8FEA89FB898081806207C06D
:10584000EE89FF896083E889F9898081806480839B
:1058500081E090E0DF91CF911F910F91FF90EF9049
:105860000895CF93DF93EC01888D8823C9F0EA89EE
:10587000FB89808185FD05C0A889B9898C9186FD49
:105880000FC00FB607FCF5CF808185FFF2CFA88946
:10589000B9898C9185FFEDCFCE010E94C92BE7CF4E
:1058A000DF91CF910895CF93DF93282F30E0F90156
:1058B000ED50F94F8491F901E355F94FD491F90175
:1058C000E959F94FC491CC2391F081110E944E2BDC
:1058D000EC2FF0E0EE0FFF1FE35BF94FA591B491C1
:1058E000EC91ED2381E090E021F480E002C080E0C3
:1058F00090E0DF91CF9108951F93CF93DF93282FEE
:1059000030E0F901ED50F94F8491F901E355F94F79
:10591000D491F901E959F94FC491CC23C9F0162F5C
:1059200081110E944E2BEC2FF0E0EE0FFF1FED5C7B
:10593000F94FA591B4918FB7F894111105C09C91BE
:10594000ED2FE095E92302C0EC91ED2BEC938FBF96
:10595000DF91CF911F910895CF93DF9390E0FC01E9
:10596000E355F94F2491FC01E959F94F84918823BB
:1059700061F190E0880F991FFC01E75EF94FC59136
:10598000D491FC01ED5CF94FA591B491611109C06E
:105990009FB7F8948881209582238883EC912E23E9
:1059A0000BC0623061F49FB7F8943881822F8095E4
:1059B00083238883EC912E2B2C939FBF06C08FB737
:1059C000F894E8812E2B28838FBFDF91CF91089523
:1059D0008F929F92AF92BF92CF92DF92EF92FF92FF
:1059E0006B017C010E94A42B4B015C01C114D1040A
:1059F000E104F104F1F00E94A42BDC01CB01881931
:105A00009909AA09BB09883E9340A105B10570F325
:105A100021E0C21AD108E108F10888EE880E83E07F
:105A2000981EA11CB11CC114D104E104F10419F7A2
:105A3000DDCFFF90EF90DF90CF90BF90AF909F9021
:105A40008F9008952FB7F8946091CC087091CD088D
:105A50008091CE089091CF082FBF08951F920F928A
:105A60000FB60F9211242F933F938F939F93AF9371
:105A7000BF938091CC089091CD08A091CE08B091B1
:105A8000CF083091CB0823E0230F2D3720F4019667
:105A9000A11DB11D05C026E8230F0296A11DB11D51
:105AA0002093CB088093CC089093CD08A093CE0888
:105AB000B093CF088091D0089091D108A091D208DE
:105AC000B091D3080196A11DB11D8093D008909389
:105AD000D108A093D208B093D308BF91AF919F9102
