:100000000C94CA030C94FB030C94FB030C94FB03A9
:100010000C94FB030C94FB030C94FB030C94FB0368
:100020000C94FB030C94FB030C94FB030C94FB0358
:100030000C94FB030C94FB030C94FB030C94FB0348
:100040000C94FB030C94FB030C94FB030C94FB0338
:100050000C9436140C94FB030C94FB030C94782B37
:100060000C94FB030C94882A0C941B2A0C94FB031D
:100070000C94FB030C94FB030C94FB030C94FB0308
:100080000C94FB030C94FB030C94FB030C94FB03F8
:100090000C94FB030C94FB030C94FB030C94FB03E8
:1000A0000C94FB030C94FB030C94FB030C94FB03D8
:1000B0000C94FB030C94FB030C94FB030C94FB03C8
:1000C0000C94FB030C94FB030C94FB030C944B1259
:1000D0000C9482140C94FB030C945E2A0C94F1296A
:1000E0000C94FB03450448044B04540457045A047D
:1000F0005D046004940497049A049D04A004A3047E
:10010000A604AF04B804C104C404C7046E0E710E83
:10011000600E640E6A0EA80E750E790E7F0E830EA9
:10012000870E8D0E910E950EA80E9B0E9F0EA30EA0
:10013000791C791C8A1C8A1C8A1C9B1C9B1CAC1C6D
:100140000C946E0E0C94C0380C94640E0C94F31442
:100150000C94AC140C94C4040C949F0E0C94A60440
:100160000C949A040C9448040C944B040C949D0435
:100170000C949B1C0C9454040C94790E0C94AF04B6
:100180000C94BC3D0C948D0E0C94FD030C94600EED
:100190000C945A040C94910E0C940C0E0C9445047F
:1001A0000C946A0E0C94950E0C94C7040C945D0488
:1001B0000C94A3040C9497040C94791C0C94710E69
:1001C0000C94EA0D0C94A0040C94FE0D0C94830E78
:1001D0000C9494040C948A1C0C94B8040C9457044A
:1001E0000C94750E0C94C1040C949B0E0C94AC1CD6
:1001F0000C9460040C94A80E0C94A30E0C946F271E
:100200000C947F0E0C94870E4C454420437570204F
:1002100048616E646C65202D204F46460072656112
:1002200064206565702E2063757020737461636B44
:10023000657220706F732E203D20004F4B00437578
:100240007020737461636B6572203E3E204F4B00DB
:10025000454D5054590043757020737461636B654C
:1002600072203E3E20456D707479004F4646004F27
:100270004E004F4B00504F574552204F4E00232306
:1002800023206D696E69436F66666565204861630A
:100290006B20762E323034203E3E205374617274CF
:1002A0002E2E2E007772697465206565702E206988
:1002B00074656D5F70726963655B004F726465722F
:1002C000204E6F2E2069732057726F6E6720212198
:1002D000006D616B655369676E616C546F436F6944
:1002E0006E203E3E20556E737563636573732021E7
:1002F00021004F72646572205061796F7574203EE1
:100300003E204F4B004F72646572205061796F75CB
:1003100074203E3E2054696D656F75740020005551
:100320004E53554343455353005472616E7361639A
:1003300074696F6E203E3E20554E535543434553DE
:1003400053200053554343455353005472616E7319
:10035000616374696F6E203E3E205355434345539D
:10036000532000454D5054590043757020737461FB
:10037000636B6572203E3E20456D707479004F4B73
:100380000043757020737461636B6572203E3E207C
:100390004F4B004F4E00426F696C6572203E3E200D
:1003A000506F776572204F4E004F464600426F698E
:1003B0006C6572203E3E20506F776572204F464636
:1003C000004C4F57005761746572204C6576656C20
:1003D000203E3E204C4F57004F4B005761746572D2
:1003E000204C6576656C203E3E204F4B004F4646C4
:1003F0000050756D70203E3E20436C6F7365004564
:1004000052524F520050756D70203E3E2045727220
:100410006F72004F4E0050756D70203E3E204F7041
:10042000656E007772697465206565702E2063754E
:100430007020737461636B657220706F732E203D42
:10044000200072656164206565702E206974656D99
:100450005F70726963655B00300030300045004FAB
:100460004B004F50454E00434C4F5345005365746D
:100470002050756D702031202D204F4E0053657433
:100480002050756D702031202D204F464600736539
:10049000744C45444974656D53656C65637450775D
:1004A00072203E3E204E6F7420666F756E64202170
:1004B000210000002200250028002B002E00310022
:1004C000340002010000050108010B0100002000BA
:1004D0002300260029002C002F003200000100001C
:1004E00003010601090105050505070508080808B7
:1004F000020202020A0A08080404040401010101BC
:1005000001010101030303030303030304070707B6
:100510000C0C0C0C0C0C0C0C02020202060606065B
:10052000060606060B0B0B0B0B0B0B0B0102102028
:100530002008081020401020408002010201080419
:1005400002010102040810204080804020100804AD
:100550000201800402018040201008040201080406
:10056000020101020408102040800102040810204A
:10057000408000000A0B02090C0D0E08070304015D
:10058000000000000000000000000000000000006B
:100590000000000000000000000000000000121138
:1005A000100000000000000000000000000000003B
:1005B00000000000000000003000003A003A002D6A
:1005C000002D002D002D002D002D002D002D002DC3
:1005D000002D002D002D002D003D003A0043422B40
:1005E000534554400023000043422B555000230044
:1005F00000434354414C4B00434C4F5544424F58E9
:1006000000434354414C4B2D4445564943450064F7
:10061000617461203E3E20656D7074792121004334
:100620006865636B20436C6F7564426F7820526518
:10063000616479203F00436865636B20436C6F758C
:1006400064426F7820436F6E6E656374696F6E20CD
:100650003F00526573657420436F6D706F72742133
:100660002100526573706F6E73652054696D656FFC
:1006700075742121005374617465207265747572FC
:100680006E2054696D656F757421210000436C6F95
:100690007564426F782052657475726E203E3E20FC
:1006A00052455345540000436C6F7564426F782087
:1006B00052657475726E203E3E204552524F520074
:1006C00000436C6F7564426F782052657475726E6A
:1006D000203C3C20425553590000436C6F756442E6
:1006E0006F782052657475726E203C3C20526561B3
:1006F00064790000436C6F7564426F7820526574B2
:1007000075726E203C3C204F4B00524541445900CD
:100710004E4F54205245414459004E4F54205245AB
:10072000414459004E4F54205245414459004E4FC8
:1007300054205245414459004E4F542052454144A3
:1007400059004E4F54205245414459202D204F50BE
:1007500045524154494E47004E4F54205245414462
:1007600059004C4544204375702048616E646C65A7
:10077000202D204F4E0000002100240027002A00D9
:100780002D003000330001010000040107010A01BF
:10079000C038BC3D11241FBECFEFD1E2DEBFCDBFBC
:1007A00000E00CBF15E0A0E0B2E0ECE8FBE800E000
:1007B0000BBF02C007900D92A63DB107D9F72CE000
:1007C000A6EDB5E001C01D92AA39B207E1F713E02A
:1007D000C9ECD3E000E006C021970109802FFE019B
:1007E0000E94B03EC83CD10780E00807A9F70E94EC
:1007F000C22B0C94B4450C940000CF938091080256
:10080000833009F4E3C034F4813059F0823009F4C4
:1008100070C082C1843009F4F2C0853009F446C149
:100820007BC12091ED05809105069091060622235B
:1008300089F02091EB053091EC052817390728F055
:10084000A901481B590BCA0102C080E090E0CF917A
:100850000C94A51F0097D9F78091230C9091240C3C
:1008600001979093240C8093230C892B09F054C199
:1008700080911B0C90E08830910550F5FC01882791
:10088000EE58FF4F8F4F0C94B03E8BEF90E005C0B9
:1008900087EF90E017C08FEE90E09093220C80934A
:1008A000210C0E94D22014C08DEF90E00BC08DEF80
:1008B00090E0F3CF8FEE90E005C087EF90E0EDCFB2
:1008C0008BEF90E09093220C8093210C0E94DC200F
:1008D00080911B0C8F5F883018F480931B0C02C032
:1008E00010921B0C86E990E09093240C8093230CCB
:1008F00013C18091250C9091260C01979093260CA2
:100900008093250C892B09F007C190911E0C492F6B
:1009100050E04C30510508F046C0FA018827E658EF
:10092000FF4F8F4F0C94B03E2EEF30E032C02EEFD1
:1009300030E020C02EEF30E014C02EEF30E008C0D1
:100940002BEF30E005C02FEE30E002C02FEB30E09F
:100950003093200C20931F0C2DEF30E020C02FEBA4
:1009600030E03093200C20931F0C2FEE30E017C0A6
:100970002FEB30E03093200C20931F0C27EF30E05A
:100980000EC02FEB30E005C02FE730E002C02DEFA6
:1009900030E03093200C20931F0C2BEF30E030938D
:1009A000220C2093210C24E130E03093260C20937C
:1009B000250C9F5F9C3018F490931E0C02C010927F
:1009C0001E0C8FE19CE0CF910C94601FC0912B0610
:1009D000C13059F008F474C0C23061F0C33011F571
:1009E0006DEF70E08BE590E01BC067EF70E082EC8C
:1009F00090E016C06FEE70E087ED90E011C080913E
:100A0000000C882309F44DC0082E000C990BC091EE
:100A10002B06C130A9F078F46BEF70E08BEC90E01E
:100A20000E94C420CF5FC0932B06C43008F474C06A
:100A300010922B0671C0C23041F0C330E1F0F2CF0A
:100A400067EF70E083EE90E0EBCF8F3F5FEF9507AD
:100A500009F440C0843691051CF06FEE70E017C0B9
:100A60008A309105BCF16AE070E00E947A3ECB01C9
:100A70006FEE70E033C08F3F2FEF920719F46DEFE8
:100A800070E02AC0843691052CF06DEF70E089E0AB
:100A900090E024C06AE070E00E947A3E6DEF70E062
:100AA0001DC0809104068093080236C0C0912B06B9
:100AB000C13059F028F0C23069F0C33091F0B2CFA4
:100AC0006BEF70E083EC90E0ABCF67EF70E088E015
:100AD00090E0A6CF6FEE70E080E090E00E94B4203E
:100AE000A1CF8091050283FD05C06DEF70E081E02C
:100AF00090E0F4CF82FD05C06DEF70E082E090E001
:100B0000EDCF84FD05C06DEF70E083E090E0E6CFAF
:100B100081E08093080286CFCF91089583E00E9400
:100B2000151521E0892B09F020E0822F0895CF933D
:100B3000DF9300D000D0CDB7DEB7FC01E252FA4F10
:100B40002081261360838230910539F0833091052E
:100B500031F0019741F484E303C083E301C08FE2E5
:100B60000E943E150EC06EE874E0CE0101960E9410
:100B70006829CE0101960E94B22ACE0101960E94F8
:100B8000DE2826960FB6F894DEBF0FBECDBFDF91EC
:100B9000CF91089560E081E090E00E94970560E0C9
:100BA00082E090E00E94970560E083E090E00C9482
:100BB00097050F931F93CF93DF938C01C1E0D0E093
:100BC000C017D10711F461E001C060E0CE010E94BE
:100BD00097052196C430D10599F7DF91CF911F91E8
:100BE0000F910895CF92DF92EF92FF920F931F9390
:100BF0006B017C010E946C2B0091E6051091E705CA
:100C00002091E8053091E905601771078207930785
:100C100050F40E946C2B6093E6057093E705809377
:100C2000E8059093E9050E946C2B0091E605109170
:100C3000E7052091E8053091E905AB01BC01401BB7
:100C4000510B620B730B81E0C416D506E606F7065E
:100C500008F080E01F910F91FF90EF90DF90CF9010
:100C60000895E2EFF5E01182128213821092ED05F1
:100C70001092FE051092EC051092EB05EEE0FCE000
:100C8000158686E990E0968B858B108A84E190E04A
:100C9000908F878B08951F93CF93DF9300D000D060
:100CA000CDB7DEB7182F8CE20E94151521E0892BF5
:100CB00009F420E0121721F1112381F06DE674E0B0
:100CC000CE0101960E946829CE0101960E94B22AA7
:100CD000CE0101960E94DE2861E00FC06DE774E04E
:100CE000CE0101960E946829CE0101960E94B22A87
:100CF000CE0101960E94DE2860E08CE20E943E1543
:100D000026960FB6F894DEBF0FBECDBFDF91CF9110
:100D10001F9108958F929F92AF92BF92EF92FF9290
:100D20001F93CF93DF9300D000D0CDB7DEB780E321
:100D30000E94151511E0892B09F410E080912A0614
:100D4000181761F00E946C2B60932606709327069B
:100D5000809328069093290610932A060E946C2BF4
:100D60008090260690902706A0902806B09029062D
:100D7000DC01CB0188199909AA09BB09893E934076
:100D8000A105B10558F40E946C2B681579058A05F8
:100D90009B0520F080910C02882389F120910502A7
:100DA00030910602812F90E021FBEE24E0F8F12C37
:100DB0008E159F0521F480910C02882301F11123E7
:100DC00011F0226001C02D7F3093060220930502AE
:100DD0008091050281FF03C067E674E002C062E60D
:100DE00074E0CE0101960E946829CE0101960E940E
:100DF000411ACE0101960E94DE2810920C02812F2A
:100E000026960FB6F894DEBF0FBECDBFDF91CF910F
:100E10001F91FF90EF90BF90AF909F908F9008959B
:100E20001F93CF93DF93CDB7DEB768970FB6F894D3
:100E3000DEBF0FBECDBF1091000C111118C06FE5C1
:100E400074E0CE0101960E946829CE0101960E94AD
:100E5000071ACE0101960E94DE288091050290912A
:100E60000602806290930602809305027EC06DE5C3
:100E700074E0CE0101960E9468291F3F29F5BE014A
:100E80006F5F7F4FCE0107960E94A0296AE574E04C
:100E9000CE0107960E94EC27811104C0CE0107966F
:100EA0000E945128BE01695F7F4FCE010D960E94BE
:100EB000A029CE010D960E94071ACE010D960E9420
:100EC000DE28CE01079642C0612F012E000C770B61
:100ED0004AE0CE010D961A30B4F40E940F29BE01EB
:100EE0006F5F7F4FCE0107960E94A02968E574E0EE
:100EF000CE0107960E94EC2781110EC0CE01079605
:100F00000E94512809C00E940F29BE016F5F7F4FC8
:100F1000CE0107960E94A029BE01635F7F4FCE01DC
:100F200007960E947C28BC01CE0143960E94A0290E
:100F3000CE0143960E94071ACE0143960E94DE28F6
:100F4000CE0107960E94DE28CE010D960E94DE2873
:100F500080910502909106028F7D90930602809306
:100F60000502CE0101960E94DE2868960FB6F8941D
:100F7000DEBF0FBECDBFDF91CF911F9108955F926D
:100F80006F927F928F929F92AF92BF92CF92DF9299
:100F9000EF92FF920F931F93CF93DF93CDB7DEB7FE
:100FA000A0970FB6F894DEBF0FBECDBF6624639442
:100FB000712C552453948E010F5F1F4F96E4E92E38
:100FC00093E0F92E22E3C22E23E0D22E82E06816AF
:100FD00029F093E0691621F082E303C085E301C0A4
:100FE00081E30E94151521E0892B09F420E0F3012B
:100FF000E251FA4F4F012083C3018E519A4F5C0199
:10100000FC0180818217E9F0211109C0F301EE5043
:10101000FA4F50827F926F92DF92CF9204C07F92FC
:101020006F92FF92EF921F930F930E9435410F90A2
:101030000F900F900F900F900F90F4018081F501A9
:101040008083FFEF6F1A7F0A84E06816710409F04D
:10105000BDCFA0960FB6F894DEBF0FBECDBFDF9117
:10106000CF911F910F91FF90EF90DF90CF90BF90A5
:10107000AF909F908F907F906F905F900895CF93E7
:10108000DF93CDB7DEB768970FB6F894DEBF0FBE1B
:10109000CDBF63E274E0CE0101960E9468296091A1
:1010A000030680E190E00E94A6456AE070E080E0DF
:1010B00090E00E94322B60910306062E000C770B05
:1010C0004AE0CE010D960E940F29BE016F5F7F4F4F
:1010D000CE0107960E94A029BE01635F7F4FCE011B
:1010E00007960E947C28BC01CE0143960E94A0294D
:1010F000CE0143960E94B22ACE0143960E94DE287A
:10110000CE0107960E94DE28CE010D960E94DE28B1
:10111000CE0101960E94DE2868960FB6F894DEBFD5
:101120000FBECDBFDF91CF910895E6EFF5E082814C
:101130009381883E934010F013821282329685E0AC
:10114000EC3FF807A1F708958F929F92AF92BF925C
:10115000CF92DF92EF92FF921F93CF93DF93CDB7A1
:10116000DEB762970FB6F894DEBF0FBECDBF88EF33
:10117000A82E85E0B82E90E0E92E96E0F92E11E039
:101180002AE0C22ED12CC6010E949E45982EC6018F
:1011900001960E949E45292D30E0A901582BCA01D5
:1011A0004501F501518340832091050230910602EB
:1011B000F701892BD9F4808180688083123039F05F
:1011C000133071F02F7B309306022093050280913B
:1011D0000502909106029E7F90930602809305027D
:1011E00080910502909106029B7F1AC080818F77C3
:1011F0008083123039F0133071F02064309306028E
:1012000020930502809105029091060291609093CF
:101210000602809305028091050290910602946077
:1012200090930602809305020E94950862E474E0A0
:10123000CE010D960E9468294AE0612FCE010796E3
:101240000E943B29BE01695F7F4FCE0101960E943B
:10125000A0296CE472E0CE0101960E946328BC01D3
:10126000CE010D960E944A28CE0101960E94DE28EA
:10127000CE0107960E94DE28F2E0AF0EB11CF40109
:10128000608171814AE0CE0101960E94E328BE018F
:101290006F5F7F4FCE010D960E944A28CE010196C6
:1012A0000E94DE28BE01635F7F4FCE0101960E943F
:1012B000A029CE0101960E94B22ACE0101960E9479
:1012C000DE28CE010D960E94DE28F2E0CF0ED11C62
:1012D0001F5F4FEFE41AF40A143009F054CF6296FE
:1012E0000FB6F894DEBF0FBECDBFDF91CF911F9137
:1012F000FF90EF90DF90CF90BF90AF909F908F9036
:10130000089585E30E94151521E0892B09F420E05A
:10131000822F0895CF92DF92EF92FF92CF93DF93C7
:1013200000D000D0CDB7DEB78091050284FD34C077
:101330008CE20E941515892B79F580910B02882388
:1013400059F181E00E944B0666E174E0CE010196FE
:101350000E946829CE0101960E94B22ACE01019610
:101360000E94DE2863E174E0CE0101960E946829A4
:1013700061E0CE0101960E946419CE0101960E949F
:10138000DE280E946C2B60932206709323068093C4
:1013900024069093250682C08CE20E941515892BA5
:1013A00009F47CC08091050284FD39C00E946C2B39
:1013B000C0902206D0902306E0902406F0902506E7
:1013C000DC01CB018C199D09AE09BF0989399A430B
:1013D000A105B10508F462C080E00E944B0665E0FB
:1013E00074E0CE0101960E946829CE0101960E9408
:1013F000B22ACE0101960E94DE286FEF73E0CE0183
:1014000001960E94682961E0CE0101960E9464194C
:10141000CE0101960E94DE2810920B023FC00E946E
:101420006C2BC0902206D0902306E0902406F0900A
:101430002506DC01CB018C199D09AE09BF09813459
:101440009C49A105B10538F40E946C2B6C157D05F3
:101450008E059F0518F580E00E944B0661EF73E052
:10146000CE0101960E946829CE0101960E94B22AFF
:10147000CE0101960E94DE286DEE73E0CE0101964A
:101480000E94682961E0CE0101960E946419CE0194
:1014900001960E94DE2881E080930B0226960FB60B
:1014A000F894DEBF0FBECDBFDF91CF91FF90EF90DC
:1014B000DF90CF900895CF92DF92EF92FF921F932B
:1014C000CF93DF93C82F0E946C2B6B017C0110E03F
:1014D000D0E00E948A090E940721CE010E941D27A8
:1014E0000E946C2B6C157D058E059F0520F40E94D3
:1014F0006C2B6B017C010E946C2BDC01CB018C19E5
:101500009D09AE09BF09893C9105A105B10558F4B3
:101510008FE10E941515892BE1F20E946C2B6B0163
:101520007C0111E0D6CF812FDF91CF911F91FF90E9
:10153000EF90DF90CF9008950F931F93CF93DF9399
:1015400000D000D0CDB7DEB78DE10E9415152091F7
:10155000050230910602892B11F0206101C02F7E17
:101560003093060220930502209105028091210606
:1015700090E024FB002700F910E08017910729F480
:1015800080910A02882309F44AC024FF1DC06BED34
:1015900073E0CE0101960E946829CE0101960E9457
:1015A000B22ACE0101960E94DE2868ED73E0CE01DA
:1015B00001960E946829CE0101960E94E00ECE019C
:1015C00001960E94DE2823C065EC73E0CE010196EF
:1015D0000E946829CE0101960E94B22ACE0101968E
:1015E0000E94DE2861EC73E0CE0101960E9468291A
:1015F000CE0101960E94E00ECE0101960E94DE28E7
:10160000809108028093040685E08093080280910F
:101610000502829581708093210610920A02269617
:101620000FB6F894DEBF0FBECDBFDF91CF911F91F3
:101630000F9108950F931F9387E20E941515892B30
:1016400059F40E946C2B6093DA057093DB0580934C
:10165000DC059093DD0524C00E946C2B0091DA0517
:101660001091DB052091DC053091DD05DC01CB011B
:10167000801B910BA20BB30B813D9740A105B105D7
:1016800088F40E946C2B0091DA051091DB05209103
:10169000DC053091DD05601771078207930710F0B4
:1016A00081E001C080E01F910F9108950F931F9377
:1016B00085E20E941515892B61F40E946C2B6093C2
:1016C000D6057093D7058093D8059093D90581E00E
:1016D00027C00E946C2B0091D6051091D705209150
:1016E000D8053091D905DC01CB01801B910BA20BF1
:1016F000B30B853F9140A105B10588F40E946C2B86
:101700000091D6051091D7052091D8053091D905C3
:10171000601771078207930710F08FEF01C080E018
:101720001F910F9108950F931F93CF93DF9300D0D4
:1017300000D0CDB7DEB70E94560B20910502309144
:101740000602811102C0286003C0813029F4277F7E
:101750003093060220930502209105028091200615
:1017600090E023FB002700F910E08017910729F48F
:1017700080910902882309F44BC023FF1DC06DEA44
:1017800073E0CE0101960E946829CE0101960E9465
:10179000B22ACE0101960E94DE2869EA73E0CE01EA
:1017A00001960E946829CE0101960E94511DCE012A
:1017B00001960E94DE2823C066E973E0CE010196FF
:1017C0000E946829CE0101960E94B22ACE0101969C
:1017D0000E94DE2863E973E0CE0101960E94682929
:1017E000CE0101960E94511DCE0101960E94DE2875
:1017F000809108028093040685E08093080280911E
:10180000050283FB882780F9809320061092090245
:1018100026960FB6F894DEBF0FBECDBFDF91CF91F5
:101820001F910F91089561E085E00C943E15CF92D1
:10183000DF92EF92FF920F931F93CF93DF93CDB779
:10184000DEB762970FB6F894DEBF0FBECDBF0E9421
:101850008E05811106C061E086E00E943E15F12CE4
:1018600006C060E086E00E943E15FF24F39460E02D
:1018700085E00E943E150E945A0F00E010E0EE2421
:10188000E3948BE9C82E8FE0D82E0E948A0983E268
:101890000E941515892B69F066E173E0CE0101966F
:1018A0000E94A929CE0101960E94B22ACE0101967A
:1018B00057C061E087E00E943E15C6010197F1F72D
:1018C00060E087E00E943E15C6010197F1F70E9493
:1018D0008E05882311F0E11031C0FF2009F47CC08F
:1018E0000E948E05811176C081E0809303064AE054
:1018F000B801CE0107960E94E32860E773E0CE01AD
:1019000001960E94A929BE01695F7F4FCE01019611
:101910000E947C28BC01CE010D960E94A029CE0118
:101920000D960E94B22ACE010D960E94DE28CE01AD
:1019300001960E94DE28CE01079612C00E94130C69
:101940006CE271E080E090E00E94322B60E086E083
:101950000E943E1560E085E00E943E15E12CC0CF5C
:101960000E94DE280E94130C0E943F08609103062B
:10197000633681F46CE573E0CE0101960E94A929DB
:10198000CE0101960E94B22ACE0101960E94DE2865
:1019900060910306062E000C770B4AE0CE010196FB
:1019A0000E940F2961E0CE0101960E941A0FCE011C
:1019B00001960E94DE2862960FB6F894DEBF0FBE35
:1019C000CDBFDF91CF911F910F91FF90EF90DF90EE
:1019D000CF900895FF24F3940F5F1F4F093883E1E0
:1019E000180709F052CF83E680930306BBCF4F92CE
:1019F0005F926F927F928F929F92AF92BF92CF929F
:101A0000DF92EF92FF920F931F93CF93DF934B01DF
:101A10005C018091450690914606A0914706B091E1
:101A2000480688169906AA06BB0609F4C2C08CE3CC
:101A3000C82ED12CE12CF12CC501B401A7019601CF
:101A40000E948E3E60933E06CA01B901A70196012D
:101A50000E948E3E60933F06CA01B90128E130E042
:101A600040E050E00E948E3E69017A01609340069A
:101A7000CA01B9016C5F7F4F8F4F9F4F27E030E065
:101A800040E050E00E948E3E6F5F60934106412C23
:101A9000512C320140E004E610E0C0E9D1E0242FEF
:101AA00030E02E54384FF901E370FF27309789F466
:101AB000C901B8010E947A3E892B31F4C901BE01E7
:101AC0000E947A3E892B29F48EE691E0A0E0B0E0F6
:101AD00004C08DE691E0A0E0B0E0480E591E6A1EF9
:101AE0007B1ED301C201AA27BB27C816D906EA0666
:101AF000FB0610F04F5FD3CF40934406309799F424
:101B0000C90164E670E00E947A3E892B39F4C9016C
:101B100060E971E00E947A3E892B29F48EE691E01B
:101B2000A0E0B0E004C08DE691E0A0E0B0E0481A8B
:101B3000590A6A0A7B0AC418D508E608F708C901D9
:101B400064E670E00E947A3EEC01C90160E971E050
:101B50000E947A3EA3E1B2E020E0213039F43097D0
:101B600049F4209729F4009729F402C04C9103C04E
:101B70004DE101C04CE150E060E070E0C416D506D4
:101B8000E606F70640F0C41AD50AE60AF70A2F5F00
:101B900011962C3011F72F5F20934306C394C09207
:101BA00042068092450690924606A0924706B09261
:101BB0004806DF91CF911F910F91FF90EF90DF903A
:101BC000CF90BF90AF909F908F907F906F905F90DD
:101BD0004F900895FC01918D828D981761F0828D50
:101BE000DF01A80FB11D5D968C91928D9F5F9F7351
:101BF000928F90E008958FEF9FEF0895FC01918DF3
:101C0000828D981731F0828DE80FF11D858D90E05F
:101C100008958FEF9FEF0895FC01918D228D892FFC
:101C200090E0805C9F4F821B91098F7399270895E4
:101C300089E496E00E940C0E21E0892B09F420E053
:101C4000822F089580E090E0892B21F00E94E22706
:101C500081111DC080E090E0892B41F080E090E090
:101C6000892B21F00E940000811114C080E090E0D7
:101C7000892B21F00E94180E81110FC080E090E0A6
:101C8000892B81F00E94D82781110AC008950E94F3
:101C90000000E0CF0E940000E9CF0E940000EECFDC
:101CA0000C940000089590E0FC013197E231F105B9
:101CB00008F04EC08827EA57FF4F8F4F0C94B03E74
:101CC000809180008F7703C0809180008F7D80930A
:101CD0008000089580918000877FF9CF84B58F7749
:101CE00002C084B58F7D84BD08958091B0008F7748
:101CF00003C08091B0008F7D8093B00008958091E3
:101D000090008F7707C0809190008F7D03C08091F5
:101D10009000877F8093900008958091A0008F7736
:101D200007C08091A0008F7D03C08091A000877FB5
:101D30008093A0000895809120018F7707C0809143
:101D400020018F7D03C080912001877F8093200137
:101D50000895EF92FF920F931F93CF93DF9300D0DC
:101D600000D0CDB7DEB78C017A016AEB75E00E9436
:101D700068298AE0E816F1042CF468EB75E0C801E4
:101D80000E94EC274AE0B701CE0101960E940F297C
:101D9000BE016F5F7F4FC8010E944A28CE010196A5
:101DA0000E94DE28C80126960FB6F894DEBF0FBE4B
:101DB000CDBFDF91CF911F910F91FF90EF900895CC
:101DC000CF93DF93CDB7DEB762970FB6F894DEBF3F
:101DD0000FBECDBFBC01CE0101960E94A02967EACB
:101DE0007BE0CE0107960E94A02969E87BE0CE0146
:101DF0000D960E94A029AE014F5F5F4FBE01695F43
:101E00007F4FCE010D960E949116CE010D960E9435
:101E1000DE28CE0107960E94DE28CE0101960E94A0
:101E2000DE2862960FB6F894DEBF0FBECDBFDF91FD
:101E3000CF9108951F93CF93DF93CDB7DEB762970D
:101E40000FB6F894DEBF0FBECDBF162FBC01CE017A
:101E500001960E94A0296DED7BE0CE0107960E94BD
:101E6000A02969E87BE0CE010D960E94A029AE0171
:101E70004F5F5F4FBE01695F7F4FCE010D960E949D
:101E80009116CE010D960E94DE28CE0107960E9483
:101E9000DE28CE0101960E94DE2811110E94441610
:101EA00062960FB6F894DEBF0FBECDBFDF91CF9123
:101EB0001F910895EEE0FCE08FEF90E0928B818B14
:101EC000948B838B8FE19CE00C94601FCF93DF9306
:101ED0002091570B3091580B232B79F0FC01C091C6
:101EE000530BD091540B60817181CE010E941B4134
:101EF000009719F08C1B9D0B02C08FEF9FEFDF91B5
:101F0000CF910895CF92DF92EF92FF920F931F939C
:101F1000CF93DF93EC016A017B01E889F98982E0C4
:101F200080834115514E61057105B1F060E079E0A3
:101F30008DE390E0A70196010E948E3E89019A01EF
:101F400001501109210931093695279517950795F3
:101F5000980101151041A8F0E889F989108260E81C
:101F600074E88EE190E0A70196010E948E3EDA01AE
:101F7000C9010197A109B109B695A79597958795CC
:101F80009C01EC85FD853083EE85FF852083188ECE
:101F9000EC89FD8986E08083EA89FB898081806104
:101FA0008083EA89FB89808188608083EA89FB8954
:101FB000808180688083EA89FB8980818F7D80832E
:101FC000DF91CF911F910F91FF90EF90DF90CF9015
:101FD00008950F931F930E946C2B00914708109156
:101FE00048082091490830914A0860177107820714
:101FF000930750F40E946C2B609347087093480835
:102000008093490890934A080E946C2B00914708DE
:10201000109148082091490830914A08DC01CB0111
:10202000801B910BA20BB30B21E088389341A105D3
:10203000B10508F420E0822F1F910F910895CF93EE
:10204000DF93CDB7DEB762970FB6F894DEBF0FBE51
:10205000CDBFBC01CE0101960E94A02963E87BE0C0
:10206000CE0107960E94A0296DE77BE0CE010D9678
:102070000E94A029AE014F5F5F4FBE01695F7F4F95
:10208000CE010D960E949116CE010D960E94DE287B
:10209000CE0107960E94DE28CE0101960E94DE281E
:1020A0000E94441662960FB6F894DEBF0FBECDBFF5
:1020B000DF91CF9108950F931F93CF93DF93CDB707
:1020C000DEB769970FB6F894DEBF0FBECDBF282FDD
:1020D0008B0169E87BE0CE014396298F0E94A029FD
:1020E000298D223069F02330A1F02130D9F54AE062
:1020F000B801CE0101960E94E32869EB7BE011C094
:102100004AE0B801CE0101960E94E32865EC7BE02D
:1021100008C04AE0B801CE0101960E94E32861EDB3
:102120007BE0CE0107960E94A029BE016D5E7F4F25
:10213000CE010D960E94A029AE014F5F5F4FBE01F8
:10214000695F7F4FCE010D960E949116CE010D96CC
:102150000E94DE28CE0107960E94DE28CE0101965D
:102160000E94DE28CE0143960E94DE2869960FB6B3
:10217000F894DEBF0FBECDBFDF91CF911F910F91BD
:10218000089520911C0C2F5F243018F420931C0C10
:1021900002C010921C0C20911C0C2130F9F070F040
:1021A0002230D1F1233009F051C080E590E09093C6
:1021B000200C80931F0C8BEF90E044C06AE070E02D
:1021C0000E94663EFC01E25FF34F838190E09093B2
:1021D000200C80931F0C8DEF90E034C08A30910565
:1021E000A0F064E670E00E94663E6AE070E00E9443
:1021F000663EFB01E25FF34F838190E09093200CF9
:1022000080931F0C8FEE90E01DC08FEF90E09093B5
:10221000200C80931F0C16C084369105B0F368EE35
:1022200073E00E94663E64E670E00E94663EFB0139
:10223000E25FF34F838190E09093200C80931F0C1A
:1022400087EF90E09093220C8093210C8FE19CE02B
:102250000C94601F0F931F930E946C2B0091F50B41
:102260001091F60B2091F70B3091F80B6017710766
:102270008207930750F40E946C2B6093F50B7093C8
:10228000F60B8093F70B9093F80B0E946C2B009148
:10229000F50B1091F60B2091F70B3091F80BDC0148
:1022A000CB01801B910BA20BB30B21E0843F91402B
:1022B000A105B10508F420E0822F1F910F91089528
:1022C000CF93DF93CDB7DEB762970FB6F894DEBF3A
:1022D0000FBECDBF4AE0682FCE0101960E943B2978
:1022E00065E67BE0CE0107960E94A0296FE57BE0C2
:1022F000CE010D960E94A029AE014F5F5F4FBE0137
:10230000695F7F4FCE010D960E949116CE010D960A
:102310000E94DE28CE0107960E94DE28CE0101969B
:102320000E94DE2862960FB6F894DEBF0FBECDBFC6
:10233000DF91CF910895CF93DF93CDB7DEB762974A
:102340000FB6F894DEBF0FBECDBF4AE0BC01CE0190
:1023500001960E94E3286BE67BE0CE0107960E947F
:10236000A0296FE57BE0CE010D960E94A029AE0169
:102370004F5F5F4FBE01695F7F4FCE010D960E9498
:102380009116CE010D960E94DE28CE0107960E947E
:10239000DE28CE0101960E94DE2862960FB6F894E0
:1023A000DEBF0FBECDBFDF91CF910895CF93DF93F6
:1023B000CDB7DEB762970FB6F894DEBF0FBECDBFC4
:1023C0004AE0BC01CE0101960E94E32861E77BE070
:1023D000CE0107960E94A0296FE57BE0CE010D9605
:1023E0000E94A029AE014F5F5F4FBE01695F7F4F22
:1023F000CE010D960E949116CE010D960E94DE2808
:10240000CE0107960E94DE28CE0101960E94DE28AA
:1024100062960FB6F894DEBF0FBECDBFDF91CF91AD
:102420000895CF93DF93CDB7DEB762970FB6F894D8
:10243000DEBF0FBECDBFBC01CE0101960E94A02918
:1024400067E77BE0CE0107960E94A0296FE57BE05D
:10245000CE010D960E94A029AE014F5F5F4FBE01D5
:10246000695F7F4FCE010D960E949116CE010D96A9
:102470000E94DE28CE0107960E94DE28CE0101963A
:102480000E94DE2862960FB6F894DEBF0FBECDBF65
:10249000DF91CF9108951F920F920FB60F921124E2
:1024A0000BB60F922F933F934F935F936F937F934E
:1024B0008F939F93AF93BF93EF93FF9389E496E03D
:1024C0000E94452AFF91EF91BF91AF919F918F910B
:1024D0007F916F915F914F913F912F910F900BBE24
:1024E0000F900FBE0F901F9018954F925F926F92B2
:1024F0007F928F929F92AF92BF92EF92FF920F9333
:102500001F93CF93DF93CDB7DEB76E970FB6F894D6
:10251000DEBF0FBECDBF8C017B0164E874E0CE014D
:102520000D960E94A929B701CE0143960E94A029C9
:1025300064E874E0CE0149960E94A92978012EE052
:10254000E20EF11C0E946C2B40903606509037062C
:1025500060903806709039064B015C01841895082C
:10256000A608B70880913A0690913B06A0913C06D8
:10257000B0913D06E8EE8E16E3E09E06A104B1049C
:10258000D0F00196A11DB11D80933A0690933B06B1
:10259000A0933C06B0933D06B301A20148515C4FA5
:1025A0006F4F7F4F4093360650933706609338063F
:1025B00070933906C7CF409132065091330660912F
:1025C00034067091350684179507A607B70708F4F7
:1025D00056C0E0913006F0913106309709F44FC0B3
:1025E0001995611571058105910539F160933A06D8
:1025F00070933B0680933C0690933D06DC01CB0133
:10260000845D9E4FAF4FBF4F809332069093330649
:10261000A0933406B093350682E090E090932F06A5
:1026200080932E060E946C2B6093360670933706BB
:10263000809338069093390622C080913A06909193
:102640003B06A0913C06B0913D06845D9E4FAF4F86
:10265000BF4F8093320690933306A0933406B09315
:10266000350681E090E020912E0630912F06232B35
:1026700011F480E090E090932F0680932E068090D6
:102680003A0690903B06A0903C06B0903D06C501EE
:10269000B4010E94F70C4091400650E0B801CE0111
:1026A00007960E94A90E6DEB75E0CE0107960E9479
:1026B000EC27C501B4010E94F70C40913F0650E0A1
:1026C000B801CE0101960E94A90EBE016F5F7F4F37
:1026D000CE0107960E944A28CE0101960E94DE286C
:1026E0006BEB75E0CE0107960E94EC27C501B401A3
:1026F0000E94F70C40913E0650E0B801CE010196D1
:102700000E94A90EBE016F5F7F4FCE0107960E9407
:102710004A28CE0101960E94DE28BE01695F7F4FE4
:10272000CE0101960E94A0296AE773E0CE010196CE
:102730000E946328B7010E947C2868E773E00E942A
:102740006328BE016D5E7F4F0E947C28BC01CE01D4
:1027500049960E94C728CE0101960E94DE28CE012C
:1027600007960E94DE288D859E850097A9F0698DC9
:102770007A8D6115710571F04F8558892D8D3E8DCB
:102780004217530738F00E9414418D8D9E8D9A8B0D
:10279000898B12C00E947C3F898D9A8D9E878D8780
:1027A0008B8D9C8D988B8F878D8D9E8D9A8B898B31
:1027B0001A8E198E1C8E1B8E1E8E1D8ECE01499672
:1027C0000E94DE28CE0143960E94DE28BE01635F90
:1027D0007F4FF801808191810E94D229CE010D9610
:1027E0000E94DE286E960FB6F894DEBF0FBECDBFF6
:1027F000DF91CF911F910F91FF90EF90BF90AF901D
:102800009F908F907F906F905F904F900895EF9280
:10281000FF920F931F93CF93DF93EC017B0164E84A
:1028200074E008960E94A9298E01025F1F4F64E898
:1028300074E0C8010E94A92989E496E099838883FD
:1028400080E092ECA1E0B0E08C839D83AE83BF83F7
:102850008CE793E09B838A83B701C801DF91CF9116
:102860001F910F91FF90EF900C94C7281F920F9229
:102870000FB60F9211240BB60F922F933F934F93E5
:102880005F936F937F938F939F93AF93BF93EF93D8
:10289000FF93E0912C06F0912D061995FF91EF9191
:1028A000BF91AF919F918F917F916F915F914F9168
:1028B0003F912F910F900BBE0F900FBE0F901F9066
:1028C0001895FC01848DDF01A80FB11DA35ABF4FDD
:1028D0002C91848D90E001968F739927848FA6891F
:1028E000B7892C93A089B1898C9180648C93938D46
:1028F000848D981306C00288F389E02D80818F7D36
:10290000808308951F920F920FB60F9211240BB679
:102910000F922F933F934F935F936F937F938F9378
:102920009F93AF93BF93EF93FF9389E496E00E9448
:102930006114FF91EF91BF91AF919F918F917F9122
:102940006F915F914F913F912F910F900BBE0F9020
:102950000FBE0F901F901895EF92FF920F931F9349
:10296000CF93DF93EC0181E0888F9B8D8C8D981342
:1029700005C0E889F989808185FD24C0F62E0B8D7C
:1029800010E00F5F1F4F0F731127E02E8C8DE812A0
:102990000CC00FB607FCFACFE889F989808185FF62
:1029A000F5CFCE010E946114F1CF8B8DFE01E80FAF
:1029B000F11DE35AFF4FF0820B8FEA89FB8980817A
:1029C000806207C0EE89FF896083E889F989808188
:1029D0008064808381E090E0DF91CF911F910F911F
:1029E000FF90EF900895CF93DF93EC01888D8823BB
:1029F000C9F0EA89FB89808185FD05C0A889B9896C
:102A00008C9186FD0FC00FB607FCF5CF808185FF46
:102A1000F2CFA889B9898C9185FFEDCFCE010E94B4
:102A20006114E7CFDF91CF910895CF93DF93282FE3
:102A300030E0F901EE58FA4F8491F901E45DFA4F64
:102A4000D491F901EA51FB4FC491CC2391F081114B
:102A50000E94530EEC2FF0E0EE0FFF1FE453FB4FEC
:102A6000A591B491EC91ED2381E090E021F480E018
:102A700002C080E090E0DF91CF9108951F93CF9343
:102A8000DF93282F30E0F901EE58FA4F8491F901D5
:102A9000E45DFA4FD491F901EA51FB4FC491CC2384
:102AA000C9F0162F81110E94530EEC2FF0E0EE0FAB
:102AB000FF1FEE54FB4FA591B4918FB7F8941111FD
:102AC00005C09C91ED2FE095E92302C0EC91ED2B20
:102AD000EC938FBFDF91CF911F9108951F93CF93F8
:102AE000DF9300D000D0CDB7DEB7182F8091F90B5F
:102AF0001817D1F0112319F060E873E002C06CE9F7
:102B000073E0CE0101960E94A929CE0101960E9490
:102B10007B1ACE0101960E94DE28612F8091040C61
:102B20000E943E151093F90B0E946C2B6093F50BDD
:102B30007093F60B8093F70B9093F80B0E942A1179
:102B4000811119C08091410C9091420CDC01ED91F2
:102B5000FC910480F581E02D1995892B79F3809102
:102B6000410C9091420CDC01ED91FC910680F781C3
:102B7000E02D1995E3CF26960FB6F894DEBF0FBE71
:102B8000CDBFDF91CF911F9108950F931F93CF93E6
:102B9000DF93CDB7DEB762970FB6F894DEBF0FBEF6
:102BA000CDBF8C0164E874E0CE010D960E94A92986
:102BB000F80184819581892B09F457C067EB73E094
:102BC000CE010D960E94B028609143087091440890
:102BD0004AE0CE0107960E94E328BE01695F7F4F5D
:102BE000CE0101960E94A0296CE472E0CE0101960C
:102BF0000E946328BC01CE010D960E944A28CE0196
:102C000001960E94DE28CE0107960E94DE28B801B8
:102C1000CE010D960E944A28BE01635F7F4FCE0110
:102C200001960E94A029CE0101960E94E620CE01C5
:102C300001960E94DE28209143083091440846E026
:102C4000429FC001439F900D1124B8018D5A974FA8
:102C50000E94C728809143089091440801968F777D
:102C600099279093440880934308CE010D960E94C3
:102C7000DE2862960FB6F894DEBF0FBECDBFDF919F
:102C8000CF911F910F910895CF93DF93CDB7DEB70A
:102C90002C970FB6F894DEBF0FBECDBF60EF75E086
:102CA000CE0107960E9468296EEE75E0CE01079668
:102CB0000E94EC2760914308709144084AE0CE01DD
:102CC00001960E94E328BE016F5F7F4FCE010796F9
:102CD0000E944A28CE0101960E94DE2868EE75E027
:102CE000CE0107960E94EC27BE01695F7F4FCE019F
:102CF00001960E94A029CE0101960E94C515CE0121
:102D000001960E94DE28CE0107960E94DE2880E010
:102D10002C960FB6F894DEBF0FBECDBFDF91CF91DA
:102D20000895CF92DF92EF92FF920F931F93CF936C
:102D3000DF93CDB7DEB72C970FB6F894DEBF0FBE8A
:102D4000CDBF6C017B018A0167EE75E0CE0107966D
:102D50000E94682965EE75E0CE0107960E94EC2777
:102D600060914308709144084AE0CE0101960E94A8
:102D7000E328BE016F5F7F4FCE0107960E944A286D
:102D8000CE0101960E94DE286DED75E0CE0107961A
:102D90000E94EC27B601CE0107960E944A286BEDEF
:102DA00075E0CE0107960E94EC27B701CE01079689
:102DB0000E944A2869ED75E0CE0107960E94EC2733
:102DC000B801CE0107960E944A28BE01695F7F4F75
:102DD000CE0101960E94A029CE0101960E94C51540
:102DE000CE0101960E94DE28CE0107960E94DE28C1
:102DF00080E02C960FB6F894DEBF0FBECDBFDF91FA
:102E0000CF911F910F91FF90EF90DF90CF90089599
:102E1000FF920F931F93CF93DF93CDB7DEB76297E7
:102E20000FB6F894DEBF0FBECDBF8C01F62EBC01ED
:102E3000CE0101960E94A0296FE87BE0CE010796A3
:102E40000E94A02969E87BE0CE010D960E94A0298E
:102E5000AE014F5F5F4FBE01695F7F4FCE010D96A0
:102E60000E949116CE010D960E94DE28CE01079693
:102E70000E94DE28CE0101960E94DE28F80184819E
:102E80009581892B09F411C262EC73E080819181F4
:102E90000E940B41892B09F008C267ED75E0CE0155
:102EA00001960E94682965E97BE0CE0107960E94A1
:102EB000A02969E87BE0CE010D960E94A029AE0111
:102EC0004F5F5F4FBE01695F7F4FCE010D960E943D
:102ED0009116CE010D960E94DE28CE0107960E9423
:102EE000DE28CE0101960E94DE2865ED75E0CE0158
:102EF00001960E9468296BE97BE0CE0107960E944B
:102F0000A02969E87BE0CE010D960E94A029AE01C0
:102F10004F5F5F4FBE01695F7F4FCE010D960E94EC
:102F20009116CE010D960E94DE28CE0107960E94D2
:102F3000DE28CE0101960E94DE2863ED75E0CE0109
:102F400001960E94682961EA7BE0CE0107960E9403
:102F5000A02969E87BE0CE010D960E94A029AE0170
:102F60004F5F5F4FBE01695F7F4FCE010D960E949C
:102F70009116CE010D960E94DE28CE0107960E9482
:102F8000DE28CE0101960E94DE2861ED75E0CE01BB
:102F900001960E94682967EA7BE0CE0107960E94AD
:102FA000A02969E87BE0CE010D960E94A029AE0120
:102FB0004F5F5F4FBE01695F7F4FCE010D960E944C
:102FC0009116CE010D960E94DE28CE0107960E9432
:102FD000DE28CE0101960E94DE286FEC75E0CE015E
:102FE00001960E9468296DEA7BE0CE0107960E9457
:102FF000A02969E87BE0CE010D960E94A029AE01D0
:103000004F5F5F4FBE01695F7F4FCE010D960E94FB
:103010009116CE010D960E94DE28CE0107960E94E1
:10302000DE28CE0101960E94DE286DEC75E0CE010F
:1030300001960E94682963EB7BE0CE0107960E940F
:10304000A02969E87BE0CE010D960E94A029AE017F
:103050004F5F5F4FBE01695F7F4FCE010D960E94AB
:103060009116CE010D960E94DE28CE0107960E9491
:10307000DE28CE0101960E94DE286BEC75E0CE01C1
:1030800001960E94682969EB7BE0CE0107960E94B9
:10309000A02969E87BE0CE010D960E94A029AE012F
:1030A0004F5F5F4FBE01695F7F4FCE010D960E945B
:1030B0009116CE010D960E94DE28CE0107960E9441
:1030C000DE28CE0101960E94DE2869EC75E0CE0173
:1030D00001960E9468296FEB7BE0CE0107960E9463
:1030E000A02969E87BE0CE010D960E94A029AE01DF
:1030F0004F5F5F4FBE01695F7F4FCE010D960E940B
:103100009116CE010D960E94DE28CE0107960E94F0
:10311000DE28CE0101960E94DE2867EC75E0CE0124
:1031200001960E94682965EC7BE0CE0107960E941B
:10313000A02969E87BE0CE010D960E94A029AE018E
:103140004F5F5F4FBE01695F7F4FCE010D960E94BA
:103150009116CE010D960E94DE28CE0107960E94A0
:10316000DE28CE0101960E94DE2865EC75E0CE01D6
:1031700001960E9468296BEC7BE0CE0107960E94C5
:10318000A02969E87BE0CE010D960E94A029AE013E
:103190004F5F5F4FBE01695F7F4FCE010D960E946A
:1031A0009116CE010D960E94DE28CE0107960E9450
:1031B000DE28CE0101960E94DE2863EC75E0CE0188
:1031C00001960E94682961ED7BE0CE0107960E947E
:1031D000A02969E87BE0CE010D960E94A029AE01EE
:1031E0004F5F5F4FBE01695F7F4FCE010D960E941A
:1031F0009116CE010D960E94DE28CE0107960E9400
:10320000DE28CE0101960E94DE2861EC75E0CE0139
:1032100001960E94682967ED7BE0CE0107960E9427
:10322000A02969E87BE0CE010D960E94A029AE019D
:103230004F5F5F4FBE01695F7F4FCE010D960E94C9
:103240009116CE010D960E94DE28CE0107960E94AF
:10325000DE28CE0101960E94DE286FEB75E0CE01DC
:1032600001960E9468296DED7BE0CE0107960E94D1
:10327000A02969E87BE0CE010D960E94A029AE014D
:103280004F5F5F4FBE01695F7F4FCE010D960E9479
:103290009116CE010D960E94DE28CE0107960E945F
:1032A000DE28CE0101960E94DE28F1100E9444160D
:1032B00062960FB6F894DEBF0FBECDBFDF91CF91FF
:1032C0001F910F91FF9008951F93CF93DF93CDB778
:1032D000DEB762970FB6F894DEBF0FBECDBF162FD4
:1032E000BC01CE0101960E94A0296DEA7BE0CE01CF
:1032F00007960E94A02969E87BE0CE010D960E9406
:10330000A029AE014F5F5F4FBE01695F7F4FCE01C5
:103310000D960E949116CE010D960E94DE28CE01D8
:1033200007960E94DE28CE0101960E94DE28111128
:103330000E94441662960FB6F894DEBF0FBECDBF52
:10334000DF91CF911F9108950F931F93CF93DF9338
:10335000CDB7DEB769970FB6F894DEBF0FBECDBF0D
:10336000282F8B0169E87BE0CE014396298F0E94CC
:10337000A029298D223061F0233091F02130C1F550
:10338000B801CE0101960E94A0296FEB7BE00FC02F
:10339000B801CE0101960E94A0296BEC7BE007C02A
:1033A000B801CE0101960E94A02967ED7BE0CE0115
:1033B00007960E94A029BE016D5E7F4FCE010D963B
:1033C0000E94A029AE014F5F5F4FBE01695F7F4F32
:1033D000CE010D960E949116CE010D960E94DE2818
:1033E000CE0107960E94DE28CE0101960E94DE28BB
:1033F000CE0143960E94DE2869960FB6F894DEBF90
:103400000FBECDBFDF91CF911F910F910895CF9344
:10341000DF93CDB7DEB762970FB6F894DEBF0FBE6D
:10342000CDBFBC01CE0101960E94A02963EB7BE0D9
:10343000CE0107960E94A02969E87BE0CE010D9697
:103440000E94A029AE014F5F5F4FBE01695F7F4FB1
:10345000CE010D960E949116CE010D960E94DE2897
:10346000CE0107960E94DE28CE0101960E94DE283A
:1034700062960FB6F894DEBF0FBECDBFDF91CF913D
:103480000895CF93DF93CDB7DEB762970FB6F89468
:10349000DEBF0FBECDBFBC01CE0101960E94A029A8
:1034A00065E97BE0CE0107960E94A02969E87BE0F0
:1034B000CE010D960E94A029AE014F5F5F4FBE0165
:1034C000695F7F4FCE010D960E949116CE010D9639
:1034D0000E94DE28CE0107960E94DE28CE010196CA
:1034E0000E94DE2862960FB6F894DEBF0FBECDBFF5
:1034F000DF91CF910895CF93DF9300D000D0CDB767
:10350000DEB7BC01CE0101960E94A029BE016F5F0B
:103510007F4F8091EF0B9091F00B0E947512CE01BE
:1035200001960E94DE2826960FB6F894DEBF0FBEE5
:10353000CDBFDF91CF910895EF92FF920F931F932C
:10354000CF93DF93CDB7DEB762970FB6F894DEBFA7
:103550000FBECDBF82E090E090934C0C80934B0C5B
:1035600010924D0C81E090E090934F0C80934E0CA4
:103570009093510C8093500C8CEF80935A0C0E94C6
:10358000AB1E85E00E94651E882309F447C10E9496
:10359000E51D882309F442C18091000C8F3F71F42E
:1035A0006BEC73E0CE0101960E94A929CE01019631
:1035B0000E947B1ACE0101960E94DE2868EC70E022
:1035C00080E090E00E94322B82E090E090934C0CDF
:1035D00080934B0C10924D0C81E090E090934F0C37
:1035E00080934E0C88EE90E09093510C8093500C99
:1035F00085E180935A0C0E94AB1E85E00E94651EF7
:10360000882399F10E94AC1DE12CF12C8701809157
:10361000410C9091420CDC01ED91FC910480F5810C
:10362000E02D1995892BD9F006301105A1F0809174
:10363000410C9091420CDC01ED91FC910680F781E8
:10364000E02D1995F801E15CF34F81A30F5F1F4F47
:103650000E94AC1DDCCF86E0E82EF12C01C0780181
:103660000E94B71D882309F4E2C068EC70E080E096
:1036700090E00E94322B60918C0C6093000C6111E1
:1036800043C065EE73E0CE0101960E94A929CE01E8
:1036900001960E948B1DCE0101960E94DE2882E0D9
:1036A00090E090934C0C80934B0C80934D0C81E0F8
:1036B00090E090934F0C80934E0C87EE90E09093A7
:1036C000510C8093500C80E88093520C8FEF8093C4
:1036D000530C85E980935A0C0E94AB1E87E00E9430
:1036E000651E81110E94E51D8091000C81116EC044
:1036F00081E00E94081F882321F081E08093080C5C
:1037000065C01092080C62C08091010C1616E4F599
:103710006A3074F4681709F459C0062E000C770B50
:103720004AE0CE0107960E940F2964EF73E00DC0B6
:10373000681709F44BC0062E000C770B4AE0CE0147
:1037400007960E940F296AE074E0CE010D960E9450
:10375000A929BE01695F7F4FCE010D960E947C288A
:10376000BC01CE0101960E94A029CE0101960E94C3
:103770007B1ACE0101960E94DE28CE010D960E9492
:10378000DE28CE0107961CC0681701F16FE174E0D6
:10379000CE0101960E94A929CE0101960E947B1AB2
:1037A000CE0101960E94DE286CE374E0CE01019602
:1037B0000E94A929CE0101960E947B1ACE01019692
:1037C0000E94DE288091000C8093010C8091000CF7
:1037D000811122C08091010C882391F063E574E08F
:1037E000CE0101960E94A929CE0101960E947B1A62
:1037F000CE0101960E94DE288091000C8093010C7E
:103800000E946C2B6093F50B7093F60B8093F70B73
:103810009093F80B81E04DC080E04BC08FEF809318
:10382000000C8091010C8F3F09F0B0CFCFCF063054
:10383000110509F0EBCEB6E0EB16F10409F015CF57
:1038400020E080E090E0FC01E15CF34F31A1230F28
:10385000019686309105B9F780915D0C883221F090
:1038600080915D0C823029F4211103C08091640C99
:103870001DC06CE674E0CE0101960E94A929CE011C
:1038800001960E948B1DCE0101960E94DE2865E8FC
:1038900074E0CE0101960E94A929CE0101960E94F2
:1038A0008B1DCE0101960E94DE288FEF80938C0C39
:1038B000DCCE62960FB6F894DEBF0FBECDBFDF91AF
:1038C000CF911F910F91FF90EF900895CF93DF93C9
:1038D00000D000D0CDB7DEB790E0FC013897E830DB
:1038E000F10508F04AC08827E856FF4F8F4F0C9427
:1038F000B03E69E974E0CE0101960E94A929CE018B
:1039000001960E948B1DCE0101960E94DE2881E067
:1039100090E035C06CEA74E0CE0101960E94A929BE
:10392000CE0101960E948B1DCE0101960E94DE28D9
:1039300082E090E024C06FEB74E0CE0101960E941B
:10394000A929CE0101960E948B1DCE0101960E94ED
:10395000DE2885E090E013C062ED74E0CE010196B0
:103960000E94A929CE0101960E948B1DCE010196CD
:103970000E94DE288AE090E002C080E090E0269677
:103980000FB6F894DEBF0FBECDBFDF91CF91089583
:10399000CF93DF93CDB7DEB762970FB6F894DEBF53
:1039A0000FBECDBFBC01CE0101960E94A0296BE9DC
:1039B0007BE0CE0107960E94A02969E87BE0CE015A
:1039C0000D960E94A029AE014F5F5F4FBE01695F57
:1039D0007F4FCE010D960E949116CE010D960E944A
:1039E000DE28CE0107960E94DE28CE0101960E94B5
:1039F000DE2862960FB6F894DEBF0FBECDBFDF9112
:103A0000CF910895CF93DF93CDB7DEB762970FB60E
:103A1000F894DEBF0FBECDBF20914108223079F06F
:103A200066EE74E0CE0101960E94A929CE010196AE
:103A30000E94E620CE0101960E94DE2829C0BC012A
:103A4000CE0101960E94A02969EE7BE0CE01079687
:103A50000E94A02963EE7BE0CE010D960E94A02972
:103A6000AE014F5F5F4FBE01695F7F4FCE010D9684
:103A70000E949116CE010D960E94DE28CE01079677
:103A80000E94DE28CE0101960E94DE280E94441684
:103A900062960FB6F894DEBF0FBECDBFDF91CF9117
:103AA0000895CF93DF93CDB7DEB762970FB6F89442
:103AB000DEBF0FBECDBFBC01CE0101960E94A02982
:103AC00061EA7BE0CE0107960E94A02969E87BE0CD
:103AD000CE010D960E94A029AE014F5F5F4FBE013F
:103AE000695F7F4FCE010D960E949116CE010D9613
:103AF0000E94DE28CE0107960E94DE28CE010196A4
:103B00000E94DE2862960FB6F894DEBF0FBECDBFCE
:103B1000DF91CF910895CF93DF9300D000D0CDB740
:103B2000DEB7BC01CE0101960E94A029BE016F5FE5
:103B30007F4F80913F0C9091400C0E947512CE01F6
:103B400001960E94DE2826960FB6F894DEBF0FBEBF
:103B5000CDBFDF91CF9108950E946C2B6093470CED
:103B60007093480C8093490C90934A0C08950F93DE
:103B70001F930E946C2B0091470C1091480C2091D0
:103B8000490C30914A0C601771078207930710F4B3
:103B90000E94AC1D0E946C2B0091470C1091480CA8
:103BA0002091490C30914A0CDC01CB01801B910B18
:103BB000A20BB30B21E0883C9105A105B10508F4E7
:103BC00020E0822F1F910F910895CF92DF92FF92F4
:103BD0000F931F93CF93DF9300D000D0CDB7DEB704
:103BE0000E94AC1D00E010E08091410C9091420CCD
:103BF000DC01ED91FC910480F581E02D1995892B74
:103C0000D9F005301105A1F08091410C9091420C42
:103C1000DC01ED91FC910680F781E02D1995F8010A
:103C2000E15CF34F848F0F5F1F4F0E94AC1DDCCF10
:103C300085E0C82ED12C01C068010E94B71DF82E66
:103C4000811124C0B5E0CB16D10471F60530110501
:103C500069F520E080E090E0FC01E15CF34F348DF9
:103C6000230F019685309105B9F780915D0C88325C
:103C700021F080915D0C823059F480915E0C8111AD
:103C800007C0211105C0FF24F39410C0F12C0EC011
:103C90006CE075E0CE0101960E94A929CE01019643
:103CA0000E948B1DCE0101960E94DE288F2D269644
:103CB0000FB6F894DEBF0FBECDBFDF91CF911F913D
:103CC0000F91FF90DF90CF9008951F93CF93DF93D4
:103CD00000D000D0CDB7DEB7182F0E94AC1D112345
:103CE00079F18091410C9091420CDC01ED91FC91B5
:103CF0000480F581E02D1995892B71F08091410C9C
:103D00009091420CDC01ED91FC910680F781E02D51
:103D1000199511500E94AC1D0E94B71D8823F9F21D
:103D20006BE275E0CE0101960E94A929CE010196B1
:103D30000E948B1DCE0101960E94DE2880E001C00A
:103D400081E026960FB6F894DEBF0FBECDBFDF919F
:103D5000CF911F910895FF920F931F93CF93DF93FD
:103D6000CDB7DEB7C058D1090FB6F894DEBF0FBE8D
:103D7000CDBF80914B0C898300914D0C0A838091BB
:103D80004E0C8B838091500C8C83FE01359680E025
:103D900090E010E08017910744F4DC01A15CB34F80
:103DA00053962C9121930196F5CF0C5F1F4FE1E0C4
:103DB000F0E0EC0FFD1FE00FF11F80915A0C8083A3
:103DC000F12C2F2D30E002171307A4F08091410C45
:103DD0009091420CDC01ED91FC91A1E0B0E0AC0FC0
:103DE000BD1FA20FB31F0190F081E02D6C911995BA
:103DF000F394E7CF80E0C058DF4F0FB6F894DEBFF2
:103E00000FBECDBFDF91CF911F910F91FF9008950D
:103E10001F93CF93DF9300D000D0CDB7DEB7182F1C
:103E2000882319F06DE475E002C06EE575E0CE01FF
:103E300001960E94A929CE0101960E948B1DCE01F8
:103E400001960E94DE2882E090E090934C0C8093D3
:103E50004B0C91E090934D0C21E030E030934F0CEF
:103E600020934E0C24EE30E03093510C2093500CF4
:103E7000112319F09093520C02C01092520C8091B1
:103E8000520C8851819580935A0C0E94AB1E86E09B
:103E90000E94651E81110E94E51D26960FB6F894BA
:103EA000DEBF0FBECDBFDF91CF911F9108958091EE
:103EB000000C811104C00E94081F1092080C089584
:103EC000AF92BF92CF92DF92EF92FF920F931F9328
:103ED000CF93DF936C0160E08091100C0E943E153F
:103EE000E6012496BA90AA9008E010E090E8E92E46
:103EF000F12C60E080910E0C0E943E1561E097016C
:103F00002A213B21232B09F460E080910F0C0E94B1
:103F10003E1561E080910E0C0E943E15F594E794E9
:103F20000150110931F7CC15DD05E1F661E0809112
:103F3000100CDF91CF911F910F91FF90EF90DF90C8
:103F4000CF90BF90AF900C943E15FC018091290C4E
:103F500090912A0CE817F90769F1E03533ECF30783
:103F600030F4E0348CE9F80740F09F0102C02FE400
:103F700033ECC90180549C4919C0E03395E7F90737
:103F800020F0CF018053954711C0E0323EE4F307A3
:103F900020F0CF0180529E4409C0E03187E2F8074B
:103FA00020F0CF018051974201C0CF0190932A0C9D
:103FB0008093290C20911C0C2130E9F038F022303C
:103FC00009F458C0233009F48DC0C2C06AE070E023
:103FD0000E94663EDC01A25FB34F13968C91E031E4
:103FE000F74208F08F7D90E09093200C80931F0C97
:103FF0008DEF90E0A9C0E032FE4420F18A309105B7
:1040000068F064E670E00E94663E6AE070E00E943C
:10401000663EFB01E25FF34F838102C08091110C89
:1040200090E09093200C80931F0C80911F0C909136
:10403000200C8F7D99279093200C80931F0C8FEE7E
:1040400090E082C08A30910570F064E670E00E94D2
:10405000663E6AE070E00E94663EFB01E25FF34F5D
:10406000838190E0E8CF8FEF90E09093200C8093D5
:104070001F0C6AC0E033F54720F18436910568F0E3
:1040800068EE73E00E94663E64E670E00E94663E61
:10409000FB01E25FF34F838102C08091110C90E03D
:1040A0009093200C80931F0C80911F0C9091200CFA
:1040B0008F7D99279093200C80931F0C87EF90E0C1
:1040C00043C08436910578F268EE73E00E94663E44
:1040D00064E670E00E94663EFB01E25FF34F83817D
:1040E00090E0E8CFE034FC49D8F0883E33E0930715
:1040F00048F068EE73E00E94663EFB01E25FF34F1A
:10410000838102C08091110C90E09093200C8093E9
:104110001F0C80911F0C9091200C8F7D99270EC051
:10412000883E33E0930708F49ECF68EE73E00E9468
:10413000663EFB01E25FF34F838190E09093200C99
:1041400080931F0C8BEF90E09093220C8093210CB6
:104150002F5F243018F420931C0C02C010921C0C0A
:104160008FE19CE00C94601FEEE0FCE0825F934FD7
:10417000DC0113968C9190E0928B818B748B638B16
:104180008FE19CE00C94601FEEE0FCE02FEF30E04C
:10419000281B390B328B218B748B638B8FE19CE056
:1041A0000C94601F87E290E09093200C80931F0C8A
:1041B0008FE19CE00C94601F80EF90E09093200CC6
:1041C00080931F0C8FE19CE00C94601FCF93DF93D2
:1041D00000D000D0CDB7DEB7BC01CE0101960E9461
:1041E000A029BE016F5F7F4F80913C0890913D08F0
:1041F0000E947512CE0101960E94DE2826960FB607
:10420000F894DEBF0FBECDBFDF91CF910895CF925E
:10421000DF92EF92FF920F931F93CF93DF93CDB76F
:10422000DEB72C970FB6F894DEBF0FBECDBF9091CE
:10423000400880914108992309F459C08F3FB1F497
:104240000E94E90F882309F4A4C165E776E0CE0156
:1042500001960E946829CE0101960E94E620CE01B7
:1042600001960E94DE281092400893C10E94E90F37
:10427000882309F48EC11092400862E676E0CE01F0
:1042800001960E946829CE0101960E94E620CE0187
:1042900001960E94DE28809142088F5F8093420839
:1042A0008B3008F45EC062E576E0CE0101960E9494
:1042B0006829CE0101960E94E620CE0101960E9457
:1042C000DE2840E052EC61E070E080913E08909181
:1042D0003F080E94820F80913E0890913F08DC01C8
:1042E000ED91FC910284F385E02D19953AC084305C
:1042F000E1F560E775E0CE0101960E94A929CE01A3
:1043000001960E94E620CE0101960E94DE2862EE10
:1043100073E080913E0890913F080E94BE298091F1
:104320003E0890913F08DC01ED91FC910284F385F9
:10433000E02D199564E670E080E090E00E94322B59
:1043400061E088E00E943E150E946C2B6093470854
:10435000709348088093490890934A0881E08093BD
:1043600040088FEF8093410814C18F3FA9F56FE794
:1043700075E089E59BE00E94B02866E376E0CE0117
:1043800001960E946829CE0101960E94E620CE0186
:1043900001960E94DE2840E052EC61E070E08091DE
:1043A0003E0890913F080E94820F6FE775E0809170
:1043B0003E0890913F080E94BE2980913E0890914E
:1043C0003F08DC01ED91FC910284F385E02D199505
:1043D00081E08093400870C4823039F10E946C2BD8
:1043E00000914F08109150082091510830915208C7
:1043F000DC01CB01801B910BA20BB30B89389341DD
:10440000A105B10508F024C40E946C2B00914F084F
:10441000109150082091510830915208601771078F
:104420008207930708F414C4B4C0809143089091A4
:1044300044082091450830914608821B930B8F77E2
:104440009927892B09F47FC08091450890914608EF
:1044500016E0189FF001199FF00D1124ED5AF74F47
:1044600084819581892B09F45AC0809145089091E7
:104470004608189FB001199F700D11246D5A774F8F
:1044800080913E0890913F080E94D22980913E0879
:1044900090913F08DC01ED91FC910284F385E02DC1
:1044A0001995E0904508F090460868E875E0CE015F
:1044B00001960E94A9291E9DB0011F9D700D112417
:1044C0006D5A774FCE0101960E947C28BC01CE0127
:1044D00007960E94A029CE0107960E94E620CE01F1
:1044E00007960E94DE28CE0101960E94DE2881E018
:1044F000809340080E946C2B609347087093480893
:104500008093490890934A080E946C2B60934B0853
:1045100070934C0880934D0890934E080EC06FE046
:1045200076E0CE0101960E946829CE0101960E9494
:10453000E620CE0101960E94DE2860E975E089E55B
:104540009BE00E94B0280E946C2B00914B081091B8
:104550004C0820914D0830914E08DC01CB01801BA6
:10456000910BA20BB30B89389341A105B10508F05B
:10457000AEC30E946C2B00914B0810914C08209107
:104580004D0830914E08601771078207930708F4B1
:104590009EC380913E0890913F08DC01ED91FC9113
:1045A0000480F581E02D1995892B09F478C180915B
:1045B0003E0890913F08DC01ED91FC910680F78167
:1045C000E02D1995182F89831A8241E050E0BE0131
:1045D0006F5F7F4F83E59BE00E941C28109242088A
:1045E0001D3009F05CC165E975E0CE0107960E94B7
:1045F000A92963E57BE0CE0107960E947C28BC01D7
:10460000CE0101960E94A029CE0101960E94E620CB
:10461000CE0101960E94DE28CE0107960E94DE2878
:1046200080915D0B90915E0B892B79F160E975E0CB
:104630008091590B90915A0B0E940B41892B29F5BF
:104640008091530B9091540B009719F00E940C44E9
:1046500003C060E070E0CB0120914508309146082E
:10466000890120E030E0601771078207930709F0A5
:1046700010C1809145089091460801968F7799273F
:10468000909346088093450802C162EE73E0CE0124
:1046900001960E94A929CE0101960E94660F8C0105
:1046A000CE0101960E94DE280F3F1F4F79F164EF83
:1046B00076E0CE0101960E946829CE0101960E9403
:1046C000E620CE0101960E94DE2863EF76E0CE015F
:1046D00001960E946829CE0101960E94E620CE0133
:1046E00001960E94DE2880915D0B90915E0B892BD4
:1046F00009F4CDC06FE775E08091590B90915A0B8A
:104700000E940B41892B09F48FC0C1C06FEC75E08A
:10471000CE0101960E94A929CE0101960E94660F42
:104720008C01CE0101960E94DE280F3F1F4FF1F051
:104730006AED76E0CE0101960E946829CE010196CD
:104740000E94E620CE0101960E94DE2869ED76E007
:10475000CE0101960E946829CE0101960E94E620B2
:10476000CE0101960E94DE2882E08FC06EE975E0DE
:10477000CE0101960E94A929CE0101960E94660FE2
:104780008C01CE0101960E94DE280F3F1F4FF1F0F1
:1047900061EC76E0CE0101960E946829CE01019677
:1047A0000E94E620CE0101960E94DE2860EC76E0B1
:1047B000CE0101960E946829CE0101960E94E62052
:1047C000CE0101960E94DE2883E05FC06BEA72E0B2
:1047D000CE0101960E94A929CE0101960E94660F82
:1047E0008C01CE0101960E94DE280F3F1F4FF1F091
:1047F00067EA76E0CE0101960E946829CE01019613
:104800000E94E620CE0101960E94DE2866EA76E04C
:10481000CE0101960E946829CE0101960E94E620F1
:10482000CE0101960E94DE2881E02FC063EA75E088
:10483000CE0101960E94A929CE0101960E94660F21
:104840008C01CE0101960E94DE280F3F1F4F09F117
:104850006DE876E0CE0101960E946829CE010196AE
:104860000E94E620CE0101960E94DE286CE876E0E8
:10487000CE0101960E946829CE0101960E94E62091
:10488000CE0101960E94DE2884E0809341081092B8
:10489000400864E874E083E59BE00E94B0280E9431
:1048A0008A06209105023091060280912508909198
:1048B00026088217930709F469C08091040221FD3C
:1048C00006C0882309F458C068E577E019C020FDC8
:1048D00006C0882309F450C062E477E011C025FDCA
:1048E00006C0882309F448C068E377E009C0A9013D
:1048F00040745570452BA1F48823F1F16EE277E006
:10490000CE0101960E94682960E0CE0101960E94C6
:104910000817CE0101960E94DE28109204022CC0D6
:10492000A90140785A70452B29F4882329F164E2C3
:1049300077E0E6CF22FD05C08823F1F06AE177E059
:10494000DFCF23FD05C08823B9F060E177E0D8CF41
:10495000813091F06AE077E0CE0101960E946829EB
:1049600060E0CE0101960E940817CE0101960E94D8
:10497000DE2881E0809304020E94441680910502A3
:104980009091060290932608809325080E941A0BA6
:104990000E94560B8091EA05882329F10E946C2B16
:1049A000609328087093290880932A0890932B0815
:1049B00080912708811115C062E677E0CE0101964B
:1049C0000E946829CE0101960E94B22ACE0101966A
:1049D0000E94DE2861E08EE20E943E1581E0809315
:1049E00027081092EA05809127088823D9F10E94B0
:1049F0006C2BC0902808D0902908E0902A08F090ED
:104A00002B08DC01CB018C199D09AE09BF0989383F
:104A10009341A105B105A8F068E072E0CE010196CE
:104A20000E946829CE0101960E94B22ACE01019609
:104A30000E94DE2860E08EE20E943E151092270858
:104A400011C00E946C2B6C157D058E059F0550F4DE
:104A50000E946C2B609328087093290880932A0881
:104A600090932B0880913B08882321F00E94BF0778
:104A700010923B0880913A08882309F466C080911F
:104A8000000C811160C08091080C882309F45BC080
:104A90008091060C8F5F8093060C823008F453C01F
:104AA00082E090E090934C0C80934B0C10924D0C54
:104AB00081E090E090934F0C80934E0C85EE90E057
:104AC0009093510C8093500C88E180935A0C0E9473
:104AD000AB1E81E08093860C85E00E94651E8823D2
:104AE00081F10E94AC1DF12CE12C0F2D1E2D809127
:104AF000410C9091420CDC01ED91FC910480F58118
:104B0000E02D1995892B41F00031110509F015C1EF
:104B100090E1F92EE12C02C0F02EE12E0E94B71D8B
:104B2000882309F405C169EA75E0CE0101960E9467
:104B3000A929CE0101960E948B1DCE0101960E94EB
:104B4000DE280E949C1A10923A0880913908882326
:104B500099F08CE00E94151561E0892B09F060E066
:104B60008CE00E943E158CE00E941515682F8DE0A8
:104B70000E943E15109239088091380881111092D8
:104B800038080E946C2B609334087093350880932A
:104B9000360890933708C0903008D0903108E090E4
:104BA0003208F09033088B019C010C191D092E0965
:104BB0003F090230110521053105D8F120912F0858
:104BC0002C19260F20932F0860933008709331081A
:104BD00080933208909333082A3008F41FC1109252
:104BE0002F0890912E089F5F90932E0881E080936C
:104BF0003B089A3008F412C110922E0890912D08AB
:104C00009F5F90932D0880933A08953008F406C171
:104C100010922D0890912C089F5F90932C08809300
:104C20003908923008F4FAC010922C0880933808A2
:104C3000F5C06C157D058E059F0508F0EFC06093EB
:104C40003008709331088093320890933308E6C09F
:104C50006CEC75E089E59BE00E94B0286FE176E09E
:104C6000CE0101960E946829CE0101960E94E6209D
:104C7000CE0101960E94DE286CEC75E080913E0822
:104C800090913F080E94BE2980913E0890913F0874
:104C9000DC01ED91FC910284F385E02D199581E012
:104CA000809340080E946C2B60934F0870935008CB
:104CB00080935108909352080E946C2B6093470890
:104CC000709348088093490890934A0862CC6CEC32
:104CD00075E089E59BE00E94B0286CEC75E080915E
:104CE0003E0890913F080E94BE2980913E08909115
:104CF0003F08DC01ED91FC910284F385E02D1995CC
:104D000081E0809340080E946C2B60934708709369
:104D100048088093490890934A080E946C2B60933E
:104D20004B0870934C0880934D0890934E0831CCFB
:104D30000031110509F0D9CE14C08091410C909139
:104D4000420CDC01ED91FC910680F781E02D199574
:104D5000F801E15CF34F87A30F5F1F4F0E94AC1D6A
:104D6000C6CE80916A0C2091870C90E0821B91093D
:104D70000297C4F0F0906A0CF21AEF2DEE0F00E0EB
:104D800010E08EEFE82EEE0EFF2081F1ED5FF0E0F7
:104D9000E15CF34F87A10E94661C080F191FFA946B
:104DA000EE2DEFCF80916B0C882351F080916A0C2F
:104DB0002817D1F080916B0C0E94661C8C0116C0E4
:104DC00080916A0C281310C080916C0C8E3051F4C5
:104DD0008091890C8F5F8093890C853128F0109227
:104DE000890C17C01092890C00E010E080916A0CC9
:104DF0008093870C0F3F69F08091FB0B9091FC0B27
:104E0000800F911D07FD9A959093FC0B8093FB0BEF
:104E100002C00E949C1A1092060C95CE2C960FB6DA
:104E2000F894DEBF0FBECDBFDF91CF911F910F91E0
:104E3000FF90EF90DF90CF9008950F931F93CF9343
:104E4000DF93EC010E946C2B009121081091220845
:104E50002091230830912408DC01CB01801B910BA9
:104E6000A20BB30B8D329140A105B105C8F0809122
:104E70002008811107C0CE010E94D90581E08093EE
:104E8000200804C00E94CA05109220080E946C2BC2
:104E9000609321087093220880932308909324083C
:104EA0000E946C2B00912108109122082091230868
:104EB00030912408601771078207930750F40E940D
:104EC0006C2B6093210870932208809323089093A1
:104ED0002408DF91CF911F910F9108950895CF92EB
:104EE000DF92EF92FF920F931F93CF93DF936C01AA
:104EF0007A018B01C0E0D0E0CE15DF0589F0D80142
:104F00006D918D01D601ED91FC910190F081E02D24
:104F1000C6011995892B11F47E0102C02196ECCFB0
:104F2000C701DF91CF911F910F91FF90EF90DF901C
:104F3000CF9008950E94FD406115710579F0FB0145
:104F400001900020E9F73197AF01461B570BDC01B8
:104F5000ED91FC910280F381E02D199480E090E0C6
:104F600008950F931F93CF93DF93EC01888199816C
:104F7000009729F02A813B812617370788F48B0197
:104F80006F5F7F4F0E941440009761F09983888380
:104F90001B830A832C813D81232B11F4FC01108299
:104FA00081E001C080E0DF91CF911F910F910895C2
:104FB00086EE96E00E940C0E21E0892B09F420E099
:104FC000822F089583E897E00E940C0E21E0892B40
:104FD00009F420E0822F0895EF92FF920F931F9320
:104FE000CF93DF936115710511F480E01EC08B0132
:104FF000EC01CB010E943A440097B1F02C813D8135
:105000007C01E20EF31EB701CE010E94B127882376
:1050100061F3288139818C819D81B801820F931FB2
:105020000E943344FD82EC8281E0DF91CF911F9199
:105030000F91FF90EF900895EF92FF920F931F93BF
:10504000CF93DF93FC01248135816115710511F443
:1050500080E019C041155105A9F07B01EC018A01DE
:10506000020F131FB8010E94B127882389F32881FA
:1050700039818C819D81B701820F931F0E94144159
:105080001D830C8381E0DF91CF911F910F91FF90E1
:10509000EF900895FB0144815581608171810C94EA
:1050A0001C28CF93DF93EC0188819981009711F040
:1050B0000E947C3F198218821D821C821B821A82E8
:1050C000DF91CF910895CF93DF93EC0161157105C6
:1050D00061F0FB0101900020E9F73197AF01461B19
:1050E000570B0E941C28811103C0CE010E94512839
:1050F000CE01DF91CF910895CF93DF93EC01FB01B7
:1051000044815581608171810E941C28811103C0F6
:10511000CE010E945128CE01DF91CF910895EF92E8
:10512000FF920F931F93CF93DF93EC017B018A01D2
:10513000BA010E94B127811104C0CE010E945128FA
:1051400007C01D830C83B701888199810E94144197
:10515000CE01DF91CF911F910F91FF90EF900895B5
:10516000CF93DF93EC016115710559F0FB010190BC
:105170000020E9F73197AF01461B570B0E948F289B
:1051800002C00E945128CE01DF91CF910895CF93A4
:10519000DF93EC01FB018617970761F06081718155
:1051A0006115710529F0448155810E948F2802C044
:1051B0000E945128CE01DF91CF910895FC0180819A
:1051C00091810C947C3F0F931F93CF93DF93CDB7C6
:1051D000DEB761970FB6F894DEBF0FBECDBF8C016E
:1051E000CB01F8011182108213821282158214827F
:1051F00050E0BE016F5F7F4F0E946E44BE016F5F43
:105200007F4FC8010E94B02861960FB6F894DEBFA8
:105210000FBECDBFDF91CF911F910F9108950F93D6
:105220001F93CF93DF93CDB7DEB762970FB6F89495
:10523000DEBF0FBECDBF8C01CB01F8011182108201
:10524000138212821582148250E0BE016F5F7F4F7D
:105250000E944344BE016F5F7F4FC8010E94B02887
:1052600062960FB6F894DEBF0FBECDBFDF91CF912F
:105270001F910F9108950F931F93CF93DF93CDB795
:10528000DEB729970FB6F894DEBF0FBECDBF8C01F5
:10529000862FF801118210821382128215821482E5
:1052A00050E0BE016F5F7F4F90E00E946E44BE01F0
:1052B0006F5F7F4FC8010E94B02829960FB6F894FF
:1052C000DEBF0FBECDBFDF91CF911F910F9108952B
:1052D000EF92FF920F931F93CF93DF93EC0119820C
:1052E00018821B821A821D821C826115710509F1C8
:1052F0008B01CB010E943A447C01BC01CE010E948B
:10530000B127811109C0CE01DF91CF911F910F917B
:10531000FF90EF900C945128FD82EC82B8018881B7
:105320009981DF91CF911F910F91FF90EF900C9495
:105330003344DF91CF911F910F91FF90EF9008952B
:10534000FC011182108213821282158214820C9445
:10535000C728FC01118210821382128215821482E6
:105360006115710551F0FB0101900020E9F73197BB
:10537000AF01461B570B0C948F2808950F931F9372
:10538000CF93DF93EC010E949C278C0162E874E0CC
:10539000CE010E949C27800F911FDF91CF911F911A
:1053A0000F9108950F931F93CF93DF93EC01E88142
:1053B000F981DB0114964D915C9115976D917C916B
:1053C0000280F381E02D19958C0162E874E0CE0132
:1053D0000E949C27800F911FDF91CF911F910F9109
:1053E00008951F920F920FB60F9211240BB60F92D1
:1053F0002F933F934F935F936F937F938F939F93DD
:10540000AF93BF93EF93FF9386EE96E00E946114F3
:10541000FF91EF91BF91AF919F918F917F916F918C
:105420005F914F913F912F910F900BBE0F900FBE48
:105430000F901F9018951F920F920FB60F92112484
:105440000BB60F922F933F934F935F936F937F937E
:105450008F939F93AF93BF93EF93FF9383E897E06E
:105460000E946114FF91EF91BF91AF919F918F9135
:105470007F916F915F914F913F912F910F900BBE54
:105480000F900FBE0F901F901895FC01A089B18955
:105490008C91A689B78982FD0FC09C91818D8F5F09
:1054A0008F73228D821749F0218DDF01A20FB11D6C
:1054B0005D969C93818F08958C9108951F920F9211
:1054C0000FB60F9211240BB60F922F933F934F9369
:1054D0005F936F937F938F939F93AF93BF93EF935C
:1054E000FF9386EE96E00E94452AFF91EF91BF91CF
:1054F000AF919F918F917F916F915F914F913F916C
:105500002F910F900BBE0F900FBE0F901F9018950C
:105510001F920F920FB60F9211240BB60F922F937A
:105520003F934F935F936F937F938F939F93AF932B
:10553000BF93EF93FF9383E897E00E94452AFF9182
:10554000EF91BF91AF919F918F917F916F915F91FB
:105550004F913F912F910F900BBE0F900FBE0F9068
:105560001F901895CF93DF9300D000D0CDB7DEB752
:10557000BC01CE0101960E94A029BE016F5F7F4F42
:105580008BE29CE00E947512CE0101960E94DE28FB
:1055900026960FB6F894DEBF0FBECDBFDF91CF9138
:1055A00008953FB7F8948091920C9091930CA0913C
:1055B000940CB091950C26B5A89B05C02F3F19F00F
:1055C0000196A11DB11D3FBFBA2FA92F982F882783
:1055D000820F911DA11DB11DBC01CD0142E0660FDE
:1055E000771F881F991F4A95D1F70895CF93DF93AE
:1055F00090E0FC01E45DFA4F2491FC01EA51FB4F7D
:105600008491882361F190E0880F991FFC01EA588A
:10561000F84FC591D491FC01EE54FB4FA591B49184
:10562000611109C09FB7F8948881209582238883EF
:10563000EC912E230BC0623061F49FB7F89438814F
:10564000822F809583238883EC912E2B2C939FBFF0
:1056500006C08FB7F894E8812E2B28838FBFDF9187
:10566000CF9108958F929F92AF92BF92CF92DF9287
:10567000EF92FF926B017C010E94D12A4B015C01E9
:10568000C114D104E104F104F1F00E94D12ADC013B
:10569000CB0188199909AA09BB09883E9340A10545
:1056A000B10570F321E0C21AD108E108F10888EED3
:1056B000880E83E0981EA11CB11CC114D104E10422
:1056C000F10419F7DDCFFF90EF90DF90CF90BF90FE
:1056D000AF909F908F9008952FB7F89460918E0CA3
:1056E00070918F0C8091900C9091910C2FBF089528
:1056F0001F920F920FB60F9211242F933F938F9307
:105700009F93AF93BF9380918E0C90918F0CA0913B
:10571000900CB091910C30918D0C23E0230F2D371C
:1057200020F40196A11DB11D05C026E8230F0296A5
:10573000A11DB11D20938D0C80938E0C90938F0C26
:10574000A093900CB093910C8091920C9091930C3B
:10575000A091940CB091950C0196A11DB11D809360
:10576000920C9093930CA093940CB093950CBF91D2
:10577000AF919F918F913F912F910F900FBE0F90FE
:105780001F901895CF93DF93CDB7DEB7CE55D109D3
:105790000FB6F894DEBF0FBECDBF789484B582609B
:1057A00084BD84B5816084BD85B5826085BD85B5C5
:1057B000816085BD80916E00816080936E00109243
:1057C00081008091810082608093810080918100BE
:1057D000816080938100809180008160809380004F
:1057E0008091B10084608093B1008091B0008160AD
:1057F0008093B000809191008260809391008091AD
:1058000091008160809391008091900081608093ED
:1058100090008091A10082608093A1008091A100FE
:1058200081608093A1008091A00081608093A0009E
:10583000809121018260809321018091210181600A
:1058400080932101809120018160809320018091CB
:105850007A00846080937A0080917A0082608093DD
:105860007A0080917A00816080937A0080917A003A
:10587000806880937A001092C10040912F0C509163
:10588000300C6091310C7091320C80912B0C909106
:105890002C0C0E94820F80E1809381001092800086
:1058A000FF24F394F092090620E03DE730930806C8
:1058B00020930706309387002093860091E1909310
:1058C00081002DEF33E030932D0620932C06F092CB
:1058D0006F00809381006EE772E08E010F5F1F4FB3
:1058E000C8010E946829C8010E94B22AC8010E940A
:1058F000DE2861E08DE20E94F62A61E08BE20E94E0
:10590000F62A61E089E20E94F62A61E081E20E94C3
:10591000F62A61E084E30E94F62A61E083E30E94B4
:10592000F62A61E08FE20E94F62A61E08AE20E9494
:10593000F62A61E08BE00E94F62A61E08AE00E948C
:10594000F62A61E089E00E94F62A61E08CE20E947A
:10595000F62A61E08EE20E94F62A61E08CE00E9465
:10596000F62A61E08DE00E94F62A61E088E00E945C
:10597000F62A61E086E00E94F62A61E087E00E9454
:10598000F62A61E085E00E94F62A60E083E00E944A
:10599000F62A60E084E00E94F62A60E088E00E9437
:1059A0003E1560E08DE00E943E1560E086E00E94BA
:1059B0003E1560E087E00E943E1560E085E00E94B1
:1059C0003E1561E08DE20E943E1561E08BE20E948F
:1059D0003E1561E089E20E943E1560E081E20E948E
:1059E0003E1561E084E30E943E1561E083E30E947E
:1059F0003E1561E08FE20E943E1560E08AE20E945F
:105A00003E1560E08BE00E943E1560E08AE00E9457
:105A10003E1560E089E00E943E1560E08CE20E9445
:105A20003E1560E08EE20E943E1560E08CE00E9430
:105A30003E1560E08FE10E94F62A60E087E20E9456
:105A4000F62A60E085E20E94F62A60E083E20E9486
:105A5000F62A60E08BE10E94F62A60E089E10E946C
:105A6000F62A60E087E10E94F62A60E08FE00E945B
:105A7000F62A60E08DE10E94F62A60E082E30E944F
:105A8000F62A60E085E30E94F62A60E081E30E9446
:105A9000F62AF09208020E94130C60E081E090E088
:105AA0000E94970560E082E090E00E94970560E028
:105AB00083E090E00E94970568E072E0C8010E94D0
:105AC0006829C8010E94B22AC8010E94DE2860E04D
:105AD0008EE20E943E1580E00E944B0661E08091BC
