:100000000C94CB030C94FC030C94FC030C94FC03A5
:100010000C94FC030C94FC030C94FC030C94FC0364
:100020000C94FC030C94FC030C94FC030C94FC0354
:100030000C94FC030C94FC030C94FC030C94FC0344
:100040000C94FC030C94FC030C94FC030C94FC0334
:100050000C9446250C94FC030C94FC030C949228FD
:100060000C94FC030C94F62B0C94892B0C94FC033D
:100070000C94FC030C94FC030C94FC030C94FC0304
:100080000C94FC030C94FC030C94FC030C94FC03F4
:100090000C94FC030C94FC030C94FC030C94FC03E4
:1000A0000C94FC030C94FC030C94FC030C94FC03D4
:1000B0000C94FC030C94FC030C94FC030C94FC03C4
:1000C0000C94FC030C94FC030C94FC030C94ED24A2
:1000D0000C9492250C94FC030C94CC2B0C945F2B69
:1000E0000C94FC03460449044C04550458045B0476
:1000F0005E046104950498049B049E04A104A40476
:10010000A704B004B904C204C504C804832383232C
:10011000942394239423A523A523B623562459245A
:1001200048244C24522490245D24612467246B24A9
:100130006F24752479247D249024832487248B24A0
:100140000C9467240C9456240C94A4040C9452240C
:100150000C944D3E0C94A5230C9461040C944C24F7
:100160000C9403260C94B0040C94DD280C949E048B
:100170000C9449040C94BC250C9455040C948324D1
:100180000C9458040C9498040C94A7040C94C80480
:100190000C948B240C947D240C94E6230C945D2405
:1001A0000C9448240C9450390C9479240C949504A4
:1001B0000C9487240C946F240C94D2230C944C043C
:1001C0000C94A1040C94B9040C9494230C948323F0
:1001D0000C94FE030C945B040C946B240C94C204EA
:1001E0000C945E040C94F4230C9490240C94C50499
:1001F0000C9459240C94B6230C9446040C949B0440
:100200000C9475240C9461244C4544204375702053
:1002100048616E646C65202D204F46460072656112
:1002200064206565702E2063757020737461636B44
:10023000657220706F732E203D20004F4B00437578
:100240007020737461636B6572203E3E204F4B00DB
:10025000454D5054590043757020737461636B654C
:1002600072203E3E20456D707479004F4646004F27
:100270004E004F4B00504F574552204F4E00232306
:1002800023206D696E69436F66666565204861630A
:100290006B20762E323034203E3E205374617274CF
:1002A0002E2E2E2E007772697465206565702E20C3
:1002B0006974656D5F70726963655B004F72646538
:1002C00072204E6F2E2069732057726F6E67202147
:1002D00021006D616B655369676E616C546F436F8C
:1002E000696E203E3E20556E73756363657373209F
:1002F0002121004F72646572205061796F757420FE
:100300003E3E204F4B004F72646572205061796F02
:100310007574203E3E2054696D656F757400200031
:10032000554E53554343455353005472616E7361A8
:100330006374696F6E203E3E20554E5355434345CE
:100340005353200053554343455353005472616E39
:1003500073616374696F6E203E3E2053554343457D
:1003600053532000454D5054590043757020737409
:1003700061636B6572203E3E20456D707479004F5D
:100380004B0043757020737461636B6572203E3E51
:10039000204F4B004F4E00426F696C6572203E3E0D
:1003A00020506F776572204F4E004F464600426FD7
:1003B000696C6572203E3E20506F776572204F4613
:1003C00046004C4F57005761746572204C65766546
:1003D0006C203E3E204C4F57004F4B0057617465D8
:1003E00072204C6576656C203E3E204F4B004F4698
:1003F000460050756D70203E3E20436C6F73650063
:100400004552524F520050756D70203E3E2045724D
:10041000726F72004F4E0050756D70203E3E204F3F
:1004200070656E007772697465206565702E206353
:10043000757020737461636B657220706F732E200A
:100440003D200072656164206565702E20697465C9
:100450006D5F70726963655B00300030300045008D
:100460004F4B004F50454E00434C4F534500536592
:10047000742050756D702031202D204F4E00536533
:10048000742050756D702031202D204F464600732A
:1004900065744C45444974656D53656C656374506F
:1004A0007772203E3E204E6F7420666F756E64201A
:1004B000212100434354414C4B00434C4F5544428F
:1004C0004F5800434354414C4B2D444556494345F6
:1004D0000064617461203E3E20656D707479212155
:1004E00000436865636B20436C6F7564426F7820CE
:1004F0005265616479203F00436865636B20436CFB
:100500006F7564426F7820436F6E6E656374696FB8
:100510006E203F00526573657420436F6D706F727B
:1005200074212100526573706F6E73652054696D7C
:10053000656F757421210053746174652072657450
:1005400075726E2054696D656F75742121000043CA
:100550006C6F7564426F782052657475726E203EC0
:100560003E2052455345540000436C6F7564426F02
:10057000782052657475726E203E3E204552524F6F
:10058000520000436C6F7564426F78205265747539
:10059000726E203C3C20425553590000436C6F75ED
:1005A00064426F782052657475726E203C3C205214
:1005B000656164790000436C6F7564426F78205206
:1005C000657475726E203C3C204F4B00524541448F
:1005D00059004E4F54205245414459004E4F54202B
:1005E0005245414459004E4F542052454144590010
:1005F0004E4F54205245414459004E4F54205245CD
:10060000414459004E4F54205245414459202D2019
:100610004F5045524154494E47004E4F5420524589
:10062000414459004C4544204375702048616E6434
:100630006C65202D204F4E002D002D002D002D002B
:100640002D002D002D002D002D002D002D002D0042
:100650002D003D003A0043422B53455440002300F7
:100660000043422B555000230000000021002400CD
:1006700027002A002D003000330001010000040192
:1006800007010A0100002200250028002B002E008F
:100690003100340002010000050108010B010000D7
:1006A00020002300260029002C002F00320000012A
:1006B00000000301060109010505050507050808F5
:1006C0000808020202020A0A0808040404040101DC
:1006D00001010101010103030303030303030407F1
:1006E00007070C0C0C0C0C0C0C0C02020202060688
:1006F0000606060606060B0B0B0B0B0B0B0B01027B
:100700001020200808102040102040800201020123
:1007100008040201010204081020408080402010DB
:100720000804020180040201804020100804020134
:10073000080402010102040810204080010204089C
:100740001020408000000A0B02090C0D0E08070360
:100750000401000000000000000000000000000094
:100760000000000000000000000000000000000089
:100770001211100000000000000000000000000046
:10078000000000000000000000003000003A003AC5
:10079000000050394D3E11241FBECFEFD1E2DEBF25
:1007A000CDBF00E00CBF16E0A0E0B2E0EEEAFCE84E
:1007B00000E00BBF02C007900D92AC31B107D9F732
:1007C0002CE0ACE1B6E001C01D92A23EB207E1F719
:1007D00013E0CAECD3E000E006C021970109802FA6
:1007E000FE010E94413FC93CD10780E00807A9F7FC
:1007F0000E943F2C0C9445460C940000CF938091AE
:100800000802833009F4E3C034F4813059F08230B7
:1008100009F470C082C1843009F4F2C0853009F453
:1008200046C17BC12091330680914B0690914C06C6
:10083000222389F02091310630913206281739079A
:1008400028F0A901481B590BCA0102C080E090E0C2
:10085000CF910C94A10F0097D9F78091740C9091CF
:10086000750C01979093750C8093740C892B09F08B
:1008700054C180916C0C90E08830910550F5FC01DA
:100880008827EE58FF4F8F4F0C94413F8BEF90E03D
:1008900005C087EF90E017C08FEE90E09093730C47
:1008A0008093720C0E94CE1014C08DEF90E00BC0AC
:1008B0008DEF90E0F3CF8FEE90E005C087EF90E0F2
:1008C000EDCF8BEF90E09093730C8093720C0E94AD
:1008D0008F1E80916C0C8F5F883018F480936C0CA5
:1008E00002C010926C0C86E990E09093750C809396
:1008F000740C13C18091760C9091770C01979093B2
:10090000770C8093760C892B09F007C190916F0CBE
:10091000492F50E04C30510508F046C0FA018827B5
:10092000E658FF4F8F4F0C94413F2EEF30E032C01E
:100930002EEF30E020C02EEF30E014C02EEF30E07C
:1009400008C02BEF30E005C02FEE30E002C02FEBE7
:1009500030E03093710C2093700C2DEF30E020C00C
:100960002FEB30E03093710C2093700C2FEE30E0C1
:1009700017C02FEB30E03093710C2093700C27EFF1
:1009800030E00EC02FEB30E005C02FE730E002C0B2
:100990002DEF30E03093710C2093700C2BEF30E092
:1009A0003093730C2093720C24E130E03093770C79
:1009B0002093760C9F5F9C3018F490936F0C02C0CC
:1009C00010926F0C80E79CE0CF910C945C0FC0916B
:1009D0006E06C13059F008F474C0C23061F0C33003
:1009E00011F56DEF70E08BE590E01BC067EF70E0F4
:1009F00082EC90E016C06FEE70E087ED90E011C0E1
:100A00008091500C882309F44DC0082E000C990BDE
:100A1000C0916E06C130A9F078F46BEF70E08BECFA
:100A200090E00E94C010CF5FC0936E06C43008F4FF
:100A300074C010926E0671C0C23041F0C330E1F054
:100A4000F2CF67EF70E083EE90E0EBCF8F3F5FEF88
:100A5000950709F440C0843691051CF06FEE70E0F4
:100A600017C08A309105BCF16AE070E00E940B3F2C
:100A7000CB016FEE70E033C08F3F2FEF920719F478
:100A80006DEF70E02AC0843691052CF06DEF70E0B8
:100A900089E090E024C06AE070E00E940B3F6DEFB7
:100AA00070E01DC080914A068093080236C0C09154
:100AB0006E06C13059F028F0C23069F0C33091F0B1
:100AC000B2CF6BEF70E083EC90E0ABCF67EF70E0FC
:100AD00088E090E0A6CF6FEE70E080E090E00E94AA
:100AE000B010A1CF8091050283FD05C06DEF70E0CD
:100AF00081E090E0F4CF82FD05C06DEF70E082E010
:100B000090E0EDCF84FD05C06DEF70E083E090E0F4
:100B1000E6CF81E08093080286CFCF91089583E0ED
:100B20000E94252621E0892B09F020E0822F0895DC
:100B3000CF93DF9300D000D0CDB7DEB7FC01EC5DE2
:100B4000F94F2081261360838230910539F083307C
:100B5000910531F0019741F484E303C083E301C0C0
:100B60008FE20E944E260EC06FE874E0CE0101961F
:100B70000E94D62ACE0101960E94202CCE01019619
:100B80000E944C2A26960FB6F894DEBF0FBECDBF4A
:100B9000DF91CF91089560E081E090E00E94980598
:100BA00060E082E090E00E94980560E083E090E0E1
:100BB0000C9498050F931F93CF93DF938C01C1E0A2
:100BC000D0E0C017D10711F461E001C060E0CE01B0
:100BD0000E9498052196C430D10599F7DF91CF91F5
:100BE0001F910F9108950F931F93CF93DF93EC0103
:100BF0000E94F426009170061091710620917206F1
:100C000030917306DC01CB01801B910BA20BB30B5F
:100C10008D329140A105B105C8F080916F06811118
:100C200007C0CE010E94DA0581E080936F0604C000
:100C30000E94CB0510926F060E94F4266093700606
:100C40007093710680937206909373060E94F42647
:100C50000091700610917106209172063091730612
:100C6000601771078207930750F40E94F42660937F
:100C70007006709371068093720690937306DF91ED
:100C8000CF911F910F910895E1E8F0E0908180915C
:100C90006F08892B8083089510920802E1E8F0E044
:100CA0008081887F80830895CF92DF92EF92FF92B8
:100CB0000F931F936B017C010E94F42600912C0678
:100CC00010912D0620912E0630912F066017710786
:100CD0008207930750F40E94F42660932C067093C9
:100CE0002D0680932E0690932F060E94F4260091E5
:100CF0002C0610912D0620912E0630912F06AB0167
:100D0000BC01401B510B620B730B81E0C416D5066E
:100D1000E606F70608F080E01F910F91FF90EF9034
:100D2000DF90CF900895E8E3F6E0118212821382FB
:100D30001092330610924406109232061092310639
:100D4000EFE5FCE0158686E990E0968B858B108AAE
:100D500084E190E0908F878B08951F93CF93DF936A
:100D600000D000D0CDB7DEB7182F8CE20E94252628
:100D700021E0892B09F420E0121721F1112381F0E1
:100D80006EE674E0CE0101960E94D62ACE0101964D
:100D90000E94202CCE0101960E944C2A61E00FC0D7
:100DA0006EE774E0CE0101960E94D62ACE0101962C
:100DB0000E94202CCE0101960E944C2A60E08CE219
:100DC0000E944E2626960FB6F894DEBF0FBECDBF0A
:100DD000DF91CF911F9108958F929F92AF92BF9212
:100DE000EF92FF921F93CF93DF9300D000D0CDB747
:100DF000DEB780E30E94252611E0892B09F410E07C
:100E000080916D06181761F00E94F42660936906C0
:100E100070936A0680936B0690936C0610936D0630
:100E20000E94F4268090690690906A06A0906B0656
:100E3000B0906C06DC01CB0188199909AA09BB099D
:100E4000893E9340A105B10558F40E94F426681527
:100E500079058A059B0520F080910C02882389F191
:100E60002091050230910602812F90E021FBEE24B3
:100E7000E0F8F12C8E159F0521F480910C02882357
:100E800001F1112311F0226001C02D7F3093060281
:100E9000209305028091050281FF03C068E674E09B
:100EA00002C063E674E0CE0101960E94D62ACE010C
:100EB00001960E943623CE0101960E944C2A109280
:100EC0000C02812F26960FB6F894DEBF0FBECDBF61
:100ED000DF91CF911F91FF90EF90BF90AF909F90C7
:100EE0008F9008951F93CF93DF93CDB7DEB76897A8
:100EF0000FB6F894DEBF0FBECDBF1091500C11118C
:100F000018C060E674E0CE0101960E94D62ACE0198
:100F100001960E94FC22CE0101960E944C2A8091EB
:100F2000050290910602806290930602809305026A
:100F30007EC06EE574E0CE0101960E94D62A1F3F66
:100F400029F5BE016F5F7F4FCE0107960E940E2BE1
:100F50006BE574E0CE0107960E945A29811104C006
:100F6000CE0107960E94BF29BE01695F7F4FCE0167
:100F70000D960E940E2BCE010D960E94FC22CE01F2
:100F80000D960E944C2ACE01079642C0612F012E79
:100F9000000C770B4AE0CE010D961A30B4F40E9493
:100FA0007D2ABE016F5F7F4FCE0107960E940E2BF8
:100FB00069E574E0CE0107960E945A2981110EC09E
:100FC000CE0107960E94BF2909C00E947D2ABE015A
:100FD0006F5F7F4FCE0107960E940E2BBE01635FAD
:100FE0007F4FCE0107960E94EA29BC01CE014396AD
:100FF0000E940E2BCE0143960E94FC22CE01439606
:101000000E944C2ACE0107960E944C2ACE010D96D2
:101010000E944C2A80910502909106028F7D909348
:10102000060280930502CE0101960E944C2A689622
:101030000FB6F894DEBF0FBECDBFDF91CF911F91E9
:1010400008955F926F927F928F929F92AF92BF921C
:10105000CF92DF92EF92FF920F931F93CF93DF9384
:10106000CDB7DEB7A0970FB6F894DEBF0FBECDBFE9
:1010700066246394712C552453948E010F5F1F4F87
:1010800096E4E92E93E0F92E22E3C22E23E0D22E3D
:1010900082E0681629F093E0691621F082E303C02C
:1010A00085E301C081E30E94252621E0892B09F414
:1010B00020E0F301EC5CF94F4F012083C301885D10
:1010C000994F5C01FC0180818217E9F0211109C070
:1010D000F301E85CF94F50827F926F92DF92CF92DA
:1010E00004C07F926F92FF92EF921F930F930E9422
:1010F000C6410F900F900F900F900F900F90F4013A
:101100008081F5018083FFEF6F1A7F0A84E0681603
:10111000710409F0BDCFA0960FB6F894DEBF0FBEE4
:10112000CDBFDF91CF911F910F91FF90EF90DF9096
:10113000CF90BF90AF909F908F907F906F905F9077
:101140000895CF93DF93CDB7DEB768970FB6F894C5
:10115000DEBF0FBECDBF64E274E0CE0101960E94F7
:10116000D62A6091490680E190E00E9437466AE005
:1011700070E080E090E00E94BA2660914906062E59
:10118000000C770B4AE0CE010D960E947D2ABE012D
:101190006F5F7F4FCE0107960E940E2BBE01635FEB
:1011A0007F4FCE0107960E94EA29BC01CE014396EB
:1011B0000E940E2BCE0143960E94202CCE01439616
:1011C0000E944C2ACE0107960E944C2ACE010D9611
:1011D0000E944C2ACE0101960E944C2A68960FB6B6
:1011E000F894DEBF0FBECDBFDF91CF910895ECE341
:1011F000F6E082819381883E934010F01382128240
:10120000329686E0E234F807A1F708958F929F9214
:10121000AF92BF92CF92DF92EF92FF921F93CF9344
:10122000DF93CDB7DEB762970FB6F894DEBF0FBE7F
:10123000CDBF8EE3A82E86E0B82E96E4E92E96E088
:10124000F92E11E02AE0C22ED12CC6010E942F46B1
:10125000982EC60101960E942F46292D30E0A90143
:10126000582BCA014501F5015183408320910502A5
:1012700030910602F701892BD9F480818068808340
:10128000123039F0133071F02F7B30930602209327
:10129000050280910502909106029E7F90930602BE
:1012A0008093050280910502909106029B7F1AC0EF
:1012B00080818F778083123039F0133071F0206491
:1012C0003093060220930502809105029091060258
:1012D000916090930602809305028091050290919F
:1012E0000602946090930602809305020E94F7081C
:1012F00063E474E0CE010D960E94D62A4AE0612F85
:10130000CE0107960E94A92ABE01695F7F4FCE01D8
:1013100001960E940E2B6CE472E0CE0101960E94B1
:10132000D129BC01CE010D960E94B829CE010196AB
:101330000E944C2ACE0107960E944C2AF2E0AF0E82
:10134000B11CF401608171814AE0CE0101960E94D6
:10135000512ABE016F5F7F4FCE010D960E94B829C2
:10136000CE0101960E944C2ABE01635F7F4FCE01E1
:1013700001960E940E2BCE0101960E94202CCE01D8
:1013800001960E944C2ACE010D960E944C2AF2E052
:10139000CF0ED11C1F5F4FEFE41AF40A143009F08E
:1013A00054CF62960FB6F894DEBF0FBECDBFDF916B
:1013B000CF911F91FF90EF90DF90CF90BF90AF90B3
:1013C0009F908F90089585E30E94252621E0892B28
:1013D00009F420E0822F0895CF92DF92EF92FF92DE
:1013E000CF93DF9300D000D0CDB7DEB78091050258
:1013F00084FD34C08CE20E942526892B79F58091EA
:101400000B02882359F181E00E94AD0667E174E088
:10141000CE0101960E94D62ACE0101960E94202C70
:10142000CE0101960E944C2A64E174E0CE0101963F
:101430000E94D62A61E0CE0101960E945922CE0177
:1014400001960E944C2A0E94F426609365067093D0
:101450006606809367069093680682C08CE20E94BD
:101460002526892B09F47CC08091050284FD39C0B2
:101470000E94F426C0906506D0906606E09067064C
:10148000F0906806DC01CB018C199D09AE09BF09FB
:1014900089399A43A105B10508F462C080E00E9431
:1014A000AD0666E074E0CE0101960E94D62ACE0118
:1014B00001960E94202CCE0101960E944C2A60E0E9
:1014C00074E0CE0101960E94D62A61E0CE01019619
:1014D0000E945922CE0101960E944C2A10920B02C2
:1014E0003FC00E94F426C0906506D0906606E0904A
:1014F0006706F0906806DC01CB018C199D09AE09E6
:10150000BF0981349C49A105B10538F40E94F42635
:101510006C157D058E059F0518F580E00E94AD06CF
:1015200062EF73E0CE0101960E94D62ACE010196A9
:101530000E94202CCE0101960E944C2A6EEE73E090
:10154000CE0101960E94D62A61E0CE0101960E944A
:101550005922CE0101960E944C2A81E080930B0211
:1015600026960FB6F894DEBF0FBECDBFDF91CF91A8
:10157000FF90EF90DF90CF900895CF92DF92EF929F
:10158000FF921F93CF93DF93C82F0E94F4266B0125
:101590007C0110E0D0E00E94EC090E94D810CE013E
:1015A0000E94F3050E94F4266C157D058E059F05AB
:1015B00020F40E94F4266B017C010E94F426DC01D9
:1015C000CB018C199D09AE09BF09893C9105A10584
:1015D000B10558F48FE10E942526892BE1F20E9483
:1015E000F4266B017C0111E0D6CF812FDF91CF91E2
:1015F0001F91FF90EF90DF90CF9008950F931F936E
:10160000CF93DF9300D000D0CDB7DEB78DE10E943D
:1016100025262091050230910602892B11F02061C8
:1016200001C02F7E3093060220930502209105020F
:101630008091640690E024FB002700F910E08017F9
:10164000910729F480910A02882309F44AC024FFF3
:101650001DC06CED73E0CE0101960E94D62ACE012A
:1016600001960E94202CCE0101960E944C2A69ED21
:1016700073E0CE0101960E94D62ACE0101960E9407
:10168000DA19CE0101960E944C2A23C066EC73E061
:10169000CE0101960E94D62ACE0101960E94202CEE
:1016A000CE0101960E944C2A62EC73E0CE010196B5
:1016B0000E94D62ACE0101960E94DA19CE01019627
:1016C0000E944C2A8091080280934A0685E080930C
:1016D00008028091050282958170809364061092C1
:1016E0000A0226960FB6F894DEBF0FBECDBFDF917B
:1016F000CF911F910F9108950F931F9387E20E943E
:101700002526892B59F40E94F426609320067093B5
:101710002106809322069093230624C00E94F4267B
:101720000091200610912106209122063091230677
:10173000DC01CB01801B910BA20BB30B813D9740C9
:10174000A105B10588F40E94F426009120061091AD
:101750002106209122063091230660177107820727
:10176000930710F081E001C080E01F910F91089570
:101770000F931F9385E20E942526892B61F40E9416
:10178000F42660931C0670931D0680931E069093AA
:101790001F0681E027C00E94F42600911C061091CC
:1017A0001D0620911E0630911F06DC01CB01801B17
:1017B000910BA20BB30B853F9140A105B10588F4B5
:1017C0000E94F42600911C0610911D0620911E0611
:1017D00030911F06601771078207930710F08FEF93
:1017E00001C080E01F910F9108950F931F93CF9335
:1017F000DF9300D000D0CDB7DEB70E94B80B2091A8
:10180000050230910602811102C0286003C08130B8
:1018100029F4277F309306022093050220910502C8
:101820008091630690E023FB002700F910E0801709
:10183000910729F480910902882309F44BC023FF02
:101840001DC06EEA73E0CE0101960E94D62ACE0139
:1018500001960E94202CCE0101960E944C2A6AEA31
:1018600073E0CE0101960E94D62ACE0101960E9415
:10187000A019CE0101960E944C2A23C067E973E0AB
:10188000CE0101960E94D62ACE0101960E94202CFC
:10189000CE0101960E944C2A64E973E0CE010196C4
:1018A0000E94D62ACE0101960E94A019CE0101966F
:1018B0000E944C2A8091080280934A0685E080931A
:1018C00008028091050283FB882780F980936306D4
:1018D0001092090226960FB6F894DEBF0FBECDBF58
:1018E000DF91CF911F910F91089561E085E00C94F5
:1018F0004E26CF92DF92EF92FF920F931F93CF93DA
:10190000DF93CDB7DEB762970FB6F894DEBF0FBE98
:10191000CDBF0E948F05811106C061E086E00E9464
:101920004E26F12C06C060E086E00E944E26FF2481
:10193000F39460E085E00E944E260E94541A00E075
:1019400010E0EE24E3948BE9C82E8FE0D82E0E949D
:10195000EC0983E20E942526892B69F066E173E099
:10196000CE0101960E94172BCE0101960E94202CD9
:10197000CE01019657C061E087E00E944E26C60165
:101980000197F1F760E087E00E944E26C6010197BB
:10199000F1F70E948F05882311F0E11031C0FF207C
:1019A00009F47CC00E948F05811176C081E080938C
:1019B00049064AE0B801CE0107960E94512A60E725
:1019C00073E0CE0101960E94172BBE01695F7F4F25
:1019D000CE0101960E94EA29BC01CE010D960E941B
:1019E0000E2BCE010D960E94202CCE010D960E944A
:1019F0004C2ACE0101960E944C2ACE01079612C0B5
:101A00000E94750C6CE271E080E090E00E94BA26C2
:101A100060E086E00E944E2660E085E00E944E264F
:101A2000E12CC0CF0E944C2A0E94750C0E94A10894
:101A300060914906633681F46CE573E0CE0101964E
:101A40000E94172BCE0101960E94202CCE010196F8
:101A50000E944C2A60914906062E000C770B4AE042
:101A6000CE0101960E947D2A61E0CE0101960E947E
:101A7000141ACE0101960E944C2A62960FB6F89471
:101A8000DEBF0FBECDBFDF91CF911F910F91FF90B1
:101A9000EF90DF90CF900895FF24F3940F5F1F4FD6
:101AA000093883E1180709F052CF83E6809349068D
:101AB000BBCFCF93DF9300D000D0CDB7DEB7BC0152
:101AC000CE0101960E940E2BBE016F5F7F4F809169
:101AD000900C9091910C0E940027CE0101960E94DB
:101AE0004C2A26960FB6F894DEBF0FBECDBFDF910D
:101AF000CF9108950E94F4266093980C7093990CEE
:101B000080939A0C90939B0C08950F931F930E94BF
:101B1000F4260091980C1091990C20919A0C309118
:101B20009B0C601771078207930710F40E947A0DCF
:101B30000E94F4260091980C1091990C20919A0C17
:101B400030919B0CDC01CB01801B910BA20BB30BE2
:101B500021E0883C9105A105B10508F420E0822F21
:101B60001F910F910895CF92DF92FF920F931F93D1
:101B7000CF93DF9300D000D0CDB7DEB70E947A0DAF
:101B800000E010E08091920C9091930CDC01ED91BB
:101B9000FC910480F581E02D1995892BD9F0053051
:101BA0001105A1F08091920C9091930CDC01ED91C4
:101BB000FC910680F781E02D1995F801E057F34F6D
:101BC000848F0F5F1F4F0E947A0DDCCF85E0C82EF7
:101BD000D12C01C068010E94850DF82E811124C00E
:101BE000B5E0CB16D10471F60530110569F520E09A
:101BF00080E090E0FC01E057F34F348D230F019615
:101C000085309105B9F78091AE0C883221F0809132
:101C1000AE0C823059F48091AF0C811107C02111B4
:101C200005C0FF24F39410C0F12C0EC066E973E0E8
:101C3000CE0101960E94172BCE0101960E94590DEC
:101C4000CE0101960E944C2A8F2D26960FB6F8944D
:101C5000DEBF0FBECDBFDF91CF911F910F91FF90DF
:101C6000DF90CF9008951F93CF93DF93CDB7DEB76A
:101C700062970FB6F894DEBF0FBECDBF182F0E943B
:101C80007A0D112309F458C08091920C9091930C15
:101C9000DC01ED91FC910480F581E02D1995892BF3
:101CA000B1F18091920C9091930CDC01ED91FC913B
:101CB0000680F781E02D19954AE0682FCE0107963E
:101CC0000E94A92A65EB73E0CE010D960E94172BA6
:101CD000BE01695F7F4FCE010D960E94EA29BC01CB
:101CE000CE0101960E940E2BCE0101960E94590D45
:101CF000CE0101960E944C2ACE010D960E944C2ADC
:101D0000CE0107960E944C2A11500E947A0D0E9423
:101D1000850D882309F4B5CF6CEB73E0CE010196F5
:101D20000E94172BCE0101960E94590DCE010196FB
:101D30000E944C2A80E001C081E062960FB6F894C0
:101D4000DEBF0FBECDBFDF91CF911F910895FF92EF
:101D50000F931F93CF93DF93CDB7DEB7C058D10950
:101D60000FB6F894DEBF0FBECDBF80919C0C898367
:101D700000919E0C0A8380919F0C8B838091A10C13
:101D80008C83FE01359680E090E010E0801791078B
:101D900044F4DC01A057B34F53962C912193019644
:101DA000F5CF0C5F1F4FE1E0F0E0EC0FFD1FE00FFF
:101DB000F11F8091AB0C8083F12C2F2D30E00217A6
:101DC0001307A4F08091920C9091930CDC01ED919B
:101DD000FC91A1E0B0E0AC0FBD1FA20FB31F0190BA
:101DE000F081E02D6C911995F394E7CF80E0C05815
:101DF000DF4F0FB6F894DEBF0FBECDBFDF91CF919E
:101E00001F910F91FF9008951F93CF93DF9300D000
:101E100000D0CDB7DEB7182F882319F06EED73E030
:101E200002C06FEE73E0CE0101960E94172BCE0127
:101E300001960E94590DCE0101960E944C2A82E023
:101E400090E090939D0C80939C0C91E090939E0C5D
:101E500021E030E03093A00C20939F0C24EE30E082
:101E60003093A20C2093A10C112319F09093A30C92
:101E700002C01092A30C8091A30C8851819580938D
:101E8000AB0C0E94A70E86E00E94330E81110E94C7
:101E9000B30D26960FB6F894DEBF0FBECDBFDF910F
:101EA000CF911F9108958091500C811104C00E9420
:101EB000040F1092590C0895AF92BF92CF92DF9207
:101EC000EF92FF920F931F93CF93DF936C0160E02B
:101ED0008091610C0E944E26E6012496BA90AA9049
:101EE00008E010E090E8E92EF12C60E080915F0CB2
:101EF0000E944E2661E097012A213B21232B09F401
:101F000060E08091600C0E944E2661E080915F0C41
:101F10000E944E26F594E7940150110931F7CC1533
:101F2000DD05E1F661E08091610CDF91CF911F91B9
:101F30000F91FF90EF90DF90CF90BF90AF900C94F7
:101F40004E26FC0180917A0C90917B0CE817F907E2
:101F500069F1E03533ECF30730F4E0348CE9F8074D
:101F600040F09F0102C02FE433ECC90180549C492A
:101F700019C0E03395E7F90720F0CF01805395476A
:101F800011C0E0323EE4F30720F0CF0180529E44BE
:101F900009C0E03187E2F80720F0CF018051974275
:101FA00001C0CF0190937B0C80937A0C20916D0C33
:101FB0002130E9F038F0223009F458C0233009F418
:101FC0008DC0C2C06AE070E00E94F73EDC01A15AF9
:101FD000B34F13968C91E031F74208F08F7D90E07B
:101FE0009093710C8093700C8DEF90E0A9C0E0325B
:101FF000FE4420F18A30910568F064E670E00E94AA
:10200000F73E6AE070E00E94F73EFB01E15AF34FB1
:10201000838102C08091620C90E09093710C809358
:10202000700C8091700C9091710C8F7D992790931A
:10203000710C8093700C8FEE90E082C08A30910515
:1020400070F064E670E00E94F73E6AE070E00E9483
:10205000F73EFB01E15AF34F838190E0E8CF8FEF29
:1020600090E09093710C8093700C6AC0E033F54758
:1020700020F18436910568F068EE73E00E94F73E27
:1020800064E670E00E94F73EFB01E15AF34F838162
:1020900002C08091620C90E09093710C8093700C60
:1020A0008091700C9091710C8F7D99279093710C99
:1020B0008093700C87EF90E043C08436910578F2EE
:1020C00068EE73E00E94F73E64E670E00E94F73E1F
:1020D000FB01E15AF34F838190E0E8CFE034FC4903
:1020E000D8F0883E33E0930748F068EE73E00E9432
:1020F000F73EFB01E15AF34F838102C08091620CED
:1021000090E09093710C8093700C8091700C909182
:10211000710C8F7D99270EC0883E33E0930708F439
:102120009ECF68EE73E00E94F73EFB01E15AF34F49
:10213000838190E09093710C8093700C8BEF90E012
:102140009093730C8093720C2F5F243018F42093BB
:102150006D0C02C010926D0C80E79CE00C945C0F3B
:10216000EFE5FCE0815A934FDC0113968C9190E0EF
:10217000928B818B748B638B80E79CE00C945C0F5B
:10218000EFE5FCE02FEF30E0281B390B328B218B81
:10219000748B638B80E79CE00C945C0F87E290E08B
:1021A0009093710C8093700C80E79CE00C945C0F12
:1021B000CF92DF92EF92FF920F931F93CF93DF9313
:1021C000CDB7DEB762970FB6F894DEBF0FBECDBFB6
:1021D0009091900880919108992309F459C08F3FFC
:1021E000B1F40E94E31A882309F4A4C167E375E0FF
:1021F000CE0101960E94D62ACE0101960E94991E18
:10220000CE0101960E944C2A1092900893C10E9420
:10221000E31A882309F48EC11092900864E275E0F5
:10222000CE0101960E94D62ACE0101960E94991EE7
:10223000CE0101960E944C2A809192088F5F809374
:1022400092088B3008F45EC064E175E0CE0101961F
:102250000E94D62ACE0101960E94991ECE010196B7
:102260000E944C2A40E052EC61E070E080918E08C0
:1022700090918F080E947C1A80918E0890918F080F
:10228000DC01ED91FC910284F385E02D19953AC0B3
:102290008430E1F561E074E0CE0101960E94172BD5
:1022A000CE0101960E94991ECE0101960E944C2AF1
:1022B0006DEB74E080918E0890918F080E942C2B1A
:1022C00080918E0890918F08DC01ED91FC91028441
:1022D000F385E02D199564E670E080E090E00E94BF
:1022E000BA2661E088E00E944E260E94F4266093A0
:1022F0009708709398088093990890939A0881E0C2
:10230000809390088FEF8093910814C18F3FA9F5B7
:1023100060E174E089EA9BE00E941E2A68EF74E0A5
:10232000CE0101960E94D62ACE0101960E94991EE6
:10233000CE0101960E944C2A40E052EC61E070E030
:1023400080918E0890918F080E947C1A60E174E061
:1023500080918E0890918F080E942C2B80918E087E
:1023600090918F08DC01ED91FC910284F385E02DC2
:10237000199581E080939008A6C4823039F10E94BB
:10238000F42600919F081091A0082091A108309197
:10239000A208DC01CB01801B910BA20BB30B893887
:1023A0009341A105B10508F05AC40E94F42600919A
:1023B0009F081091A0082091A1083091A2086017F1
:1023C00071078207930708F44AC4B4C08091930848
:1023D000909194082091950830919608821B930B58
:1023E0008F779927892B09F47FC080919508909168
:1023F000960816E0189FF001199FF00D1124ED5575
:10240000F74F84819581892B09F45AC080919508F2
:1024100090919608189FB001199F700D11246D5569
:10242000774F80918E0890918F080E94402B809169
:102430008E0890918F08DC01ED91FC910284F38568
:10244000E02D1995E0909508F090960869E174E008
:10245000CE0101960E94172B1E9DB0011F9D700D8D
:1024600011246D55774FCE0101960E94EA29BC01D7
:10247000CE0107960E940E2BCE0107960E94991E50
:10248000CE0107960E944C2ACE0101960E944C2A4A
:1024900081E0809390080E94F426609397087093DF
:1024A00098088093990890939A080E94F426609364
:1024B0009B0870939C0880939D0890939E080EC083
:1024C00061ED74E0CE0101960E94D62ACE010196FC
:1024D0000E94991ECE0101960E944C2A61E274E08E
:1024E00089EA9BE00E941E2A0E94F42600919B0824
:1024F00010919C0820919D0830919E08DC01CB0131
:10250000801B910BA20BB30B89389341A105B10538
:1025100008F0E4C30E94F42600919B0810919C08E7
:1025200020919D0830919E086017710782079307DC
:1025300008F4D4C380918E0890918F08DC01ED914E
:10254000FC910480F581E02D1995892B09F478C15F
:1025500080918E0890918F08DC01ED91FC910680AE
:10256000F781E02D1995182F89831A8241E050E0F8
:10257000BE016F5F7F4F83EA9BE00E948A29109221
:1025800092081D3009F05CC166E274E0CE01079646
:102590000E94172B63EA7BE0CE0107960E94EA298E
:1025A000BC01CE0101960E940E2BCE0101960E9425
:1025B000991ECE0101960E944C2ACE0107960E94D8
:1025C0004C2A8091AD0B9091AE0B892B79F161E291
:1025D00074E08091A90B9091AA0B0E949C41892BD9
:1025E00029F58091A30B9091A40B009719F00E94FC
:1025F0009D4403C060E070E0CB01209195083091CC
:102600009608890120E030E0601771078207930780
:1026100009F010C1809195089091960801968F77E6
:102620009927909396088093950802C16DEB74E00A
:10263000CE0101960E94172BCE0101960E94601ACE
:102640008C01CE0101960E944C2A0F3F1F4F79F159
:1026500066EB75E0CE0101960E94D62ACE01019666
:102660000E94991ECE0101960E944C2A65EB75E0EE
:10267000CE0101960E94D62ACE0101960E94991E93
:10268000CE0101960E944C2A8091AD0B9091AE0B29
:10269000892B09F4CDC060E174E08091A90B909181
:1026A000AA0B0E949C41892B09F48FC0C1C060EA2B
:1026B00074E0CE0101960E94172BCE0101960E9474
:1026C000601A8C01CE0101960E944C2A0F3F1F4FC9
:1026D000F1F06CE975E0CE0101960E94D62ACE0198
:1026E00001960E94991ECE0101960E944C2A6BE928
:1026F00075E0CE0101960E94D62ACE0101960E9475
:10270000991ECE0101960E944C2A82E08FC06FE292
:1027100074E0CE0101960E94172BCE0101960E9413
:10272000601A8C01CE0101960E944C2A0F3F1F4F68
:10273000F1F063E875E0CE0101960E94D62ACE0141
:1027400001960E94991ECE0101960E944C2A62E8D1
:1027500075E0CE0101960E94D62ACE0101960E9414
:10276000991ECE0101960E944C2A83E05FC06BEA5D
:1027700072E0CE0101960E94172BCE0101960E94B5
:10278000601A8C01CE0101960E944C2A0F3F1F4F08
:10279000F1F069E675E0CE0101960E94D62ACE01DD
:1027A00001960E94991ECE0101960E944C2A68E66D
:1027B00075E0CE0101960E94D62ACE0101960E94B4
:1027C000991ECE0101960E944C2A81E02FC064E33D
:1027D00074E0CE0101960E94172BCE0101960E9453
:1027E000601A8C01CE0101960E944C2A0F3F1F4FA8
:1027F00009F16FE475E0CE0101960E94D62ACE0160
:1028000001960E94991ECE0101960E944C2A6EE408
:1028100075E0CE0101960E94D62ACE0101960E9453
:10282000991ECE0101960E944C2A84E08093910863
:10283000109290086FE575E083EA9BE00E941E2AE3
:102840000E94EC06209105023091060280914B080F
:1028500090914C088217930709F469C08091040293
:1028600021FD06C0882309F458C06AE176E019C04A
:1028700020FD06C0882309F450C064E076E011C052
:1028800025FD06C0882309F448C06AEF75E009C039
:10289000A90140745570452BA1F48823F1F160EF34
:1028A00075E0CE0101960E94D62A60E0CE01019625
:1028B0000E94FD1FCE0101960E944C2A1092040234
:1028C0002CC0A90140785A70452B29F4882329F19E
:1028D00066EE75E0E6CF22FD05C08823F1F06CEDD1
:1028E00075E0DFCF23FD05C08823B9F062ED75E008
:1028F000D8CF813091F06CEC75E0CE0101960E944A
:10290000D62A60E0CE0101960E94FD1FCE010196FD
:102910000E944C2A81E0809304020E94391F80911A
:1029200005029091060290934C0880934B080E94F8
:102930007C0B0E94B80B80913006882329F10E94FD
:10294000F42660934E0870934F088093500890933C
:10295000510880914D08811115C064E276E0CE01E6
:1029600001960E94D62ACE0101960E94202CCE010B
:1029700001960E944C2A61E08EE20E944E2681E080
:1029800080934D081092300680914D088823D9F12C
:102990000E94F426C0904E08D0904F08E090500856
:1029A000F0905108DC01CB018C199D09AE09BF09DB
:1029B00089389341A105B105A8F068E072E0CE0125
:1029C00001960E94D62ACE0101960E94202CCE01AB
:1029D00001960E944C2A60E08EE20E944E261092E0
:1029E0004D0811C00E94F4266C157D058E059F05CB
:1029F00050F40E94F42660934E0870934F08809321
:102A000050089093510880916108882321F00E941A
:102A100021081092610880916008882309F49CC005
:102A20008091500C811196C08091590C882309F433
:102A300091C08091560C8F5F8093560C823008F4C1
:102A400089C082E090E090939D0C80939C0C109242
:102A50009E0C81E090E09093A00C80939F0C85EEFB
:102A600090E09093A20C8093A10C88E18093AB0C32
:102A70000E94A70E81E08093D70C85E00E94330E60
:102A8000882381F10E947A0DF12CE12C0F2D1E2D4F
:102A90008091920C9091930CDC01ED91FC9104805B
:102AA000F581E02D1995892B41F00031110509F0D0
:102AB0004BC190E1F92EE12C02C0F02EE12E0E94D4
:102AC000850D882309F43BC16AE374E0CE010196C9
:102AD0000E94172BCE0101960E94590DCE0101963E
:102AE0000E944C2A6091580C6F5F6093580C4AE02A
:102AF000CE0107960E94A92A6DE774E0CE010D96DB
:102B00000E94172BBE01695F7F4FCE010D960E9478
:102B1000EA29BC01CE0101960E940E2BCE0101963E
:102B20000E942C17CE0101960E944C2ACE010D96D0
:102B30000E944C2ACE0107960E944C2A8091580C84
:102B40008B3030F00E94530F0E944D171092580C9A
:102B50001092560C1092600880915F08882399F0BB
:102B60008CE00E94252661E0892B09F060E08CE072
:102B70000E944E268CE00E942526682F8DE00E9440
:102B80004E2610925F0880915E08811110925E08B7
:102B90000E94F42660935A0870935B0880935C0847
:102BA00090935D08C0905608D0905708E090580860
:102BB000F09059088B019C010C191D092E093F0941
:102BC0000230110521053105D8F1209155082C1945
:102BD000260F2093550860935608709357088093EA
:102BE0005808909359082A3008F427C110925508C4
:102BF000909154089F5F9093540881E080936108FE
:102C00009A3008F41AC110925408909153089F5FAB
:102C10009093530880936008953008F40EC1109289
:102C20005308909152089F5F9093520880935F08D9
:102C3000923008F402C11092520880935E08FDC0E1
:102C40006C157D058E059F0508F0F7C0609356084A
:102C5000709357088093580890935908EEC06DE917
:102C600074E089EA9BE00E941E2A61EE74E0CE01C6
:102C700001960E94D62ACE0101960E94991ECE018D
:102C800001960E944C2A6DE974E080918E08909123
:102C90008F080E942C2B80918E0890918F08DC0168
:102CA000ED91FC910284F385E02D199581E08093EC
:102CB00090080E94F42660939F087093A008809368
:102CC000A1089093A2080E94F4266093970870933D
:102CD00098088093990890939A082CCC6DE974E039
:102CE00089EA9BE00E941E2A6DE974E080918E08BB
:102CF00090918F080E942C2B80918E0890918F08C4
:102D0000DC01ED91FC910284F385E02D199581E0C1
:102D1000809390080E94F426609397087093980817
:102D20008093990890939A080E94F42660939B08D8
:102D300070939C0880939D0890939E08FBCB003174
:102D4000110509F0A3CE14C08091920C9091930CC0
:102D5000DC01ED91FC910680F781E02D1995F801D9
:102D6000E057F34F87A30F5F1F4F0E947A0D90CE5D
:102D70008091BB0C2091D80C90E0821B91090297A6
:102D8000C4F0F090BB0CF21AEF2DEE0F00E010E053
:102D90008EEFE82EEE0EFF2081F1ED5FF0E0E057C0
:102DA000F34F87A10E947023080F191FFA94EE2D8C
:102DB000EFCF8091BC0C882351F08091BB0C281779
:102DC000D1F08091BC0C0E9470238C0116C08091C0
:102DD000BB0C281310C08091BD0C8E3051F4809133
:102DE000DA0C8F5F8093DA0C853128F01092DA0CC0
:102DF00017C01092DA0C00E010E08091BB0C8093B9
:102E0000D80C0F3F69F080914B0C90914C0C800FC7
:102E1000911D07FD9A9590934C0C80934B0C96CE88
:102E20006091580C6F5F6093580C4AE0CE01079692
:102E30000E94A92A6DE574E061CE62960FB6F894FF
:102E4000DEBF0FBECDBFDF91CF911F910F91FF90DD
:102E5000EF90DF90CF900895CF93DF9300D000D014
:102E6000CDB7DEB7BC01CE0101960E940E2BBE018C
:102E70006F5F7F4F80913F0C9091400C0E94002724
:102E8000CE0101960E944C2A26960FB6F894DEBF1A
:102E90000FBECDBFDF91CF910895EF92FF920F93B8
:102EA0001F93CF93DF93CDB7DEB762970FB6F89439
:102EB000DEBF0FBECDBF82E090E090939D0C80936B
:102EC0009C0C10929E0C81E090E09093A00C80935B
:102ED0009F0C9093A20C8093A10C8CEF8093AB0C71
:102EE0000E94A70E85E00E94330E882309F447C193
:102EF0000E94B30D882309F442C18091500C8F3F8A
:102F000071F466EA74E0CE0101960E94172BCE019F
:102F100001960E942C17CE0101960E944C2A68EC63
:102F200070E080E090E00E94BA2682E090E090930A
:102F30009D0C80939C0C10929E0C81E090E09093ED
:102F4000A00C80939F0C88EE90E09093A20C80934D
:102F5000A10C85E18093AB0C0E94A70E85E00E9436
:102F6000330E882399F10E947A0DE12CF12C870110
:102F70008091920C9091930CDC01ED91FC91048076
:102F8000F581E02D1995892BD9F006301105A1F0B6
:102F90008091920C9091930CDC01ED91FC91068054
:102FA000F781E02D1995F801E057F34F81A30F5FEA
:102FB0001F4F0E947A0DDCCF86E0E82EF12C01C075
:102FC00078010E94850D882309F4E2C068EC70E066
:102FD00080E090E00E94BA266091DD0C6093500C76
:102FE000611143C060EC74E0CE0101960E94172B82
:102FF000CE0101960E94590DCE0101960E944C2AE5
:1030000082E090E090939D0C80939C0C80939E0CAA
:1030100081E090E09093A00C80939F0C87EE90E06D
:103020009093A20C8093A10C80E88093A30C8FEF67
:103030008093A40C85E98093AB0C0E94A70E87E0D7
:103040000E94330E81110E94B30D8091500C8111AA
:103050006EC081E00E94040F882321F081E08093FC
:10306000590C65C01092590C62C08091510C161613
:10307000E4F56A3074F4681709F459C0062E000CA0
:10308000770B4AE0CE0107960E947D2A6FEC74E030
:103090000DC0681709F44BC0062E000C770B4AE0F0
:1030A000CE0107960E947D2A65EE74E0CE010D9652
:1030B0000E94172BBE01695F7F4FCE010D960E94C3
:1030C000EA29BC01CE0101960E940E2BCE01019689
:1030D0000E942C17CE0101960E944C2ACE010D961B
:1030E0000E944C2ACE0107961CC0681701F16AEFB6
:1030F00074E0CE0101960E94172BCE0101960E942A
:103100002C17CE0101960E944C2A67E175E0CE0192
:1031100001960E94172BCE0101960E942C17CE011A
:1031200001960E944C2A8091500C8093510C809102
:10313000500C811122C08091510C882391F06EE2D5
:1031400075E0CE0101960E94172BCE0101960E94D8
:103150002C17CE0101960E944C2A8091500C80932E
:10316000510C0E94F4266093450C7093460C80939A
:10317000470C9093480C81E04DC080E04BC08FEF2E
:103180008093500C8091510C8F3F09F0B0CFCFCF7E
:103190000630110509F0EBCEB6E0EB16F10409F0AC
:1031A00015CF20E080E090E0FC01E057F34F31A123
:1031B000230F019686309105B9F78091AE0C8832C5
:1031C00021F08091AE0C823029F4211103C080914E
:1031D000B50C1DC067E475E0CE0101960E94172B67
:1031E000CE0101960E94590DCE0101960E944C2AF3
:1031F00060E675E0CE0101960E94172BCE01019684
:103200000E94590DCE0101960E944C2A8FEF8093A7
:10321000DD0CDCCE62960FB6F894DEBF0FBECDBFDC
:10322000DF91CF911F910F91FF90EF900895CF9371
:10323000DF93CDB7DEB762970FB6F894DEBF0FBE4F
:10324000CDBFBC01CE0101960E940E2B6BEE7BE040
:10325000CE0107960E940E2B69ED7BE0CE010D9604
:103260000E940E2BAE014F5F5F4FBE01695F7F4F23
:10327000CE010D960E94861FCE010D960E944C2A0B
:10328000CE0107960E944C2ACE0101960E944C2A3C
:1032900062960FB6F894DEBF0FBECDBFDF91CF911F
:1032A0000895CF93DF93CDB7DEB762970FB6F8944A
:1032B000DEBF0FBECDBF20919108223079F064E7C8
:1032C00075E0CE0101960E94172BCE0101960E9457
:1032D000991ECE0101960E944C2A29C0BC01CE0144
:1032E00001960E940E2B69E37CE0CE0107960E94B6
:1032F0000E2B63E37CE0CE010D960E940E2BAE01F7
:103300004F5F5F4FBE01695F7F4FCE010D960E94F8
:10331000861FCE010D960E944C2ACE0107960E9470
:103320004C2ACE0101960E944C2A0E94391F6296B7
:103330000FB6F894DEBF0FBECDBFDF91CF910895D9
:10334000CF93DF93CDB7DEB762970FB6F894DEBFA9
:103350000FBECDBFBC01CE0101960E940E2B61EFC6
:103360007BE0CE0107960E940E2B69ED7BE0CE013B
:103370000D960E940E2BAE014F5F5F4FBE01695F3D
:103380007F4FCE010D960E94861FCE010D960E94A2
:103390004C2ACE0107960E944C2ACE0101960E942B
:1033A0004C2A62960FB6F894DEBF0FBECDBFDF91F8
:1033B000CF910895CF93DF93CDB7DEB762970FB665
:1033C000F894DEBF0FBECDBFBC01CE0101960E94B6
:1033D0000E2B67EF7BE0CE0107960E940E2B69ED66
:1033E0007BE0CE010D960E940E2BAE014F5F5F4F2A
:1033F000BE01695F7F4FCE010D960E94861FCE01F0
:103400000D960E944C2ACE0107960E944C2ACE01AE
:1034100001960E944C2A62960FB6F894DEBF0FBE4A
:10342000CDBFDF91CF9108951F93CF93DF93CDB799
:10343000DEB762970FB6F894DEBF0FBECDBF162F72
:10344000BC01CE0101960E940E2B6DE27CE0CE0104
:1034500007960E940E2B69ED7BE0CE010D960E942F
:103460000E2BAE014F5F5F4FBE01695F7F4FCE01F4
:103470000D960E94861FCE010D960E944C2ACE0109
:1034800007960E944C2ACE0101960E944C2A1111E7
:103490000E94391F62960FB6F894DEBF0FBECDBFF3
:1034A000DF91CF911F910895EFE5FCE08FEF90E061
:1034B000928B818B948B838B80E79CE00C945C0FC8
:1034C000CF93DF932091A70B3091A80B232B79F09A
:1034D000FC01C091A30BD091A40B60817181CE013E
:1034E0000E94AC41009719F08C1B9D0B02C08FEF1E
:1034F0009FEFDF91CF910895CF92DF92EF92FF92ED
:103500000F931F93CF93DF93EC016A017B01E8894E
:10351000F98982E080834115514E61057105B1F052
:1035200060E079E08DE390E0A70196010E941F3FE3
:1035300089019A0101501109210931093695279510
:1035400017950795980101151041A8F0E889F989A8
:10355000108260E874E88EE190E0A70196010E9475
:103560001F3FDA01C9010197A109B109B695A795D5
:10357000979587959C01EC85FD853083EE85FF85C9
:103580002083188EEC89FD8986E08083EA89FB8997
:10359000808180618083EA89FB8980818860808363
:1035A000EA89FB89808180688083EA89FB89808140
:1035B0008F7D8083DF91CF911F910F91FF90EF90CE
:1035C000DF90CF9008950F931F930E94F4260091EF
:1035D0009708109198082091990830919A086017DF
:1035E00071078207930750F40E94F42660939708AE
:1035F000709398088093990890939A080E94F426F3
:1036000000919708109198082091990830919A0894
:10361000DC01CB01801B910BA20BB30B21E088389E
:103620009341A105B10508F420E0822F1F910F916D
:103630000895CF93DF93CDB7DEB762970FB6F894B6
:10364000DEBF0FBECDBFBC01CE0101960E940E2B86
:1036500063ED7BE0CE0107960E940E2B6DEC7BE0C4
:10366000CE010D960E940E2BAE014F5F5F4FBE0143
:10367000695F7F4FCE010D960E94861FCE010D9689
:103680000E944C2ACE0107960E944C2ACE01019638
:103690000E944C2A0E94391F62960FB6F894DEBF32
:1036A0000FBECDBFDF91CF9108950F931F93CF939E
:1036B000DF93CDB7DEB769970FB6F894DEBF0FBEC4
:1036C000CDBF282F8B0169ED7BE0CE014396298F7A
:1036D0000E940E2B298D223069F02330A1F0213079
:1036E000D9F54AE0B801CE0101960E94512A69E05D
:1036F0007CE011C04AE0B801CE0101960E94512A37
:1037000065E17CE008C04AE0B801CE0101960E9464
:10371000512A61E27CE0CE0107960E940E2BBE0189
:103720006D5E7F4FCE010D960E940E2BAE014F5F56
:103730005F4FBE01695F7F4FCE010D960E94861FCD
:10374000CE010D960E944C2ACE0107960E944C2A6B
:10375000CE0101960E944C2ACE0143960E944C2A2B
:1037600069960FB6F894DEBF0FBECDBFDF91CF9143
:103770001F910F91089520916D0C2F5F243018F444
:1037800020936D0C02C010926D0C20916D0C2130B5
:10379000F9F070F02230D1F1233009F051C080E50A
:1037A00090E09093710C8093700C8BEF90E044C08C
:1037B0006AE070E00E94F73EFC01E15AF34F83811A
:1037C00090E09093710C8093700C8DEF90E034C07A
:1037D0008A309105A0F064E670E00E94F73E6AE04E
:1037E00070E00E94F73EFB01E15AF34F838190E0C5
:1037F0009093710C8093700C8FEE90E01DC08FEF52
:1038000090E09093710C8093700C16C084369105F3
:10381000B0F368EE73E00E94F73E64E670E00E9449
:10382000F73EFB01E15AF34F838190E09093710CD6
:103830008093700C87EF90E09093730C8093720CE0
:1038400080E79CE00C945C0F0F931F930E94F4267A
:103850000091450C1091460C2091470C3091480C7A
:10386000601771078207930750F40E94F426609353
:10387000450C7093460C8093470C9093480C0E9423
:10388000F4260091450C1091460C2091470C309184
:10389000480CDC01CB01801B910BA20BB30B21E088
:1038A000843F9140A105B10508F420E0822F1F91CB
:1038B0000F9108951F93CF93DF9300D000D0CDB721
:1038C000DEB7182F8091490C1817D1F0112319F089
:1038D0006CE775E002C068E975E0CE0101960E94D0
:1038E000172BCE0101960E942C17CE0101960E9443
:1038F0004C2A612F8091540C0E944E261093490C43
:103900000E94F4266093450C7093460C8093470CFC
:103910009093480C0E94241C811119C08091920C34
:103920009091930CDC01ED91FC910480F581E02DE8
:103930001995892B79F38091920C9091930CDC016D
:10394000ED91FC910680F781E02D1995E3CF269645
:103950000FB6F894DEBF0FBECDBFDF91CF911F91A0
:103960000895CF93DF93CDB7DEB762970FB6F89483
:10397000DEBF0FBECDBF4AE0682FCE0101960E9488
:10398000A92A65EB7BE0CE0107960E940E2B6FEA19
:103990007BE0CE010D960E940E2BAE014F5F5F4F74
:1039A000BE01695F7F4FCE010D960E94861FCE013A
:1039B0000D960E944C2ACE0107960E944C2ACE01F9
:1039C00001960E944C2A62960FB6F894DEBF0FBE95
:1039D000CDBFDF91CF910895CF93DF93CDB7DEB701
:1039E00062970FB6F894DEBF0FBECDBF4AE0BC01B0
:1039F000CE0101960E94512A6BEB7BE0CE01079627
:103A00000E940E2B6FEA7BE0CE010D960E940E2BDA
:103A1000AE014F5F5F4FBE01695F7F4FCE010D96D4
:103A20000E94861FCE010D960E944C2ACE01079659
:103A30000E944C2ACE0101960E944C2A62960FB633
:103A4000F894DEBF0FBECDBFDF91CF910895CF9325
:103A5000DF93CDB7DEB762970FB6F894DEBF0FBE27
:103A6000CDBF4AE0BC01CE0101960E94512A61EC13
:103A70007BE0CE0107960E940E2B6FEA7BE0CE0121
:103A80000D960E940E2BAE014F5F5F4FBE01695F26
:103A90007F4FCE010D960E94861FCE010D960E948B
:103AA0004C2ACE0107960E944C2ACE0101960E9414
:103AB0004C2A62960FB6F894DEBF0FBECDBFDF91E1
:103AC000CF910895CF93DF93CDB7DEB762970FB64E
:103AD000F894DEBF0FBECDBFBC01CE0101960E949F
:103AE0000E2B67EC7BE0CE0107960E940E2B6FEA4F
:103AF0007BE0CE010D960E940E2BAE014F5F5F4F13
:103B0000BE01695F7F4FCE010D960E94861FCE01D8
:103B10000D960E944C2ACE0107960E944C2ACE0197
:103B200001960E944C2A62960FB6F894DEBF0FBE33
:103B3000CDBFDF91CF9108954F925F926F927F92A8
:103B40008F929F92AF92BF92CF92DF92EF92FF92AD
:103B50000F931F93CF93DF934B015C018091690812
:103B600090916A08A0916B08B0916C08881699062C
:103B7000AA06BB0609F4C2C08CE3C82ED12CE12CE6
:103B8000F12CC501B401A70196010E941F3F60936B
:103B90006208CA01B901A70196010E941F3F609304
:103BA0006308CA01B90128E130E040E050E00E941A
:103BB0001F3F69017A0160936408CA01B9016C5F13
:103BC0007F4F8F4F9F4F27E030E040E050E00E9452
:103BD0001F3F6F5F60936508412C512C320140E01C
:103BE00004E610E0C0E9D1E0242F30E02E54384F35
:103BF000F901E370FF27309789F4C901B8010E94E9
:103C00000B3F892B31F4C901BE010E940B3F892B68
:103C100029F48EE691E0A0E0B0E004C08DE691E0EA
:103C2000A0E0B0E0480E591E6A1E7B1ED301C201FF
:103C3000AA27BB27C816D906EA06FB0610F04F5F75
:103C4000D3CF40936808309799F4C90164E670E0D7
:103C50000E940B3F892B39F4C90160E971E00E9491
:103C60000B3F892B29F48EE691E0A0E0B0E004C080
:103C70008DE691E0A0E0B0E0481A590A6A0A7B0A92
:103C8000C418D508E608F708C90164E670E00E9488
:103C90000B3FEC01C90160E971E00E940B3FA3E218
:103CA000B2E020E0213039F4309749F4209729F42C
:103CB000009729F402C04C9103C04DE101C04CE1D2
:103CC00050E060E070E0C416D506E606F70640F066
:103CD000C41AD50AE60AF70A2F5F11962C3011F79D
:103CE0002F5F20936708C394C0926608809269088A
:103CF00090926A08A0926B08B0926C08DF91CF9105
:103D00001F910F91FF90EF90DF90CF90BF90AF90F9
:103D10009F908F907F906F905F904F90089580EF6D
:103D200090E09093710C8093700C80E79CE00C9471
:103D30005C0FCF93DF9300D000D0CDB7DEB7BC01CE
:103D4000CE0101960E940E2BBE016F5F7F4F8091C6
:103D50008C0890918D080E940027CE0101960E9448
:103D60004C2A26960FB6F894DEBF0FBECDBFDF916A
:103D7000CF9108950F931F93CF93DF93CDB7DEB705
:103D800062970FB6F894DEBF0FBECDBF8C016FE512
:103D900075E0CE010D960E94172BF8018481958164
:103DA000892B09F457C063EB75E0CE010D960E9494
:103DB0001E2A60919308709194084AE0CE010796FC
:103DC0000E94512ABE01695F7F4FCE0101960E9479
:103DD0000E2B6CE472E0CE0101960E94D129BC0149
:103DE000CE010D960E94B829CE0101960E944C2A60
:103DF000CE0107960E944C2AB801CE010D960E9472
:103E0000B829BE01635F7F4FCE0101960E940E2B41
:103E1000CE0101960E94991ECE0101960E944C2A65
:103E2000209193083091940846E0429FC001439F3F
:103E3000900D1124B8018D55974F0E94352A80911D
:103E400093089091940801968F77992790939408FE
:103E500080939308CE010D960E944C2A62960FB66D
:103E6000F894DEBF0FBECDBFDF91CF911F910F91B0
:103E70000895CF93DF93CDB7DEB72C970FB6F894A4
:103E8000DEBF0FBECDBF69E676E0CE0107960E9489
:103E9000D62A67E676E0CE0107960E945A296091FD
:103EA0009308709194084AE0CE0101960E94512A2D
:103EB000BE016F5F7F4FCE0107960E94B829CE01E9
:103EC00001960E944C2A61E676E0CE0107960E9498
:103ED0005A29BE01695F7F4FCE0101960E940E2BC9
:103EE000CE0101960E94BA1ECE0101960E944C2A74
:103EF000CE0107960E944C2A80E02C960FB6F894CB
:103F0000DEBF0FBECDBFDF91CF910895CF92DF927C
:103F1000EF92FF920F931F93CF93DF93CDB7DEB74E
:103F20002C970FB6F894DEBF0FBECDBF6C017B019E
:103F30008A0160E676E0CE0107960E94D62A6EE5F9
:103F400076E0CE0107960E945A29609193087091FD
:103F500094084AE0CE0101960E94512ABE016F5F8B
:103F60007F4FCE0107960E94B829CE0101960E948C
:103F70004C2A66E576E0CE0107960E945A29B601E2
:103F8000CE0107960E94B82964E576E0CE01079637
:103F90000E945A29B701CE0107960E94B82962E50E
:103FA00076E0CE0107960E945A29B801CE01079605
:103FB0000E94B829BE01695F7F4FCE0101960E9421
:103FC0000E2BCE0101960E94BA1ECE0101960E94D0
:103FD0004C2ACE0107960E944C2A80E02C960FB600
:103FE000F894DEBF0FBECDBFDF91CF911F910F912F
:103FF000FF90EF90DF90CF900895FF920F931F9363
:10400000CF93DF93CDB7DEB762970FB6F894DEBFDC
:104010000FBECDBF8C01F62EBC01CE0101960E94D1
:104020000E2B6FED7BE0CE0107960E940E2B69ED03
:104030007BE0CE010D960E940E2BAE014F5F5F4FCD
:10404000BE01695F7F4FCE010D960E94861FCE0193
:104050000D960E944C2ACE0107960E944C2ACE0152
:1040600001960E944C2AF80184819581892B09F4DC
:1040700011C26EEB75E0808191810E949C41892B79
:1040800009F008C260E576E0CE0101960E94D62ACA
:1040900065EE7BE0CE0107960E940E2B69ED7BE07A
:1040A000CE010D960E940E2BAE014F5F5F4FBE01F9
:1040B000695F7F4FCE010D960E94861FCE010D963F
:1040C0000E944C2ACE0107960E944C2ACE010196EE
:1040D0000E944C2A6EE476E0CE0101960E94D62A18
:1040E0006BEE7BE0CE0107960E940E2B69ED7BE024
:1040F000CE010D960E940E2BAE014F5F5F4FBE01A9
:10410000695F7F4FCE010D960E94861FCE010D96EE
:104110000E944C2ACE0107960E944C2ACE0101969D
:104120000E944C2A6CE476E0CE0101960E94D62AC9
:1041300061EF7BE0CE0107960E940E2B69ED7BE0DC
:10414000CE010D960E940E2BAE014F5F5F4FBE0158
:10415000695F7F4FCE010D960E94861FCE010D969E
:104160000E944C2ACE0107960E944C2ACE0101964D
:104170000E944C2A6AE476E0CE0101960E94D62A7B
:1041800067EF7BE0CE0107960E940E2B69ED7BE086
:10419000CE010D960E940E2BAE014F5F5F4FBE0108
:1041A000695F7F4FCE010D960E94861FCE010D964E
:1041B0000E944C2ACE0107960E944C2ACE010196FD
:1041C0000E944C2A68E476E0CE0101960E94D62A2D
:1041D0006DEF7BE0CE0107960E940E2B69ED7BE030
:1041E000CE010D960E940E2BAE014F5F5F4FBE01B8
:1041F000695F7F4FCE010D960E94861FCE010D96FE
:104200000E944C2ACE0107960E944C2ACE010196AC
:104210000E944C2A66E476E0CE0101960E94D62ADE
:1042200063E07CE0CE0107960E940E2B69ED7BE0F7
:10423000CE010D960E940E2BAE014F5F5F4FBE0167
:10424000695F7F4FCE010D960E94861FCE010D96AD
:104250000E944C2ACE0107960E944C2ACE0101965C
:104260000E944C2A64E476E0CE0101960E94D62A90
:1042700069E07CE0CE0107960E940E2B69ED7BE0A1
:10428000CE010D960E940E2BAE014F5F5F4FBE0117
:10429000695F7F4FCE010D960E94861FCE010D965D
:1042A0000E944C2ACE0107960E944C2ACE0101960C
:1042B0000E944C2A62E476E0CE0101960E94D62A42
:1042C0006FE07CE0CE0107960E940E2B69ED7BE04B
:1042D000CE010D960E940E2BAE014F5F5F4FBE01C7
:1042E000695F7F4FCE010D960E94861FCE010D960D
:1042F0000E944C2ACE0107960E944C2ACE010196BC
:104300000E944C2A60E476E0CE0101960E94D62AF3
:1043100065E17CE0CE0107960E940E2B69ED7BE003
:10432000CE010D960E940E2BAE014F5F5F4FBE0176
:10433000695F7F4FCE010D960E94861FCE010D96BC
:104340000E944C2ACE0107960E944C2ACE0101966B
:104350000E944C2A6EE376E0CE0101960E94D62A96
:104360006BE17CE0CE0107960E940E2B69ED7BE0AD
:10437000CE010D960E940E2BAE014F5F5F4FBE0126
:10438000695F7F4FCE010D960E94861FCE010D966C
:104390000E944C2ACE0107960E944C2ACE0101961B
:1043A0000E944C2A6CE376E0CE0101960E94D62A48
:1043B00061E27CE0CE0107960E940E2B69ED7BE066
:1043C000CE010D960E940E2BAE014F5F5F4FBE01D6
:1043D000695F7F4FCE010D960E94861FCE010D961C
:1043E0000E944C2ACE0107960E944C2ACE010196CB
:1043F0000E944C2A6AE376E0CE0101960E94D62AFA
:1044000067E27CE0CE0107960E940E2B69ED7BE00F
:10441000CE010D960E940E2BAE014F5F5F4FBE0185
:10442000695F7F4FCE010D960E94861FCE010D96CB
:104430000E944C2ACE0107960E944C2ACE0101967A
:104440000E944C2A68E376E0CE0101960E94D62AAB
:104450006DE27CE0CE0107960E940E2B69ED7BE0B9
:10446000CE010D960E940E2BAE014F5F5F4FBE0135
:10447000695F7F4FCE010D960E94861FCE010D967B
:104480000E944C2ACE0107960E944C2ACE0101962A
:104490000E944C2AF1100E94391F62960FB6F894C0
:1044A000DEBF0FBECDBFDF91CF911F910F91FF9067
:1044B00008951F93CF93DF93CDB7DEB762970FB602
:1044C000F894DEBF0FBECDBF162FBC01CE01019602
:1044D0000E940E2B6DEF7BE0CE0107960E940E2B03
:1044E00069ED7BE0CE010D960E940E2BAE014F5F71
:1044F0005F4FBE01695F7F4FCE010D960E94861F00
:10450000CE010D960E944C2ACE0107960E944C2A9D
:10451000CE0101960E944C2A11110E94391F629609
:104520000FB6F894DEBF0FBECDBFDF91CF911F91C4
:1045300008950F931F93CF93DF93CDB7DEB769979D
:104540000FB6F894DEBF0FBECDBF282F8B0169EDEB
:104550007BE0CE014396298F0E940E2B298D2230BD
:1045600061F0233091F02130C1F5B801CE01019600
:104570000E940E2B6FE07CE00FC0B801CE010196C7
:104580000E940E2B6BE17CE007C0B801CE010196C2
:104590000E940E2B67E27CE0CE0107960E940E2B54
:1045A000BE016D5E7F4FCE010D960E940E2BAE01B7
:1045B0004F5F5F4FBE01695F7F4FCE010D960E9436
:1045C000861FCE010D960E944C2ACE0107960E94AE
:1045D0004C2ACE0101960E944C2ACE0143960E949D
:1045E0004C2A69960FB6F894DEBF0FBECDBFDF919F
:1045F000CF911F910F910895CF93DF93CDB7DEB781
:1046000062970FB6F894DEBF0FBECDBFBC01CE01DE
:1046100001960E940E2B63E07CE0CE0107960E947B
:104620000E2B69ED7BE0CE010D960E940E2BAE01A4
:104630004F5F5F4FBE01695F7F4FCE010D960E94B5
:10464000861FCE010D960E944C2ACE0107960E942D
:104650004C2ACE0101960E944C2A62960FB6F8941D
:10466000DEBF0FBECDBFDF91CF910895CF93DF9313
:10467000CDB7DEB762970FB6F894DEBF0FBECDBFE1
:10468000BC01CE0101960E940E2B65EE7BE0CE01AF
:1046900007960E940E2B69ED7BE0CE010D960E94DD
:1046A0000E2BAE014F5F5F4FBE01695F7F4FCE01A2
:1046B0000D960E94861FCE010D960E944C2ACE01B7
:1046C00007960E944C2ACE0101960E944C2A6296BF
:1046D0000FB6F894DEBF0FBECDBFDF91CF91089526
:1046E000CF93DF9300D000D0CDB7DEB790E0FC01D0
:1046F0003897E830F10508F04AC08827EA57FF4F9D
:104700008F4F0C94413F67EC75E0CE0101960E94FB
:10471000172BCE0101960E94590DCE0101960E94E1
:104720004C2A81E090E035C06AED75E0CE0101963B
:104730000E94172BCE0101960E94590DCE010196C1
:104740000E944C2A82E090E024C06DEE75E0CE011C
:1047500001960E94172BCE0101960E94590DCE01A1
:1047600001960E944C2A85E090E013C060E076E05C
:10477000CE0101960E94172BCE0101960E94590D81
:10478000CE0101960E944C2A8AE090E002C080E0AF
:1047900090E026960FB6F894DEBF0FBECDBFDF9136
:1047A000CF910895FC01918D828D981761F0828DD3
:1047B000DF01A80FB11D5D968C91928D9F5F9F7355
:1047C000928F90E008958FEF9FEF0895FC01918DF7
:1047D000828D981731F0828DE80FF11D858D90E064
:1047E00008958FEF9FEF0895FC01918D228D892F01
:1047F00090E0805C9F4F821B91098F7399270895E9
:1048000084E796E00E94F42321E0892B09F420E05C
:10481000822F089580E090E0892B21F00E9450299A
:1048200081111DC080E090E0892B41F080E090E094
:10483000892B21F00E940000811114C080E090E0DB
:10484000892B21F00E94002481110FC080E090E0AC
:10485000892B81F00E94462981110AC008950E9487
:104860000000E0CF0E940000E9CF0E940000EECFE0
:104870000C940000089590E0FC013197E231F105BD
:1048800008F04EC08827E257FF4F8F4F0C94413FEE
:10489000809180008F7703C0809180008F7D80930E
:1048A0008000089580918000877FF9CF84B58F774D
:1048B00002C084B58F7D84BD08958091B0008F774C
:1048C00003C08091B0008F7D8093B00008958091E7
:1048D00090008F7707C0809190008F7D03C08091FA
:1048E0009000877F8093900008958091A0008F773B
:1048F00007C08091A0008F7D03C08091A000877FBA
:104900008093A0000895809120018F7707C0809147
:1049100020018F7D03C080912001877F809320013B
:1049200008953FB7F8948091780890917908A09104
:104930007A08B0917B0826B5A89B05C02F3F19F0D7
:104940000196A11DB11D3FBFBA2FA92F982F88270F
:10495000820F911DA11DB11DBC01CD0142E0660F6A
:10496000771F881F991F4A95D1F70895EF92FF92FC
:104970000F931F93CF93DF9300D000D0CDB7DEB756
:104980008C017A016CE877E00E94D62A8AE0E8166A
:10499000F1042CF46AE877E0C8010E945A294AE041
:1049A000B701CE0101960E947D2ABE016F5F7F4F45
:1049B000C8010E94B829CE0101960E944C2AC80164
:1049C00026960FB6F894DEBF0FBECDBFDF91CF9114
:1049D0001F910F91FF90EF9008951F920F920FB6C5
:1049E0000F9211240BB60F922F933F934F935F9327
:1049F0006F937F938F939F93AF93BF93EF93FF93A7
:104A000084E796E00E94B32BFF91EF91BF91AF91A5
:104A10009F918F917F916F915F914F913F912F91D6
:104A20000F900BBE0F900FBE0F901F901895EF9236
:104A3000FF920F931F93CF93DF93EC017B016FE500
:104A400075E008960E94172B8E01025F1F4F6FE5DD
:104A500075E0C8010E94172B84E796E0998388834C
:104A600080E092ECA1E0B0E08C839D83AE83BF83B5
:104A700084E196E09B838A83B701C801DF91CF91DF
:104A80001F910F91FF90EF900C94352A1F920F9277
:104A90000FB60F9211240BB60F922F933F934F93A3
:104AA0005F936F937F938F939F93AF93BF93EF9396
:104AB000FF93E0917108F09172081995FF91EF91C1
:104AC000BF91AF919F918F917F916F915F914F9126
:104AD0003F912F910F900BBE0F900FBE0F901F9024
:104AE0001895FC01848DDF01A80FB11DA35ABF4F9B
:104AF0002C91848D90E001968F739927848FA689DD
:104B0000B7892C93A089B1898C9180648C93938D03
:104B1000848D981306C00288F389E02D80818F7DF3
:104B2000808308951F920F920FB60F9211240BB637
:104B30000F922F933F934F935F936F937F938F9336
:104B40009F93AF93BF93EF93FF9384E796E00E9408
:104B50007125FF91EF91BF91AF919F918F917F91BF
:104B60006F915F914F913F912F910F900BBE0F90DE
:104B70000FBE0F901F901895EF92FF920F931F9307
:104B8000CF93DF93EC0181E0888F9B8D8C8D981300
:104B900005C0E889F989808185FD24C0F62E0B8D3A
:104BA00010E00F5F1F4F0F731127E02E8C8DE8125E
:104BB0000CC00FB607FCFACFE889F989808185FF20
:104BC000F5CFCE010E947125F1CF8B8DFE01E80F4C
:104BD000F11DE35AFF4FF0820B8FEA89FB89808138
:104BE000806207C0EE89FF896083E889F989808146
:104BF0008064808381E090E0DF91CF911F910F91DD
:104C0000FF90EF900895CF93DF93EC01888D882378
:104C1000C9F0EA89FB89808185FD05C0A889B98929
:104C20008C9186FD0FC00FB607FCF5CF808185FF04
:104C3000F2CFA889B9898C9185FFEDCFCE010E9472
:104C40007125E7CFDF91CF910895CF93DF93282F80
:104C500030E0F901EC5BF84F8491F901E250F94F33
:104C6000D491F901E854F94FC491CC2391F081110A
:104C70000E943B24EC2FF0E0EE0FFF1FE256F94FAD
:104C8000A591B491EC91ED2381E090E021F480E0D6
:104C900002C080E090E0DF91CF9108951F93CF9301
:104CA000DF93282F30E0F901EC5BF84F8491F90194
:104CB000E250F94FD491F901E854F94FC491CC2353
:104CC000C9F0162F81110E943B24EC2FF0E0EE0F6B
:104CD000FF1FEC57F94FA591B4918FB7F8941111BC
:104CE00005C09C91ED2FE095E92302C0EC91ED2BDE
:104CF000EC938FBFDF91CF911F910895CF93DF93F6
:104D000090E0FC01E250F94F2491FC01E854F94F86
:104D10008491882361F190E0880F991FFC01E65986
:104D2000F94FC591D491FC01EC57F94FA591B4917D
:104D3000611109C09FB7F8948881209582238883E8
:104D4000EC912E230BC0623061F49FB7F894388148
:104D5000822F809583238883EC912E2B2C939FBFE9
:104D600006C08FB7F894E8812E2B28838FBFDF9180
:104D7000CF9108958F929F92AF92BF92CF92DF9280
:104D8000EF92FF926B017C010E9491244B015C0128
:104D9000C114D104E104F104F1F00E949124DC017A
:104DA000CB0188199909AA09BB09883E9340A1053E
:104DB000B10570F321E0C21AD108E108F10888EECC
:104DC000880E83E0981EA11CB11CC114D104E1041B
:104DD000F10419F7DDCFFF90EF90DF90CF90BF90F7
:104DE000AF909F908F9008952FB7F89460917408BA
:104DF0007091750880917608909177082FBF08957B
:104E00004F925F926F927F928F929F92AF92BF92DA
:104E1000EF92FF920F931F93CF93DF93CDB7DEB73F
:104E20006E970FB6F894DEBF0FBECDBF8C017B012D
:104E30006FE575E0CE010D960E94172BB701CE01EC
:104E400043960E940E2B6FE575E0CE0149960E94B5
:104E5000172B78012EE0E20EF11C0E94F426409000
:104E600084085090850860908608709087084B01F0
:104E70005C0184189508A608B7088091880890916D
:104E80008908A0918A08B0918B08E8EE8E16E3E0BD
:104E90009E06A104B104D0F00196A11DB11D80931E
:104EA000880890938908A0938A08B0938B08B3016F
:104EB000A20148515C4F6F4F7F4F4093840850933D
:104EC00085086093860870938708C7CF4091800853
:104ED000509181086091820870918308841795072A
:104EE000A607B70708F456C0E0917E08F0917F0846
:104EF000309709F44FC01995611571058105910529
:104F000039F1609388087093890880938A08909398
:104F10008B08DC01CB01845D9E4FAF4FBF4F809368
:104F2000800890938108A0938208B093830882E060
:104F300090E090937D0880937C080E94F426609313
:104F4000840870938508809386089093870822C010
:104F50008091880890918908A0918A08B0918B0867
:104F6000845D9E4FAF4FBF4F809380089093810820
:104F7000A0938208B093830881E090E020917C08A0
:104F800030917D08232B11F480E090E090937D0810
:104F900080937C088090880890908908A0908A0867
:104FA000B0908B08C501B4010E949C1D409164081B
:104FB00050E0B801CE0107960E94B6246FE877E072
:104FC000CE0107960E945A29C501B4010E949C1D7A
:104FD0004091630850E0B801CE0101960E94B624CA
:104FE000BE016F5F7F4FCE0107960E94B829CE01A8
:104FF00001960E944C2A6DE877E0CE0107960E9448
:105000005A29C501B4010E949C1D4091620850E0DC
:10501000B801CE0101960E94B624BE016F5F7F4F9A
:10502000CE0107960E94B829CE0101960E944C2A13
:10503000BE01695F7F4FCE0101960E940E2B6AE18F
:1050400076E0CE0101960E94D129B7010E94EA299B
:1050500068E176E00E94D129BE016D5E7F4F0E941B
:10506000EA29BC01CE0149960E94352ACE0101965B
:105070000E944C2ACE0107960E944C2A8D859E855F
:105080000097A9F0698D7A8D6115710571F04F85D2
:1050900058892D8D3E8D4217530738F00E94A54147
:1050A0008D8D9E8D9A8B898B12C00E940D40898DAB
:1050B0009A8D9E878D878B8D9C8D988B8F878D8DFC
:1050C0009E8D9A8B898B1A8E198E1C8E1B8E1E8E2E
:1050D0001D8ECE0149960E944C2ACE0143960E9415
:1050E0004C2ABE01635F7F4FF801808191810E944D
:1050F000402BCE010D960E944C2A6E960FB6F89466
:10510000DEBF0FBECDBFDF91CF911F910F91FF90FA
:10511000EF90BF90AF909F908F907F906F905F9037
:105120004F9008951F920F920FB60F9211242F9354
:105130003F938F939F93AF93BF9380917408909107
:105140007508A0917608B09177083091730823E034
:10515000230F2D3720F40196A11DB11D05C026E8AF
:10516000230F0296A11DB11D20937308809374082C
:1051700090937508A0937608B0937708809178088B
:1051800090917908A0917A08B0917B080196A11DB1
:10519000B11D8093780890937908A0937A08B09312
:1051A0007B08BF91AF919F918F913F912F910F906D
:1051B0000FBE0F901F9018950895CF92DF92EF9237
:1051C000FF920F931F93CF93DF936C017A018B01B2
:1051D000C0E0D0E0CE15DF0589F0D8016D918D01DA
:1051E000D601ED91FC910190F081E02DC601199559
:1051F000892B11F47E0102C02196ECCFC701DF910B
:10520000CF911F910F91FF90EF90DF90CF90089575
:105210000E948E416115710579F0FB01019000201B
:10522000E9F73197AF01461B570BDC01ED91FC917B
:105230000280F381E02D199480E090E008950F93AF
:105240001F93CF93DF93EC0188819981009729F018
:105250002A813B812617370788F48B016F5F7F4FC8
:105260000E94A540009761F0998388831B830A837D
:105270002C813D81232B11F4FC01108281E001C0BF
:1052800080E0DF91CF911F910F91089581E197E028
:105290000E94F42321E0892B09F420E0822F089555
:1052A0008EEA97E00E94F42321E0892B09F420E0A4
:1052B000822F0895EF92FF920F931F93CF93DF9366
:1052C0006115710511F480E01EC08B01EC01CB016A
:1052D0000E94CB440097B1F02C813D817C01E20E0D
:1052E000F31EB701CE010E941F29882361F3288194
:1052F00039818C819D81B801820F931F0E94C44423
:10530000FD82EC8281E0DF91CF911F910F91FF90A0
:10531000EF900895EF92FF920F931F93CF93DF9337
:10532000FC01248135816115710511F480E019C0FB
:1053300041155105A9F07B01EC018A01020F131FF1
:10534000B8010E941F29882389F3288139818C8123
:105350009D81B701820F931F0E94A5411D830C837D
:1053600081E0DF91CF911F910F91FF90EF90089511
:10537000FB0144815581608171810C948A29CF930E
:10538000DF93EC0188819981009711F00E940D4014
:10539000198218821D821C821B821A82DF91CF9192
:1053A0000895CF93DF93EC016115710561F0FB0166
:1053B00001900020E9F73197AF01461B570B0E947F
:1053C0008A29811103C0CE010E94BF29CE01DF913D
:1053D000CF910895CF93DF93EC01FB014481558178
:1053E000608171810E948A29811103C0CE010E94CF
:1053F000BF29CE01DF91CF910895EF92FF920F93D5
:105400001F93CF93DF93EC017B018A01BA010E94C5
:105410001F29811104C0CE010E94BF2907C01D832E
:105420000C83B701888199810E94A541CE01DF914B
:10543000CF911F910F91FF90EF900895CF93DF933D
:10544000EC016115710559F0FB0101900020E9F7AD
:105450003197AF01461B570B0E94FD2902C00E94E5
:10546000BF29CE01DF91CF910895CF93DF93EC0157
:10547000FB018617970761F06081718161157105E5
:1054800029F0448155810E94FD2902C00E94BF2954
:10549000CE01DF91CF910895FC01808191810C9420
:1054A0000D400F931F93CF93DF93CDB7DEB7619776
:1054B0000FB6F894DEBF0FBECDBF8C01CB01F80153
:1054C00011821082138212821582148250E0BE0172
:1054D0006F5F7F4F0E94FF44BE016F5F7F4FC80127
:1054E0000E941E2A61960FB6F894DEBF0FBECDBF94
:1054F000DF91CF911F910F9108950F931F93CF9339
:10550000DF93CDB7DEB762970FB6F894DEBF0FBE5C
:10551000CDBF8C01CB01F80111821082138212825F
:105520001582148250E0BE016F5F7F4F0E94D44409
:10553000BE016F5F7F4FC8010E941E2A62960FB6A0
:10554000F894DEBF0FBECDBFDF91CF911F910F91B9
:1055500008950F931F93CF93DF93CDB7DEB72997AD
:105560000FB6F894DEBF0FBECDBF8C01862FF801B9
:1055700011821082138212821582148250E0BE01C1
:105580006F5F7F4F90E00E94FF44BE016F5F7F4FCF
:10559000C8010E941E2A29960FB6F894DEBF0FBEDE
:1055A000CDBFDF91CF911F910F910895EF92FF92A0
:1055B0000F931F93CF93DF93EC01198218821B8204
:1055C0001A821D821C826115710509F18B01CB01C4
:1055D0000E94CB447C01BC01CE010E941F29811195
:1055E00009C0CE01DF91CF911F910F91FF90EF90F5
:1055F0000C94BF29FD82EC82B80188819981DF91EA
:10560000CF911F910F91FF90EF900C94C444DF91C4
:10561000CF911F910F91FF90EF900895FC0111829F
:10562000108213821282158214820C94352AFC0196
:105630001182108213821282158214826115710503
:1056400051F0FB0101900020E9F73197AF01461BB3
:10565000570B0C94FD2908950F931F93CF93DF935D
:10566000EC010E940A298C016DE575E0CE010E94D3
:105670000A29800F911FDF91CF911F910F910895FB
:105680000F931F93CF93DF93EC01E881F981DB0146
:1056900014964D915C9115976D917C910280F381E8
:1056A000E02D19958C016DE575E0CE010E940A2967
:1056B000800F911FDF91CF911F910F9108951F923D
:1056C0000F920FB60F9211240BB60F922F933F93A8
:1056D0004F935F936F937F938F939F93AF93BF93FA
:1056E000EF93FF9381E197E00E947125FF91EF9185
:1056F000BF91AF919F918F917F916F915F914F91EA
:105700003F912F910F900BBE0F900FBE0F901F90E7
:1057100018951F920F920FB60F9211240BB60F928D
:105720002F933F934F935F936F937F938F939F93A9
:10573000AF93BF93EF93FF938EEA97E00E9471259A
:10574000FF91EF91BF91AF919F918F917F916F9159
:105750005F914F913F912F910F900BBE0F900FBE15
:105760000F901F901895FC01A089B1898C91A68992
:10577000B78982FD0FC09C91818D8F5F8F73228DC1
:10578000821749F0218DDF01A20FB11D5D969C9318
:10579000818F08958C9108951F920F920FB60F92EA
:1057A00011240BB60F922F933F934F935F936F93F8
:1057B0007F938F939F93AF93BF93EF93FF9381E179
:1057C00097E00E94B32BFF91EF91BF91AF919F9112
:1057D0008F917F916F915F914F913F912F910F909A
:1057E0000BBE0F900FBE0F901F9018951F920F9237
:1057F0000FB60F9211240BB60F922F933F934F9336
:105800005F936F937F938F939F93AF93BF93EF9328
:10581000FF938EEA97E00E94B32BFF91EF91BF9127
:10582000AF919F918F917F916F915F914F913F9138
:105830002F910F900BBE0F900FBE0F901F901895D9
:10584000CF93DF9300D000D0CDB7DEB7BC01CE013F
:1058500001960E940E2BBE016F5F7F4F8CE79CE08C
:105860000E940027CE0101960E944C2A26960FB670
:10587000F894DEBF0FBECDBFDF91CF910895CF93D7
:10588000DF93CDB7DEB7CD55D1090FB6F894DEBFA3
:105890000FBECDBF789484B5826084BD84B581602D
:1058A00084BD85B5826085BD85B5816085BD8091EB
:1058B0006E00816080936E00109281008091810063
:1058C000826080938100809181008160809381005B
:1058D000809180008160809380008091B10084601D
:1058E0008093B1008091B00081608093B00080917E
:1058F00091008260809391008091910081608093FB
:105900009100809190008160809390008091A1002F
:1059100082608093A1008091A10081608093A100AA
:105920008091A00081608093A0008091210182601D
:1059300080932101809121018160809321018091D8
:10594000200181608093200180917A00846080939F
:105950007A0080917A00826080937A0080917A0048
:10596000816080937A0080917A00806880937A00C9
:105970001092C1004091800C5091810C6091820C7A
:105980007091830C80917C0C90917D0C0E947C1A0C
:105990001092800080E180938100FF24F394F092C4
:1059A0006F088FB780937008F89480E09DE790931C
:1059B0006E0880936D089093870080938600809195
:1059C00070088FBF80918100887F809381009091C3
:1059D000810080916F08982B909381002EEF33E027
:1059E0003093720820937108F0926F0090918100BB
:1059F000892B8093810080918100887F8093810032
:105A00006EE772E08E010F5F1F4FC8010E94D62A19
:105A1000C8010E94202CC8010E944C2A61E08DE23E
:105A20000E947E2661E08BE20E947E2661E089E290
:105A30000E947E2661E081E20E947E2661E084E38E
:105A40000E947E2661E083E30E947E2661E08FE271
:105A50000E947E2661E08AE20E947E2661E08BE061
:105A60000E947E2661E08AE00E947E2661E089E055
:105A70000E947E2661E08CE20E947E2661E08EE23A
:105A80000E947E2661E08CE00E947E2661E08DE02F
:105A90000E947E2661E088E00E947E2661E086E02A
:105AA0000E947E2661E087E00E947E2661E085E01C
:105AB0000E947E2660E083E00E947E2660E084E013
:105AC0000E947E2660E088E00E944E2660E08DE025
:105AD0000E944E2660E086E00E944E2660E087E04D
