:100000000C949F030C94D0030C94D0030C94D00355
:100010000C94D0030C94D0030C94D0030C94D00314
:100020000C94D0030C94D0030C94D0030C94D00304
:100030000C94D0030C94D0030C94D0030C94D003F4
:100040000C94D0030C94D0030C94D0030C94D003E4
:100050000C948E2B0C94D0030C94D0030C941E2D76
:100060000C94D0030C943C2A0C94CF290C94D0030C
:100070000C94D0030C94D0030C94D0030C94D003B4
:100080000C94D0030C94D0030C94D0030C94D003A4
:100090000C94D0030C94D0030C94D0030C94D00394
:1000A0000C94D0030C94D0030C94D0030C94D00384
:1000B0000C94D0030C94D0030C94D0030C94D00374
:1000C0000C94D0030C94D0030C94D0030C946715BB
:1000D0000C943D150C94D0030C94122A0C94A52971
:1000E0000C94D003140517051A05230526052905C8
:1000F0002C052F056305660569056C056F057205FE
:1001000075057E0587059005930596057F107F1080
:10011000901090109010A110A110B210FF2A022B85
:10012000F12AF52AFB2A392B062B0A2B102B142B2C
:10013000182B1E2B222B262B392B2C2B302B342B20
:100140000C947E050C9423270C9472050C94342B8C
:100150000C94FB2A0C941E2B0C94302B0C94290528
:100160000C9466050C94B2100C94A1100C94142BF2
:100170000C94D2030C9414050C94222B0C9475054A
:100180000C94F12A0C94FF2A0C9423050C949010E3
:100190000C94062B0C9463050C94992A0C94262B32
:1001A0000C94A72A0C942C050C9490050C949305A0
:1001B0000C940A2B0C94182B0C94852A0C94212C4B
:1001C0000C94F52A0C942C2B0C9417050C947F108E
:1001D0000C94063F0C9487050C94102B0C94690525
:1001E0000C94022B0C941A050C946C050C942605A7
:1001F0000C94DA2B0C94093A0C94392B0C94960538
:100200000C942F050C946F054C45442043757020C9
:1002100048616E646C65202D204F46460072656112
:1002200064206565702E2063757020737461636B44
:10023000657220706F732E203D20004F4B00437578
:100240007020737461636B6572203E3E204F4B00DB
:10025000454D5054590043757020737461636B654C
:1002600072203E3E20456D707479004F4646004F27
:100270004E004F4B00504F574552204F4E00232306
:1002800023206D696E69436F66666565204861630A
:100290006B20762E333033203E3E205374617274CF
:1002A0002E2E007772697465206565702E20697442
:1002B000656D5F70726963655B004F726465722083
:1002C0004E6F2E2069732057726F6E6720212100B8
:1002D0006D616B655369676E616C546F436F696ED6
:1002E000203E3E20556E7375636365737320212134
:1002F000004F72646572205061796F7574203E3EC4
:10030000204F4B004F72646572205061796F757495
:10031000203E3E2054696D656F7574002000554E77
:1003200053554343455353005472616E7361637474
:10033000696F6E203E3E20554E53554343455353FF
:10034000200053554343455353005472616E73610B
:100350006374696F6E203E3E2053554343455353AB
:100360002000454D505459004375702073746163EB
:100370006B6572203E3E20456D707479004F4B00D6
:1003800043757020737461636B6572203E3E204F2D
:100390004B004F4E00426F696C6572203E3E20500C
:1003A0006F776572204F4E004F464600426F696C72
:1003B0006572203E3E20506F776572204F464600A2
:1003C0004C4F57005761746572204C6576656C2000
:1003D0003E3E204C4F57004F4B00576174657220D2
:1003E0004C6576656C203E3E204F4B004F464600E4
:1003F00050756D70203E3E20436C6F736500455212
:10040000524F520050756D70203E3E204572726F03
:1004100072004F4E0050756D70203E3E204F70654B
:100420006E007772697465206565702E2063757043
:1004300020737461636B657220706F732E203D2092
:100440000072656164206565702E206974656D5F5A
:1004500070726963655B00300030300045004F4BBF
:10046000004F50454E00434C4F5345005365742098
:1004700050756D702031202D204F4E005365742033
:1004800050756D702031202D204F464600736574E5
:100490004C45444974656D53656C6563745077725F
:1004A000203E3E204E6F7420666F756E64202121C1
:1004B000003000003A003A0064617461203E3E2042
:1004C000656D707479212100526573657420436FE6
:1004D0006D706F7274212100526573706F6E736559
:1004E0002054696D656F757421210000436C6F7530
:1004F00064426F782052657475726E203E3E2052C1
:10050000455345540000436C6F7564426F78205228
:10051000657475726E203E3E204552524F52000067
:10052000436C6F7564426F782052657475726E20EB
:100530003C3C20425553590000436C6F7564426F38
:10054000782052657475726E203C3C20526561645F
:10055000790000436C6F7564426F78205265747542
:10056000726E203C3C204F4B005245414459004E96
:100570004F54205245414459004E4F54205245415A
:100580004459004E4F54205245414459004E4F5457
:10059000205245414459004E4F5420524541445940
:1005A000004E4F54205245414459004E4F54205262
:1005B00045414459004C4544204375702048616EC4
:1005C000646C65202D204F4E00434354414C4B003A
:1005D000434C4F5544424F5800434354414C4B2DDC
:1005E000444556494345002D002D002D002D002D7A
:1005F000002D002D002D002D002D002D002D002D93
:10060000003D003A0043422B534554400023000074
:1006100043422B55500023000000002100240027F6
:10062000002A002D00300033000101000004010702
:10063000010A0100002200250028002B002E0031B5
:1006400000340002010000050108010B0100002038
:10065000002300260029002C002F0032000001009A
:10066000000301060109010505050507050808083D
:1006700008020202020A0A08080404040401010133
:10068000010101010103030303030303030407073B
:10069000070C0C0C0C0C0C0C0C02020202060606D9
:1006A00006060606060B0B0B0B0B0B0B0B010210C1
:1006B000202008081020401020408002010201087C
:1006C000040201010204081020408080402010082C
:1006D0000402018004020180402010080402010885
:1006E00004020101020408102040800102040810E5
:1006F00020408000000A0B02090C0D0E08070304BD
:1007000001000000000000000000000000000000E8
:1007100000000000000000000000000000000012C7
:1007200011100000000000000000000000000000A8
:1007300000000000000000000000093A063F1124FC
:100740001FBECFEFD1E2DEBFCDBF00E00CBF16E091
:10075000A0E0B2E0E0E2FEE800E00BBF02C00790DC
:100760000D92AC37B107D9F72DE0ACE7B6E001C088
:100770001D92A634B207E1F713E0CEE9D3E000E022
:1007800006C021970109802FFE010E94FA3FCD3952
:10079000D10780E00807A9F70E94682D0C94FE4657
:1007A0000C940000CF9380910802833009F4D9C1E2
:1007B00034F4813059F0823009F46AC178C284304F
:1007C00009F4E8C1853009F43CC271C22091AA063F
:1007D0003091AB062115310509F40DC18091DE0C75
:1007E0009091DF0C2817390761F1203553EC35075C
:1007F00030F420348CE9380738F0C90102C08FE4A6
:1008000093EC80549C4919C0203395E7390720F0B8
:10081000C9018053954711C020325EE4350720F0AE
:10082000C90180529E4409C0203187E2380720F078
:10083000C9018051974201C0C9019093DF0C809398
:10084000DE0C4091D10C4130E1F038F0423009F437
:1008500057C0433009F48CC0C1C06AE070E00E9408
:10086000B03FFC01ED53F34F83812031374208F054
:100870008F7D90E09093D50C8093D40C8DEF90E019
:10088000A9C020323E4420F18A30910568F064E628
:1008900070E00E94B03F6AE070E00E94B03FFB0150
:1008A000ED53F34F838102C08091C60C90E090938A
:1008B000D50C8093D40C8091D40C9091D50C8F7D65
:1008C00099279093D50C8093D40C8FEE90E082C042
:1008D0008A30910570F064E670E00E94B03F6AE0F3
:1008E00070E00E94B03FFB01ED53F34F838190E035
:1008F000E8CF8FEF90E09093D50C8093D40C6AC032
:100900002033354720F18436910568F068EE73E0B6
:100910000E94B03F64E670E00E94B03FFB01ED53DF
:10092000F34F838102C08091C60C90E09093D50C68
:100930008093D40C8091D40C9091D50C8F7D992705
:100940009093D50C8093D40C87EF90E043C084360D
:10095000910578F268EE73E00E94B03F64E670E0C3
:100960000E94B03FFB01ED53F34F838190E0E8CF4D
:1009700020343C49D8F0883E23E0920748F068EEE6
:1009800073E00E94B03FFB01ED53F34F838102C03F
:100990008091C60C90E09093D50C8093D40C8091FC
:1009A000D40C9091D50C8F7D99270EC0883E53E0D2
:1009B000950708F49ECF68EE73E00E94B03FFB01FC
:1009C000ED53F34F838190E09093D50C8093D40C3A
:1009D0008BEF90E09093D70C8093D60C4F5F443010
:1009E00018F44093D10C02C01092D10C84ED9CE01D
:1009F000CF910C94EB228091D80C9091D90C019757
:100A00009093D90C8093D80C892B09F050C1809118
:100A1000D00C90E08830910550F5FC018827EE5805
:100A2000FF4F8F4F0C94FA3F8BEF90E005C087EF9C
:100A300090E017C08FEE90E09093D70C8093D60C87
:100A40000E94302314C08DEF90E00BC08DEF90E03A
:100A5000F3CF8FEE90E005C087EF90E0EDCF8BEF06
:100A600090E09093D70C8093D60C0E943A2380910B
:100A7000D00C8F5F883018F48093D00C02C0109295
:100A8000D00C86E990E09093D90C8093D80C0FC1DC
:100A90008091DA0C9091DB0C01979093DB0C8093A2
:100AA000DA0C892B09F003C19091D30C492F50E047
:100AB0004C30510508F046C0FA018827E658FF4F30
:100AC0008F4F0C94FA3F2EEF30E032C02EEF30E023
:100AD00020C02EEF30E014C02EEF30E008C02BEF26
:100AE00030E005C02FEE30E002C02FEB30E0309355
:100AF000D50C2093D40C2DEF30E020C02FEB30E04C
:100B00003093D50C2093D40C2FEE30E017C02FEB90
:100B100030E03093D50C2093D40C27EF30E00EC09A
:100B20002FEB30E005C02FE730E002C02DEF30E0C2
:100B30003093D50C2093D40C2BEF30E03093D70CAE
:100B40002093D60C24E130E03093DB0C2093DA0CB8
:100B50009F5F9C3018F49093D30C48CF1092D30C25
:100B600045CFC091D206C13059F008F474C0C230EC
:100B700061F0C33011F56DEF70E08BE590E01BC0C4
:100B800067EF70E082EC90E016C06FEE70E087EDEA
:100B900090E011C08091B40C882309F44DC0082E58
:100BA000000C990BC091D206C130A9F078F46BEF1C
:100BB00070E08BEC90E00E945423CF5FC093D2068C
:100BC000C43008F474C01092D20671C0C23041F033
:100BD000C330E1F0F2CF67EF70E083EE90E0EBCF4F
:100BE0008F3F2FEF920709F440C0843691051CF027
:100BF0006FEE70E017C08A309105BCF16AE070E0DA
:100C00000E94C43FCB016FEE70E033C08F3F5FEFB7
:100C1000950719F46DEF70E02AC0843691052CF029
:100C20006DEF70E089E090E024C06AE070E00E941F
:100C3000C43F6DEF70E01DC08091A906809308024B
:100C400036C0C091D206C13059F028F0C23069F0E8
:100C5000C33091F0B2CF6BEF70E083EC90E0ABCF9C
:100C600067EF70E088E090E0A6CF6FEE70E080E084
:100C700090E00E944423A1CF8091050283FD05C02E
:100C80006DEF70E081E090E0F4CF82FD05C06DEF84
:100C900070E082E090E0EDCF84FD05C06DEF70E084
:100CA00083E090E0E6CF81E08093080286CFCF9189
:100CB000089583E00E94432C21E0892B09F020E075
:100CC000822F0895CF93DF9300D000D0CDB7DEB749
:100CD000FC01EC57F94F20812617F9F06083823030
:100CE000910539F08330910531F0019741F484E3A7
:100CF00003C083E301C08FE20E946C2C0EC06DE83C
:100D000074E0CE0101960E941C29CE0101960E943A
:100D1000662ACE0101960E94922826960FB6F89474
:100D2000DEBF0FBECDBFDF91CF91089560E081E0BF
:100D300090E00E94620660E082E090E00E9462061D
:100D400060E083E090E00C9462060F931F93CF93D2
:100D5000DF938C01C1E0D0E0C017D10711F461E04E
:100D600001C060E0CE010E9462062196C430D10528
:100D700099F7DF91CF911F910F9108950F931F93D2
:100D8000CF93DF93EC010E94122D0091D4061091B5
:100D9000D5062091D6063091D706DC01CB01801B09
:100DA000910BA20BB30B8D329140A105B105C8F098
:100DB0008091D306811107C0CE010E94A50681E073
:100DC0008093D30604C00E9496061092D3060E9418
:100DD000122D6093D4067093D5068093D606909317
:100DE000D7060E94122D0091D4061091D5062091AD
:100DF000D6063091D706601771078207930750F423
:100E00000E94122D6093D4067093D5068093D60667
:100E10009093D706DF91CF911F910F910895E1E84C
:100E2000F0E090818091E308892B808308951092EF
:100E30000802E1E8F0E08081887F80830895CF9206
:100E4000DF92EF92FF920F931F936B017C010E9440
:100E5000122D00919C0610919D0620919E063091C6
:100E60009F06601771078207930750F40E94122DA6
:100E700060939C0670939D0680939E0690939F06B8
:100E80000E94122D00919C0610919D0620919E06B5
:100E900030919F06AB01BC01401B510B620B730BE1
:100EA00081E0C416D506E606F70608F080E01F913B
:100EB0000F91FF90EF90DF90CF900895E0E9F6E07A
:100EC0001182128213821092A5061092A706109228
:100ED000A606E3ECFCE0158686E990E0968B858B10
:100EE000108A84E190E0908F878B08951F93CF93B1
:100EF000DF9300D000D0CDB7DEB7182F8CE20E9470
:100F0000432C21E0892B09F420E0121721F1112351
:100F100081F06CE674E0CE0101960E941C29CE019E
:100F200001960E94662ACE0101960E94922861E0F5
:100F30000FC06CE774E0CE0101960E941C29CE011F
:100F400001960E94662ACE0101960E94922860E0D6
:100F50008CE20E946C2C26960FB6F894DEBF0FBE72
:100F6000CDBFDF91CF911F9108958F929F92AF9245
:100F7000BF92EF92FF921F93CF93DF9300D000D0E8
:100F8000CDB7DEB780E30E94432C11E0892B09F432
:100F900010E08091D106181761F00E94122D609325
:100FA000CD067093CE068093CF069093D006109313
:100FB000D1060E94122D8090CD069090CE06A09072
:100FC000CF06B090D006DC01CB0188199909AA0997
:100FD000BB09893E9340A105B10558F40E94122D2A
:100FE000681579058A059B0520F080910C028823FD
:100FF00089F12091050230910602812F90E021FBBA
:10100000EE24E0F8F12C8E159F0521F480910C025E
:10101000882301F1112311F0226001C02D7F30934C
:101020000602209305028091050281FF03C066E657
:1010300074E002C061E674E0CE0101960E941C29B2
:10104000CE0101960E943210CE0101960E94922894
:1010500010920C02812F26960FB6F894DEBF0FBEB9
:10106000CDBFDF91CF911F91FF90EF90BF90AF90D8
:101070009F908F9008951F93CF93DF93CDB7DEB7E6
:1010800068970FB6F894DEBF0FBECDBF1091B40CB9
:10109000111118C06EE574E0CE0101960E941C2962
:1010A000CE0101960E94F80FCE0101960E9492286F
:1010B00080910502909106028062909306028093CF
:1010C00005027EC06CE574E0CE0101960E941C29E9
:1010D0001F3F29F5BE016F5F7F4FCE0107960E942B
:1010E000542969E574E0CE0107960E94A02781117A
:1010F00004C0CE0107960E940528BE01695F7F4F9C
:10110000CE010D960E945429CE010D960E94F80F33
:10111000CE010D960E949228CE01079642C0612F03
:10112000012E000C770B4AE0CE010D961A30B4F474
:101130000E94C328BE016F5F7F4FCE0107960E94B9
:10114000542967E574E0CE0107960E94A02781111B
:101150000EC0CE0107960E94052809C00E94C32830
:10116000BE016F5F7F4FCE0107960E945429BE01DA
:10117000635F7F4FCE0107960E943028BC01CE01ED
:1011800043960E945429CE0143960E94F80FCE0147
:1011900043960E949228CE0107960E949228CE0183
:1011A0000D960E94922880910502909106028F7DF3
:1011B0009093060280930502CE0101960E94922828
:1011C00068960FB6F894DEBF0FBECDBFDF91CF910A
:1011D0001F9108955F926F927F928F929F92AF922C
:1011E000BF92CF92DF92EF92FF920F931F93CF9314
:1011F000DF93CDB7DEB7A0970FB6F894DEBF0FBE72
:10120000CDBF66246394712C552453948E010F5FD7
:101210001F4F96E4E92E93E0F92E22E3C22E23E03D
:10122000D22E82E0681629F093E0691621F082E35D
:1012300003C085E301C081E30E94432C21E0892B98
:1012400009F420E0F301E457F94F4F012083C30173
:101250008857994F5C01FC0180818217E9F02111C8
:1012600009C0F301E057F94F50827F926F92DF92ED
:10127000CF9204C07F926F92FF92EF921F930F93D1
:101280000E947F420F900F900F900F900F900F9041
:10129000F4018081F5018083FFEF6F1A7F0A84E0FB
:1012A0006816710409F0BDCFA0960FB6F894DEBFA2
:1012B0000FBECDBFDF91CF911F910F91FF90EF90A7
:1012C000DF90CF90BF90AF909F908F907F906F9066
:1012D0005F900895CF93DF93CDB7DEB768970FB6D1
:1012E000F894DEBF0FBECDBF62E274E0CE0101967E
:1012F0000E941C296091A80680E190E00E94F046BF
:101300006AE070E080E090E00E94D82C6091A8062E
:10131000062E000C770B4AE0CE010D960E94C328E2
:10132000BE016F5F7F4FCE0107960E945429BE0118
:10133000635F7F4FCE0107960E943028BC01CE012B
:1013400043960E945429CE0143960E94662ACE01FC
:1013500043960E949228CE0107960E949228CE01C1
:101360000D960E949228CE0101960E9492286896BE
:101370000FB6F894DEBF0FBECDBFDF91CF910895B9
:10138000E4E9F6E082819381883E934010F0138275
:101390001282329686E0EA39F807A1F708958F9213
:1013A0009F92AF92BF92CF92DF92EF92FF921F93E4
:1013B000CF93DF93CDB7DEB762970FB6F894DEBF59
:1013C0000FBECDBF86E9A82E86E0B82E92EAE92EA0
:1013D00096E0F92E11E02AE0C22ED12CC6010E941F
:1013E000E846982EC60101960E94E846292D30E075
:1013F000A901582BCA014501F50151834083209171
:10140000050230910602F701892BD9F480818068AA
:101410008083123039F0133071F02F7B3093060245
:101420002093050280910502909106029E7F909381
:1014300006028093050280910502909106029B7F2F
:101440001AC080818F778083123039F0133071F0A9
:10145000206430930602209305028091050290914A
:101460000602916090930602809305028091050226
:1014700090910602946090930602809305020E9468
:10148000C00961E474E0CE010D960E941C294AE077
:10149000612FCE0107960E94EF28BE01695F7F4F42
:1014A000CE0101960E9454296CE472E0CE010196AF
:1014B0000E941728BC01CE010D960E94FE27CE0186
:1014C00001960E949228CE0107960E949228F2E08F
:1014D000AF0EB11CF401608171814AE0CE0101962A
:1014E0000E949728BE016F5F7F4FCE010D960E942C
:1014F000FE27CE0101960E949228BE01635F7F4FB6
:10150000CE0101960E945429CE0101960E94662ABE
:10151000CE0101960E949228CE010D960E9492283B
:10152000F2E0CF0ED11C1F5F4FEFE41AF40A143023
:1015300009F054CF62960FB6F894DEBF0FBECDBF50
:10154000DF91CF911F91FF90EF90DF90CF90BF90F0
:10155000AF909F908F90089585E30E94432C21E0E7
:10156000892B09F420E0822F0895CF92DF92EF9229
:10157000FF920F931F93CF93DF9300D000D0CDB78E
:10158000DEB78DE10E94432C2091C80630E082171F
:10159000930799F08DE10E94432C21E0892B09F4F7
:1015A00020E02093C8060E94122D6093C406709319
:1015B000C5068093C6069093C7060E94122DC09060
:1015C000C406D090C506E090C606F090C706DC01C0
:1015D000CB018C199D09AE09BF098D329140A1053F
:1015E000B10528F480910A02882309F46CC08DE1CA
:1015F0000E94432C2091050230910602892B11F0A4
:10160000206101C02F7E30930602209305022091B5
:1016100005028091C30690E024FB002700F910E04A
:101620008017910729F480910A02882309F45CC08D
:1016300024FF1DC06AED73E0CE0101960E941C29B3
:10164000CE0101960E94662ACE0101960E94922840
:1016500067ED73E0CE0101960E941C29CE01019630
:101660000E949111CE0101960E94922823C064EC41
:1016700073E0CE0101960E941C29CE0101960E94C2
:10168000662ACE0101960E94922860EC73E0CE019A
:1016900001960E941C29CE0101960E949111CE0153
:1016A00001960E949228809108028093A90685E005
:1016B0008093080280910502829581708093C30611
:1016C00010920A0211C00E94122D6C157D058E0524
:1016D0009F0550F40E94122D6093C4067093C506B6
:1016E0008093C6069093C7068091050284FD34C09E
:1016F0008CE20E94432C892B79F580910B02882380
:1017000059F181E00E94760765E174E0CE0101960F
:101710000E941C29CE0101960E94662ACE010196E4
:101720000E94922862E174E0CE0101960E941C2979
:1017300060E0CE0101960E94550FCE0101960E94F5
:1017400092280E94122D6093C9067093CA06809356
:10175000CB069093CC0682C08CE20E94432C892B4E
:1017600009F47CC08091050284FD39C00E94122DCD
:101770000091C9061091CA062091CB063091CC0683
:10178000DC01CB01801B910BA20BB30B81349C4974
:10179000A105B10508F462C080E00E94760764E00C
:1017A00074E0CE0101960E941C29CE0101960E9490
:1017B000662ACE0101960E9492286EEF73E0CE0158
:1017C00001960E941C2961E0CE0101960E94550FEE
:1017D000CE0101960E94922810920B023FC00E94F7
:1017E000122DC090C906D090CA06E090CB06F090AA
:1017F000CC06DC01CB018C199D09AE09BF098134EF
:101800009C49A105B10538F40E94122D6C157D0587
:101810008E059F0518F580E00E94760760EF73E063
:10182000CE0101960E941C29CE0101960E94662AD3
:10183000CE0101960E9492286CEE73E0CE010196D3
:101840000E941C2961E0CE0101960E94550FCE0135
:1018500001960E94922881E080930B0226960FB693
:10186000F894DEBF0FBECDBFDF91CF911F910F91D6
:10187000FF90EF90DF90CF900895CF92DF92EF929C
:10188000FF921F93CF93DF93C82F0E94122D6B01FD
:101890007C0110E0D0E00E94B50A0E942317CE011F
:1018A0000E94BE060E94122D6C157D058E059F05B7
:1018B00020F40E94122D6B017C010E94122DDC018C
:1018C000CB018C199D09AE09BF09893C9105A10581
:1018D000B10558F48FE10E94432C892BE1F20E945C
:1018E000122D6B017C0111E0D6CF812FDF91CF91BA
:1018F0001F91FF90EF90DF90CF9008950F931F936B
:1019000085E20E94432C892B61F40E94122D609382
:101910007C0670937D0680937E0690937F0681E01F
:1019200027C00E94122D00917C0610917D06209107
:101930007E0630917F06DC01CB01801B910BA20B50
:10194000B30B853F9140A105B10588F40E94122D8B
:1019500000917C0610917D0620917E0630917F06D5
:10196000601771078207930710F08FEF01C080E0C6
:101970001F910F9108950F931F93CF93DF9300D082
:1019800000D0CDB7DEB70E947E0C209105023091C9
:101990000602811102C0286003C0813029F4277F2C
:1019A0003093060220930502209105028091C20621
:1019B00090E023FB002700F910E08017910729F43D
:1019C00080910902882309F44BC023FF1DC06CEAF3
:1019D00073E0CE0101960E941C29CE0101960E945F
:1019E000662ACE0101960E94922868EA73E0CE0131
:1019F00001960E941C29CE0101960E945711CE012A
:101A000001960E94922823C065E973E0CE010196F9
:101A10000E941C29CE0101960E94662ACE010196E1
:101A20000E94922862E973E0CE0101960E941C296F
:101A3000CE0101960E945711CE0101960E94922874
:101A4000809108028093A90685E080930802809126
:101A5000050283FB882780F98093C2061092090251
:101A600026960FB6F894DEBF0FBECDBFDF91CF91A3
:101A70001F910F91089561E085E00C946C2CCF923A
:101A8000DF92EF92FF920F931F93CF93DF93CDB727
:101A9000DEB762970FB6F894DEBF0FBECDBF0E94CF
:101AA0005906811106C061E086E00E946C2CF12C81
:101AB00006C060E086E00E946C2CFF24F39460E096
:101AC00085E00E946C2C0E94C41200E010E0EE241D
:101AD000E3948BE9C82E8FE0D82E0E94B50A0E94AD
:101AE000231783E20E94432C892B69F066E173E09F
:101AF000CE0101960E945D29CE0101960E94662AC0
:101B0000CE01019657C061E087E00E946C2CC601AF
:101B10000197F1F760E087E00E946C2CC601019705
:101B2000F1F70E945906882311F0E11031C0FF201F
:101B300009F47CC00E945906811176C081E080932F
:101B4000A8064AE0B801CE0107960E94972860E7F0
:101B500073E0CE0101960E945D29BE01695F7F4F4F
:101B6000CE0101960E943028BC01CE010D960E9444
:101B70005429CE010D960E94662ACE010D960E9430
:101B80009228CE0101960E949228CE01079612C09B
:101B90000E943B0D6CE271E080E090E00E94D82C46
:101BA00060E086E00E946C2C60E085E00E946C2C76
:101BB000E12CC0CF0E9492280E943B0D0E946A092E
:101BC0006091A806633681F46CE573E0CE0101965E
:101BD0000E945D29CE0101960E94662ACE010196DF
:101BE0000E9492286091A806062E000C770B4AE00E
:101BF000CE0101960E94C32861E0CE0101960E94A9
:101C0000CB11CE0101960E94922862960FB6F894ED
:101C1000DEBF0FBECDBFDF91CF911F910F91FF901F
:101C2000EF90DF90CF900895FF24F3940F5F1F4F44
:101C3000093883E1180709F050CF83E68093A8069E
:101C4000BBCF4F925F926F927F928F929F92AF9293
:101C5000BF92CF92DF92EF92FF920F931F93CF9399
:101C6000DF934B015C018091EF069091F006A0910B
:101C7000F106B091F20688169906AA06BB0609F489
:101C8000C2C08CE3C82ED12CE12CF12CC501B401CB
:101C9000A70196010E94D83F6093E806CA01B901E6
:101CA000A70196010E94D83F6093E906CA01B901D5
:101CB00028E130E040E050E00E94D83F69017A011D
:101CC0006093EA06CA01B9016C5F7F4F8F4F9F4F47
:101CD00027E030E040E050E00E94D83F6F5F609323
:101CE000EB06412C512C320140E004E610E0C0E943
:101CF000D1E0242F30E02E54384FF901E370FF2754
:101D0000309789F4C901B8010E94C43F892B31F48E
:101D1000C901BE010E94C43F892B29F48EE691E0DF
:101D2000A0E0B0E004C08DE691E0A0E0B0E0480E95
:101D3000591E6A1E7B1ED301C201AA27BB27C816E3
:101D4000D906EA06FB0610F04F5FD3CF4093EE06AC
:101D5000309799F4C90164E670E00E94C43F892B72
:101D600039F4C90160E971E00E94C43F892B29F46C
:101D70008EE691E0A0E0B0E004C08DE691E0A0E046
:101D8000B0E0481A590A6A0A7B0AC418D508E6085E
:101D9000F708C90164E670E00E94C43FEC01C90184
:101DA00060E971E00E94C43FA3E1B2E020E021308D
:101DB00039F4309749F4209729F4009729F402C0A8
:101DC0004C9103C04DE101C04CE150E060E070E097
:101DD000C416D506E606F70640F0C41AD50AE60A88
:101DE000F70A2F5F11962C3011F72F5F2093ED0625
:101DF000C394C092EC068092EF069092F006A092F7
:101E0000F106B092F206DF91CF911F910F91FF90F2
:101E1000EF90DF90CF90BF90AF909F908F907F908A
:101E20006F905F904F9008958AE097E00E94A72AF4
:101E300021E0892B09F420E0822F0895EF92FF9290
:101E40000F931F93CF93DF9300D000D0CDB7DEB7B1
:101E50008C017A0163EB74E00E941C298AE0E81689
:101E6000F1042CF461EB74E0C8010E94A0274AE061
:101E7000B701CE0101960E94C328BE016F5F7F4F5C
:101E8000C8010E94FE27CE0101960E949228C80137
:101E900026960FB6F894DEBF0FBECDBFDF91CF916F
:101EA0001F910F91FF90EF9008951F93CF93DF93B1
:101EB000CDB7DEB762970FB6F894DEBF0FBECDBFC9
:101EC000162FBC01CE0101960E94542961E67CE0E8
:101ED000CE0107960E9454296DE37CE0CE010D9659
:101EE0000E945429AE014F5F5F4FBE01695F7F4F73
:101EF000CE010D960E944F24CE010D960E9492288D
:101F0000CE0107960E949228CE0101960E94922847
:101F100011110E94022462960FB6F894DEBF0FBE24
:101F2000CDBFDF91CF911F9108950F931F93CF9352
:101F3000DF93CDB7DEB769970FB6F894DEBF0FBE5B
:101F4000CDBF282F8B016DE37CE0CE014396298F16
:101F50000E945429298D223061F0233091F02130E4
:101F6000C1F5B801CE0101960E94542963E77CE0D7
:101F70000FC0B801CE0101960E9454296FE77CE0A2
:101F800007C0B801CE0101960E9454296BE87CE09D
:101F9000CE0107960E945429BE016D5E7F4FCE018F
:101FA0000D960E945429AE014F5F5F4FBE01695FDD
:101FB0007F4FCE010D960E944F24CE010D960E94B8
:101FC0009228CE0107960E949228CE0101960E9487
:101FD0009228CE0143960E94922869960FB6F894F3
:101FE000DEBF0FBECDBFDF91CF911F910F9108953E
:101FF000CF93DF93CDB7DEB762970FB6F894DEBF0D
:102000000FBECDBFBC01CE0101960E94542967E6E8
:102010007CE0CE0107960E9454296DE37CE0CE015E
:102020000D960E945429AE014F5F5F4FBE01695F5C
:102030007F4FCE010D960E944F24CE010D960E9437
:102040009228CE0107960E949228CE0101960E9406
:10205000922862960FB6F894DEBF0FBECDBFDF9117
:10206000CF910895CF93DF93CDB7DEB762970FB6C8
:10207000F894DEBF0FBECDBFBC01CE0101960E9419
:10208000542969E47CE0CE0107960E9454296DE34F
:102090007CE0CE010D960E945429AE014F5F5F4F48
:1020A000BE01695F7F4FCE010D960E944F24CE0185
:1020B0000D960E949228CE0107960E949228CE018A
:1020C00001960E94922862960FB6F894DEBF0FBE6A
:1020D000CDBFDF91CF910895CF93DF9300D000D093
:1020E000CDB7DEB790E0FC013897E830F10508F095
:1020F0004AC08827EA57FF4F8F4F0C94FA3F68E792
:1021000073E0CE0101960E945D29CE0101960E94E6
:10211000C11DCE0101960E94922881E090E035C059
:102120006BE873E0CE0101960E945D29CE01019615
:102130000E94C11DCE0101960E94922882E090E08B
:1021400024C06EE973E0CE0101960E945D29CE01A4
:1021500001960E94C11DCE0101960E94922885E041
:1021600090E013C061EB73E0CE0101960E945D29FF
:10217000CE0101960E94C11DCE0101960E949228B7
:102180008AE090E002C080E090E026960FB6F894D6
:10219000DEBF0FBECDBFDF91CF910895CF93DF9308
:1021A000CDB7DEB762970FB6F894DEBF0FBECDBFD6
:1021B000BC01CE0101960E9454296FE47CE0CE015F
:1021C00007960E9454296DE37CE0CE010D960E9493
:1021D0005429AE014F5F5F4FBE01695F7F4FCE0153
:1021E0000D960E944F24CE010D960E949228CE019A
:1021F00007960E949228CE0101960E94922862962C
:102200000FB6F894DEBF0FBECDBFDF91CF9108951A
:10221000CF93DF93CDB7DEB762970FB6F894DEBFEA
:102220000FBECDBF2091F508223079F065EC73E048
:10223000CE0101960E945D29CE0101960E94622383
:10224000CE0101960E94922829C0BC01CE010196C0
:102250000E9454296DE97CE0CE0107960E94542922
:1022600067E97CE0CE010D960E945429AE014F5FD4
:102270005F4FBE01695F7F4FCE010D960E944F24D4
:10228000CE010D960E949228CE0107960E949228B8
:10229000CE0101960E9492280E94022462960FB6F7
:1022A000F894DEBF0FBECDBFDF91CF910895CF93DD
:1022B000DF93CDB7DEB762970FB6F894DEBF0FBEDF
:1022C000CDBFBC01CE0101960E94542965E57CE09A
:1022D000CE0107960E9454296DE37CE0CE010D9655
:1022E0000E945429AE014F5F5F4FBE01695F7F4F6F
:1022F000CE010D960E944F24CE010D960E94922889
:10230000CE0107960E949228CE0101960E94922843
:1023100062960FB6F894DEBF0FBECDBFDF91CF91AE
:102320000895CF93DF93CDB7DEB762970FB6F894D9
:10233000DEBF0FBECDBFBC01CE0101960E94542965
:102340006BE57CE0CE0107960E9454296DE37CE0AA
:10235000CE010D960E945429AE014F5F5F4FBE0122
:10236000695F7F4FCE010D960E944F24CE010D96DE
:102370000E949228CE0107960E949228CE010196D3
:102380000E94922862960FB6F894DEBF0FBECDBFB2
:10239000DF91CF9108951F93CF93DF93CDB7DEB731
:1023A00062970FB6F894DEBF0FBECDBF162FBC01EB
:1023B000CE0101960E94542961E97CE0CE01079686
:1023C0000E9454296DE37CE0CE010D960E945429B1
:1023D000AE014F5F5F4FBE01695F7F4FCE010D962B
:1023E0000E944F24CE010D960E949228CE0107969E
:1023F0000E949228CE0101960E94922811110E94FB
:10240000022462960FB6F894DEBF0FBECDBFDF91F7
:10241000CF911F910895CF93DF9320910B0C3091B2
:102420000C0C232B79F0FC01C091070CD091080C07
:1024300060817181CE010E946542009719F08C1B6A
:102440009D0B02C08FEF9FEFDF91CF910895CF9248
:10245000DF92EF92FF920F931F93CF93DF93EC01E4
:102460006A017B01E889F98982E080834115514E38
:1024700061057105B1F060E079E08DE390E0A701BE
:1024800096010E94D83F89019A0101501109210942
:102490003109369527951795079598010115104133
:1024A000A8F0E889F989108260E874E88EE190E08C
:1024B000A70196010E94D83FDA01C9010197A1093D
:1024C000B109B695A795979587959C01EC85FD85F3
:1024D0003083EE85FF852083188EEC89FD8986E0A8
:1024E0008083EA89FB89808180618083EA89FB8916
:1024F000808188608083EA89FB898081806880830D
:10250000EA89FB8980818F7D8083DF91CF911F9144
:102510000F91FF90EF90DF90CF9008950F931F934E
:102520000E94122D0091FB081091FC082091FD08DB
:102530003091FE08601771078207930750F40E94DC
:10254000122D6093FB087093FC088093FD08909314
:10255000FE080E94122D0091FB081091FC082091AA
:10256000FD083091FE08DC01CB01801B910BA20B12
:10257000B30B21E088389341A105B10508F420E0B0
:10258000822F1F910F910895E3ECFCE08FEF90E014
:10259000928B818B948B838B84ED9CE00C94EB224B
:1025A000CF93DF93CDB7DEB762970FB6F894DEBF57
:1025B0000FBECDBFBC01CE0101960E94542967E336
:1025C0007CE0CE0107960E94542961E37CE0CE01B5
:1025D0000D960E945429AE014F5F5F4FBE01695FA7
:1025E0007F4FCE010D960E944F24CE010D960E9482
:1025F0009228CE0107960E949228CE0101960E9451
:1026000092280E94022462960FB6F894DEBF0FBE95
:10261000CDBFDF91CF9108950F931F93CF93DF9399
:10262000CDB7DEB769970FB6F894DEBF0FBECDBF4A
:10263000282F8B016DE37CE0CE014396298F0E9409
:102640005429298D223069F02330A1F02130D9F5A9
:102650004AE0B801CE0101960E9497286DE67CE021
:1026600011C04AE0B801CE0101960E94972869E79F
:102670007CE008C04AE0B801CE0101960E9497288C
:1026800065E87CE0CE0107960E945429BE016D5E8C
:102690007F4FCE010D960E945429AE014F5F5F4FD0
:1026A000BE01695F7F4FCE010D960E944F24CE017F
:1026B0000D960E949228CE0107960E949228CE0184
:1026C00001960E949228CE0143960E949228699614
:1026D0000FB6F894DEBF0FBECDBFDF91CF911F9133
:1026E0000F9108952091D10C2F5F243018F420937E
:1026F000D10C02C01092D10C2091D10C2130F9F0F4
:1027000070F02230D1F1233009F051C080E590E023
:102710009093D50C8093D40C8BEF90E044C06AE08A
:1027200070E00E94B03FFC01ED53F34F838190E0D5
:102730009093D50C8093D40C8DEF90E034C08A3008
:102740009105A0F064E670E00E94B03F6AE070E09E
:102750000E94B03FFB01ED53F34F838190E09093D3
:10276000D50C8093D40C8FEE90E01DC08FEF90E0DD
:102770009093D50C8093D40C16C084369105B0F399
:1027800068EE73E00E94B03F64E670E00E94B03FE4
:10279000FB01ED53F34F838190E09093D50C809330
:1027A000D40C87EF90E09093D70C8093D60C84EDF7
:1027B0009CE00C94EB220F931F930E94122D00912A
:1027C000A90C1091AA0C2091AB0C3091AC0C6017A5
:1027D00071078207930750F40E94122D6093A90C91
:1027E0007093AA0C8093AB0C9093AC0C0E94122DAA
:1027F0000091A90C1091AA0C2091AB0C3091AC0C5B
:10280000DC01CB01801B910BA20BB30B21E0843FB9
:102810009140A105B10508F420E0822F1F910F918E
:1028200008951F93CF93DF9300D000D0CDB7DEB7CC
:10283000182F8091AD0C1817D1F0112319F06DEC01
:1028400073E002C069EE73E0CE0101960E945D293B
:10285000CE0101960E94FF1FCE0101960E94922890
:10286000612F8091B80C0E946C2C1093AD0C0E94CB
:10287000122D6093A90C7093AA0C8093AB0C9093CB
:10288000AC0C0E94DB13811103C00E94E21DF9CF42
:1028900026960FB6F894DEBF0FBECDBFDF91CF9165
:1028A0001F910895CF93DF93CDB7DEB762970FB630
:1028B000F894DEBF0FBECDBF4AE0682FCE0101966F
:1028C0000E94EF2869E17CE0CE0107960E9454291E
:1028D00063E17CE0CE010D960E945429AE014F5F6A
:1028E0005F4FBE01695F7F4FCE010D960E944F245E
:1028F000CE010D960E949228CE0107960E94922842
:10290000CE0101960E94922862960FB6F894DEBF1F
:102910000FBECDBFDF91CF910895CF93DF93CDB799
:10292000DEB762970FB6F894DEBF0FBECDBF4AE0A8
:10293000BC01CE0101960E9497286FE17CE0CE0198
:1029400007960E94542963E17CE0CE010D960E9417
:102950005429AE014F5F5F4FBE01695F7F4FCE01CB
:102960000D960E944F24CE010D960E949228CE0112
:1029700007960E949228CE0101960E9492286296A4
:102980000FB6F894DEBF0FBECDBFDF91CF91089593
:10299000CF93DF93CDB7DEB762970FB6F894DEBF63
:1029A0000FBECDBF4AE0BC01CE0101960E94972820
:1029B00065E27CE0CE0107960E94542963E17CE049
:1029C000CE010D960E945429AE014F5F5F4FBE01AC
:1029D000695F7F4FCE010D960E944F24CE010D9668
:1029E0000E949228CE0107960E949228CE0101965D
:1029F0000E94922862960FB6F894DEBF0FBECDBF3C
:102A0000DF91CF910895CF93DF93CDB7DEB7629773
:102A10000FB6F894DEBF0FBECDBFBC01CE0101964C
:102A20000E9454296BE27CE0CE0107960E94542953
:102A300063E17CE0CE010D960E945429AE014F5F08
:102A40005F4FBE01695F7F4FCE010D960E944F24FC
:102A5000CE010D960E949228CE0107960E949228E0
:102A6000CE0101960E94922862960FB6F894DEBFBE
:102A70000FBECDBFDF91CF9108951F920F920FB679
:102A80000F9211240BB60F922F933F934F935F93A6
:102A90006F937F938F939F93AF93BF93EF93FF9326
:102AA0008AE097E00E94B92BFF91EF91BF91AF911F
:102AB0009F918F917F916F915F914F913F912F9156
:102AC0000F900BBE0F900FBE0F901F9018951F9286
:102AD0000F920FB60F9211240BB60F922F933F93C4
:102AE0004F935F936F937F938F939F93AF93BF9316
:102AF000EF93FF938AE097E00E94F929FF91EF910D
:102B0000BF91AF919F918F917F916F915F914F9105
:102B10003F912F910F900BBE0F900FBE0F901F9003
:102B200018954F925F926F927F928F929F92AF9281
:102B3000BF92EF92FF920F931F93CF93DF93CDB786
:102B4000DEB76E970FB6F894DEBF0FBECDBF8C0117
:102B50007B016FE476E0CE010D960E945D29B701FE
:102B6000CE0143960E9454296FE476E0CE01499647
:102B70000E945D2978012EE0E20EF11C0E94122DC8
:102B80004090E0065090E1066090E2067090E30607
:102B90004B015C0184189508A608B7088091E406EB
:102BA0009091E506A091E606B091E706E8EE8E1654
:102BB000E3E09E06A104B104D0F00196A11DB11D71
:102BC0008093E4069093E506A093E606B093E706AB
:102BD000B301A20148515C4F6F4F7F4F4093E00615
:102BE0005093E1066093E2067093E306C7CF4091ED
:102BF000DC065091DD066091DE067091DF068417D9
:102C00009507A607B70708F456C0E091DA06F091D9
:102C1000DB06309709F44FC01995611571058105E0
:102C2000910539F16093E4067093E5068093E6061A
:102C30009093E706DC01CB01845D9E4FAF4FBF4F01
:102C40008093DC069093DD06A093DE06B093DF064A
:102C500082E090E09093D9068093D8060E94122DCE
:102C60006093E0067093E1068093E2069093E3069A
:102C700022C08091E4069091E506A091E606B0910D
:102C8000E706845D9E4FAF4FBF4F8093DC06909365
:102C9000DD06A093DE06B093DF0681E090E0209190
:102CA000D8063091D906232B11F480E090E0909360
:102CB000D9068093D8068090E4069090E506A0900F
:102CC000E606B090E706C501B4010E94210E4091CE
:102CD000EA0650E0B801CE0107960E941E0F66EB8F
:102CE00074E0CE0107960E94A027C501B4010E949E
:102CF000210E4091E90650E0B801CE0101960E94F4
:102D00001E0FBE016F5F7F4FCE0107960E94FE2708
:102D1000CE0101960E94922864EB74E0CE010796E2
:102D20000E94A027C501B4010E94210E4091E8062F
:102D300050E0B801CE0101960E941E0FBE016F5FE8
:102D40007F4FCE0107960E94FE27CE0101960E947A
:102D50009228BE01695F7F4FCE0101960E945429DF
:102D600066E074E0CE0101960E941728B7010E9428
:102D7000302864E074E00E941728BE016D5E7F4F2A
:102D80000E943028BC01CE0149960E947B28CE01CA
:102D900001960E949228CE0107960E9492288D8566
:102DA0009E850097A9F0698D7A8D6115710571F086
:102DB0004F8558892D8D3E8D4217530738F00E945C
:102DC0005E428D8D9E8D9A8B898B12C00E94C6406B
:102DD000898D9A8D9E878D878B8D9C8D988B8F8703
:102DE0008D8D9E8D9A8B898B1A8E198E1C8E1B8EC3
:102DF0001E8E1D8ECE0149960E949228CE014396CA
:102E00000E949228BE01635F7F4FF801808191810B
:102E10000E948629CE010D960E9492286E960FB6CA
:102E2000F894DEBF0FBECDBFDF91CF911F910F9100
:102E3000FF90EF90BF90AF909F908F907F906F909A
:102E40005F904F900895CF92DF92EF92FF920F9391
:102E50001F93CF93DF93CDB7DEB762970FB6F89489
:102E6000DEBF0FBECDBF9091F4088091F508992385
:102E700009F44BC08F3F41F40E948E12882309F45D
:102E800088C11092F40885C10E948E12882309F42B
:102E900080C11092F40868ED74E0CE0101960E94A2
:102EA0001C29CE0101960E946223CE0101960E9448
:102EB00092288091F6088F5F8093F6088B3008F493
:102EC0005EC068EC74E0CE0101960E941C29CE0120
:102ED00001960E946223CE0101960E94922840E052
:102EE00052EC61E070E08091F2089091F3080E944A
:102EF00027128091F2089091F308DC01ED91FC918A
:102F00000284F385E02D19953AC08430E1F568E03C
:102F100074E0CE0101960E945D29CE0101960E94C7
:102F20006223CE0101960E94922867E975E08091A4
:102F3000F2089091F3080E9472298091F208909112
:102F4000F308DC01ED91FC910284F385E02D1995E5
:102F500064E670E080E090E00E94D82C61E088E0B8
:102F60000E946C2C0E94122D6093FB087093FC0849
:102F70008093FD089093FE0881E08093F4088FEF22
:102F80008093F50806C18F3F39F567E174E08DE065
:102F90009CE00E94642840E052EC61E070E0809187
:102FA000F2089091F3080E94271267E174E0809183
:102FB000F2089091F3080E9472298091F208909192
:102FC000F308DC01ED91FC910284F385E02D199565
:102FD00081E08093F408B4C4823039F10E94122D4C
:102FE0000091030910910409209105093091060907
:102FF000DC01CB01801B910BA20BB30B89389341F1
:10300000A105B10508F076C40E94122D00910309B4
:103010001091040920910509309106096017710784
:103020008207930708F466C4B4C08091F7089091B2
:10303000F8082091F9083091FA08821B930B8F77DA
:103040009927892B09F47FC08091F9089091FA089B
:1030500016E0189FF001199FF00D1124E95FF64F5B
:1030600084819581892B09F45AC08091F908909147
:10307000FA08189FB001199F700D1124695F764FEF
:103080008091F2089091F3080E9486298091F208BD
:103090009091F308DC01ED91FC910284F385E02D21
:1030A0001995E090F908F090FA0860E274E0CE011A
:1030B00001960E945D291E9DB0011F9D700D112477
:1030C000695F764FCE0101960E943028BC01CE0187
:1030D00007960E945429CE0107960E946223CE01D2
:1030E00007960E949228CE0101960E94922881E0C4
:1030F0008093F4080E94122D6093FB087093FC08E3
:103100008093FD089093FE080E94122D6093FF08A3
:103110007093000980930109909302090EC068EB37
:1031200074E0CE0101960E941C29CE0101960E94F6
:103130006223CE0101960E94922868E274E08DE03D
:103140009CE00E9464280E94122D0091FF081091BB
:1031500000092091010930910209DC01CB01801B9B
:10316000910BA20BB30B89389341A105B10508F06F
:10317000F2C30E94122D0091FF08109100092091C6
:10318000010930910209601771078207930708F45B
:10319000E2C38091F2089091F308DC01ED91FC917B
:1031A0000480F581E02D1995892B09F478C180916F
:1031B000F2089091F308DC01ED91FC910680F78113
:1031C000E02D1995182F89831A8241E050E0BE0145
:1031D0006F5F7F4F87E09CE00E94D0271092F60837
:1031E0001D3009F05CC16DE274E0CE0107960E94CB
:1031F0005D2967E07CE0CE0107960E943028BC0183
:10320000CE0101960E945429CE0101960E946223AC
:10321000CE0101960E949228CE0107960E94922824
:103220008091110C9091120C892B79F168E274E075
:1032300080910D0C90910E0C0E945542892B29F51E
:103240008091070C9091080C009719F00E94564548
:1032500003C060E070E0CB012091F9083091FA08DA
:10326000890120E030E0601771078207930709F0B9
:1032700010C18091F9089091FA0801968F779927EB
:103280009093FA088093F90802C167E975E0CE01CE
:1032900001960E945D29CE0101960E940B128C01BD
:1032A000CE0101960E9492280F3F1F4F79F163E5EE
:1032B00075E0CE0101960E941C29CE0101960E9464
:1032C0006223CE0101960E94922862E575E0CE014C
:1032D00001960E941C29CE0101960E946223CE0114
:1032E00001960E9492288091110C9091120C892BCA
:1032F00009F4CDC067E174E080910D0C90910E0C43
:103300000E945542892B09F48FC0C1C06CE874E05B
:10331000CE0101960E945D29CE0101960E940B12FA
:103320008C01CE0101960E9492280F3F1F4FF1F0B1
:1033300069E375E0CE0101960E941C29CE01019639
:103340000E946223CE0101960E94922868E375E0F4
:10335000CE0101960E941C29CE0101960E94622393
:10336000CE0101960E94922882E08FC066E374E04D
:10337000CE0101960E945D29CE0101960E940B129A
:103380008C01CE0101960E9492280F3F1F4FF1F051
:1033900060E275E0CE0101960E941C29CE010196E3
:1033A0000E946223CE0101960E9492286FE175E08F
:1033B000CE0101960E941C29CE0101960E94622333
:1033C000CE0101960E94922883E05FC067EF72E011
:1033D000CE0101960E945D29CE0101960E940B123A
:1033E0008C01CE0101960E9492280F3F1F4FF1F0F1
:1033F00066E075E0CE0101960E941C29CE0101967F
:103400000E946223CE0101960E94922865E075E039
:10341000CE0101960E941C29CE0101960E946223D2
:10342000CE0101960E94922881E02FC06BE374E0E8
:10343000CE0101960E945D29CE0101960E940B12D9
:103440008C01CE0101960E9492280F3F1F4F09F177
:103450006CEE74E0CE0101960E941C29CE0101960B
:103460000E946223CE0101960E9492286BEE74E0C6
:10347000CE0101960E941C29CE0101960E94622372
:10348000CE0101960E94922884E08093F508109264
:10349000F4086FE476E087E09CE00E9464280E94D4
:1034A000B50720910502309106028091F3069091B4
:1034B000F4068217930709F469C08091040221FD84
:1034C00006C0882309F458C06BEA75E01CC025FDCE
:1034D00006C0882309F450C061EA75E014C0A90150
:1034E00040745570452B31F4882309F445C067E9D1
:1034F00075E009C0A90140785A70452BA1F48823D2
:10350000D9F16DE875E0CE0101960E941C2960E0BA
:10351000CE0101960E94C624CE0101960E949228F7
:103520001092040229C022FD05C0882329F163E816
:1035300075E0E9CF23FD05C08823F1F069E775E068
:10354000E2CF24FD05C08823B9F06FE675E0DBCF3C
:10355000813091F069E675E0CE0101960E941C2948
:1035600060E0CE0101960E94C624CE0101960E9421
:10357000922881E0809304020E9402248091050237
:10358000909106029093F4068093F30687E20E94DE
:10359000432C892B59F40E94122D6093800670935E
:1035A0008106809382069093830617C00E94122D95
:1035B0000091800610918106209182063091830649
:1035C000DC01CB01801B910BA20BB30B813D97401B
:1035D000A105B10510F40E94122D0E947E0C80916D
:1035E000A006882329F10E94122D6093F60670939D
:1035F000F7068093F8069093F9068091F5068111FD
:1036000015C065EB75E0CE0101960E941C29CE0124
:1036100001960E94662ACE0101960E94922861E0DE
:103620008EE20E946C2C81E08093F5061092A00639
:103630008091F5068823D9F10E94122DC090F606DC
:10364000D090F706E090F806F090F906DC01CB0187
:103650008C199D09AE09BF0989389341A105B105AF
:10366000A8F068E072E0CE0101960E941C29CE010C
:1036700001960E94662ACE0101960E94922860E07F
:103680008EE20E946C2C1092F50611C00E94122D41
:103690006C157D058E059F0550F40E94122D6093D8
:1036A000F6067093F7068093F8069093F9068091DA
:1036B0000907882321F00E94EA08109209078091E7
:1036C0000807882309F493C08091B40C81118DC040
:1036D0008091BD0C882309F488C08091BA0C8F5F5B
:1036E0008093BA0C823008F480C082E090E090931E
:1036F000010D8093000D1092020D81E090E09093F7
:10370000040D8093030D85EE90E09093060D809359
:10371000050D88E180930F0D0E94A21F81E0809328
:103720003B0D60E085E00E94041FF82E882309F419
:103730000FC26FE476E0CE010D960E945D290E94D3
:10374000FB1DE12CD12C0E2D1D2D8091F60C90919E
:10375000F70CDC01ED91FC910480F581E02D1995C9
:10376000892B09F429C10031110509F049C190E103
:10377000E92ED12C23C18091200D882309F498C112
:1037800080911F0D281709F4A7C18091200D0E9478
:103790006C108C0180911F0D80933C0D0F3F09F43C
:1037A0009EC18091AF0C9091B00C800F911D07FDD0
:1037B0009A959093B00C8093AF0C8091BC0C8823A9
:1037C00091F064E674E0CE0101960E945D29CE017D
:1037D00001960E94FF1FCE0101960E9492280E942E
:1037E00066201092BC0C1092BA0C109208078091BF
:1037F0000707882399F08CE00E94432C61E0892B15
:1038000009F060E08CE00E946C2C8CE00E94432C5C
:10381000682F8DE00E946C2C10920707809106079C
:103820008111109206070E94122D60930207709377
:1038300003078093040790930507C090FE06D0907D
:10384000FF06E0900007F09001078B019C010C1926
:103850001D092E093F090230110521053105D8F156
:103860002091FD062C19260F2093FD066093FE067D
:103870007093FF0680930007909301072A3008F4A5
:1038800071C11092FD069091FC069F5F9093FC061B
:1038900081E0809309079A3008F464C11092FC0615
:1038A0009091FB069F5F9093FB06809308079530ED
:1038B00008F458C11092FB069091FA069F5F90930E
:1038C000FA0680930707923008F44CC11092FA066A
:1038D0008093060747C16C157D058E059F0508F08E
:1038E00041C16093FE067093FF068093000790939A
:1038F000010738C169E874E08DE09CE00E9464280B
:1039000069E874E08091F2089091F3080E947229AE
:103910008091F2089091F308DC01ED91FC91028412
:10392000F385E02D199581E08093F4080E94122D13
:103930006093030970930409809305099093060925
:103940000E94122D6093FB087093FC088093FD0881
:103950009093FE081ECC69E874E08DE09CE00E9424
:10396000642869E874E08091F2089091F3080E945D
:1039700072298091F2089091F308DC01ED91FC919D
:103980000284F385E02D199581E08093F4080E946C
:10399000122D6093FB087093FC088093FD089093B0
:1039A000FE080E94122D6093FF0870930009809317
:1039B000010990930209EDCBE02ED12E0E94061E44
:1039C000882391F061E474E0CE0101960E945D29A4
:1039D000CE0101960E94C11DCE0101960E9492283F
:1039E0000E94E21DF12C04C00031110509F0ABCE9C
:1039F000CE010D960E949228FF2009F4A9C035C07F
:103A00008091F60C9091F70CDC01ED91FC91068011
:103A1000F781E02D1995E82E4AE0682FCE01019636
:103A20000E94EF28BE016F5F7F4FCE0107960E9474
:103A3000542966E074E0CE0107960E941728BC0165
:103A4000CE010D960E94FE27CE0107960E94922875
:103A5000CE0101960E949228F801EC50F34FE7A2A4
:103A60000F5F1F4F0E94FB1D70CE80911F0D209194
:103A70003C0D90E0821B910902970CF47CCEF090F3
:103A80001F0DF21AEF2DEE0F00E010E08EEFE82E82
:103A9000EE0EFF2009F47ECEED5FF0E0EC50F34F28
:103AA00087A10E946C10080F191FFA94EE2DEECF1B
:103AB00080911F0D281310C08091210D8E3051F47C
:103AC00080913E0D8F5F80933E0D853128F01092DE
:103AD0003E0D05C010923E0D00E010E05BCE4AE0C6
:103AE0006091BC0CCE0107960E94EF2869E674E055
:103AF000CE010D960E945D29BE01695F7F4FCE0108
:103B00000D960E943028BC01CE0101960E945429D6
:103B1000CE0101960E94FF1FCE0101960E949228BD
:103B2000CE010D960E949228CE0107960E949228FF
:103B30008091BC0C8F5F8093BC0C8B3008F453CE0B
:103B40000E94202081E08093BD0C0E94B62049CEC7
:103B50004AE06091BC0CCE0107960E94EF2862E912
:103B600074E0C6CF62960FB6F894DEBF0FBECDBF2D
:103B7000DF91CF911F910F91FF90EF90DF90CF9049
:103B80000895CF93DF9300D000D0CDB7DEB7BC014E
:103B9000CE0101960E945429BE016F5F7F4F809134
:103BA000F40C9091F50C0E949115CE0101960E94A3
:103BB000922826960FB6F894DEBF0FBECDBFDF91D8
:103BC000CF9108958091F60C9091F70CDC01ED9166
:103BD000FC910480F581E02D1995892B59F0809195
:103BE000F60C9091F70CDC01ED91FC910680F781C9
:103BF000E02D199408950E94122D6093FC0C70938F
:103C0000FD0C8093FE0C9093FF0C08950F931F936F
:103C10000E94122D0091FC0C1091FD0C2091FE0CC5
:103C20003091FF0C601771078207930710F40E9410
:103C3000FB1D0E94122D0091FC0C1091FD0C209197
:103C4000FE0C3091FF0CDC01CB01801B910BA20B11
:103C5000B30B21E0883C9105A105B10508F420E0F3
:103C6000822F1F910F910895CF92DF92FF920F93B1
:103C70001F93CF93DF93CDB7DEB762970FB6F8945B
:103C8000DEBF0FBECDBF6FE476E0CE010D960E9481
:103C90005D290E94FB1D00E010E08091F60C9091E0
:103CA000F70CDC01ED91FC910480F581E02D199574
:103CB000892B41F00530110509F04EC085E0C82E72
:103CC000D12C01C068010E94061EF82E811125C06A
:103CD000B5E0CB16D10409F760ED74E0CE0107968C
:103CE0000E945D29BE01635F7F4FCE0107960E944F
:103CF0003028BC01CE0101960E945429CE010196C4
:103D00000E94C11DCE0101960E949228CE01079605
:103D10000E9492280530110511F0F12C62C020E0BC
:103D200080E090E0FC01EC50F34F348D230F0196BE
:103D300085309105B9F78091120D883221F080917C
:103D4000120D8230F1F58091130D81113AC02111CD
:103D500038C0FF24F39445C08091F60C9091F70C85
:103D6000DC01ED91FC910680F781E02D1995F82E8C
:103D70004AE0682FCE0107960E94EF28BE01695FD6
:103D80007F4FCE0101960E94542966E074E0CE0177
:103D900001960E941728BC01CE010D960E94FE27B5
:103DA000CE0101960E949228CE0107960E94922889
:103DB000F801EC50F34FF48E0F5F1F4F0E94FB1D74
:103DC0006CCF6DED74E0CE0101960E945D29CE01AD
:103DD00001960E94C11DCE0101960E9492280E9468
:103DE000E21DCE010D960E9492288F2D62960FB68D
:103DF000F894DEBF0FBECDBFDF91CF911F910F9121
:103E0000FF90DF90CF9008950F931F93CF93DF9390
:103E1000CDB7DEB762970FB6F894DEBF0FBECDBF49
:103E2000182F062F6FE476E0CE010D960E945D29D3
:103E30000E94FB1D112309F454C08091F60C90914F
:103E4000F70CDC01ED91FC910480F581E02D1995D2
:103E5000892B81F18091F60C9091F70CDC01ED91AA
:103E6000FC910680F781E02D1995002301F14AE0CD
:103E7000682FCE0107960E94EF28BE01695F7F4F31
:103E8000CE0101960E94542966E074E0CE010196AD
:103E90000E941728BC01CE010D960E94FE27CE017C
:103EA00001960E949228CE0107960E9492281150F6
:103EB0000E94FB1D0E94061E882309F4BBCF6CEFF5
:103EC00074E0CE0101960E945D29CE0101960E9408
:103ED000C11DCE0101960E9492280E94E21D10E0B1
:103EE00021C00023F1F06EE175E0CE0107960E943B
:103EF0005D29BE01635F7F4FCE0107960E94302887
:103F0000BC01CE0101960E945429CE0101960E9467
:103F1000C11DCE0101960E949228CE0107960E94F3
:103F2000922811E0CE010D960E949228812F629670
:103F30000FB6F894DEBF0FBECDBFDF91CF911F91BA
:103F40000F910895FF920F931F93CF93DF93CDB7F7
:103F5000DEB7C058D1090FB6F894DEBF0FBECDBF93
:103F60008091000D89830091020D0A838091030DD9
:103F70008B838091050D8C83FE01359680E090E067
:103F800010E08017910744F4DC01AC50B34F539616
:103F90002C9121930196F5CF0C5F1F4FE1E0F0E0EB
:103FA000EC0FFD1FE00FF11F80910F0D8083F12CAE
:103FB0002F2D30E002171307A4F08091F60C90919A
:103FC000F70CDC01ED91FC91A1E0B0E0AC0FBD1F5E
:103FD000A20FB31F0190F081E02D6C911995F3941D
:103FE000E7CF80E0C058DF4F0FB6F894DEBF0FBEBA
:103FF000CDBFDF91CF911F910F91FF900895CF9387
:10400000DF9300D000D0CDB7DEB7BC01CE01019662
:104010000E945429BE016F5F7F4F8091A30C909145
:10402000A40C0E949115CE0101960E94922826961A
:104030000FB6F894DEBF0FBECDBFDF91CF910895CC
:10404000CF93DF9300D000D0CDB7DEB78091B40C12
:10405000811133C06DE275E0CE0101960E945D29A9
:10406000CE0101960E94C11DCE0101960E949228A8
:1040700082E090E09093010D8093000D81E08093A9
:10408000020D81E090E09093040D8093030D84EE87
:1040900090E09093060D8093050D1092070D88E136
:1040A00080930F0D0E94A21F61E086E00E94041F12
:1040B00081110E94341E1092BD0C26960FB6F89402
:1040C000DEBF0FBECDBFDF91CF9108951F93CF9379
:1040D000DF9300D000D0CDB7DEB78091B40C811152
:1040E0003BC06FE375E0CE0101960E945D29CE01D1
:1040F00001960E94C11DCE0101960E94922882E085
:1041000090E09093010D8093000D11E01093020D4B
:1041100081E090E09093040D8093030D84EE90E095
:104120009093060D8093050D1093070D87E1809302
:104130000F0D0E94A21F61E086E00E94041F8823E9
:1041400039F00E94341E882319F01093BD0C04C06E
:104150001092BD0C0E94B62026960FB6F894DEBFD2
:104160000FBECDBFDF91CF911F910895EF92FF92C7
:104170000F931F93CF93DF93CDB7DEB762970FB640
:10418000F894DEBF0FBECDBF60E575E0CE010196AD
:104190000E945D29CE0101960E94C11DCE010196AB
:1041A0000E94922882E090E09093010D8093000D90
:1041B0001092020D81E090E09093040D8093030D26
:1041C0009093060D8093050D8CEF80930F0D0E9448
:1041D000A21F61E085E00E94041F882339F00E943D
:1041E000341E81111CC060E675E002C060E775E016
:1041F000CE0101960E945D29CE0101960E94C11D4B
:10420000CE0101960E9492280E94E21D8FEF8093BA
:10421000B40C8091B50C8F3F09F075C094C08091AB
:10422000B40C8F3F71F460E875E0CE0101960E94F6
:104230005D29CE0101960E94FF1FCE0101960E94CA
:10424000922868EC70E080E090E00E94D82C82E038
:1042500090E09093010D8093000D1092020D81E08B
:1042600090E09093040D8093030D88EE90E090937E
:10427000060D8093050D85E180930F0D0E94A21F0E
:1042800061E085E00E94041F882349F16FE476E035
:10429000CE010D960E945D290E94FB1DE12CF12CA0
:1042A00087018091F60C9091F70CDC01ED91FC9167
:1042B0000480F581E02D1995892B09F4E6C00630BC
:1042C000110509F024C186E0E82EF12C0E94061E9B
:1042D000882309F4DCC0CE010D960E94922868EC78
:1042E00070E080E090E00E94D82C6091410D6093D6
:1042F000B40C662309F44FC08091B50C16160CF46B
:1043000088C0681701F16AEE75E0CE0101960E943F
:104310005D29CE0101960E94FF1FCE0101960E94E9
:10432000922867E076E0CE0101960E945D29CE01D9
:1043300001960E94FF1FCE0101960E949228809153
:10434000B40C8093B50C8091B40C811122C0809183
:10435000B50C882391F06EE176E0CE0101960E94C3
:104360005D29CE0101960E94FF1FCE0101960E9499
:1043700092288091B40C8093B50C0E94122D60930A
:10438000A90C7093AA0C8093AB0C9093AC0C81E0B9
:1043900015C180E013C160EB75E0CE0101960E946B
:1043A0005D29CE0101960E94C11DCE0101960E9499
:1043B000922882E090E09093010D8093000D80930D
:1043C000020D81E090E09093040D8093030D87EE41
:1043D00090E09093060D8093050D80E88093070D83
:1043E0008FEF8093080D85E980930F0D0E94A21F27
:1043F00061E087E00E94041F81110E94341E8091B9
:10440000BD0C882319F00E9466209DCF0E942020B9
:104410009ACF6A3074F4681709F495CF062E000C11
:10442000770B4AE0CE0107960E94C3286FEB75E038
:104430000DC0681709F487CF062E000C770B4AE0F1
:10444000CE0107960E94C32865ED75E0CE010D965A
:104450000E945D29BE01695F7F4FCE010D960E94CB
:104460003028BC01CE0101960E945429CE0101964C
:104470000E94FF1FCE0101960E949228CE010D9648
:104480000E949228CE01079658CF78011FCF0630A0
:10449000110509F005CF6AE975E0CE0101960E9489
:1044A0005D29BE01635F7F4FCE0101960E943028D7
:1044B000BC01CE0107960E945429CE0107960E94A6
:1044C000C11DCE0107960E949228CE0101960E943E
:1044D0009228B6E0EB16F10409F0FDCE20E080E072
:1044E00090E0FC01EC50F34F31A1230F0196863090
:1044F0009105B9F78091120D883221F08091120D4B
:104500008230D1F5211138C08091190D54C08091AD
:10451000F60C9091F70CDC01ED91FC910680F7818F
:10452000E02D1995F82E4AE0682FCE0101960E94E1
:10453000EF28BE016F5F7F4FCE0107960E9454297E
:1045400066E074E0CE0107960E941728BC01CE01F8
:104550000D960E94FE27CE0107960E949228CE015A
:1045600001960E949228F801EC50F34FF1A20F5FE0
:104570001F4F0E94FB1D95CE67E376E0CE010196AA
:104580000E945D29CE0101960E94C11DCE010196B7
:104590000E94922860E576E0CE0101960E945D2996
:1045A000CE0101960E94C11DCE0101960E94922863
:1045B0000E94E21D8FEF8093410D8DCE62960FB663
:1045C000F894DEBF0FBECDBFDF91CF911F910F9149
:1045D000FF90EF900895AF92BF92CF92DF92EF924B
:1045E000FF920F931F93CF93DF936C0160E0809154
:1045F000C50C0E946C2CE6012496BA90AA9008E0A3
:1046000010E090E8E92EF12C60E08091C30C0E944C
:104610006C2C61E097012A213B21232B09F460E0F7
:104620008091C40C0E946C2C61E08091C30C0E94AC
:104630006C2CF594E7940150110931F7CC15DD0588
:10464000E1F661E08091C50CDF91CF911F910F9150
:10465000FF90EF90DF90CF90BF90AF900C946C2CB8
:1046600087E290E09093D50C8093D40C84ED9CE08D
:104670000C94EB2280EF90E09093D50C8093D40CB7
:1046800084ED9CE00C94EB22E3ECFCE08D53934F23
:10469000DC0113968C9190E0928B818B748B638BF1
:1046A00084ED9CE00C94EB22E3ECFCE02FEF30E097
:1046B000281B390B328B218B748B638B84ED9CE030
:1046C0000C94EB22CF93DF9300D000D0CDB7DEB7B0
:1046D000BC01CE0101960E945429BE016F5F7F4F3D
:1046E0008091F0089091F1080E949115CE010196F9
:1046F0000E94922826960FB6F894DEBF0FBECDBF5B
:10470000DF91CF9108950F931F93CF93DF93CDB790
:10471000DEB762970FB6F894DEBF0FBECDBF8C0137
:104720006FE476E0CE010D960E945D29F801848148
:104730009581892B09F457C064E676E0CE010D9689
:104740000E9464286091F7087091F8084AE0CE0151
:1047500007960E949728BE01695F7F4FCE010196A0
:104760000E9454296CE472E0CE0101960E94172841
:10477000BC01CE010D960E94FE27CE0101960E943B
:104780009228CE0107960E949228B801CE010D967C
:104790000E94FE27BE01635F7F4FCE0101960E94FB
:1047A0005429CE0101960E946223CE0101960E94F7
:1047B00092282091F7083091F80846E0429FC00106
:1047C000439F900D1124B801895F964F0E947B286A
:1047D0008091F7089091F80801968F779927909328
:1047E000F8088093F708CE010D960E9492286296F1
:1047F0000FB6F894DEBF0FBECDBFDF91CF911F91F2
:104800000F910895CF93DF93CDB7DEB72C970FB6F6
:10481000F894DEBF0FBECDBF68E176E0CE0107960B
:104820000E941C2966E176E0CE0107960E94A0272F
:104830006091F7087091F8084AE0CE0101960E9455
:104840009728BE016F5F7F4FCE0107960E94FE271B
:10485000CE0101960E94922860E176E0CE01079693
:104860000E94A027BE01695F7F4FCE0101960E9482
:104870005429CE0101960E948323CE0101960E9405
:104880009228CE0107960E94922880E02C960FB6BF
:10489000F894DEBF0FBECDBFDF91CF910895CF92C8
:1048A000DF92EF92FF920F931F93CF93DF93CDB7D9
:1048B000DEB72C970FB6F894DEBF0FBECDBF6C01EC
:1048C0007B018A016FE076E0CE0107960E941C29E9
:1048D0006DE076E0CE0107960E94A0276091F70870
:1048E0007091F8084AE0CE0101960E949728BE0117
:1048F0006F5F7F4FCE0107960E94FE27CE01019683
:104900000E94922865E076E0CE0107960E94A027DB
:10491000B601CE0107960E94FE2763E076E0CE0145
:1049200007960E94A027B701CE0107960E94FE2796
:1049300061E076E0CE0107960E94A027B801CE0183
:1049400007960E94FE27BE01695F7F4FCE01019648
:104950000E945429CE0101960E948323CE01019624
:104960000E949228CE0107960E94922880E02C9601
:104970000FB6F894DEBF0FBECDBFDF91CF911F9170
:104980000F91FF90EF90DF90CF900895FF920F93DB
:104990001F93CF93DF93CDB7DEB762970FB6F8942E
:1049A000DEBF0FBECDBF8C01F62EBC01CE0101963D
:1049B0000E94542963E47CE0CE0107960E945429AA
:1049C0006DE37CE0CE010D960E945429AE014F5F4D
:1049D0005F4FBE01695F7F4FCE010D960E944F244D
:1049E000CE010D960E949228CE0107960E94922831
:1049F000CE0101960E949228F80184819581892B2D
:104A000009F411C26FE676E0808191810E945542DF
:104A1000892B09F008C26FEF75E0CE0101960E9464
:104A20001C2969E47CE0CE0107960E9454296DE3BD
:104A30007CE0CE010D960E945429AE014F5F5F4F7E
:104A4000BE01695F7F4FCE010D960E944F24CE01BB
:104A50000D960E949228CE0107960E949228CE01C0
:104A600001960E9492286DEF75E0CE0101960E949A
:104A70001C296FE47CE0CE0107960E9454296DE367
:104A80007CE0CE010D960E945429AE014F5F5F4F2E
:104A9000BE01695F7F4FCE010D960E944F24CE016B
:104AA0000D960E949228CE0107960E949228CE0170
:104AB00001960E9492286BEF75E0CE0101960E944C
:104AC0001C2965E57CE0CE0107960E9454296DE320
:104AD0007CE0CE010D960E945429AE014F5F5F4FDE
:104AE000BE01695F7F4FCE010D960E944F24CE011B
:104AF0000D960E949228CE0107960E949228CE0120
:104B000001960E94922869EF75E0CE0101960E94FD
:104B10001C296BE57CE0CE0107960E9454296DE3C9
:104B20007CE0CE010D960E945429AE014F5F5F4F8D
:104B3000BE01695F7F4FCE010D960E944F24CE01CA
:104B40000D960E949228CE0107960E949228CE01CF
:104B500001960E94922867EF75E0CE0101960E94AF
:104B60001C2961E67CE0CE0107960E9454296DE382
:104B70007CE0CE010D960E945429AE014F5F5F4F3D
:104B8000BE01695F7F4FCE010D960E944F24CE017A
:104B90000D960E949228CE0107960E949228CE017F
:104BA00001960E94922865EF75E0CE0101960E9461
:104BB0001C2967E67CE0CE0107960E9454296DE32C
:104BC0007CE0CE010D960E945429AE014F5F5F4FED
:104BD000BE01695F7F4FCE010D960E944F24CE012A
:104BE0000D960E949228CE0107960E949228CE012F
:104BF00001960E94922863EF75E0CE0101960E9413
:104C00001C296DE67CE0CE0107960E9454296DE3D5
:104C10007CE0CE010D960E945429AE014F5F5F4F9C
:104C2000BE01695F7F4FCE010D960E944F24CE01D9
:104C30000D960E949228CE0107960E949228CE01DE
:104C400001960E94922861EF75E0CE0101960E94C4
:104C50001C2963E77CE0CE0107960E9454296DE38E
:104C60007CE0CE010D960E945429AE014F5F5F4F4C
:104C7000BE01695F7F4FCE010D960E944F24CE0189
:104C80000D960E949228CE0107960E949228CE018E
:104C900001960E9492286FEE75E0CE0101960E9467
:104CA0001C2969E77CE0CE0107960E9454296DE338
:104CB0007CE0CE010D960E945429AE014F5F5F4FFC
:104CC000BE01695F7F4FCE010D960E944F24CE0139
:104CD0000D960E949228CE0107960E949228CE013E
:104CE00001960E9492286DEE75E0CE0101960E9419
:104CF0001C296FE77CE0CE0107960E9454296DE3E2
:104D00007CE0CE010D960E945429AE014F5F5F4FAB
:104D1000BE01695F7F4FCE010D960E944F24CE01E8
:104D20000D960E949228CE0107960E949228CE01ED
:104D300001960E9492286BEE75E0CE0101960E94CA
:104D40001C2965E87CE0CE0107960E9454296DE39A
:104D50007CE0CE010D960E945429AE014F5F5F4F5B
:104D6000BE01695F7F4FCE010D960E944F24CE0198
:104D70000D960E949228CE0107960E949228CE019D
:104D800001960E94922869EE75E0CE0101960E947C
:104D90001C296BE87CE0CE0107960E9454296DE344
:104DA0007CE0CE010D960E945429AE014F5F5F4F0B
:104DB000BE01695F7F4FCE010D960E944F24CE0148
:104DC0000D960E949228CE0107960E949228CE014D
:104DD00001960E94922867EE75E0CE0101960E942E
:104DE0001C2961E97CE0CE0107960E9454296DE3FD
:104DF0007CE0CE010D960E945429AE014F5F5F4FBB
:104E0000BE01695F7F4FCE010D960E944F24CE01F7
:104E10000D960E949228CE0107960E949228CE01FC
:104E200001960E949228F1100E94022462960FB609
:104E3000F894DEBF0FBECDBFDF91CF911F910F91D0
:104E4000FF9008950895CF92DF92EF92FF920F9313
:104E50001F93CF93DF936C017A018B01C0E0D0E008
:104E6000CE15DF0589F0D8016D918D01D601ED9148
:104E7000FC910190F081E02DC6011995892B11F468
:104E80007E0102C02196ECCFC701DF91CF911F9127
:104E90000F91FF90EF90DF90CF9008950E944742CE
:104EA0006115710579F0FB0101900020E9F7319758
:104EB000AF01461B570BDC01ED91FC910280F381A1
:104EC000E02D199480E090E008950F931F93CF9305
:104ED000DF93EC0188819981009729F02A813B8139
:104EE0002617370788F48B016F5F7F4F0E945E4162
:104EF000009761F0998388831B830A832C813D810D
:104F0000232B11F4FC01108281E001C080E0DF91CD
:104F1000CF911F910F91089587EA97E00E94A72AE9
:104F200021E0892B09F420E0822F089584E498E0A1
:104F30000E94A72A21E0892B09F420E0822F0895FE
:104F4000EF92FF920F931F93CF93DF93611571053B
:104F500011F480E01EC08B01EC01CB010E9484455E
:104F60000097B1F02C813D817C01E20EF31EB70168
:104F7000CE010E946527882361F3288139818C81C5
:104F80009D81B801820F931F0E947D45FD82EC82B6
:104F900081E0DF91CF911F910F91FF90EF900895E5
:104FA000EF92FF920F931F93CF93DF93FC01248125
:104FB00035816115710511F480E019C04115510565
:104FC000A9F07B01EC018A01020F131FB8010E94B6
:104FD0006527882389F3288139818C819D81B701D8
:104FE000820F931F0E945E421D830C8381E0DF913C
:104FF000CF911F910F91FF90EF900895FB01448195
:105000005581608171810C94D027CF93DF93EC019F
:1050100088819981009711F00E94C64019821882F8
:105020001D821C821B821A82DF91CF910895CF933B
:10503000DF93EC016115710561F0FB010190002027
:10504000E9F73197AF01461B570B0E94D02781111A
:1050500003C0CE010E940528CE01DF91CF910895B3
:10506000CF93DF93EC01FB01448155816081718115
:105070000E94D027811103C0CE010E940528CE01D5
:10508000DF91CF910895EF92FF920F931F93CF93EB
:10509000DF93EC017B018A01BA010E94652781112F
:1050A00004C0CE010E94052807C01D830C83B701F0
:1050B000888199810E945E42CE01DF91CF911F913C
:1050C0000F91FF90EF900895CF93DF93EC0161155E
:1050D000710559F0FB0101900020E9F73197AF010C
:1050E000461B570B0E94432802C00E940528CE0190
:1050F000DF91CF910895CF93DF93EC01FB018617E9
:10510000970761F0608171816115710529F0448113
:1051100055810E94432802C00E940528CE01DF91DC
:10512000CF910895FC01808191810C94C6400F932A
:105130001F93CF93DF93CDB7DEB761970FB6F89487
:10514000DEBF0FBECDBF8C01CB01F80111821082F2
:10515000138212821582148250E0BE016F5F7F4F6E
:105160000E94B845BE016F5F7F4FC8010E9464284E
:1051700061960FB6F894DEBF0FBECDBFDF91CF9121
:105180001F910F9108950F931F93CF93DF93CDB786
:10519000DEB762970FB6F894DEBF0FBECDBF8C01AD
:1051A000CB01F801118210821382128215821482BF
:1051B00050E0BE016F5F7F4F0E948D45BE016F5F63
:1051C0007F4FC8010E94642862960FB6F894DEBF34
:1051D0000FBECDBFDF91CF911F910F9108950F9317
:1051E0001F93CF93DF93CDB7DEB729970FB6F8940F
:1051F000DEBF0FBECDBF8C01862FF8011182108259
:10520000138212821582148250E0BE016F5F7F4FBD
:1052100090E00E94B845BE016F5F7F4FC8010E94B9
:10522000642829960FB6F894DEBF0FBECDBFDF917C
:10523000CF911F910F910895EF92FF920F931F93BB
:10524000CF93DF93EC01198218821B821A821D8290
:105250001C826115710509F18B01CB010E94844507
:105260007C01BC01CE010E946527811109C0CE01DD
:10527000DF91CF911F910F91FF90EF900C94052833
:10528000FD82EC82B80188819981DF91CF911F91D5
:105290000F91FF90EF900C947D45DF91CF911F917E
:1052A0000F91FF90EF900895FC01118210821382FC
:1052B0001282158214820C947B28FC0111821082C8
:1052C00013821282158214826115710551F0FB015F
:1052D00001900020E9F73197AF01461B570B0C9462
:1052E000432808950F931F93CF93DF93EC010E94FF
:1052F00050278C016DE476E0CE010E945027800F8C
:10530000911FDF91CF911F910F9108950F931F93DC
:10531000CF93DF93EC01E881F981DB0114964D9185
:105320005C9115976D917C910280F381E02D199528
:105330008C016DE476E0CE010E945027800F911F12
:10534000DF91CF911F910F9108951F920F920FB689
:105350000F9211240BB60F922F933F934F935F93AD
:105360006F937F938F939F93AF93BF93EF93FF932D
:1053700087EA97E00E94B92BFF91EF91BF91AF911F
:105380009F918F917F916F915F914F913F912F915D
:105390000F900BBE0F900FBE0F901F9018951F928D
:1053A0000F920FB60F9211240BB60F922F933F93CB
:1053B0004F935F936F937F938F939F93AF93BF931D
:1053C000EF93FF9384E498E00E94B92BFF91EF9153
:1053D000BF91AF919F918F917F916F915F914F910D
:1053E0003F912F910F900BBE0F900FBE0F901F900B
:1053F0001895FC01A089B1898C91A689B78982FD95
:105400000FC09C91818D8F5F8F73228D821749F021
:10541000218DDF01A20FB11D5D969C93818F0895B0
:105420008C9108951F920F920FB60F9211240BB614
:105430000F922F933F934F935F936F937F938F932D
:105440009F93AF93BF93EF93FF9387EA97E00E94F8
:10545000F929FF91EF91BF91AF919F918F917F912A
:105460006F915F914F913F912F910F900BBE0F90D5
:105470000FBE0F901F9018951F920F920FB60F92AC
:1054800011240BB60F922F933F934F935F936F931B
:105490007F938F939F93AF93BF93EF93FF9384E496
:1054A00098E00E94F929FF91EF91BF91AF919F91F0
:1054B0008F917F916F915F914F913F912F910F90BD
:1054C0000BBE0F900FBE0F901F901895CF93DF93D8
:1054D00000D000D0CDB7DEB7BC01CE0101960E944E
:1054E0005429BE016F5F7F4F80EE9CE00E949115B2
:1054F000CE0101960E94922826960FB6F894DEBF40
:105500000FBECDBFDF91CF910895FC01918D828DAB
:10551000981761F0828DDF01A80FB11D5D968C9107
:10552000928D9F5F9F73928F90E008958FEF9FEF12
:105530000895FC01918D828D981731F0828DE80FCE
:10554000F11D858D90E008958FEF9FEF0895FC0188
:10555000918D228D892F90E0805C9F4F821B910955
:105560008F739927089580E090E0892B21F00E94A5
:10557000962781111DC080E090E0892B41F080E0EA
:1055800090E0892B21F00E940000811114C080E07E
:1055900090E0892B21F00E94140F81110FC080E050
:1055A00090E0892B81F00E948C2781110AC0089518
:1055B0000E940000E0CF0E940000E9CF0E9400009E
:1055C000EECF0C940000089590E0FC013197E23199
:1055D000F10508F04EC08827E257FF4F8F4F0C941B
:1055E000FA3F809180008F7703C0809180008F7D8B
:1055F00080938000089580918000877FF9CF84B5E3
:105600008F7702C084B58F7D84BD08958091B000EE
:105610008F7703C08091B0008F7D8093B000089594
:10562000809190008F7707C0809190008F7D03C09C
:1056300080919000877F8093900008958091A000D2
:105640008F7707C08091A0008F7D03C08091A0005C
:10565000877F8093A0000895809120018F7707C0F5
:10566000809120018F7D03C080912001877F8093EE
:10567000200108953FB7F8948091EC089091ED08CF
:10568000A091EE08B091EF0826B5A89B05C02F3F6A
:1056900019F00196A11DB11D3FBFBA2FA92F982F58
:1056A0008827820F911DA11DB11DBC01CD0142E0D3
:1056B000660F771F881F991F4A95D1F70895EF92BB
:1056C000FF920F931F93CF93DF93EC017B016FE465
:1056D00076E008960E945D298E01025F1F4F6FE4FD
:1056E00076E0C8010E945D298AE097E0998388836B
:1056F00080E092ECA1E0B0E08C839D83AE83BF8319
:1057000088E796E09B838A83B701C801DF91CF9138
:105710001F910F91FF90EF900C947B281F920F9296
:105720000FB60F9211240BB60F922F933F934F9306
:105730005F936F937F938F939F93AF93BF93EF93F9
:10574000FF93E091E508F091E6081995FF91EF913C
:10575000BF91AF919F918F917F916F915F914F9189
:105760003F912F910F900BBE0F900FBE0F901F9087
:105770001895FC01848DDF01A80FB11DA35ABF4FFE
:105780002C91848D90E001968F739927848FA68940
:10579000B7892C93A089B1898C9180648C93938D67
:1057A000848D981306C00288F389E02D80818F7D57
:1057B00080830895EF92FF920F931F93CF93DF930F
:1057C000EC0181E0888F9B8D8C8D981305C0E88952
:1057D000F989808185FD24C0F62E0B8D10E00F5FC6
:1057E0001F4F0F731127E02E8C8DE8120CC00FB6DF
:1057F00007FCFACFE889F989808185FFF5CFCE01D2
:105800000E94B92BF1CF8B8DFE01E80FF11DE35AF9
:10581000FF4FF0820B8FEA89FB898081806207C08D
:10582000EE89FF896083E889F989808180648083BB
:1058300081E090E0DF91CF911F910F91FF90EF9069
:105840000895CF93DF93EC01888D8823C9F0EA890E
:10585000FB89808185FD05C0A889B9898C9186FD69
:105860000FC00FB607FCF5CF808185FFF2CFA88966
:10587000B9898C9185FFEDCFCE010E94B92BE7CF7E
:10588000DF91CF910895CF93DF93282F30E0F90176
:10589000ED50F94F8491F901E355F94FD491F90195
:1058A000E959F94FC491CC2391F081110E94E42A67
:1058B000EC2FF0E0EE0FFF1FE35BF94FA591B491E1
:1058C000EC91ED2381E090E021F480E002C080E0E3
:1058D00090E0DF91CF9108951F93CF93DF93282F0E
:1058E00030E0F901ED50F94F8491F901E355F94F9A
:1058F000D491F901E959F94FC491CC23C9F0162F7D
:1059000081110E94E42AEC2FF0E0EE0FFF1FED5C06
:10591000F94FA591B4918FB7F894111105C09C91DE
:10592000ED2FE095E92302C0EC91ED2BEC938FBFB6
:10593000DF91CF911F910895CF93DF9390E0FC0109
:10594000E355F94F2491FC01E959F94F84918823DB
:1059500061F190E0880F991FFC01E75EF94FC59156
:10596000D491FC01ED5CF94FA591B491611109C08E
:105970009FB7F8948881209582238883EC912E2309
:105980000BC0623061F49FB7F8943881822F809504
:1059900083238883EC912E2B2C939FBF06C08FB757
:1059A000F894E8812E2B28838FBFDF91CF91089543
:1059B0008F929F92AF92BF92CF92DF92EF92FF921F
:1059C0006B017C010E943A2B4B015C01C114D10494
:1059D000E104F104F1F00E943A2BDC01CB018819BB
:1059E0009909AA09BB09883E9340A105B10570F346
:1059F00021E0C21AD108E108F10888EE880E83E0A0
:105A0000981EA11CB11CC114D104E104F10419F7C2
:105A1000DDCFFF90EF90DF90CF90BF90AF909F9041
:105A20008F9008952FB7F8946091E8087091E90875
:105A30008091EA089091EB082FBF08951F920F9272
:105A40000FB60F9211242F933F938F939F93AF9391
:105A5000BF938091E8089091E908A091EA08B0917D
:105A6000EB083091E70823E0230F2D3720F401964F
:105A7000A11DB11D05C026E8230F0296A11DB11D71
:105A80002093E7088093E8089093E908A093EA0838
:105A9000B093EB088091EC089091ED08A091EE088E
:105AA000B091EF080196A11DB11D8093EC08909371
:105AB000ED08A093EE08B093EF08BF91AF919F91CE
:105AC0008F913F912F910F900FBE0F901F901895BF
:105AD000CF93DF93CDB7DEB7CD55D1090FB6F8948C
