:100000000C949F030C94D0030C94D0030C94D00355
:100010000C94D0030C94D0030C94D0030C94D00314
:100020000C94D0030C94D0030C94D0030C94D00304
:100030000C94D0030C94D0030C94D0030C94D003F4
:100040000C94D0030C94D0030C94D0030C94D003E4
:100050000C94101E0C94D0030C94D0030C94182D07
:100060000C94D0030C94482B0C94DB2A0C94D003F2
:100070000C94D0030C94D0030C94D0030C94D003B4
:100080000C94D0030C94D0030C94D0030C94D003A4
:100090000C94D0030C94D0030C94D0030C94D00394
:1000A0000C94D0030C94D0030C94D0030C94D00384
:1000B0000C94D0030C94D0030C94D0030C94D00374
:1000C0000C94D0030C94D0030C94D0030C94251CF6
:1000D0000C945C1E0C94D0030C941E2B0C94B12A2F
:1000E0000C94D003140517051A05230526052905C8
:1000F0002C052F056305660569056C056F057205FE
:1001000075057E05870590059305960567176717A2
:10011000781778177817891789179A17DD2BE02B2E
:10012000CF2BD32BD92B172CE42BE82BEE2BF22B38
:10013000F62BFC2B002C042C172C0A2C0E2C122C2A
:100140000C947E050C942F280C9472050C949A172D
:100150000C9429050C94F9160C94E82B0C94660564
:100160000C940A2C0C94E02B0C94F22B0C94D203DC
:100170000C9414050C9475050C94042C0C94230514
:100180000C94DD2B0C94122C0C9467170C946305C3
:100190000C942C050C94F73E0C9490050C9493054C
:1001A0000C94E42B0C94EE2B0C9489170C94002CDB
:1001B0000C94F62B0C94E5160C9417050C948705FB
:1001C0000C9469050C94172C0C940E2C0C941A05A5
:1001D0000C94D32B0C946C050C9426050C94861E61
:1001E0000C9407170C94CF2B0C94FA390C949605A9
:1001F0000C942F050C9478170C94D92B0C94FC2B91
:100200000C946F050C94CD1E4C4544204375702012
:1002100048616E646C65202D204F46460072656112
:1002200064206565702E2063757020737461636B44
:10023000657220706F732E203D20004F4B00437578
:100240007020737461636B6572203E3E204F4B00DB
:10025000454D5054590043757020737461636B654C
:1002600072203E3E20456D707479004F4646004F27
:100270004E004F4B00504F574552204F4E00232306
:1002800023206D696E69436F66666565204861630A
:100290006B20762E333033203E3E205374617274CF
:1002A0002E2E007772697465206565702E20697442
:1002B000656D5F70726963655B004F726465722083
:1002C0004E6F2E2069732057726F6E6720212100B8
:1002D0006D616B655369676E616C546F436F696ED6
:1002E000203E3E20556E7375636365737320212134
:1002F000004F72646572205061796F7574203E3EC4
:10030000204F4B004F72646572205061796F757495
:10031000203E3E2054696D656F7574002000554E77
:1003200053554343455353005472616E7361637474
:10033000696F6E203E3E20554E53554343455353FF
:10034000200053554343455353005472616E73610B
:100350006374696F6E203E3E2053554343455353AB
:100360002000454D505459004375702073746163EB
:100370006B6572203E3E20456D707479004F4B00D6
:1003800043757020737461636B6572203E3E204F2D
:100390004B004F4E00426F696C6572203E3E20500C
:1003A0006F776572204F4E004F464600426F696C72
:1003B0006572203E3E20506F776572204F464600A2
:1003C0004C4F57005761746572204C6576656C2000
:1003D0003E3E204C4F57004F4B00576174657220D2
:1003E0004C6576656C203E3E204F4B004F464600E4
:1003F00050756D70203E3E20436C6F736500455212
:10040000524F520050756D70203E3E204572726F03
:1004100072004F4E0050756D70203E3E204F70654B
:100420006E007772697465206565702E2063757043
:1004300020737461636B657220706F732E203D2092
:100440000072656164206565702E206974656D5F5A
:1004500070726963655B00300030300045004F4BBF
:10046000004F50454E00434C4F5345005365742098
:1004700050756D702031202D204F4E005365742033
:1004800050756D702031202D204F464600736574E5
:100490004C45444974656D53656C6563745077725F
:1004A000203E3E204E6F7420666F756E64202121C1
:1004B000002D002D002D002D002D002D002D002DD4
:1004C000002D002D002D002D002D003D003A004391
:1004D000422B534554400023000043422B5550000B
:1004E0002300003000003A003A0064617461203E4D
:1004F0003E20656D7074792121005265736574200A
:10050000436F6D706F7274212100526573706F6E4E
:1005100073652054696D656F757421210000436C0B
:100520006F7564426F782052657475726E203E3E1E
:100530002052455345540000436C6F7564426F78F8
:100540002052657475726E203E3E204552524F52C5
:100550000000436C6F7564426F7820526574757249
:100560006E203C3C20425553590000436C6F75642B
:10057000426F782052657475726E203C3C20526543
:100580006164790000436C6F7564426F7820526536
:100590007475726E203C3C204F4B005245414459CB
:1005A000004E4F54205245414459004E4F54205262
:1005B00045414459004E4F54205245414459004E44
:1005C0004F54205245414459004E4F54205245410A
:1005D0004459004E4F54205245414459004E4F5407
:1005E000205245414459004C4544204375702048F1
:1005F000616E646C65202D204F4E00434354414C86
:100600004B00434C4F5544424F5800434354414CD8
:100610004B2D444556494345000000210024002746
:10062000002A002D00300033000101000004010702
:10063000010A0100002200250028002B002E0031B5
:1006400000340002010000050108010B0100002038
:10065000002300260029002C002F0032000001009A
:10066000000301060109010505050507050808083D
:1006700008020202020A0A08080404040401010133
:10068000010101010103030303030303030407073B
:10069000070C0C0C0C0C0C0C0C02020202060606D9
:1006A00006060606060B0B0B0B0B0B0B0B010210C1
:1006B000202008081020401020408002010201087C
:1006C000040201010204081020408080402010082C
:1006D0000402018004020180402010080402010885
:1006E00004020101020408102040800102040810E5
:1006F00020408000000A0B02090C0D0E08070304BD
:1007000001000000000000000000000000000000E8
:1007100000000000000000000000000000000012C7
:1007200011100000000000000000000000000000A8
:1007300000000000000000000000FA39F73E11241C
:100740001FBECFEFD1E2DEBFCDBF00E00CBF16E091
:10075000A0E0B2E0E2E0FEE800E00BBF02C00790DC
:100760000D92AC37B107D9F72DE0ACE7B6E001C088
:100770001D92A634B207E1F713E0CEE9D3E000E022
:1007800006C021970109802FFE010E94EB3FCD3961
:10079000D10780E00807A9F70E94622D0C94EF466C
:1007A0000C940000CF9380910802833009F4D9C1E2
:1007B00034F4813059F0823009F46AC178C284304F
:1007C00009F4E8C1853009F43CC271C22091AA063F
:1007D0003091AB062115310509F40DC18091DE0C75
:1007E0009091DF0C2817390761F1203553EC35075C
:1007F00030F420348CE9380738F0C90102C08FE4A6
:1008000093EC80549C4919C0203395E7390720F0B8
:10081000C9018053954711C020325EE4350720F0AE
:10082000C90180529E4409C0203187E2380720F078
:10083000C9018051974201C0C9019093DF0C809398
:10084000DE0C4091D10C4130E1F038F0423009F437
:1008500057C0433009F48CC0C1C06AE070E00E9408
:10086000A13FFC01ED53F34F83812031374208F063
:100870008F7D90E09093D50C8093D40C8DEF90E019
:10088000A9C020323E4420F18A30910568F064E628
:1008900070E00E94A13F6AE070E00E94A13FFB016E
:1008A000ED53F34F838102C08091C60C90E090938A
:1008B000D50C8093D40C8091D40C9091D50C8F7D65
:1008C00099279093D50C8093D40C8FEE90E082C042
:1008D0008A30910570F064E670E00E94A13F6AE002
:1008E00070E00E94A13FFB01ED53F34F838190E044
:1008F000E8CF8FEF90E09093D50C8093D40C6AC032
:100900002033354720F18436910568F068EE73E0B6
:100910000E94A13F64E670E00E94A13FFB01ED53FD
:10092000F34F838102C08091C60C90E09093D50C68
:100930008093D40C8091D40C9091D50C8F7D992705
:100940009093D50C8093D40C87EF90E043C084360D
:10095000910578F268EE73E00E94A13F64E670E0D2
:100960000E94A13FFB01ED53F34F838190E0E8CF5C
:1009700020343C49D8F0883E23E0920748F068EEE6
:1009800073E00E94A13FFB01ED53F34F838102C04E
:100990008091C60C90E09093D50C8093D40C8091FC
:1009A000D40C9091D50C8F7D99270EC0883E53E0D2
:1009B000950708F49ECF68EE73E00E94A13FFB010B
:1009C000ED53F34F838190E09093D50C8093D40C3A
:1009D0008BEF90E09093D70C8093D60C4F5F443010
:1009E00018F44093D10C02C01092D10C84ED9CE01D
:1009F000CF910C94A4108091D80C9091D90C0197B0
:100A00009093D90C8093D80C892B09F050C1809118
:100A1000D00C90E08830910550F5FC018827EE5805
:100A2000FF4F8F4F0C94EB3F8BEF90E005C087EFAB
:100A300090E017C08FEE90E09093D70C8093D60C87
:100A40000E94E91014C08DEF90E00BC08DEF90E094
:100A5000F3CF8FEE90E005C087EF90E0EDCF8BEF06
:100A600090E09093D70C8093D60C0E94F310809165
:100A7000D00C8F5F883018F48093D00C02C0109295
:100A8000D00C86E990E09093D90C8093D80C0FC1DC
:100A90008091DA0C9091DB0C01979093DB0C8093A2
:100AA000DA0C892B09F003C19091D30C492F50E047
:100AB0004C30510508F046C0FA018827E658FF4F30
:100AC0008F4F0C94EB3F2EEF30E032C02EEF30E032
:100AD00020C02EEF30E014C02EEF30E008C02BEF26
:100AE00030E005C02FEE30E002C02FEB30E0309355
:100AF000D50C2093D40C2DEF30E020C02FEB30E04C
:100B00003093D50C2093D40C2FEE30E017C02FEB90
:100B100030E03093D50C2093D40C27EF30E00EC09A
:100B20002FEB30E005C02FE730E002C02DEF30E0C2
:100B30003093D50C2093D40C2BEF30E03093D70CAE
:100B40002093D60C24E130E03093DB0C2093DA0CB8
:100B50009F5F9C3018F49093D30C48CF1092D30C25
:100B600045CFC091D206C13059F008F474C0C230EC
:100B700061F0C33011F56DEF70E08BE590E01BC0C4
:100B800067EF70E082EC90E016C06FEE70E087EDEA
:100B900090E011C08091B40C882309F44DC0082E58
:100BA000000C990BC091D206C130A9F078F46BEF1C
:100BB00070E08BEC90E00E940D11CF5FC093D206E5
:100BC000C43008F474C01092D20671C0C23041F033
:100BD000C330E1F0F2CF67EF70E083EE90E0EBCF4F
:100BE0008F3F2FEF920709F440C0843691051CF027
:100BF0006FEE70E017C08A309105BCF16AE070E0DA
:100C00000E94B53FCB016FEE70E033C08F3F5FEFC6
:100C1000950719F46DEF70E02AC0843691052CF029
:100C20006DEF70E089E090E024C06AE070E00E941F
:100C3000B53F6DEF70E01DC08091A906809308025A
:100C400036C0C091D206C13059F028F0C23069F0E8
:100C5000C33091F0B2CF6BEF70E083EC90E0ABCF9C
:100C600067EF70E088E090E0A6CF6FEE70E080E084
:100C700090E00E94FD10A1CF8091050283FD05C088
:100C80006DEF70E081E090E0F4CF82FD05C06DEF84
:100C900070E082E090E0EDCF84FD05C06DEF70E084
:100CA00083E090E0E6CF81E08093080286CFCF9189
:100CB000089583E00E943D2C21E0892B09F020E07B
:100CC000822F0895CF93DF9300D000D0CDB7DEB749
:100CD000FC01EC57F94F20812617F9F06083823030
:100CE000910539F08330910531F0019741F484E3A7
:100CF00003C083E301C08FE20E94662C0EC06DE842
:100D000074E0CE0101960E94282ACE0101960E942D
:100D1000722BCE0101960E949E2926960FB6F8945A
:100D2000DEBF0FBECDBFDF91CF91089560E081E0BF
:100D300090E00E94620660E082E090E00E9462061D
:100D400060E083E090E00C9462060F931F93CF93D2
:100D5000DF938C01C1E0D0E0C017D10711F461E04E
:100D600001C060E0CE010E9462062196C430D10528
:100D700099F7DF91CF911F910F9108950F931F93D2
:100D8000CF93DF93EC010E940C2D0091D4061091BB
:100D9000D5062091D6063091D706DC01CB01801B09
:100DA000910BA20BB30B8D329140A105B105C8F098
:100DB0008091D306811107C0CE010E94A50681E073
:100DC0008093D30604C00E9496061092D3060E9418
:100DD0000C2D6093D4067093D5068093D60690931D
:100DE000D7060E940C2D0091D4061091D5062091B3
:100DF000D6063091D706601771078207930750F423
:100E00000E940C2D6093D4067093D5068093D6066D
:100E10009093D706DF91CF911F910F910895E1E84C
:100E2000F0E090818091DA06892B808308951092FA
:100E30000802E1E8F0E08081887F80830895CF9206
:100E4000DF92EF92FF920F931F936B017C010E9440
:100E50000C2D00919C0610919D0620919E063091CC
:100E60009F06601771078207930750F40E940C2DAC
:100E700060939C0670939D0680939E0690939F06B8
:100E80000E940C2D00919C0610919D0620919E06BB
:100E900030919F06AB01BC01401B510B620B730BE1
:100EA00081E0C416D506E606F70608F080E01F913B
:100EB0000F91FF90EF90DF90CF900895E0E9F6E07A
:100EC0001182128213821092A5061092A706109228
:100ED000A606E3ECFCE0158686E990E0968B858B10
:100EE000108A84E190E0908F878B08951F93CF93B1
:100EF000DF9300D000D0CDB7DEB7182F8CE20E9470
:100F00003D2C21E0892B09F420E0121721F1112357
:100F100081F06CE674E0CE0101960E94282ACE0191
:100F200001960E94722BCE0101960E949E2961E0DB
:100F30000FC06CE774E0CE0101960E94282ACE0112
:100F400001960E94722BCE0101960E949E2960E0BC
:100F50008CE20E94662C26960FB6F894DEBF0FBE78
:100F6000CDBFDF91CF911F9108958F929F92AF9245
:100F7000BF92EF92FF921F93CF93DF9300D000D0E8
:100F8000CDB7DEB780E30E943D2C11E0892B09F438
:100F900010E08091D106181761F00E940C2D60932B
:100FA000CD067093CE068093CF069093D006109313
:100FB000D1060E940C2D8090CD069090CE06A09078
:100FC000CF06B090D006DC01CB0188199909AA0997
:100FD000BB09893E9340A105B10558F40E940C2D30
:100FE000681579058A059B0520F080910C028823FD
:100FF00089F12091050230910602812F90E021FBBA
:10100000EE24E0F8F12C8E159F0521F480910C025E
:10101000882301F1112311F0226001C02D7F30934C
:101020000602209305028091050281FF03C066E657
:1010300074E002C061E674E0CE0101960E94282AA5
:10104000CE0101960E94B815CE0101960E949E29FC
:1010500010920C02812F26960FB6F894DEBF0FBEB9
:10106000CDBFDF91CF911F91FF90EF90BF90AF90D8
:101070009F908F9008951F93CF93DF93CDB7DEB7E6
:1010800068970FB6F894DEBF0FBECDBF1091B40CB9
:10109000111118C06EE574E0CE0101960E94282A55
:1010A000CE0101960E947E15CE0101960E949E29D6
:1010B00080910502909106028062909306028093CF
:1010C00005027EC06CE574E0CE0101960E94282ADC
:1010D0001F3F29F5BE016F5F7F4FCE0107960E942B
:1010E000602A69E574E0CE0107960E94AC28811160
:1010F00004C0CE0107960E941129BE01695F7F4F8F
:10110000CE010D960E94602ACE010D960E947E159A
:10111000CE010D960E949E29CE01079642C0612FF6
:10112000012E000C770B4AE0CE010D961A30B4F474
:101130000E94CF29BE016F5F7F4FCE0107960E94AC
:10114000602A67E574E0CE0107960E94AC28811101
:101150000EC0CE0107960E94112909C00E94CF2916
:10116000BE016F5F7F4FCE0107960E94602ABE01CD
:10117000635F7F4FCE0107960E943C29BC01CE01E0
:1011800043960E94602ACE0143960E947E15CE01AE
:1011900043960E949E29CE0107960E949E29CE0169
:1011A0000D960E949E2980910502909106028F7DE6
:1011B0009093060280930502CE0101960E949E291B
:1011C00068960FB6F894DEBF0FBECDBFDF91CF910A
:1011D0001F9108955F926F927F928F929F92AF922C
:1011E000BF92CF92DF92EF92FF920F931F93CF9314
:1011F000DF93CDB7DEB7A0970FB6F894DEBF0FBE72
:10120000CDBF66246394712C552453948E010F5FD7
:101210001F4F96E4E92E93E0F92E22E3C22E23E03D
:10122000D22E82E0681629F093E0691621F082E35D
:1012300003C085E301C081E30E943D2C21E0892B9E
:1012400009F420E0F301E457F94F4F012083C30173
:101250008857994F5C01FC0180818217E9F02111C8
:1012600009C0F301E057F94F50827F926F92DF92ED
:10127000CF9204C07F926F92FF92EF921F930F93D1
:101280000E9470420F900F900F900F900F900F9050
:10129000F4018081F5018083FFEF6F1A7F0A84E0FB
:1012A0006816710409F0BDCFA0960FB6F894DEBFA2
:1012B0000FBECDBFDF91CF911F910F91FF90EF90A7
:1012C000DF90CF90BF90AF909F908F907F906F9066
:1012D0005F900895CF93DF93CDB7DEB768970FB6D1
:1012E000F894DEBF0FBECDBF62E274E0CE0101967E
:1012F0000E94282A6091A80680E190E00E94E146C1
:101300006AE070E080E090E00E94D22C6091A80634
:10131000062E000C770B4AE0CE010D960E94CF29D5
:10132000BE016F5F7F4FCE0107960E94602ABE010B
:10133000635F7F4FCE0107960E943C29BC01CE011E
:1013400043960E94602ACE0143960E94722BCE01E2
:1013500043960E949E29CE0107960E949E29CE01A7
:101360000D960E949E29CE0101960E949E296896A4
:101370000FB6F894DEBF0FBECDBFDF91CF910895B9
:10138000E4E9F6E082819381883E934010F0138275
:101390001282329686E0EA39F807A1F708958F9213
:1013A0009F92AF92BF92CF92DF92EF92FF921F93E4
:1013B000CF93DF93CDB7DEB762970FB6F894DEBF59
:1013C0000FBECDBF86E9A82E86E0B82E92EAE92EA0
:1013D00096E0F92E11E02AE0C22ED12CC6010E941F
:1013E000D946982EC60101960E94D946292D30E093
:1013F000A901582BCA014501F50151834083209171
:10140000050230910602F701892BD9F480818068AA
:101410008083123039F0133071F02F7B3093060245
:101420002093050280910502909106029E7F909381
:1014300006028093050280910502909106029B7F2F
:101440001AC080818F778083123039F0133071F0A9
:10145000206430930602209305028091050290914A
:101460000602916090930602809305028091050226
:1014700090910602946090930602809305020E9468
:10148000C00961E474E0CE010D960E94282A4AE06A
:10149000612FCE0107960E94FB29BE01695F7F4F35
:1014A000CE0101960E94602A6CE472E0CE010196A2
:1014B0000E942329BC01CE010D960E940A29CE016B
:1014C00001960E949E29CE0107960E949E29F2E075
:1014D000AF0EB11CF401608171814AE0CE0101962A
:1014E0000E94A329BE016F5F7F4FCE010D960E941F
:1014F0000A29CE0101960E949E29BE01635F7F4F9B
:10150000CE0101960E94602ACE0101960E94722BA4
:10151000CE0101960E949E29CE010D960E949E2921
:10152000F2E0CF0ED11C1F5F4FEFE41AF40A143023
:1015300009F054CF62960FB6F894DEBF0FBECDBF50
:10154000DF91CF911F91FF90EF90DF90CF90BF90F0
:10155000AF909F908F90089585E30E943D2C21E0ED
:10156000892B09F420E0822F0895CF92DF92EF9229
:10157000FF920F931F93CF93DF9300D000D0CDB78E
:10158000DEB78DE10E943D2C2091C80630E0821725
:10159000930799F08DE10E943D2C21E0892B09F4FD
:1015A00020E02093C8060E940C2D6093C40670931F
:1015B000C5068093C6069093C7060E940C2DC09066
:1015C000C406D090C506E090C606F090C706DC01C0
:1015D000CB018C199D09AE09BF098D329140A1053F
:1015E000B10528F480910A02882309F46CC08DE1CA
:1015F0000E943D2C2091050230910602892B11F0AA
:10160000206101C02F7E30930602209305022091B5
:1016100005028091C30690E024FB002700F910E04A
:101620008017910729F480910A02882309F45CC08D
:1016300024FF1DC06AED73E0CE0101960E94282AA6
:10164000CE0101960E94722BCE0101960E949E2926
:1016500067ED73E0CE0101960E94282ACE01019623
:101660000E947918CE0101960E949E2923C064EC45
:1016700073E0CE0101960E94282ACE0101960E94B5
:10168000722BCE0101960E949E2960EC73E0CE0180
:1016900001960E94282ACE0101960E947918CE0157
:1016A00001960E949E29809108028093A90685E0F8
:1016B0008093080280910502829581708093C30611
:1016C00010920A0211C00E940C2D6C157D058E052A
:1016D0009F0550F40E940C2D6093C4067093C506BC
:1016E0008093C6069093C7068091050284FD34C09E
:1016F0008CE20E943D2C892B79F580910B02882386
:1017000059F181E00E94760765E174E0CE0101960F
:101710000E94282ACE0101960E94722BCE010196CA
:101720000E949E2962E174E0CE0101960E94282A5F
:1017300060E0CE0101960E94DB14CE0101960E946A
:101740009E290E940C2D6093C9067093CA0680934F
:10175000CB069093CC0682C08CE20E943D2C892B54
:1017600009F47CC08091050284FD39C00E940C2DD3
:101770000091C9061091CA062091CB063091CC0683
:10178000DC01CB01801B910BA20BB30B81349C4974
:10179000A105B10508F462C080E00E94760764E00C
:1017A00074E0CE0101960E94282ACE0101960E9483
:1017B000722BCE0101960E949E296EEF73E0CE013E
:1017C00001960E94282A61E0CE0101960E94DB1456
:1017D000CE0101960E949E2910920B023FC00E94EA
:1017E0000C2DC090C906D090CA06E090CB06F090B0
:1017F000CC06DC01CB018C199D09AE09BF098134EF
:101800009C49A105B10538F40E940C2D6C157D058D
:101810008E059F0518F580E00E94760760EF73E063
:10182000CE0101960E94282ACE0101960E94722BB9
:10183000CE0101960E949E296CEE73E0CE010196C6
:101840000E94282A61E0CE0101960E94DB14CE019D
:1018500001960E949E2981E080930B0226960FB686
:10186000F894DEBF0FBECDBFDF91CF911F910F91D6
:10187000FF90EF90DF90CF900895CF92DF92EF929C
:10188000FF921F93CF93DF93C82F0E940C2D6B0103
:101890007C0110E0D0E00E94B50A0E94EF1ECE014C
:1018A0000E94BE060E940C2D6C157D058E059F05BD
:1018B00020F40E940C2D6B017C010E940C2DDC0198
:1018C000CB018C199D09AE09BF09893C9105A10581
:1018D000B10558F48FE10E943D2C892BE1F20E9462
:1018E0000C2D6B017C0111E0D6CF812FDF91CF91C0
:1018F0001F91FF90EF90DF90CF9008950F931F936B
:1019000085E20E943D2C892B61F40E940C2D60938E
:101910007C0670937D0680937E0690937F0681E01F
:1019200027C00E940C2D00917C0610917D0620910D
:101930007E0630917F06DC01CB01801B910BA20B50
:10194000B30B853F9140A105B10588F40E940C2D91
:1019500000917C0610917D0620917E0630917F06D5
:10196000601771078207930710F08FEF01C080E0C6
:101970001F910F9108950F931F93CF93DF9300D082
:1019800000D0CDB7DEB70E947E0C209105023091C9
:101990000602811102C0286003C0813029F4277F2C
:1019A0003093060220930502209105028091C20621
:1019B00090E023FB002700F910E08017910729F43D
:1019C00080910902882309F44BC023FF1DC06CEAF3
:1019D00073E0CE0101960E94282ACE0101960E9452
:1019E000722BCE0101960E949E2968EA73E0CE0117
:1019F00001960E94282ACE0101960E943F18CE012E
:101A000001960E949E2923C065E973E0CE010196EC
:101A10000E94282ACE0101960E94722BCE010196C7
:101A20000E949E2962E973E0CE0101960E94282A55
:101A3000CE0101960E943F18CE0101960E949E2978
:101A4000809108028093A90685E080930802809126
:101A5000050283FB882780F98093C2061092090251
:101A600026960FB6F894DEBF0FBECDBFDF91CF91A3
:101A70001F910F91089561E085E00C94662CCF9240
:101A8000DF92EF92FF920F931F93CF93DF93CDB727
:101A9000DEB762970FB6F894DEBF0FBECDBF0E94CF
:101AA0005906811106C061E086E00E94662CF12C87
:101AB00006C060E086E00E94662CFF24F39460E09C
:101AC00085E00E94662C0E94AC1900E010E0EE2434
:101AD000E3948BE9C82E8FE0D82E0E94B50A0E94AD
:101AE000EF1E83E20E943D2C892B69F066E173E0D2
:101AF000CE0101960E94692ACE0101960E94722BA6
:101B0000CE01019657C061E087E00E94662CC601B5
:101B10000197F1F760E087E00E94662CC60101970B
:101B2000F1F70E945906882311F0E11031C0FF201F
:101B300009F47CC00E945906811176C081E080932F
:101B4000A8064AE0B801CE0107960E94A32960E7E3
:101B500073E0CE0101960E94692ABE01695F7F4F42
:101B6000CE0101960E943C29BC01CE010D960E9437
:101B7000602ACE010D960E94722BCE010D960E9416
:101B80009E29CE0101960E949E29CE01079612C081
:101B90000E943B0D6CE271E080E090E00E94D22C4C
:101BA00060E086E00E94662C60E085E00E94662C82
:101BB000E12CC0CF0E949E290E943B0D0E946A0921
:101BC0006091A806633681F46CE573E0CE0101965E
:101BD0000E94692ACE0101960E94722BCE010196C5
:101BE0000E949E296091A806062E000C770B4AE001
:101BF000CE0101960E94CF2961E0CE0101960E949C
:101C0000B318CE0101960E949E2962960FB6F894F1
:101C1000DEBF0FBECDBFDF91CF911F910F91FF901F
:101C2000EF90DF90CF900895FF24F3940F5F1F4F44
:101C3000093883E1180709F050CF83E68093A8069E
:101C4000BBCF1F93CF93DF9300D000D0CDB7DEB7CB
:101C50008091B40C81113BC068E773E0CE0101961E
:101C60000E94692ACE0101960E948B25CE01019621
:101C70000E949E2982E090E09093010D8093000DD8
:101C800011E01093020D81E090E09093040D809399
:101C9000030D84EE90E09093060D8093050D109354
:101CA000070D87E180930F0D0E946A2761E086E0AF
:101CB0000E94CE26882339F00E94FE25882319F041
:101CC0001093BD0C04C01092BD0C0E94710E26969C
:101CD0000FB6F894DEBF0FBECDBFDF91CF911F913D
:101CE0000895EF92FF920F931F93CF93DF93CDB799
:101CF000DEB762970FB6F894DEBF0FBECDBF69E8BE
:101D000073E0CE0101960E94692ACE0101960E94DD
:101D10008B25CE0101960E949E2982E090E090934F
:101D2000010D8093000D1092020D81E090E09093E0
:101D3000040D8093030D9093060D8093050D8CEF99
:101D400080930F0D0E946A2761E085E00E94CE26F5
:101D5000882339F00E94FE2581111CC069E973E0D7
:101D600002C069EA73E0CE0101960E94692ACE01A1
:101D700001960E948B25CE0101960E949E290E9409
:101D8000AC258FEF8093B40C8091B50C8F3F09F098
:101D900075C094C08091B40C8F3F71F469EB73E00F
:101DA000CE0101960E94692ACE0101960E94C727A2
:101DB000CE0101960E949E2968EC70E080E090E0E0
:101DC0000E94D22C82E090E09093010D8093000D50
:101DD0001092020D81E090E09093040D8093030D2A
:101DE00088EE90E09093060D8093050D85E1809339
:101DF0000F0D0E946A2761E085E00E94CE268823AD
:101E000049F168E874E0CE010D960E94692A0E94AB
:101E1000C525E12CF12C87018091F60C9091F70CEF
:101E2000DC01ED91FC910480F581E02D1995892B61
:101E300009F4E6C00630110509F024C186E0E82E59
:101E4000F12C0E94D025882309F4DCC0CE010D9628
:101E50000E949E2968EC70E080E090E00E94D22C05
:101E60006091410D6093B40C662309F44FC08091DA
:101E7000B50C16160CF488C0681701F163E274E023
:101E8000CE0101960E94692ACE0101960E94C727C1
:101E9000CE0101960E949E2960E474E0CE01019675
:101EA0000E94692ACE0101960E94C727CE010196A1
:101EB0000E949E298091B40C8093B50C8091B40C43
:101EC000811122C08091B50C882391F067E574E000
:101ED000CE0101960E94692ACE0101960E94C72771
:101EE000CE0101960E949E298091B40C8093B50C7E
:101EF0000E940C2D6093A90C7093AA0C8093AB0CDC
:101F00009093AC0C81E013C180E011C169EE73E0E5
:101F1000CE0101960E94692ACE0101960E948B256E
:101F2000CE0101960E949E2982E090E09093010DDF
:101F30008093000D8093020D81E090E09093040D5A
:101F40008093030D87EE90E09093060D8093050D2E
:101F500080E88093070D8FEF8093080D85E98093CB
:101F60000F0D0E946A2761E087E00E94CE26811152
:101F70000E94FE258091BD0C882319F00E94210E3D
:101F80009DCF0E94E8279ACF6A3074F4681709F44D
:101F900095CF062E000C770B4AE0CE0107960E94E3
:101FA000CF2968EF73E00DC0681709F487CF062EBC
:101FB000000C770B4AE0CE0107960E94CF296EE015
:101FC00074E0CE010D960E94692ABE01695F7F4FC1
:101FD000CE010D960E943C29BC01CE0101960E94C3
:101FE000602ACE0101960E94C727CE0101960E9469
:101FF0009E29CE010D960E949E29CE01079658CFAC
:1020000078011FCF0630110509F005CF63ED73E0AD
:10201000CE0101960E94692ABE01635F7F4FCE0107
:1020200001960E943C29BC01CE0107960E94602ABD
:10203000CE0107960E948B25CE0107960E949E290D
:10204000CE0101960E949E29B6E0EB16F10409F03C
:10205000FDCE20E080E090E0FC01EC50F34F31A198
:10206000230F019686309105B9F78091120D8832C1
:1020700021F08091120D8230D1F5211138C080916C
:10208000190D52C08091F60C9091F70CDC01ED9186
:10209000FC910680F781E02D1995F82E4AE0682F13
:1020A000CE0101960E94FB29BE016F5F7F4FCE01DA
:1020B00007960E94602A6FE375E0CE0107960E94A2
:1020C0002329BC01CE010D960E940A29CE01079654
:1020D0000E949E29CE0101960E949E29F801EC5093
:1020E000F34FF1A20F5F1F4F0E94C52595CE60E709
:1020F00074E0CE0101960E94692ACE0101960E94E9
:102100008B25CE0101960E949E2969E874E0CE01DC
:1021100001960E94692ACE0101960E948B25CE016C
:1021200001960E949E298FEF8093410D8FCE62967B
:102130000FB6F894DEBF0FBECDBFDF91CF911F91D8
:102140000F91FF90EF900895AF92BF92CF92DF92E0
:10215000EF92FF920F931F93CF93DF936C0160E098
:102160008091C50C0E94662CE6012496BA90AA9034
:1021700008E010E090E8E92EF12C60E08091C30CBB
:102180000E94662C61E097012A213B21232B09F450
:1021900060E08091C40C0E94662C61E08091C30CC9
:1021A0000E94662CF594E7940150110931F7CC1583
:1021B000DD05E1F661E08091C50CDF91CF911F91C3
:1021C0000F91FF90EF90DF90CF90BF90AF900C9465
:1021D000662C87E290E09093D50C8093D40C84ED2C
:1021E0009CE00C94A41080EF90E09093D50C809329
:1021F000D40C84ED9CE00C94A410E3ECFCE08D5333
:10220000934FDC0113968C9190E0928B818B748BB1
:10221000638B84ED9CE00C94A410E3ECFCE02FEFC6
:1022200030E0281B390B328B218B748B638B84ED50
:102230009CE00C94A410CF93DF9300D000D0CDB7D6
:10224000DEB7BC01CE0101960E94602ABE016F5F1D
:102250007F4F8091F0089091F1080E944F1CCE01B1
:1022600001960E949E2926960FB6F894DEBF0FBEF7
:10227000CDBFDF91CF9108950F931F93CF93DF933D
:10228000CDB7DEB762970FB6F894DEBF0FBECDBFF5
:102290008C0168E874E0CE010D960E94692AF8016D
:1022A00084819581892B09F457C06DE974E0CE01D2
:1022B0000D960E9470296091F7087091F8084AE025
:1022C000CE0107960E94A329BE01695F7F4FCE0110
:1022D00001960E94602A6CE472E0CE0101960E9491
:1022E0002329BC01CE010D960E940A29CE01019638
:1022F0000E949E29CE0107960E949E29B801CE0118
:102300000D960E940A29BE01635F7F4FCE010196A0
:102310000E94602ACE0101960E941B11CE010196F7
:102320000E949E292091F7083091F80846E0429FCC
:10233000C001439F900D1124B801895F964F0E9400
:1023400087298091F7089091F80801968F7799274F
:102350009093F8088093F708CE010D960E949E296D
:1023600062960FB6F894DEBF0FBECDBFDF91CF915E
:102370001F910F910895CF93DF93CDB7DEB72C97C0
:102380000FB6F894DEBF0FBECDBF62EE74E0CE0193
:1023900007960E94282A60EE74E0CE0107960E94FC
:1023A000AC286091F7087091F8084AE0CE010196D8
:1023B0000E94A329BE016F5F7F4FCE0107960E9446
:1023C0000A29CE0101960E949E296AED74E0CE0191
:1023D00007960E94AC28BE01695F7F4FCE0101962F
:1023E0000E94602ACE0101960E943C11CE01019606
:1023F0000E949E29CE0107960E949E2980E02C967D
:102400000FB6F894DEBF0FBECDBFDF91CF91089518
:10241000CF92DF92EF92FF920F931F93CF93DF93B0
:10242000CDB7DEB72C970FB6F894DEBF0FBECDBF89
:102430006C017B018A0169ED74E0CE0107960E9470
:10244000282A67ED74E0CE0107960E94AC286091BF
:10245000F7087091F8084AE0CE0101960E94A3297E
:10246000BE016F5F7F4FCE0107960E940A29CE0101
:1024700001960E949E296FEC74E0CE0107960E949F
:10248000AC28B601CE0107960E940A296DEC74E0D3
:10249000CE0107960E94AC28B701CE0107960E9494
:1024A0000A296BEC74E0CE0107960E94AC28B801B3
:1024B000CE0107960E940A29BE01695F7F4FCE01B7
:1024C00001960E94602ACE0101960E943C11CE0125
:1024D00001960E949E29CE0107960E949E2980E0C7
:1024E0002C960FB6F894DEBF0FBECDBFDF91CF9113
:1024F0001F910F91FF90EF90DF90CF900895FF9282
:102500000F931F93CF93DF93CDB7DEB762970FB6CC
:10251000F894DEBF0FBECDBF8C01F62EBC01CE01FC
:1025200001960E94602A63E47CE0CE0107960E9437
:10253000602A6DE37CE0CE010D960E94602AAE0118
:102540004F5F5F4FBE01695F7F4FCE010D960E94C6
:102550000812CE010D960E949E29CE0107960E9478
:102560009E29CE0101960E949E29F80184819581C1
:10257000892B09F411C268EA74E0808191810E947C
:102580004642892B09F008C269EC74E0CE0101963D
:102590000E94282A69E47CE0CE0107960E94602A06
:1025A0006DE37CE0CE010D960E94602AAE014F5F84
:1025B0005F4FBE01695F7F4FCE010D960E940812EA
:1025C000CE010D960E949E29CE0107960E949E295B
:1025D000CE0101960E949E2967EC74E0CE0101961F
:1025E0000E94282A6FE47CE0CE0107960E94602AB0
:1025F0006DE37CE0CE010D960E94602AAE014F5F34
:102600005F4FBE01695F7F4FCE010D960E94081299
:10261000CE010D960E949E29CE0107960E949E290A
:10262000CE0101960E949E2965EC74E0CE010196D0
:102630000E94282A65E57CE0CE0107960E94602A68
:102640006DE37CE0CE010D960E94602AAE014F5FE3
:102650005F4FBE01695F7F4FCE010D960E94081249
:10266000CE010D960E949E29CE0107960E949E29BA
:10267000CE0101960E949E2963EC74E0CE01019682
:102680000E94282A6BE57CE0CE0107960E94602A12
:102690006DE37CE0CE010D960E94602AAE014F5F93
:1026A0005F4FBE01695F7F4FCE010D960E940812F9
:1026B000CE010D960E949E29CE0107960E949E296A
:1026C000CE0101960E949E2961EC74E0CE01019634
:1026D0000E94282A61E67CE0CE0107960E94602ACB
:1026E0006DE37CE0CE010D960E94602AAE014F5F43
:1026F0005F4FBE01695F7F4FCE010D960E940812A9
:10270000CE010D960E949E29CE0107960E949E2919
:10271000CE0101960E949E296FEB74E0CE010196D6
:102720000E94282A67E67CE0CE0107960E94602A74
:102730006DE37CE0CE010D960E94602AAE014F5FF2
:102740005F4FBE01695F7F4FCE010D960E94081258
:10275000CE010D960E949E29CE0107960E949E29C9
:10276000CE0101960E949E296DEB74E0CE01019688
:102770000E94282A6DE67CE0CE0107960E94602A1E
:102780006DE37CE0CE010D960E94602AAE014F5FA2
:102790005F4FBE01695F7F4FCE010D960E94081208
:1027A000CE010D960E949E29CE0107960E949E2979
:1027B000CE0101960E949E296BEB74E0CE0101963A
:1027C0000E94282A63E77CE0CE0107960E94602AD7
:1027D0006DE37CE0CE010D960E94602AAE014F5F52
:1027E0005F4FBE01695F7F4FCE010D960E940812B8
:1027F000CE010D960E949E29CE0107960E949E2929
:10280000CE0101960E949E2969EB74E0CE010196EB
:102810000E94282A69E77CE0CE0107960E94602A80
:102820006DE37CE0CE010D960E94602AAE014F5F01
:102830005F4FBE01695F7F4FCE010D960E94081267
:10284000CE010D960E949E29CE0107960E949E29D8
:10285000CE0101960E949E2967EB74E0CE0101969D
:102860000E94282A6FE77CE0CE0107960E94602A2A
:102870006DE37CE0CE010D960E94602AAE014F5FB1
:102880005F4FBE01695F7F4FCE010D960E94081217
:10289000CE010D960E949E29CE0107960E949E2988
:1028A000CE0101960E949E2965EB74E0CE0101964F
:1028B0000E94282A65E87CE0CE0107960E94602AE3
:1028C0006DE37CE0CE010D960E94602AAE014F5F61
:1028D0005F4FBE01695F7F4FCE010D960E940812C7
:1028E000CE010D960E949E29CE0107960E949E2938
:1028F000CE0101960E949E2963EB74E0CE01019601
:102900000E94282A6BE87CE0CE0107960E94602A8C
:102910006DE37CE0CE010D960E94602AAE014F5F10
:102920005F4FBE01695F7F4FCE010D960E94081276
:10293000CE010D960E949E29CE0107960E949E29E7
:10294000CE0101960E949E2961EB74E0CE010196B2
:102950000E94282A61E97CE0CE0107960E94602A45
:102960006DE37CE0CE010D960E94602AAE014F5FC0
:102970005F4FBE01695F7F4FCE010D960E94081226
:10298000CE010D960E949E29CE0107960E949E2997
:10299000CE0101960E949E29F1100E94BB11629601
:1029A0000FB6F894DEBF0FBECDBFDF91CF911F9160
:1029B0000F91FF9008951F93CF93DF93CDB7DEB7AC
:1029C00062970FB6F894DEBF0FBECDBF162FBC01C5
:1029D000CE0101960E94602A61E67CE0CE01079656
:1029E0000E94602A6DE37CE0CE010D960E94602A71
:1029F000AE014F5F5F4FBE01695F7F4FCE010D9605
:102A00000E940812CE010D960E949E29CE010796C3
:102A10000E949E29CE0101960E949E2911110E94BA
:102A2000BB1162960FB6F894DEBF0FBECDBFDF912B
:102A3000CF911F9108950F931F93CF93DF93CDB73D
:102A4000DEB769970FB6F894DEBF0FBECDBF282F53
:102A50008B016DE37CE0CE014396298F0E94602AB2
:102A6000298D223061F0233091F02130C1F5B80179
:102A7000CE0101960E94602A63E77CE00FC0B80196
:102A8000CE0101960E94602A6FE77CE007C0B80182
:102A9000CE0101960E94602A6BE87CE0CE01079689
:102AA0000E94602ABE016D5E7F4FCE010D960E948E
:102AB000602AAE014F5F5F4FBE01695F7F4FCE015D
:102AC0000D960E940812CE010D960E949E29CE01FD
:102AD00007960E949E29CE0101960E949E29CE0152
:102AE00043960E949E2969960FB6F894DEBF0FBEEA
:102AF000CDBFDF91CF911F910F910895CF93DF93B9
:102B0000CDB7DEB762970FB6F894DEBF0FBECDBF6C
:102B1000BC01CE0101960E94602A67E67CE0CE01EE
:102B200007960E94602A6DE37CE0CE010D960E941C
:102B3000602AAE014F5F5F4FBE01695F7F4FCE01DC
:102B40000D960E940812CE010D960E949E29CE017C
:102B500007960E949E29CE0101960E949E296296A8
:102B60000FB6F894DEBF0FBECDBFDF91CF910895B1
:102B7000CF93DF93CDB7DEB762970FB6F894DEBF81
:102B80000FBECDBFBC01CE0101960E94602A69E450
:102B90007CE0CE0107960E94602A6DE37CE0CE01C6
:102BA0000D960E94602AAE014F5F5F4FBE01695FC4
:102BB0007F4FCE010D960E940812CE010D960E9405
:102BC0009E29CE0107960E949E29CE0101960E9461
:102BD0009E2962960FB6F894DEBF0FBECDBFDF917F
:102BE000CF9108954F925F926F927F928F929F92B2
:102BF000AF92BF92CF92DF92EF92FF920F931F930B
:102C0000CF93DF934B015C018091F5069091F6061E
:102C1000A091F706B091F80688169906AA06BB0699
:102C200009F4C2C08CE3C82ED12CE12CF12CC501D3
:102C3000B401A70196010E94C93F6093EE06CA0144
:102C4000B901A70196010E94C93F6093EF06CA012E
:102C5000B90128E130E040E050E00E94C93F69013D
:102C60007A016093F006CA01B9016C5F7F4F8F4F04
:102C70009F4F27E030E040E050E00E94C93F6F5F87
:102C80006093F106412C512C320140E004E610E043
:102C9000C0E9D1E0242F30E02E54384FF901E37021
:102CA000FF27309789F4C901B8010E94B53F892BED
:102CB00031F4C901BE010E94B53F892B29F48EE68B
:102CC00091E0A0E0B0E004C08DE691E0A0E0B0E0CB
:102CD000480E591E6A1E7B1ED301C201AA27BB27BC
:102CE000C816D906EA06FB0610F04F5FD3CF409313
:102CF000F406309799F4C90164E670E00E94B53F8C
:102D0000892B39F4C90160E971E00E94B53F892B34
:102D100029F48EE691E0A0E0B0E004C08DE691E0F9
:102D2000A0E0B0E0481A590A6A0A7B0AC418D5081C
:102D3000E608F708C90164E670E00E94B53FEC01BF
:102D4000C90160E971E00E94B53FA3E1B2E020E073
:102D5000213039F4309749F4209729F4009729F469
:102D600002C04C9103C04DE101C04CE150E060E075
:102D700070E0C416D506E606F70640F0C41AD50A78
:102D8000E60AF70A2F5F11962C3011F72F5F209378
:102D9000F306C394C092F2068092F5069092F6066E
:102DA000A092F706B092F806DF91CF911F910F9194
:102DB000FF90EF90DF90CF90BF90AF909F908F905B
:102DC0007F906F905F904F900895FC01918D828D60
:102DD000981761F0828DDF01A80FB11D5D968C916F
:102DE000928D9F5F9F73928F90E008958FEF9FEF7A
:102DF0000895FC01918D828D981731F0828DE80F36
:102E0000F11D858D90E008958FEF9FEF0895FC01EF
:102E1000918D228D892F90E0805C9F4F821B9109BC
:102E20008F739927089580E197E00E94071721E0AA
:102E3000892B09F420E0822F0895EF92FF920F93DF
:102E40001F93CF93DF9300D000D0CDB7DEB78C01B6
:102E50007A0165EE74E00E94282A8AE0E816F104FF
:102E60002CF463EE74E0C8010E94AC284AE0B7017C
:102E7000CE0101960E94CF29BE016F5F7F4FC8012E
:102E80000E940A29CE0101960E949E29C801269619
:102E90000FB6F894DEBF0FBECDBFDF91CF911F916B
:102EA0000F91FF90EF900895CF93DF9300D000D063
:102EB000CDB7DEB790E0FC013897E830F10508F0B7
:102EC0004AC08827EA57FF4F8F4F0C94EB3F61EBC6
:102ED00074E0CE0101960E94692ACE0101960E94FB
:102EE0008B25CE0101960E949E2981E090E035C09D
:102EF00064EC74E0CE0101960E94692ACE0101962D
:102F00000E948B25CE0101960E949E2982E090E0CE
:102F100024C067ED74E0CE0101960E94692ACE01BB
:102F200001960E948B25CE0101960E949E2985E084
:102F300090E013C06AEE74E0CE0101960E94692A07
:102F4000CE0101960E948B25CE0101960E949E29FA
:102F50008AE090E002C080E090E026960FB6F894F8
:102F6000DEBF0FBECDBFDF91CF910895CF93DF932A
:102F7000CDB7DEB762970FB6F894DEBF0FBECDBFF8
:102F8000BC01CE0101960E94602A6FE47CE0CE0174
:102F900007960E94602A6DE37CE0CE010D960E94A8
:102FA000602AAE014F5F5F4FBE01695F7F4FCE0168
:102FB0000D960E940812CE010D960E949E29CE0108
:102FC00007960E949E29CE0101960E949E29629634
:102FD0000FB6F894DEBF0FBECDBFDF91CF9108953D
:102FE000CF93DF93CDB7DEB762970FB6F894DEBF0D
:102FF0000FBECDBF2091F508223079F06EEF74E05E
:10300000CE0101960E94692ACE0101960E941B11F1
:10301000CE0101960E949E2929C0BC01CE010196D5
:103020000E94602A6DE97CE0CE0107960E94602A2A
:1030300067E97CE0CE010D960E94602AAE014F5FE9
:103040005F4FBE01695F7F4FCE010D960E9408124F
:10305000CE010D960E949E29CE0107960E949E29C0
:10306000CE0101960E949E290E94BB1162960FB666
:10307000F894DEBF0FBECDBFDF91CF910895CF93FF
:10308000DF93CDB7DEB762970FB6F894DEBF0FBE01
:10309000CDBFBC01CE0101960E94602A65E57CE0AF
:1030A000CE0107960E94602A6DE37CE0CE010D966A
:1030B0000E94602AAE014F5F5F4FBE01695F7F4F84
:1030C000CE010D960E940812CE010D960E949E29F7
:1030D000CE0107960E949E29CE0101960E949E294C
:1030E00062960FB6F894DEBF0FBECDBFDF91CF91D1
:1030F0000895CF93DF93CDB7DEB762970FB6F894FC
:10310000DEBF0FBECDBFBC01CE0101960E94602A7A
:103110006BE57CE0CE0107960E94602A6DE37CE0BF
:10312000CE010D960E94602AAE014F5F5F4FBE0137
:10313000695F7F4FCE010D960E940812CE010D9659
:103140000E949E29CE0107960E949E29CE010196DB
:103150000E949E2962960FB6F894DEBF0FBECDBFC7
:10316000DF91CF9108951F93CF93DF93CDB7DEB753
:1031700062970FB6F894DEBF0FBECDBF162FBC010D
:10318000CE0101960E94602A61E97CE0CE0107969B
:103190000E94602A6DE37CE0CE010D960E94602AB9
:1031A000AE014F5F5F4FBE01695F7F4FCE010D964D
:1031B0000E940812CE010D960E949E29CE0107960C
:1031C0000E949E29CE0101960E949E2911110E9403
:1031D000BB1162960FB6F894DEBF0FBECDBFDF9174
:1031E000CF911F910895CF93DF9320910B0C3091D5
:1031F0000C0C232B79F0FC01C091070CD091080C2A
:1032000060817181CE010E945642009719F08C1B9B
:103210009D0B02C08FEF9FEFDF91CF910895CF926A
:10322000DF92EF92FF920F931F93CF93DF93EC0106
:103230006A017B01E889F98982E080834115514E5A
:1032400061057105B1F060E079E08DE390E0A701E0
:1032500096010E94C93F89019A0101501109210973
:103260003109369527951795079598010115104155
:10327000A8F0E889F989108260E874E88EE190E0AE
:10328000A70196010E94C93FDA01C9010197A1096E
:10329000B109B695A795979587959C01EC85FD8515
:1032A0003083EE85FF852083188EEC89FD8986E0CA
:1032B0008083EA89FB89808180618083EA89FB8938
:1032C000808188608083EA89FB898081806880832F
:1032D000EA89FB8980818F7D8083DF91CF911F9167
:1032E0000F91FF90EF90DF90CF9008950F931F9371
:1032F0000E940C2D0091FB081091FC082091FD0804
:103300003091FE08601771078207930750F40E94FE
:103310000C2D6093FB087093FC088093FD0890933C
:10332000FE080E940C2D0091FB081091FC082091D2
:10333000FD083091FE08DC01CB01801B910BA20B34
:10334000B30B21E088389341A105B10508F420E0D2
:10335000822F1F910F910895E3ECFCE08FEF90E036
:10336000928B818B948B838B84ED9CE00C94A410C6
:10337000CF93DF93CDB7DEB762970FB6F894DEBF79
:103380000FBECDBFBC01CE0101960E94602A67E34B
:103390007CE0CE0107960E94602A61E37CE0CE01CA
:1033A0000D960E94602AAE014F5F5F4FBE01695FBC
:1033B0007F4FCE010D960E940812CE010D960E94FD
:1033C0009E29CE0107960E949E29CE0101960E9459
:1033D0009E290E94BB1162960FB6F894DEBF0FBE05
:1033E000CDBFDF91CF9108950F931F93CF93DF93BC
:1033F000CDB7DEB769970FB6F894DEBF0FBECDBF6D
:10340000282F8B016DE37CE0CE014396298F0E942B
:10341000602A298D223069F02330A1F02130D9F5BE
:103420004AE0B801CE0101960E94A3296DE67CE036
:1034300011C04AE0B801CE0101960E94A32969E7B4
:103440007CE008C04AE0B801CE0101960E94A329A1
:1034500065E87CE0CE0107960E94602ABE016D5EA1
:103460007F4FCE010D960E94602AAE014F5F5F4FE5
:10347000BE01695F7F4FCE010D960E940812CE01FA
:103480000D960E949E29CE0107960E949E29CE018C
:1034900001960E949E29CE0143960E949E2969961C
:1034A0000FB6F894DEBF0FBECDBFDF91CF911F9155
:1034B0000F9108952091D10C2F5F243018F42093A0
:1034C000D10C02C01092D10C2091D10C2130F9F016
:1034D00070F02230D1F1233009F051C080E590E046
:1034E0009093D50C8093D40C8BEF90E044C06AE0AD
:1034F00070E00E94A13FFC01ED53F34F838190E007
:103500009093D50C8093D40C8DEF90E034C08A302A
:103510009105A0F064E670E00E94A13F6AE070E0CF
:103520000E94A13FFB01ED53F34F838190E0909304
:10353000D50C8093D40C8FEE90E01DC08FEF90E0FF
:103540009093D50C8093D40C16C084369105B0F3BB
:1035500068EE73E00E94A13F64E670E00E94A13F24
:10356000FB01ED53F34F838190E09093D50C809352
:10357000D40C87EF90E09093D70C8093D60C84ED19
:103580009CE00C94A4100F931F930E940C2D0091AB
:10359000A90C1091AA0C2091AB0C3091AC0C6017C7
:1035A00071078207930750F40E940C2D6093A90CB9
:1035B0007093AA0C8093AB0C9093AC0C0E940C2DD2
:1035C0000091A90C1091AA0C2091AB0C3091AC0C7D
:1035D000DC01CB01801B910BA20BB30B21E0843FDC
:1035E0009140A105B10508F420E0822F1F910F91B1
:1035F00008951F93CF93DF9300D000D0CDB7DEB7EF
:10360000182F8091AD0C1817D1F0112319F066E036
:1036100075E002C062E275E0CE0101960E94692A5F
:10362000CE0101960E94C727CE0101960E949E29D5
:10363000612F8091B80C0E94662C1093AD0C0E94F3
:103640000C2D6093A90C7093AA0C8093AB0C9093F3
:10365000AC0C0E94C31A811103C00E94AC25F9CFA3
:1036600026960FB6F894DEBF0FBECDBFDF91CF9187
:103670001F910895CF93DF93CDB7DEB762970FB652
:10368000F894DEBF0FBECDBF4AE0682FCE01019691
:103690000E94FB2969E17CE0CE0107960E94602A26
:1036A00063E17CE0CE010D960E94602AAE014F5F7F
:1036B0005F4FBE01695F7F4FCE010D960E940812D9
:1036C000CE010D960E949E29CE0107960E949E294A
:1036D000CE0101960E949E2962960FB6F894DEBF35
:1036E0000FBECDBFDF91CF910895CF93DF93CDB7BC
:1036F000DEB762970FB6F894DEBF0FBECDBF4AE0CB
:10370000BC01CE0101960E94A3296FE17CE0CE01AD
:1037100007960E94602A63E17CE0CE010D960E942C
:10372000602AAE014F5F5F4FBE01695F7F4FCE01E0
:103730000D960E940812CE010D960E949E29CE0180
:1037400007960E949E29CE0101960E949E296296AC
:103750000FB6F894DEBF0FBECDBFDF91CF910895B5
:10376000CF93DF93CDB7DEB762970FB6F894DEBF85
:103770000FBECDBF4AE0BC01CE0101960E94A32935
:1037800065E27CE0CE0107960E94602A63E17CE05E
:10379000CE010D960E94602AAE014F5F5F4FBE01C1
:1037A000695F7F4FCE010D960E940812CE010D96E3
:1037B0000E949E29CE0107960E949E29CE01019665
:1037C0000E949E2962960FB6F894DEBF0FBECDBF51
:1037D000DF91CF910895CF93DF93CDB7DEB7629796
:1037E0000FB6F894DEBF0FBECDBFBC01CE0101966F
:1037F0000E94602A6BE27CE0CE0107960E94602A5C
:1038000063E17CE0CE010D960E94602AAE014F5F1D
:103810005F4FBE01695F7F4FCE010D960E94081277
:10382000CE010D960E949E29CE0107960E949E29E8
:10383000CE0101960E949E2962960FB6F894DEBFD3
:103840000FBECDBFDF91CF9108951F920F920FB69B
:103850000F9211240BB60F922F933F934F935F93C8
:103860006F937F938F939F93AF93BF93EF93FF9348
:1038700080E197E00E94052BFF91EF91BF91AF91FE
:103880009F918F917F916F915F914F913F912F9178
:103890000F900BBE0F900FBE0F901F9018954F9278
:1038A0005F926F927F928F929F92AF92BF92EF92B0
:1038B000FF920F931F93CF93DF93CDB7DEB76E9731
:1038C0000FB6F894DEBF0FBECDBF8C017B0168E858
:1038D00074E0CE010D960E94692AB701CE0143968D
:1038E0000E94602A68E874E0CE0149960E94692A25
:1038F00078012EE0E20EF11C0E940C2D4090E606AD
:103900005090E7066090E8067090E9064B015C0174
:1039100084189508A608B7088091EA069091EB06EE
:10392000A091EC06B091ED06E8EE8E16E3E09E065F
:10393000A104B104D0F00196A11DB11D8093EA0647
:103940009093EB06A093EC06B093ED06B301A201B1
:1039500048515C4F6F4F7F4F4093E6065093E70608
:103960006093E8067093E906C7CF4091E206509154
:10397000E3066091E4067091E50684179507A607B3
:10398000B70708F456C0E091E006F091E1063097E1
:1039900009F44FC01995611571058105910539F13B
:1039A0006093EA067093EB068093EC069093ED0625
:1039B000DC01CB01845D9E4FAF4FBF4F8093E20689
:1039C0009093E306A093E406B093E50682E090E0CE
:1039D0009093DF068093DE060E940C2D6093E6062E
:1039E0007093E7068093E8069093E90622C08091E1
:1039F000EA069091EB06A091EC06B091ED06845D8D
:103A00009E4FAF4FBF4F8093E2069093E306A09383
:103A1000E406B093E50681E090E02091DE06309167
:103A2000DF06232B11F480E090E09093DF06809373
:103A3000DE068090EA069090EB06A090EC06B0902F
:103A4000ED06C501B4010E94F2154091F00650E068
:103A5000B801CE0107960E941D1768EE74E0CE01F2
:103A600007960E94AC28C501B4010E94F21540914E
:103A7000EF0650E0B801CE0101960E941D17BE016D
:103A80006F5F7F4FCE0107960E940A29CE010196F3
:103A90000E949E2966EE74E0CE0107960E94AC2833
:103AA000C501B4010E94F2154091EE0650E0B80144
:103AB000CE0101960E941D17BE016F5F7F4FCE01A0
:103AC00007960E940A29CE0101960E949E29BE01F6
:103AD000695F7F4FCE0101960E94602A6FE375E017
:103AE000CE0101960E942329B7010E943C296DE373
:103AF00075E00E942329BE016D5E7F4F0E943C2924
:103B0000BC01CE0149960E948729CE0101960E94F0
:103B10009E29CE0107960E949E298D859E8500973D
:103B2000A9F0698D7A8D6115710571F04F855889FD
:103B30002D8D3E8D4217530738F00E944F428D8DD8
:103B40009E8D9A8B898B12C00E94B740898D9A8D69
:103B50009E878D878B8D9C8D988B8F878D8D9E8D6D
:103B60009A8B898B1A8E198E1C8E1B8E1E8E1D8E23
:103B7000CE0149960E949E29CE0143960E949E291D
:103B8000BE01635F7F4FF801808191810E94922A7C
:103B9000CE010D960E949E296E960FB6F894DEBF58
:103BA0000FBECDBFDF91CF911F910F91FF90EF908E
:103BB000BF90AF909F908F907F906F905F904F904D
:103BC0000895EF92FF920F931F93CF93DF93EC0131
:103BD0007B0168E874E008960E94692A8E01025F02
:103BE0001F4F68E874E0C8010E94692A80E197E0ED
:103BF0009983888380E092ECA1E0B0E08C839D8380
:103C0000AE83BF8381E495E09B838A83B701C801BB
:103C1000DF91CF911F910F91FF90EF900C94872926
:103C20001F920F920FB60F9211240BB60F922F9383
:103C30003F934F935F936F937F938F939F93AF9334
:103C4000BF93EF93FF93E091DC06F091DD061995A9
:103C5000FF91EF91BF91AF919F918F917F916F9164
:103C60005F914F913F912F910F900BBE0F900FBE20
:103C70000F901F901895FC01848DDF01A80FB11DD6
:103C8000A35ABF4F2C91848D90E001968F73992792
:103C9000848FA689B7892C93A089B1898C9180647F
:103CA0008C93938D848D981306C00288F389E02D40
:103CB00080818F7D808308951F920F920FB60F929F
:103CC00011240BB60F922F933F934F935F936F93F3
:103CD0007F938F939F93AF93BF93EF93FF9380E175
:103CE00097E00E943B1EFF91EF91BF91AF919F9192
:103CF0008F917F916F915F914F913F912F910F9095
:103D00000BBE0F900FBE0F901F901895EF92FF9271
:103D10000F931F93CF93DF93EC0181E0888F9B8DEE
:103D20008C8D981305C0E889F989808185FD24C0B0
:103D3000F62E0B8D10E00F5F1F4F0F731127E02E33
:103D40008C8DE8120CC00FB607FCFACFE889F98910
:103D5000808185FFF5CFCE010E943B1EF1CF8B8D78
:103D6000FE01E80FF11DE35AFF4FF0820B8FEA8945
:103D7000FB898081806207C0EE89FF896083E889C2
:103D8000F98980818064808381E090E0DF91CF9128
:103D90001F910F91FF90EF900895CF93DF93EC0167
:103DA000888D8823C9F0EA89FB89808185FD05C05B
:103DB000A889B9898C9186FD0FC00FB607FCF5CF95
:103DC000808185FFF2CFA889B9898C9185FFEDCFDD
:103DD000CE010E943B1EE7CFDF91CF910895CF9295
:103DE000DF92EF92FF920F931F93CF93DF93CDB7A4
:103DF000DEB762970FB6F894DEBF0FBECDBF9091CD
:103E0000F4088091F508992309F44BC08F3F41F4E1
:103E10000E947619882309F488C11092F40885C19C
:103E20000E947619882309F480C11092F4086AE090
:103E300075E0CE0101960E94282ACE0101960E94CB
:103E40001B11CE0101960E949E298091F6088F5F7A
:103E50008093F6088B3008F45EC06AEF74E0CE0100
:103E600001960E94282ACE0101960E941B11CE01C4
:103E700001960E949E2940E052EC61E070E0809142
:103E8000F2089091F3080E940F198091F208909126
:103E9000F308DC01ED91FC910284F385E02D199586
:103EA0003AC08430E1F565E475E0CE0101960E94E8
:103EB000692ACE0101960E941B11CE0101960E9433
:103EC0009E2960ED73E08091F2089091F3080E94C2
:103ED0007E2A8091F2089091F308DC01ED91FC912B
:103EE0000284F385E02D199564E670E080E090E0AF
:103EF0000E94D22C61E088E00E94662C0E940C2D6A
:103F00006093FB087093FC088093FD089093FE0873
:103F100081E08093F4088FEF8093F50806C18F3F0E
:103F200039F564E575E08DE09CE00E94702940E081
:103F300052EC61E070E08091F2089091F3080E94E9
:103F40000F1964E575E08091F2089091F3080E94E2
:103F50007E2A8091F2089091F308DC01ED91FC91AA
:103F60000284F385E02D199581E08093F408B4C4B0
:103F7000823039F10E940C2D00910309109104093F
:103F80002091050930910609DC01CB01801B910BC2
:103F9000A20BB30B89389341A105B10508F076C493
:103FA0000E940C2D0091030910910409209105092C
:103FB00030910609601771078207930708F466C4F9
:103FC000B4C08091F7089091F8082091F9083091D9
:103FD000FA08821B930B8F779927892B09F47FC0EE
:103FE0008091F9089091FA0816E0189FF001199F46
:103FF000F00D1124E95FF64F84819581892B09F436
:104000005AC08091F9089091FA08189FB001199F41
:10401000700D1124695F764F8091F2089091F3083A
:104020000E94922A8091F2089091F308DC01ED91B0
:10403000FC910284F385E02D1995E090F908F09049
:10404000FA086DE575E0CE0101960E94692A1E9D71
:10405000B0011F9D700D1124695F764FCE0101964E
:104060000E943C29BC01CE0107960E94602ACE0125
:1040700007960E941B11CE0107960E949E29CE0131
:1040800001960E949E2981E08093F4080E940C2DE5
:104090006093FB087093FC088093FD089093FE08E2
:1040A0000E940C2D6093FF08709300098093010912
:1040B000909302090EC06AEE74E0CE0101960E9450
:1040C000282ACE0101960E941B11CE0101960E9462
:1040D0009E2965E675E08DE09CE00E9470290E94B3
:1040E0000C2D0091FF0810910009209101093091D9
:1040F0000209DC01CB01801B910BA20BB30B8938A9
:104100009341A105B10508F0F2C30E940C2D009166
:10411000FF081091000920910109309102096017F0
:1041200071078207930708F4E2C38091F208909127
:10413000F308DC01ED91FC910480F581E02D1995E7
:10414000892B09F478C18091F2089091F308DC0181
:10415000ED91FC910680F781E02D1995182F898348
:104160001A8241E050E0BE016F5F7F4F87E09CE024
:104170000E94DC281092F6081D3009F05CC16AE646
:1041800075E0CE0107960E94692A67E07CE0CE01C7
:1041900007960E943C29BC01CE0101960E94602A2C
:1041A000CE0101960E941B11CE0101960E949E290C
:1041B000CE0107960E949E298091110C9091120CBD
:1041C000892B79F165E675E080910D0C90910E0CCC
:1041D0000E944642892B29F58091070C9091080C8A
:1041E000009719F00E94474503C060E070E0CB01E2
:1041F0002091F9083091FA08890120E030E0601739
:1042000071078207930709F010C18091F908909116
:10421000FA0801968F7799279093FA088093F90806
:1042200002C160ED73E0CE0101960E94692ACE01C1
:1042300001960E94F3188C01CE0101960E949E29DE
:104240000F3F1F4F79F165E875E0CE0101960E949E
:10425000282ACE0101960E941B11CE0101960E94D0
:104260009E2964E875E0CE0101960E94282ACE01BD
:1042700001960E941B11CE0101960E949E298091F9
:10428000110C9091120C892B09F4CDC064E575E0F6
:1042900080910D0C90910E0C0E944642892B09F4DE
:1042A0008FC0C1C069EC75E0CE0101960E94692AF9
:1042B000CE0101960E94F3188C01CE0101960E9456
:1042C0009E290F3F1F4FF1F06BE675E0CE0101967E
:1042D0000E94282ACE0101960E941B11CE01019650
:1042E0000E949E296AE675E0CE0101960E94282A66
:1042F000CE0101960E941B11CE0101960E949E29BB
:1043000082E08FC063E775E0CE0101960E94692AC2
:10431000CE0101960E94F3188C01CE0101960E94F5
:104320009E290F3F1F4FF1F062E575E0CE01019627
:104330000E94282ACE0101960E941B11CE010196EF
:104340000E949E2961E575E0CE0101960E94282A0F
:10435000CE0101960E941B11CE0101960E949E295A
:1043600083E05FC067EF72E0CE0101960E94692A88
:10437000CE0101960E94F3188C01CE0101960E9495
:104380009E290F3F1F4FF1F068E375E0CE010196C3
:104390000E94282ACE0101960E941B11CE0101968F
:1043A0000E949E2967E375E0CE0101960E94282AAB
:1043B000CE0101960E941B11CE0101960E949E29FA
:1043C00081E02FC068E775E0CE0101960E94692A5E
:1043D000CE0101960E94F3188C01CE0101960E9435
:1043E0009E290F3F1F4F09F16EE175E0CE01019646
:1043F0000E94282ACE0101960E941B11CE0101962F
:104400000E949E296DE175E0CE0101960E94282A46
:10441000CE0101960E941B11CE0101960E949E2999
:1044200084E08093F5081092F40868E874E087E06F
:104430009CE00E9470290E94B507209105023091EE
:1044400006028091F9069091FA068217930709F403
:1044500069C08091040221FD06C0882309F458C078
:104460006DED75E01CC025FD06C0882309F450C021
:1044700063ED75E014C0A90140745570452B31F40B
:10448000882309F445C069EC75E009C0A9014078AA
:104490005A70452BA1F48823D9F16FEB75E0CE015A
:1044A00001960E94282A60E0CE0101960E947F12A8
:1044B000CE0101960E949E291092040229C022FD7D
:1044C00005C0882329F165EB75E0E9CF23FD05C020
:1044D0008823F1F06BEA75E0E2CF24FD05C0882364
:1044E000B9F061EA75E0DBCF813091F06BE975E0FE
:1044F000CE0101960E94282A60E0CE0101960E941A
:104500007F12CE0101960E949E2981E080930402D1
:104510000E94BB1180910502909106029093FA06C9
:104520008093F90687E20E943D2C892B59F40E9462
:104530000C2D609380067093810680938206909381
:10454000830617C00E940C2D0091800610918106F1
:104550002091820630918306DC01CB01801B910BF8
:10456000A20BB30B813D9740A105B10510F40E9449
:104570000C2D0E947E0C8091A006882329F10E94B8
:104580000C2D6093FC067093FD068093FE069093BD
:10459000FF068091FB06811115C067EE75E0CE0124
:1045A00001960E94282ACE0101960E94722BCE010C
:1045B00001960E949E2961E08EE20E94662C81E0B5
:1045C0008093FB061092A0068091FB068823D9F108
:1045D0000E940C2DC090FC06D090FD06E090FE06D7
:1045E000F090FF06DC01CB018C199D09AE09BF09D3
:1045F00089389341A105B105A8F068E072E0CE01C9
:1046000001960E94282ACE0101960E94722BCE01AB
:1046100001960E949E2960E08EE20E94662C109214
:10462000FB0611C00E940C2D6C157D058E059F05A3
:1046300050F40E940C2D6093FC067093FD0680934D
:10464000FE069093FF0680910F07882321F00E94B9
:10465000EA0810920F0780910E07882309F493C08F
:104660008091B40C81118DC08091BD0C882309F418
:1046700088C08091BA0C8F5F8093BA0C823008F4A6
:1046800080C082E090E09093010D8093000D109225
:10469000020D81E090E09093040D8093030D85EE70
:1046A00090E09093060D8093050D88E180930F0DA7
:1046B0000E946A2781E080933B0D60E085E00E94C4
:1046C000CE26F82E882309F40DC268E874E0CE01E6
:1046D0000D960E94692A0E94C525E12CD12C0E2D31
:1046E0001D2D8091F60C9091F70CDC01ED91FC9161
:1046F0000480F581E02D1995892B09F429C1003139
:10470000110509F047C190E1E92ED12C23C1809118
:10471000200D882309F496C180911F0D281709F4F4
:10472000A5C18091200D0E9454178C0180911F0D0E
:1047300080933C0D0F3F09F49CC18091AF0C909188
:10474000B00C800F911D07FD9A959093B00C80934B
:10475000AF0C8091BC0C882391F061EA75E0CE012A
:1047600001960E94692ACE0101960E94C727CE01B8
:1047700001960E949E290E94210E1092BC0C10925C
:10478000BA0C10920E0780910D07882399F08CE0E7
:104790000E943D2C61E0892B09F060E08CE00E94D2
:1047A000662C8CE00E943D2C682F8DE00E94662CC8
:1047B00010920D0780910C07811110920C070E9436
:1047C0000C2D609308077093090780930A07909354
:1047D0000B07C0900407D0900507E0900607F09003
:1047E00007078B019C010C191D092E093F09023096
:1047F000110521053105D8F1209103072C19260F49
:1048000020930307609304077093050780930607BE
:10481000909307072A3008F46FC110920307909114
:1048200002079F5F9093020781E080930F079A3001
:1048300008F462C110920207909101079F5F909364
:10484000010780930E07953008F456C110920107B6
:10485000909100079F5F9093000780930D0792301F
:1048600008F44AC11092000780930C0745C16C15EB
:104870007D058E059F0508F03FC160930407709386
:104880000507809306079093070736C166EC75E02D
:104890008DE09CE00E94702966EC75E08091F20842
:1048A0009091F3080E947E2A8091F2089091F3087B
:1048B000DC01ED91FC910284F385E02D199581E0F6
:1048C0008093F4080E940C2D6093030970930409EF
:1048D00080930509909306090E940C2D6093FB08B4
:1048E0007093FC088093FD089093FE081ECC66EC44
:1048F00075E08DE09CE00E94702966EC75E0809187
:10490000F2089091F3080E947E2A8091F20890911B
:10491000F308DC01ED91FC910284F385E02D1995FB
:1049200081E08093F4080E940C2D6093FB08709343
:10493000FC088093FD089093FE080E940C2D609364
:10494000FF08709300098093010990930209EDCB51
:10495000E02ED12E0E94D025882381F06EE775E0ED
:10496000CE0101960E94692ACE0101960E948B25F4
:10497000CE0101960E949E29F12C04C00031110540
:1049800009F0ADCECE010D960E949E29FF2009F4BC
:10499000A9C035C08091F60C9091F70CDC01ED9127
:1049A000FC910680F781E02D1995E82E4AE0682FEA
:1049B000CE0101960E94FB29BE016F5F7F4FCE01A1
:1049C00007960E94602A6FE375E0CE0107960E9469
:1049D0002329BC01CE010D960E940A29CE0107961B
:1049E0000E949E29CE0101960E949E29F801EC505A
:1049F000F34FE7A20F5F1F4F0E94C52572CE809133
:104A00001F0D20913C0D90E0821B910902970CF440
:104A10007ECEF0901F0DF21AEF2DEE0F00E010E0A9
:104A20008EEFE82EEE0EFF2009F480CEED5FF0E071
:104A3000EC50F34F87A10E945417080F191FFA94E6
:104A4000EE2DEECF80911F0D281310C08091210D07
:104A50008E3051F480913E0D8F5F80933E0D8531F5
:104A600028F010923E0D05C010923E0D00E010E0BF
:104A70005DCE4AE06091BC0CCE0107960E94FB29F6
:104A800066EA75E0CE010D960E94692ABE01695F53
:104A90007F4FCE010D960E943C29BC01CE010196AC
:104AA0000E94602ACE0101960E94C727CE0101967E
:104AB0000E949E29CE010D960E949E29CE01079646
:104AC0000E949E298091BC0C8F5F8093BC0C8B3020
:104AD00008F455CE0E94E82781E08093BD0C0E9427
:104AE000710E4BCE4AE06091BC0CCE0107960E943D
:104AF000FB296FEC75E0C6CF62960FB6F894DEBF67
:104B00000FBECDBFDF91CF911F910F91FF90EF901E
:104B1000DF90CF900895CF93DF9300D000D0CDB732
:104B2000DEB7BC01CE0101960E94602ABE016F5F14
:104B30007F4F8091F40C9091F50C0E944F1CCE0198
:104B400001960E949E2926960FB6F894DEBF0FBEEE
:104B5000CDBFDF91CF9108958091F60C9091F70C25
:104B6000DC01ED91FC910480F581E02D1995892BF4
:104B700059F08091F60C9091F70CDC01ED91FC91CD
:104B80000680F781E02D199408950E940C2D609302
:104B9000FC0C7093FD0C8093FE0C9093FF0C089519
:104BA0000F931F930E940C2D0091FC0C1091FD0C93
:104BB0002091FE0C3091FF0C60177107820793075C
:104BC00010F40E94C5250E940C2D0091FC0C109140
:104BD000FD0C2091FE0C3091FF0CDC01CB01801B01
:104BE000910BA20BB30B21E0883C9105A105B10507
:104BF00008F420E0822F1F910F910895CF92DF9249
:104C0000FF920F931F93CF93DF93CDB7DEB76297D9
:104C10000FB6F894DEBF0FBECDBF68E874E0CE01DA
:104C20000D960E94692A0E94C52500E010E080913F
:104C3000F60C9091F70CDC01ED91FC910480F5816C
:104C4000E02D1995892B41F00530110509F04EC072
:104C500085E0C82ED12C01C068010E94D025F82E15
:104C6000811125C0B5E0CB16D10409F76DE076E0DF
:104C7000CE0107960E94692ABE01635F7F4FCE0175
:104C800007960E943C29BC01CE0101960E94602A31
:104C9000CE0101960E948B25CE0101960E949E298D
:104CA000CE0107960E949E290530110511F0F12CC6
:104CB00062C020E080E090E0FC01EC50F34F348DC6
:104CC000230F019685309105B9F78091120D883236
:104CD00021F08091120D8230F1F58091130D811138
:104CE0003AC0211138C0FF24F39445C08091F60CDE
:104CF0009091F70CDC01ED91FC910680F781E02D9D
:104D00001995F82E4AE0682FCE0107960E94FB29DC
:104D1000BE01695F7F4FCE0101960E94602A6FE35A
:104D200075E0CE0101960E942329BC01CE010D96AB
:104D30000E940A29CE0101960E949E29CE01079663
:104D40000E949E29F801EC50F34FF48E0F5F1F4F25
:104D50000E94C5256CCF6AE176E0CE0101960E94E3
:104D6000692ACE0101960E948B25CE0101960E94F0
:104D70009E290E94AC25CE010D960E949E298F2D62
:104D800062960FB6F894DEBF0FBECDBFDF91CF9114
:104D90001F910F91FF90DF90CF9008950F931F9375
:104DA000CF93DF93CDB7DEB762970FB6F894DEBF2F
:104DB0000FBECDBF182F062F68E874E0CE010D9608
:104DC0000E94692A0E94C525112309F452C08091CE
:104DD000F60C9091F70CDC01ED91FC910480F581CB
:104DE000E02D1995892B81F18091F60C9091F70CAB
:104DF000DC01ED91FC910680F781E02D19950023EF
:104E000001F14AE0682FCE0107960E94FB29BE01FE
:104E1000695F7F4FCE0101960E94602A6FE375E0C3
:104E2000CE0101960E942329BC01CE010D960E945D
:104E30000A29CE0101960E949E29CE0107960E9462
:104E40009E2911500E94C5250E94D025882309F46F
:104E5000BBCF69E376E0CE0101960E94692ACE01BC
:104E600001960E948B25CE0101960E949E2910E09A
:104E700021C00023F1F06BE576E0CE0107960E9499
:104E8000692ABE01635F7F4FCE0107960E943C29CD
:104E9000BC01CE0101960E94602ACE0101960E94BB
:104EA0008B25CE0101960E949E29CE0107960E9475
:104EB0009E2911E0CE010D960E949E29812F6296B7
:104EC0000FB6F894DEBF0FBECDBFDF91CF911F911B
:104ED0000F910895FF920F931F93CF93DF93CDB758
:104EE000DEB7C058D1090FB6F894DEBF0FBECDBFF4
:104EF0008091000D89830091020D0A838091030D3A
:104F00008B838091050D8C83FE01359680E090E0C7
:104F100010E08017910744F4DC01AC50B34F539676
:104F20002C9121930196F5CF0C5F1F4FE1E0F0E04B
:104F3000EC0FFD1FE00FF11F80910F0D8083F12C0E
:104F40002F2D30E002171307A4F08091F60C9091FA
:104F5000F70CDC01ED91FC91A1E0B0E0AC0FBD1FBE
:104F6000A20FB31F0190F081E02D6C911995F3947D
:104F7000E7CF80E0C058DF4F0FB6F894DEBF0FBE1A
:104F8000CDBFDF91CF911F910F91FF900895CF93E7
:104F9000DF9300D000D0CDB7DEB7BC01CE010196C3
:104FA0000E94602ABE016F5F7F4F8091A30C909199
:104FB000A40C0E944F1CCE0101960E949E292696A9
:104FC0000FB6F894DEBF0FBECDBFDF91CF9108952D
:104FD000CF93DF9300D000D0CDB7DEB78091B40C73
:104FE000811133C06AE676E0CE0101960E94692AFB
:104FF000CE0101960E948B25CE0101960E949E292A
:1050000082E090E09093010D8093000D81E0809309
:10501000020D81E090E09093040D8093030D84EEE7
:1050200090E09093060D8093050D1092070D88E196
:1050300080930F0D0E946A2761E086E00E94CE26D1
:1050400081110E94FE251092BD0C26960FB6F89491
:10505000DEBF0FBECDBFDF91CF9108950895CF92EF
:10506000DF92EF92FF920F931F93CF93DF936C0128
:105070007A018B01C0E0D0E0CE15DF0589F0D801C0
:105080006D918D01D601ED91FC910190F081E02DA3
:10509000C6011995892B11F47E0102C02196ECCF2F
:1050A000C701DF91CF911F910F91FF90EF90DF909B
:1050B000CF9008950E9438426115710579F0FB0187
:1050C00001900020E9F73197AF01461B570BDC0137
:1050D000ED91FC910280F381E02D199480E090E045
:1050E00008950F931F93CF93DF93EC0188819981EB
:1050F000009729F02A813B812617370788F48B0116
:105100006F5F7F4F0E944F41009761F099838883C2
:105110001B830A832C813D81232B11F4FC01108217
:1051200081E001C080E0DF91CF911F910F91089540
:105130008DEA97E00E94071721E0892B09F420E00F
:10514000822F08958AE498E00E94071721E0892BB6
:1051500009F420E0822F0895EF92FF920F931F939E
:10516000CF93DF936115710511F480E01EC08B01B0
:10517000EC01CB010E9475450097B1F02C813D8177
:105180007C01E20EF31EB701CE010E947128882334
:1051900061F3288139818C819D81B801820F931F31
:1051A0000E946E45FD82EC8281E0DF91CF911F91DC
:1051B0000F91FF90EF900895EF92FF920F931F933E
:1051C000CF93DF93FC01248135816115710511F4C2
:1051D00080E019C041155105A9F07B01EC018A015D
:1051E000020F131FB8010E947128882389F32881B8
:1051F00039818C819D81B701820F931F0E944F429C
:105200001D830C8381E0DF91CF911F910F91FF905F
:10521000EF900895FB0144815581608171810C9468
:10522000DC28CF93DF93EC0188819981009711F0FE
:105230000E94B740198218821D821C821B821A822A
:10524000DF91CF910895CF93DF93EC016115710544
:1052500061F0FB0101900020E9F73197AF01461B97
:10526000570B0E94DC28811103C0CE010E94112936
:10527000CE01DF91CF910895CF93DF93EC01FB0135
:1052800044815581608171810E94DC28811103C0B5
:10529000CE010E941129CE01DF91CF910895EF92A6
:1052A000FF920F931F93CF93DF93EC017B018A0151
:1052B000BA010E947128811104C0CE010E941129F7
:1052C00007C01D830C83B701888199810E944F42DA
:1052D000CE01DF91CF911F910F91FF90EF90089534
:1052E000CF93DF93EC016115710559F0FB0101903B
:1052F0000020E9F73197AF01461B570B0E944F2959
:1053000002C00E941129CE01DF91CF910895CF9361
:10531000DF93EC01FB018617970761F060817181D3
:105320006115710529F0448155810E944F2902C001
:105330000E941129CE01DF91CF910895FC01808157
:1053400091810C94B7400F931F93CF93DF93CDB708
:10535000DEB761970FB6F894DEBF0FBECDBF8C01EC
:10536000CB01F801118210821382128215821482FD
:1053700050E0BE016F5F7F4F0E94A945BE016F5F85
:105380007F4FC8010E94702961960FB6F894DEBF66
:105390000FBECDBFDF91CF911F910F9108950F9355
:1053A0001F93CF93DF93CDB7DEB762970FB6F89414
:1053B000DEBF0FBECDBF8C01CB01F8011182108280
:1053C000138212821582148250E0BE016F5F7F4FFC
:1053D0000E947E45BE016F5F7F4FC8010E94702909
:1053E00062960FB6F894DEBF0FBECDBFDF91CF91AE
:1053F0001F910F9108950F931F93CF93DF93CDB714
:10540000DEB729970FB6F894DEBF0FBECDBF8C0173
:10541000862FF80111821082138212821582148263
:1054200050E0BE016F5F7F4F90E00E94A945BE0132
:105430006F5F7F4FC8010E94702929960FB6F894BC
:10544000DEBF0FBECDBFDF91CF911F910F910895A9
:10545000EF92FF920F931F93CF93DF93EC0119828A
:1054600018821B821A821D821C826115710509F146
:105470008B01CB010E9475457C01BC01CE010E94CD
:105480007128811109C0CE01DF91CF911F910F9139
:10549000FF90EF900C941129FD82EC82B801888175
:1054A0009981DF91CF911F910F91FF90EF900C9414
:1054B0006E45DF91CF911F910F91FF90EF9008956E
:1054C000FC011182108213821282158214820C94C4
:1054D0008729FC01118210821382128215821482A4
:1054E0006115710551F0FB0101900020E9F731973A
:1054F000AF01461B570B0C944F2908950F931F9330
:10550000CF93DF93EC010E945C288C0166E874E085
:10551000CE010E945C28800F911FDF91CF911F91D7
:105520000F9108950F931F93CF93DF93EC01E881C0
:10553000F981DB0114964D915C9115976D917C91E9
:105540000280F381E02D19958C0166E874E0CE01AC
:105550000E945C28800F911FDF91CF911F910F91C6
:1055600008951F920F920FB60F9211240BB60F924F
:105570002F933F934F935F936F937F938F939F935B
:10558000AF93BF93EF93FF938DEA97E00E943B1E8A
:10559000FF91EF91BF91AF919F918F917F916F910B
:1055A0005F914F913F912F910F900BBE0F900FBEC7
:1055B0000F901F9018951F920F920FB60F92112403
:1055C0000BB60F922F933F934F935F936F937F93FD
:1055D0008F939F93AF93BF93EF93FF938AE498E0E9
:1055E0000E943B1EFF91EF91BF91AF919F918F91D0
:1055F0007F916F915F914F913F912F910F900BBED3
:105600000F900FBE0F901F901895FC01A089B189D3
:105610008C91A689B78982FD0FC09C91818D8F5F87
:105620008F73228D821749F0218DDF01A20FB11DEA
:105630005D969C93818F08958C9108951F920F928F
:105640000FB60F9211240BB60F922F933F934F93E7
:105650005F936F937F938F939F93AF93BF93EF93DA
:10566000FF938DEA97E00E94052BFF91EF91BF9188
:10567000AF919F918F917F916F915F914F913F91EA
:105680002F910F900BBE0F900FBE0F901F9018958B
:105690001F920F920FB60F9211240BB60F922F93F9
:1056A0003F934F935F936F937F938F939F93AF93AA
:1056B000BF93EF93FF938AE498E00E94052BFF913C
:1056C000EF91BF91AF919F918F917F916F915F917A
:1056D0004F913F912F910F900BBE0F900FBE0F90E7
:1056E0001F901895CF93DF9300D000D0CDB7DEB7D1
:1056F000BC01CE0101960E94602ABE016F5F7F4F00
:1057000080EE9CE00E944F1CCE0101960E949E29D3
:1057100026960FB6F894DEBF0FBECDBFDF91CF91B6
:10572000089580E090E0892B21F00E94A228811149
:105730001DC080E090E0892B41F080E090E0892B53
:1057400021F00E940000811114C080E090E0892BBC
:1057500021F00E94131781110FC080E090E0892B87
:1057600081F00E94982881110AC008950E940000CB
:10577000E0CF0E940000E9CF0E940000EECF0C9421
:105780000000089590E0FC013197E231F10508F046
:105790004EC08827E257FF4F8F4F0C94EB3F80910C
:1057A00080008F7703C0809180008F7D8093800080
:1057B000089580918000877FF9CF84B58F7702C0EC
:1057C00084B58F7D84BD08958091B0008F7703C02C
:1057D0008091B0008F7D8093B000089580919000FB
:1057E0008F7707C0809190008F7D03C080919000DB
:1057F000877F8093900008958091A0008F7707C0E5
:105800008091A0008F7D03C08091A000877F80934E
:10581000A0000895809120018F7707C0809120011A
:105820008F7D03C080912001877F809320010895A0
:105830003FB7F8948091EC089091ED08A091EE08A4
:10584000B091EF0826B5A89B05C02F3F19F001962F
:10585000A11DB11D3FBFBA2FA92F982F8827820FF6
:10586000911DA11DB11DBC01CD0142E0660F771F46
:10587000881F991F4A95D1F70895CF93DF93282F5A
:1058800030E0F901ED50F94F8491F901E355F94FFA
:10589000D491F901E959F94FC491CC2391F08111C8
:1058A0000E94C22BEC2FF0E0EE0FFF1FE35BF94FDD
:1058B000A591B491EC91ED2381E090E021F480E09A
:1058C00002C080E090E0DF91CF9108951F93CF93C5
:1058D000DF93282F30E0F901ED50F94F8491F90161
:1058E000E355F94FD491F901E959F94FC491CC230B
:1058F000C9F0162F81110E94C22BEC2FF0E0EE0FA1
:10590000FF1FED5CF94FA591B4918FB7F894111179
:1059100005C09C91ED2FE095E92302C0EC91ED2BA1
:10592000EC938FBFDF91CF911F910895CF93DF93B9
:1059300090E0FC01E355F94F2491FC01E959F94F3E
:105940008491882361F190E0880F991FFC01E75E44
:10595000F94FC591D491FC01ED5CF94FA591B4913B
:10596000611109C09FB7F8948881209582238883AC
:10597000EC912E230BC0623061F49FB7F89438810C
:10598000822F809583238883EC912E2B2C939FBFAD
:1059900006C08FB7F894E8812E2B28838FBFDF9144
:1059A000CF9108958F929F92AF92BF92CF92DF9244
:1059B000EF92FF926B017C010E94182C4B015C015D
:1059C000C114D104E104F104F1F00E94182CDC01AF
:1059D000CB0188199909AA09BB09883E9340A10502
:1059E000B10570F321E0C21AD108E108F10888EE90
:1059F000880E83E0981EA11CB11CC114D104E104DF
:105A0000F10419F7DDCFFF90EF90DF90CF90BF90BA
:105A1000AF909F908F9008952FB7F8946091E80809
:105A20007091E9088091EA089091EB082FBF0895E2
:105A30001F920F920FB60F9211242F933F938F93C3
:105A40009F93AF93BF938091E8089091E908A0914C
:105A5000EA08B091EB083091E70823E0230F2D37D7
:105A600020F40196A11DB11D05C026E8230F029662
:105A7000A11DB11D2093E7088093E8089093E908E1
:105A8000A093EA08B093EB088091EC089091ED08A0
:105A9000A091EE08B091EF080196A11DB11D809371
:105AA000EC089093ED08A093EE08B093EF08BF9137
:105AB000AF919F918F913F912F910F900FBE0F90BB
:105AC0001F901895CF93DF93CDB7DEB7CD55D10991
:105AD0000FB6F894DEBF0FBECDBF789484B5826058
