:100000000C94CA030C94FB030C94FB030C94FB03A9
:100010000C94FB030C94FB030C94FB030C94FB0368
:100020000C94FB030C94FB030C94FB030C94FB0358
:100030000C94FB030C94FB030C94FB030C94FB0348
:100040000C94FB030C94FB030C94FB030C94FB0338
:100050000C9404250C94FB030C94FB030C942628AD
:100060000C94FB030C948A2B0C941D2B0C94FB0317
:100070000C94FB030C94FB030C94FB030C94FB0308
:100080000C94FB030C94FB030C94FB030C94FB03F8
:100090000C94FB030C94FB030C94FB030C94FB03E8
:1000A0000C94FB030C94FB030C94FB030C94FB03D8
:1000B0000C94FB030C94FB030C94FB030C94FB03C8
:1000C0000C94FB030C94FB030C94FB030C949A23F9
:1000D0000C9470230C94FB030C94602B0C94F32A67
:1000E0000C94FB03450448044B04540457045A047D
:1000F0005D046004940497049A049D04A004A3047E
:10010000A604AF04B804C104C404C7049F1D9F1D06
:10011000B01DB01DB01DC11DC11DD21D3E24412406
:10012000302434243A247824452449244F24532469
:1001300057245D246124652478246B246F24732460
:100140000C943A240C949D040C94A3040C94412424
:100150000C9457240C94D8230C9445040C949404C8
:100160000C9448040C94B01D0C9497040C94AF04A8
:100170000C945A040C9449240C94FD030C944524CB
:100180000C94D7380C945D040C94C4230C94C104D3
:100190000C94A0040C94B8040C944F240C94782470
:1001A0000C949A040C9450250C9465240C945D24B2
:1001B0000C946F240C943E240C94E6230C94342469
:1001C0000C949F1D0C94A6040C94C7040C94D33D6E
:1001D0000C9457040C9453240C9497250C946B2482
:1001E0000C94D21D0C9461240C9454040C944B0474
:1001F0000C9430240C9460040C9473240C94C40468
:100200000C9471280C94C11D4C45442043757020FA
:1002100048616E646C65202D204F46460072656112
:1002200064206565702E2063757020737461636B44
:10023000657220706F732E203D20004F4B00437578
:100240007020737461636B6572203E3E204F4B00DB
:10025000454D5054590043757020737461636B654C
:1002600072203E3E20456D707479004F4646004F27
:100270004E004F4B00504F574552204F4E00232306
:1002800023206D696E69436F66666565204861630A
:100290006B20762E323033203E3E205374617274D0
:1002A0002E2E2E007772697465206565702E206988
:1002B00074656D5F70726963655B004F726465722F
:1002C000204E6F2E2069732057726F6E6720212198
:1002D000006D616B655369676E616C546F436F6944
:1002E0006E203E3E20556E737563636573732021E7
:1002F00021004F72646572205061796F7574203EE1
:100300003E204F4B004F72646572205061796F75CB
:1003100074203E3E2054696D656F75740020005551
:100320004E53554343455353005472616E7361639A
:1003300074696F6E203E3E20554E535543434553DE
:1003400053200053554343455353005472616E7319
:10035000616374696F6E203E3E205355434345539D
:10036000532000454D5054590043757020737461FB
:10037000636B6572203E3E20456D707479004F4B73
:100380000043757020737461636B6572203E3E207C
:100390004F4B004F4E00426F696C6572203E3E200D
:1003A000506F776572204F4E004F464600426F698E
:1003B0006C6572203E3E20506F776572204F464636
:1003C000004C4F57005761746572204C6576656C20
:1003D000203E3E204C4F57004F4B005761746572D2
:1003E000204C6576656C203E3E204F4B004F4646C4
:1003F0000050756D70203E3E20436C6F7365004564
:1004000052524F520050756D70203E3E2045727220
:100410006F72004F4E0050756D70203E3E204F7041
:10042000656E007772697465206565702E2063754E
:100430007020737461636B657220706F732E203D42
:10044000200072656164206565702E206974656D99
:100450005F70726963655B00300030300045004FAB
:100460004B004F50454E00434C4F5345005365746D
:100470002050756D702031202D204F4E0053657433
:100480002050756D702031202D204F46460043438B
:1004900054414C4B00434C4F5544424F580043434A
:1004A00054414C4B2D444556494345007365744CAB
:1004B00045444974656D53656C656374507772206B
:1004C0003E3E204E6F7420666F756E6420212100C1
:1004D00064617461203E3E20656D70747921210055
:1004E000436865636B20436C6F7564426F7820527C
:1004F00065616479203F00436865636B20436C6FDE
:100500007564426F7820436F6E6E656374696F6EB9
:10051000203F00526573657420436F6D706F727475
:10052000212100526573706F6E73652054696D658B
:100530006F75742121005374617465207265747540
:10054000726E2054696D656F757421210000436CD3
:100550006F7564426F782052657475726E203E3EEE
:100560002052455345540000436C6F7564426F78C8
:100570002052657475726E203E3E204552524F5295
:100580000000436C6F7564426F7820526574757219
:100590006E203C3C20425553590000436C6F7564FB
:1005A000426F782052657475726E203C3C20526513
:1005B0006164790000436C6F7564426F7820526506
:1005C0007475726E203C3C204F4B0052454144599B
:1005D000004E4F54205245414459004E4F54205232
:1005E00045414459004E4F54205245414459004E14
:1005F0004F54205245414459004E4F5420524541DA
:100600004459004E4F54205245414459202D204F0B
:100610005045524154494E47004E4F542052454197
:100620004459004C4544204375702048616E646C09
:1006300065202D204F4E002D002D002D002D002D6A
:10064000002D002D002D002D002D002D002D002D42
:10065000003D003A0043422B534554400023000024
:1006600043422B55500023000000002100240027A6
:10067000002A002D003000330001010000040107B2
:10068000010A0100002200250028002B002E003165
:1006900000340002010000050108010B01000020E8
:1006A000002300260029002C002F0032000001004A
:1006B00000030106010901050505050705080808ED
:1006C00008020202020A0A080804040404010101E3
:1006D00001010101010303030303030303040707EB
:1006E000070C0C0C0C0C0C0C0C0202020206060689
:1006F00006060606060B0B0B0B0B0B0B0B01021071
:10070000202008081020401020408002010201082B
:1007100004020101020408102040808040201008DB
:100720000402018004020180402010080402010834
:100730000402010102040810204080010204081094
:1007400020408000000A0B02090C0D0E080703046C
:100750000100000000000000000000000000000098
:100760000000000000000000000000000000001277
:100770001110000000000000000000000000000058
:100780000000000000000000003000003A003A00C5
:10079000D738D33D11241FBECFEFD1E2DEBFCDBF8E
:1007A00000E00CBF15E0A0E0B2E0EAEBFBE800E0FF
:1007B0000BBF02C007900D92A63DB107D9F72CE000
:1007C000A6EDB5E001C01D92AB39B207E1F713E029
:1007D000C9ECD3E000E006C021970109802FFE019B
:1007E0000E94C73EC83CD10780E00807A9F70E94D5
:1007F000D32B0C94CB450C940000CF93809108022E
:10080000833009F4E3C034F4813059F0823009F4C4
:1008100070C082C1843009F4F2C0853009F446C149
:100820007BC12091ED05809105069091060622235B
:1008300089F02091EB053091EC052817390728F055
:10084000A901481B590BCA0102C080E090E0CF917A
:100850000C94C70E0097D9F780912D0C90912E0C17
:10086000019790932E0C80932D0C892B09F054C185
:100870008091250C90E08830910550F5FC01882787
:10088000EE58FF4F8F4F0C94C73E8BEF90E005C0A2
:1008900087EF90E017C08FEE90E090932C0C809340
:1008A0002B0C0E94F40F14C08DEF90E00BC08DEF65
:1008B00090E0F3CF8FEE90E005C087EF90E0EDCFB2
:1008C0008BEF90E090932C0C80932B0C0E94FE0FEA
:1008D0008091250C8F5F883018F48093250C02C01E
:1008E0001092250C86E990E090932E0C80932D0CAD
:1008F00013C180912F0C9091300C01979093300C84
:1009000080932F0C892B09F007C19091280C492F57
:1009100050E04C30510508F046C0FA018827E658EF
:10092000FF4F8F4F0C94C73E2EEF30E032C02EEFBA
:1009300030E020C02EEF30E014C02EEF30E008C0D1
:100940002BEF30E005C02FEE30E002C02FEB30E09F
:1009500030932A0C2093290C2DEF30E020C02FEB90
:1009600030E030932A0C2093290C2FEE30E017C092
:100970002FEB30E030932A0C2093290C27EF30E046
:100980000EC02FEB30E005C02FE730E002C02DEFA6
:1009900030E030932A0C2093290C2BEF30E0309379
:1009A0002C0C20932B0C24E130E03093300C20935E
:1009B0002F0C9F5F9C3018F49093280C02C010926B
:1009C000280C89E29CE0CF910C94820EC0912806FD
:1009D000C13059F008F474C0C23061F0C33011F571
:1009E0006DEF70E08BE590E01BC067EF70E082EC8C
:1009F00090E016C06FEE70E087ED90E011C080913E
:100A00000A0C882309F44DC0082E000C990BC091E4
:100A10002806C130A9F078F46BEF70E08BEC90E021
:100A20000E94E60FCF5FC0932806C43008F474C05C
:100A30001092280671C0C23041F0C330E1F0F2CF0D
:100A400067EF70E083EE90E0EBCF8F3F5FEF9507AD
:100A500009F440C0843691051CF06FEE70E017C0B9
:100A60008A309105BCF16AE070E00E94913ECB01B2
:100A70006FEE70E033C08F3F2FEF920719F46DEFE8
:100A800070E02AC0843691052CF06DEF70E089E0AB
:100A900090E024C06AE070E00E94913E6DEF70E04B
:100AA0001DC0809104068093080236C0C0912806BC
:100AB000C13059F028F0C23069F0C33091F0B2CFA4
:100AC0006BEF70E083EC90E0ABCF67EF70E088E015
:100AD00090E0A6CF6FEE70E080E090E00E94D60F2D
:100AE000A1CF8091050283FD05C06DEF70E081E02C
:100AF00090E0F4CF82FD05C06DEF70E082E090E001
:100B0000EDCF84FD05C06DEF70E083E090E0E6CFAF
:100B100081E08093080286CFCF91089583E00E9400
:100B2000B92521E0892B09F020E0822F0895E1E822
:100B3000F0E0908180912908892B8083089510929C
:100B40000802E1E8F0E08081887F80830895CF92F9
:100B5000DF92EF92FF920F931F936B017C010E9433
:100B600088260091E6051091E7052091E80530916F
:100B7000E905601771078207930750F40E948826E1
:100B80006093E6057093E7058093E8059093E90587
:100B90000E9488260091E6051091E7052091E8055E
:100BA0003091E905AB01BC01401B510B620B730B8B
:100BB00081E0C416D506E606F70608F080E01F912E
:100BC0000F91FF90EF90DF90CF900895E2EFF5E066
:100BD0001182128213821092ED051092FE0510927E
:100BE000EC051092EB05E8E1FCE0158686E990E063
:100BF000968B858B108A84E190E0908F878B089587
:100C00001F93CF93DF9300D000D0CDB7DEB7182F5E
:100C10008CE20E94B92521E0892B09F420E012170B
:100C200021F1112381F06DE674E0CE0101960E945E
:100C30006A2ACE0101960E94B42BCE0101960E9431
:100C4000E02961E00FC06DE774E0CE0101960E94DB
:100C50006A2ACE0101960E94B42BCE0101960E9411
:100C6000E02960E08CE20E94E22526960FB6F89417
:100C7000DEBF0FBECDBFDF91CF911F9108958F9240
:100C80009F92AF92BF92EF92FF921F93CF93DF9309
:100C900000D000D0CDB7DEB780E30E94B92511E0C7
:100CA000892B09F410E080912706181761F00E9443
:100CB00088266093230670932406809325069093DC
:100CC0002606109327060E9488268090230690907F
:100CD0002406A0902506B0902606DC01CB018819D9
:100CE0009909AA09BB09893E9340A105B10558F4A9
:100CF0000E948826681579058A059B0520F0809159
:100D00000C02882389F12091050230910602812F7F
:100D100090E021FBEE24E0F8F12C8E159F0521F4E4
:100D200080910C02882301F1112311F0226001C08F
:100D30002D7F30930602209305028091050281FFEA
:100D400003C067E674E002C062E674E0CE0101967B
:100D50000E946A2ACE0101960E94671BCE0101966D
:100D60000E94E02910920C02812F26960FB6F8946B
:100D7000DEBF0FBECDBFDF91CF911F91FF90EF90EF
:100D8000BF90AF909F908F9008951F93CF93DF9364
:100D9000CDB7DEB768970FB6F894DEBF0FBECDBFF4
:100DA00010910A0C111118C06FE574E0CE01019684
:100DB0000E946A2ACE0101960E942D1BCE01019647
:100DC0000E94E02980910502909106028062909332
:100DD0000602809305027EC06DE574E0CE010196A7
:100DE0000E946A2A1F3F29F5BE016F5F7F4FCE0127
:100DF00007960E94A22A6AE574E0CE0107960E9437
:100E0000EE28811104C0CE0107960E945329BE012D
:100E1000695F7F4FCE010D960E94A22ACE010D96EA
:100E20000E942D1BCE010D960E94E029CE0107964F
:100E300042C0612F012E000C770B4AE0CE010D96C7
:100E40001A30B4F40E94112ABE016F5F7F4FCE01A9
:100E500007960E94A22A68E574E0CE0107960E94D8
:100E6000EE2881110EC0CE0107960E94532909C0B9
:100E70000E94112ABE016F5F7F4FCE0107960E942C
:100E8000A22ABE01635F7F4FCE0107960E947E2992
:100E9000BC01CE0143960E94A22ACE0143960E9435
:100EA0002D1BCE0143960E94E029CE0107960E9499
:100EB000E029CE010D960E94E029809105029091D3
:100EC00006028F7D9093060280930502CE01019663
:100ED0000E94E02968960FB6F894DEBF0FBECDBF22
:100EE000DF91CF911F9108955F926F927F928F92C1
:100EF0009F92AF92BF92CF92DF92EF92FF920F93A9
:100F00001F93CF93DF93CDB7DEB7A0970FB6F894BA
:100F1000DEBF0FBECDBF66246394712C552453945D
:100F20008E010F5F1F4F96E4E92E93E0F92E22E326
:100F3000C22E23E0D22E82E0681629F093E06916D3
:100F400021F082E303C085E301C081E30E94B9255B
:100F500021E0892B09F420E0F301E251FA4F4F011F
:100F60002083C3018E519A4F5C01FC01808182175E
:100F7000E9F0211109C0F301EE50FA4F50827F923F
:100F80006F92DF92CF9204C07F926F92FF92EF92A6
:100F90001F930F930E944C410F900F900F900F9052
:100FA0000F900F90F4018081F5018083FFEF6F1A9D
:100FB0007F0A84E06816710409F0BDCFA0960FB6D1
:100FC000F894DEBF0FBECDBFDF91CF911F910F917F
:100FD000FF90EF90DF90CF90BF90AF909F908F9059
:100FE0007F906F905F900895CF93DF93CDB7DEB77A
:100FF00068970FB6F894DEBF0FBECDBF63E274E012
:10100000CE0101960E946A2A6091030680E190E079
:101010000E94BD456AE070E080E090E00E944E26AC
:1010200060910306062E000C770B4AE0CE010D9668
:101030000E94112ABE016F5F7F4FCE0107960E946A
:10104000A22ABE01635F7F4FCE0107960E947E29D0
:10105000BC01CE0143960E94A22ACE0143960E9473
:10106000B42BCE0143960E94E029CE0107960E9440
:10107000E029CE010D960E94E029CE0101960E9442
:10108000E02968960FB6F894DEBF0FBECDBFDF91A2
:10109000CF910895E6EFF5E082819381883E9340F9
:1010A00010F013821282329685E0EC3FF807A1F728
:1010B00008958F929F92AF92BF92CF92DF92EF925C
:1010C000FF921F93CF93DF93CDB7DEB762970FB632
:1010D000F894DEBF0FBECDBF88EFA82E85E0B82EF6
:1010E00090E0E92E96E0F92E11E02AE0C22ED12CF4
:1010F000C6010E94B545982EC60101960E94B545CD
:10110000292D30E0A901582BCA014501F501518371
:1011100040832091050230910602F701892BD9F412
:10112000808180688083123039F0133071F02F7B1A
:1011300030930602209305028091050290910602E9
:101140009E7F909306028093050280910502909104
:1011500006029B7F1AC080818F778083123039F01E
:10116000133071F0206430930602209305028091C1
:101170000502909106029160909306028093050209
:1011800080910502909106029460909306028093EC
:1011900005020E944A0862E474E0CE010D960E94A6
:1011A0006A2A4AE0612FCE0107960E943D2ABE01BD
:1011B000695F7F4FCE0101960E94A22A6CE472E023
:1011C000CE0101960E946529BC01CE010D960E94B8
:1011D0004C29CE0101960E94E029CE0107960E947B
:1011E000E029F2E0AF0EB11CF401608171814AE0A8
:1011F000CE0101960E94E529BE016F5F7F4FCE01AF
:101200000D960E944C29CE0101960E94E029BE0154
:10121000635F7F4FCE0101960E94A22ACE01019604
:101220000E94B42BCE0101960E94E029CE010D96BA
:101230000E94E029F2E0CF0ED11C1F5F4FEFE41AAD
:10124000F40A143009F054CF62960FB6F894DEBF5A
:101250000FBECDBFDF91CF911F91FF90EF90DF9038
:10126000CF90BF90AF909F908F90089585E30E949C
:10127000B92521E0892B09F420E0822F0895CF922F
:10128000DF92EF92FF92CF93DF9300D000D0CDB7E3
:10129000DEB78091050284FD34C08CE20E94B9253E
:1012A000892B79F580910B02882359F181E00E9406
:1012B000000666E174E0CE0101960E946A2ACE0122
:1012C00001960E94B42BCE0101960E94E02963E1B1
:1012D00074E0CE0101960E946A2A61E0CE01019677
:1012E0000E948A1ACE0101960E94E0290E94882657
:1012F00060931F0670932006809321069093220628
:1013000082C08CE20E94B925892B09F47CC08091AF
:10131000050284FD39C00E948826C0901F06D09027
:101320002006E0902106F0902206DC01CB018C190A
:101330009D09AE09BF0981349F41A105B10508F49B
:1013400062C080E00E94000665E074E0CE01019674
:101350000E946A2ACE0101960E94B42BCE0101960A
:101360000E94E0296FEF73E0CE0101960E946A2A85
:1013700061E0CE0101960E948A1ACE0101960E9478
:10138000E02910920B023FC00E948826C0901F06E1
:10139000D0902006E0902106F0902206DC01CB01DF
:1013A0008C199D09AE09BF0981349C49A105B1057D
:1013B00038F40E9488266C157D058E059F0518F56A
:1013C00080E00E94000661EF73E0CE0101960E946A
:1013D0006A2ACE0101960E94B42BCE0101960E948A
:1013E000E0296DEE73E0CE0101960E946A2A61E069
:1013F000CE0101960E948A1ACE0101960E94E02930
:1014000081E080930B0226960FB6F894DEBF0FBEE4
:10141000CDBFDF91CF91FF90EF90DF90CF900895F7
:10142000CF92DF92EF92FF921F93CF93DF93C82F5B
:101430000E9488266B017C0110E0D0E00E943F09E9
:101440000E942910CE010E949A160E9488266C15CF
:101450007D058E059F0520F40E9488266B017C0186
:101460000E948826DC01CB018C199D09AE09BF09B9
:10147000893C9105A105B10558F48FE10E94B92579
:10148000892BE1F20E9488266B017C0111E0D6CF06
:10149000812FDF91CF911F91FF90EF90DF90CF9040
:1014A00008950F931F93CF93DF9300D000D0CDB753
:1014B000DEB78DE10E94B925209105023091060228
:1014C000892B11F0206101C02F7E309306022093FA
:1014D00005022091050280911E0690E024FB002762
:1014E00000F910E08017910729F480910A028823FF
:1014F00009F44AC024FF1DC06BED73E0CE010196D4
:101500000E946A2ACE0101960E94B42BCE01019658
:101510000E94E02968ED73E0CE0101960E946A2ADC
:10152000CE0101960E94FB1ECE0101960E94E02989
:1015300023C065EC73E0CE0101960E946A2ACE01B9
:1015400001960E94B42BCE0101960E94E02961EC25
:1015500073E0CE0101960E946A2ACE0101960E9494
:10156000FB1ECE0101960E94E02980910802809323
:10157000040685E0809308028091050282958170BF
:1015800080931E0610920A0226960FB6F894DEBFCC
:101590000FBECDBFDF91CF911F910F9108950F9393
:1015A0001F9387E20E94B925892B59F40E9488264F
:1015B0006093DA057093DB058093DC059093DD057D
:1015C00024C00E9488260091DA051091DB05209145
:1015D000DC053091DD05DC01CB01801B910BA20BFA
:1015E000B30B853F9140A105B10588F40E94882680
:1015F0000091DA051091DB052091DC053091DD05C5
:10160000601771078207930710F081E001C080E046
:101610001F910F9108950F931F9385E20E94B925A2
:10162000892B61F40E9488266093D6057093D705B4
:101630008093D8059093D90581E027C00E94882621
:101640000091D6051091D7052091D8053091D90584
:10165000DC01CB01801B910BA20BB30B853F9140AA
:10166000A105B10588F40E9488260091D605109145
:10167000D7052091D8053091D905601771078207E9
:10168000930710F08FEF01C080E01F910F91089534
:101690000F931F93CF93DF9300D000D0CDB7DEB769
:1016A0000E940B0B2091050230910602811102C0AD
:1016B000286003C0813029F4277F309306022093ED
:1016C00005022091050280911D0690E023FB002772
:1016D00000F910E08017910729F48091090288230E
:1016E00009F44BC023FF1DC06DEA73E0CE010196E3
:1016F0000E946A2ACE0101960E94B42BCE01019667
:101700000E94E02969EA73E0CE0101960E946A2AEC
:10171000CE0101960E94C11ECE0101960E94E029D1
:1017200023C066E973E0CE0101960E946A2ACE01C9
:1017300001960E94B42BCE0101960E94E02963E934
:1017400073E0CE0101960E946A2ACE0101960E94A2
:10175000C11ECE0101960E94E0298091080280936B
:10176000040685E0809308028091050283FB8827A8
:1017700080F980931D061092090226960FB6F89400
:10178000DEBF0FBECDBFDF91CF911F910F910895A6
:1017900061E085E00C94E225CF92DF92EF92FF9218
:1017A0000F931F93CF93DF93CDB7DEB762970FB63A
:1017B000F894DEBF0FBECDBF0E948E05811106C01A
:1017C00061E086E00E94E225F12C06C060E086E040
:1017D0000E94E225FF24F39460E085E00E94E22568
:1017E0000E94351F00E010E0EE24E3948BE9C82E40
:1017F0008FE0D82E0E943F0983E20E94B925892BF1
:1018000069F066E173E0CE0101960E94AB2ACE0139
:1018100001960E94B42BCE01019657C061E087E08B
:101820000E94E225C6010197F1F760E087E00E947F
:10183000E225C6010197F1F70E948E05882311F079
:10184000E11031C0FF2009F46EC00E948E058111A5
:1018500068C081E0809303064AE0B801CE01079694
:101860000E94E52960E773E0CE0101960E94AB2A51
:10187000BE01695F7F4FCE0101960E947E29BC01A7
:10188000CE010D960E94A22ACE010D960E94B42B85
:10189000CE010D960E94E029CE0101960E94E0291A
:1018A000CE01079612C00E94C80B6CE271E080E086
:1018B00090E00E944E2660E086E00E94E22560E013
:1018C00085E00E94E225E12CC0CF0E94E0290E9421
:1018D000C80B0E94F40780910306833679F56CE506
:1018E00073E0CE0101960E94AB2ACE0101960E94C0
:1018F000B42BCE0101960E94E02960910306062ECA
:10190000000C770B4AE0CE0101960E94112A61E09B
:10191000CE0101960E94321ECE0101960E94E0295E
:101920000DC0FF24F3940F5F1F4F093883E11807A0
:1019300009F060CF83E680930306C9CF62960FB6A5
:10194000F894DEBF0FBECDBFDF91CF911F910F91F5
:10195000FF90EF90DF90CF900895CF93DF9300D06A
:1019600000D0CDB7DEB7BC01CE0101960E94A22AFD
:10197000BE016F5F7F4F8091490C90914A0C0E948D
:101980009426CE0101960E94E02926960FB6F8947F
:10199000DEBF0FBECDBFDF91CF9108950E94882694
:1019A0006093510C7093520C8093530C9093540C91
:1019B00008950F931F930E9488260091510C109157
:1019C000520C2091530C3091540C60177107820710
:1019D000930710F40E94CE0C0E9488260091510CAF
:1019E0001091520C2091530C3091540CDC01CB011E
:1019F000801B910BA20BB30B21E0883C9105A10544
:101A0000B10508F420E0822F1F910F910895CF9225
:101A1000DF92FF920F931F93CF93DF9300D000D0FC
:101A2000CDB7DEB70E94CE0C00E010E080914B0CE9
:101A300090914C0CDC01ED91FC910480F581E02D3E
:101A40001995892BD9F005301105A1F080914B0C27
:101A500090914C0CDC01ED91FC910680F781E02D1A
:101A60001995F801E75BF34F848F0F5F1F4F0E94BA
:101A7000CE0CDCCF85E0C82ED12C01C068010E94BD
:101A8000D90CF82E811124C0B5E0CB16D10471F623
:101A90000530110569F520E080E090E0FC01E75B8E
:101AA000F34F348D230F019685309105B9F780915E
:101AB000670C883221F08091670C823059F4809154
:101AC000680C811107C0211105C0FF24F39410C0D8
:101AD000F12C0EC066E973E0CE0101960E94AB2A9C
:101AE000CE0101960E94AD0CCE0101960E94E02924
:101AF0008F2D26960FB6F894DEBF0FBECDBFDF91B7
:101B0000CF911F910F91FF90DF90CF9008951F9379
:101B1000CF93DF9300D000D0CDB7DEB7182F0E944F
:101B2000CE0C112379F180914B0C90914C0CDC017F
:101B3000ED91FC910480F581E02D1995892B71F0D0
:101B400080914B0C90914C0CDC01ED91FC91068046
:101B5000F781E02D199511500E94CE0C0E94D90CEE
:101B60008823F9F265EB73E0CE0101960E94AB2A5F
:101B7000CE0101960E94AD0CCE0101960E94E02993
:101B800080E001C081E026960FB6F894DEBF0FBE5C
:101B9000CDBFDF91CF911F910895FF920F931F93B7
:101BA000CF93DF93CDB7DEB7C058D1090FB6F89405
:101BB000DEBF0FBECDBF8091550C89830091570CBD
:101BC0000A838091580C8B8380915A0C8C83FE0180
:101BD000359680E090E010E08017910744F4DC0136
:101BE000A75BB34F53962C9121930196F5CF0C5FD1
:101BF0001F4FE1E0F0E0EC0FFD1FE00FF11F8091BF
:101C0000640C8083F12C2F2D30E002171307A4F011
:101C100080914B0C90914C0CDC01ED91FC91A1E07A
:101C2000B0E0AC0FBD1FA20FB31F0190F081E02DFB
:101C30006C911995F394E7CF80E0C058DF4F0FB651
:101C4000F894DEBF0FBECDBFDF91CF911F910F91F2
:101C5000FF9008951F93CF93DF9300D000D0CDB7AE
:101C6000DEB7182F882319F067ED73E002C068EE25
:101C700073E0CE0101960E94AB2ACE0101960E942C
:101C8000AD0CCE0101960E94E02982E090E0909395
:101C9000560C8093550C91E09093570C21E030E066
:101CA0003093590C2093580C24EE30E030935B0CA9
:101CB00020935A0C112319F090935C0C02C01092DF
:101CC0005C0C80915C0C885181958093640C0E941F
:101CD000CD0D86E00E94870D81110E94070D26968A
:101CE0000FB6F894DEBF0FBECDBFDF91CF911F912D
:101CF000089580910A0C811104C00E942A0E10924E
:101D0000120C0895AF92BF92CF92DF92EF92FF92A2
:101D10000F931F93CF93DF936C0160E080911A0CB7
:101D20000E94E225E6012496BA90AA9008E010E00D
:101D300090E8E92EF12C60E08091180C0E94E225D9
:101D400061E097012A213B21232B09F460E0809177
:101D5000190C0E94E22561E08091180C0E94E22596
:101D6000F594E7940150110931F7CC15DD05E1F642
:101D700061E080911A0CDF91CF911F910F91FF903C
:101D8000EF90DF90CF90BF90AF900C94E225FC01D4
:101D90008091330C9091340CE817F90769F1E03524
:101DA00033ECF30730F4E0348CE9F80740F09F019E
:101DB00002C02FE433ECC90180549C4919C0E033C0
:101DC00095E7F90720F0CF018053954711C0E03225
:101DD0003EE4F30720F0CF0180529E4409C0E03179
:101DE00087E2F80720F0CF018051974201C0CF0170
:101DF0009093340C8093330C2091260C2130E9F021
:101E000038F0223009F458C0233009F48DC0C2C024
:101E10006AE070E00E947D3EDC01A85EB34F13963D
:101E20008C91E031F74208F08F7D90E090932A0C7E
:101E30008093290C8DEF90E0A9C0E032FE4420F1A0
:101E40008A30910568F064E670E00E947D3E6AE0A9
:101E500070E00E947D3EFB01E85EF34F838102C08B
:101E600080911B0C90E090932A0C8093290C809118
:101E7000290C90912A0C8F7D992790932A0C80939E
:101E8000290C8FEE90E082C08A30910570F064E6F4
:101E900070E00E947D3E6AE070E00E947D3EFB01A2
:101EA000E85EF34F838190E0E8CF8FEF90E090936E
:101EB0002A0C8093290C6AC0E033F54720F1843660
:101EC000910568F068EE73E00E947D3E64E670E084
:101ED0000E947D3EFB01E85EF34F838102C080914A
:101EE0001B0C90E090932A0C8093290C8091290C74
:101EF00090912A0C8F7D992790932A0C8093290C1E
:101F000087EF90E043C08436910578F268EE73E085
:101F10000E947D3E64E670E00E947D3EFB01E85E2B
:101F2000F34F838190E0E8CFE034FC49D8F0883E5D
:101F300033E0930748F068EE73E00E947D3EFB01BA
:101F4000E85EF34F838102C080911B0C90E0909378
:101F50002A0C8093290C8091290C90912A0C8F7D5A
:101F600099270EC0883E33E0930708F49ECF68EEB1
:101F700073E00E947D3EFB01E85EF34F838190E0B9
:101F800090932A0C8093290C8BEF90E090932C0C6B
:101F900080932B0C2F5F243018F42093260C02C062
:101FA0001092260C89E29CE00C94820EE8E1FCE0A1
:101FB000885E934FDC0113968C9190E0928B818B1D
:101FC000748B638B89E29CE00C94820EE8E1FCE068
:101FD0002FEF30E0281B390B328B218B748B638BF6
:101FE00089E29CE00C94820E87E290E090932A0CA8
:101FF0008093290C89E29CE00C94820E80EF90E0A3
:1020000090932A0C8093290C89E29CE00C94820E18
:10201000CF93DF9300D000D0CDB7DEB7BC01CE01A7
:1020200001960E94A22ABE016F5F7F4F80914608F1
:10203000909147080E949426CE0101960E94E029C3
:1020400026960FB6F894DEBF0FBECDBFDF91CF91BD
:102050000895CF92DF92EF92FF920F931F93CF9349
:10206000DF93CDB7DEB72C970FB6F894DEBF0FBE67
:10207000CDBF90914A0880914B08992309F459C02B
:102080008F3FB1F40E94C41F882309F4A4C166E302
:1020900075E0CE0101960E946A2ACE0101960E9447
:1020A0000810CE0101960E94E02910924A0893C1BF
:1020B0000E94C41F882309F48EC110924A0863E26B
:1020C00075E0CE0101960E946A2ACE0101960E9417
:1020D0000810CE0101960E94E02980914C088F5F84
:1020E00080934C088B3008F45EC063E175E0CE014C
:1020F00001960E946A2ACE0101960E940810CE0124
:1021000001960E94E02940E052EC61E070E080918D
:102110004808909149080E945D1F8091480890915D
:102120004908DC01ED91FC910284F385E02D1995BD
:102130003AC08430E1F56AEF73E0CE0101960E9467
:10214000AB2ACE0101960E940810CE0101960E9492
:10215000E0296AE874E080914808909149080E945B
:10216000C02A8091480890914908DC01ED91FC91CA
:102170000284F385E02D199564E670E080E090E03C
:102180000E944E2661E088E00E94E2250E94882697
:1021900060935108709352088093530890935408A9
:1021A00081E080934A088FEF80934B0814C18F3FE2
:1021B000A9F569E074E083E69BE00E94B22967EF2D
:1021C00074E0CE0101960E946A2ACE0101960E9417
:1021D0000810CE0101960E94E02940E052EC61E037
:1021E00070E080914808909149080E945D1F69E065
:1021F00074E080914808909149080E94C02A80911B
:10220000480890914908DC01ED91FC910284F38526
:10221000E02D199581E080934A0870C4823039F12D
:102220000E9488260091590810915A0820915B0855
:1022300030915C08DC01CB01801B910BA20BB30B2E
:1022400089389341A105B10508F024C40E9488266D
:102250000091590810915A0820915B0830915C0850
:10226000601771078207930708F414C4B4C0809103
:102270004D0890914E0820914F0830915008821BD4
:10228000930B8F779927892B09F47FC080914F0892
:102290009091500816E0189FF001199FF00D11243D
:1022A000E35AF74F84819581892B09F45AC08091B4
:1022B0004F0890915008189FB001199F700D11247C
:1022C000635A774F80914808909149080E94D42A18
:1022D0008091480890914908DC01ED91FC910284BD
:1022E000F385E02D1995E0904F08F090500862E1D9
:1022F00074E0CE0101960E94AB2A1E9DB0011F9D85
:10230000700D1124635A774FCE0101960E947E29E9
:10231000BC01CE0107960E94A22ACE0107960E9418
:102320000810CE0107960E94E029CE0101960E9476
:10233000E02981E080934A080E9488266093510832
:102340007093520880935308909354080E948826F3
:1023500060935508709356088093570890935808D7
:102360000EC060ED74E0CE0101960E946A2ACE0193
:1023700001960E940810CE0101960E94E0296AE1B0
:1023800074E083E69BE00E94B2290E9488260091B7
:102390005508109156082091570830915808DC01D3
:1023A000CB01801B910BA20BB30B89389341A10584
:1023B000B10508F0AEC30E9488260091550810911F
:1023C0005608209157083091580860177107820706
:1023D000930708F49EC38091480890914908DC0156
:1023E000ED91FC910480F581E02D1995892B09F47C
:1023F00078C18091480890914908DC01ED91FC91E9
:102400000680F781E02D1995182F89831A8241E003
:1024100050E0BE016F5F7F4F8DE59BE00E941E295B
:1024200010924C081D3009F05CC16FE174E0CE01E0
:1024300007960E94AB2A6DE57BE0CE0107960E94CD
:102440007E29BC01CE0101960E94A22ACE010196EE
:102450000E940810CE0101960E94E029CE01079645
:102460000E94E0298091670B9091680B892B79F18C
:102470006AE174E08091630B9091640B0E942241A9
:10248000892B29F580915D0B90915E0B009719F0D7
:102490000E94234403C060E070E0CB0120914F080C
:1024A00030915008890120E030E060177107820701
:1024B000930709F010C180914F0890915008019640
:1024C0008F7799279093500880934F0802C16AE84C
:1024D00074E0CE0101960E94AB2ACE0101960E94C3
:1024E000411F8C01CE0101960E94E0290F3F1F4F32
:1024F00079F165EB75E0CE0101960E946A2ACE0162
:1025000001960E940810CE0101960E94E02964EB1A
:1025100075E0CE0101960E946A2ACE0101960E94C2
:102520000810CE0101960E94E0298091670B9091DE
:10253000680B892B09F4CDC069E074E08091630BCE
:102540009091640B0E942241892B09F48FC0C1C075
:1025500069E574E0CE0101960E94AB2ACE01019696
:102560000E94411F8C01CE0101960E94E0290F3F7D
:102570001F4FF1F06BE975E0CE0101960E946A2AC7
:10258000CE0101960E940810CE0101960E94E0291A
:102590006AE975E0CE0101960E946A2ACE01019691
:1025A0000E940810CE0101960E94E02982E08FC0AF
:1025B00068E274E0CE0101960E94AB2ACE0101963A
:1025C0000E94411F8C01CE0101960E94E0290F3F1D
:1025D0001F4FF1F062E875E0CE0101960E946A2A71
:1025E000CE0101960E940810CE0101960E94E029BA
:1025F00061E875E0CE0101960E946A2ACE0101963B
:102600000E940810CE0101960E94E02983E05FC07D
:102610006BEA72E0CE0101960E94AB2ACE010196D0
:102620000E94411F8C01CE0101960E94E0290F3FBC
:102630001F4FF1F068E675E0CE0101960E946A2A0C
:10264000CE0101960E940810CE0101960E94E02959
:1026500067E675E0CE0101960E946A2ACE010196D6
:102660000E940810CE0101960E94E02981E02FC04F
:102670006DE274E0CE0101960E94AB2ACE01019674
:102680000E94411F8C01CE0101960E94E0290F3F5C
:102690001F4F09F16EE475E0CE0101960E946A2A8F
:1026A000CE0101960E940810CE0101960E94E029F9
:1026B0006DE475E0CE0101960E946A2ACE01019672
:1026C0000E940810CE0101960E94E02984E08093C8
:1026D0004B0810924A086CE275E08DE59BE00E9481
:1026E000B2290E943F062091050230910602809196
:1026F0000508909106088217930709F469C0809134
:10270000040221FD06C0882309F458C069E176E07F
:1027100019C020FD06C0882309F450C063E076E0AC
:1027200011C025FD06C0882309F448C069EF75E093
:1027300009C0A90140745570452BA1F48823F1F11B
:102740006FEE75E0CE0101960E946A2A60E0CE012C
:1027500001960E942E18CE0101960E94E029109247
:1027600004022CC0A90140785A70452B29F4882313
:1027700029F165EE75E0E6CF22FD05C08823F1F072
:102780006BED75E0DFCF23FD05C08823B9F061ED67
:1027900075E0D8CF813091F06BEC75E0CE010196F9
:1027A0000E946A2A60E0CE0101960E942E18CE0196
:1027B00001960E94E02981E0809304020E946A173A
:1027C0008091050290910602909306088093050877
:1027D0000E94CF0A0E940B0B8091EA05882329F101
:1027E0000E948826609308087093090880930A085D
:1027F00090930B0880910708811115C063E276E081
:10280000CE0101960E946A2ACE0101960E94B42B45
:10281000CE0101960E94E02961E08EE20E94E2254D
:1028200081E0809307081092EA05809107088823C9
:10283000D9F10E948826C0900808D0900908E0903D
:102840000A08F0900B08DC01CB018C199D09AE0938
:10285000BF0989389341A105B105A8F068E072E08D
:10286000CE0101960E946A2ACE0101960E94B42BE5
:10287000CE0101960E94E02960E08EE20E94E225EE
:102880001092070811C00E9488266C157D058E05E0
:102890009F0550F40E9488266093080870930908E9
:1028A00080930A0890930B0880911B08882321F0DD
:1028B0000E94740710921B0880911A08882309F45B
:1028C00066C080910A0C811160C08091120C88232F
:1028D00009F45BC08091100C8F5F8093100C8230E4
:1028E00008F453C082E090E09093560C8093550C0E
:1028F0001092570C81E090E09093590C8093580C03
:1029000085EE90E090935B0C80935A0C88E1809365
:10291000640C0E94CD0D81E08093900C85E00E94B4
:10292000870D882381F10E94CE0CF12CE12C0F2D14
:102930001E2D80914B0C90914C0CDC01ED91FC9183
:102940000480F581E02D1995892B41F000311105A6
:1029500009F015C190E1F92EE12C02C0F02EE12E14
:102960000E94D90C882309F405C163E374E0CE0109
:1029700001960E94AB2ACE0101960E94AD0CCE01B9
:1029800001960E94E0290E94C21B10921A088091B1
:102990001908882399F08CE00E94B92561E0892B01
:1029A00009F060E08CE00E94E2258CE00E94B925ED
:1029B000682F8DE00E94E225109219088091180876
:1029C0008111109218080E94882660931408709351
:1029D00015088093160890931708C0901008D0909F
:1029E0001108E0901208F09013088B019C010C195B
:1029F0001D092E093F090230110521053105D8F1C5
:102A000020910F082C19260F20930F0860931008AF
:102A10007093110880931208909313082A3008F4D9
:102A20001FC110920F0890910E089F5F90930E089F
:102A300081E080931B089A3008F412C110920E08AE
:102A400090910D089F5F90930D0880931A08953020
:102A500008F406C110920D0890910C089F5F9093A6
:102A60000C0880931908923008F4FAC010920C08F0
:102A700080931808F5C06C157D058E059F0508F03C
:102A8000EFC0609310087093110880931208909320
:102A90001308E6C066E574E083E69BE00E94B22975
:102AA00060EE74E0CE0101960E946A2ACE01019682
:102AB0000E940810CE0101960E94E02966E574E0AC
:102AC00080914808909149080E94C02A8091480846
:102AD00090914908DC01ED91FC910284F385E02D91
:102AE000199581E080934A080E94882660935908CE
:102AF00070935A0880935B0890935C080E94882624
:102B0000609351087093520880935308909354082F
:102B100062CC66E574E083E69BE00E94B22966E53C
:102B200074E080914808909149080E94C02A8091E1
:102B3000480890914908DC01ED91FC910284F385ED
:102B4000E02D199581E080934A080E9488266093C1
:102B500051087093520880935308909354080E9430
:102B60008826609355087093560880935708909371
:102B7000580831CC0031110509F0D9CE14C080912C
:102B80004B0C90914C0CDC01ED91FC910680F7818F
:102B9000E02D1995F801E75BF34F87A30F5F1F4FF7
:102BA0000E94CE0CC6CE8091740C2091910C90E0C6
:102BB000821B91090297C4F0F090740CF21AEF2D69
:102BC000EE0F00E010E08EEFE82EEE0EFF2081F118
:102BD000ED5FF0E0E75BF34F87A10E948C1D080FCB
:102BE000191FFA94EE2DEFCF8091750C882351F0C8
:102BF0008091740C2817D1F08091750C0E948C1D67
:102C00008C0116C08091740C281310C08091760C32
:102C10008E3051F48091930C8F5F8093930C8531AB
:102C200028F01092930C17C01092930C00E010E063
:102C30008091740C8093910C0F3F69F08091050C8A
:102C40009091060C800F911D07FD9A959093060CAC
:102C50008093050C02C00E94C21B1092100C95CEEE
:102C60002C960FB6F894DEBF0FBECDBFDF91CF918B
:102C70001F910F91FF90EF90DF90CF900895CF9329
:102C8000DF9300D000D0CDB7DEB7FC01E252FA4F9F
:102C90002081261360838230910539F083309105BD
:102CA00031F0019741F484E303C083E301C08FE274
:102CB0000E94E2250EC06CEA74E0CE0101960E94EB
:102CC0006A2ACE0101960E94B42BCE0101960E9481
:102CD000E02926960FB6F894DEBF0FBECDBFDF9178
:102CE000CF91089560E081E090E00E943F1660E09F
:102CF00082E090E00E943F1660E083E090E00C9458
:102D00003F160F931F93CF93DF938C01C1E0D0E068
:102D1000C017D10711F461E001C060E0CE010E944C
:102D20003F162196C430D10599F7DF91CF911F91BD
:102D30000F9108950F931F93CF93DF93EC010E949F
:102D40008826009101081091020820910308309113
:102D50000408DC01CB01801B910BA20BB30B8D325D
:102D60009140A105B105C8F080910008811107C00C
:102D7000CE010E94811681E08093000804C00E9469
:102D80007216109200080E948826609301087093C2
:102D9000020880930308909304080E9488260091FB
:102DA000010810910208209103083091040860176F
:102DB00071078207930750F40E94882660930108E8
:102DC000709302088093030890930408DF91CF91D9
:102DD0001F910F9108950F931F93CF93DF93CDB75A
:102DE000DEB762970FB6F894DEBF0FBECDBF8C0181
:102DF0006CE275E0CE010D960E94AB2AF801848149
:102E00009581892B09F457C06FE574E0CE010D96CA
:102E10000E94B22960914D0870914E084AE0CE019F
:102E200007960E94E529BE01695F7F4FCE0101969A
:102E30000E94A22A6CE472E0CE0101960E946529EC
:102E4000BC01CE010D960E944C29CE0101960E9434
:102E5000E029CE0107960E94E029B801CE010D9627
:102E60000E944C29BE01635F7F4FCE0101960E94F4
:102E7000A22ACE0101960E940810CE0101960E945E
:102E8000E02920914D0830914E0846E0429FC00154
:102E9000439F900D1124B801835A974F0E94C9296E
:102EA00080914D0890914E0801968F7799279093C5
:102EB0004E0880934D08CE010D960E94E02962963F
:102EC0000FB6F894DEBF0FBECDBFDF91CF911F913B
:102ED0000F910895CF93DF93CDB7DEB72C970FB640
:102EE000F894DEBF0FBECDBF68E676E0CE01079650
:102EF0000E946A2A66E676E0CE0107960E94EE28D6
:102F000060914D0870914E084AE0CE0101960E94F2
:102F1000E529BE016F5F7F4FCE0107960E944C29C5
:102F2000CE0101960E94E02960E676E0CE01079688
:102F30000E94EE28BE01695F7F4FCE0101960E947C
:102F4000A22ACE0101960E94EB16CE0101960E94A4
:102F5000E029CE0107960E94E02980E02C960FB66A
:102F6000F894DEBF0FBECDBFDF91CF910895CF9211
:102F7000DF92EF92FF920F931F93CF93DF93CDB722
:102F8000DEB72C970FB6F894DEBF0FBECDBF6C0135
:102F90007B018A016FE576E0CE0107960E946A2ADE
:102FA0006DE576E0CE0107960E94EE2860914D080F
:102FB00070914E084AE0CE0101960E94E529BE01BB
:102FC0006F5F7F4FCE0107960E944C29CE0101967C
:102FD0000E94E02965E576E0CE0107960E94EE2882
:102FE000B601CE0107960E944C2963E576E0CE013A
:102FF00007960E94EE28B701CE0107960E944C2941
:1030000061E576E0CE0107960E94EE28B801CE0178
:1030100007960E944C29BE01695F7F4FCE01019641
:103020000E94A22ACE0101960E94EB16CE010196C3
:103030000E94E029CE0107960E94E02980E02C96AC
:103040000FB6F894DEBF0FBECDBFDF91CF911F91B9
:103050000F91FF90EF90DF90CF900895FF920F9324
:103060001F93CF93DF93CDB7DEB762970FB6F89477
:10307000DEBF0FBECDBF8C01F62EBC01CE01019686
:103080000E94A22A69E97BE0CE0107960E94A22A4B
:1030900063E97BE0CE010D960E94A22AAE014F5F4C
:1030A0005F4FBE01695F7F4FCE010D960E94B7173B
:1030B000CE010D960E94E029CE0107960E94E029DC
:1030C000CE0101960E94E029F80184819581892B27
:1030D00009F411C26AE674E0808191810E94224164
:1030E000892B09F008C26FE476E0CE0101960E94B8
:1030F0006A2A6FE97BE0CE0107960E94A22A63E963
:103100007BE0CE010D960E94A22AAE014F5F5F4F79
:10311000BE01695F7F4FCE010D960E94B717CE01A9
:103120000D960E94E029CE0107960E94E029CE016B
:1031300001960E94E0296DE476E0CE0101960E949E
:103140006A2A65EA7BE0CE0107960E94A22A63E91B
:103150007BE0CE010D960E94A22AAE014F5F5F4F29
:10316000BE01695F7F4FCE010D960E94B717CE0159
:103170000D960E94E029CE0107960E94E029CE011B
:1031800001960E94E0296BE476E0CE0101960E9450
:103190006A2A6BEA7BE0CE0107960E94A22A63E9C5
:1031A0007BE0CE010D960E94A22AAE014F5F5F4FD9
:1031B000BE01695F7F4FCE010D960E94B717CE0109
:1031C0000D960E94E029CE0107960E94E029CE01CB
:1031D00001960E94E02969E476E0CE0101960E9402
:1031E0006A2A61EB7BE0CE0107960E94A22A63E97E
:1031F0007BE0CE010D960E94A22AAE014F5F5F4F89
:10320000BE01695F7F4FCE010D960E94B717CE01B8
:103210000D960E94E029CE0107960E94E029CE017A
:1032200001960E94E02967E476E0CE0101960E94B3
:103230006A2A67EB7BE0CE0107960E94A22A63E927
:103240007BE0CE010D960E94A22AAE014F5F5F4F38
:10325000BE01695F7F4FCE010D960E94B717CE0168
:103260000D960E94E029CE0107960E94E029CE012A
:1032700001960E94E02965E476E0CE0101960E9465
:103280006A2A6DEB7BE0CE0107960E94A22A63E9D1
:103290007BE0CE010D960E94A22AAE014F5F5F4FE8
:1032A000BE01695F7F4FCE010D960E94B717CE0118
:1032B0000D960E94E029CE0107960E94E029CE01DA
:1032C00001960E94E02963E476E0CE0101960E9417
:1032D0006A2A63EC7BE0CE0107960E94A22A63E98A
:1032E0007BE0CE010D960E94A22AAE014F5F5F4F98
:1032F000BE01695F7F4FCE010D960E94B717CE01C8
:103300000D960E94E029CE0107960E94E029CE0189
:1033100001960E94E02961E476E0CE0101960E94C8
:103320006A2A69EC7BE0CE0107960E94A22A63E933
:103330007BE0CE010D960E94A22AAE014F5F5F4F47
:10334000BE01695F7F4FCE010D960E94B717CE0177
:103350000D960E94E029CE0107960E94E029CE0139
:1033600001960E94E0296FE376E0CE0101960E946B
:103370006A2A6FEC7BE0CE0107960E94A22A63E9DD
:103380007BE0CE010D960E94A22AAE014F5F5F4FF7
:10339000BE01695F7F4FCE010D960E94B717CE0127
:1033A0000D960E94E029CE0107960E94E029CE01E9
:1033B00001960E94E0296DE376E0CE0101960E941D
:1033C0006A2A65ED7BE0CE0107960E94A22A63E996
:1033D0007BE0CE010D960E94A22AAE014F5F5F4FA7
:1033E000BE01695F7F4FCE010D960E94B717CE01D7
:1033F0000D960E94E029CE0107960E94E029CE0199
:1034000001960E94E0296BE376E0CE0101960E94CE
:103410006A2A6BED7BE0CE0107960E94A22A63E93F
:103420007BE0CE010D960E94A22AAE014F5F5F4F56
:10343000BE01695F7F4FCE010D960E94B717CE0186
:103440000D960E94E029CE0107960E94E029CE0148
:1034500001960E94E02969E376E0CE0101960E9480
:103460006A2A61EE7BE0CE0107960E94A22A63E9F8
:103470007BE0CE010D960E94A22AAE014F5F5F4F06
:10348000BE01695F7F4FCE010D960E94B717CE0136
:103490000D960E94E029CE0107960E94E029CE01F8
:1034A00001960E94E02967E376E0CE0101960E9432
:1034B0006A2A67EE7BE0CE0107960E94A22A63E9A2
:1034C0007BE0CE010D960E94A22AAE014F5F5F4FB6
:1034D000BE01695F7F4FCE010D960E94B717CE01E6
:1034E0000D960E94E029CE0107960E94E029CE01A8
:1034F00001960E94E029F1100E946A1762960FB6A9
:10350000F894DEBF0FBECDBFDF91CF911F910F9119
:10351000FF9008951F93CF93DF93CDB7DEB76297E7
:103520000FB6F894DEBF0FBECDBF162FBC01CE0183
:1035300001960E94A22A67EB7BE0CE0107960E94CB
:10354000A22A63E97BE0CE010D960E94A22AAE0179
:103550004F5F5F4FBE01695F7F4FCE010D960E94A6
:10356000B717CE010D960E94E029CE0107960E9462
:10357000E029CE0101960E94E02911110E946A17EC
:1035800062960FB6F894DEBF0FBECDBFDF91CF912C
:103590001F9108950F931F93CF93DF93CDB7DEB79D
:1035A00069970FB6F894DEBF0FBECDBF282F8B01F1
:1035B00063E97BE0CE014396298F0E94A22A298DE0
:1035C000223061F0233091F02130C1F5B801CE01F5
:1035D00001960E94A22A69EC7BE00FC0B801CE01DF
:1035E00001960E94A22A65ED7BE007C0B801CE01DA
:1035F00001960E94A22A61EE7BE0CE0107960E940E
:10360000A22ABE016D5E7F4FCE010D960E94A22AB6
:10361000AE014F5F5F4FBE01695F7F4FCE010D96D8
:103620000E94B717CE010D960E94E029CE010796A1
:103630000E94E029CE0101960E94E029CE01439626
:103640000E94E02969960FB6F894DEBF0FBECDBF89
:10365000DF91CF911F910F910895CF93DF93CDB755
:10366000DEB762970FB6F894DEBF0FBECDBFBC01C8
:10367000CE0101960E94A22A6DEB7BE0CE01079657
:103680000E94A22A63E97BE0CE010D960E94A22A45
:10369000AE014F5F5F4FBE01695F7F4FCE010D9658
:1036A0000E94B717CE010D960E94E029CE01079621
:1036B0000E94E029CE0101960E94E02962960FB691
:1036C000F894DEBF0FBECDBFDF91CF910895CF93A9
:1036D000DF93CDB7DEB762970FB6F894DEBF0FBEAB
:1036E000CDBFBC01CE0101960E94A22A6FE97BE00A
:1036F000CE0107960E94A22A63E97BE0CE010D96D7
:103700000E94A22AAE014F5F5F4FBE01695F7F4FEB
:10371000CE010D960E94B717CE010D960E94E029AA
:10372000CE0107960E94E029CE0101960E94E02971
:1037300062960FB6F894DEBF0FBECDBFDF91CF917A
:103740000895CF93DF9300D000D0CDB7DEB7BC0192
:10375000CE0101960E94A22ABE016F5F7F4F809129
:10376000F90B9091FA0B0E949426CE0101960E94CB
:10377000E02926960FB6F894DEBF0FBECDBFDF91CD
:10378000CF910895EF92FF920F931F93CF93DF9302
:10379000CDB7DEB762970FB6F894DEBF0FBECDBFD0
:1037A00082E090E09093560C8093550C1092570C49
:1037B00081E090E09093590C8093580C90935B0CAF
:1037C00080935A0C8CEF8093640C0E94CD0D85E0A1
:1037D0000E94870D882309F447C10E94070D8823A2
:1037E00009F442C180910A0C8F3F71F463E774E0E1
:1037F000CE0101960E94AB2ACE0101960E94A11B28
:10380000CE0101960E94E02968EC70E080E090E033
:103810000E944E2682E090E09093560C8093550CC7
:103820001092570C81E090E09093590C8093580CC3
:1038300088EE90E090935B0C80935A0C85E1809326
:10384000640C0E94CD0D85E00E94870D882399F1BC
:103850000E94CE0CE12CF12C870180914B0C9091B1
:103860004C0CDC01ED91FC910480F581E02D199563
:10387000892BD9F006301105A1F080914B0C909165
:103880004C0CDC01ED91FC910680F781E02D19953F
:10389000F801E75BF34F81A30F5F1F4F0E94CE0C2F
:1038A000DCCF86E0E82EF12C01C078010E94D90C13
:1038B000882309F4E2C068EC70E080E090E00E94A8
:1038C0004E266091960C60930A0C611143C06DE81E
:1038D00074E0CE0101960E94AB2ACE0101960E94AF
:1038E000AD0CCE0101960E94E02982E090E0909319
:1038F000560C8093550C8093570C81E090E0909388
:10390000590C8093580C87EE90E090935B0C809359
:103910005A0C80E880935C0C8FEF80935D0C85E9F6
:103920008093640C0E94CD0D87E00E94870D811169
:103930000E94070D80910A0C81116EC081E00E94E7
:103940002A0E882321F081E08093120C65C010922A
:10395000120C62C080910B0C1616E4F56A3074F4F8
:10396000681709F459C0062E000C770B4AE0CE0107
:1039700007960E94112A6CE974E00DC0681709F4DB
:103980004BC0062E000C770B4AE0CE0107960E9432
:10399000112A62EB74E0CE010D960E94AB2ABE01A3
:1039A000695F7F4FCE010D960E947E29BC01CE013A
:1039B00001960E94A22ACE0101960E94A11BCE016F
:1039C00001960E94E029CE010D960E94E029CE01C9
:1039D00007961CC0681701F167EC74E0CE010196F0
:1039E0000E94AB2ACE0101960E94A11BCE01019636
:1039F0000E94E02964EE74E0CE0101960E94AB2A99
:103A0000CE0101960E94A11BCE0101960E94E029E1
:103A100080910A0C80930B0C80910A0C811122C0BA
:103A200080910B0C882391F06BEF74E0CE0101962E
:103A30000E94AB2ACE0101960E94A11BCE010196E5
:103A40000E94E02980910A0C80930B0C0E9488262A
:103A50006093FF0B7093000C8093010C9093020C09
:103A600081E04DC080E04BC08FEF80930A0C8091C5
:103A70000B0C8F3F09F0B0CFCFCF0630110509F006
:103A8000EBCEB6E0EB16F10409F015CF20E080E0B4
:103A900090E0FC01E75BF34F31A1230F01968630E4
:103AA0009105B9F78091670C883221F08091670CFD
:103AB000823029F4211103C080916E0C1DC064E195
:103AC00075E0CE0101960E94AB2ACE0101960E94BC
:103AD000AD0CCE0101960E94E0296DE275E0CE01A9
:103AE00001960E94AB2ACE0101960E94AD0CCE0138
:103AF00001960E94E0298FEF8093960CDCCE6296AF
:103B00000FB6F894DEBF0FBECDBFDF91CF911F91EE
:103B10000F91FF90EF900895CF93DF9300D000D0E6
:103B2000CDB7DEB790E0FC013897E830F10508F03A
:103B30004AC08827EA57FF4F8F4F0C94C73E61E475
:103B400075E0CE0101960E94AB2ACE0101960E943B
:103B5000AD0CCE0101960E94E02981E090E035C0D5
:103B600064E575E0CE0101960E94AB2ACE01019674
:103B70000E94AD0CCE0101960E94E02982E090E007
:103B800024C067E675E0CE0101960E94AB2ACE0103
:103B900001960E94AD0CCE0101960E94E02985E0BD
:103BA00090E013C06AE775E0CE0101960E94AB2A4F
:103BB000CE0101960E94AD0CCE0101960E94E02933
:103BC0008AE090E002C080E090E026960FB6F8947C
:103BD000DEBF0FBECDBFDF91CF91089589E296E0A1
:103BE0000E94E62321E0892B09F420E0822F08952A
:103BF000CF93DF93CDB7DEB762970FB6F894DEBFF1
:103C00000FBECDBFBC01CE0101960E94A22A65EA7B
:103C10007BE0CE0107960E94A22A63E97BE0CE01F9
:103C20000D960E94A22AAE014F5F5F4FBE01695FF1
:103C30007F4FCE010D960E94B717CE010D960E94C0
:103C4000E029CE0107960E94E029CE0101960E944C
:103C5000E02962960FB6F894DEBF0FBECDBFDF91AC
:103C6000CF9108951F93CF93DF93CDB7DEB76297BF
:103C70000FB6F894DEBF0FBECDBF162FBC01CE012C
:103C800001960E94A22A67EE7BE0CE0107960E9471
:103C9000A22A63E97BE0CE010D960E94A22AAE0122
:103CA0004F5F5F4FBE01695F7F4FCE010D960E944F
:103CB000B717CE010D960E94E029CE0107960E940B
:103CC000E029CE0101960E94E02911110E946A1795
:103CD00062960FB6F894DEBF0FBECDBFDF91CF91D5
:103CE0001F910895CF93DF93CDB7DEB762970FB6DC
:103CF000F894DEBF0FBECDBF20914B08223079F083
:103D00006EE875E0CE0101960E94AB2ACE010196C5
:103D10000E940810CE0101960E94E02929C0BC0132
:103D2000CE0101960E94A22A63EF7BE0CE010796A6
:103D30000E94A22A6DEE7BE0CE010D960E94A22A7F
:103D4000AE014F5F5F4FBE01695F7F4FCE010D96A1
:103D50000E94B717CE010D960E94E029CE0107966A
:103D60000E94E029CE0101960E94E0290E946A1774
:103D700062960FB6F894DEBF0FBECDBFDF91CF9134
:103D80000895CF93DF93CDB7DEB762970FB6F8945F
:103D9000DEBF0FBECDBFBC01CE0101960E94A22A9C
:103DA0006BEA7BE0CE0107960E94A22A63E97BE0E2
:103DB000CE010D960E94A22AAE014F5F5F4FBE0159
:103DC000695F7F4FCE010D960E94B717CE010D9609
:103DD0000E94E029CE0107960E94E029CE010196BB
:103DE0000E94E02962960FB6F894DEBF0FBECDBFE9
:103DF000DF91CF910895CF93DF93CDB7DEB7629770
:103E00000FB6F894DEBF0FBECDBFBC01CE01019648
:103E10000E94A22A61EB7BE0CE0107960E94A22AB3
:103E200063E97BE0CE010D960E94A22AAE014F5FAE
:103E30005F4FBE01695F7F4FCE010D960E94B7179D
:103E4000CE010D960E94E029CE0107960E94E0293E
:103E5000CE0101960E94E02962960FB6F894DEBF6B
:103E60000FBECDBFDF91CF910895E8E1FCE08FEF69
:103E700090E0928B818B948B838B89E29CE00C94F5
:103E8000820ECF93DF932091610B3091620B232B35
:103E900079F0FC01C0915D0BD0915E0B6081718166
:103EA000CE010E943241009719F08C1B9D0B02C07D
:103EB0008FEF9FEFDF91CF910895CF92DF92EF9236
:103EC000FF920F931F93CF93DF93EC016A017B0165
:103ED000E889F98982E080834115514E61057105B9
:103EE000B1F060E079E08DE390E0A70196010E94D7
:103EF000A53E89019A010150110921093109369520
:103F0000279517950795980101151041A8F0E889A4
:103F1000F989108260E874E88EE190E0A7019601CB
:103F20000E94A53EDA01C9010197A109B109B69520
:103F3000A795979587959C01EC85FD853083EE8547
:103F4000FF852083188EEC89FD8986E08083EA89CD
:103F5000FB89808180618083EA89FB898081886018
:103F60008083EA89FB89808180688083EA89FB8974
:103F700080818F7D8083DF91CF911F910F91FF9082
:103F8000EF90DF90CF9008950F931F930E948826A3
:103F90000091510810915208209153083091540813
:103FA000601771078207930750F40E948826609378
:103FB00051087093520880935308909354080E94BC
:103FC0008826009151081091520820915308309191
:103FD0005408DC01CB01801B910BA20BB30B21E039
:103FE00088389341A105B10508F420E0822F1F9184
:103FF0000F910895CF93DF93CDB7DEB762970FB6D9
:10400000F894DEBF0FBECDBFBC01CE0101960E9469
:10401000A22A6DE87BE0CE0107960E94A22A67E8FB
:104020007BE0CE010D960E94A22AAE014F5F5F4F4A
:10403000BE01695F7F4FCE010D960E94B717CE017A
:104040000D960E94E029CE0107960E94E029CE013C
:1040500001960E94E0290E946A1762960FB6F894B2
:10406000DEBF0FBECDBFDF91CF9108950F931F9399
:10407000CF93DF93CDB7DEB769970FB6F894DEBF65
:104080000FBECDBF282F8B0163E97BE0CE014396A5
:10409000298F0E94A22A298D223069F02330A1F0B5
:1040A0002130D9F54AE0B801CE0101960E94E529F8
:1040B00063EC7BE011C04AE0B801CE0101960E949A
:1040C000E5296FEC7BE008C04AE0B801CE0101961B
:1040D0000E94E5296BED7BE0CE0107960E94A22AA3
:1040E000BE016D5E7F4FCE010D960E94A22AAE01E9
:1040F0004F5F5F4FBE01695F7F4FCE010D960E94FB
:10410000B717CE010D960E94E029CE0107960E94B6
:10411000E029CE0101960E94E029CE0143960E943B
:10412000E02969960FB6F894DEBF0FBECDBFDF91D0
:10413000CF911F910F9108952091260C2F5F24306D
:1041400018F42093260C02C01092260C2091260C05
:104150002130F9F070F02230D1F1233009F051C054
:1041600080E590E090932A0C8093290C8BEF90E0EF
:1041700044C06AE070E00E947D3EFC01E85EF34FBF
:10418000838190E090932A0C8093290C8DEF90E02E
:1041900034C08A309105A0F064E670E00E947D3E54
:1041A0006AE070E00E947D3EFB01E85EF34F838190
:1041B00090E090932A0C8093290C8FEE90E01DC024
:1041C0008FEF90E090932A0C8093290C16C08436D0
:1041D0009105B0F368EE73E00E947D3E64E670E006
:1041E0000E947D3EFB01E85EF34F838190E0909357
:1041F0002A0C8093290C87EF90E090932C0C8093ED
:104200002B0C89E29CE00C94820E0F931F930E946A
:1042100088260091FF0B1091000C2091010C309129
:10422000020C601771078207930750F40E948826DA
:104230006093FF0B7093000C8093010C9093020C21
:104240000E9488260091FF0B1091000C2091010C18
:104250003091020CDC01CB01801B910BA20BB30B44
:1042600021E0843F9140A105B10508F420E0822FB0
:104270001F910F9108951F93CF93DF9300D000D02B
:10428000CDB7DEB7182F8091030C1817D1F011238A
:1042900019F066E975E002C062EB75E0CE010196A7
:1042A0000E94AB2ACE0101960E94A11BCE0101966D
:1042B0000E94E029612F80910E0C0E94E22510934C
:1042C000030C0E9488266093FF0B7093000C809370
:1042D000010C9093020C0E940521811119C080915C
:1042E0004B0C90914C0CDC01ED91FC910480F5811C
:1042F000E02D1995892B79F380914B0C90914C0C02
:10430000DC01ED91FC910680F781E02D1995E3CF5A
:1043100026960FB6F894DEBF0FBECDBFDF91CF91CA
:104320001F910895CF93DF93CDB7DEB762970FB695
:10433000F894DEBF0FBECDBF4AE0682FCE010196D4
:104340000E943D2A6FE67BE0CE0107960E94A22ADA
:1043500069E67BE0CE010D960E94A22AAE014F5F76
:104360005F4FBE01695F7F4FCE010D960E94B71768
:10437000CE010D960E94E029CE0107960E94E02909
:10438000CE0101960E94E02962960FB6F894DEBF36
:104390000FBECDBFDF91CF910895CF93DF93CDB7FF
:1043A000DEB762970FB6F894DEBF0FBECDBF4AE00E
:1043B000BC01CE0101960E94E52965E77BE0CE01B4
:1043C00007960E94A22A69E67BE0CE010D960E9424
:1043D000A22AAE014F5F5F4FBE01695F7F4FCE01E2
:1043E0000D960E94B717CE010D960E94E029CE01CE
:1043F00007960E94E029CE0101960E94E02962966C
:104400000FB6F894DEBF0FBECDBFDF91CF910895F8
:10441000CF93DF93CDB7DEB762970FB6F894DEBFC8
:104420000FBECDBF4AE0BC01CE0101960E94E52936
:104430006BE77BE0CE0107960E94A22A69E67BE04B
:10444000CE010D960E94A22AAE014F5F5F4FBE01C2
:10445000695F7F4FCE010D960E94B717CE010D9672
:104460000E94E029CE0107960E94E029CE01019624
:104470000E94E02962960FB6F894DEBF0FBECDBF52
:10448000DF91CF910895CF93DF93CDB7DEB76297D9
:104490000FB6F894DEBF0FBECDBFBC01CE010196B2
:1044A0000E94A22A61E87BE0CE0107960E94A22A20
:1044B00069E67BE0CE010D960E94A22AAE014F5F15
:1044C0005F4FBE01695F7F4FCE010D960E94B71707
:1044D000CE010D960E94E029CE0107960E94E029A8
:1044E000CE0101960E94E02962960FB6F894DEBFD5
:1044F0000FBECDBFDF91CF9108954F925F926F9223
:104500007F928F929F92AF92BF92CF92DF92EF9263
:10451000FF920F931F93CF93DF934B015C01809128
:10452000230890912408A0912508B09126088816A8
:104530009906AA06BB0609F4C2C08CE3C82ED12C8A
:10454000E12CF12CC501B401A70196010E94A53E02
:1045500060931C08CA01B901A70196010E94A53EFB
:1045600060931D08CA01B90128E130E040E050E045
:104570000E94A53E69017A0160931E08CA01B90133
:104580006C5F7F4F8F4F9F4F27E030E040E050E05F
:104590000E94A53E6F5F60931F08412C512C320191
:1045A00040E004E610E0C0E9D1E0242F30E02E54D2
:1045B000384FF901E370FF27309789F4C901B8013A
:1045C0000E94913E892B31F4C901BE010E94913EA7
:1045D000892B29F48EE691E0A0E0B0E004C08DE6DE
:1045E00091E0A0E0B0E0480E591E6A1E7B1ED30188
:1045F000C201AA27BB27C816D906EA06FB0610F097
:104600004F5FD3CF40932208309799F4C90164E6F5
:1046100070E00E94913E892B39F4C90160E971E094
:104620000E94913E892B29F48EE691E0A0E0B0E053
:1046300004C08DE691E0A0E0B0E0481A590A6A0A89
:104640007B0AC418D508E608F708C90164E670E0DB
:104650000E94913EEC01C90160E971E00E94913E27
:10466000A3E2B2E020E0213039F4309749F42097FA
:1046700029F4009729F402C04C9103C04DE101C018
:104680004CE150E060E070E0C416D506E606F7069F
:1046900040F0C41AD50AE60AF70A2F5F11962C30AB
:1046A00011F72F5F20932108C394C09220088092B5
:1046B000230890922408A0922508B0922608DF9142
:1046C000CF911F910F91FF90EF90DF90CF90BF900F
:1046D000AF909F908F907F906F905F904F900895D4
:1046E0001F920F920FB60F9211240BB60F922F93B9
:1046F0003F934F935F936F937F938F939F93AF936A
:10470000BF93EF93FF9389E296E00E942F25FF91DC
:10471000EF91BF91AF919F918F917F916F915F9139
:104720004F913F912F910F900BBE0F900FBE0F90A6
:104730001F9018951F920F920FB60F9211240BB66F
:104740000F922F933F934F935F936F937F938F932A
:104750009F93AF93BF93EF93FF9389E296E00E94FC
:10476000472BFF91EF91BF91AF919F918F917F91D7
:104770006F915F914F913F912F910F900BBE0F90D2
:104780000FBE0F901F901895FC01918D828D981788
:1047900061F0828DDF01A80FB11D5D968C91928D25
:1047A0009F5F9F73928F90E008958FEF9FEF089522
:1047B000FC01918D828D981731F0828DE80FF11DEB
:1047C000858D90E008958FEF9FEF0895FC01918D06
:1047D000228D892F90E0805C9F4F821B91098F73FF
:1047E0009927089580E090E0892B21F00E94E42829
:1047F00081111DC080E090E0892B41F080E090E0C5
:10480000892B21F00E940000811114C080E090E00B
:10481000892B21F00E94EE1D81110FC080E090E0F5
:10482000892B81F00E94DA2881110AC008950E9424
:104830000000E0CF0E940000E9CF0E940000EECF10
:104840000C940000089590E0FC013197E231F105ED
:1048500008F04EC08827E257FF4F8F4F0C94C73E99
:10486000809180008F7703C0809180008F7D80933E
:104870008000089580918000877FF9CF84B58F777D
:1048800002C084B58F7D84BD08958091B0008F777C
:1048900003C08091B0008F7D8093B0000895809117
:1048A00090008F7707C0809190008F7D03C080912A
:1048B0009000877F8093900008958091A0008F776B
:1048C00007C08091A0008F7D03C08091A000877FEA
:1048D0008093A0000895809120018F7707C0809178
:1048E00020018F7D03C080912001877F809320016C
:1048F00008953FB7F8948091320890913308A091C1
:104900003408B091350826B5A89B05C02F3F19F093
:104910000196A11DB11D3FBFBA2FA92F982F88273F
:10492000820F911DA11DB11DBC01CD0142E0660F9A
:10493000771F881F991F4A95D1F70895EF92FF922C
:104940000F931F93CF93DF9300D000D0CDB7DEB786
:104950008C017A016BE877E00E946A2A8AE0E81607
:10496000F1042CF469E877E0C8010E94EE284AE0DF
:10497000B701CE0101960E94112ABE016F5F7F4FE1
:10498000C8010E944C29CE0101960E94E029C8016D
:1049900026960FB6F894DEBF0FBECDBFDF91CF9144
:1049A0001F910F91FF90EF900895EF92FF920F9358
:1049B0001F93CF93DF93EC017B016CE275E00896C7
:1049C0000E94AB2A8E01025F1F4F6CE275E0C801A6
:1049D0000E94AB2A89E296E09983888380E092EC7A
:1049E000A1E0B0E08C839D83AE83BF838DEC95E026
:1049F0009B838A83B701C801DF91CF911F910F91EB
:104A0000FF90EF900C94C9291F920F920FB60F924E
:104A100011240BB60F922F933F934F935F936F9395
:104A20007F938F939F93AF93BF93EF93FF93E09107
:104A30002B08F0912C081995FF91EF91BF91AF9140
:104A40009F918F917F916F915F914F913F912F91A6
:104A50000F900BBE0F900FBE0F901F901895FC018A
:104A6000848DDF01A80FB11DA35ABF4F2C91848DF7
:104A700090E001968F739927848FA689B7892C932C
:104A8000A089B1898C9180648C93938D848D9813C7
:104A900006C00288F389E02D80818F7D8083089590
:104AA000EF92FF920F931F93CF93DF93EC0181E07E
:104AB000888F9B8D8C8D981305C0E889F98980813A
:104AC00085FD24C0F62E0B8D10E00F5F1F4F0F7376
:104AD0001127E02E8C8DE8120CC00FB607FCFACF20
:104AE000E889F989808185FFF5CFCE010E942F25C5
:104AF000F1CF8B8DFE01E80FF11DE35AFF4FF082DD
:104B00000B8FEA89FB898081806207C0EE89FF896B
:104B10006083E889F98980818064808381E090E006
:104B2000DF91CF911F910F91FF90EF900895CF9358
:104B3000DF93EC01888D8823C9F0EA89FB898081A5
:104B400085FD05C0A889B9898C9186FD0FC00FB677
:104B500007FCF5CF808185FFF2CFA889B9898C91B8
:104B600085FFEDCFCE010E942F25E7CFDF91CF91BA
:104B70000895CF93DF93282F30E0F901ED5BF84FD4
:104B80008491F901E350F94FD491F901E954F94FB7
:104B9000C491CC2391F081110E942324EC2FF0E0EA
:104BA000EE0FFF1FE356F94FA591B491EC91ED2361
:104BB00081E090E021F480E002C080E090E0DF91AD
:104BC000CF9108951F93CF93DF93282F30E0F90101
:104BD000ED5BF84F8491F901E350F94FD491F9015D
:104BE000E954F94FC491CC23C9F0162F81110E94CA
:104BF0002324EC2FF0E0EE0FFF1FED57F94FA591A6
:104C0000B4918FB7F894111105C09C91ED2FE095E8
:104C1000E92302C0EC91ED2BEC938FBFDF91CF9194
:104C20001F910895CF93DF9390E0FC01E350F94F7B
:104C30002491FC01E954F94F8491882361F190E0BB
:104C4000880F991FFC01E759F94FC591D491FC01D8
:104C5000ED57F94FA591B491611109C09FB7F89430
:104C60008881209582238883EC912E230BC06230AB
:104C700061F49FB7F8943881822F809583238883CD
:104C8000EC912E2B2C939FBF06C08FB7F894E88130
:104C90002E2B28838FBFDF91CF9108958F929F9203
:104CA000AF92BF92CF92DF92EF92FF926B017C01A5
:104CB0000E9479244B015C01C114D104E104F10488
:104CC000F1F00E947924DC01CB0188199909AA0925
:104CD000BB09883E9340A105B10570F321E0C21ADB
:104CE000D108E108F10888EE880E83E0981EA11C27
:104CF000B11CC114D104E104F10419F7DDCFFF9018
:104D0000EF90DF90CF90BF90AF909F908F900895DD
:104D10002FB7F89460912E0870912F088091300879
:104D2000909131082FBF08954F925F926F927F92BA
:104D30008F929F92AF92BF92EF92FF920F931F9329
:104D4000CF93DF93CDB7DEB76E970FB6F894DEBF83
:104D50000FBECDBF8C017B016CE275E0CE010D96DC
:104D60000E94AB2AB701CE0143960E94A22A6CE2B0
:104D700075E0CE0149960E94AB2A78012EE0E20E42
:104D8000F11C0E94882640903E0850903F08609099
:104D90004008709041084B015C0184189508A608F2
:104DA000B7088091420890914308A0914408B091BF
:104DB0004508E8EE8E16E3E09E06A104B104D0F0AB
:104DC0000196A11DB11D8093420890934308A093C2
:104DD0004408B0934508B301A20148515C4F6F4F9E
:104DE0007F4F40933E0850933F0860934008709374
:104DF0004108C7CF40913A0850913B0860913C0868
:104E000070913D0884179507A607B70708F456C0A8
:104E1000E0913808F0913908309709F44FC019959E
:104E2000611571058105910539F160934208709310
:104E300043088093440890934508DC01CB01845DCE
:104E40009E4FAF4FBF4F80933A0890933B08A0937B
:104E50003C08B0933D0882E090E09093370880933F
:104E600036080E94882660933E0870933F0880931E
:104E700040089093410822C08091420890914308D5
:104E8000A0914408B0914508845D9E4FAF4FBF4F3D
:104E900080933A0890933B08A0933C08B0933D0858
:104EA00081E090E02091360830913708232B11F4EF
:104EB00080E090E090933708809336088090420815
:104EC00090904308A0904408B0904508C501B401F3
:104ED0000E947D2240911E0850E0B801CE01079645
:104EE0000E949E246EE877E0CE0107960E94EE288D
:104EF000C501B4010E947D2240911D0850E0B80117
:104F0000CE0101960E949E24BE016F5F7F4FCE01AD
:104F100007960E944C29CE0101960E94E0296CE878
:104F200077E0CE0107960E94EE28C501B4010E94E9
:104F30007D2240911C0850E0B801CE0101960E94EC
:104F40009E24BE016F5F7F4FCE0107960E944C29C1
:104F5000CE0101960E94E029BE01695F7F4FCE011C
:104F600001960E94A22A63ED75E0CE0101960E948F
:104F70006529B7010E947E2961ED75E00E946529CF
:104F8000BE016D5E7F4F0E947E29BC01CE01499615
:104F90000E94C929CE0101960E94E029CE01079600
:104FA0000E94E0298D859E850097A9F0698D7A8DF4
:104FB0006115710571F04F8558892D8D3E8D421711
:104FC000530738F00E942B418D8D9E8D9A8B898BD3
:104FD00012C00E94933F898D9A8D9E878D878B8DFD
:104FE0009C8D988B8F878D8D9E8D9A8B898B1A8E39
:104FF000198E1C8E1B8E1E8E1D8ECE0149960E9410
:10500000E029CE0143960E94E029BE01635F7F4FF5
:10501000F801808191810E94D42ACE010D960E94D0
:10502000E0296E960FB6F894DEBF0FBECDBFDF91BC
:10503000CF911F910F91FF90EF90BF90AF909F90F5
:105040008F907F906F905F904F9008951F920F9276
:105050000FB60F9211242F933F938F939F93AF938B
:10506000BF9380912E0890912F08A0913008B091A5
:10507000310830912D0823E0230F2D3720F40196BD
:10508000A11DB11D05C026E8230F0296A11DB11D6B
:1050900020932D0880932E0890932F08A09330081A
:1050A000B09331088091320890913308A091340870
:1050B000B09135080196A11DB11D809332089093DF
:1050C0003308A0933408B0933508BF91AF919F91F6
:1050D0008F913F912F910F900FBE0F901F901895B9
:1050E0000895CF92DF92EF92FF920F931F93CF9389
:1050F000DF936C017A018B01C0E0D0E0CE15DF05B3
:1051000089F0D8016D918D01D601ED91FC9101904E
:10511000F081E02DC6011995892B11F47E0102C0A2
:105120002196ECCFC701DF91CF911F910F91FF9096
:10513000EF90DF90CF9008950E94144161157105A2
:1051400079F0FB0101900020E9F73197AF01461B90
:10515000570BDC01ED91FC910280F381E02D199455
:1051600080E090E008950F931F93CF93DF93EC01BD
:1051700088819981009729F02A813B81261737077A
:1051800088F48B016F5F7F4F0E942B40009761F086
:10519000998388831B830A832C813D81232B11F4FF
:1051A000FC01108281E001C080E0DF91CF911F916E
:1051B0000F91089586EC96E00E94E62321E0892B6A
:1051C00009F420E0822F089583E697E00E94E62309
:1051D00021E0892B09F420E0822F0895EF92FF92BD
:1051E0000F931F93CF93DF936115710511F480E046
:1051F0001EC08B01EC01CB010E9451440097B1F01D
:105200002C813D817C01E20EF31EB701CE010E948C
:10521000B328882361F3288139818C819D81B8016D
:10522000820F931F0E944A44FD82EC8281E0DF914D
:10523000CF911F910F91FF90EF900895EF92FF9201
:105240000F931F93CF93DF93FC0124813581611568
:10525000710511F480E019C041155105A9F07B01D9
:10526000EC018A01020F131FB8010E94B3288823A2
:1052700089F3288139818C819D81B701820F931F29
:105280000E942B411D830C8381E0DF91CF911F9100
:105290000F91FF90EF900895FB014481558160814B
:1052A00071810C941E29CF93DF93EC018881998141
:1052B000009711F00E94933F198218821D821C8270
:1052C0001B821A82DF91CF910895CF93DF93EC0177
:1052D0006115710561F0FB0101900020E9F731973C
:1052E000AF01461B570B0E941E29811103C0CE013E
:1052F0000E945329CE01DF91CF910895CF93DF9380
:10530000EC01FB0144815581608171810E941E295D
:10531000811103C0CE010E945329CE01DF91CF91AC
:105320000895EF92FF920F931F93CF93DF93EC01B9
:105330007B018A01BA010E94B328811104C0CE0109
:105340000E94532907C01D830C83B701888199816E
:105350000E942B41CE01DF91CF911F910F91FF90C1
:10536000EF900895CF93DF93EC016115710559F02B
:10537000FB0101900020E9F73197AF01461B570B65
:105380000E94912902C00E945329CE01DF91CF9142
:105390000895CF93DF93EC01FB018617970761F027
:1053A000608171816115710529F0448155810E94E8
:1053B000912902C00E945329CE01DF91CF91089517
:1053C000FC01808191810C94933F0F931F93CF93A5
:1053D000DF93CDB7DEB761970FB6F894DEBF0FBE8F
:1053E000CDBF8C01CB01F801118210821382128291
:1053F0001582148250E0BE016F5F7F4F0E9485448A
:10540000BE016F5F7F4FC8010E94B22961960FB63F
:10541000F894DEBF0FBECDBFDF91CF911F910F91EA
:1054200008950F931F93CF93DF93CDB7DEB76297A5
:105430000FB6F894DEBF0FBECDBF8C01CB01F801D3
:1054400011821082138212821582148250E0BE01F2
:105450006F5F7F4F0E945A44BE016F5F7F4FC8014C
:105460000E94B22962960FB6F894DEBF0FBECDBF80
:10547000DF91CF911F910F9108950F931F93CF93B9
:10548000DF93CDB7DEB729970FB6F894DEBF0FBE16
:10549000CDBF8C01862FF8011182108213821282F7
:1054A0001582148250E0BE016F5F7F4F90E00E9432
:1054B0008544BE016F5F7F4FC8010E94B2292996C3
:1054C0000FB6F894DEBF0FBECDBFDF91CF911F9115
:1054D0000F910895EF92FF920F931F93CF93DF9355
:1054E000EC01198218821B821A821D821C826115AE
:1054F000710509F18B01CB010E9451447C01BC0173
:10550000CE010E94B328811109C0CE01DF91CF9155
:105510001F910F91FF90EF900C945329FD82EC8224
:10552000B80188819981DF91CF911F910F91FF90F0
:10553000EF900C944A44DF91CF911F910F91FF900F
:10554000EF900895FC01118210821382128215825D
:1055500014820C94C929FC011182108213821282D8
:10556000158214826115710551F0FB010190002034
:10557000E9F73197AF01461B570B0C949129089519
:105580000F931F93CF93DF93EC010E949E288C0111
:105590006AE275E0CE010E949E28800F911FDF9184
:1055A000CF911F910F9108950F931F93CF93DF9386
:1055B000EC01E881F981DB0114964D915C9115971E
:1055C0006D917C910280F381E02D19958C016AE246
:1055D00075E0CE010E949E28800F911FDF91CF9130
:1055E0001F910F9108951F920F920FB60F921124E1
:1055F0000BB60F922F933F934F935F936F937F93CD
:105600008F939F93AF93BF93EF93FF9386EC96E0B6
:105610000E942F25FF91EF91BF91AF919F918F91A4
:105620007F916F915F914F913F912F910F900BBEA2
:105630000F900FBE0F901F9018951F920F920FB6EC
:105640000F9211240BB60F922F933F934F935F93BA
:105650006F937F938F939F93AF93BF93EF93FF933A
:1056600083E697E00E942F25FF91EF91BF91AF91C4
:105670009F918F917F916F915F914F913F912F916A
:105680000F900BBE0F900FBE0F901F901895FC014E
:10569000A089B1898C91A689B78982FD0FC09C91A0
:1056A000818D8F5F8F73228D821749F0218DDF01ED
:1056B000A20FB11D5D969C93818F08958C910895E2
:1056C0001F920F920FB60F9211240BB60F922F93C9
:1056D0003F934F935F936F937F938F939F93AF937A
:1056E000BF93EF93FF9386EC96E00E94472BFF91C8
:1056F000EF91BF91AF919F918F917F916F915F914A
:105700004F913F912F910F900BBE0F900FBE0F90B6
:105710001F9018951F920F920FB60F9211240BB67F
:105720000F922F933F934F935F936F937F938F933A
:105730009F93AF93BF93EF93FF9383E697E00E940D
:10574000472BFF91EF91BF91AF919F918F917F91E7
:105750006F915F914F913F912F910F900BBE0F90E2
:105760000FBE0F901F901895CF93DF9300D000D0FD
:10577000CDB7DEB7BC01CE0101960E94A22ABE01C0
:105780006F5F7F4F85E39CE00E949426CE010196D7
:105790000E94E02926960FB6F894DEBF0FBECDBF5B
:1057A000DF91CF910895CF93DF93CDB7DEB7CD557D
:1057B000D1090FB6F894DEBF0FBECDBF789484B583
:1057C000826084BD84B5816084BD85B5826085BDFD
:1057D00085B5816085BD80916E00816080936E008B
:1057E000109281008091810082608093810080917D
:1057F000810081608093810080918000816080932E
:1058000080008091B10084608093B1008091B000ED
:1058100081608093B00080919100826080939100BC
:1058200080919100816080939100809190008160CF
:10583000809390008091A10082608093A10080916C
:10584000A10081608093A1008091A000816080937D
:10585000A00080912101826080932101809121012B
:1058600081608093210180912001816080932001DB
:1058700080917A00846080937A0080917A008260BF
:1058800080937A0080917A00816080937A00809181
:105890007A00806880937A001092C1004091390CA0
:1058A00050913A0C60913B0C70913C0C8091350CFE
:1058B0009091360C0E945D1F1092800080E18093D1
:1058C0008100FF24F394F09229088FB780932A086F
:1058D000F89480E09DE790932808809327089093A0
:1058E00087008093860080912A088FBF8091810075
:1058F000887F809381009091810080912908982B66
:10590000909381002DEF33E030932C0820932B08E7
:10591000F0926F0090918100892B8093810080919B
:105920008100887F809381006EE772E08E010F5FB7
:105930001F4FC8010E946A2AC8010E94B42BC801E7
:105940000E94E02961E08DE20E94122661E08BE274
:105950000E94122661E089E20E94122661E081E243
:105960000E94122661E084E30E94122661E083E334
:105970000E94122661E08FE20E94122661E08AE214
:105980000E94122661E08BE00E94122661E08AE00C
:105990000E94122661E089E00E94122661E08CE2FA
:1059A0000E94122661E08EE20E94122661E08CE0E5
:1059B0000E94122661E08DE00E94122661E088E0DC
:1059C0000E94122661E086E00E94122661E087E0D4
:1059D0000E94122661E085E00E94122660E083E0CA
:1059E0000E94122660E084E00E94122660E088E0B7
:1059F0000E94E22560E08DE00E94E22560E086E002
:105A00000E94E22560E087E00E94E22560E085E0F8
:105A10000E94E22561E08DE20E94E22561E08BE2D6
:105A20000E94E22561E089E20E94E22560E081E2D5
:105A30000E94E22561E084E30E94E22561E083E3C5
:105A40000E94E22561E08FE20E94E22560E08AE2A6
:105A50000E94E22560E08BE00E94E22560E08AE09F
:105A60000E94E22560E089E00E94E22560E08CE28D
:105A70000E94E22560E08EE20E94E22560E08CE078
:105A80000E94E22560E08FE10E94122660E087E23A
:105A90000E94122660E085E20E94122660E083E206
:105AA0000E94122660E08BE10E94122660E089E1EC
:105AB0000E94122660E087E10E94122660E08FE0DB
:105AC0000E94122660E08DE10E94122660E082E3CF
:105AD0000E94122660E085E30E94122660E081E3C6
