:100000000C949F030C94D0030C94D0030C94D00355
:100010000C94D0030C94D0030C94D0030C94D00314
:100020000C94D0030C94D0030C94D0030C94D00304
:100030000C94D0030C94D0030C94D0030C94D003F4
:100040000C94D0030C94D0030C94D0030C94D003E4
:100050000C9488220C94D0030C94D0030C944A2D59
:100060000C94D0030C94962C0C94292C0C94D00353
:100070000C94D0030C94D0030C94D0030C94D003B4
:100080000C94D0030C94D0030C94D0030C94D003A4
:100090000C94D0030C94D0030C94D0030C94D00394
:1000A0000C94D0030C94D0030C94D0030C94D00384
:1000B0000C94D0030C94D0030C94D0030C94D00374
:1000C0000C94D0030C94D0030C94D0030C949D207A
:1000D0000C94D4220C94D0030C946C2C0C94FF2B15
:1000E0000C94D003140517051A05230526052905C8
:1000F0002C052F056305660569056C056F057205FE
:1001000075057E058705900593059605B61FB91FF1
:10011000A81FAC1FB21FF01FBD1FC11FC71FCB1FE1
:10012000CF1FD51FD91FDD1FF01FE31FE71FEB1FD8
:1001300026252625372537253725482548255925BD
:100140000C94D51F0C947E050C94C11F0C94720561
:100150000C94D91F0C94393A0C94B21F0C942905B5
:100160000C94A81F0C9437250C94EB1F0C94CF1FF4
:100170000C9466050C94C71F0C94D2030C9426258E
:100180000C94461F0C94FE220C9414050C947505D7
:100190000C94B61F0C94CB1F0C94AC1F0C94E31F53
:1001A0000C94F01F0C9423050C9463050C94BD1F54
:1001B0000C942C050C94363F0C9490050C949305EC
:1001C0000C9459250C9448250C94541F0C94170535
:1001D0000C94E71F0C9487050C9469050C941A0580
:1001E0000C946C050C9426050C9445230C94321F3A
:1001F0000C94DD1F0C9496050C942F050C946F0540
:100200000C947D290C94B91F4C45442043757020F3
:1002100048616E646C65202D204F46460072656112
:1002200064206565702E2063757020737461636B44
:10023000657220706F732E203D20004F4B00437578
:100240007020737461636B6572203E3E204F4B00DB
:10025000454D5054590043757020737461636B654C
:1002600072203E3E20456D707479004F4646004F27
:100270004E004F4B00504F574552204F4E00232306
:1002800023206D696E69436F66666565204861630A
:100290006B20762E333033203E3E205374617274CF
:1002A0002E2E007772697465206565702E20697442
:1002B000656D5F70726963655B004F726465722083
:1002C0004E6F2E2069732057726F6E6720212100B8
:1002D0006D616B655369676E616C546F436F696ED6
:1002E000203E3E20556E7375636365737320212134
:1002F000004F72646572205061796F7574203E3EC4
:10030000204F4B004F72646572205061796F757495
:10031000203E3E2054696D656F7574002000554E77
:1003200053554343455353005472616E7361637474
:10033000696F6E203E3E20554E53554343455353FF
:10034000200053554343455353005472616E73610B
:100350006374696F6E203E3E2053554343455353AB
:100360002000454D505459004375702073746163EB
:100370006B6572203E3E20456D707479004F4B00D6
:1003800043757020737461636B6572203E3E204F2D
:100390004B004F4E00426F696C6572203E3E20500C
:1003A0006F776572204F4E004F464600426F696C72
:1003B0006572203E3E20506F776572204F464600A2
:1003C0004C4F57005761746572204C6576656C2000
:1003D0003E3E204C4F57004F4B00576174657220D2
:1003E0004C6576656C203E3E204F4B004F464600E4
:1003F00050756D70203E3E20436C6F736500455212
:10040000524F520050756D70203E3E204572726F03
:1004100072004F4E0050756D70203E3E204F70654B
:100420006E007772697465206565702E2063757043
:1004300020737461636B657220706F732E203D2092
:100440000072656164206565702E206974656D5F5A
:1004500070726963655B00300030300045004F4BBF
:10046000004F50454E00434C4F5345005365742098
:1004700050756D702031202D204F4E005365742033
:1004800050756D702031202D204F464600736574E5
:100490004C45444974656D53656C6563745077725F
:1004A000203E3E204E6F7420666F756E64202121C1
:1004B0000064617461203E3E20656D707479212175
:1004C00000526573657420436F6D706F72742121E3
:1004D00000526573706F6E73652054696D656F753A
:1004E0007421210000436C6F7564426F782052655F
:1004F0007475726E203E3E205245534554000043B1
:100500006C6F7564426F782052657475726E203E10
:100510003E204552524F520000436C6F7564426F4B
:10052000782052657475726E203C3C2042555359B8
:100530000000436C6F7564426F7820526574757269
:100540006E203C3C2052656164790000436C6F75FD
:1005500064426F782052657475726E203C3C204F67
:100560004B005245414459004E4F5420524541449E
:1005700059004E4F54205245414459004E4F54208B
:100580005245414459004E4F542052454144590070
:100590004E4F54205245414459004E4F542052452D
:1005A000414459004E4F54205245414459004C4556
:1005B00044204375702048616E646C65202D204F87
:1005C0004E00434354414C4B00434C4F5544424F23
:1005D0005800434354414C4B2D4445564943450034
:1005E0002D002D002D002D002D002D002D002D00A3
:1005F0002D002D002D002D002D003D003A0043421E
:100600002B534554400023000043422B55500023F8
:10061000000000002100240027002A002D003000E7
:10062000330001010000040107010A01000022005B
:10063000250028002B002E003100340002010000AC
:10064000050108010B0100002000230026002900FD
:100650002C002F00320000010000030106010901F7
:1006600005050505070508080808020202020A0A2E
:10067000080804040404010101010101010103034C
:10068000030303030303040707070C0C0C0C0C0CF7
:100690000C0C0202020206060606060606060B0BF4
:1006A0000B0B0B0B0B0B0102102020080810204035
:1006B0001020408002010201080402010102040826
:1006C00010204080804020100804020180040201B4
:1006D00080402010080402010804020101020408FD
:1006E00010204080010204081020408000000A0B06
:1006F00002090C0D0E0807030401000000000000B1
:1007000000000000000000000000000000000000E9
:1007100000000000000000001211100000000000A6
:1007200000000000000000000000000000000000C9
:1007300000003000003A003A0000393A363F1124F8
:100740001FBECFEFD1E2DEBFCDBF00E00CBF16E091
:10075000A0E0B2E0E0E8FEE800E00BBF02C00790D6
:100760000D92A43AB107D9F72DE0A4EAB6E001C092
:100770001D92AE36B207E1F713E0CEE9D3E000E018
:1007800006C021970109802FFE010E942A40CD3921
:10079000D10780E00807A9F70E94942D0C942E47FA
:1007A0000C940000CF9380910802833009F4D9C1E2
:1007B00034F4813059F0823009F46AC178C284304F
:1007C00009F4E8C1853009F43CC271C22091D20617
:1007D0003091D3062115310509F40DC18091FD0C2E
:1007E0009091FE0C2817390761F1203553EC35073D
:1007F00030F420348CE9380738F0C90102C08FE4A6
:1008000093EC80549C4919C0203395E7390720F0B8
:10081000C9018053954711C020325EE4350720F0AE
:10082000C90180529E4409C0203187E2380720F078
:10083000C9018051974201C0C9019093FE0C809379
:10084000FD0C4091F00C4130E1F038F0423009F4F9
:1008500057C0433009F48CC0C1C06AE070E00E9408
:10086000E03FFC01EE51F34F83812031374208F025
:100870008F7D90E09093F40C8093F30C8DEF90E0DB
:10088000A9C020323E4420F18A30910568F064E628
:1008900070E00E94E03F6AE070E00E94E03FFB01F0
:1008A000EE51F34F838102C08091E50C90E090936C
:1008B000F40C8093F30C8091F30C9091F40C8F7DE9
:1008C00099279093F40C8093F30C8FEE90E082C004
:1008D0008A30910570F064E670E00E94E03F6AE0C3
:1008E00070E00E94E03FFB01EE51F34F838190E006
:1008F000E8CF8FEF90E09093F40C8093F30C6AC0F4
:100900002033354720F18436910568F068EE73E0B6
:100910000E94E03F64E670E00E94E03FFB01EE5180
:10092000F34F838102C08091E50C90E09093F40C2A
:100930008093F30C8091F30C9091F40C8F7D9927A8
:100940009093F40C8093F30C87EF90E043C08436CF
:10095000910578F268EE73E00E94E03F64E670E093
:100960000E94E03FFB01EE51F34F838190E0E8CF1E
:1009700020343C49D8F0883E23E0920748F068EEE6
:1009800073E00E94E03FFB01EE51F34F838102C010
:100990008091E50C90E09093F40C8093F30C80919F
:1009A000F30C9091F40C8F7D99270EC0883E53E094
:1009B000950708F49ECF68EE73E00E94E03FFB01CC
:1009C000EE51F34F838190E09093F40C8093F30CFD
:1009D0008BEF90E09093F60C8093F50C4F5F4430D2
:1009E00018F44093F00C02C01092F00C83EF9CE0DE
:1009F000CF910C94081A8091F70C9091F80C019704
:100A00009093F80C8093F70C892B09F050C18091DA
:100A1000EF0C90E08830910550F5FC018827EE58E6
:100A2000FF4F8F4F0C942A408BEF90E005C087EF6B
:100A300090E017C08FEE90E09093F60C8093F50C49
:100A40000E944D1A14C08DEF90E00BC08DEF90E026
:100A5000F3CF8FEE90E005C087EF90E0EDCF8BEF06
:100A600090E09093F60C8093F50C0E94571A8091B9
:100A7000EF0C8F5F883018F48093EF0C02C0109257
:100A8000EF0C86E990E09093F80C8093F70C0FC17F
:100A90008091F90C9091FA0C01979093FA0C809345
:100AA000F90C892B09F003C19091F20C492F50E009
:100AB0004C30510508F046C0FA018827E658FF4F30
:100AC0008F4F0C942A402EEF30E032C02EEF30E0F2
:100AD00020C02EEF30E014C02EEF30E008C02BEF26
:100AE00030E005C02FEE30E002C02FEB30E0309355
:100AF000F40C2093F30C2DEF30E020C02FEB30E00E
:100B00003093F40C2093F30C2FEE30E017C02FEB52
:100B100030E03093F40C2093F30C27EF30E00EC05C
:100B20002FEB30E005C02FE730E002C02DEF30E0C2
:100B30003093F40C2093F30C2BEF30E03093F60C51
:100B40002093F50C24E130E03093FA0C2093F90C5B
:100B50009F5F9C3018F49093F20C48CF1092F20CE7
:100B600045CFC091FA06C13059F008F474C0C230C4
:100B700061F0C33011F56DEF70E08BE590E01BC0C4
:100B800067EF70E082EC90E016C06FEE70E087EDEA
:100B900090E011C08091D30C882309F44DC0082E39
:100BA000000C990BC091FA06C130A9F078F46BEFF4
:100BB00070E08BEC90E00E94711ACF5FC093FA0650
:100BC000C43008F474C01092FA0671C0C23041F00B
:100BD000C330E1F0F2CF67EF70E083EE90E0EBCF4F
:100BE0008F3F2FEF920709F440C0843691051CF027
:100BF0006FEE70E017C08A309105BCF16AE070E0DA
:100C00000E94F43FCB016FEE70E033C08F3F5FEF87
:100C1000950719F46DEF70E02AC0843691052CF029
:100C20006DEF70E089E090E024C06AE070E00E941F
:100C3000F43F6DEF70E01DC08091D10680930802F3
:100C400036C0C091FA06C13059F028F0C23069F0C0
:100C5000C33091F0B2CF6BEF70E083EC90E0ABCF9C
:100C600067EF70E088E090E0A6CF6FEE70E080E084
:100C700090E00E94611AA1CF8091050283FD05C01A
:100C80006DEF70E081E090E0F4CF82FD05C06DEF84
:100C900070E082E090E0EDCF84FD05C06DEF70E084
:100CA00083E090E0E6CF81E08093080286CFCF9189
:100CB000089583E00E94672321E0892B09F020E05A
:100CC000822F0895CF93DF9300D000D0CDB7DEB749
:100CD000FC01E455F94F20812617F9F0608382303A
:100CE000910539F08330910531F0019741F484E3A7
:100CF00003C083E301C08FE20E9490230EC06DE821
:100D000074E0CE0101960E94762BCE0101960E94DE
:100D1000C02CCE0101960E94EC2A26960FB6F894BC
:100D2000DEBF0FBECDBFDF91CF91089560E081E0BF
:100D300090E00E94620660E082E090E00E9462061D
:100D400060E083E090E00C9462060F931F93CF93D2
:100D5000DF938C01C1E0D0E0C017D10711F461E04E
:100D600001C060E0CE010E9462062196C430D10528
:100D700099F7DF91CF911F910F910895E1E8F0E08D
:100D800090818091F008892B808308951092080249
:100D9000E1E8F0E08081887F80830895CF92DF9240
:100DA000EF92FF920F931F936B017C010E943E2DE7
:100DB0000091C4061091C5062091C6063091C70661
:100DC000601771078207930750F40E943E2D6093CD
:100DD000C4067093C5068093C6069093C7060E940A
:100DE0003E2D0091C4061091C5062091C606309193
:100DF000C706AB01BC01401B510B620B730B81E0BA
:100E0000C416D506E606F70608F080E01F910F919C
:100E1000FF90EF90DF90CF900895E8EBF6E011821D
:100E2000128213821092CD061092CF061092CE0637
:100E3000E2EEFCE0158686E990E0968B858B108AC1
:100E400084E190E0908F878B08951F93CF93DF9379
:100E500000D000D0CDB7DEB7182F8CE20E946723F8
:100E600021E0892B09F420E0121721F1112381F0F0
:100E70006CE674E0CE0101960E94762BCE010196BD
:100E80000E94C02CCE0101960E94EC2A61E00FC0A6
:100E90006CE774E0CE0101960E94762BCE0101969C
:100EA0000E94C02CCE0101960E94EC2A60E08CE2E8
:100EB0000E94902326960FB6F894DEBF0FBECDBFDA
:100EC000DF91CF911F9108958F929F92AF92BF9221
:100ED000EF92FF921F93CF93DF9300D000D0CDB756
:100EE000DEB780E30E94672311E0892B09F410E04C
:100EF0008091F906181761F00E943E2D6093F50667
:100F00007093F6068093F7069093F8061093F9060F
:100F10000E943E2D8090F5069090F606A090F70670
:100F2000B090F806DC01CB0188199909AA09BB0920
:100F3000893E9340A105B10558F40E943E2D6815E5
:100F400079058A059B0520F080910C02882389F1A0
:100F50002091050230910602812F90E021FBEE24C2
:100F6000E0F8F12C8E159F0521F480910C02882366
:100F700001F1112311F0226001C02D7F3093060290
:100F8000209305028091050281FF03C066E674E0AC
:100F900002C061E674E0CE0101960E94762BCE017C
:100FA00001960E94D924CE0101960E94EC2A10924B
:100FB0000C02812F26960FB6F894DEBF0FBECDBF70
:100FC000DF91CF911F91FF90EF90BF90AF909F90D6
:100FD0008F9008951F93CF93DF93CDB7DEB76897B7
:100FE0000FB6F894DEBF0FBECDBF1091D30C111118
:100FF00018C06EE574E0CE0101960E94762BCE01FA
:1010000001960E949F24CE0101960E94EC2A8091B5
:101010000502909106028062909306028093050279
:101020007EC06CE574E0CE0101960E94762B1F3FD6
:1010300029F5BE016F5F7F4FCE0107960E94AE2B50
:1010400069E574E0CE0107960E94FA29811104C077
:10105000CE0107960E945F2ABE01695F7F4FCE01D5
:101060000D960E94AE2BCE010D960E949F24CE01BC
:101070000D960E94EC2ACE01079642C0612F012EE8
:10108000000C770B4AE0CE010D961A30B4F40E94A2
:101090001D2BBE016F5F7F4FCE0107960E94AE2BC6
:1010A00067E574E0CE0107960E94FA2981110EC00F
:1010B000CE0107960E945F2A09C00E941D2BBE0127
:1010C0006F5F7F4FCE0107960E94AE2BBE01635F1C
:1010D0007F4FCE0107960E948A2ABC01CE0143961B
:1010E0000E94AE2BCE0143960E949F24CE014396D0
:1010F0000E94EC2ACE0107960E94EC2ACE010D96A2
:101100000E94EC2A80910502909106028F7D9093B7
:10111000060280930502CE0101960E94EC2A689691
:101120000FB6F894DEBF0FBECDBFDF91CF911F91F8
:1011300008955F926F927F928F929F92AF92BF922B
:10114000CF92DF92EF92FF920F931F93CF93DF9393
:10115000CDB7DEB7A0970FB6F894DEBF0FBECDBFF8
:1011600066246394712C552453948E010F5F1F4F96
:1011700096E4E92E93E0F92E22E3C22E23E0D22E4C
:1011800082E0681629F093E0691621F082E303C03B
:1011900085E301C081E30E94672321E0892B09F4E4
:1011A00020E0F301EC54F94F4F012083C301805537
:1011B000994F5C01FC0180818217E9F0211109C07F
:1011C000F301E854F94F50827F926F92DF92CF92F1
:1011D00004C07F926F92FF92EF921F930F930E9431
:1011E000AF420F900F900F900F900F900F90F4015F
:1011F0008081F5018083FFEF6F1A7F0A84E0681613
:10120000710409F0BDCFA0960FB6F894DEBF0FBEF3
:10121000CDBFDF91CF911F910F91FF90EF90DF90A5
:10122000CF90BF90AF909F908F907F906F905F9086
:101230000895CF93DF93CDB7DEB768970FB6F894D4
:10124000DEBF0FBECDBF62E274E0CE0101960E9408
:10125000762B6091D00680E190E00E9420476AE002
:1012600070E080E090E00E94042D6091D006062E90
:10127000000C770B4AE0CE010D960E941D2BBE019B
:101280006F5F7F4FCE0107960E94AE2BBE01635F5A
:101290007F4FCE0107960E948A2ABC01CE01439659
:1012A0000E94AE2BCE0143960E94C02CCE014396E5
:1012B0000E94EC2ACE0107960E94EC2ACE010D96E0
:1012C0000E94EC2ACE0101960E94EC2A68960FB685
:1012D000F894DEBF0FBECDBFDF91CF910895ECEB48
:1012E000F6E082819381883E934010F0138212824F
:1012F000329686E0E23CF807A1F708958F929F921C
:10130000AF92BF92CF92DF92EF92FF921F93CF9353
:10131000DF93CDB7DEB762970FB6F894DEBF0FBE8E
:10132000CDBF8EEBA82E86E0B82E9AECE92E96E083
:10133000F92E11E02AE0C22ED12CC6010E941847D6
:10134000982EC60101960E941847292D30E0A90168
:10135000582BCA014501F5015183408320910502B4
:1013600030910602F701892BD9F48081806880834F
:10137000123039F0133071F02F7B30930602209336
:10138000050280910502909106029E7F90930602CD
:101390008093050280910502909106029B7F1AC0FE
:1013A00080818F778083123039F0133071F02064A0
:1013B0003093060220930502809105029091060267
:1013C00091609093060280930502809105029091AE
:1013D0000602946090930602809305020E946F09B2
:1013E00061E474E0CE010D960E94762B4AE0612FF5
:1013F000CE0107960E94492BBE01695F7F4FCE0147
:1014000001960E94AE2B6CE472E0CE0101960E9420
:10141000712ABC01CE010D960E94582ACE01019678
:101420000E94EC2ACE0107960E94EC2AF2E0AF0E51
:10143000B11CF401608171814AE0CE0101960E94E5
:10144000F12ABE016F5F7F4FCE010D960E94582A90
:10145000CE0101960E94EC2ABE01635F7F4FCE0150
:1014600001960E94AE2BCE0101960E94C02CCE01A7
:1014700001960E94EC2ACE010D960E94EC2AF2E021
:10148000CF0ED11C1F5F4FEFE41AF40A143009F09D
:1014900054CF62960FB6F894DEBF0FBECDBFDF917A
:1014A000CF911F91FF90EF90DF90CF90BF90AF90C2
:1014B0009F908F90089585E30E94672321E0892BF8
:1014C00009F420E0822F0895CF92DF92EF92FF92ED
:1014D0000F931F93CF93DF9300D000D0CDB7DEB72B
:1014E0008DE10E9467232091F00630E08217930778
:1014F00099F08DE10E94672321E0892B09F420E017
:101500002093F0060E943E2D6093EC067093ED064A
:101510008093EE069093EF060E943E2DC090EC065D
:10152000D090ED06E090EE06F090EF06DC01CB01E6
:101530008C199D09AE09BF098D329140A105B105F5
:1015400028F480910A02882309F46CC08DE10E947E
:1015500067232091050230910602892B11F020614A
:1015600001C02F7E309306022093050220910502D0
:101570008091EB0690E024FB002700F910E0801733
:10158000910729F480910A02882309F45CC024FFA2
:101590001DC06AED73E0CE0101960E94762BCE014C
:1015A00001960E94C02CCE0101960E94EC2A67EDA4
:1015B00073E0CE0101960E94762BCE0101960E9427
:1015C0003826CE0101960E94EC2A23C064EC73E019
:1015D000CE0101960E94762BCE0101960E94C02C6E
:1015E000CE0101960E94EC2A60EC73E0CE010196D8
:1015F0000E94762BCE0101960E943826CE010196DC
:101600000E94EC2A809108028093D10685E08093A5
:10161000080280910502829581708093EB061092FA
:101620000A0211C00E943E2D6C157D058E059F0596
:1016300050F40E943E2D6093EC067093ED0680936B
:10164000EE069093EF068091050284FD34C08CE293
:101650000E946723892B79F580910B02882359F129
:1016600081E00E94250765E174E0CE0101960E94A9
:10167000762BCE0101960E94C02CCE0101960E94CD
:10168000EC2A62E174E0CE0101960E94762B60E0C4
:10169000CE0101960E94FC23CE0101960E94EC2A05
:1016A0000E943E2D6093F1067093F2068093F3063C
:1016B0009093F40682C08CE20E946723892B09F480
:1016C0007CC08091050284FD39C00E943E2D0091AE
:1016D000F1061091F2062091F3063091F406DC0138
:1016E000CB01801B910BA20BB30B81349C49A1054C
:1016F000B10508F462C080E00E94250764E074E050
:10170000CE0101960E94762BCE0101960E94C02C3C
:10171000CE0101960E94EC2A6EEF73E0CE01019695
:101720000E94762B61E0CE0101960E94FC23CE013F
:1017300001960E94EC2A10920B023FC00E943E2D9F
:10174000C090F106D090F206E090F306F090F40617
:10175000DC01CB018C199D09AE09BF0981349C497C
:10176000A105B10538F40E943E2D6C157D058E054E
:101770009F0518F580E00E94250760EF73E0CE0119
:1017800001960E94762BCE0101960E94C02CCE01BC
:1017900001960E94EC2A6CEE73E0CE0101960E9445
:1017A000762B61E0CE0101960E94FC23CE010196CA
:1017B0000E94EC2A81E080930B0226960FB6F894E3
:1017C000DEBF0FBECDBFDF91CF911F910F91FF9074
:1017D000EF90DF90CF900895CF92DF92EF92FF923B
:1017E0001F93CF93DF93C82F0E943E2D6B017C0186
:1017F00010E0D0E00E94640A0E94D00DCE010E9449
:101800006E140E943E2D6C157D058E059F0520F4FB
:101810000E943E2D6B017C010E943E2DDC01CB011C
:101820008C199D09AE09BF09893C9105A105B10537
:1018300058F48FE10E946723892BE1F20E943E2D2C
:101840006B017C0111E0D6CF812FDF91CF911F91E9
:10185000FF90EF90DF90CF9008950F931F9385E254
:101860000E946723892B61F40E943E2D6093A40699
:101870007093A5068093A6069093A70681E027C0E3
:101880000E943E2D0091A4061091A5062091A60667
:101890003091A706DC01CB01801B910BA20BB30B8F
:1018A000853F9140A105B10588F40E943E2D00912D
:1018B000A4061091A5062091A6063091A7066017F0
:1018C00071078207930710F08FEF01C080E01F912E
:1018D0000F9108950F931F93CF93DF9300D000D003
:1018E000CDB7DEB70E942D0C209105023091060283
:1018F000811102C0286003C0813029F4277F309312
:10190000060220930502209105028091EA0690E0EC
:1019100023FB002700F910E08017910729F480913C
:101920000902882309F44BC023FF1DC06CEA73E051
:10193000CE0101960E94762BCE0101960E94C02C0A
:10194000CE0101960E94EC2A68EA73E0CE0101966E
:101950000E94762BCE0101960E94FE25CE010196B3
:101960000E94EC2A23C065E973E0CE0101960E9433
:10197000762BCE0101960E94C02CCE0101960E94CA
:10198000EC2A62E973E0CE0101960E94762BCE012B
:1019900001960E94FE25CE0101960E94EC2A8091BC
:1019A00008028093D10685E08093080280910502A9
:1019B00083FB882780F98093EA0610920902269615
:1019C0000FB6F894DEBF0FBECDBFDF91CF911F9150
:1019D0000F91089561E085E00C949023CF92DF92FF
:1019E000EF92FF920F931F93CF93DF93CDB7DEB7A4
:1019F00062970FB6F894DEBF0FBECDBF0E945906A6
:101A0000811106C061E086E00E949023F12C06C09F
:101A100060E086E00E949023FF24F39460E085E07C
:101A20000E9490230E946B2700E010E0EE24E394D4
:101A30008BE9C82E8FE0D82E0E94640A0E94D00D38
:101A400083E20E946723892B69F066E173E0CE018F
:101A500001960E94B72BCE0101960E94C02CCE01A8
:101A6000019657C061E087E00E949023C60101976C
:101A7000F1F760E087E00E949023C6010197F1F73B
:101A80000E945906882311F0E11031C0FF2009F4AB
:101A90007CC00E945906811176C081E08093D006F7
:101AA0004AE0B801CE0107960E94F12A60E773E090
:101AB000CE0101960E94B72BBE01695F7F4FCE0118
:101AC00001960E948A2ABC01CE010D960E94AE2B7F
:101AD000CE010D960E94C02CCE010D960E94EC2ADC
:101AE000CE0101960E94EC2ACE01079612C00E94F8
:101AF000EA0C6CE271E080E090E00E94042D60E06E
:101B000086E00E94902360E085E00E949023E12C13
:101B1000C0CF0E94EC2A0E94EA0C0E941909609131
:101B2000D006633681F46CE573E0CE0101960E9425
:101B3000B72BCE0101960E94C02CCE0101960E94C7
:101B4000EC2A6091D006062E000C770B4AE0CE01FD
:101B500001960E941D2B61E0CE0101960E94722623
:101B6000CE0101960E94EC2A62960FB6F894DEBF71
:101B70000FBECDBFDF91CF911F910F91FF90EF90DE
:101B8000DF90CF900895FF24F3940F5F1F4F093823
:101B900083E1180709F050CF83E68093D006BBCFCE
:101BA000CF92DF92EF92FF920F931F93CF93DF9329
:101BB000CDB7DEB762970FB6F894DEBF0FBECDBFCC
:101BC0009091130980911409992309F44BC08F3F18
:101BD00041F40E943527882309F488C11092130923
:101BE00085C10E943527882309F480C1109213090A
:101BF00061ED74E0CE0101960E94762BCE01019634
:101C00000E947F1ACE0101960E94EC2A809115094C
:101C10008F5F809315098B3008F45EC061EC74E02F
:101C2000CE0101960E94762BCE0101960E947F1A6A
:101C3000CE0101960E94EC2A40E052EC61E070E097
:101C400080911109909112090E94CE26809111096C
:101C500090911209DC01ED91FC910284F385E02D55
:101C600019953AC08430E1F568E773E0CE0101963A
:101C70000E94B72BCE0101960E947F1ACE010196D9
:101C80000E94EC2A67E075E0809111099091120999
:101C90000E94CC2B8091110990911209DC01ED91E9
:101CA000FC910284F385E02D199564E670E080E0F4
:101CB00090E00E94042D61E088E00E9490230E9441
:101CC0003E2D60931A0970931B0980931C09909311
:101CD0001D0981E0809313098FEF8093140906C1D9
:101CE0008F3F39F567E873E08CE29CE00E94BE2AE2
:101CF00040E052EC61E070E080911109909112098E
:101D00000E94CE2667E873E0809111099091120934
:101D10000E94CC2B8091110990911209DC01ED9168
:101D2000FC910284F385E02D199581E080931309DD
:101D3000B4C4823039F10E943E2D009122091091E5
:101D400023092091240930912509DC01CB01801B56
:101D5000910BA20BB30B89389341A105B10508F093
:101D600076C40E943E2D00912209109123092091F2
:101D7000240930912509601771078207930708F439
:101D800066C4B4C080911609909117092091180972
:101D900030911909821B930B8F779927892B09F4AE
:101DA0007FC0809118099091190916E0189FF001E1
:101DB000199FF00D1124EA5DF64F84819581892BDE
:101DC00009F45AC08091180990911909189FB0011F
:101DD000199F700D11246A5D764F809111099091C1
:101DE00012090E94E02B8091110990911209DC01E7
:101DF000ED91FC910284F385E02D1995E09018098E
:101E0000F090190960E973E0CE0101960E94B72BAA
:101E10001E9DB0011F9D700D11246A5D764FCE018D
:101E200001960E948A2ABC01CE0107960E94AE2B21
:101E3000CE0107960E947F1ACE0107960E94EC2AD7
:101E4000CE0101960E94EC2A81E0809313090E9442
:101E50003E2D60931A0970931B0980931C0990937F
:101E60001D090E943E2D60931E0970931F098093E7
:101E70002009909321090EC061EB74E0CE01019618
:101E80000E94762BCE0101960E947F1ACE01019608
:101E90000E94EC2A68E973E08CE29CE00E94BE2A72
:101EA0000E943E2D00911E0910911F0920912009CA
:101EB00030912109DC01CB01801B910BA20BB30BEC
:101EC00089389341A105B10508F0F2C30E943E2D67
:101ED00000911E0910911F092091200930912109BC
:101EE000601771078207930708F4E2C38091110914
:101EF00090911209DC01ED91FC910480F581E02DB7
:101F00001995892B09F478C18091110990911209D2
:101F1000DC01ED91FC910680F781E02D1995182FD9
:101F200089831A8241E050E0BE016F5F7F4F86E2F5
:101F30009CE00E942A2A109215091D3009F05CC10C
:101F40006DE973E0CE0107960E94B72B66E27CE054
:101F5000CE0107960E948A2ABC01CE0101960E94FA
:101F6000AE2BCE0101960E947F1ACE0101960E94EF
:101F7000EC2ACE0107960E94EC2A8091300C9091B9
:101F8000310C892B79F168E973E080912C0C9091E8
:101F90002D0C0E948542892B29F58091260C909169
:101FA000270C009719F00E94864503C060E070E09E
:101FB000CB012091180930911909890120E030E006
:101FC000601771078207930709F010C18091180903
:101FD0009091190901968F77992790931909809309
:101FE000180902C167E075E0CE0101960E94B72B87
:101FF000CE0101960E94B2268C01CE0101960E946C
:10200000EC2A0F3F1F4F79F16CE475E0CE01019689
:102010000E94762BCE0101960E947F1ACE01019676
:102020000E94EC2A6BE475E0CE0101960E94762BAB
:10203000CE0101960E947F1ACE0101960E94EC2AE1
:102040008091300C9091310C892B09F4CDC067E858
:1020500073E080912C0C90912D0C0E948542892B6D
:1020600009F48FC0C1C06CEF73E0CE0101960E94ED
:10207000B72BCE0101960E94B2268C01CE010196AB
:102080000E94EC2A0F3F1F4FF1F062E375E0CE0192
:1020900001960E94762BCE0101960E947F1ACE01F6
:1020A00001960E94EC2A61E375E0CE0101960E9440
:1020B000762BCE0101960E947F1ACE0101960E94D6
:1020C000EC2A82E08FC066EA73E0CE0101960E949E
:1020D000B72BCE0101960E94B2268C01CE0101964B
:1020E0000E94EC2A0F3F1F4FF1F069E175E0CE012D
:1020F00001960E94762BCE0101960E947F1ACE0196
:1021000001960E94EC2A68E175E0CE0101960E94DA
:10211000762BCE0101960E947F1ACE0101960E9475
:10212000EC2A83E05FC067EF72E0CE0101960E9467
:10213000B72BCE0101960E94B2268C01CE010196EA
:102140000E94EC2A0F3F1F4FF1F06FEF74E0CE01B9
:1021500001960E94762BCE0101960E947F1ACE0135
:1021600001960E94EC2A6EEF74E0CE0101960E9467
:10217000762BCE0101960E947F1ACE0101960E9415
:10218000EC2A81E02FC06BEA73E0CE0101960E9439
:10219000B72BCE0101960E94B2268C01CE0101968A
:1021A0000E94EC2A0F3F1F4F09F165EE74E0CE014B
:1021B00001960E94762BCE0101960E947F1ACE01D5
:1021C00001960E94EC2A64EE74E0CE0101960E9412
:1021D000762BCE0101960E947F1ACE0101960E94B5
:1021E000EC2A84E0809314091092130966EE75E0DE
:1021F00086E29CE00E94BE2A0E94640720910502AC
:102200003091060280910007909101078217930791
:1022100009F469C08091040221FD06C0882309F4F5
:1022200058C064EA75E01CC025FD06C0882309F487
:1022300050C06AE975E014C0A90140745570452B7F
:1022400031F4882309F445C060E975E009C0A901AB
:1022500040785A70452BA1F48823D9F166E875E0DF
:10226000CE0101960E94762B60E0CE0101960E947D
:10227000E31BCE0101960E94EC2A1092040229C0B1
:1022800022FD05C0882329F16CE775E0E9CF23FD25
:1022900005C08823F1F062E775E0E2CF24FD05C0B8
:1022A0008823B9F068E675E0DBCF813091F062E613
:1022B00075E0CE0101960E94762B60E0CE0101967A
:1022C0000E94E31BCE0101960E94EC2A81E08093DC
:1022D00004020E941F1B80910502909106029093B8
:1022E00001078093000787E20E946723892B59F436
:1022F0000E943E2D6093A8067093A9068093AA06BB
:102300009093AB0617C00E943E2D0091A806109135
:10231000A9062091AA063091AB06DC01CB01801BF7
:10232000910BA20BB30B813D9740A105B10510F4B1
:102330000E943E2D0E942D0C8091C806882329F111
:102340000E943E2D60930307709304078093050756
:102350009093060780910207811115C06EEA75E01F
:10236000CE0101960E94762BCE0101960E94C02CD0
:10237000CE0101960E94EC2A61E08EE20E94902339
:1023800081E0809302071092C8068091020788239B
:10239000D9F10E943E2DC0900307D0900407E09031
:1023A0000507F0900607DC01CB018C199D09AE09E9
:1023B000BF0989389341A105B105A8F068E072E032
:1023C000CE0101960E94762BCE0101960E94C02C70
:1023D000CE0101960E94EC2A60E08EE20E949023DA
:1023E0001092020711C00E943E2D6C157D058E05CE
:1023F0009F0550F40E943E2D6093030770930407DD
:10240000809305079093060780911607882321F093
:102410000E9499081092160780911507882309F4E5
:1024200093C08091D30C81118DC08091DC0C8823E6
:1024300009F488C08091D90C8F5F8093D90C8230C9
:1024400008F480C082E090E09093200D80931F0DEF
:102450001092210D81E090E09093230D8093220D46
:1024600085EE90E09093250D8093240D88E1809374
:102470002E0D0E94A01681E080935A0D60E085E049
:102480000E940216F82E882309F40FC266EE75E04A
:10249000CE010D960E94B72B0E94F914E12CD12C8D
:1024A0000E2D1D2D8091150D9091160DDC01ED91D5
:1024B000FC910480F581E02D1995892B09F429C13F
:1024C0000031110509F049C190E1E92ED12C23C159
:1024D00080913F0D882309F498C180913E0D281703
:1024E00009F4A7C180913F0D0E9413258C018091B2
:1024F0003E0D80935B0D0F3F09F49EC18091CE0C81
:102500009091CF0C800F911D07FD9A959093CF0C61
:102510008093CE0C8091DB0C882391F064ED73E006
:10252000CE0101960E94B72BCE0101960E94FD16A6
:10253000CE0101960E94EC2A0E9464171092DB0CD7
:102540001092D90C1092150780911407882399F0E6
:102550008CE00E94672361E0892B09F060E08CE049
:102560000E9490238CE00E946723682F8DE00E94D8
:102570009023109214078091130781111092130772
:102580000E943E2D60930F077093100780931107F0
:1025900090931207C0900B07D0900C07E0900D07A6
:1025A000F0900E078B019C010C191D092E093F09A3
:1025B0000230110521053105D8F120910A072C19A7
:1025C000260F20930A0760930B0770930C078093E4
:1025D0000D0790930E072A3008F471C110920A0774
:1025E000909109079F5F9093090781E080931607F8
:1025F0009A3008F464C110920907909108079F5F10
:102600009093080780931507953008F458C11092ED
:102610000807909107079F5F90930707809314071F
:10262000923008F44CC1109207078093130747C1FA
:102630006C157D058E059F0508F041C160930B0761
:1026400070930C0780930D0790930E0738C169EFC4
:1026500073E08CE29CE00E94BE2A69EF73E08091F7
:102660001109909112090E94CC2B8091110990912F
:102670001209DC01ED91FC910284F385E02D19959E
:1026800081E0809313090E943E2D6093220970938C
:10269000230980932409909325090E943E2D60937D
:1026A0001A0970931B0980931C0990931D091ECC75
:1026B00069EF73E08CE29CE00E94BE2A69EF73E050
:1026C00080911109909112090E94CC2B80911109DF
:1026D00090911209DC01ED91FC910284F385E02DCB
:1026E000199581E0809313090E943E2D60931A0989
:1026F00070931B0980931C0990931D090E943E2D25
:1027000060931E0970931F098093200990932109FB
:10271000EDCBE02ED12E0E940415882391F061EBC1
:1027200073E0CE0101960E94B72BCE0101960E9464
:10273000BF14CE0101960E94EC2A0E94E014F12CF5
:1027400004C00031110509F0ABCECE010D960E94F8
:10275000EC2AFF2009F4A9C035C08091150D909195
:10276000160DDC01ED91FC910680F781E02D1995A5
:10277000E82E4AE0682FCE0101960E94492BBE0147
:102780006F5F7F4FCE0107960E94AE2B61E176E02E
:10279000CE0107960E94712ABC01CE010D960E94BF
:1027A000582ACE0107960E94EC2ACE0101960E947B
:1027B000EC2AF801ED5EF24FE7A20F5F1F4F0E9477
:1027C000F91470CE80913E0D20915B0D90E0821B3C
:1027D000910902970CF47CCEF0903E0DF21AEF2D89
:1027E000EE0F00E010E08EEFE82EEE0EFF2009F471
:1027F0007ECEED5FF0E0ED5EF24F87A10E941325E3
:10280000080F191FFA94EE2DEECF80913E0D28137C
:1028100010C08091400D8E3051F480915D0D8F5F1E
:1028200080935D0D853128F010925D0D05C01092EA
:102830005D0D00E010E05BCE4AE06091DB0CCE0164
:1028400007960E94492B69ED73E0CE010D960E9418
:10285000B72BBE01695F7F4FCE010D960E948A2A79
:10286000BC01CE0101960E94AE2BCE0101960E94C2
:10287000FD16CE0101960E94EC2ACE010D960E9413
:10288000EC2ACE0107960E94EC2A8091DB0C8F5F28
:102890008093DB0C8B3008F453CE0E941E1781E02E
:1028A0008093DC0C0E94B41749CE4AE06091DB0CA7
:1028B000CE0107960E94492B62E074E0C6CF629673
:1028C0000FB6F894DEBF0FBECDBFDF91CF911F9141
:1028D0000F91FF90EF90DF90CF9008950F931F938B
:1028E000CF93DF93EC010E943E2D0091FC061091E6
:1028F000FD062091FE063091FF06DC01CB01801B16
:10290000910BA20BB30B8D329140A105B105C8F01C
:102910008091FB06811107C0CE010E94A50681E0CF
:102920008093FB0604C00E9496061092FB060E944C
:102930003E2D6093FC067093FD068093FE069093F7
:10294000FF060E943E2D0091FC061091FD0620918D
:10295000FE063091FF06601771078207930750F457
:102960000E943E2D6093FC067093FD068093FE0648
:102970009093FF06DF91CF911F910F910895CF9310
:10298000DF9300D000D0CDB7DEB7BC01CE010196F9
:102990000E94AE2BBE016F5F7F4F8091130D90910F
:1029A000140D0E94C720CE0101960E94EC2A2696A3
:1029B0000FB6F894DEBF0FBECDBFDF91CF91089563
:1029C0008091150D9091160DDC01ED91FC91048024
:1029D000F581E02D1995892B59F08091150D909175
:1029E000160DDC01ED91FC910680F781E02D199424
:1029F00008950E943E2D60931B0D70931C0D8093D3
:102A00001D0D90931E0D08950F931F930E943E2D50
:102A100000911B0D10911C0D20911D0D30911E0D6C
:102A2000601771078207930710F40E94F9140E943F
:102A30003E2D00911B0D10911C0D20911D0D30910C
:102A40001E0DDC01CB01801B910BA20BB30B21E00F
:102A5000883C9105A105B10508F420E0822F1F9163
:102A60000F910895CF92DF92FF920F931F93CF9310
:102A7000DF93CDB7DEB762970FB6F894DEBF0FBE17
:102A8000CDBF66EE75E0CE010D960E94B72B0E9479
:102A9000F91400E010E08091150D9091160DDC0105
:102AA000ED91FC910480F581E02D1995892B41F081
:102AB0000530110509F04EC085E0C82ED12C01C0AB
:102AC00068010E940415F82E811125C0B5E0CB16CF
:102AD000D10409F760E474E0CE0107960E94B72B99
:102AE000BE01635F7F4FCE0107960E948A2ABC0118
:102AF000CE0101960E94AE2BCE0101960E94BF141A
:102B0000CE0101960E94EC2ACE0107960E94EC2A83
:102B10000530110511F0F12C62C020E080E090E05A
:102B2000FC01ED5EF24F348D230F01968530910547
:102B3000B9F78091310D883221F08091310D8230CA
:102B4000F1F58091320D81113AC0211138C0FF2476
:102B5000F39445C08091150D9091160DDC01ED9117
:102B6000FC910680F781E02D1995F82E4AE0682F38
:102B7000CE0107960E94492BBE01695F7F4FCE01AF
:102B800001960E94AE2B61E176E0CE0101960E9493
:102B9000712ABC01CE010D960E94582ACE010196E1
:102BA0000E94EC2ACE0107960E94EC2AF801ED5E05
:102BB000F24FF48E0F5F1F4F0E94F9146CCF6DE43B
:102BC00074E0CE0101960E94B72BCE0101960E94BF
:102BD000BF14CE0101960E94EC2A0E94E014CE019F
:102BE0000D960E94EC2A8F2D62960FB6F894DEBFE8
:102BF0000FBECDBFDF91CF911F910F91FF90DF905E
:102C0000CF9008950F931F93CF93DF93CDB7DEB787
:102C100062970FB6F894DEBF0FBECDBF182F062FF8
:102C200066EE75E0CE010D960E94B72B0E94F91456
:102C3000112309F454C08091150D9091160DDC01FB
:102C4000ED91FC910480F581E02D1995892B81F19E
:102C50008091150D9091160DDC01ED91FC9106808F
:102C6000F781E02D1995002301F14AE0682FCE018C
:102C700007960E94492BBE01695F7F4FCE010196E6
:102C80000E94AE2B61E176E0CE0101960E94712A8E
:102C9000BC01CE010D960E94582ACE0101960E94D9
:102CA000EC2ACE0107960E94EC2A11500E94F914DA
:102CB0000E940415882309F4BBCF6CE674E0CE01B2
:102CC00001960E94B72BCE0101960E94BF14CE013F
:102CD00001960E94EC2A0E94E01410E021C000231B
:102CE000F1F06EE874E0CE0107960E94B72BBE01AA
:102CF000635F7F4FCE0107960E948A2ABC01CE01F6
:102D000001960E94AE2BCE0101960E94BF14CE0107
:102D100001960E94EC2ACE0107960E94EC2A11E04F
:102D2000CE010D960E94EC2A812F62960FB6F89480
:102D3000DEBF0FBECDBFDF91CF911F910F910895E0
:102D4000FF920F931F93CF93DF93CDB7DEB7C05899
:102D5000D1090FB6F894DEBF0FBECDBF80911F0D15
:102D600089830091210D0A838091220D8B838091AC
:102D7000240D8C83FE01359680E090E010E08017F2
:102D8000910744F4DC01AD5EB24F53962C91219330
:102D90000196F5CF0C5F1F4FE1E0F0E0EC0FFD1F57
:102DA000E00FF11F80912E0D8083F12C2F2D30E04C
:102DB00002171307A4F08091150D9091160DDC01F8
:102DC000ED91FC91A1E0B0E0AC0FBD1FA20FB31FCD
:102DD0000190F081E02D6C911995F394E7CF80E09C
:102DE000C058DF4F0FB6F894DEBF0FBECDBFDF91E6
:102DF000CF911F910F91FF900895CF93DF9300D053
:102E000000D0CDB7DEB7BC01CE0101960E94AE2B3B
:102E1000BE016F5F7F4F8091C20C9091C30C0E94E6
:102E2000C720CE0101960E94EC2A26960FB6F89490
:102E3000DEBF0FBECDBFDF91CF910895CF93DF935B
:102E400000D000D0CDB7DEB78091D30C811133C054
:102E50006DE974E0CE0101960E94B72BCE01019678
:102E60000E94BF14CE0101960E94EC2A82E090E0FD
:102E70009093200D80931F0D81E08093210D81E0C0
:102E800090E09093230D8093220D84EE90E0909338
:102E9000250D8093240D1092260D88E180932E0D30
:102EA0000E94A01661E086E00E94021681110E9435
:102EB00032151092DC0C26960FB6F894DEBF0FBECA
:102EC000CDBFDF91CF9108951F93CF93DF9300D0B3
:102ED00000D0CDB7DEB78091D30C81113BC06FEA33
:102EE00074E0CE0101960E94B72BCE0101960E949C
:102EF000BF14CE0101960E94EC2A82E090E09093EC
:102F0000200D80931F0D11E01093210D81E090E0C2
:102F10009093230D8093220D84EE90E09093250DE5
:102F20008093240D1093260D87E180932E0D0E942F
:102F3000A01661E086E00E940216882339F00E9404
:102F40003215882319F01093DC0C04C01092DC0CAD
:102F50000E94B41726960FB6F894DEBF0FBECDBF01
:102F6000DF91CF911F910895FF920F931F93CF93FD
:102F7000DF93CDB7DEB762970FB6F894DEBF0FBE12
:102F8000CDBF60EC74E0CE0101960E94B72BCE015C
:102F900001960E94BF14CE0101960E94EC2A82E0A5
:102FA00090E09093200D80931F0D1092210D81E0F1
:102FB00090E09093230D8093220D9093250D8093A4
:102FC000240D8CEF80932E0D0E94A01661E085E009
:102FD0000E940216882339F00E94321581111CC00C
:102FE00060ED74E002C060EE74E0CE0101960E94D4
:102FF000B72BCE0101960E94BF14CE0101960E940C
:10300000EC2A0E94E0148FEF8093D30C8091D40CB3
:103010008F3F09F08AC0A9C08091D30C8F3F71F413
:1030200060EF74E0CE0101960E94B72BCE010196AD
:103030000E94FD16CE0101960E94EC2A68EC70E019
:1030400080E090E00E94042D82E090E09093200DBB
:1030500080931F0D1092210D81E090E09093230D3D
:103060008093220D88EE90E09093250D8093240D9F
:1030700085E180932E0D0E94A01661E085E00E94FC
:103080000216882351F166EE75E0CE010D960E947E
:10309000B72B0E94F9141092350D00E010E08091DA
:1030A000350D90E00496801791070CF4C3C0809111
:1030B000150D9091160DDC01ED91FC910480F581C8
:1030C000E02D1995892B09F078C00E9404158823FA
:1030D00031F3CE010D960E94EC2A68EC70E080E09E
:1030E00090E00E94042D8091600D8093D30C82307B
:1030F00081F460E275E0CE0101960E94B72BCE010B
:1031000001960E94FD16CE0101960E94EC2A1092B3
:10311000D30C6091D30C662309F4D2C08091D40CF7
:1031200016160CF40BC1681701F161E875E0CE01C9
:1031300001960E94B72BCE0101960E94FD16CE018A
:1031400001960E94EC2A6EE975E0CE0101960E947C
:10315000B72BCE0101960E94FD16CE0101960E946A
:10316000EC2A8091D30C8093D40C8091D30C8111E4
:1031700022C08091D40C882391F065EB75E0CE01DC
:1031800001960E94B72BCE0101960E94FD16CE013A
:1031900001960E94EC2A8091D30C8093D40C0E945B
:1031A0003E2D6093C80C7093C90C8093CA0C909309
:1031B000CB0C81E021C180E01FC18091350D90E0F2
:1031C0000496801791070CF480CF8091150D909193
:1031D000160DDC01ED91FC910680F781E02D19952B
:1031E000F82E4AE0682FCE0101960E94492BBE01BD
:1031F0006F5F7F4FCE0107960E94AE2B61E176E0B4
:10320000CE0107960E94712ABC01CE010D960E9444
:10321000582ACE0107960E94EC2ACE0101960E9400
:10322000EC2AF801ED5EF24FF1A20F5F1F4F0E94F2
:10323000F9143DCF6AE075E0CE0101960E94B72BEC
:10324000BE01635F7F4FCE0101960E948A2ABC01B6
:10325000CE0107960E94AE2BCE0107960E94BF14A6
:10326000CE0107960E94EC2ACE0101960E94EC2A1C
:103270008091350D90E005960817190709F029CFC0
:103280008091350D8B5F20E030E040E090E0281722
:10329000390744F4F901ED5EF24F51A1450F2F5F5C
:1032A0003F4FF5CF8091360D883229F08091360D51
:1032B000823009F07FC041117DC08091380D99C0E6
:1032C00067E475E0CE0101960E94B72BCE0101960E
:1032D0000E94BF14CE0101960E94EC2A82E090E089
:1032E0009093200D80931F0D8093210D81E090E03D
:1032F0009093230D8093220D87EE90E09093250DFF
:103300008093240D80E88093260D8FEF8093270D06
:1033100085E980932E0D0E94A01661E087E00E944F
:10332000021681110E9432158091DC0C882319F05D
:103330000E9464171ACF0E941E1717CF6A3074F4C8
:10334000681709F412CF062E000C770B4AE0CE0165
:1033500007960E941D2B66E575E00DC0681709F4FD
:1033600004CF062E000C770B4AE0CE0107960E9490
:103370001D2B6CE675E0CE010D960E94B72BBE01A9
:10338000695F7F4FCE010D960E948A2ABC01CE0153
:1033900001960E94AE2BCE0101960E94FD16CE0131
:1033A00001960E94EC2ACE010D960E94EC2ACE01D5
:1033B0000796D5CE6EEC75E0CE0101960E94B72B34
:1033C000CE0101960E94BF14CE0101960E94EC2A04
:1033D00067EE75E0CE0101960E94B72BCE010196F3
:1033E0000E94BF14CE0101960E94EC2A0E94E014B4
:1033F0008FEF8093600D6DCE62960FB6F894DEBFAE
:103400000FBECDBFDF91CF911F910F91FF90089517
:10341000AF92BF92CF92DF92EF92FF920F931F93E2
:10342000CF93DF936C0160E08091E40C0E949023C5
:10343000E6012496BA90AA9008E010E090E8E92E00
:10344000F12C60E08091E20C0E94902361E09701F2
:103450002A213B21232B09F460E08091E30C0E9498
:10346000902361E08091E20C0E949023F594E79410
:103470000150110931F7CC15DD05E1F661E08091CD
:10348000E40CDF91CF911F910F91FF90EF90DF90AF
:10349000CF90BF90AF900C94902387E290E09093F0
:1034A000F40C8093F30C83EF9CE00C94081A80EFEB
:1034B00090E09093F40C8093F30C83EF9CE00C94D9
:1034C000081AE2EEFCE08E51934FDC0113968C91CA
:1034D00090E0928B818B748B638B83EF9CE00C94D8
:1034E000081AE2EEFCE02FEF30E0281B390B328B9C
:1034F000218B748B638B83EF9CE00C94081ACF9321
:10350000DF9300D000D0CDB7DEB7BC01CE0101966D
:103510000E94AE2BBE016F5F7F4F80910F0990918B
:1035200010090E94C720CE0101960E94EC2A26961F
:103530000FB6F894DEBF0FBECDBFDF91CF910895D7
:103540000F931F93CF93DF93CDB7DEB762970FB67C
:10355000F894DEBF0FBECDBF8C0166EE75E0CE01E4
:103560000D960E94B72BF80184819581892B09F46F
:1035700057C06BEF75E0CE010D960E94BE2A609198
:103580001609709117094AE0CE0107960E94F12AA8
:10359000BE01695F7F4FCE0101960E94AE2B6CE4A5
:1035A00072E0CE0101960E94712ABC01CE010D96F7
:1035B0000E94582ACE0101960E94EC2ACE0107965D
:1035C0000E94EC2AB801CE010D960E94582ABE0135
:1035D000635F7F4FCE0101960E94AE2BCE01019614
:1035E0000E947F1ACE0101960E94EC2A20911609B2
:1035F0003091170946E0429FC001439F900D11246E
:10360000B8018A5D964F0E94D52A80911609909143
:10361000170901968F7799279093170980931609B8
:10362000CE010D960E94EC2A62960FB6F894DEBF8A
:103630000FBECDBFDF91CF911F910F910895CF9312
:10364000DF93CDB7DEB72C970FB6F894DEBF0FBE71
:10365000CDBF61E176E0CE0107960E94762B6FE048
:1036600076E0CE0107960E94FA29609116097091C2
:1036700017094AE0CE0101960E94F12ABE016F5F50
:103680007F4FCE0107960E94582ACE0101960E94D4
:10369000EC2A69E076E0CE0107960E94FA29BE0185
:1036A000695F7F4FCE0101960E94AE2BCE0101963D
:1036B0000E94A01ACE0101960E94EC2ACE01079624
:1036C0000E94EC2A80E02C960FB6F894DEBF0FBE65
:1036D000CDBFDF91CF910895CF92DF92EF92FF920D
:1036E0000F931F93CF93DF93CDB7DEB72C970FB611
:1036F000F894DEBF0FBECDBF6C017B018A0168E08C
:1037000076E0CE0107960E94762B66E076E0CE0149
:1037100007960E94FA2960911609709117094AE0EC
:10372000CE0101960E94F12ABE016F5F7F4FCE014C
:1037300007960E94582ACE0101960E94EC2A6EEF4D
:1037400075E0CE0107960E94FA29B601CE010796D0
:103750000E94582A6CEF75E0CE0107960E94FA2964
:10376000B701CE0107960E94582A6AEF75E0CE0194
:1037700007960E94FA29B801CE0107960E94582A9E
:10378000BE01695F7F4FCE0101960E94AE2BCE0134
:1037900001960E94A01ACE0101960E94EC2ACE0149
:1037A00007960E94EC2A80E02C960FB6F894DEBFB4
:1037B0000FBECDBFDF91CF911F910F91FF90EF9082
:1037C000DF90CF900895FF920F931F93CF93DF93D5
:1037D000CDB7DEB762970FB6F894DEBF0FBECDBF90
:1037E0008C01F62EBC01CE0101960E94AE2B62E642
:1037F0007CE0CE0107960E94AE2B6CE57CE0CE010A
:103800000D960E94AE2BAE014F5F5F4FBE01695F08
:103810007F4FCE010D960E946C1BCE010D960E942B
:10382000EC2ACE0107960E94EC2ACE0101960E9456
:10383000EC2AF80184819581892B09F411C266E094
:1038400076E0808191810E948542892B09F008C22F
:1038500068EF75E0CE0101960E94762B68E67CE069
:10386000CE0107960E94AE2B6CE57CE0CE010D9652
:103870000E94AE2BAE014F5F5F4FBE01695F7F4F6D
:10388000CE010D960E946C1BCE010D960E94EC2A73
:10389000CE0107960E94EC2ACE0101960E94EC2AE6
:1038A00066EF75E0CE0101960E94762B6EE67CE015
:1038B000CE0107960E94AE2B6CE57CE0CE010D9602
:1038C0000E94AE2BAE014F5F5F4FBE01695F7F4F1D
:1038D000CE010D960E946C1BCE010D960E94EC2A23
:1038E000CE0107960E94EC2ACE0101960E94EC2A96
:1038F00064EF75E0CE0101960E94762B64E77CE0D0
:10390000CE0107960E94AE2B6CE57CE0CE010D96B1
:103910000E94AE2BAE014F5F5F4FBE01695F7F4FCC
:10392000CE010D960E946C1BCE010D960E94EC2AD2
:10393000CE0107960E94EC2ACE0101960E94EC2A45
:1039400062EF75E0CE0101960E94762B6AE77CE07B
:10395000CE0107960E94AE2B6CE57CE0CE010D9661
:103960000E94AE2BAE014F5F5F4FBE01695F7F4F7C
:10397000CE010D960E946C1BCE010D960E94EC2A82
:10398000CE0107960E94EC2ACE0101960E94EC2AF5
:1039900060EF75E0CE0101960E94762B60E87CE036
:1039A000CE0107960E94AE2B6CE57CE0CE010D9611
:1039B0000E94AE2BAE014F5F5F4FBE01695F7F4F2C
:1039C000CE010D960E946C1BCE010D960E94EC2A32
:1039D000CE0107960E94EC2ACE0101960E94EC2AA5
:1039E0006EEE75E0CE0101960E94762B66E87CE0D3
:1039F000CE0107960E94AE2B6CE57CE0CE010D96C1
:103A00000E94AE2BAE014F5F5F4FBE01695F7F4FDB
:103A1000CE010D960E946C1BCE010D960E94EC2AE1
:103A2000CE0107960E94EC2ACE0101960E94EC2A54
:103A30006CEE75E0CE0101960E94762B6CE87CE07E
:103A4000CE0107960E94AE2B6CE57CE0CE010D9670
:103A50000E94AE2BAE014F5F5F4FBE01695F7F4F8B
:103A6000CE010D960E946C1BCE010D960E94EC2A91
:103A7000CE0107960E94EC2ACE0101960E94EC2A04
:103A80006AEE75E0CE0101960E94762B62E97CE039
:103A9000CE0107960E94AE2B6CE57CE0CE010D9620
:103AA0000E94AE2BAE014F5F5F4FBE01695F7F4F3B
:103AB000CE010D960E946C1BCE010D960E94EC2A41
:103AC000CE0107960E94EC2ACE0101960E94EC2AB4
:103AD00068EE75E0CE0101960E94762B68E97CE0E5
:103AE000CE0107960E94AE2B6CE57CE0CE010D96D0
:103AF0000E94AE2BAE014F5F5F4FBE01695F7F4FEB
:103B0000CE010D960E946C1BCE010D960E94EC2AF0
:103B1000CE0107960E94EC2ACE0101960E94EC2A63
:103B200066EE75E0CE0101960E94762B6EE97CE090
:103B3000CE0107960E94AE2B6CE57CE0CE010D967F
:103B40000E94AE2BAE014F5F5F4FBE01695F7F4F9A
:103B5000CE010D960E946C1BCE010D960E94EC2AA0
:103B6000CE0107960E94EC2ACE0101960E94EC2A13
:103B700064EE75E0CE0101960E94762B64EA7CE04B
:103B8000CE0107960E94AE2B6CE57CE0CE010D962F
:103B90000E94AE2BAE014F5F5F4FBE01695F7F4F4A
:103BA000CE010D960E946C1BCE010D960E94EC2A50
:103BB000CE0107960E94EC2ACE0101960E94EC2AC3
:103BC00062EE75E0CE0101960E94762B6AEA7CE0F7
:103BD000CE0107960E94AE2B6CE57CE0CE010D96DF
:103BE0000E94AE2BAE014F5F5F4FBE01695F7F4FFA
:103BF000CE010D960E946C1BCE010D960E94EC2A00
:103C0000CE0107960E94EC2ACE0101960E94EC2A72
:103C100060EE75E0CE0101960E94762B60EB7CE0B1
:103C2000CE0107960E94AE2B6CE57CE0CE010D968E
:103C30000E94AE2BAE014F5F5F4FBE01695F7F4FA9
:103C4000CE010D960E946C1BCE010D960E94EC2AAF
:103C5000CE0107960E94EC2ACE0101960E94EC2A22
:103C6000F1100E941F1B62960FB6F894DEBF0FBEC4
:103C7000CDBFDF91CF911F910F91FF9008954F928B
:103C80005F926F927F928F929F92AF92BF92CF92EC
:103C9000DF92EF92FF920F931F93CF93DF934B012D
:103CA0005C0180910B0990910C09A0910D09B091D4
:103CB0000E0988169906AA06BB0609F4C2C08CE351
:103CC000C82ED12CE12CF12CC501B401A70196011D
:103CD0000E94084060930409CA01B901A701960136
:103CE0000E94084060930509CA01B90128E130E04B
:103CF00040E050E00E94084069017A0160930609A3
:103D0000CA01B9016C5F7F4F8F4F9F4F27E030E0B2
:103D100040E050E00E9408406F5F60930709412C2B
:103D2000512C320140E004E610E0C0E9D1E0242F3C
:103D300030E02E54384FF901E370FF27309789F4B3
:103D4000C901B8010E94F43F892B31F4C901BE01B9
:103D50000E94F43F892B29F48EE691E0A0E0B0E0C8
:103D600004C08DE691E0A0E0B0E0480E591E6A1E46
:103D70007B1ED301C201AA27BB27C816D906EA06B3
:103D8000FB0610F04F5FD3CF40930A09309799F4A8
:103D9000C90164E670E00E94F43F892B39F4C9013F
:103DA00060E971E00E94F43F892B29F48EE691E0EE
:103DB000A0E0B0E004C08DE691E0A0E0B0E0481AD9
:103DC000590A6A0A7B0AC418D508E608F708C90127
:103DD00064E670E00E94F43FEC01C90160E971E023
:103DE0000E94F43FA3E2B2E020E0213039F43097A2
:103DF00049F4209729F4009729F402C04C9103C09C
:103E00004DE101C04CE150E060E070E0C416D50621
:103E1000E606F70640F0C41AD50AE60AF70A2F5F4D
:103E200011962C3011F72F5F20930909C394C0928B
:103E3000080980920B0990920C09A0920D09B0928A
:103E40000E09DF91CF911F910F91FF90EF90DF90BE
:103E5000CF90BF90AF909F908F907F906F905F902A
:103E60004F900895FC01918D828D981761F0828D9D
:103E7000DF01A80FB11D5D968C91928D9F5F9F739E
:103E8000928F90E008958FEF9FEF0895FC01918D40
:103E9000828D981731F0828DE80FF11D858D90E0AD
:103EA00008958FEF9FEF0895FC01918D228D892F4A
:103EB00090E0805C9F4F821B91098F739927089532
:103EC00087E197E00E94541F21E0892B09F420E04C
:103ED000822F089580E090E0892B21F00E94F02944
:103EE00081111DC080E090E0892B41F080E090E0DE
:103EF000892B21F00E940000811114C080E090E025
:103F0000892B21F00E94601F81110FC080E090E09A
:103F1000892B81F00E94E62981110AC008950E9430
:103F20000000E0CF0E940000E9CF0E940000EECF29
:103F30000C940000089590E0FC013197E231F10506
:103F400008F04EC08827EA57FF4F8F4F0C942A4045
:103F5000809180008F7703C0809180008F7D809357
:103F60008000089580918000877FF9CF84B58F7796
:103F700002C084B58F7D84BD08958091B0008F7795
:103F800003C08091B0008F7D8093B0000895809130
:103F900090008F7707C0809190008F7D03C0809143
:103FA0009000877F8093900008958091A0008F7784
:103FB00007C08091A0008F7D03C08091A000877F03
:103FC0008093A0000895809120018F7707C0809191
:103FD00020018F7D03C080912001877F8093200185
:103FE0000895EF92FF920F931F93CF93DF9300D02A
:103FF00000D0CDB7DEB78C017A0164E377E00E9490
:10400000762B8AE0E816F1042CF462E377E0C8012D
:104010000E94FA294AE0B701CE0101960E941D2BA9
:10402000BE016F5F7F4FC8010E94582ACE010196E2
:104030000E94EC2AC80126960FB6F894DEBF0FBE88
:10404000CDBFDF91CF911F910F91FF90EF90089519
:10405000CF93DF93CDB7DEB762970FB6F894DEBF8C
:104060000FBECDBF4AE0BC01CE0101960E94F12AED
:1040700064E47CE0CE0107960E94AE2B62E37CE014
:10408000CE010D960E94AE2BAE014F5F5F4FBE0179
:10409000695F7F4FCE010D960E946C1BCE010D967D
:1040A0000E94EC2ACE0107960E94EC2ACE010196CE
:1040B0000E94EC2A62960FB6F894DEBF0FBECDBF09
:1040C000DF91CF910895CF93DF93CDB7DEB762979D
:1040D0000FB6F894DEBF0FBECDBFBC01CE01019676
:1040E0000E94AE2B6AE47CE0CE0107960E94AE2BC4
:1040F00062E37CE0CE010D960E94AE2BAE014F5FD5
:104100005F4FBE01695F7F4FCE010D960E946C1B11
:10411000CE010D960E94EC2ACE0107960E94EC2A51
:10412000CE0101960E94EC2A62960FB6F894DEBF8B
:104130000FBECDBFDF91CF9108951F920F920FB6A2
:104140000F9211240BB60F922F933F934F935F93CF
:104150006F937F938F939F93AF93BF93EF93FF934F
:1041600087E197E00E94532CFF91EF91BF91AF91AF
:104170009F918F917F916F915F914F913F912F917F
:104180000F900BBE0F900FBE0F901F9018954F927F
:104190005F926F927F928F929F92AF92BF92EF92B7
:1041A000FF920F931F93CF93DF93CDB7DEB76E9738
:1041B0000FB6F894DEBF0FBECDBF8C017B0166EE5B
:1041C00075E0CE010D960E94B72BB701CE01439644
:1041D0000E94AE2B66EE75E0CE0149960E94B72B89
:1041E00078012EE0E20EF11C0E943E2D4090FC086A
:1041F0005090FD086090FE087090FF084B015C0134
:1042000084189508A608B7088091000990910109C3
:10421000A0910209B0910309E8EE8E16E3E09E0634
:10422000A104B104D0F00196A11DB11D8093000935
:1042300090930109A0930209B0930309B301A2016D
:1042400048515C4F6F4F7F4F4093FC085093FD08DF
:104250006093FE087093FF08C7CF4091F808509113
:10426000F9086091FA087091FB0884179507A60772
:10427000B70708F456C0E091F608F091F7083097B8
:1042800009F44FC01995611571058105910539F142
:1042900060930009709301098093020990930309C8
:1042A000DC01CB01845D9E4FAF4FBF4F8093F80878
:1042B0009093F908A093FA08B093FB0882E090E08D
:1042C0009093F5088093F4080E943E2D6093FC08BB
:1042D0007093FD088093FE089093FF0822C08091A0
:1042E000000990910109A0910209B0910309845D30
:1042F0009E4FAF4FBF4F8093F8089093F908A0935B
:10430000FA08B093FB0881E090E02091F408309126
:10431000F508232B11F480E090E09093F50880934A
:10432000F4088090000990900109A0900209B090D3
:104330000309C501B4010E943F1E4091060950E0E7
:10434000B801CE0107960E94F11F67E377E0CE0126
:1043500007960E94FA29C501B4010E943F1E4091B0
:10436000050950E0B801CE0101960E94F11FBE017F
:104370006F5F7F4FCE0107960E94582ACE010196AB
:104380000E94EC2A65E377E0CE0107960E94FA29A5
:10439000C501B4010E943F1E4091040950E0B801DC
:1043A000CE0101960E94F11FBE016F5F7F4FCE01CB
:1043B00007960E94582ACE0101960E94EC2ABE015F
:1043C000695F7F4FCE0101960E94AE2B61E176E0DE
:1043D000CE0101960E94712AB7010E948A2A6FE0DD
:1043E00076E00E94712ABE016D5E7F4F0E948A2A8C
:1043F000BC01CE0149960E94D52ACE0101960E94A9
:10440000EC2ACE0107960E94EC2A8D859E850097A6
:10441000A9F0698D7A8D6115710571F04F85588904
:104420002D8D3E8D4217530738F00E948E428D8DA0
:104430009E8D9A8B898B12C00E94F640898D9A8D31
:104440009E878D878B8D9C8D988B8F878D8D9E8D74
:104450009A8B898B1A8E198E1C8E1B8E1E8E1D8E2A
:10446000CE0149960E94EC2ACE0143960E94EC2A86
:10447000BE01635F7F4FF801808191810E94E02B34
:10448000CE010D960E94EC2A6E960FB6F894DEBF10
:104490000FBECDBFDF91CF911F910F91FF90EF9095
:1044A000BF90AF909F908F907F906F905F904F9054
:1044B0000895EF92FF920F931F93CF93DF93EC0138
:1044C0007B0166EE75E008960E94B72B8E01025FB5
:1044D0001F4F66EE75E0C8010E94B72B87E197E099
:1044E0009983888380E092ECA1E0B0E08C839D8387
:1044F000AE83BF8383E196E09B838A83B701C801C3
:10450000DF91CF911F910F91FF90EF900C94D52ADE
:104510001F920F920FB60F9211240BB60F922F938A
:104520003F934F935F936F937F938F939F93AF933B
:10453000BF93EF93FF93E091F208F091F308199580
:10454000FF91EF91BF91AF919F918F917F916F916B
:104550005F914F913F912F910F900BBE0F900FBE27
:104560000F901F901895FC01848DDF01A80FB11DDD
:10457000A35ABF4F2C91848D90E001968F73992799
:10458000848FA689B7892C93A089B1898C91806486
:104590008C93938D848D981306C00288F389E02D47
:1045A00080818F7D808308951F920F920FB60F92A6
:1045B00011240BB60F922F933F934F935F936F93FA
:1045C0007F938F939F93AF93BF93EF93FF9387E175
:1045D00097E00E94B322FF91EF91BF91AF919F911D
:1045E0008F917F916F915F914F913F912F910F909C
:1045F0000BBE0F900FBE0F901F901895EF92FF9279
:104600000F931F93CF93DF93EC0181E0888F9B8DF5
:104610008C8D981305C0E889F989808185FD24C0B7
:10462000F62E0B8D10E00F5F1F4F0F731127E02E3A
:104630008C8DE8120CC00FB607FCFACFE889F98917
:10464000808185FFF5CFCE010E94B322F1CF8B8D03
:10465000FE01E80FF11DE35AFF4FF0820B8FEA894C
:10466000FB898081806207C0EE89FF896083E889C9
:10467000F98980818064808381E090E0DF91CF912F
:104680001F910F91FF90EF900895CF93DF93EC016E
:10469000888D8823C9F0EA89FB89808185FD05C062
:1046A000A889B9898C9186FD0FC00FB607FCF5CF9C
:1046B000808185FFF2CFA889B9898C9185FFEDCFE4
:1046C000CE010E94B322E7CFDF91CF910895CF931F
:1046D000DF93282F30E0F901E451F94F8491F9017B
:1046E000EA55F94FD491F901E05AF94FC491CC231E
:1046F00091F081110E949B1FEC2FF0E0EE0FFF1F45
:10470000EA5BF94FA591B491EC91ED2381E090E043
:1047100021F480E002C080E090E0DF91CF91089525
:104720001F93CF93DF93282F30E0F901E451F94F25
:104730008491F901EA55F94FD491F901E05AF94F02
:10474000C491CC23C9F0162F81110E949B1FEC2F1E
:10475000F0E0EE0FFF1FE45DF94FA591B4918FB724
:10476000F894111105C09C91ED2FE095E92302C04A
:10477000EC91ED2BEC938FBFDF91CF911F910895BA
:10478000CF93DF9390E0FC01EA55F94F2491FC01AF
:10479000E05AF94F8491882361F190E0880F991FC6
:1047A000FC01EE5EF94FC591D491FC01E45DF94F37
:1047B000A591B491611109C09FB7F89488812095A3
:1047C00082238883EC912E230BC0623061F49FB763
:1047D000F8943881822F809583238883EC912E2B47
:1047E0002C939FBF06C08FB7F894E8812E2B2883A7
:1047F0008FBFDF91CF9108951F93CF93DF93CDB7F4
:10480000DEB762970FB6F894DEBF0FBECDBF162F8E
:10481000BC01CE0101960E94AE2B60E87CE0CE0187
:1048200007960E94AE2B6CE57CE0CE010D960E94AF
:10483000AE2BAE014F5F5F4FBE01695F7F4FCE0170
:104840000D960E946C1BCE010D960E94EC2ACE01A3
:1048500007960E94EC2ACE0101960E94EC2A1111C3
:104860000E941F1B62960FB6F894DEBF0FBECDBF2D
:10487000DF91CF911F9108950F931F93CF93DF93F3
:10488000CDB7DEB769970FB6F894DEBF0FBECDBFC8
:10489000282F8B016CE57CE0CE014396298F0E9486
:1048A000AE2B298D223061F0233091F02130C1F5FB
:1048B000B801CE0101960E94AE2B62E97CE00FC0E8
:1048C000B801CE0101960E94AE2B6EE97CE007C0D4
:1048D000B801CE0101960E94AE2B6AEA7CE0CE01BF
:1048E00007960E94AE2BBE016D5E7F4FCE010D96E6
:1048F0000E94AE2BAE014F5F5F4FBE01695F7F4FDD
:10490000CE010D960E946C1BCE010D960E94EC2AE2
:10491000CE0107960E94EC2ACE0101960E94EC2A55
:10492000CE0143960E94EC2A69960FB6F894DEBF3A
:104930000FBECDBFDF91CF911F910F910895CF93FF
:10494000DF93CDB7DEB762970FB6F894DEBF0FBE28
:10495000CDBFBC01CE0101960E94AE2B66E87CE083
:10496000CE0107960E94AE2B6CE57CE0CE010D9641
:104970000E94AE2BAE014F5F5F4FBE01695F7F4F5C
:10498000CE010D960E946C1BCE010D960E94EC2A62
:10499000CE0107960E94EC2ACE0101960E94EC2AD5
:1049A00062960FB6F894DEBF0FBECDBFDF91CF91F8
:1049B0000895CF93DF93CDB7DEB762970FB6F89423
:1049C000DEBF0FBECDBFBC01CE0101960E94AE2B53
:1049D00068E67CE0CE0107960E94AE2B6CE57CE099
:1049E000CE010D960E94AE2BAE014F5F5F4FBE0110
:1049F000695F7F4FCE010D960E946C1BCE010D9614
:104A00000E94EC2ACE0107960E94EC2ACE01019664
:104A10000E94EC2A62960FB6F894DEBF0FBECDBF9F
:104A2000DF91CF910895CF93DF9300D000D0CDB721
:104A3000DEB790E0FC013897E830F10508F04AC095
:104A40008827E856FF4F8F4F0C942A4067E176E0A5
:104A5000CE0101960E94B72BCE0101960E94BF1491
:104A6000CE0101960E94EC2A81E090E035C06AE216
:104A700076E0CE0101960E94B72BCE0101960E94EE
:104A8000BF14CE0101960E94EC2A82E090E024C07F
:104A90006DE376E0CE0101960E94B72BCE01019620
:104AA0000E94BF14CE0101960E94EC2A85E090E09E
:104AB00013C060E576E0CE0101960E94B72BCE01CF
:104AC00001960E94BF14CE0101960E94EC2A8AE052
:104AD00090E002C080E090E026960FB6F894DEBF2A
:104AE0000FBECDBFDF91CF910895CF93DF93CDB7A8
:104AF000DEB762970FB6F894DEBF0FBECDBFBC0124
:104B0000CE0101960E94AE2B6EE67CE0CE010796A8
:104B10000E94AE2B6CE57CE0CE010D960E94AE2B80
:104B2000AE014F5F5F4FBE01695F7F4FCE010D96B3
:104B30000E946C1BCE010D960E94EC2ACE010796B6
:104B40000E94EC2ACE0101960E94EC2A62960FB6D2
:104B5000F894DEBF0FBECDBFDF91CF910895CF9304
:104B6000DF93CDB7DEB762970FB6F894DEBF0FBE06
:104B7000CDBF20911409223079F064E676E0CE01B1
:104B800001960E94B72BCE0101960E947F1ACE019A
:104B900001960E94EC2A29C0BC01CE0101960E9418
:104BA000AE2B6CEB7CE0CE0107960E94AE2B66EB41
:104BB0007CE0CE010D960E94AE2BAE014F5F5F4FA1
:104BC000BE01695F7F4FCE010D960E946C1BCE0126
:104BD0000D960E94EC2ACE0107960E94EC2ACE0187
:104BE00001960E94EC2A0E941F1B62960FB6F89451
:104BF000DEBF0FBECDBFDF91CF910895CF93DF937E
:104C0000CDB7DEB762970FB6F894DEBF0FBECDBF4B
:104C1000BC01CE0101960E94AE2B64E77CE0CE0180
:104C200007960E94AE2B6CE57CE0CE010D960E94AB
:104C3000AE2BAE014F5F5F4FBE01695F7F4FCE016C
:104C40000D960E946C1BCE010D960E94EC2ACE019F
:104C500007960E94EC2ACE0101960E94EC2A6296E9
:104C60000FB6F894DEBF0FBECDBFDF91CF91089590
:104C7000CF93DF93CDB7DEB762970FB6F894DEBF60
:104C80000FBECDBFBC01CE0101960E94AE2B6AE7DC
:104C90007CE0CE0107960E94AE2B6CE57CE0CE0155
:104CA0000D960E94AE2BAE014F5F5F4FBE01695F54
:104CB0007F4FCE010D960E946C1BCE010D960E9477
:104CC000EC2ACE0107960E94EC2ACE0101960E94A2
:104CD000EC2A62960FB6F894DEBF0FBECDBFDF910F
:104CE000CF9108951F93CF93DF93CDB7DEB762972F
:104CF0000FB6F894DEBF0FBECDBF162FBC01CE019C
:104D000001960E94AE2B60EB7CE0CE0107960E94DC
:104D1000AE2B6CE57CE0CE010D960E94AE2BAE0171
:104D20004F5F5F4FBE01695F7F4FCE010D960E94BE
:104D30006C1BCE010D960E94EC2ACE0107960E94B4
:104D4000EC2ACE0101960E94EC2A11110E941F1B31
:104D500062960FB6F894DEBF0FBECDBFDF91CF9144
:104D60001F910895CF93DF9320912A0C30912B0C43
:104D7000232B79F0FC01C091260CD091270C608187
:104D80007181CE010E949542009719F08C1B9D0BFA
:104D900002C08FEF9FEFDF91CF910895CF92DF9206
:104DA000EF92FF920F931F93CF93DF93EC016A0171
:104DB0007B01E889F98982E080834115514E6105C4
:104DC0007105B1F060E079E08DE390E0A701960114
:104DD0000E94084089019A010150110921093109F5
:104DE0003695279517950795980101151041A8F05C
:104DF000E889F989108260E874E88EE190E0A70103
:104E000096010E940840DA01C9010197A109B10980
:104E1000B695A795979587959C01EC85FD85308380
:104E2000EE85FF852083188EEC89FD8986E08083DE
:104E3000EA89FB89808180618083EA89FB8980819E
:104E400088608083EA89FB89808180688083EA8921
:104E5000FB8980818F7D8083DF91CF911F910F919E
:104E6000FF90EF90DF90CF9008950F931F930E94D3
:104E70003E2D00911A0910911B0920911C093091B7
:104E80001D09601771078207930750F40E943E2D99
:104E900060931A0970931B0980931C0990931D0954
:104EA0000E943E2D00911A0910911B0920911C09A6
:104EB00030911D09DC01CB01801B910BA20BB30BC0
:104EC00021E088389341A105B10508F420E0822F44
:104ED0001F910F910895E2EEFCE08FEF90E0928B2E
:104EE000818B948B838B83EF9CE00C94081ACF9377
:104EF000DF93CDB7DEB762970FB6F894DEBF0FBE73
:104F0000CDBFBC01CE0101960E94AE2B66E57CE0D0
:104F1000CE0107960E94AE2B60E57CE0CE010D9697
:104F20000E94AE2BAE014F5F5F4FBE01695F7F4FA6
:104F3000CE010D960E946C1BCE010D960E94EC2AAC
:104F4000CE0107960E94EC2ACE0101960E94EC2A1F
:104F50000E941F1B62960FB6F894DEBF0FBECDBF36
:104F6000DF91CF9108950F931F93CF93DF93CDB728
:104F7000DEB769970FB6F894DEBF0FBECDBF282FFE
:104F80008B016CE57CE0CE014396298F0E94AE2B0D
:104F9000298D223069F02330A1F02130D9F54AE083
:104FA000B801CE0101960E94F12A6CE87CE011C0A4
:104FB0004AE0B801CE0101960E94F12A68E97CE03E
:104FC00008C04AE0B801CE0101960E94F12A64EAC5
:104FD0007CE0CE0107960E94AE2BBE016D5E7F4F36
:104FE000CE010D960E94AE2BAE014F5F5F4FBE010A
:104FF000695F7F4FCE010D960E946C1BCE010D960E
:105000000E94EC2ACE0107960E94EC2ACE0101965E
:105010000E94EC2ACE0143960E94EC2A69960FB6B4
:10502000F894DEBF0FBECDBFDF91CF911F910F91DE
:1050300008952091F00C2F5F243018F42093F00C89
:1050400002C01092F00C2091F00C2130F9F070F0B9
:105050002230D1F1233009F051C080E590E09093E7
:10506000F40C8093F30C8BEF90E044C06AE070E0A6
:105070000E94E03FFC01EE51F34F838190E090935A
:10508000F40C8093F30C8DEF90E034C08A309105DE
:10509000A0F064E670E00E94E03F6AE070E00E94E9
:1050A000E03FFB01EE51F34F838190E09093F40CCD
:1050B0008093F30C8FEE90E01DC08FEF90E0909303
:1050C000F40C8093F30C16C084369105B0F368EEAF
:1050D00073E00E94E03F64E670E00E94E03FFB0165
:1050E000EE51F34F838190E09093F40C8093F30C96
:1050F00087EF90E09093F60C8093F50C83EF9CE0A3
:105100000C94081ACF92DF92EF92FF920F931F93A5
:105110006B017C010E943E2D0091C80C1091C90CBE
:105120002091CA0C3091CB0C60177107820793074E
:1051300050F40E943E2D6093C80C7093C90C80936C
:10514000CA0C9093CB0C0E943E2D0091C80C10917C
:10515000C90C2091CA0C3091CB0CAB01BC01401B97
:10516000510B620B730B81E04C155D056E057F05DD
:1051700008F480E01F910F91FF90EF90DF90CF90A7
:1051800008951F93CF93DF9300D000D0CDB7DEB743
:10519000182F8091CC0C1817D1F0112319F06CE660
:1051A00076E002C068E876E0CE0101960E94B72B57
:1051B000CE0101960E94FD16CE0101960E94EC2AB6
:1051C000612F8091D70C0E9490231093CC0C0E94E9
:1051D0003E2D6093C80C7093C90C8093CA0C9093B9
:1051E000CB0C64EF71E080E090E00E948228811196
:1051F00003C00E94E014F5CF26960FB6F894DEBFE8
:105200000FBECDBFDF91CF911F910895CF93DF9354
:10521000CDB7DEB762970FB6F894DEBF0FBECDBF35
:105220004AE0682FCE0101960E94492B68E37CE09A
:10523000CE0107960E94AE2B62E37CE0CE010D9674
:105240000E94AE2BAE014F5F5F4FBE01695F7F4F83
:10525000CE010D960E946C1BCE010D960E94EC2A89
:10526000CE0107960E94EC2ACE0101960E94EC2AFC
:1052700062960FB6F894DEBF0FBECDBFDF91CF911F
:105280000895CF93DF93CDB7DEB762970FB6F8944A
:10529000DEBF0FBECDBF4AE0BC01CE0101960E9429
:1052A000F12A6EE37CE0CE0107960E94AE2B62E30A
:1052B0007CE0CE010D960E94AE2BAE014F5F5F4F9A
:1052C000BE01695F7F4FCE010D960E946C1BCE011F
:1052D0000D960E94EC2ACE0107960E94EC2ACE0180
:1052E00001960E94EC2A62960FB6F894DEBF0FBEBC
:1052F000CDBFDF91CF9108950895CF92DF92EF92C5
:10530000FF920F931F93CF93DF936C017A018B0170
:10531000C0E0D0E0CE15DF0589F0D8016D918D0198
:10532000D601ED91FC910190F081E02DC601199517
:10533000892B11F47E0102C02196ECCFC701DF91C9
:10534000CF911F910F91FF90EF90DF90CF90089534
:105350000E9477426115710579F0FB0101900020F0
:10536000E9F73197AF01461B570BDC01ED91FC913A
:105370000280F381E02D199480E090E008950F936E
:105380001F93CF93DF93EC0188819981009729F0D7
:105390002A813B812617370788F48B016F5F7F4F87
:1053A0000E948E41009761F0998388831B830A8352
:1053B0002C813D81232B11F4FC01108281E001C07E
:1053C00080E0DF91CF911F910F91089584EB97E0DA
:1053D0000E94541F21E0892B09F420E0822F0895B8
:1053E00081E598E00E94541F21E0892B09F420E018
:1053F000822F0895EF92FF920F931F93CF93DF9325
:105400006115710511F480E01EC08B01EC01CB0128
:105410000E94B4450097B1F02C813D817C01E20EE1
:10542000F31EB701CE010E94BF29882361F32881B2
:1054300039818C819D81B801820F931F0E94AD45F7
:10544000FD82EC8281E0DF91CF911F910F91FF905F
:10545000EF900895EF92FF920F931F93CF93DF93F6
:10546000FC01248135816115710511F480E019C0BA
:1054700041155105A9F07B01EC018A01020F131FB0
:10548000B8010E94BF29882389F3288139818C8142
:105490009D81B701820F931F0E948E421D830C8352
:1054A00081E0DF91CF911F910F91FF90EF900895D0
:1054B000FB0144815581608171810C942A2ACF932C
:1054C000DF93EC0188819981009711F00E94F640EA
:1054D000198218821D821C821B821A82DF91CF9151
:1054E0000895CF93DF93EC016115710561F0FB0125
:1054F00001900020E9F73197AF01461B570B0E943E
:105500002A2A811103C0CE010E945F2ACE01DF91B9
:10551000CF910895CF93DF93EC01FB014481558136
:10552000608171810E942A2A811103C0CE010E94EC
:105530005F2ACE01DF91CF910895EF92FF920F93F2
:105540001F93CF93DF93EC017B018A01BA010E9484
:10555000BF29811104C0CE010E945F2A07C01D83AC
:105560000C83B701888199810E948E42CE01DF9120
:10557000CF911F910F91FF90EF900895CF93DF93FC
:10558000EC016115710559F0FB0101900020E9F76C
:105590003197AF01461B570B0E949D2A02C00E9403
:1055A0005F2ACE01DF91CF910895CF93DF93EC0175
:1055B000FB018617970761F06081718161157105A4
:1055C00029F0448155810E949D2A02C00E945F2AD1
:1055D000CE01DF91CF910895FC01808191810C94DF
:1055E000F6400F931F93CF93DF93CDB7DEB761974C
:1055F0000FB6F894DEBF0FBECDBF8C01CB01F80112
:1056000011821082138212821582148250E0BE0130
:105610006F5F7F4F0E94E845BE016F5F7F4FC801FB
:105620000E94BE2A61960FB6F894DEBF0FBECDBFB2
:10563000DF91CF911F910F9108950F931F93CF93F7
:10564000DF93CDB7DEB762970FB6F894DEBF0FBE1B
:10565000CDBF8C01CB01F80111821082138212821E
:105660001582148250E0BE016F5F7F4F0E94BD45DE
:10567000BE016F5F7F4FC8010E94BE2A62960FB6BF
:10568000F894DEBF0FBECDBFDF91CF911F910F9178
:1056900008950F931F93CF93DF93CDB7DEB729976C
:1056A0000FB6F894DEBF0FBECDBF8C01862FF80178
:1056B00011821082138212821582148250E0BE0180
:1056C0006F5F7F4F90E00E94E845BE016F5F7F4FA4
:1056D000C8010E94BE2A29960FB6F894DEBF0FBEFD
:1056E000CDBFDF91CF911F910F910895EF92FF925F
:1056F0000F931F93CF93DF93EC01198218821B82C3
:105700001A821D821C826115710509F18B01CB0182
:105710000E94B4457C01BC01CE010E94BF298111C9
:1057200009C0CE01DF91CF911F910F91FF90EF90B3
:105730000C945F2AFD82EC82B80188819981DF9107
:10574000CF911F910F91FF90EF900C94AD45DF9199
:10575000CF911F910F91FF90EF900895FC0111825E
:10576000108213821282158214820C94D52AFC01B5
:1057700011821082138212821582148261157105C2
:1057800051F0FB0101900020E9F73197AF01461B72
:10579000570B0C949D2A08950F931F93CF93DF937B
:1057A000EC010E94AA298C0164EE75E0CE010E94F2
:1057B000AA29800F911FDF91CF911F910F9108951A
:1057C0000F931F93CF93DF93EC01E881F981DB0105
:1057D00014964D915C9115976D917C910280F381A7
:1057E000E02D19958C0164EE75E0CE010E94AA2986
:1057F000800F911FDF91CF911F910F9108951F92FC
:105800000F920FB60F9211240BB60F922F933F9366
:105810004F935F936F937F938F939F93AF93BF93B8
:10582000EF93FF9384EB97E00E94B322FF91EF91F7
:10583000BF91AF919F918F917F916F915F914F91A8
:105840003F912F910F900BBE0F900FBE0F901F90A6
:1058500018951F920F920FB60F9211240BB60F924C
:105860002F933F934F935F936F937F938F939F9368
:10587000AF93BF93EF93FF9381E598E00E94B3222B
:10588000FF91EF91BF91AF919F918F917F916F9118
:105890005F914F913F912F910F900BBE0F900FBED4
:1058A0000F901F901895FC01A089B1898C91A68951
:1058B000B78982FD0FC09C91818D8F5F8F73228D80
:1058C000821749F0218DDF01A20FB11D5D969C93D7
:1058D000818F08958C9108951F920F920FB60F92A9
:1058E00011240BB60F922F933F934F935F936F93B7
:1058F0007F938F939F93AF93BF93EF93FF9384EB2B
:1059000097E00E94532CFF91EF91BF91AF919F912F
:105910008F917F916F915F914F913F912F910F9058
:105920000BBE0F900FBE0F901F9018951F920F92F5
:105930000FB60F9211240BB60F922F933F934F93F4
:105940005F936F937F938F939F93AF93BF93EF93E7
:10595000FF9381E598E00E94532CFF91EF91BF9156
:10596000AF919F918F917F916F915F914F913F91F7
:105970002F910F900BBE0F900FBE0F901F90189598
:10598000CF93DF9300D000D0CDB7DEB7BC01CE01FE
:1059900001960E94AE2BBE016F5F7F4F8FEF9CE0A0
:1059A0000E94C720CE0101960E94EC2A26960FB6CF
:1059B000F894DEBF0FBECDBFDF91CF9108953FB702
:1059C000F8948091660D9091670DA091680DB0914B
:1059D000690D26B5A89B05C02F3F19F00196A11DA2
:1059E000B11D3FBFBA2FA92F982F8827820F911D75
:1059F000A11DB11DBC01CD0142E0660F771F881FBC
:105A0000991F4A95D1F708958F929F92AF92BF92B6
:105A1000CF92DF92EF92FF926B017C010E94DF2C0C
:105A20004B015C01C114D104E104F104F1F00E94C6
:105A3000DF2CDC01CB0188199909AA09BB09883E32
:105A40009340A105B10570F321E0C21AD108E10825
:105A5000F10888EE880E83E0981EA11CB11CC114C9
:105A6000D104E104F10419F7DDCFFF90EF90DF904E
:105A7000CF90BF90AF909F908F9008952FB7F894DC
:105A80006091620D7091630D8091640D9091650D30
:105A90002FBF08951F920F920FB60F9211242F93CC
:105AA0003F938F939F93AF93BF938091620D90919B
:105AB000630DA091640DB091650D3091610D23E0EF
:105AC000230F2D3720F40196A11DB11D05C026E836
:105AD000230F0296A11DB11D2093610D8093620DCD
