:100000000C94B4030C94E5030C94E5030C94E50301
:100010000C94E5030C94E5030C94E5030C94E503C0
:100020000C94E5030C94E5030C94E5030C94E503B0
:100030000C94E5030C94E5030C94E5030C94E503A0
:100040000C94E5030C94E5030C94E5030C94E50390
:100050000C942D260C94E5030C94E5030C94C22B10
:100060000C94E5030C940E2B0C94A12A0C94E5033C
:100070000C94E5030C94E5030C94E5030C94E50360
:100080000C94E5030C94E5030C94E5030C94E50350
:100090000C94E5030C94E5030C94E5030C94E50340
:1000A0000C94E5030C94E5030C94E5030C94E50330
:1000B0000C94E5030C94E5030C94E5030C94E50320
:1000C0000C94E5030C94E5030C94E5030C94422492
:1000D0000C9479260C94E5030C94E42A0C94772A6A
:1000E0000C94E5032F04320435043E044104440417
:1000F00047044A047E048104840487048A048D042E
:1001000090049904A204AB04AE04B104481C481C3A
:10011000551C551C551C621C621C6F1CDF20E22004
:10012000D120D520DB201921E620EA20F020F42080
:10013000F820FE200221062119210C211021142172
:100140000C9432040C94EA200C942F040C946F1C31
:100150000C94E2200C9499040C945B200C948A0477
:100160000C94E6200C94551C0C94E7030C94F4209A
:100170000C94F8200C9444040C947D200C9490046E
:100180000C94481C0C940C210C9435040C94022102
:100190000C94621C0C9419210C943E040C94810460
:1001A0000C94F0200C94D1200C947E040C94FE202E
:1001B0000C94F5270C94EA260C948D040C941021D1
:1001C0000C94AB040C94DF200C9414210C94D520D7
:1001D0000C94B1040C9487040C94AE040C94840425
:1001E0000C9406210C94A3260C9447040C944A0406
:1001F0000C94A2040C94BE3D0C946F200C94DB2054
:100200000C9401390C9441044C45442043757020F2
:1002100048616E646C65202D204F46460072656112
:1002200064206565702E2063757020737461636B44
:10023000657220706F732E203D20004F4B00437578
:100240007020737461636B6572203E3E204F4B00DB
:10025000454D5054590043757020737461636B654C
:1002600072203E3E20456D707479004F4646004F27
:100270004E004F4B00504F574552204F4E00232306
:1002800023206D696E69436F66666565204861630A
:100290006B20762E333031203E3E205374617274D1
:1002A0002E2E007772697465206565702E20697442
:1002B000656D5F70726963655B004F726465722083
:1002C0004E6F2E2069732057726F6E6720212100B8
:1002D0006D616B655369676E616C546F436F696ED6
:1002E000203E3E20556E7375636365737320212134
:1002F000004F72646572205061796F7574203E3EC4
:10030000204F4B004F72646572205061796F757495
:10031000203E3E2054696D656F7574002000554E77
:1003200053554343455353005472616E7361637474
:10033000696F6E203E3E20554E53554343455353FF
:10034000200053554343455353005472616E73610B
:100350006374696F6E203E3E2053554343455353AB
:100360002000454D505459004375702073746163EB
:100370006B6572203E3E20456D707479004F4B00D6
:1003800043757020737461636B6572203E3E204F2D
:100390004B004F4E00426F696C6572203E3E20500C
:1003A0006F776572204F4E004F464600426F696C72
:1003B0006572203E3E20506F776572204F464600A2
:1003C0004C4F57005761746572204C6576656C2000
:1003D0003E3E204C4F57004F4B00576174657220D2
:1003E0004C6576656C203E3E204F4B004F464600E4
:1003F00050756D70203E3E20436C6F736500455212
:10040000524F520050756D70203E3E204572726F03
:1004100072004F4E0050756D70203E3E204F70654B
:100420006E007772697465206565702E2063757043
:1004300020737461636B657220706F732E203D2092
:100440000072656164206565702E206974656D5F5A
:1004500070726963655B00300030300045004F4BBF
:10046000004F50454E00434C4F5345005365742098
:1004700050756D702031202D204F4E005365742033
:1004800050756D702031202D204F464600736574E5
:100490004C45444974656D53656C6563745077725F
:1004A000203E3E204E6F7420666F756E64202121C1
:1004B0000064617461203E3E20656D707479212175
:1004C00000436865636B20436C6F7564426F7820EE
:1004D0005265616479203F00436865636B20436C1B
:1004E0006F7564426F7820436F6E6E656374696FD9
:1004F0006E203F00526573657420436F6D706F729C
:1005000074212100526573706F6E73652054696D9C
:10051000656F757421210053746174652072657470
:1005200075726E2054696D656F75742121000043EA
:100530006C6F7564426F782052657475726E203EE0
:100540003E2052455345540000436C6F7564426F22
:10055000782052657475726E203E3E204552524F8F
:10056000520000436C6F7564426F78205265747559
:10057000726E203C3C20425553590000436C6F750D
:1005800064426F782052657475726E203C3C205234
:10059000656164790000436C6F7564426F78205226
:1005A000657475726E203C3C204F4B0052454144AF
:1005B00059004E4F54205245414459004E4F54204B
:1005C0005245414459004E4F542052454144590030
:1005D0004E4F54205245414459004E4F54205245ED
:1005E000414459004E4F54205245414459004C4516
:1005F00044204375702048616E646C65202D204F47
:100600004E00434C4F5544424F58002D002D002DB5
:10061000002D002D002D002D002D002D002D002D72
:10062000002D002D003D003A0043422B534554401D
:100630000023000043422B555000230000000021FE
:1006400000240027002A002D0030003300010100A3
:1006500000040107010A0100002200250028002BE8
:10066000002E003100340002010000050108010BDA
:1006700001000020002300260029002C002F00325A
:100680000000010000030106010901050505050739
:100690000508080808020202020A0A0808040404FD
:1006A0000401010101010101010303030303030329
:1006B00003040707070C0C0C0C0C0C0C0C020202B8
:1006C0000206060606060606060B0B0B0B0B0B0BAB
:1006D0000B0102102020080810204010204080024A
:1006E0000102010804020101020408102040808078
:1006F00040201008040201800402018040201008FC
:1007000004020108040201010204081020408001D3
:100710000204081020408000000A0B02090C0D0E94
:1007200008070304010000000000000000000000B2
:1007300000000000000000000000000000000000B9
:100740000000001211100000000000000000000076
:100750000000000000000000000000000030000069
:100760003A003A000139BE3D11241FBECFEFD1E25D
:10077000DEBFCDBF00E00CBF16E0A0E0B2E0E8E6CF
:10078000FBE800E00BBF02C007900D92A233B10757
:10079000D9F72CE0A2E3B6E001C01D92A83FB20752
:1007A000E1F713E0C3EBD3E000E006C021970109B5
:1007B000802FFE010E949E3EC23BD10780E00807C9
:1007C000A9F70E940C2C0C94A2450C940000CF9326
:1007D00080910802833009F4E3C034F4813059F089
:1007E000823009F470C082C1843009F4F2C08530CF
:1007F00009F446C17BC12091490680916106909120
:100800006206222389F02091470630914806281776
:10081000390728F0A901481B590BCA0102C080E022
:1008200090E0CF910C941E160097D9F78091810C1F
:100830009091820C01979093820C8093810C892B6C
:1008400009F054C18091790C90E08830910550F501
:10085000FC018827EE58FF4F8F4F0C949E3E8BEF84
:1008600090E005C087EF90E017C08FEE90E0909386
:10087000800C80937F0C0E944B1714C08DEF90E08A
:100880000BC08DEF90E0F3CF8FEE90E005C087EFC7
:1008900090E0EDCF8BEF90E09093800C80937F0CF5
:1008A0000E9455178091790C8F5F883018F48093DF
:1008B000790C02C01092790C86E990E09093820C3A
:1008C0008093810C13C18091830C9091840C0197CB
:1008D0009093840C8093830C892B09F007C190912D
:1008E0007C0C492F50E04C30510508F046C0FA010D
:1008F0008827E658FF4F8F4F0C949E3E2EEF30E036
:1009000032C02EEF30E020C02EEF30E014C02EEFCA
:1009100030E008C02BEF30E005C02FEE30E002C021
:100920002FEB30E030937E0C20937D0C2DEF30E0E8
:1009300020C02FEB30E030937E0C20937D0C2FEE07
:1009400030E017C02FEB30E030937E0C20937D0C0D
:1009500027EF30E00EC02FEB30E005C02FE730E08E
:1009600002C02DEF30E030937E0C20937D0C2BEFF6
:1009700030E03093800C20937F0C24E130E0309302
:10098000840C2093830C9F5F9C3018F490937C0C14
:1009900002C010927C0C8DE79CE0CF910C94D9158D
:1009A000C0918406C13059F008F474C0C23061F0BF
:1009B000C33011F56DEF70E08BE590E01BC067EF81
:1009C00070E082EC90E016C06FEE70E087ED90E092
:1009D00011C080915D0C882309F44DC0082E000CD5
:1009E000990BC0918406C130A9F078F46BEF70E0E8
:1009F0008BEC90E00E943D17CF5FC0938406C4301B
:100A000008F474C01092840671C0C23041F0C33043
:100A1000E1F0F2CF67EF70E083EE90E0EBCF8F3F35
:100A20005FEF950709F440C0843691051CF06FEE26
:100A300070E017C08A309105BCF16AE070E00E9456
:100A4000683ECB016FEE70E033C08F3F2FEF92070F
:100A500019F46DEF70E02AC0843691052CF06DEF2B
:100A600070E089E090E024C06AE070E00E94683E97
:100A70006DEF70E01DC0809160068093080236C063
:100A8000C0918406C13059F028F0C23069F0C330FB
:100A900091F0B2CF6BEF70E083EC90E0ABCF67EFFB
:100AA00070E088E090E0A6CF6FEE70E080E090E02C
:100AB0000E942D17A1CF8091050283FD05C06DEF27
:100AC00070E081E090E0F4CF82FD05C06DEF70E052
:100AD00082E090E0EDCF84FD05C06DEF70E083E033
:100AE00090E0E6CF81E08093080286CFCF91089511
:100AF00083E00E940C2721E0892B09F020E0822F5F
:100B00000895CF93DF9300D000D0CDB7DEB7FC01BE
:100B1000E65CF94F2081261360838230910539F01D
:100B20008330910531F0019741F484E303C083E3FE
:100B300001C08FE20E9435270EC06DE874E0CE013F
:100B400001960E94EE29CE0101960E94382BCE011B
:100B500001960E94642926960FB6F894DEBF0FBE58
:100B6000CDBFDF91CF91089560E081E090E00E94D9
:100B7000810560E082E090E00E94810560E083E012
:100B800090E00C9481050F931F93CF93DF938C011A
:100B9000C1E0D0E0C017D10711F461E001C060E00E
:100BA000CE010E9481052196C430D10599F7DF91CD
:100BB000CF911F910F910895E1E8F0E0908180912D
:100BC0007A08892B8083089510920802E1E8F0E00A
:100BD0008081887F80830895CF92DF92EF92FF9289
:100BE0000F931F936B017C010E94B62B009142066C
:100BF0001091430620914406309145066017710715
:100C00008207930750F40E94B62B609342067093BC
:100C1000430680934406909345060E94B62B0091AC
:100C20004206109143062091440630914506AB01DF
:100C3000BC01401B510B620B730B81E0C416D5063F
:100C4000E606F70608F080E01F910F91FF90EF9005
:100C5000DF90CF900895EEE4F6E0118212821382C5
:100C60001092490610925A061092480610924706B2
:100C7000ECE6FCE0158686E990E0968B858B108A81
:100C800084E190E0908F878B08951F93CF93DF933B
:100C900000D000D0CDB7DEB7182F8CE20E940C2711
:100CA00021E0892B09F420E0121721F1112381F0B2
:100CB0006CE674E0CE0101960E94EE29CE01019609
:100CC0000E94382BCE0101960E94642961E00FC07A
:100CD0006CE774E0CE0101960E94EE29CE010196E8
:100CE0000E94382BCE0101960E94642960E08CE2BC
:100CF0000E94352726960FB6F894DEBF0FBECDBFF3
:100D0000DF91CF911F9108958F929F92AF92BF92E2
:100D1000EF92FF921F93CF93DF9300D000D0CDB717
:100D2000DEB780E30E940C2711E0892B09F410E064
:100D300080918306181761F00E94B62B60937F069E
:100D400070938006809381069093820610938306A9
:100D50000E94B62B80907F0690908006A09081061E
:100D6000B0908206DC01CB0188199909AA09BB0958
:100D7000893E9340A105B10558F40E94B62B681531
:100D800079058A059B0520F080910C02882389F162
:100D90002091050230910602812F90E021FBEE2484
:100DA000E0F8F12C8E159F0521F480910C02882328
:100DB00001F1112311F0226001C02D7F3093060252
:100DC000209305028091050281FF03C066E674E06E
:100DD00002C061E674E0CE0101960E94EE29CE01C8
:100DE00001960E94FC1BCE0101960E94642910927C
:100DF0000C02812F26960FB6F894DEBF0FBECDBF32
:100E0000DF91CF911F91FF90EF90BF90AF909F9097
:100E10008F9008951F93CF93DF93CDB7DEB7689778
:100E20000FB6F894DEBF0FBECDBF10915D0C11114F
:100E300018C06EE574E0CE0101960E94EE29CE0145
:100E400001960E94C21BCE0101960E9464298091E6
:100E5000050290910602806290930602809305023B
:100E60007EC06CE574E0CE0101960E94EE291F3F22
:100E700029F5BE016F5F7F4FCE0107960E94262A9B
:100E800069E574E0CE0107960E947228811104C0C2
:100E9000CE0107960E94D728BE01695F7F4FCE0121
:100EA0000D960E94262ACE010D960E94C21BCE01ED
:100EB0000D960E946429CE01079642C0612F012E33
:100EC000000C770B4AE0CE010D961A30B4F40E9464
:100ED0009529BE016F5F7F4FCE0107960E94262A9B
:100EE00067E574E0CE0107960E94722881110EC05A
:100EF000CE0107960E94D72809C00E949529BE01FD
:100F00006F5F7F4FCE0107960E94262ABE01635F66
:100F10007F4FCE0107960E940229BC01CE01439665
:100F20000E94262ACE0143960E94C21BCE01439600
:100F30000E946429CE0107960E946429CE010D9675
:100F40000E94642980910502909106028F7D909302
:100F5000060280930502CE0101960E9464296896DC
:100F60000FB6F894DEBF0FBECDBFDF91CF911F91BA
:100F700008955F926F927F928F929F92AF92BF92ED
:100F8000CF92DF92EF92FF920F931F93CF93DF9355
:100F9000CDB7DEB7A0970FB6F894DEBF0FBECDBFBA
:100FA00066246394712C552453948E010F5F1F4F58
:100FB00096E4E92E93E0F92E22E3C22E23E0D22E0E
:100FC00082E0681629F093E0691621F082E303C0FD
:100FD00085E301C081E30E940C2721E0892B09F4FD
:100FE00020E0F301E65BF94F4F012083C301825CEF
:100FF000994F5C01FC0180818217E9F0211109C041
:10100000F301E25BF94F50827F926F92DF92CF92B1
:1010100004C07F926F92FF92EF921F930F930E94F2
:1010200023410F900F900F900F900F900F90F401AD
:101030008081F5018083FFEF6F1A7F0A84E06816D4
:10104000710409F0BDCFA0960FB6F894DEBF0FBEB5
:10105000CDBFDF91CF911F910F91FF90EF90DF9067
:10106000CF90BF90AF909F908F907F906F905F9048
:101070000895CF93DF93CDB7DEB768970FB6F89496
:10108000DEBF0FBECDBF62E274E0CE0101960E94CA
:10109000EE2960915F0680E190E00E9494456AE04D
:1010A00070E080E090E00E947C2B60915F06062E4D
:1010B000000C770B4AE0CE010D960E949529BE01E7
:1010C0006F5F7F4FCE0107960E94262ABE01635FA5
:1010D0007F4FCE0107960E940229BC01CE014396A4
:1010E0000E94262ACE0143960E94382BCE014396B9
:1010F0000E946429CE0107960E946429CE010D96B4
:101100000E946429CE0101960E94642968960FB658
:10111000F894DEBF0FBECDBFDF91CF910895E2E519
:10112000F6E082819381883E934010F01382128210
:10113000329686E0E835F807A1F708958F929F92DE
:10114000AF92BF92CF92DF92EF92FF921F93CF9315
:10115000DF93CDB7DEB762970FB6F894DEBF0FBE50
:10116000CDBF84E5A82E86E0B82E9CE5E92E96E05A
:10117000F92E11E02AE0C22ED12CC6010E948C4526
:10118000982EC60101960E948C45292D30E0A901B8
:10119000582BCA014501F501518340832091050276
:1011A00030910602F701892BD9F480818068808311
:1011B000123039F0133071F02F7B309306022093F8
:1011C000050280910502909106029E7F909306028F
:1011D0008093050280910502909106029B7F1AC0C0
:1011E00080818F778083123039F0133071F0206462
:1011F0003093060220930502809105029091060229
:10120000916090930602809305028091050290916F
:101210000602946090930602809305020E948F0854
:1012200061E474E0CE010D960E94EE294AE0612F40
:10123000CE0107960E94C129BE01695F7F4FCE0192
:1012400001960E94262A6CE472E0CE0101960E946B
:10125000E928BC01CE010D960E94D028CE0101964E
:101260000E946429CE0107960E946429F2E0AF0E25
:10127000B11CF401608171814AE0CE0101960E94A7
:101280006929BE016F5F7F4FCE010D960E94D02865
:10129000CE0101960E946429BE01635F7F4FCE019B
:1012A00001960E94262ACE0101960E94382BCE017B
:1012B00001960E946429CE010D960E946429F2E0F5
:1012C000CF0ED11C1F5F4FEFE41AF40A143009F05F
:1012D00054CF62960FB6F894DEBF0FBECDBFDF913C
:1012E000CF911F91FF90EF90DF90CF90BF90AF9084
:1012F0009F908F90089585E30E940C2721E0892B11
:1013000009F420E0822F0895CF92DF92EF92FF92AE
:10131000CF93DF9300D000D0CDB7DEB78091050228
:1013200084FD34C08CE20E940C27892B79F58091D2
:101330000B02882359F181E00E94450665E174E0C3
:10134000CE0101960E94EE29CE0101960E94382B13
:10135000CE0101960E94642962E174E0CE010196FB
:101360000E94EE2961E0CE0101960E941F1BCE0172
:1013700001960E9464290E94B62B60937B067093AD
:101380007C0680937D0690937E0682C08CE20E944C
:101390000C27892B09F47CC08091050284FD39C09B
:1013A0000E94B62BC0907B06D0907C06E0907D0614
:1013B000F0907E06DC01CB018C199D09AE09BF09B6
:1013C00081349C49A105B10508F462C080E00E9407
:1013D000450664E074E0CE0101960E94EE29CE013C
:1013E00001960E94382BCE0101960E9464296EEF6F
:1013F00073E0CE0101960E94EE2961E0CE010196D4
:101400000E941F1BCE0101960E94642910920B02BC
:101410003FC00E94B62BC0907B06D0907C06E09027
:101420007D06F0907E06DC01CB018C199D09AE098A
:10143000BF0981349C49A105B10538F40E94B62B3F
:101440006C157D058E059F0518F580E00E94450608
:1014500060EF73E0CE0101960E94EE29CE01019665
:101460000E94382BCE0101960E9464296CEE73E035
:10147000CE0101960E94EE2961E0CE0101960E9404
:101480001F1BCE0101960E94642981E080930B020C
:1014900026960FB6F894DEBF0FBECDBFDF91CF9179
:1014A000FF90EF90DF90CF900895CF92DF92EF9270
:1014B000FF921F93CF93DF93C82F0E94B62B6B012F
:1014C0007C0110E0D0E00E9484090E94B50CCE019E
:1014D0000E9474130E94B62B6C157D058E059F0526
:1014E00020F40E94B62B6B017C010E94B62BDC011C
:1014F000CB018C199D09AE09BF09893C9105A10555
:10150000B10558F48FE10E940C27892BE1F20E946B
:10151000B62B6B017C0111E0D6CF812FDF91CF91EB
:101520001F91FF90EF90DF90CF9008950F931F933E
:10153000CF93DF9300D000D0CDB7DEB78DE10E940E
:101540000C272091050230910602892B11F02061B1
:1015500001C02F7E309306022093050220910502E0
:1015600080917A0690E024FB002700F910E08017B4
:10157000910729F480910A02882309F44AC024FFC4
:101580001DC06AED73E0CE0101960E94EE29CE01E6
:1015900001960E94382BCE0101960E94642967EDC6
:1015A00073E0CE0101960E94EE29CE0101960E94C1
:1015B000EE1ECE0101960E94642923C064EC73E004
:1015C000CE0101960E94EE29CE0101960E94382B91
:1015D000CE0101960E94642960EC73E0CE01019671
:1015E0000E94EE29CE0101960E94EE1ECE010196C8
:1015F0000E946429809108028093600685E08093B0
:101600000802809105028295817080937A0610927B
:101610000A0226960FB6F894DEBF0FBECDBFDF914B
:10162000CF911F910F9108950F931F9385E20E9410
:101630000C27892B61F40E94B62B609332067093BD
:101640003306809334069093350681E027C00E94CC
:10165000B62B00913206109133062091340630915A
:101660003506DC01CB01801B910BA20BB30B853F30
:101670009140A105B10588F40E94B62B0091320675
:1016800010913306209134063091350660177107AA
:101690008207930710F08FEF01C080E01F910F9138
:1016A00008950F931F93CF93DF9300D000D0CDB751
:1016B000DEB70E94140B20910502309106028111C1
:1016C00002C0286003C0813029F4277F30930602CE
:1016D00020930502209105028091790690E023FB7A
:1016E000002700F910E08017910729F48091090282
:1016F000882309F44BC023FF1DC06CEA73E0CE01C0
:1017000001960E94EE29CE0101960E94382BCE014F
:1017100001960E94642968EA73E0CE0101960E9456
:10172000EE29CE0101960E94B41ECE0101960E94C0
:10173000642923C065E973E0CE0101960E94EE2979
:10174000CE0101960E94382BCE0101960E94642999
:1017500062E973E0CE0101960E94EE29CE01019666
:101760000E94B41ECE0101960E9464298091080255
:101770008093600685E0809308028091050283FBD8
:10178000882780F9809379061092090226960FB671
:10179000F894DEBF0FBECDBFDF91CF911F910F91A7
:1017A000089561E085E00C943527CF92DF92EF92A7
:1017B000FF920F931F93CF93DF93CDB7DEB762975E
:1017C0000FB6F894DEBF0FBECDBF0E947805811121
:1017D00006C061E086E00E943527F12C06C060E07B
:1017E00086E00E943527FF24F39460E085E00E94A4
:1017F00035270E94512100E010E0EE24E3948BE9AC
:10180000C82E8FE0D82E0E94840983E20E940C2704
:10181000892B69F066E173E0CE0101960E942F2AC0
:10182000CE0101960E94382BCE01019657C061E08F
:1018300087E00E943527C6010197F1F760E087E055
:101840000E943527C6010197F1F70E947805882389
:1018500011F0E11031C0FF2009F47CC00E9478052E
:10186000811176C081E080935F064AE0B801CE0125
:1018700007960E94692960E773E0CE0101960E94F5
:101880002F2ABE01695F7F4FCE0101960E94022977
:10189000BC01CE010D960E94262ACE010D960E9413
:1018A000382BCE010D960E946429CE0101960E942C
:1018B0006429CE01079612C00E94D10B6CE271E040
:1018C00080E090E00E947C2B60E086E00E9435275B
:1018D00060E085E00E943527E12CC0CF0E9464299A
:1018E0000E94D10B0E94390860915F06633681F433
:1018F0006CE573E0CE0101960E942F2ACE0101967D
:101900000E94382BCE0101960E94642960915F06E7
:10191000062E000C770B4AE0CE0101960E94952915
:1019200061E0CE0101960E94281FCE0101960E941F
:10193000642962960FB6F894DEBF0FBECDBFDF916B
:10194000CF911F910F91FF90EF90DF90CF9008956E
:10195000FF24F3940F5F1F4F093883E1180709F044
:1019600052CF83E680935F06BBCFCF92DF92EF9298
:10197000FF920F931F93CF93DF93CDB7DEB762979C
:101980000FB6F894DEBF0FBECDBF90919D08809139
:101990009E08992309F459C08F3FB1F40E94E021B9
:1019A000882309F4A4C167E175E0CE0101960E9485
:1019B000EE29CE0101960E945F17CE0101960E948A
:1019C000642910929D0893C10E94E021882309F4A4
:1019D0008EC110929D0864E075E0CE0101960E94D0
:1019E000EE29CE0101960E945F17CE0101960E945A
:1019F000642980919F088F5F80939F088B3008F443
:101A00005EC064EF74E0CE0101960E94EE29CE0123
:101A100001960E945F17CE0101960E94642940E062
:101A200052EC61E070E080919B0890919C080E94CC
:101A3000792180919B0890919C08DC01ED91FC91AB
:101A40000284F385E02D19953AC08430E1F568E70A
:101A500073E0CE0101960E942F2ACE0101960E94CA
:101A60005F17CE0101960E94642963E375E08091BF
:101A70009B0890919C080E94442A80919B08909119
:101A80009C08DC01ED91FC910284F385E02D199511
:101A900064E670E080E090E00E947C2B61E088E0EA
:101AA0000E9435270E94B62B6093A4087093A50866
:101AB0008093A6089093A70881E080939D088FEFFC
:101AC00080939E0814C18F3FA9F567E873E086EB09
:101AD0009BE00E94362968ED74E0CE0101960E94D9
:101AE000EE29CE0101960E945F17CE0101960E9459
:101AF000642940E052EC61E070E080919B08909195
:101B00009C080E94792167E873E080919B0890917E
:101B10009C080E94442A80919B0890919C08DC01BB
:101B2000ED91FC910284F385E02D199581E080937D
:101B30009D08B2C4823039F10E94B62B0091AC08E6
:101B40001091AD082091AE083091AF08DC01CB01B7
:101B5000801B910BA20BB30B89389341A105B105F2
:101B600008F066C40E94B62B0091AC081091AD0835
:101B70002091AE083091AF08601771078207930774
:101B800008F456C4B4C08091A0089091A108209197
:101B9000A2083091A308821B930B8F779927892B7A
:101BA00009F47FC08091A2089091A30816E0189FC5
:101BB000F001199FF00D1124E055F74F84819581B4
:101BC000892B09F45AC08091A2089091A308189F0C
:101BD000B001199F700D11246055774F80919B08BB
:101BE00090919C080E94582A80919B0890919C0893
:101BF000DC01ED91FC910284F385E02D1995E090D4
:101C0000A208F090A30860E973E0CE0101960E945B
:101C10002F2A1E9DB0011F9D700D11246055774F16
:101C2000CE0101960E940229BC01CE0107960E94B6
:101C3000262ACE0107960E945F17CE0107960E94C2
:101C40006429CE0101960E94642981E080939D0859
:101C50000E94B62B6093A4087093A5088093A608F1
:101C60009093A7080E94B62B6093A8087093A908C8
:101C70008093AA089093AB080EC061EB74E0CE018C
:101C800001960E94EE29CE0101960E945F17CE01B7
:101C900001960E94642968E973E086EB9BE00E944C
:101CA00036290E94B62B0091A8081091A90820910E
:101CB000AA083091AB08DC01CB01801B910BA20B71
:101CC000B30B89389341A105B10508F0F0C30E9418
:101CD000B62B0091A8081091A9082091AA0830916C
:101CE000AB08601771078207930708F4E0C380917F
:101CF0009B0890919C08DC01ED91FC910480F5819A
:101D0000E02D1995892B09F478C180919B08909159
:101D10009C08DC01ED91FC910680F781E02D19957E
:101D2000182F89831A8241E050E0BE016F5F7F4F18
:101D300080EB9BE00E94A22810929F081D3009F0C2
:101D40005CC16DE973E0CE0107960E942F2A60EB1B
:101D50007BE0CE0107960E940229BC01CE010196CC
:101D60000E94262ACE0101960E945F17CE0101969D
:101D70000E946429CE0107960E9464298091BA0BC3
:101D80009091BB0B892B79F168E973E08091B60BD8
:101D90009091B70B0E94F940892B29F58091B00BE7
:101DA0009091B10B009719F00E94FA4303C060E0D4
:101DB00070E0CB012091A2083091A308890120E0B6
:101DC00030E0601771078207930709F010C1809116
:101DD000A2089091A30801968F7799279093A30862
:101DE0008093A20802C163E375E0CE0101960E94D0
:101DF0002F2ACE0101960E945D218C01CE01019611
:101E00000E9464290F3F1F4F79F166E975E0CE010A
:101E100001960E94EE29CE0101960E945F17CE0125
:101E200001960E94642965E975E0CE0101960E9441
:101E3000EE29CE0101960E945F17CE0101960E9405
:101E400064298091BA0B9091BB0B892B09F4CDC00A
:101E500067E873E08091B60B9091B70B0E94F94050
:101E6000892B09F48FC0C1C06BE074E0CE010196EC
:101E70000E942F2ACE0101960E945D218C01CE0185
:101E800001960E9464290F3F1F4FF1F06CE775E047
:101E9000CE0101960E94EE29CE0101960E945F17A5
:101EA000CE0101960E9464296BE775E0CE01019690
:101EB0000E94EE29CE0101960E945F17CE01019685
:101EC0000E94642982E08FC066EA73E0CE01019629
:101ED0000E942F2ACE0101960E945D218C01CE0125
:101EE00001960E9464290F3F1F4FF1F063E675E0F1
:101EF000CE0101960E94EE29CE0101960E945F1745
:101F0000CE0101960E94642962E675E0CE01019639
:101F10000E94EE29CE0101960E945F17CE01019624
:101F20000E94642983E05FC06BEA72E0CE010196F3
:101F30000E942F2ACE0101960E945D218C01CE01C4
:101F400001960E9464290F3F1F4FF1F069E475E08C
:101F5000CE0101960E94EE29CE0101960E945F17E4
:101F6000CE0101960E94642968E475E0CE010196D5
:101F70000E94EE29CE0101960E945F17CE010196C4
:101F80000E94642981E02FC06BEA73E0CE010196C4
:101F90000E942F2ACE0101960E945D218C01CE0164
:101FA00001960E9464290F3F1F4F09F16FE275E00F
:101FB000CE0101960E94EE29CE0101960E945F1784
:101FC000CE0101960E9464296EE275E0CE01019671
:101FD0000E94EE29CE0101960E945F17CE01019664
:101FE0000E94642984E080939E0810929D0865ED0C
:101FF00075E080EB9BE00E9436290E9484062091C8
:1020000005023091060280918A0690918B06821714
:10201000930709F461C08091040221FD06C0882362
:1020200009F450C064EE75E01BC025FD06C088238E
:1020300009F448C06AED75E013C0A90140745570F9
:10204000452B29F48823F1F160ED75E009C0A90161
:1020500040785A70452BA1F48823A1F166EC75E015
:10206000CE0101960E94EE2960E0CE0101960E9409
:10207000C318CE0101960E9464291092040222C066
:1020800022FD05C08823F1F06CEB75E0E9CF23FD5C
:1020900005C08823B9F062EB75E0E2CF813091F0A2
:1020A0006CEA75E0CE0101960E94EE2960E0CE0157
:1020B00001960E94C318CE0101960E94642981E016
:1020C000809304020E94FF178091050290910602FE
:1020D00090938B0680938A0687E20E940C27892BB7
:1020E00059F40E94B62B609336067093370680939E
:1020F00038069093390617C00E94B62B0091360619
:10210000109137062091380630913906DC01CB0159
:10211000801B910BA20BB30B813D9740A105B1052C
:1021200010F40E94B62B0E94140B8091460688235F
:1021300029F10E94B62B60938D0670938E068093D2
:102140008F069093900680918C06811115C06EEEDB
:1021500075E0CE0101960E94EE29CE0101960E9403
:10216000382BCE0101960E94642961E08EE20E9424
:10217000352781E080938C061092460680918C066C
:102180008823D9F10E94B62BC0908D06D0908E0680
:10219000E0908F06F0909006DC01CB018C199D0930
:1021A000AE09BF0989389341A105B105A8F068E0DF
:1021B00072E0CE0101960E94EE29CE0101960E94A6
:1021C000382BCE0101960E94642960E08EE20E94C5
:1021D000352710928C0611C00E94B62B6C157D0518
:1021E0008E059F0550F40E94B62B60938D06709368
:1021F0008E0680938F06909390068091A006882388
:1022000021F00E94B9071092A00680919F068823B2
:1022100009F48BC080915D0C811185C08091660CA2
:10222000882309F480C08091630C8F5F8093630CD6
:10223000823008F478C082E090E09093AA0C8093FA
:10224000A90C1092AB0C81E090E09093AD0C8093C0
:10225000AC0C85EE90E09093AF0C8093AE0C88E1CF
:102260008093B80C0E94F21481E08093E40C85E026
:102270000E94B014F82E882309F41AC265ED75E0A7
:10228000CE010D960E942F2A0E94C513E12CD12C5D
:102290000E2D1D2D80919F0C9091A00CDC01ED91D5
:1022A000FC910480F581E02D1995892B09F430C14A
:1022B000003111050CF44AC12BC18091C90C88234F
:1022C00009F4AAC18091C80C281709F4B9C18091FA
:1022D000C90C0E94361C8C018091C80C8093E50CBF
:1022E0000F3F09F4B0C18091580C9091590C800FA8
:1022F000911D07FD9A959093590C8093580C8091ED
:10230000650C882371F063EE73E0CE0101960E94A4
:102310002F2ACE0101960E9464290E944F15109227
:10232000650C1092630C10929F0680919E06882384
:1023300099F08CE00E940C2761E0892B09F060E0A5
:102340008CE00E9435278CE00E940C27682F8DE0DE
:102350000E94352710929E0680919D068111109251
:102360009D060E94B62B6093990670939A068093FF
:102370009B0690939C06C0909506D0909606E090A0
:102380009706F09098068B019C010C191D092E09E7
:102390003F090230110521053105D8F1209194063D
:1023A0002C19260F20939406609395067093960639
:1023B00080939706909398062A3008F486C110926D
:1023C0009406909193069F5F9093930681E080938B
:1023D000A0069A3008F479C1109293069091920663
:1023E0009F5F9093920680939F06953008F46DC18D
:1023F00010929206909191069F5F90939106809320
:102400009E06923008F461C11092910680939D0659
:102410005CC16C157D058E059F0508F056C1609363
:1024200095067093960680939706909398064DC1F3
:1024300068E074E086EB9BE00E94362961EC74E072
:10244000CE0101960E94EE29CE0101960E945F17EF
:10245000CE0101960E94642968E074E080919B0897
:1024600090919C080E94442A80919B0890919C081E
:10247000DC01ED91FC910284F385E02D199581E05A
:1024800080939D080E94B62B6093AC087093AD08B2
:102490008093AE089093AF080E94B62B6093A40877
:1024A0007093A5088093A6089093A70820CC68E0B5
:1024B00074E086EB9BE00E94362968E074E080912E
:1024C0009B0890919C080E94442A80919B089091BF
:1024D0009C08DC01ED91FC910284F385E02D1995B7
:1024E00081E080939D080E94B62B6093A4087093AE
:1024F000A5088093A6089093A7080E94B62B609326
:10250000A8087093A9088093AA089093AB08EFCB12
:10251000E02ED12E0E94D013882361F060EC73E08E
:10252000CE0101960E942F2ACE0101960E946429B5
:10253000F12C04C0003111050CF4AACECE010D9689
:102540000E946429FF2009F4B3C043C080919F0C0E
:102550009091A00CDC01ED91FC910680F781E02DBB
:102560001995E82E4AE0682FCE0101960E94C129F4
:10257000BE016F5F7F4FCE010D960E94D028CE0125
:1025800001960E9464290F301105D1F461EB73E0CC
:10259000CE0101960E942F2ABE01635F7F4FCE01BC
:1025A00001960E940229BC01CE0107960E94262AAC
:1025B000CE0107960E946429CE0101960E946429EB
:1025C000F801E356F34FE7A20F5F1F4F0E94C513B8
:1025D00061CE8091C80C2091E50C90E0821B91099E
:1025E00002970CF46ACEF090C80CF21AEF2DEE0FA1
:1025F00000E010E08EEFE82EEE0EFF2009F46CCE26
:10260000ED5FF0E0E356F34F87A10E94361C080F00
:10261000191FFA94EE2DEECF8091C80C281310C02C
:102620008091CA0C8E3051F48091E70C8F5F8093BB
:10263000E70C853128F01092E70C05C01092E70CEA
:1026400000E010E049CE6091650C6F5F6093650C0F
:102650004AE0CE0107960E94C12968EE73E0CE01E0
:102660000D960E942F2ABE01695F7F4FCE010D9605
:102670000E940229BC01CE0101960E94262ACE01A9
:1026800001960E946429CE010D960E946429CE0114
:1026900007960E9464298091650C8B3008F441CE26
:1026A0000E94981581E08093660C0E94871C37CEAB
:1026B0006091650C6F5F6093650C4AE0CE010796F0
:1026C0000E94C12961E174E0CACF62960FB6F89406
:1026D000DEBF0FBECDBFDF91CF911F910F91FF9055
:1026E000EF90DF90CF9008950F931F93CF93DF93D8
:1026F000EC010E94B62B009186061091870620916E
:10270000880630918906DC01CB01801B910BA20B5E
:10271000B30B8D329140A105B105C8F080918506BB
:10272000811107C0CE010E94C30581E08093850618
:1027300004C00E94B405109285060E94B62B6093D7
:1027400086067093870680938806909389060E9478
:10275000B62B00918606109187062091880630914D
:102760008906601771078207930750F40E94B62B01
:1027700060938606709387068093880690938906F7
:10278000DF91CF911F910F9108950E94B62B609316
:10279000A50C7093A60C8093A70C9093A80C089599
:1027A0000F931F930E94B62B0091A50C1091A60CBD
:1027B0002091A70C3091A80C60177107820793072E
:1027C00010F40E94C5130E94B62B0091A50C109125
:1027D000A60C2091A70C3091A80CDC01CB01801B2A
:1027E000910BA20BB30B21E0883C9105A105B1052B
:1027F00008F420E0822F1F910F910895FF920F930C
:102800001F93CF93DF93CDB7DEB762970FB6F894DF
:10281000DEBF0FBECDBF65ED75E0CE010D960E9407
:102820002F2A0E94C51300E010E080919F0C909128
:10283000A00CDC01ED91FC910480F581E02D19954F
:10284000892B09F447C0053011050CF043C0809175
:102850009F0C9091A00CDC01ED91FC910680F7811A
:10286000E02D1995F82E4AE0682FCE0101960E94BE
:10287000C129BE016F5F7F4FCE010D960E94D02807
:10288000CE0101960E946429F801E356F34FF48EBD
:102890000F5F1F4F05301105D1F46FE474E0CE01D6
:1028A00007960E942F2ABE01635F7F4FCE010796D5
:1028B0000E940229BC01CE0101960E94262ACE0167
:1028C00001960E946429CE0107960E9464290E9405
:1028D000C513ABCF0E94D013F82E811124C0053050
:1028E00011050CF4A2CF0530110549F520E080E078
:1028F00090E0FC01E356F34F348D230F01968530B1
:102900009105B9F78091BB0C883221F08091BB0C06
:10291000823059F48091BC0C811107C0211105C08F
:10292000FF24F3940CC0F12C0AC067E574E0CE01DB
:1029300001960E942F2ACE0101960E946429CE01A1
:102940000D960E9464298F2D62960FB6F894DEBF13
:102950000FBECDBFDF91CF911F910F91FF900895D2
:102960001F93CF93DF9300D000D0CDB7DEB7182FE1
:102970000E94C513112359F180919F0C9091A00CD6
:10298000DC01ED91FC910480F581E02D1995892BF6
:1029900071F080919F0C9091A00CDC01ED91FC9165
:1029A0000680F781E02D199511500E94C5130E94F1
:1029B000D0138823F9F266E774E0CE0101960E94F5
:1029C0002F2ACE0101960E94642980E001C081E097
:1029D00026960FB6F894DEBF0FBECDBFDF91CF9124
:1029E0001F910895FF920F931F93CF93DF93CDB75D
:1029F000DEB7C058D1090FB6F894DEBF0FBECDBF09
:102A00008091A90C89830091AB0C0A838091AC0C56
:102A10008B838091AE0C8C83FE01359680E090E034
:102A200010E08017910744F4DC01A356B34F53968E
:102A30002C9121930196F5CF0C5F1F4FE1E0F0E060
:102A4000EC0FFD1FE00FF11F8091B80C8083F12C7B
:102A50002F2D30E002171307A4F080919F0C909166
:102A6000A00CDC01ED91FC91A1E0B0E0AC0FBD1F2A
:102A7000A20FB31F0190F081E02D6C911995F39492
:102A8000E7CF80E0C058DF4F0FB6F894DEBF0FBE2F
:102A9000CDBFDF91CF911F910F91FF9008951F93AC
:102AA000CF93DF9300D000D0CDB7DEB780915D0C1F
:102AB000811134C068E974E0CE0101960E942F2A8A
:102AC000CE0101960E94642982E090E09093AA0CC6
:102AD0008093A90C11E01093AB0C81E090E09093EF
:102AE000AD0C8093AC0C84EE90E09093AF0C80938F
:102AF000AE0C1093B00C87E18093B80C0E94F214D6
:102B000086E00E94B014882339F00E94FE138823C7
:102B100019F01093660C02C01092660C26960FB640
:102B2000F894DEBF0FBECDBFDF91CF911F91089506
:102B3000CF93DF9300D000D0CDB7DEB780915D0C8E
:102B400081112EC069EA74E0CE0101960E942F2AFD
:102B5000CE0101960E94642982E090E09093AA0C35
:102B60008093A90C81E08093AB0C81E090E090937E
:102B7000AD0C8093AC0C84EE90E09093AF0C8093FE
:102B8000AE0C1092B00C88E18093B80C0E94F21445
:102B900086E00E94B01481110E94FE131092660C10
:102BA00026960FB6F894DEBF0FBECDBFDF91CF9152
:102BB0000895AF92BF92CF92DF92EF92FF920F9360
:102BC0001F93CF93DF936C0160E080916E0C0E94A5
:102BD0003527E6012496BA90AA9008E010E090E824
:102BE000E92EF12C60E080916C0C0E94352761E0A9
:102BF00097012A213B21232B09F460E080916D0C81
:102C00000E94352761E080916C0C0E943527F59475
:102C1000E7940150110931F7CC15DD05E1F661E0CB
:102C200080916E0CDF91CF911F910F91FF90EF90EB
:102C3000DF90CF90BF90AF900C943527FC0180912E
:102C4000870C9091880CE817F90769F1E03533ECAF
:102C5000F30730F4E0348CE9F80740F09F0102C03C
:102C60002FE433ECC90180549C4919C0E03395E747
:102C7000F90720F0CF018053954711C0E0323EE4C0
:102C8000F30720F0CF0180529E4409C0E03187E273
:102C9000F80720F0CF018051974201C0CF019093F7
:102CA000880C8093870C20917A0C2130E9F038F061
:102CB000223009F458C0233009F48DC0C2C06AE044
:102CC00070E00E94543EDC01A459B34F13968C91DE
:102CD000E031F74208F08F7D90E090937E0C809376
:102CE0007D0C8DEF90E0A9C0E032FE4420F18A30E7
:102CF000910568F064E670E00E94543E6AE070E07E
:102D00000E94543EFB01E459F34F838102C080913D
:102D10006F0C90E090937E0C80937D0C80917D0CE5
:102D200090917E0C8F7D992790937E0C80937D0CE3
:102D30008FEE90E082C08A30910570F064E670E01A
:102D40000E94543E6AE070E00E94543EFB01E45948
:102D5000F34F838190E0E8CF8FEF90E090937E0C6B
:102D600080937D0C6AC0E033F54720F184369105ED
:102D700068F068EE73E00E94543E64E670E00E94E2
:102D8000543EFB01E459F34F838102C080916F0CE4
:102D900090E090937E0C80937D0C80917D0C9091BF
:102DA0007E0C8F7D992790937E0C80937D0C87EF0E
:102DB00090E043C08436910578F268EE73E00E949B
:102DC000543E64E670E00E94543EFB01E459F34F28
:102DD000838190E0E8CFE034FC49D8F0883E33E0CE
:102DE000930748F068EE73E00E94543EFB01E459FB
:102DF000F34F838102C080916F0C90E090937E0C22
:102E000080937D0C80917D0C90917E0C8F7D992715
:102E10000EC0883E33E0930708F49ECF68EE73E05F
:102E20000E94543EFB01E459F34F838190E090935C
:102E30007E0C80937D0C8BEF90E09093800C8093C0
:102E40007F0C2F5F243018F420937A0C02C010926C
:102E50007A0C8DE79CE00C94D915ECE6FCE08459E3
:102E6000934FDC0113968C9190E0928B818B748B45
:102E7000638B8DE79CE00C94D915ECE6FCE02FEF1A
:102E800030E0281B390B328B218B748B638B8DE7E1
:102E90009CE00C94D91587E290E090937E0C80938F
:102EA0007D0C8DE79CE00C94D91580EF90E0909319
:102EB0007E0C80937D0C8DE79CE00C94D915CF930C
:102EC000DF9300D000D0CDB7DEB7BC01CE010196B4
:102ED0000E94262ABE016F5F7F4F809199089091D2
:102EE0009A080E946C24CE0101960E9464292696BD
:102EF0000FB6F894DEBF0FBECDBFDF91CF9108951E
:102F00000F931F93CF93DF93CDB7DEB762970FB6C2
:102F1000F894DEBF0FBECDBF8C0165ED75E0CE012C
:102F20000D960E942F2AF80184819581892B09F43E
:102F300057C06BEB74E0CE010D960E94362960916C
:102F4000A0087091A1084AE0CE0107960E94692965
:102F5000BE01695F7F4FCE0101960E94262A6CE474
:102F600072E0CE0101960E94E928BC01CE010D96C7
:102F70000E94D028CE0101960E946429CE010796B6
:102F80000E946429B801CE010D960E94D028BE018E
:102F9000635F7F4FCE0101960E94262ACE010196E3
:102FA0000E945F17CE0101960E9464292091A0081B
:102FB0003091A10846E0429FC001439F900D11242B
:102FC000B8018055974F0E944D298091A00890919B
:102FD000A10801968F7799279093A1088093A00864
:102FE000CE010D960E94642962960FB6F894DEBF5A
:102FF0000FBECDBFDF91CF911F910F910895CF9359
:10300000DF93CDB7DEB72C970FB6F894DEBF0FBEB7
:10301000CDBF6CE376E0CE0107960E94EE296AE30D
:1030200076E0CE0107960E9472286091A008709108
:10303000A1084AE0CE0101960E946929BE016F5F96
:103040007F4FCE0107960E94D028CE0101960E94A4
:10305000642964E376E0CE0107960E947228BE01DF
:10306000695F7F4FCE0101960E94262ACE0101960C
:103070000E948017CE0101960E946429CE01079616
:103080000E94642980E02C960FB6F894DEBF0FBE34
:10309000CDBFDF91CF910895CF92DF92EF92FF9253
:1030A0000F931F93CF93DF93CDB7DEB72C970FB657
:1030B000F894DEBF0FBECDBF6C017B018A0163E3D4
:1030C00076E0CE0107960E94EE2961E376E0CE011C
:1030D00007960E9472286091A0087091A1084AE0AA
:1030E000CE0101960E946929BE016F5F7F4FCE011C
:1030F00007960E94D028CE0101960E94642969E2B9
:1031000076E0CE0107960E947228B601CE0107969E
:103110000E94D02867E276E0CE0107960E947228CE
:10312000B701CE0107960E94D02865E276E0CE0175
:1031300007960E947228B801CE0107960E94D028F7
:10314000BE01695F7F4FCE0101960E94262ACE0103
:1031500001960E948017CE0101960E946429CE013B
:1031600007960E94642980E02C960FB6F894DEBF83
:103170000FBECDBFDF91CF911F910F91FF90EF90C8
:10318000DF90CF900895FF920F931F93CF93DF931B
:10319000CDB7DEB762970FB6F894DEBF0FBECDBFD6
:1031A0008C01F62EBC01CE0101960E94262A6CEEFF
:1031B0007BE0CE0107960E94262A66EE7BE0CE01D8
:1031C0000D960E94262AAE014F5F5F4FBE01695FD8
:1031D0007F4FCE010D960E944C18CE010D960E9495
:1031E0006429CE0107960E946429CE0101960E94AF
:1031F0006429F80184819581892B09F411C266EC58
:1032000074E0808191810E94F940892B09F008C205
:1032100063E276E0CE0101960E94EE2962EF7BE048
:10322000CE0107960E94262A66EE7BE0CE010D961F
:103230000E94262AAE014F5F5F4FBE01695F7F4F3C
:10324000CE010D960E944C18CE010D960E94642965
:10325000CE0107960E946429CE0101960E9464293E
:1032600061E276E0CE0101960E94EE2968EF7BE0F4
:10327000CE0107960E94262A66EE7BE0CE010D96CF
:103280000E94262AAE014F5F5F4FBE01695F7F4FEC
:10329000CE010D960E944C18CE010D960E94642915
:1032A000CE0107960E946429CE0101960E946429EE
:1032B0006FE176E0CE0101960E94EE296EEF7BE091
:1032C000CE0107960E94262A66EE7BE0CE010D967F
:1032D0000E94262AAE014F5F5F4FBE01695F7F4F9C
:1032E000CE010D960E944C18CE010D960E946429C5
:1032F000CE0107960E946429CE0101960E9464299E
:103300006DE176E0CE0101960E94EE2964E07CE05A
:10331000CE0107960E94262A66EE7BE0CE010D962E
:103320000E94262AAE014F5F5F4FBE01695F7F4F4B
:10333000CE010D960E944C18CE010D960E94642974
:10334000CE0107960E946429CE0101960E9464294D
:103350006BE176E0CE0101960E94EE296AE07CE006
:10336000CE0107960E94262A66EE7BE0CE010D96DE
:103370000E94262AAE014F5F5F4FBE01695F7F4FFB
:10338000CE010D960E944C18CE010D960E94642924
:10339000CE0107960E946429CE0101960E946429FD
:1033A00069E176E0CE0101960E94EE2960E17CE0C1
:1033B000CE0107960E94262A66EE7BE0CE010D968E
:1033C0000E94262AAE014F5F5F4FBE01695F7F4FAB
:1033D000CE010D960E944C18CE010D960E946429D4
:1033E000CE0107960E946429CE0101960E946429AD
:1033F00067E176E0CE0101960E94EE2966E17CE06D
:10340000CE0107960E94262A66EE7BE0CE010D963D
:103410000E94262AAE014F5F5F4FBE01695F7F4F5A
:10342000CE010D960E944C18CE010D960E94642983
:10343000CE0107960E946429CE0101960E9464295C
:1034400065E176E0CE0101960E94EE296CE17CE018
:10345000CE0107960E94262A66EE7BE0CE010D96ED
:103460000E94262AAE014F5F5F4FBE01695F7F4F0A
:10347000CE010D960E944C18CE010D960E94642933
:10348000CE0107960E946429CE0101960E9464290C
:1034900063E176E0CE0101960E94EE2962E27CE0D3
:1034A000CE0107960E94262A66EE7BE0CE010D969D
:1034B0000E94262AAE014F5F5F4FBE01695F7F4FBA
:1034C000CE010D960E944C18CE010D960E946429E3
:1034D000CE0107960E946429CE0101960E946429BC
:1034E00061E176E0CE0101960E94EE2968E27CE07F
:1034F000CE0107960E94262A66EE7BE0CE010D964D
:103500000E94262AAE014F5F5F4FBE01695F7F4F69
:10351000CE010D960E944C18CE010D960E94642992
:10352000CE0107960E946429CE0101960E9464296B
:103530006FE076E0CE0101960E94EE296EE27CE01B
:10354000CE0107960E94262A66EE7BE0CE010D96FC
:103550000E94262AAE014F5F5F4FBE01695F7F4F19
:10356000CE010D960E944C18CE010D960E94642942
:10357000CE0107960E946429CE0101960E9464291B
:103580006DE076E0CE0101960E94EE2964E37CE0D6
:10359000CE0107960E94262A66EE7BE0CE010D96AC
:1035A0000E94262AAE014F5F5F4FBE01695F7F4FC9
:1035B000CE010D960E944C18CE010D960E946429F2
:1035C000CE0107960E946429CE0101960E946429CB
:1035D0006BE076E0CE0101960E94EE296AE37CE082
:1035E000CE0107960E94262A66EE7BE0CE010D965C
:1035F0000E94262AAE014F5F5F4FBE01695F7F4F79
:10360000CE010D960E944C18CE010D960E946429A1
:10361000CE0107960E946429CE0101960E9464297A
:10362000F1100E94FF1762960FB6F894DEBF0FBE2E
:10363000CDBFDF91CF911F910F91FF9008951F9300
:10364000CF93DF93CDB7DEB762970FB6F894DEBFA6
:103650000FBECDBF162FBC01CE0101960E94262AB7
:103660006AE07CE0CE0107960E94262A66EE7BE0A7
:10367000CE010D960E94262AAE014F5F5F4FBE011C
:10368000695F7F4FCE010D960E944C18CE010D96BA
:103690000E946429CE0107960E946429CE010196FA
:1036A0000E94642911110E94FF1762960FB6F894C8
:1036B000DEBF0FBECDBFDF91CF911F9108950F9355
:1036C0001F93CF93DF93CDB7DEB769970FB6F8940A
:1036D000DEBF0FBECDBF282F8B0166EE7BE0CE0193
:1036E0004396298F0E94262A298D223061F02330AB
:1036F00091F02130C1F5B801CE0101960E94262A31
:103700006CE17CE00FC0B801CE0101960E94262A30
:1037100068E27CE007C0B801CE0101960E94262A2B
:1037200064E37CE0CE0107960E94262ABE016D5E0E
:103730007F4FCE010D960E94262AAE014F5F5F4F4C
:10374000BE01695F7F4FCE010D960E944C18CE01DD
:103750000D960E946429CE0107960E946429CE012D
:1037600001960E946429CE0143960E9464296996BD
:103770000FB6F894DEBF0FBECDBFDF91CF911F9182
:103780000F910895CF93DF93CDB7DEB762970FB651
:10379000F894DEBF0FBECDBFBC01CE0101960E94E2
:1037A000262A60E17CE0CE0107960E94262A66EE7A
:1037B0007BE0CE010D960E94262AAE014F5F5F4F3F
:1037C000BE01695F7F4FCE010D960E944C18CE015D
:1037D0000D960E946429CE0107960E946429CE01AD
:1037E00001960E94642962960FB6F894DEBF0FBE60
:1037F000CDBFDF91CF910895CF93DF93CDB7DEB7E3
:1038000062970FB6F894DEBF0FBECDBFBC01CE01EC
:1038100001960E94262A62EF7BE0CE0107960E9465
:10382000262A66EE7BE0CE010D960E94262AAE0186
:103830004F5F5F4FBE01695F7F4FCE010D960E94C3
:103840004C18CE010D960E946429CE0107960E9465
:103850006429CE0101960E94642962960FB6F894FD
:10386000DEBF0FBECDBFDF91CF910895CF93DF9321
:1038700000D000D0CDB7DEB790E0FC013897E8303B
:10388000F105D0F58827EA57FF4F8F4F0C949E3EE5
:103890006FEC74E0CE0101960E942F2ACE010196B2
:1038A0000E94642981E090E029C062EE74E0CE01BC
:1038B00001960E942F2ACE0101960E94642982E07F
:1038C00090E01CC065EF74E0CE0101960E942F2AA3
:1038D000CE0101960E94642985E090E00FC068E067
:1038E00075E0CE0101960E942F2ACE0101960E941A
:1038F00064298AE090E002C080E090E026960FB64E
:10390000F894DEBF0FBECDBFDF91CF910895EF9247
:10391000FF920F931F93CF93DF93CDB7DEB76297DC
:103920000FB6F894DEBF0FBECDBF82E090E090935B
:10393000AA0C8093A90C1092AB0C81E090E09093BC
:10394000AD0C8093AC0C9093AF0C8093AE0C8CEFCD
:103950008093B80C0E94F21485E00E94B014882372
:1039600009F429C10E94FE13882309F424C180911F
:103970005D0C8F3F51F46CE175E0CE0101960E9421
:103980002F2ACE0101960E94642968EC70E080E045
:1039900090E00E947C2B82E090E09093AA0C8093B0
:1039A000A90C1092AB0C81E090E09093AD0C809349
:1039B000AC0C88EE90E09093AF0C8093AE0C85E158
:1039C0008093B80C0E94F21485E00E94B014882302
:1039D00099F10E94C513E12CF12C870180919F0C75
:1039E0009091A00CDC01ED91FC910480F581E02D1B
:1039F0001995892BD9F006301105A1F080919F0C03
:103A00009091A00CDC01ED91FC910680F781E02DF6
:103A10001995F801E356F34F81A30F5F1F4F0E94E2
:103A2000C513DCCF86E0E82EF12C01C078010E949E
:103A3000D013882309F4C8C068EC70E080E090E0FF
:103A40000E947C2B6091EA0C60935D0C611139C07F
:103A500066E375E0CE0101960E942F2ACE01019601
:103A60000E94642982E090E09093AA0C8093A90CB4
:103A70008093AB0C81E090E09093AD0C8093AC0C04
:103A800087EE90E09093AF0C8093AE0C80E880932B
:103A9000B00C8FEF8093B10C85E98093B80C0E9435
:103AA000F21487E00E94B01481110E94FE138091ED
:103AB000660C882319F00E944F1559C00E94981572
:103AC00056C080915E0C1616C4F56A3074F46817FF
:103AD00009F44DC0062E000C770B4AE0CE01079684
:103AE0000E94952965E475E00DC0681709F43FC090
:103AF000062E000C770B4AE0CE0107960E9495290E
:103B00006BE575E0CE010D960E942F2ABE01695F1C
:103B10007F4FCE010D960E940229BC01CE01019675
:103B20000E94262ACE0101960E946429CE010D969C
:103B30000E946429CE01079614C06817C1F060E79F
:103B400075E0CE0101960E942F2ACE0101960E94B7
:103B500064296DE875E0CE0101960E942F2ACE01FE
:103B600001960E94642980915D0C80935E0C809187
:103B70005D0C81111EC080915E0C882371F064EA97
:103B800075E0CE0101960E942F2ACE0101960E9477
:103B9000642980915D0C80935E0C0E94B62B60932B
:103BA000520C7093530C8093540C9093550C81E0FD
:103BB00045C080E043C08FEF80935D0C80915E0C28
:103BC0008F3F09F0BCCFD3CF0630110509F005CFE8
:103BD000B6E0EB16F10409F02FCF20E080E090E092
:103BE000FC01E356F34F31A1230F01968630910576
:103BF000B9F78091BB0C883221F08091BB0C8230E8
:103C000029F4211103C08091C20C15C06DEB75E041
:103C1000CE0101960E942F2ACE0101960E946429AE
:103C200066ED75E0CE0101960E942F2ACE01019625
:103C30000E9464298FEF8093EA0CFECE62960FB645
:103C4000F894DEBF0FBECDBFDF91CF911F910F91D2
:103C5000FF90EF900895CF93DF93CDB7DEB76297D3
:103C60000FB6F894DEBF0FBECDBFBC01CE010196EA
:103C70000E94262A68EF7BE0CE0107960E94262A42
:103C800066EE7BE0CE010D960E94262AAE014F5FC4
:103C90005F4FBE01695F7F4FCE010D960E944C18A9
:103CA000CE010D960E946429CE0107960E946429D8
:103CB000CE0101960E94642962960FB6F894DEBF89
:103CC0000FBECDBFDF91CF910895CF93DF93CDB7D6
:103CD000DEB762970FB6F894DEBF0FBECDBF20915E
:103CE0009E08223079F06AEE75E0CE0101960E94BE
:103CF0002F2ACE0101960E945F17CE0101960E94E5
:103D0000642929C0BC01CE0101960E94262A66E4DE
:103D10007CE0CE0107960E94262A60E47CE0CE017A
:103D20000D960E94262AAE014F5F5F4FBE01695F6C
:103D30007F4FCE010D960E944C18CE010D960E9429
:103D40006429CE0107960E946429CE0101960E9443
:103D500064290E94FF1762960FB6F894DEBF0FBE6B
:103D6000CDBFDF91CF910895CF93DF93CDB7DEB76D
:103D700062970FB6F894DEBF0FBECDBFBC01CE0177
:103D800001960E94262A6EEF7BE0CE0107960E94E4
:103D9000262A66EE7BE0CE010D960E94262AAE0111
:103DA0004F5F5F4FBE01695F7F4FCE010D960E944E
:103DB0004C18CE010D960E946429CE0107960E94F0
:103DC0006429CE0101960E94642962960FB6F89488
:103DD000DEBF0FBECDBFDF91CF910895CF93DF93AC
:103DE000CDB7DEB762970FB6F894DEBF0FBECDBF7A
:103DF000BC01CE0101960E94262A64E07CE0CE013F
:103E000007960E94262A66EE7BE0CE010D960E9460
:103E1000262AAE014F5F5F4FBE01695F7F4FCE0123
:103E20000D960E944C18CE010D960E946429CE0179
:103E300007960E946429CE0101960E946429629629
:103E40000FB6F894DEBF0FBECDBFDF91CF910895BE
:103E50001F93CF93DF93CDB7DEB762970FB6F89479
:103E6000DEBF0FBECDBF162FBC01CE0101960E9452
:103E7000262A6AE37CE0CE0107960E94262A66EE97
:103E80007BE0CE010D960E94262AAE014F5F5F4F68
:103E9000BE01695F7F4FCE010D960E944C18CE0186
:103EA0000D960E946429CE0107960E946429CE01D6
:103EB00001960E94642911110E94FF1762960FB6A5
:103EC000F894DEBF0FBECDBFDF91CF911F91089553
:103ED0004F925F926F927F928F929F92AF92BF921A
:103EE000CF92DF92EF92FF920F931F93CF93DF93C6
:103EF0004B015C018091950890919608A0919708DC
:103F0000B091980888169906AA06BB0609F4C2C0A3
:103F10008CE3C82ED12CE12CF12CC501B401A701F2
:103F200096010E947C3E60938E08CA01B901A701E8
:103F300096010E947C3E60938F08CA01B90128E176
:103F400030E040E050E00E947C3E69017A016093DD
:103F50009008CA01B9016C5F7F4F8F4F9F4F27E0D8
:103F600030E040E050E00E947C3E6F5F609391083B
:103F7000412C512C320140E004E610E0C0E9D1E0D0
:103F8000242F30E02E54384FF901E370FF2730978B
:103F900089F4C901B8010E94683E892B31F4C90136
:103FA000BE010E94683E892B29F48EE691E0A0E0D4
:103FB000B0E004C08DE691E0A0E0B0E0480E591EEC
:103FC0006A1E7B1ED301C201AA27BB27C816D906C9
:103FD000EA06FB0610F04F5FD3CF4093940830976A
:103FE00099F4C90164E670E00E94683E892B39F4B7
:103FF000C90160E971E00E94683E892B29F48EE6D0
:1040000091E0A0E0B0E004C08DE691E0A0E0B0E077
:10401000481A590A6A0A7B0AC418D508E608F7083C
:10402000C90164E670E00E94683EEC01C90160E9E4
:1040300071E00E94683EA3E2B2E020E0213039F452
:10404000309749F4209729F4009729F402C04C9145
:1040500003C04DE101C04CE150E060E070E0C416E7
:10406000D506E606F70640F0C41AD50AE60AF70AAE
:104070002F5F11962C3011F72F5F20939308C39474
:10408000C09292088092950890929608A092970804
:10409000B0929808DF91CF911F910F91FF90EF9010
:1040A000DF90CF90BF90AF909F908F907F906F9058
:1040B0005F904F900895FC01918D828D981761F06B
:1040C000828DDF01A80FB11D5D968C91928D9F5F4F
:1040D0009F73928F90E008958FEF9FEF0895FC01FA
:1040E000918D828D981731F0828DE80FF11D858DAD
:1040F00090E008958FEF9FEF0895FC01918D228D40
:10410000892F90E0805C9F4F821B91098F739927C4
:10411000089581EA96E00E947D2021E0892B09F430
:1041200020E0822F089580E090E0892B21F00E940A
:10413000682881111DC080E090E0892B41F080E06B
:1041400090E0892B21F00E940000811114C080E0D2
:1041500090E0892B21F00E94892081110FC080E01E
:1041600090E0892B81F00E945E2881110AC0089599
:104170000E940000E0CF0E940000E9CF0E940000F2
:10418000EECF0C940000089590E0FC013197E231ED
:10419000F10508F04EC08827E257FF4F8F4F0C946F
:1041A0009E3E809180008F7703C0809180008F7D3C
:1041B00080938000089580918000877FF9CF84B537
:1041C0008F7702C084B58F7D84BD08958091B00043
:1041D0008F7703C08091B0008F7D8093B0000895E9
:1041E000809190008F7707C0809190008F7D03C0F1
:1041F00080919000877F8093900008958091A00027
:104200008F7707C08091A0008F7D03C08091A000B0
:10421000877F8093A0000895809120018F7707C049
:10422000809120018F7D03C080912001877F809342
:1042300020010895EF92FF920F931F93CF93DF9386
:1042400000D000D0CDB7DEB78C017A016FE577E002
:104250000E94EE298AE0E816F1042CF46DE577E07F
:10426000C8010E9472284AE0B701CE0101960E945F
:104270009529BE016F5F7F4FC8010E94D028CE01F3
:1042800001960E946429C80126960FB6F894DEBFF5
:104290000FBECDBFDF91CF911F910F91FF90EF9097
:1042A0000895ECE6FCE08FEF90E0928B818B948B8D
:1042B000838B8DE79CE00C94D915CF93DF932091ED
:1042C000B40B3091B50B232B79F0FC01C091B00BEE
:1042D000D091B10B60817181CE010E94094100979C
:1042E00019F08C1B9D0B02C08FEF9FEFDF91CF91D8
:1042F0000895CF92DF92EF92FF920F931F93CF9387
:10430000DF93EC016A017B01E889F98982E080830F
:104310004115514E61057105B1F060E079E08DE322
:1043200090E0A70196010E947C3E89019A0101500C
:104330001109210931093695279517950795980197
:1043400001151041A8F0E889F989108260E874E845
:104350008EE190E0A70196010E947C3EDA01C9013E
:104360000197A109B109B695A795979587959C01E5
:10437000EC85FD853083EE85FF852083188EEC89E2
:10438000FD8986E08083EA89FB8980818061808362
:10439000EA89FB89808188608083EA89FB89808142
:1043A00080688083EA89FB8980818F7D8083DF91AB
:1043B000CF911F910F91FF90EF90DF90CF900895D4
:1043C0000F931F930E94B62B0091A4081091A5088B
:1043D0002091A6083091A7086017710782079307FC
:1043E00050F40E94B62B6093A4087093A5088093A4
:1043F000A6089093A7080E94B62B0091A4081091DC
:10440000A5082091A6083091A708DC01CB01801BEC
:10441000910BA20BB30B21E088389341A105B105A4
:1044200008F420E0822F1F910F910895CF93DF931E
:10443000CDB7DEB762970FB6F894DEBF0FBECDBF23
:10444000BC01CE0101960E94262A60EE7BE0CE01DF
:1044500007960E94262A6AED7BE0CE010D960E9407
:10446000262AAE014F5F5F4FBE01695F7F4FCE01CD
:104470000D960E944C18CE010D960E946429CE0123
:1044800007960E946429CE0101960E9464290E9429
:10449000FF1762960FB6F894DEBF0FBECDBFDF9157
:1044A000CF9108950F931F93CF93DF93CDB7DEB7CE
:1044B00069970FB6F894DEBF0FBECDBF282F8B01D2
:1044C00066EE7BE0CE014396298F0E94262A298D35
:1044D000223069F02330A1F02130D9F54AE0B8014B
:1044E000CE0101960E94692966E17CE011C04AE094
:1044F000B801CE0101960E94692962E27CE008C001
:104500004AE0B801CE0101960E9469296EE27CE082
:10451000CE0107960E94262ABE016D5E7F4FCE0116
:104520000D960E94262AAE014F5F5F4FBE01695F64
:104530007F4FCE010D960E944C18CE010D960E9421
:104540006429CE0107960E946429CE0101960E943B
:104550006429CE0143960E94642969960FB6F894A7
:10456000DEBF0FBECDBFDF91CF911F910F91089598
:1045700020917A0C2F5F243018F420937A0C02C01B
:1045800010927A0C20917A0C2130F9F070F02230E0
:10459000D1F1233009F051C080E590E090937E0C7A
:1045A00080937D0C8BEF90E044C06AE070E00E9445
:1045B000543EFC01E459F34F838190E090937E0CCC
:1045C00080937D0C8DEF90E034C08A309105A0F08F
:1045D00064E670E00E94543E6AE070E00E94543E3F
:1045E000FB01E459F34F838190E090937E0C80931C
:1045F0007D0C8FEE90E01DC08FEF90E090937E0CCD
:1046000080937D0C16C084369105B0F368EE73E09C
:104610000E94543E64E670E00E94543EFB01E4595F
:10462000F34F838190E090937E0C80937D0C87EF15
:1046300090E09093800C80937F0C8DE79CE00C942D
:10464000D9150F931F930E94B62B0091520C109115
:10465000530C2091540C3091550C60177107820750
:10466000930750F40E94B62B6093520C7093530C36
:104670008093540C9093550C0E94B62B0091520CD1
:104680001091530C2091540C3091550CDC01CB014E
:10469000801B910BA20BB30B21E0843F9140A1053D
:1046A000B10508F420E0822F1F910F910895CF9358
:1046B000DF93CDB7DEB762970FB6F894DEBF0FBEBB
:1046C000CDBF4AE0682FCE0101960E94C12962EC5D
:1046D0007BE0CE0107960E94262A6CEB7BE0CE01A0
:1046E0000D960E94262AAE014F5F5F4FBE01695FA3
:1046F0007F4FCE010D960E944C18CE010D960E9460
:104700006429CE0107960E946429CE0101960E9479
:10471000642962960FB6F894DEBF0FBECDBFDF915D
:10472000CF910895CF93DF93CDB7DEB762970FB6E1
:10473000F894DEBF0FBECDBF4AE0BC01CE010196AA
:104740000E94692968EC7BE0CE0107960E94262A28
:104750006CEB7BE0CE010D960E94262AAE014F5FE6
:104760005F4FBE01695F7F4FCE010D960E944C18CE
:10477000CE010D960E946429CE0107960E946429FD
:10478000CE0101960E94642962960FB6F894DEBFAE
:104790000FBECDBFDF91CF910895CF93DF93CDB7FB
:1047A000DEB762970FB6F894DEBF0FBECDBF4AE00A
:1047B000BC01CE0101960E9469296EEC7BE0CE011E
:1047C00007960E94262A6CEB7BE0CE010D960E9494
:1047D000262AAE014F5F5F4FBE01695F7F4FCE015A
:1047E0000D960E944C18CE010D960E946429CE01B0
:1047F00007960E946429CE0101960E946429629660
:104800000FB6F894DEBF0FBECDBFDF91CF910895F4
:10481000CF93DF93CDB7DEB762970FB6F894DEBFC4
:104820000FBECDBFBC01CE0101960E94262A64EDC9
:104830007BE0CE0107960E94262A6CEB7BE0CE013E
:104840000D960E94262AAE014F5F5F4FBE01695F41
:104850007F4FCE010D960E944C18CE010D960E94FE
:104860006429CE0107960E946429CE0101960E9418
:10487000642962960FB6F894DEBF0FBECDBFDF91FC
:10488000CF9108951F920F920FB60F9211240BB67D
:104890000F922F933F934F935F936F937F938F93D9
:1048A0009F93AF93BF93EF93FF9381EA96E00E94AB
:1048B000CB2AFF91EF91BF91AF919F918F917F9103
:1048C0006F915F914F913F912F910F900BBE0F9081
:1048D0000FBE0F901F9018954F925F926F927F922C
:1048E0008F929F92AF92BF92EF92FF920F931F937E
:1048F000CF93DF93CDB7DEB76E970FB6F894DEBFD8
:104900000FBECDBF8C017B0165ED75E0CE010D962C
:104910000E942F2AB701CE0143960E94262A65EDF8
:1049200075E0CE0149960E942F2A78012EE0E20E12
:10493000F11C0E94B62B409086085090870860902A
:104940008808709089084B015C0184189508A608B6
:10495000B70880918A0890918B08A0918C08B0913B
:104960008D08E8EE8E16E3E09E06A104B104D0F0B7
:104970000196A11DB11D80938A0890938B08A09386
:104980008C08B0938D08B301A20148515C4F6F4F62
:104990007F4F4093860850938708609388087093F0
:1049A0008908C7CF4091820850918308609184089C
:1049B0007091850884179507A607B70708F456C0B5
:1049C000E0918008F0918108309709F44FC0199563
:1049D000611571058105910539F160938A0870931D
:1049E0008B0880938C0890938D08DC01CB01845D4B
:1049F0009E4FAF4FBF4F8093820890938308A09340
:104A00008408B093850882E090E090937F088093BB
:104A10007E080E94B62B6093860870938708809367
:104A200088089093890822C080918A0890918B0809
:104A3000A0918C08B0918D08845D9E4FAF4FBF4F01
:104A40008093820890938308A0938408B09385088C
:104A500081E090E020917E0830917F08232B11F4B3
:104A600080E090E090937F0880937E0880908A0891
:104A700090908B08A0908C08B0908D08C501B4016F
:104A80000E94681F4091900850E0B801CE0107963F
:104A90000E941A2162E677E0CE0107960E947228F2
:104AA000C501B4010E94681F40918F0850E0B80111
:104AB000CE0101960E941A21BE016F5F7F4FCE0189
:104AC00007960E94D028CE0101960E94642960E6D4
:104AD00077E0CE0107960E947228C501B4010E94BA
:104AE000681F40918E0850E0B801CE0101960E94E7
:104AF0001A21BE016F5F7F4FCE0107960E94D0281A
:104B0000CE0101960E946429BE01695F7F4FCE01EC
:104B100001960E94262A64EF75E0CE0101960E945C
:104B2000E928B7010E94022962EF75E00E94E92896
:104B3000BE016D5E7F4F0E940229BC01CE014996E5
:104B40000E944D29CE0101960E946429CE0107964C
:104B50000E9464298D859E850097A9F0698D7A8DC4
:104B60006115710571F04F8558892D8D3E8D421765
:104B7000530738F00E9402418D8D9E8D9A8B898B50
:104B800012C00E946A3F898D9A8D9E878D878B8D7A
:104B90009C8D988B8F878D8D9E8D9A8B898B1A8E8D
:104BA000198E1C8E1B8E1E8E1D8ECE0149960E9464
:104BB0006429CE0143960E946429BE01635F7F4F42
:104BC000F801808191810E94582ACE010D960E94A1
:104BD00064296E960FB6F894DEBF0FBECDBFDF918D
:104BE000CF911F910F91FF90EF90BF90AF909F904A
:104BF0008F907F906F905F904F900895EF92FF920B
:104C00000F931F93CF93DF93EC017B0165ED75E06C
:104C100008960E942F2A8E01025F1F4F65ED75E0F6
:104C2000C8010E942F2A81EA96E09983888380E058
:104C300092ECA1E0B0E08C839D83AE83BF8386EFCE
:104C400095E09B838A83B701C801DF91CF911F91C3
:104C50000F91FF90EF900C944D291F920F920FB679
:104C60000F9211240BB60F922F933F934F935F93A4
:104C70006F937F938F939F93AF93BF93EF93FF9324
:104C8000E0917C08F0917D081995FF91EF91BF911B
:104C9000AF919F918F917F916F915F914F913F91D4
:104CA0002F910F900BBE0F900FBE0F901F90189575
:104CB000FC01848DDF01A80FB11DA35ABF4F2C91B9
:104CC000848D90E001968F739927848FA689B78988
:104CD0002C93A089B1898C9180648C93938D848D61
:104CE000981306C00288F389E02D80818F7D808330
:104CF00008951F920F920FB60F9211240BB60F92C8
:104D00002F933F934F935F936F937F938F939F93D3
:104D1000AF93BF93EF93FF9381EA96E00E945826EA
:104D2000FF91EF91BF91AF919F918F917F916F9183
:104D30005F914F913F912F910F900BBE0F900FBE3F
:104D40000F901F901895EF92FF920F931F93CF93A0
:104D5000DF93EC0181E0888F9B8D8C8D981305C0CB
:104D6000E889F989808185FD24C0F62E0B8D10E03D
:104D70000F5F1F4F0F731127E02E8C8DE8120CC0B0
:104D80000FB607FCFACFE889F989808185FFF5CF56
:104D9000CE010E945826F1CF8B8DFE01E80FF11D48
:104DA000E35AFF4FF0820B8FEA89FB898081806292
:104DB00007C0EE89FF896083E889F9898081806472
:104DC000808381E090E0DF91CF911F910F91FF9060
:104DD000EF900895CF93DF93EC01888D8823C9F07D
:104DE000EA89FB89808185FD05C0A889B9898C91F4
:104DF00086FD0FC00FB607FCF5CF808185FFF2CF8F
:104E0000A889B9898C9185FFEDCFCE010E945826E3
:104E1000E7CFDF91CF910895CF93DF93282F30E034
:104E2000F901E95EF84F8491F901EF52F94FD491FD
:104E3000F901E557F94FC491CC2391F081110E94FB
:104E4000C420EC2FF0E0EE0FFF1FEF58F94FA591B3
:104E5000B491EC91ED2381E090E021F480E002C078
:104E600080E090E0DF91CF9108951F93CF93DF937F
:104E7000282F30E0F901E95EF84F8491F901EF52F3
:104E8000F94FD491F901E557F94FC491CC23C9F0FA
:104E9000162F81110E94C420EC2FF0E0EE0FFF1FAF
:104EA000E95AF94FA591B4918FB7F894111105C043
:104EB0009C91ED2FE095E92302C0EC91ED2BEC9352
:104EC0008FBFDF91CF911F9108951F93CF93DF93F1
:104ED00000D000D0CDB7DEB7182F8091560C181730
:104EE000B1F0112319F06AEF75E002C066E176E0D7
:104EF000CE0101960E942F2ACE0101960E946429BC
:104F0000612F8091610C0E9435271093560C0E94EE
:104F1000B62B6093520C7093530C8093540C909367
:104F2000550C0E942123811119C080919F0C9091F2
:104F3000A00CDC01ED91FC910480F581E02D199528
:104F4000892B79F380919F0C9091A00CDC01ED915D
:104F5000FC910680F781E02D1995E3CF26960FB6D8
:104F6000F894DEBF0FBECDBFDF91CF911F910895A2
:104F7000CF93DF9390E0FC01EF52F94F2491FC01B5
:104F8000E557F94F8491882361F190E0880F991FCC
:104F9000FC01E35CF94FC591D491FC01E95AF94F4A
:104FA000A591B491611109C09FB7F89488812095AB
:104FB00082238883EC912E230BC0623061F49FB76B
:104FC000F8943881822F809583238883EC912E2B4F
:104FD0002C939FBF06C08FB7F894E8812E2B2883AF
:104FE0008FBFDF91CF9108950895CF92DF92EF9216
:104FF000FF920F931F93CF93DF936C017A018B0184
:10500000C0E0D0E0CE15DF0589F0D8016D918D01AB
:10501000D601ED91FC910190F081E02DC60119952A
:10502000892B11F47E0102C02196ECCFC701DF91DC
:10503000CF911F910F91FF90EF90DF90CF90089547
:105040000E94EB406115710579F0FB010190002091
:10505000E9F73197AF01461B570BDC01ED91FC914D
:105060000280F381E02D199480E090E008950F9381
:105070001F93CF93DF93EC0188819981009729F0EA
:105080002A813B812617370788F48B016F5F7F4F9A
:105090000E940240009761F0998388831B830A83F2
:1050A0002C813D81232B11F4FC01108281E001C091
:1050B00080E0DF91CF911F910F9108958EE397E0EB
:1050C0000E947D2021E0892B09F420E0822F0895A1
:1050D0008BED97E00E947D2021E0892B09F420E0F0
:1050E000822F0895EF92FF920F931F93CF93DF9338
:1050F0006115710511F480E01EC08B01EC01CB013C
:105100000E9428440097B1F02C813D817C01E20E81
:10511000F31EB701CE010E943728882361F328814E
:1051200039818C819D81B801820F931F0E94214497
:10513000FD82EC8281E0DF91CF911F910F91FF9072
:10514000EF900895EF92FF920F931F93CF93DF9309
:10515000FC01248135816115710511F480E019C0CD
:1051600041155105A9F07B01EC018A01020F131FC3
:10517000B8010E943728882389F3288139818C81DE
:105180009D81B701820F931F0E9402411D830C83F2
:1051900081E0DF91CF911F910F91FF90EF900895E3
:1051A000FB0144815581608171810C94A228CF93C9
:1051B000DF93EC0188819981009711F00E946A3F8A
:1051C000198218821D821C821B821A82DF91CF9164
:1051D0000895CF93DF93EC016115710561F0FB0138
:1051E00001900020E9F73197AF01461B570B0E9451
:1051F000A228811103C0CE010E94D728CE01DF91E1
:10520000CF910895CF93DF93EC01FB014481558149
:10521000608171810E94A228811103C0CE010E9489
:10522000D728CE01DF91CF910895EF92FF920F938F
:105230001F93CF93DF93EC017B018A01BA010E9497
:105240003728811104C0CE010E94D72807C01D83D2
:105250000C83B701888199810E940241CE01DF91C0
:10526000CF911F910F91FF90EF900895CF93DF930F
:10527000EC016115710559F0FB0101900020E9F77F
:105280003197AF01461B570B0E94152902C00E949F
:10529000D728CE01DF91CF910895CF93DF93EC0112
:1052A000FB018617970761F06081718161157105B7
:1052B00029F0448155810E94152902C00E94D728F7
:1052C000CE01DF91CF910895FC01808191810C94F2
:1052D0006A3F0F931F93CF93DF93CDB7DEB76197EC
:1052E0000FB6F894DEBF0FBECDBF8C01CB01F80125
:1052F00011821082138212821582148250E0BE0144
:105300006F5F7F4F0E945C44BE016F5F7F4FC8019B
:105310000E94362961960FB6F894DEBF0FBECDBF4E
:10532000DF91CF911F910F9108950F931F93CF930A
:10533000DF93CDB7DEB762970FB6F894DEBF0FBE2E
:10534000CDBF8C01CB01F801118210821382128231
:105350001582148250E0BE016F5F7F4F0E9431447E
:10536000BE016F5F7F4FC8010E94362962960FB65B
:10537000F894DEBF0FBECDBFDF91CF911F910F918B
:1053800008950F931F93CF93DF93CDB7DEB729977F
:105390000FB6F894DEBF0FBECDBF8C01862FF8018B
:1053A00011821082138212821582148250E0BE0193
:1053B0006F5F7F4F90E00E945C44BE016F5F7F4F44
:1053C000C8010E94362929960FB6F894DEBF0FBE99
:1053D000CDBFDF91CF911F910F910895EF92FF9272
:1053E0000F931F93CF93DF93EC01198218821B82D6
:1053F0001A821D821C826115710509F18B01CB0196
:105400000E9428447C01BC01CE010E9437288111F2
:1054100009C0CE01DF91CF911F910F91FF90EF90C6
:105420000C94D728FD82EC82B80188819981DF91A4
:10543000CF911F910F91FF90EF900C942144DF9139
:10544000CF911F910F91FF90EF900895FC01118271
:10545000108213821282158214820C944D29FC0151
:1054600011821082138212821582148261157105D5
:1054700051F0FB0101900020E9F73197AF01461B85
:10548000570B0C94152908950F931F93CF93DF9317
:10549000EC010E9422288C0163ED75E0CE010E9490
:1054A0002228800F911FDF91CF911F910F910895B6
:1054B0000F931F93CF93DF93EC01E881F981DB0118
:1054C00014964D915C9115976D917C910280F381BA
:1054D000E02D19958C0163ED75E0CE010E94222824
:1054E000800F911FDF91CF911F910F9108951F920F
:1054F0000F920FB60F9211240BB60F922F933F937A
:105500004F935F936F937F938F939F93AF93BF93CB
:10551000EF93FF938EE397E00E945826FF91EF915F
:10552000BF91AF919F918F917F916F915F914F91BB
:105530003F912F910F900BBE0F900FBE0F901F90B9
:1055400018951F920F920FB60F9211240BB60F925F
:105550002F933F934F935F936F937F938F939F937B
:10556000AF93BF93EF93FF938BED97E00E94582684
:10557000FF91EF91BF91AF919F918F917F916F912B
:105580005F914F913F912F910F900BBE0F900FBEE7
:105590000F901F901895FC01A089B1898C91A68964
:1055A000B78982FD0FC09C91818D8F5F8F73228D93
:1055B000821749F0218DDF01A20FB11D5D969C93EA
:1055C000818F08958C9108951F920F920FB60F92BC
:1055D00011240BB60F922F933F934F935F936F93CA
:1055E0007F938F939F93AF93BF93EF93FF938EE33C
:1055F00097E00E94CB2AFF91EF91BF91AF919F91CD
:105600008F917F916F915F914F913F912F910F906B
:105610000BBE0F900FBE0F901F9018951F920F9208
:105620000FB60F9211240BB60F922F933F934F9307
:105630005F936F937F938F939F93AF93BF93EF93FA
:10564000FF938BED97E00E94CB2AFF91EF91BF91E2
:10565000AF919F918F917F916F915F914F913F910A
:105660002F910F900BBE0F900FBE0F901F901895AB
:10567000CF93DF9300D000D0CDB7DEB7BC01CE0111
:1056800001960E94262ABE016F5F7F4F89E89CE049
:105690000E946C24CE0101960E94642926960FB6C2
:1056A000F894DEBF0FBECDBFDF91CF9108953FB715
:1056B000F8948091F00C9091F10CA091F20CB091C3
:1056C000F30C26B5A89B05C02F3F19F00196A11D2C
:1056D000B11D3FBFBA2FA92F982F8827820F911D88
:1056E000A11DB11DBC01CD0142E0660F771F881FCF
:1056F000991F4A95D1F708958F929F92AF92BF92CA
:10570000CF92DF92EF92FF926B017C010E94572BA8
:105710004B015C01C114D104E104F104F1F00E94D9
:10572000572BDC01CB0188199909AA09BB09883ECE
:105730009340A105B10570F321E0C21AD108E10838
:10574000F10888EE880E83E0981EA11CB11CC114DC
:10575000D104E104F10419F7DDCFFF90EF90DF9061
:10576000CF90BF90AF909F908F9008952FB7F894EF
:105770006091EC0C7091ED0C8091EE0C9091EF0C1F
:105780002FBF08951F920F920FB60F9211242F93DF
:105790003F938F939F93AF93BF938091EC0C909125
:1057A000ED0CA091EE0CB091EF0C3091EB0C23E0DE
:1057B000230F2D3720F40196A11DB11D05C026E849
:1057C000230F0296A11DB11D2093EB0C8093EC0CCE
:1057D0009093ED0CA093EE0CB093EF0C8091F00C35
:1057E0009091F10CA091F20CB091F30C0196A11DD7
:1057F000B11D8093F00C9093F10CA093F20CB09338
:10580000F30CBF91AF919F918F913F912F910F908A
:105810000FBE0F901F901895CF93DF93CDB7DEB7D3
:10582000CD55D1090FB6F894DEBF0FBECDBF789429
:1058300084B5826084BD84B5816084BD85B5826095
:1058400085BD85B5816085BD80916E008160809346
:105850006E001092810080918100826080938100AF
:1058600080918100816080938100809180008160BF
:10587000809380008091B10084608093B10080911A
:10588000B00081608093B00080919100826080932D
:1058900091008091910081608093910080919000AF
:1058A0008160809390008091A10082608093A1002C
:1058B0008091A10081608093A1008091A00081600F
:1058C0008093A000809121018260809321018091CA
:1058D000210181608093210180912001816080936A
:1058E000200180917A00846080937A0080917A0010
:1058F000826080937A0080917A00816080937A0040
:1059000080917A00806880937A001092C100409163
:105910008D0C50918E0C60918F0C7091900C809139
:10592000890C90918A0C0E9479211092800080E16C
:1059300080938100FF24F394F0927A088FB78093CC
:105940007B08F89480E09DE790937908809378082D
:10595000909387008093860080917B088FBF809111
:105960008100887F809381009091810080917A08E6
:10597000982B9093810027EE33E030937D0820939D
:105980007C08F0926F0090918100892B80938100B8
:1059900080918100887F809381006EE772E08E01A4
:1059A0000F5F1F4FC8010E94EE29C8010E94382BCB
:1059B000C8010E94642961E08DE20E94B82761E07D
:1059C0008BE20E94B82761E089E20E94B82761E07B
:1059D00081E20E94B82761E084E30E94B82761E079
:1059E00083E30E94B82761E08FE20E94B82761E05C
:1059F0008AE20E94B82761E08BE00E94B82761E04C
:105A00008AE00E94B82761E089E00E94B82761E03F
:105A10008CE20E94B82761E08EE20E94B82761E024
:105A20008CE00E94B82761E08DE00E94B82761E019
:105A300088E00E94B82761E086E00E94B82761E014
:105A400087E00E94B82761E085E00E94B82760E007
:105A500083E00E94B82760E084E00E94B82760E0FD
:105A600088E00E94352760E08DE00E94352760E0E5
:105A700086E00E94352760E087E00E94352760E0DD
:105A800085E00E94352761E08DE20E94352761E0C4
:105A90008BE20E94352761E089E20E94352760E0B1
:105AA00081E20E94352761E084E30E94352761E0AE
:105AB00083E30E94352761E08FE20E94352760E092
:105AC0008AE20E94352760E08BE00E94352760E083
:105AD0008AE00E94352760E089E00E94352760E077
