:100000000C949F030C94D0030C94D0030C94D00355
:100010000C94D0030C94D0030C94D0030C94D00314
:100020000C94D0030C94D0030C94D0030C94D00304
:100030000C94D0030C94D0030C94D0030C94D003F4
:100040000C94D0030C94D0030C94D0030C94D003E4
:100050000C94FC220C94D0030C94D0030C94112D1E
:100060000C94D0030C94BC2C0C944F2C0C94D00307
:100070000C94D0030C94D0030C94D0030C94D003B4
:100080000C94D0030C94D0030C94D0030C94D003A4
:100090000C94D0030C94D0030C94D0030C94D00394
:1000A0000C94D0030C94D0030C94D0030C94D00384
:1000B0000C94D0030C94D0030C94D0030C94D00374
:1000C0000C94D0030C94D0030C94D0030C94112105
:1000D0000C9448230C94D0030C94922C0C94252C53
:1000E0000C94D003140517051A05230526052905C8
:1000F0002C052F056305660569056C056F057205FE
:1001000075057E058705900593059605071907195E
:10011000181918191819291929193A19CA1FCD1FA0
:10012000BC1FC01FC61F0420D11FD51FDB1FDF1F30
:10013000E31FE91FED1FF11F0420F71FFB1FFF1F27
:100140000C947E050C9472050C94DF1F0C94C01F58
:100150000C9429050C943A190C94F3390C94660507
:100160000C94F71F0C94D11F0C9404200C94ED1FD9
:100170000C94D2030C94CA1F0C94E31F0C94FF1F21
:100180000C9414050C94F11F0C9475050C94C61F67
:100190000C94B9230C9423050C94CD1F0C941819BE
:1001A0000C9463050C942C050C94F03E0C94900573
:1001B0000C9493050C94D51F0C94BC1F0C94291916
:1001C0000C9417050C94461F0C9487050C945A1F29
:1001D0000C9469050C94E91F0C941A050C946C0599
:1001E0000C9407190C9426050C94DB1F0C947223B5
:1001F0000C9496050C942F050C94FB1F0C946F0522
:100200000C94A3290C94681F4C454420437570201E
:1002100048616E646C65202D204F46460072656112
:1002200064206565702E2063757020737461636B44
:10023000657220706F732E203D20004F4B00437578
:100240007020737461636B6572203E3E204F4B00DB
:10025000454D5054590043757020737461636B654C
:1002600072203E3E20456D707479004F4646004F27
:100270004E004F4B00504F574552204F4E00232306
:1002800023206D696E69436F66666565204861630A
:100290006B20762E333033203E3E205374617274CF
:1002A0002E2E007772697465206565702E20697442
:1002B000656D5F70726963655B004F726465722083
:1002C0004E6F2E2069732057726F6E6720212100B8
:1002D0006D616B655369676E616C546F436F696ED6
:1002E000203E3E20556E7375636365737320212134
:1002F000004F72646572205061796F7574203E3EC4
:10030000204F4B004F72646572205061796F757495
:10031000203E3E2054696D656F7574002000554E77
:1003200053554343455353005472616E7361637474
:10033000696F6E203E3E20554E53554343455353FF
:10034000200053554343455353005472616E73610B
:100350006374696F6E203E3E2053554343455353AB
:100360002000454D505459004375702073746163EB
:100370006B6572203E3E20456D707479004F4B00D6
:1003800043757020737461636B6572203E3E204F2D
:100390004B004F4E00426F696C6572203E3E20500C
:1003A0006F776572204F4E004F464600426F696C72
:1003B0006572203E3E20506F776572204F464600A2
:1003C0004C4F57005761746572204C6576656C2000
:1003D0003E3E204C4F57004F4B00576174657220D2
:1003E0004C6576656C203E3E204F4B004F464600E4
:1003F00050756D70203E3E20436C6F736500455212
:10040000524F520050756D70203E3E204572726F03
:1004100072004F4E0050756D70203E3E204F70654B
:100420006E007772697465206565702E2063757043
:1004300020737461636B657220706F732E203D2092
:100440000072656164206565702E206974656D5F5A
:1004500070726963655B00300030300045004F4BBF
:10046000004F50454E00434C4F5345005365742098
:1004700050756D702031202D204F4E005365742033
:1004800050756D702031202D204F464600736574E5
:100490004C45444974656D53656C6563745077725F
:1004A000203E3E204E6F7420666F756E64202121C1
:1004B0000064617461203E3E20656D707479212175
:1004C00000526573657420436F6D706F72742121E3
:1004D00000526573706F6E73652054696D656F753A
:1004E0007421210000436C6F7564426F782052655F
:1004F0007475726E203E3E205245534554000043B1
:100500006C6F7564426F782052657475726E203E10
:100510003E204552524F520000436C6F7564426F4B
:10052000782052657475726E203C3C2042555359B8
:100530000000436C6F7564426F7820526574757269
:100540006E203C3C2052656164790000436C6F75FD
:1005500064426F782052657475726E203C3C204F67
:100560004B005245414459004E4F5420524541449E
:1005700059004E4F54205245414459004E4F54208B
:100580005245414459004E4F542052454144590070
:100590004E4F54205245414459004E4F542052452D
:1005A000414459004E4F54205245414459004C4556
:1005B00044204375702048616E646C65202D204F87
:1005C0004E002D002D002D002D002D002D002D00A2
:1005D0002D002D002D002D002D002D003D003A0096
:1005E00043422B534554400023000043422B5550B7
:1005F00000230000434354414C4B00434C4F5544AF
:10060000424F5800434354414C4B2D4445564943B7
:10061000450000002100240027002A002D003000A2
:10062000330001010000040107010A01000022005B
:10063000250028002B002E003100340002010000AC
:10064000050108010B0100002000230026002900FD
:100650002C002F00320000010000030106010901F7
:1006600005050505070508080808020202020A0A2E
:10067000080804040404010101010101010103034C
:10068000030303030303040707070C0C0C0C0C0CF7
:100690000C0C0202020206060606060606060B0BF4
:1006A0000B0B0B0B0B0B0102102020080810204035
:1006B0001020408002010201080402010102040826
:1006C00010204080804020100804020180040201B4
:1006D00080402010080402010804020101020408FD
:1006E00010204080010204081020408000000A0B06
:1006F00002090C0D0E0807030401000000000000B1
:1007000000000000000000000000000000000000E9
:1007100000000000000000001211100000000000A6
:1007200000000000000000000000000000000000C9
:1007300000003000003A003A0000F339F03E112486
:100740001FBECFEFD1E2DEBFCDBF00E00CBF16E091
:10075000A0E0B2E0E4EFFDE800E00BBF02C00790CC
:100760000D92AC37B107D9F72DE0ACE7B6E001C088
:100770001D92A634B207E1F713E0CEE9D3E000E022
:1007800006C021970109802FFE010E94E43FCD3968
:10079000D10780E00807A9F70E945B2D0C94E8467A
:1007A0000C940000CF9380910802833009F4D9C1E2
:1007B00034F4813059F0823009F46AC178C284304F
:1007C00009F4E8C1853009F43CC271C22091AA063F
:1007D0003091AB062115310509F40DC18091D90C7A
:1007E0009091DA0C2817390761F1203553EC350761
:1007F00030F420348CE9380738F0C90102C08FE4A6
:1008000093EC80549C4919C0203395E7390720F0B8
:10081000C9018053954711C020325EE4350720F0AE
:10082000C90180529E4409C0203187E2380720F078
:10083000C9018051974201C0C9019093DA0C80939D
:10084000D90C4091CC0C4130E1F038F0423009F441
:1008500057C0433009F48CC0C1C06AE070E00E9408
:100860009A3FFC01E254F34F83812031374208F074
:100870008F7D90E09093D00C8093CF0C8DEF90E023
:10088000A9C020323E4420F18A30910568F064E628
:1008900070E00E949A3F6AE070E00E949A3FFB017C
:1008A000E254F34F838102C08091C10C90E0909399
:1008B000D00C8093CF0C8091CF0C9091D00C8F7D79
:1008C00099279093D00C8093CF0C8FEE90E082C04C
:1008D0008A30910570F064E670E00E949A3F6AE009
:1008E00070E00E949A3FFB01E254F34F838190E055
:1008F000E8CF8FEF90E09093D00C8093CF0C6AC03C
:100900002033354720F18436910568F068EE73E0B6
:100910000E949A3F64E670E00E949A3FFB01E25415
:10092000F34F838102C08091C10C90E09093D00C72
:100930008093CF0C8091CF0C9091D00C8F7D992714
:100940009093D00C8093CF0C87EF90E043C0843617
:10095000910578F268EE73E00E949A3F64E670E0D9
:100960000E949A3FFB01E254F34F838190E0E8CF6D
:1009700020343C49D8F0883E23E0920748F068EEE6
:1009800073E00E949A3FFB01E254F34F838102C05F
:100990008091C10C90E09093D00C8093CF0C80910B
:1009A000CF0C9091D00C8F7D99270EC0883E53E0DC
:1009B000950708F49ECF68EE73E00E949A3FFB0112
:1009C000E254F34F838190E09093D00C8093CF0C4E
:1009D0008BEF90E09093D20C8093D10C4F5F44301A
:1009E00018F44093CC0C02C01092CC0C8FEC9CE01D
:1009F000CF910C948B288091D30C9091D40C0197BB
:100A00009093D40C8093D30C892B09F050C1809122
:100A1000CB0C90E08830910550F5FC018827EE580A
:100A2000FF4F8F4F0C94E43F8BEF90E005C087EFB2
:100A300090E017C08FEE90E09093D20C8093D10C91
:100A40000E94D02814C08DEF90E00BC08DEF90E095
:100A5000F3CF8FEE90E005C087EF90E0EDCF8BEF06
:100A600090E09093D20C8093D10C0E94DA28809170
:100A7000CB0C8F5F883018F48093CB0C02C010929F
:100A8000CB0C86E990E09093D40C8093D30C0FC1EB
:100A90008091D50C9091D60C01979093D60C8093B1
:100AA000D50C892B09F003C19091CE0C492F50E051
:100AB0004C30510508F046C0FA018827E658FF4F30
:100AC0008F4F0C94E43F2EEF30E032C02EEF30E039
:100AD00020C02EEF30E014C02EEF30E008C02BEF26
:100AE00030E005C02FEE30E002C02FEB30E0309355
:100AF000D00C2093CF0C2DEF30E020C02FEB30E056
:100B00003093D00C2093CF0C2FEE30E017C02FEB9A
:100B100030E03093D00C2093CF0C27EF30E00EC0A4
:100B20002FEB30E005C02FE730E002C02DEF30E0C2
:100B30003093D00C2093CF0C2BEF30E03093D20CBD
:100B40002093D10C24E130E03093D60C2093D50CC7
:100B50009F5F9C3018F49093CE0C48CF1092CE0C2F
:100B600045CFC091D206C13059F008F474C0C230EC
:100B700061F0C33011F56DEF70E08BE590E01BC0C4
:100B800067EF70E082EC90E016C06FEE70E087EDEA
:100B900090E011C08091AF0C882309F44DC0082E5D
:100BA000000C990BC091D206C130A9F078F46BEF1C
:100BB00070E08BEC90E00E94F428CF5FC093D206E7
:100BC000C43008F474C01092D20671C0C23041F033
:100BD000C330E1F0F2CF67EF70E083EE90E0EBCF4F
:100BE0008F3F2FEF920709F440C0843691051CF027
:100BF0006FEE70E017C08A309105BCF16AE070E0DA
:100C00000E94AE3FCB016FEE70E033C08F3F5FEFCD
:100C1000950719F46DEF70E02AC0843691052CF029
:100C20006DEF70E089E090E024C06AE070E00E941F
:100C3000AE3F6DEF70E01DC08091A9068093080261
:100C400036C0C091D206C13059F028F0C23069F0E8
:100C5000C33091F0B2CF6BEF70E083EC90E0ABCF9C
:100C600067EF70E088E090E0A6CF6FEE70E080E084
:100C700090E00E94E428A1CF8091050283FD05C089
:100C80006DEF70E081E090E0F4CF82FD05C06DEF84
:100C900070E082E090E0EDCF84FD05C06DEF70E084
:100CA00083E090E0E6CF81E08093080286CFCF9189
:100CB000089583E00E94DB2321E0892B09F020E0E6
:100CC000822F0895CF93DF9300D000D0CDB7DEB749
:100CD000FC01EC57F94F20812617F9F06083823030
:100CE000910539F08330910531F0019741F484E3A7
:100CF00003C083E301C08FE20E9404240EC06DE8AC
:100D000074E0CE0101960E949C2BCE0101960E94B8
:100D1000E62CCE0101960E94122B26960FB6F8946F
:100D2000DEBF0FBECDBFDF91CF91089560E081E0BF
:100D300090E00E94620660E082E090E00E9462061D
:100D400060E083E090E00C9462060F931F93CF93D2
:100D5000DF938C01C1E0D0E0C017D10711F461E04E
:100D600001C060E0CE010E9462062196C430D10528
:100D700099F7DF91CF911F910F910895E1E8F0E08D
:100D800090818091CC08892B80830895109208026D
:100D9000E1E8F0E08081887F80830895CF92DF9240
:100DA000EF92FF920F931F936B017C010E94052D20
:100DB00000919C0610919D0620919E0630919F0601
:100DC000601771078207930750F40E94052D609306
:100DD0009C0670939D0680939E0690939F060E94AA
:100DE000052D00919C0610919D0620919E06309144
:100DF0009F06AB01BC01401B510B620B730B81E0E2
:100E0000C416D506E606F70608F080E01F910F919C
:100E1000FF90EF90DF90CF900895E0E9F6E0118227
:100E2000128213821092A5061092A7061092A606AF
:100E3000EEEBFCE0158686E990E0968B858B108AB8
:100E400084E190E0908F878B08951F93CF93DF9379
:100E500000D000D0CDB7DEB7182F8CE20E94DB2384
:100E600021E0892B09F420E0121721F1112381F0F0
:100E70006CE674E0CE0101960E949C2BCE01019697
:100E80000E94E62CCE0101960E94122B61E00FC059
:100E90006CE774E0CE0101960E949C2BCE01019676
:100EA0000E94E62CCE0101960E94122B60E08CE29B
:100EB0000E94042426960FB6F894DEBF0FBECDBF65
:100EC000DF91CF911F9108958F929F92AF92BF9221
:100ED000EF92FF921F93CF93DF9300D000D0CDB756
:100EE000DEB780E30E94DB2311E0892B09F410E0D8
:100EF0008091D106181761F00E94052D6093CD06F0
:100F00007093CE068093CF069093D0061093D106AF
:100F10000E94052D8090CD069090CE06A090CF0621
:100F2000B090D006DC01CB0188199909AA09BB0948
:100F3000893E9340A105B10558F40E94052D68151E
:100F400079058A059B0520F080910C02882389F1A0
:100F50002091050230910602812F90E021FBEE24C2
:100F6000E0F8F12C8E159F0521F480910C02882366
:100F700001F1112311F0226001C02D7F3093060290
:100F8000209305028091050281FF03C066E674E0AC
:100F900002C061E674E0CE0101960E949C2BCE0156
:100FA00001960E94BA18CE0101960E94122B10924F
:100FB0000C02812F26960FB6F894DEBF0FBECDBF70
:100FC000DF91CF911F91FF90EF90BF90AF909F90D6
:100FD0008F9008951F93CF93DF93CDB7DEB76897B7
:100FE0000FB6F894DEBF0FBECDBF1091AF0C11113C
:100FF00018C06EE574E0CE0101960E949C2BCE01D4
:1010000001960E948018CE0101960E94122B8091B9
:101010000502909106028062909306028093050279
:101020007EC06CE574E0CE0101960E949C2B1F3FB0
:1010300029F5BE016F5F7F4FCE0107960E94D42B2A
:1010400069E574E0CE0107960E94202A811104C050
:10105000CE0107960E94852ABE01695F7F4FCE01AF
:101060000D960E94D42BCE010D960E948018CE01C1
:101070000D960E94122BCE01079642C0612F012EC1
:10108000000C770B4AE0CE010D961A30B4F40E94A2
:10109000432BBE016F5F7F4FCE0107960E94D42B7A
:1010A00067E574E0CE0107960E94202A81110EC0E8
:1010B000CE0107960E94852A09C00E94432BBE01DB
:1010C0006F5F7F4FCE0107960E94D42BBE01635FF6
:1010D0007F4FCE0107960E94B02ABC01CE014396F5
:1010E0000E94D42BCE0143960E948018CE014396D5
:1010F0000E94122BCE0107960E94122BCE010D9654
:101100000E94122B80910502909106028F7D909390
:10111000060280930502CE0101960E94122B68966A
:101120000FB6F894DEBF0FBECDBFDF91CF911F91F8
:1011300008955F926F927F928F929F92AF92BF922B
:10114000CF92DF92EF92FF920F931F93CF93DF9393
:10115000CDB7DEB7A0970FB6F894DEBF0FBECDBFF8
:1011600066246394712C552453948E010F5F1F4F96
:1011700096E4E92E93E0F92E22E3C22E23E0D22E4C
:1011800082E0681629F093E0691621F082E303C03B
:1011900085E301C081E30E94DB2321E0892B09F470
:1011A00020E0F301E457F94F4F012083C301885732
:1011B000994F5C01FC0180818217E9F0211109C07F
:1011C000F301E057F94F50827F926F92DF92CF92F6
:1011D00004C07F926F92FF92EF921F930F930E9431
:1011E00069420F900F900F900F900F900F90F401A5
:1011F0008081F5018083FFEF6F1A7F0A84E0681613
:10120000710409F0BDCFA0960FB6F894DEBF0FBEF3
:10121000CDBFDF91CF911F910F91FF90EF90DF90A5
:10122000CF90BF90AF909F908F907F906F905F9086
:101230000895CF93DF93CDB7DEB768970FB6F894D4
:10124000DEBF0FBECDBF62E274E0CE0101960E9408
:101250009C2B6091A80680E190E00E94DA466AE04B
:1012600070E080E090E00E9470246091A806062E55
:10127000000C770B4AE0CE010D960E94432BBE0175
:101280006F5F7F4FCE0107960E94D42BBE01635F34
:101290007F4FCE0107960E94B02ABC01CE01439633
:1012A0000E94D42BCE0143960E94E62CCE01439699
:1012B0000E94122BCE0107960E94122BCE010D9692
:1012C0000E94122BCE0101960E94122B68960FB637
:1012D000F894DEBF0FBECDBFDF91CF910895E4E952
:1012E000F6E082819381883E934010F0138212824F
:1012F000329686E0EA39F807A1F708958F929F9217
:10130000AF92BF92CF92DF92EF92FF921F93CF9353
:10131000DF93CDB7DEB762970FB6F894DEBF0FBE8E
:10132000CDBF86E9A82E86E0B82E92EAE92E96E097
:10133000F92E11E02AE0C22ED12CC6010E94D2461D
:10134000982EC60101960E94D246292D30E0A901AF
:10135000582BCA014501F5015183408320910502B4
:1013600030910602F701892BD9F48081806880834F
:10137000123039F0133071F02F7B30930602209336
:10138000050280910502909106029E7F90930602CD
:101390008093050280910502909106029B7F1AC0FE
:1013A00080818F778083123039F0133071F02064A0
:1013B0003093060220930502809105029091060267
:1013C00091609093060280930502809105029091AE
:1013D0000602946090930602809305020E946F09B2
:1013E00061E474E0CE010D960E949C2B4AE0612FCF
:1013F000CE0107960E946F2BBE01695F7F4FCE0121
:1014000001960E94D42B6CE472E0CE0101960E94FA
:10141000972ABC01CE010D960E947E2ACE0101962C
:101420000E94122BCE0107960E94122BF2E0AF0E03
:10143000B11CF401608171814AE0CE0101960E94E5
:10144000172BBE016F5F7F4FCE010D960E947E2A43
:10145000CE0101960E94122BBE01635F7F4FCE0129
:1014600001960E94D42BCE0101960E94E62CCE015B
:1014700001960E94122BCE010D960E94122BF2E0D3
:10148000CF0ED11C1F5F4FEFE41AF40A143009F09D
:1014900054CF62960FB6F894DEBF0FBECDBFDF917A
:1014A000CF911F91FF90EF90DF90CF90BF90AF90C2
:1014B0009F908F90089585E30E94DB2321E0892B84
:1014C00009F420E0822F0895CF92DF92EF92FF92ED
:1014D0000F931F93CF93DF9300D000D0CDB7DEB72B
:1014E0008DE10E94DB232091C80630E0821793072C
:1014F00099F08DE10E94DB2321E0892B09F420E0A3
:101500002093C8060E94052D6093C4067093C506FB
:101510008093C6069093C7060E94052DC090C4060E
:10152000D090C506E090C606F090C706DC01CB015E
:101530008C199D09AE09BF098D329140A105B105F5
:1015400028F480910A02882309F46CC08DE10E947E
:10155000DB232091050230910602892B11F02061D6
:1015600001C02F7E309306022093050220910502D0
:101570008091C30690E024FB002700F910E080175B
:10158000910729F480910A02882309F45CC024FFA2
:101590001DC06AED73E0CE0101960E949C2BCE0126
:1015A00001960E94E62CCE0101960E94122B67ED57
:1015B00073E0CE0101960E949C2BCE0101960E9401
:1015C000191ACE0101960E94122B23C064EC73E01D
:1015D000CE0101960E949C2BCE0101960E94E62C22
:1015E000CE0101960E94122B60EC73E0CE010196B1
:1015F0000E949C2BCE0101960E94191ACE010196E1
:101600000E94122B809108028093A90685E08093A6
:10161000080280910502829581708093C306109222
:101620000A0211C00E94052D6C157D058E059F05CF
:1016300050F40E94052D6093C4067093C5068093F4
:10164000C6069093C7068091050284FD34C08CE2E3
:101650000E94DB23892B79F580910B02882359F1B5
:1016600081E00E94250765E174E0CE0101960E94A9
:101670009C2BCE0101960E94E62CCE0101960E9481
:10168000122B62E174E0CE0101960E949C2B60E077
:10169000CE0101960E94DD17CE0101960E94122B09
:1016A0000E94052D6093C9067093CA068093CB06ED
:1016B0009093CC0682C08CE20E94DB23892B09F434
:1016C0007CC08091050284FD39C00E94052D0091E7
:1016D000C9061091CA062091CB063091CC06DC01D8
:1016E000CB01801B910BA20BB30B81349C49A1054C
:1016F000B10508F462C080E00E94250764E074E050
:10170000CE0101960E949C2BCE0101960E94E62CF0
:10171000CE0101960E94122B6EEF73E0CE0101966E
:101720000E949C2B61E0CE0101960E94DD17CE0144
:1017300001960E94122B10920B023FC00E94052DB1
:10174000C090C906D090CA06E090CB06F090CC06B7
:10175000DC01CB018C199D09AE09BF0981349C497C
:10176000A105B10538F40E94052D6C157D058E0587
:101770009F0518F580E00E94250760EF73E0CE0119
:1017800001960E949C2BCE0101960E94E62CCE0170
:1017900001960E94122B6CEE73E0CE0101960E941E
:1017A0009C2B61E0CE0101960E94DD17CE010196CF
:1017B0000E94122B81E080930B0226960FB6F894BC
:1017C000DEBF0FBECDBFDF91CF911F910F91FF9074
:1017D000EF90DF90CF900895CF92DF92EF92FF923B
:1017E0001F93CF93DF93C82F0E94052D6B017C01BF
:1017F00010E0D0E00E94640A0E94D00DCE010E9449
:101800006C140E94052D6C157D058E059F0520F436
:101810000E94052D6B017C010E94052DDC01CB018E
:101820008C199D09AE09BF09893C9105A105B10537
:1018300058F48FE10E94DB23892BE1F20E94052DF1
:101840006B017C0111E0D6CF812FDF91CF911F91E9
:10185000FF90EF90DF90CF9008950F931F9385E254
:101860000E94DB23892B61F40E94052D60937C0686
:1018700070937D0680937E0690937F0681E027C05B
:101880000E94052D00917C0610917D0620917E0618
:1018900030917F06DC01CB01801B910BA20BB30BB7
:1018A000853F9140A105B10588F40E94052D009166
:1018B0007C0610917D0620917E0630917F06601790
:1018C00071078207930710F08FEF01C080E01F912E
:1018D0000F9108950F931F93CF93DF9300D000D003
:1018E000CDB7DEB70E942D0C209105023091060283
:1018F000811102C0286003C0813029F4277F309312
:10190000060220930502209105028091C20690E014
:1019100023FB002700F910E08017910729F480913C
:101920000902882309F44BC023FF1DC06CEA73E051
:10193000CE0101960E949C2BCE0101960E94E62CBE
:10194000CE0101960E94122B68EA73E0CE01019647
:101950000E949C2BCE0101960E94DF19CE010196B8
:101960000E94122B23C065E973E0CE0101960E940C
:101970009C2BCE0101960E94E62CCE0101960E947E
:10198000122B62E973E0CE0101960E949C2BCE01DE
:1019900001960E94DF19CE0101960E94122B8091C0
:1019A00008028093A90685E08093080280910502D1
:1019B00083FB882780F98093C2061092090226963D
:1019C0000FB6F894DEBF0FBECDBFDF91CF911F9150
:1019D0000F91089561E085E00C940424CF92DF928A
:1019E000EF92FF920F931F93CF93DF93CDB7DEB7A4
:1019F00062970FB6F894DEBF0FBECDBF0E945906A6
:101A0000811106C061E086E00E940424F12C06C02A
:101A100060E086E00E940424FF24F39460E085E007
:101A20000E9404240E944C1B00E010E0EE24E3948A
:101A30008BE9C82E8FE0D82E0E94640A0E94D00D38
:101A400083E20E94DB23892B69F066E173E0CE011B
:101A500001960E94DD2BCE0101960E94E62CCE015C
:101A6000019657C061E087E00E940424C6010197F7
:101A7000F1F760E087E00E940424C6010197F1F7C6
:101A80000E945906882311F0E11031C0FF2009F4AB
:101A90007CC00E945906811176C081E08093A8061F
:101AA0004AE0B801CE0107960E94172B60E773E069
:101AB000CE0101960E94DD2BBE01695F7F4FCE01F2
:101AC00001960E94B02ABC01CE010D960E94D42B33
:101AD000CE010D960E94E62CCE010D960E94122B8F
:101AE000CE0101960E94122BCE01079612C00E94D1
:101AF000EA0C6CE271E080E090E00E94702460E00B
:101B000086E00E94042460E085E00E940424E12C29
:101B1000C0CF0E94122B0E94EA0C0E94190960910A
:101B2000A806633681F46CE573E0CE0101960E944D
:101B3000DD2BCE0101960E94E62CCE0101960E947B
:101B4000122B6091A806062E000C770B4AE0CE01FE
:101B500001960E94432B61E0CE0101960E94531A28
:101B6000CE0101960E94122B62960FB6F894DEBF4A
:101B70000FBECDBFDF91CF911F910F91FF90EF90DE
:101B8000DF90CF900895FF24F3940F5F1F4F093823
:101B900083E1180709F050CF83E68093A806BBCFF6
:101BA000CF92DF92EF92FF920F931F93CF93DF9329
:101BB000CDB7DEB762970FB6F894DEBF0FBECDBFCC
:101BC0009091EF088091F008992309F44BC08F3F62
:101BD00041F40E94161B882309F488C11092EF0873
:101BE00085C10E94161B882309F480C11092EF085A
:101BF00061ED74E0CE0101960E949C2BCE0101960E
:101C00000E940229CE0101960E94122B8091F108B8
:101C10008F5F8093F1088B3008F45EC061EC74E054
:101C2000CE0101960E949C2BCE0101960E940229B2
:101C3000CE0101960E94122B40E052EC61E070E070
:101C40008091ED089091EE080E94AF1A8091ED0806
:101C50009091EE08DC01ED91FC910284F385E02D7A
:101C600019953AC08430E1F568E773E0CE0101963A
:101C70000E94DD2BCE0101960E940229CE01019621
:101C80000E94122B64EA75E08091ED089091EE08B5
:101C90000E94F22B8091ED089091EE08DC01ED910D
:101CA000FC910284F385E02D199564E670E080E0F4
:101CB00090E00E94702461E088E00E9404240E9469
:101CC000052D6093F6087093F7088093F8089093B9
:101CD000F90881E08093EF088FEF8093F00806C148
:101CE0008F3F39F567E873E088E09CE00E94E42AC2
:101CF00040E052EC61E070E08091ED089091EE08D8
:101D00000E94AF1A67E873E08091ED089091EE08A9
:101D10000E94F22B8091ED089091EE08DC01ED918C
:101D2000FC910284F385E02D199581E08093EF0802
:101D3000B4C4823039F10E94052D0091FE08109143
:101D4000FF082091000930910109DC01CB01801BC3
:101D5000910BA20BB30B89389341A105B10508F093
:101D600076C40E94052D0091FE081091FF08209175
:101D7000000930910109601771078207930708F481
:101D800066C4B4C08091F2089091F3082091F408E1
:101D90003091F508821B930B8F779927892B09F4D3
:101DA0007FC08091F4089091F50816E0189FF0012B
:101DB000199FF00D1124EE5FF64F84819581892BD8
:101DC00009F45AC08091F4089091F508189FB00169
:101DD000199F700D11246E5F764F8091ED089091E0
:101DE000EE080E94062C8091ED089091EE08DC012F
:101DF000ED91FC910284F385E02D1995E090F408B3
:101E0000F090F50860E973E0CE0101960E94DD2BA9
:101E10001E9DB0011F9D700D11246E5F764FCE0187
:101E200001960E94B02ABC01CE0107960E94D42BD5
:101E3000CE0107960E940229CE0107960E94122B1E
:101E4000CE0101960E94122B81E08093EF080E9440
:101E5000052D6093F6087093F7088093F808909327
:101E6000F9080E94052D6093FA087093FB0880938F
:101E7000FC089093FD080EC061EB74E0CE01019662
:101E80000E949C2BCE0101960E940229CE01019650
:101E90000E94122B68E973E088E09CE00E94E42A2B
:101EA0000E94052D0091FA081091FB082091FC0872
:101EB0003091FD08DC01CB01801B910BA20BB30B11
:101EC00089389341A105B10508F0F2C30E94052DA0
:101ED0000091FA081091FB082091FC083091FD0850
:101EE000601771078207930708F4E2C38091ED0839
:101EF0009091EE08DC01ED91FC910480F581E02DDC
:101F00001995892B09F478C18091ED089091EE081C
:101F1000DC01ED91FC910680F781E02D1995182FD9
:101F200089831A8241E050E0BE016F5F7F4F82E0FB
:101F30009CE00E94502A1092F1081D3009F05CC10B
:101F40006DE973E0CE0107960E94DD2B62E07CE034
:101F5000CE0107960E94B02ABC01CE0101960E94D4
:101F6000D42BCE0101960E940229CE0101960E9437
:101F7000122BCE0107960E94122B80910C0C90918F
:101F80000D0C892B79F168E973E08091080C909130
:101F9000090C0E943F42892B29F58091020C9091F7
:101FA000030C009719F00E94404503C060E070E008
:101FB000CB012091F4083091F508890120E030E050
:101FC000601771078207930709F010C18091F40828
:101FD0009091F50801968F7799279093F508809353
:101FE000F40802C164EA75E0CE0101960E94DD2B7F
:101FF000CE0101960E94931A8C01CE0101960E9497
:10200000122B0F3F1F4F79F16CE475E0CE01019662
:102010000E949C2BCE0101960E940229CE010196BE
:102020000E94122B6BE475E0CE0101960E949C2B5E
:10203000CE0101960E940229CE0101960E94122B28
:1020400080910C0C90910D0C892B09F4CDC067E8A0
:1020500073E08091080C9091090C0E943F42892BFB
:1020600009F48FC0C1C06CEF73E0CE0101960E94ED
:10207000DD2BCE0101960E94931A8C01CE010196B0
:102080000E94122B0F3F1F4FF1F062E375E0CE016B
:1020900001960E949C2BCE0101960E940229CE013E
:1020A00001960E94122B61E375E0CE0101960E9419
:1020B0009C2BCE0101960E940229CE0101960E941E
:1020C000122B82E08FC066EA73E0CE0101960E9477
:1020D000DD2BCE0101960E94931A8C01CE01019650
:1020E0000E94122B0F3F1F4FF1F069E175E0CE0106
:1020F00001960E949C2BCE0101960E940229CE01DE
:1021000001960E94122B68E175E0CE0101960E94B3
:102110009C2BCE0101960E940229CE0101960E94BD
:10212000122B83E05FC067EF72E0CE0101960E9440
:10213000DD2BCE0101960E94931A8C01CE010196EF
:102140000E94122B0F3F1F4FF1F06FEF74E0CE0192
:1021500001960E949C2BCE0101960E940229CE017D
:1021600001960E94122B6EEF74E0CE0101960E9440
:102170009C2BCE0101960E940229CE0101960E945D
:10218000122B81E02FC06BEA73E0CE0101960E9412
:10219000DD2BCE0101960E94931A8C01CE0101968F
:1021A0000E94122B0F3F1F4F09F165EE74E0CE0124
:1021B00001960E949C2BCE0101960E940229CE011D
:1021C00001960E94122B64EE74E0CE0101960E94EB
:1021D0009C2BCE0101960E940229CE0101960E94FD
:1021E000122B84E08093F0081092EF086CE576E003
:1021F00082E09CE00E94E42A0E946407209105028C
:10220000309106028091D8069091D90682179307E3
:1022100009F469C08091040221FD06C0882309F4F5
:1022200058C064EA75E01CC025FD06C0882309F487
:1022300050C06AE975E014C0A90140745570452B7F
:1022400031F4882309F445C060E975E009C0A901AB
:1022500040785A70452BA1F48823D9F166E875E0DF
:10226000CE0101960E949C2B60E0CE0101960E9457
:102270008115CE0101960E94122B1092040229C0F2
:1022800022FD05C0882329F16CE775E0E9CF23FD25
:1022900005C08823F1F062E775E0E2CF24FD05C0B8
:1022A0008823B9F068E675E0DBCF813091F062E613
:1022B00075E0CE0101960E949C2B60E0CE01019654
:1022C0000E948115CE0101960E94122B81E080931D
:1022D00004020E94BD148091050290910602909321
:1022E000D9068093D80687E20E94DB23892B59F414
:1022F0000E94052D6093800670938106809382066C
:102300009093830617C00E94052D009180061091BE
:1023100081062091820630918306DC01CB01801B6F
:10232000910BA20BB30B813D9740A105B10510F4B1
:102330000E94052D0E942D0C8091A006882329F172
:102340000E94052D6093DB067093DC068093DD060A
:102350009093DE068091DA06811115C06EEA75E071
:10236000CE0101960E949C2BCE0101960E94E62C84
:10237000CE0101960E94122B61E08EE20E9404249D
:1023800081E08093DA061092A0068091DA06882315
:10239000D9F10E94052DC090DB06D090DC06E090BC
:1023A000DD06F090DE06DC01CB018C199D09AE093B
:1023B000BF0989389341A105B105A8F068E072E032
:1023C000CE0101960E949C2BCE0101960E94E62C24
:1023D000CE0101960E94122B60E08EE20E9404243E
:1023E0001092DA0611C00E94052D6C157D058E0530
:1023F0009F0550F40E94052D6093DB067093DC0668
:102400008093DD069093DE068091EE06882321F00E
:102410000E9499081092EE068091ED06882309F437
:1024200093C08091AF0C81118DC08091B80C88232E
:1024300009F488C08091B50C8F5F8093B50C823011
:1024400008F480C082E090E09093FC0C8093FB0C39
:102450001092FD0C81E090E09093FF0C8093FE0CB5
:1024600085EE90E09093010D8093000D88E18093BC
:102470000A0D0E94462581E08093360D60E085E0DC
:102480000E94AA24F82E882309F40DC26CE576E098
:10249000CE010D960E94DD2B0E944C1DE12CD12C0B
:1024A0000E2D1D2D8091F10C9091F20CDC01ED911F
:1024B000FC910480F581E02D1995892B09F429C13F
:1024C0000031110509F047C190E1E92ED12C23C15B
:1024D00080911B0D882309F496C180911A0D28174D
:1024E00009F4A5C180911B0D0E94F4188C01809104
:1024F0001A0D8093370D0F3F09F49CC18091AA0CEF
:102500009091AB0C800F911D07FD9A959093AB0CA9
:102510008093AA0C8091B70C882391F064ED73E04E
:10252000CE0101960E94DD2BCE0101960E94A325CB
:10253000CE0101960E94122B0E940A261092B70C1F
:102540001092B50C1092ED068091EC06882399F05C
:102550008CE00E94DB2361E0892B09F060E08CE0D5
:102560000E9404248CE00E94DB23682F8DE00E94EF
:1025700004241092EC068091EB0681111092EB0678
:102580000E94052D6093E7067093E8068093E906A4
:102590009093EA06C090E306D090E406E090E5064A
:1025A000F090E6068B019C010C191D092E093F09CC
:1025B0000230110521053105D8F12091E2062C19D0
:1025C000260F2093E2066093E3067093E40680935F
:1025D000E5069093E6062A3008F46FC11092E206F1
:1025E0009091E1069F5F9093E10681E08093EE0673
:1025F0009A3008F462C11092E1069091E0069F5F64
:102600009093E0068093ED06953008F456C1109241
:10261000E0069091DF069F5F9093DF068093EC06C3
:10262000923008F44AC11092DF068093EB0645C150
:102630006C157D058E059F0508F03FC16093E3068C
:102640007093E4068093E5069093E60636C169EF41
:1026500073E088E09CE00E94E42A69EF73E08091D7
:10266000ED089091EE080E94F22B8091ED08909178
:10267000EE08DC01ED91FC910284F385E02D1995C3
:1026800081E08093EF080E94052D6093FE0870930F
:10269000FF0880930009909301090E94052D609323
:1026A000F6087093F7088093F8089093F9081ECC09
:1026B00069EF73E088E09CE00E94E42A69EF73E030
:1026C0008091ED089091EE080E94F22B8091ED0828
:1026D0009091EE08DC01ED91FC910284F385E02DF0
:1026E000199581E08093EF080E94052D6093F6080C
:1026F0007093F7088093F8089093F9080E94052DCD
:102700006093FA087093FB088093FC089093FD088F
:10271000EDCBE02ED12E0E94571D882381F061EB76
:1027200073E0CE0101960E94DD2BCE0101960E943E
:102730002B1DCE0101960E94122BF12C04C00031FA
:10274000110509F0ADCECE010D960E94122BFF208F
:1027500009F4A9C035C08091F10C9091F20CDC0114
:10276000ED91FC910680F781E02D1995E82E4AE065
:10277000682FCE0101960E946F2BBE016F5F7F4FC5
:10278000CE0107960E94D42B63E075E0CE01079638
:102790000E94972ABC01CE010D960E947E2ACE018E
:1027A00007960E94122BCE0101960E94122BF8016F
:1027B000E151F34FE7A20F5F1F4F0E944C1D72CEF5
:1027C00080911A0D2091370D90E0821B910902979C
:1027D0000CF47ECEF0901A0DF21AEF2DEE0F00E001
:1027E00010E08EEFE82EEE0EFF2009F480CEED5FB4
:1027F000F0E0E151F34F87A10E94F418080F191F70
:10280000FA94EE2DEECF80911A0D281310C080910E
:102810001C0D8E3051F48091390D8F5F8093390DEE
:10282000853128F01092390D05C01092390D00E065
:1028300010E05DCE4AE06091B70CCE0107960E9491
:102840006F2B69ED73E0CE010D960E94DD2BBE016A
:10285000695F7F4FCE010D960E94B02ABC01CE0168
:1028600001960E94D42BCE0101960E94A325CE0191
:1028700001960E94122BCE010D960E94122BCE01C2
:1028800007960E94122B8091B70C8F5F8093B70C34
:102890008B3008F455CE0E94C42581E08093B80C9B
:1028A0000E945A264BCE4AE06091B70CCE010796A3
:1028B0000E946F2B62E074E0C6CF62960FB6F89468
:1028C000DEBF0FBECDBFDF91CF911F910F91FF9063
:1028D000EF90DF90CF9008950F931F93CF93DF93E6
:1028E000EC010E94052D0091D4061091D50620918F
:1028F000D6063091D706DC01CB01801B910BA20BD1
:10290000B30B8D329140A105B105C8F08091D3067B
:10291000811107C0CE010E94A50681E08093D306F5
:1029200004C00E9496061092D3060E94052D609363
:10293000D4067093D5068093D6069093D7060E944E
:10294000052D0091D4061091D5062091D606309120
:10295000D706601771078207930750F40E94052D70
:102960006093D4067093D5068093D6069093D706CD
:10297000DF91CF911F910F910895CF93DF93CDB742
:10298000DEB72C970FB6F894DEBF0FBECDBF63EF56
:1029900075E0CE0107960E949C2B61EF75E0CE0199
:1029A00007960E94202A6091F2087091F3084AE08D
:1029B000CE0101960E94172BBE016F5F7F4FCE01A3
:1029C00007960E947E2ACE0101960E94122B6BEE82
:1029D00075E0CE0107960E94202ABE01695F7F4FF5
:1029E000CE0101960E94D42BCE0101960E9423298C
:1029F000CE0101960E94122BCE0107960E94122B47
:102A000080E02C960FB6F894DEBF0FBECDBFDF91ED
:102A1000CF910895CF92DF92EF92FF920F931F9381
:102A2000CF93DF93CDB7DEB72C970FB6F894DEBF08
:102A30000FBECDBF6C017B018A016AEE75E0CE014D
:102A400007960E949C2B68EE75E0CE0107960E94C7
:102A5000202A6091F2087091F3084AE0CE010196B5
:102A60000E94172BBE016F5F7F4FCE0107960E9419
:102A70007E2ACE0101960E94122B60EE75E0CE01F7
:102A800007960E94202AB601CE0107960E947E2A50
:102A90006EED75E0CE0107960E94202AB701CE01A7
:102AA00007960E947E2A6CED75E0CE0107960E9483
:102AB000202AB801CE0107960E947E2ABE01695FD6
:102AC0007F4FCE0101960E94D42BCE0101960E9429
:102AD0002329CE0101960E94122BCE0107960E9457
:102AE000122B80E02C960FB6F894DEBF0FBECDBF40
:102AF000DF91CF911F910F91FF90EF90DF90CF90DA
:102B00000895FF920F931F93CF93DF93CDB7DEB756
:102B100062970FB6F894DEBF0FBECDBF8C01F62EC4
:102B2000BC01CE0101960E94D42B6EE37CE0CE0165
:102B300007960E94D42B68E37CE0CE010D960E949C
:102B4000D42BAE014F5F5F4FBE01695F7F4FCE0157
:102B50000D960E940A15CE010D960E94122BCE01F1
:102B600007960E94122BCE0101960E94122BF801AB
:102B700084819581892B09F411C262E274E080811D
:102B800091810E943F42892B09F008C26AED75E0ED
:102B9000CE0101960E949C2B64E47CE0CE01079656
:102BA0000E94D42B68E37CE0CE010D960E94D42BCA
:102BB000AE014F5F5F4FBE01695F7F4FCE010D9643
:102BC0000E940A15CE010D960E94122BCE01079687
:102BD0000E94122BCE0101960E94122B68ED75E027
:102BE000CE0101960E949C2B6AE47CE0CE01079600
:102BF0000E94D42B68E37CE0CE010D960E94D42B7A
:102C0000AE014F5F5F4FBE01695F7F4FCE010D96F2
:102C10000E940A15CE010D960E94122BCE01079636
:102C20000E94122BCE0101960E94122B66ED75E0D8
:102C3000CE0101960E949C2B60E57CE0CE010796B8
:102C40000E94D42B68E37CE0CE010D960E94D42B29
:102C5000AE014F5F5F4FBE01695F7F4FCE010D96A2
:102C60000E940A15CE010D960E94122BCE010796E6
:102C70000E94122BCE0101960E94122B64ED75E08A
:102C8000CE0101960E949C2B66E57CE0CE01079662
:102C90000E94D42B68E37CE0CE010D960E94D42BD9
:102CA000AE014F5F5F4FBE01695F7F4FCE010D9652
:102CB0000E940A15CE010D960E94122BCE01079696
:102CC0000E94122BCE0101960E94122B62ED75E03C
:102CD000CE0101960E949C2B6CE57CE0CE0107960C
:102CE0000E94D42B68E37CE0CE010D960E94D42B89
:102CF000AE014F5F5F4FBE01695F7F4FCE010D9602
:102D00000E940A15CE010D960E94122BCE01079645
:102D10000E94122BCE0101960E94122B60ED75E0ED
:102D2000CE0101960E949C2B62E67CE0CE010796C4
:102D30000E94D42B68E37CE0CE010D960E94D42B38
:102D4000AE014F5F5F4FBE01695F7F4FCE010D96B1
:102D50000E940A15CE010D960E94122BCE010796F5
:102D60000E94122BCE0101960E94122B6EEC75E090
:102D7000CE0101960E949C2B68E67CE0CE0107966E
:102D80000E94D42B68E37CE0CE010D960E94D42BE8
:102D9000AE014F5F5F4FBE01695F7F4FCE010D9661
:102DA0000E940A15CE010D960E94122BCE010796A5
:102DB0000E94122BCE0101960E94122B6CEC75E042
:102DC000CE0101960E949C2B6EE67CE0CE01079618
:102DD0000E94D42B68E37CE0CE010D960E94D42B98
:102DE000AE014F5F5F4FBE01695F7F4FCE010D9611
:102DF0000E940A15CE010D960E94122BCE01079655
:102E00000E94122BCE0101960E94122B6AEC75E0F3
:102E1000CE0101960E949C2B64E77CE0CE010796D0
:102E20000E94D42B68E37CE0CE010D960E94D42B47
:102E3000AE014F5F5F4FBE01695F7F4FCE010D96C0
:102E40000E940A15CE010D960E94122BCE01079604
:102E50000E94122BCE0101960E94122B68EC75E0A5
:102E6000CE0101960E949C2B6AE77CE0CE0107967A
:102E70000E94D42B68E37CE0CE010D960E94D42BF7
:102E8000AE014F5F5F4FBE01695F7F4FCE010D9670
:102E90000E940A15CE010D960E94122BCE010796B4
:102EA0000E94122BCE0101960E94122B66EC75E057
:102EB000CE0101960E949C2B60E87CE0CE01079633
:102EC0000E94D42B68E37CE0CE010D960E94D42BA7
:102ED000AE014F5F5F4FBE01695F7F4FCE010D9620
:102EE0000E940A15CE010D960E94122BCE01079664
:102EF0000E94122BCE0101960E94122B64EC75E009
:102F0000CE0101960E949C2B66E87CE0CE010796DC
:102F10000E94D42B68E37CE0CE010D960E94D42B56
:102F2000AE014F5F5F4FBE01695F7F4FCE010D96CF
:102F30000E940A15CE010D960E94122BCE01079613
:102F40000E94122BCE0101960E94122B62EC75E0BA
:102F5000CE0101960E949C2B6CE87CE0CE01079686
:102F60000E94D42B68E37CE0CE010D960E94D42B06
:102F7000AE014F5F5F4FBE01695F7F4FCE010D967F
:102F80000E940A15CE010D960E94122BCE010796C3
:102F90000E94122BCE0101960E94122BF1100E946A
:102FA000BD1462960FB6F894DEBF0FBECDBFDF91A1
:102FB000CF911F910F91FF9008951F93CF93DF93AF
:102FC000CDB7DEB762970FB6F894DEBF0FBECDBFA8
:102FD000162FBC01CE0101960E94D42B6CE57CE03B
:102FE000CE0107960E94D42B68E37CE0CE010D96BB
:102FF0000E94D42BAE014F5F5F4FBE01695F7F4FD0
:10300000CE010D960E940A15CE010D960E94122B3C
:10301000CE0107960E94122BCE0101960E94122B20
:1030200011110E94BD1462960FB6F894DEBF0FBE58
:10303000CDBFDF91CF911F9108950F931F93CF9331
:10304000DF93CDB7DEB769970FB6F894DEBF0FBE3A
:10305000CDBF282F8B0168E37CE0CE014396298FFA
:103060000E94D42B298D223061F0233091F0213041
:10307000C1F5B801CE0101960E94D42B6EE67CE02A
:103080000FC0B801CE0101960E94D42B6AE77CE004
:1030900007C0B801CE0101960E94D42B66E87CE0FF
:1030A000CE0107960E94D42BBE016D5E7F4FCE01EC
:1030B0000D960E94D42BAE014F5F5F4FBE01695F3A
:1030C0007F4FCE010D960E940A15CE010D960E94EB
:1030D000122BCE0107960E94122BCE0101960E9460
:1030E000122BCE0143960E94122B69960FB6F894CC
:1030F000DEBF0FBECDBFDF91CF911F910F9108951D
:10310000CF93DF93CDB7DEB762970FB6F894DEBFEB
:103110000FBECDBFBC01CE0101960E94D42B62E64A
:103120007CE0CE0107960E94D42B68E37CE0CE01C0
:103130000D960E94D42BAE014F5F5F4FBE01695FB9
:103140007F4FCE010D960E940A15CE010D960E946A
:10315000122BCE0107960E94122BCE0101960E94DF
:10316000122B62960FB6F894DEBF0FBECDBFDF9173
:10317000CF910895CF93DF93CDB7DEB762970FB6A7
:10318000F894DEBF0FBECDBFBC01CE0101960E94F8
:10319000D42B64E47CE0CE0107960E94D42B68E334
:1031A0007CE0CE010D960E94D42BAE014F5F5F4FA5
:1031B000BE01695F7F4FCE010D960E940A15CE01B8
:1031C0000D960E94122BCE0107960E94122BCE0163
:1031D00001960E94122B62960FB6F894DEBF0FBEC6
:1031E000CDBFDF91CF910895CF93DF9300D000D072
:1031F000CDB7DEB790E0FC013897E830F10508F074
:103200004AC08827EA57FF4F8F4F0C94E43F6BE288
:1032100074E0CE0101960E94DD2BCE0101960E9442
:103220002B1DCE0101960E94122B81E090E035C04B
:103230006EE374E0CE0101960E94DD2BCE01019673
:103240000E942B1DCE0101960E94122B82E090E07D
:1032500024C061E574E0CE0101960E94DD2BCE0111
:1032600001960E942B1DCE0101960E94122B85E033
:1032700090E013C064E674E0CE0101960E94DD2B5D
:10328000CE0101960E942B1DCE0101960E94122BA9
:103290008AE090E002C080E090E026960FB6F894B5
:1032A000DEBF0FBECDBFDF91CF910895CF93DF93E7
:1032B000CDB7DEB762970FB6F894DEBF0FBECDBFB5
:1032C000BC01CE0101960E94D42B6AE47CE0CE01C1
:1032D00007960E94D42B68E37CE0CE010D960E94F5
:1032E000D42BAE014F5F5F4FBE01695F7F4FCE01B0
:1032F0000D960E940A15CE010D960E94122BCE014A
:1033000007960E94122BCE0101960E94122B629604
:103310000FB6F894DEBF0FBECDBFDF91CF910895F9
:10332000CF93DF93CDB7DEB762970FB6F894DEBFC9
:103330000FBECDBF2091F008223079F068E774E02D
:10334000CE0101960E94DD2BCE0101960E9402293A
:10335000CE0101960E94122B29C0BC01CE0101961C
:103360000E94D42B68E97CE0CE0107960E94D42B02
:1033700062E97CE0CE010D960E94D42BAE014F5F36
:103380005F4FBE01695F7F4FCE010D960E940A1507
:10339000CE010D960E94122BCE0107960E94122B91
:1033A000CE0101960E94122B0E94BD1462960FB6A8
:1033B000F894DEBF0FBECDBFDF91CF910895CF93BC
:1033C000DF93CDB7DEB762970FB6F894DEBF0FBEBE
:1033D000CDBFBC01CE0101960E94D42B60E57CE0FC
:1033E000CE0107960E94D42B68E37CE0CE010D96B7
:1033F0000E94D42BAE014F5F5F4FBE01695F7F4FCC
:10340000CE010D960E940A15CE010D960E94122B38
:10341000CE0107960E94122BCE0101960E94122B1C
:1034200062960FB6F894DEBF0FBECDBFDF91CF918D
:103430000895CF93DF93CDB7DEB762970FB6F894B8
:10344000DEBF0FBECDBFBC01CE0101960E94D42BC2
:1034500066E57CE0CE0107960E94D42B68E37CE011
:10346000CE010D960E94D42BAE014F5F5F4FBE017F
:10347000695F7F4FCE010D960E940A15CE010D9611
:103480000E94122BCE0107960E94122BCE010196AC
:103490000E94122B62960FB6F894DEBF0FBECDBF0E
:1034A000DF91CF9108951F93CF93DF93CDB7DEB710
:1034B00062970FB6F894DEBF0FBECDBF162FBC01CA
:1034C000CE0101960E94D42B6CE87CE0CE010796D9
:1034D0000E94D42B68E37CE0CE010D960E94D42B91
:1034E000AE014F5F5F4FBE01695F7F4FCE010D960A
:1034F0000E940A15CE010D960E94122BCE0107964E
:103500000E94122BCE0101960E94122B11110E94D3
:10351000BD1462960FB6F894DEBF0FBECDBFDF912B
:10352000CF911F910895CF93DF932091060C309196
:10353000070C232B79F0FC01C091020CD091030CF5
:1035400060817181CE010E944F42009719F08C1B5F
:103550009D0B02C08FEF9FEFDF91CF910895CF9227
:10356000DF92EF92FF920F931F93CF93DF93EC01C3
:103570006A017B01E889F98982E080834115514E17
:1035800061057105B1F060E079E08DE390E0A7019D
:1035900096010E94C23F89019A0101501109210937
:1035A0003109369527951795079598010115104112
:1035B000A8F0E889F989108260E874E88EE190E06B
:1035C000A70196010E94C23FDA01C9010197A10932
:1035D000B109B695A795979587959C01EC85FD85D2
:1035E0003083EE85FF852083188EEC89FD8986E087
:1035F0008083EA89FB89808180618083EA89FB89F5
:10360000808188608083EA89FB89808180688083EB
:10361000EA89FB8980818F7D8083DF91CF911F9123
:103620000F91FF90EF90DF90CF9008950F931F932D
:103630000E94052D0091F6081091F7082091F808D6
:103640003091F908601771078207930750F40E94C0
:10365000052D6093F6087093F7088093F80890930F
:10366000F9080E94052D0091F6081091F7082091A5
:10367000F8083091F908DC01CB01801B910BA20BFB
:10368000B30B21E088389341A105B10508F420E08F
:10369000822F1F910F910895EEEBFCE08FEF90E0E9
:1036A000928B818B948B838B8FEC9CE00C948B287A
:1036B000CF93DF93CDB7DEB762970FB6F894DEBF36
:1036C0000FBECDBFBC01CE0101960E94D42B62E398
:1036D0007CE0CE0107960E94D42B6CE27CE0CE0108
:1036E0000D960E94D42BAE014F5F5F4FBE01695F04
:1036F0007F4FCE010D960E940A15CE010D960E94B5
:10370000122BCE0107960E94122BCE0101960E9429
:10371000122B0E94BD1462960FB6F894DEBF0FBE46
:10372000CDBFDF91CF9108950F931F93CF93DF9378
:10373000CDB7DEB769970FB6F894DEBF0FBECDBF29
:10374000282F8B0168E37CE0CE014396298F0E94ED
:10375000D42B298D223069F02330A1F02130D9F506
:103760004AE0B801CE0101960E94172B68E67CE082
:1037700011C04AE0B801CE0101960E94172B64E700
:103780007CE008C04AE0B801CE0101960E94172BE8
:1037900060E87CE0CE0107960E94D42BBE016D5EEE
:1037A0007F4FCE010D960E94D42BAE014F5F5F4F2D
:1037B000BE01695F7F4FCE010D960E940A15CE01B2
:1037C0000D960E94122BCE0107960E94122BCE015D
:1037D00001960E94122BCE0143960E94122B6996ED
:1037E0000FB6F894DEBF0FBECDBFDF91CF911F9112
:1037F0000F9108952091CC0C2F5F243018F4209362
:10380000CC0C02C01092CC0C2091CC0C2130F9F0E1
:1038100070F02230D1F1233009F051C080E590E002
:103820009093D00C8093CF0C8BEF90E044C06AE073
:1038300070E00E949A3FFC01E254F34F838190E0D4
:103840009093D00C8093CF0C8DEF90E034C08A30F1
:103850009105A0F064E670E00E949A3F6AE070E093
:103860000E949A3FFB01E254F34F838190E09093D2
:10387000D00C8093CF0C8FEE90E01DC08FEF90E0C6
:103880009093D00C8093CF0C16C084369105B0F382
:1038900068EE73E00E949A3F64E670E00E949A3FEF
:1038A000FB01E254F34F838190E09093D00C80931E
:1038B000CF0C87EF90E09093D20C8093D10C8FECDB
:1038C0009CE00C948B280F931F930E94052D009170
:1038D000A40C1091A50C2091A60C3091A70C601798
:1038E00071078207930750F40E94052D6093A40C82
:1038F0007093A50C8093A60C9093A70C0E94052DA5
:103900000091A40C1091A50C2091A60C3091A70C4D
:10391000DC01CB01801B910BA20BB30B21E0843F98
:103920009140A105B10508F420E0822F1F910F916D
:1039300008951F93CF93DF9300D000D0CDB7DEB7AB
:10394000182F8091A80C1817D1F0112319F060E8F6
:1039500074E002C06CE974E0CE0101960E94DD2B98
:10396000CE0101960E94A325CE0101960E94122B42
:10397000612F8091B30C0E9404241093A80C0E9424
:10398000052D6093A40C7093A50C8093A60C9093C6
:10399000A70C0E94631C811119C08091F10C9091B9
:1039A000F20CDC01ED91FC910480F581E02D19957C
:1039B000892B79F38091F10C9091F20CDC01ED915F
:1039C000FC910680F781E02D1995E3CF26960FB67E
:1039D000F894DEBF0FBECDBFDF91CF911F91089548
:1039E000CF93DF93CDB7DEB762970FB6F894DEBF03
:1039F0000FBECDBF4AE0682FCE0101960E946F2B0B
:103A000064E17CE0CE0107960E94D42B6EE07CE05E
:103A1000CE010D960E94D42BAE014F5F5F4FBE01C9
:103A2000695F7F4FCE010D960E940A15CE010D965B
:103A30000E94122BCE0107960E94122BCE010196F6
:103A40000E94122B62960FB6F894DEBF0FBECDBF58
:103A5000DF91CF910895CF93DF9300D000D0CDB701
:103A6000DEB7BC01CE0101960E94D42BBE016F5F70
:103A70007F4F8091EF0C9091F00C0E943B21CE0182
:103A800001960E94122B26960FB6F894DEBF0FBE49
:103A9000CDBFDF91CF9108950E94052D6093F70C63
:103AA0007093F80C8093F90C9093FA0C08950F938F
:103AB0001F930E94052D0091F70C1091F80C209196
:103AC000F90C3091FA0C601771078207930710F414
:103AD0000E944C1D0E94052D0091F70C1091F80CCE
:103AE0002091F90C3091FA0CDC01CB01801B910B79
:103AF000A20BB30B21E0883C9105A105B10508F4A8
:103B000020E0822F1F910F910895CF92DF92FF92B4
:103B10000F931F93CF93DF93CDB7DEB762970FB6A6
:103B2000F894DEBF0FBECDBF6CE576E0CE010D96FA
:103B30000E94DD2B0E944C1D00E010E08091F10CF2
:103B40009091F20CDC01ED91FC910480F581E02D67
:103B50001995892B41F00530110509F04EC085E01B
:103B6000C82ED12C01C068010E94571DF82E81116A
:103B700025C0B5E0CB16D10409F765ED74E0CE01A0
:103B800007960E94DD2BBE01635F7F4FCE01079633
:103B90000E94B02ABC01CE0101960E94D42BCE0116
:103BA00001960E942B1DCE0101960E94122BCE0180
:103BB00007960E94122B0530110511F0F12C60C000
:103BC00020E080E090E0FC01E151F34F348D230FC1
:103BD000019685309105B9F780910D0D883221F05D
:103BE00080910D0D8230F1F580910E0D81113AC05A
:103BF000211138C0FF24F39443C08091F10C9091BF
:103C0000F20CDC01ED91FC910680F781E02D199515
:103C1000F82E4AE0682FCE0107960E946F2BBE0156
:103C2000695F7F4FCE0101960E94D42B63E075E05F
:103C3000CE0101960E94972ABC01CE010D960E94EA
:103C40007E2ACE0101960E94122BCE0107960E9479
:103C5000122BF801E151F34FF48E0F5F1F4F0E94BA
:103C60004C1D6CCF62EE74E0CE0101960E94DD2BFC
:103C7000CE0101960E942B1DCE0101960E94122BAF
:103C8000CE010D960E94122B8F2D62960FB6F894DE
:103C9000DEBF0FBECDBFDF91CF911F910F91FF907F
:103CA000DF90CF9008954F925F926F927F928F92A4
:103CB0009F92AF92BF92CF92DF92EF92FF920F93BB
:103CC0001F93CF93DF934B015C018091E7089091A4
:103CD000E808A091E908B091EA0888169906AA06B2
:103CE000BB0609F4C2C08CE3C82ED12CE12CF12C08
:103CF000C501B401A70196010E94C23F6093E0088C
:103D0000CA01B901A70196010E94C23F6093E10870
:103D1000CA01B90128E130E040E050E00E94C23F12
:103D200069017A016093E208CA01B9016C5F7F4FB3
:103D30008F4F9F4F27E030E040E050E00E94C23FAD
:103D40006F5F6093E308412C512C320140E004E6A0
:103D500010E0C0E9D1E0242F30E02E54384FF901B3
:103D6000E370FF27309789F4C901B8010E94AE3F84
:103D7000892B31F4C901BE010E94AE3F892B29F481
:103D80008EE691E0A0E0B0E004C08DE691E0A0E016
:103D9000B0E0480E591E6A1E7B1ED301C201AA273D
:103DA000BB27C816D906EA06FB0610F04F5FD3CF33
:103DB0004093E608309799F4C90164E670E00E94E8
:103DC000AE3F892B39F4C90160E971E00E94AE3F32
:103DD000892B29F48EE691E0A0E0B0E004C08DE6E6
:103DE00091E0A0E0B0E0481A590A6A0A7B0AC418B8
:103DF000D508E608F708C90164E670E00E94AE3F06
:103E0000EC01C90160E971E00E94AE3FA3E2B2E0BB
:103E100020E0213039F4309749F4209729F40097B5
:103E200029F402C04C9103C04DE101C04CE150E0C7
:103E300060E070E0C416D506E606F70640F0C41A46
:103E4000D50AE60AF70A2F5F11962C3011F72F5F7B
:103E50002093E508C394C092E4088092E70890920A
:103E6000E808A092E908B092EA08DF91CF911F918B
:103E70000F91FF90EF90DF90CF90BF90AF909F9009
:103E80008F907F906F905F904F900895FC01918D7F
:103E9000828D981761F0828DDF01A80FB11D5D96AC
:103EA0008C91928D9F5F9F73928F90E008958FEF1A
:103EB0009FEF0895FC01918D828D981731F0828DCE
:103EC000E80FF11D858D90E008958FEF9FEF089525
:103ED000FC01918D228D892F90E0805C9F4F821B89
:103EE00091098F73992708958FEE96E00E94681FBD
:103EF00021E0892B09F420E0822F089580E090E0F2
:103F0000892B21F00E94162A81111DC080E090E0CB
:103F1000892B41F080E090E0892B21F00E94000085
:103F2000811114C080E090E0892B21F00E94741F61
:103F300081110FC080E090E0892B81F00E940C2A53
:103F400081110AC008950E940000E0CF0E94000085
:103F5000E9CF0E940000EECF0C940000089590E09D
:103F6000FC013197E231F10508F04EC08827E25795
:103F7000FF4F8F4F0C94E43F809180008F7703C0F8
:103F8000809180008F7D80938000089580918000D3
:103F9000877FF9CF84B58F7702C084B58F7D84BDCC
:103FA00008958091B0008F7703C08091B0008F7D1D
:103FB0008093B0000895809190008F7707C0809122
:103FC00090008F7D03C080919000877F8093900048
:103FD00008958091A0008F7707C08091A0008F7D09
:103FE00003C08091A000877F8093A00008958091F6
:103FF00020018F7707C0809120018F7D03C08091C1
:104000002001877F8093200108953FB7F894809125
:10401000C6089091C708A091C808B091C90826B5F4
:10402000A89B05C02F3F19F00196A11DB11D3FBFF0
:10403000BA2FA92F982F8827820F911DA11DB11D7E
:10404000BC01CD0142E0660F771F881F991F4A957A
:10405000D1F70895EF92FF920F931F93CF93DF93C1
:1040600000D000D0CDB7DEB78C017A0164E377E0F1
:104070000E949C2B8AE0E816F1042CF462E377E0BE
:10408000C8010E94202A4AE0B701CE0101960E9491
:10409000432BBE016F5F7F4FC8010E947E2ACE0175
:1040A00001960E94122BC80126960FB6F894DEBF27
:1040B0000FBECDBFDF91CF911F910F91FF90EF9079
:1040C0000895CF93DF93CDB7DEB762970FB6F8941C
:1040D000DEBF0FBECDBF4AE0BC01CE0101960E94FB
:1040E000172B6AE17CE0CE0107960E94D42B6EE08C
:1040F0007CE0CE010D960E94D42BAE014F5F5F4F46
:10410000BE01695F7F4FCE010D960E940A15CE0158
:104110000D960E94122BCE0107960E94122BCE0103
:1041200001960E94122B62960FB6F894DEBF0FBE66
:10413000CDBFDF91CF910895CF93DF93CDB7DEB799
:1041400062970FB6F894DEBF0FBECDBF4AE0BC0148
:10415000CE0101960E94172B60E27CE0CE0107960B
:104160000E94D42B6EE07CE0CE010D960E94D42BF1
:10417000AE014F5F5F4FBE01695F7F4FCE010D966D
:104180000E940A15CE010D960E94122BCE010796B1
:104190000E94122BCE0101960E94122B62960FB63E
:1041A000F894DEBF0FBECDBFDF91CF910895CF93BE
:1041B000DF93CDB7DEB762970FB6F894DEBF0FBEC0
:1041C000CDBFBC01CE0101960E94D42B66E27CE0FB
:1041D000CE0107960E94D42B6EE07CE0CE010D96B6
:1041E0000E94D42BAE014F5F5F4FBE01695F7F4FCE
:1041F000CE010D960E940A15CE010D960E94122B3B
:10420000CE0107960E94122BCE0101960E94122B1E
:1042100062960FB6F894DEBF0FBECDBFDF91CF918F
:1042200008951F920F920FB60F9211240BB60F92A2
:104230002F933F934F935F936F937F938F939F93AE
:10424000AF93BF93EF93FF938FEE96E00E94792C8C
:10425000FF91EF91BF91AF919F918F917F916F915E
:104260005F914F913F912F910F900BBE0F900FBE1A
:104270000F901F9018954F925F926F927F928F923E
:104280009F92AF92BF92EF92FF920F931F93CF93A3
:10429000DF93CDB7DEB76E970FB6F894DEBF0FBED3
:1042A000CDBF8C017B016CE576E0CE010D960E94BE
:1042B000DD2BB701CE0143960E94D42B6CE576E04E
:1042C000CE0149960E94DD2B78012EE0E20EF11C12
:1042D0000E94052D4090D8085090D9086090DA08C7
:1042E0007090DB084B015C0184189508A608B7089C
:1042F0008091DC089091DD08A091DE08B091DF0884
:10430000E8EE8E16E3E09E06A104B104D0F001961B
:10431000A11DB11D8093DC089093DD08A093DE08F9
:10432000B093DF08B301A20148515C4F6F4F7F4F3C
:104330004093D8085093D9086093DA087093DB084B
:10434000C7CF4091D4085091D5086091D60870919C
:10435000D70884179507A607B70708F456C0E09159
:10436000D208F091D308309709F44FC01995611520
:1043700071058105910539F16093DC087093DD08C2
:104380008093DE089093DF08DC01CB01845D9E4FB3
:10439000AF4FBF4F8093D4089093D508A093D60811
:1043A000B093D70882E090E09093D1088093D00832
:1043B0000E94052D6093D8087093D9088093DA087D
:1043C0009093DB0822C08091DC089091DD08A091D9
:1043D000DE08B091DF08845D9E4FAF4FBF4F8093E2
:1043E000D4089093D508A093D608B093D70881E05D
:1043F00090E02091D0083091D108232B11F480E077
:1044000090E09093D1088093D0088090DC08909041
:10441000DD08A090DE08B090DF08C501B4010E945D
:10442000531E4091E20850E0B801CE0107960E9469
:104430002A2067E377E0CE0107960E94202AC50173
:10444000B4010E94531E4091E10850E0B801CE0132
:1044500001960E942A20BE016F5F7F4FCE01079612
:104460000E947E2ACE0101960E94122B65E377E01E
:10447000CE0107960E94202AC501B4010E94531E56
:104480004091E00850E0B801CE0101960E942A2038
:10449000BE016F5F7F4FCE0107960E947E2ACE013C
:1044A00001960E94122BBE01695F7F4FCE010196DB
:1044B0000E94D42B63E075E0CE0101960E94972AFA
:1044C000B7010E94B02A61E075E00E94972ABE0100
:1044D0006D5E7F4F0E94B02ABC01CE0149960E94BA
:1044E000FB2ACE0101960E94122BCE0107960E9454
:1044F000122B8D859E850097A9F0698D7A8D6115A7
:10450000710571F04F8558892D8D3E8D42175307E7
:1045100038F00E9448428D8D9E8D9A8B898B12C0F7
:104520000E94B040898D9A8D9E878D878B8D9C8D42
:10453000988B8F878D8D9E8D9A8B898B1A8E198E75
:104540001C8E1B8E1E8E1D8ECE0149960E94122B34
:10455000CE0143960E94122BBE01635F7F4FF8018C
:10456000808191810E94062CCE010D960E94122B13
:104570006E960FB6F894DEBF0FBECDBFDF91CF9120
:104580001F910F91FF90EF90BF90AF909F908F90F1
:104590007F906F905F904F900895EF92FF920F93EE
:1045A0001F93CF93DF93EC017B016CE576E00896D7
:1045B0000E94DD2B8E01025F1F4F6CE576E0C80183
:1045C0000E94DD2B8FEE96E09983888380E092EC49
:1045D000A1E0B0E08C839D83AE83BF8385E095E04E
:1045E0009B838A83B701C801DF91CF911F910F91FF
:1045F000FF90EF900C94FB2A1F920F920FB60F9230
:1046000011240BB60F922F933F934F935F936F93A9
:104610007F938F939F93AF93BF93EF93FF93E0911B
:10462000CE08F091CF081995FF91EF91BF91AF910E
:104630009F918F917F916F915F914F913F912F91BA
:104640000F900BBE0F900FBE0F901F901895FC019E
:10465000848DDF01A80FB11DA35ABF4F2C91848D0B
:1046600090E001968F739927848FA689B7892C9340
:10467000A089B1898C9180648C93938D848D9813DB
:1046800006C00288F389E02D80818F7D80830895A4
:104690001F920F920FB60F9211240BB60F922F9309
:1046A0003F934F935F936F937F938F939F93AF93BA
:1046B000BF93EF93FF938FEE96E00E942723FF9125
:1046C000EF91BF91AF919F918F917F916F915F918A
:1046D0004F913F912F910F900BBE0F900FBE0F90F7
:1046E0001F901895EF92FF920F931F93CF93DF9334
:1046F000EC0181E0888F9B8D8C8D981305C0E88933
:10470000F989808185FD24C0F62E0B8D10E00F5FA6
:104710001F4F0F731127E02E8C8DE8120CC00FB6BF
:1047200007FCFACFE889F989808185FFF5CFCE01B2
:104730000E942723F1CF8B8DFE01E80FF11DE35A74
:10474000FF4FF0820B8FEA89FB898081806207C06E
:10475000EE89FF896083E889F9898081806480839C
:1047600081E090E0DF91CF911F910F91FF90EF904A
:104770000895CF93DF93EC01888D8823C9F0EA89EF
:10478000FB89808185FD05C0A889B9898C9186FD4A
:104790000FC00FB607FCF5CF808185FFF2CFA88947
:1047A000B9898C9185FFEDCFCE010E942723E7CFF9
:1047B000DF91CF910895CF93DF93282F30E0F90157
:1047C000E451F94F8491F901EA55F94FD491F90177
:1047D000E05AF94FC491CC2391F081110E94AF1F90
:1047E000EC2FF0E0EE0FFF1FEA5BF94FA591B491BB
:1047F000EC91ED2381E090E021F480E002C080E0C4
:1048000090E0DF91CF9108951F93CF93DF93282FEE
:1048100030E0F901E451F94F8491F901EA55F94F7B
:10482000D491F901E05AF94FC491CC23C9F0162F65
:1048300081110E94AF1FEC2FF0E0EE0FFF1FE45D2F
:10484000F94FA591B4918FB7F894111105C09C91BF
:10485000ED2FE095E92302C0EC91ED2BEC938FBF97
:10486000DF91CF911F910895CF93DF9390E0FC01EA
:10487000EA55F94F2491FC01E05AF94F84918823BD
:1048800061F190E0880F991FFC01EE5EF94FC59130
:10489000D491FC01E45DF94FA591B491611109C077
:1048A0009FB7F8948881209582238883EC912E23EA
:1048B0000BC0623061F49FB7F8943881822F8095E5
:1048C00083238883EC912E2B2C939FBF06C08FB738
:1048D000F894E8812E2B28838FBFDF91CF91089524
:1048E0008F929F92AF92BF92CF92DF92EF92FF9200
:1048F0006B017C010E9405204B015C01C114D104B5
:10490000E104F104F1F00E940520DC01CB018819DB
:104910009909AA09BB09883E9340A105B10570F326
:1049200021E0C21AD108E108F10888EE880E83E080
:10493000981EA11CB11CC114D104E104F10419F7A3
:10494000DDCFFF90EF90DF90CF90BF90AF909F9022
:104950008F9008950F931F93CF93DF93CDB7DEB75A
:1049600062970FB6F894DEBF0FBECDBF182F062F8B
:104970006CE576E0CE010D960E94DD2B0E944C1D69
:10498000112309F452C08091F10C9091F20CDC01DA
:10499000ED91FC910480F581E02D1995892B81F131
:1049A0008091F10C9091F20CDC01ED91FC9106806C
:1049B000F781E02D1995002301F14AE0682FCE011F
:1049C00007960E946F2BBE01695F7F4FCE01019653
:1049D0000E94D42B63E075E0CE0101960E94972AD5
:1049E000BC01CE010D960E947E2ACE0101960E9446
:1049F000122BCE0107960E94122B11500E944C1DC3
:104A00000E94571D882309F4BBCF69E075E0CE01F1
:104A100001960E94DD2BCE0101960E942B1DCE0136
:104A200001960E94122B10E021C00023F1F06BE2EE
:104A300075E0CE0107960E94DD2BBE01635F7F4FBC
:104A4000CE0107960E94B02ABC01CE0101960E94B9
:104A5000D42BCE0101960E942B1DCE0101960E94FF
:104A6000122BCE0107960E94122B11E0CE010D965B
:104A70000E94122B812F62960FB6F894DEBF0FBEF4
:104A8000CDBFDF91CF911F910F910895FF920F93AA
:104A90001F93CF93DF93CDB7DEB7C058D1090FB6C0
:104AA000F894DEBF0FBECDBF8091FB0C89830091CF
:104AB000FD0C0A838091FE0C8B838091000D8C830A
:104AC000FE01359680E090E010E08017910744F4F5
:104AD000DC01A151B34F53962C9121930196F5CF50
:104AE0000C5F1F4FE1E0F0E0EC0FFD1FE00FF11F46
:104AF00080910A0D8083F12C2F2D30E002171307CF
:104B0000A4F08091F10C9091F20CDC01ED91FC91FC
:104B1000A1E0B0E0AC0FBD1FA20FB31F0190F08168
:104B2000E02D6C911995F394E7CF80E0C058DF4FEA
:104B30000FB6F894DEBF0FBECDBFDF91CF911F91AE
:104B40000F91FF900895CF93DF9300D000D0CDB7A1
:104B5000DEB7BC01CE0101960E94D42BBE016F5F6F
:104B60007F4F80919E0C90919F0C0E943B21CE0123
:104B700001960E94122B26960FB6F894DEBF0FBE48
:104B8000CDBFDF91CF910895CF93DF9300D000D0B8
:104B9000CDB7DEB78091AF0C811133C06AE375E009
:104BA000CE0101960E94DD2BCE0101960E942B1DA5
:104BB000CE0101960E94122B82E090E09093FC0CB3
:104BC0008093FB0C81E08093FD0C81E090E090935A
:104BD000FF0C8093FE0C84EE90E09093010D809387
:104BE000000D1092020D88E180930A0D0E94462567
:104BF00061E086E00E94AA2481110E94851D109226
:104C0000B80C26960FB6F894DEBF0FBECDBFDF916D
:104C1000CF9108951F93CF93DF9300D000D0CDB7ED
:104C2000DEB78091AF0C81113BC06CE475E0CE0122
:104C300001960E94DD2BCE0101960E942B1DCE0114
:104C400001960E94122B82E090E09093FC0C8093DE
:104C5000FB0C11E01093FD0C81E090E09093FF0CB1
:104C60008093FE0C84EE90E09093010D8093000DF4
:104C70001093020D87E180930A0D0E94462561E0A2
:104C800086E00E94AA24882339F00E94851D88238B
:104C900019F01093B80C04C01092B80C0E945A2658
:104CA00026960FB6F894DEBF0FBECDBFDF91CF9131
:104CB0001F910895EF92FF920F931F93CF93DF936D
:104CC000CDB7DEB762970FB6F894DEBF0FBECDBF8B
:104CD0006DE575E0CE0101960E94DD2BCE010196B7
:104CE0000E942B1DCE0101960E94122B82E090E0C3
:104CF0009093FC0C8093FB0C1092FD0C81E090E0F3
:104D00009093FF0C8093FE0C9093010D8093000D07
:104D10008CEF80930A0D0E94462561E085E00E9499
:104D2000AA24882339F00E94851D81111AC06DE6DE
:104D300075E002C06DE775E0CE0101960E94DD2BA3
:104D4000CE0101960E942B1DCE0101960E94122BCE
:104D50008FEF8093AF0C8091B00C8F3F09F075C03E
:104D600094C08091AF0C8F3F71F46DE875E0CE0177
:104D700001960E94DD2BCE0101960E94A325CE0153
:104D800001960E94122B68EC70E080E090E00E9497
:104D9000702482E090E09093FC0C8093FB0C1092C6
:104DA000FD0C81E090E09093FF0C8093FE0C88EE68
:104DB00090E09093010D8093000D85E180930A0DA2
:104DC0000E94462561E085E00E94AA24882349F1DB
:104DD0006CE576E0CE010D960E94DD2B0E944C1D05
:104DE000E12CF12C87018091F10C9091F20CDC0107
:104DF000ED91FC910480F581E02D1995892B09F442
:104E0000E6C00630110509F024C186E0E82EF12C39
:104E10000E94571D882309F4DCC0CE010D960E9424
:104E2000122B68EC70E080E090E00E9470246091AA
:104E30003C0D6093AF0C662309F44FC08091B00C19
:104E400016160CF488C0681701F167EF75E0CE0103
:104E500001960E94DD2BCE0101960E94A325CE0172
:104E600001960E94122B64E176E0CE0101960E9429
:104E7000DD2BCE0101960E94A325CE0101960E9452
:104E8000122B8091AF0C8093B00C8091AF0C8111EC
:104E900022C08091B00C882391F06BE276E0CE01C5
:104EA00001960E94DD2BCE0101960E94A325CE0122
:104EB00001960E94122B8091AF0C8093B00C0E943F
:104EC000052D6093A40C7093A50C8093A60C909371
:104ED000A70C81E013C180E011C16DEB75E0CE013C
:104EE00001960E94DD2BCE0101960E942B1DCE0162
:104EF00001960E94122B82E090E09093FC0C80932C
:104F0000FB0C8093FD0C81E090E09093FF0C80936C
:104F1000FE0C87EE90E09093010D8093000D80E8E9
:104F20008093020D8FEF8093030D85E980930A0D26
:104F30000E94462561E087E00E94AA2481110E9418
:104F4000851D8091B80C882319F00E940A269DCFF8
:104F50000E94C4259ACF6A3074F4681709F495CF7B
:104F6000062E000C770B4AE0CE0107960E94432BD9
:104F70006CEC75E00DC0681709F487CF062E000CA5
:104F8000770B4AE0CE0107960E94432B62EE75E054
:104F9000CE010D960E94DD2BBE01695F7F4FCE01D1
:104FA0000D960E94B02ABC01CE0101960E94D42B1E
:104FB000CE0101960E94A325CE0101960E94122BDC
:104FC000CE010D960E94122BCE01079658CF780184
:104FD0001FCF0630110509F005CF67EA75E0CE0155
:104FE00001960E94DD2BBE01635F7F4FCE010196CB
:104FF0000E94B02ABC01CE0107960E94D42BCE019C
:1050000007960E942B1DCE0107960E94122BCE01FF
:1050100001960E94122BB6E0EB16F10409F0FDCECA
:1050200020E080E090E0FC01E151F34F31A1230F3B
:10503000019686309105B9F780910D0D883221F0E7
:1050400080910D0D8230D1F5211138C08091140D61
:1050500052C08091F10C9091F20CDC01ED91FC9129
:105060000680F781E02D1995F82E4AE0682FCE01D1
:1050700001960E946F2BBE016F5F7F4FCE01079696
:105080000E94D42B63E075E0CE0107960E94972A18
:10509000BC01CE010D960E947E2ACE0107960E9489
:1050A000122BCE0101960E94122BF801E151F34F11
:1050B000F1A20F5F1F4F0E944C1D95CE64E476E075
:1050C000CE0101960E94DD2BCE0101960E942B1D80
:1050D000CE0101960E94122B6DE576E0CE0101967D
:1050E0000E94DD2BCE0101960E942B1DCE01019660
:1050F0000E94122B8FEF80933C0D8FCE62960FB6DD
:10510000F894DEBF0FBECDBFDF91CF911F910F91FD
:10511000FF90EF900895AF92BF92CF92DF92EF92FF
:10512000FF920F931F93CF93DF936C0160E0809108
:10513000C00C0E940424E6012496BA90AA9008E0CC
:1051400010E090E8E92EF12C60E08091BE0C0E9406
:10515000042461E097012A213B21232B09F460E01C
:105160008091BF0C0E94042461E08091BE0C0E94DB
:105170000424F594E7940150110931F7CC15DD05AD
:10518000E1F661E08091C00CDF91CF911F910F910A
:10519000FF90EF90DF90CF90BF90AF900C940424DD
:1051A00087E290E09093D00C8093CF0C8FEC9CE042
:1051B0000C948B2880EF90E09093D00C8093CF0CD0
:1051C0008FEC9CE00C948B28EEEBFCE08254934F28
:1051D000DC0113968C9190E0928B818B748B638BA6
:1051E0008FEC9CE00C948B28EEEBFCE02FEF30E092
:1051F000281B390B328B218B748B638B8FEC9CE0DB
:105200000C948B28CF93DF9300D000D0CDB7DEB7BE
:10521000BC01CE0101960E94D42BBE016F5F7F4F6F
:105220008091EB089091EC080E943B21CE01019601
:105230000E94122B26960FB6F894DEBF0FBECDBF8C
:10524000DF91CF9108950F931F93CF93DF93CDB745
:10525000DEB762970FB6F894DEBF0FBECDBF8C01EC
:105260006CE576E0CE010D960E94DD2BF80184817D
:105270009581892B09F457C061E776E0CE010D9640
:105280000E94E42A6091F2087091F3084AE0CE018E
:1052900007960E94172BBE01695F7F4FCE010196D2
:1052A0000E94D42B6CE472E0CE0101960E94972AF2
:1052B000BC01CE010D960E947E2ACE0101960E946D
:1052C000122BCE0107960E94122BB801CE010D962B
:1052D0000E947E2ABE01635F7F4FCE0101960E942D
:1052E000D42BCE0101960E940229CE0101960E9484
:1052F000122B2091F2083091F30846E0429FC00142
:10530000439F900D1124B8018E5F964F0E94FB2A97
:105310008091F2089091F30801968F7799279093E6
:10532000F3088093F208CE010D960E94122B62962C
:105330000FB6F894DEBF0FBECDBFDF91CF911F91A6
:105340000F9108950895CF92DF92EF92FF920F93FD
:105350001F93CF93DF936C017A018B01C0E0D0E003
:10536000CE15DF0589F0D8016D918D01D601ED9143
:10537000FC910190F081E02DC6011995892B11F463
:105380007E0102C02196ECCFC701DF91CF911F9122
:105390000F91FF90EF90DF90CF9008950E943142DF
:1053A0006115710579F0FB0101900020E9F7319753
:1053B000AF01461B570BDC01ED91FC910280F3819C
:1053C000E02D199480E090E008950F931F93CF9300
:1053D000DF93EC0188819981009729F02A813B8134
:1053E0002617370788F48B016F5F7F4F0E94484173
:1053F000009761F0998388831B830A832C813D8108
:10540000232B11F4FC01108281E001C080E0DF91C8
:10541000CF911F910F9108958CE897E00E94681F2B
:1054200021E0892B09F420E0822F089589E298E099
:105430000E94681F21E0892B09F420E0822F089543
:10544000EF92FF920F931F93CF93DF936115710536
:1054500011F480E01EC08B01EC01CB010E946E456F
:105460000097B1F02C813D817C01E20EF31EB70163
:10547000CE010E94E529882361F3288139818C813E
:105480009D81B801820F931F0E946745FD82EC82C7
:1054900081E0DF91CF911F910F91FF90EF900895E0
:1054A000EF92FF920F931F93CF93DF93FC01248120
:1054B00035816115710511F480E019C04115510560
:1054C000A9F07B01EC018A01020F131FB8010E94B1
:1054D000E529882389F3288139818C819D81B70151
:1054E000820F931F0E9448421D830C8381E0DF914D
:1054F000CF911F910F91FF90EF900895FB01448190
:105500005581608171810C94502ACF93DF93EC0117
:1055100088819981009711F00E94B0401982188209
:105520001D821C821B821A82DF91CF910895CF9336
:10553000DF93EC016115710561F0FB010190002022
:10554000E9F73197AF01461B570B0E94502A811192
:1055500003C0CE010E94852ACE01DF91CF9108952C
:10556000CF93DF93EC01FB01448155816081718110
:105570000E94502A811103C0CE010E94852ACE01CB
:10558000DF91CF910895EF92FF920F931F93CF93E6
:10559000DF93EC017B018A01BA010E94E5298111A8
:1055A00004C0CE010E94852A07C01D830C83B70169
:1055B000888199810E944842CE01DF91CF911F914D
:1055C0000F91FF90EF900895CF93DF93EC01611559
:1055D000710559F0FB0101900020E9F73197AF0107
:1055E000461B570B0E94C32A02C00E94852ACE0187
:1055F000DF91CF910895CF93DF93EC01FB018617E4
:10560000970761F0608171816115710529F044810E
:1056100055810E94C32A02C00E94852ACE01DF91D3
:10562000CF910895FC01808191810C94B0400F933B
:105630001F93CF93DF93CDB7DEB761970FB6F89482
:10564000DEBF0FBECDBF8C01CB01F80111821082ED
:10565000138212821582148250E0BE016F5F7F4F69
:105660000E94A245BE016F5F7F4FC8010E94E42ADD
:1056700061960FB6F894DEBF0FBECDBFDF91CF911C
:105680001F910F9108950F931F93CF93DF93CDB781
:10569000DEB762970FB6F894DEBF0FBECDBF8C01A8
:1056A000CB01F801118210821382128215821482BA
:1056B00050E0BE016F5F7F4F0E947745BE016F5F74
:1056C0007F4FC8010E94E42A62960FB6F894DEBFAD
:1056D0000FBECDBFDF91CF911F910F9108950F9312
:1056E0001F93CF93DF93CDB7DEB729970FB6F8940A
:1056F000DEBF0FBECDBF8C01862FF8011182108254
:10570000138212821582148250E0BE016F5F7F4FB8
:1057100090E00E94A245BE016F5F7F4FC8010E94CA
:10572000E42A29960FB6F894DEBF0FBECDBFDF91F5
:10573000CF911F910F910895EF92FF920F931F93B6
:10574000CF93DF93EC01198218821B821A821D828B
:105750001C826115710509F18B01CB010E946E4518
:105760007C01BC01CE010E94E529811109C0CE0156
:10577000DF91CF911F910F91FF90EF900C94852AAC
:10578000FD82EC82B80188819981DF91CF911F91D0
:105790000F91FF90EF900C946745DF91CF911F918F
:1057A0000F91FF90EF900895FC01118210821382F7
:1057B0001282158214820C94FB2AFC011182108241
:1057C00013821282158214826115710551F0FB015A
:1057D00001900020E9F73197AF01461B570B0C945D
:1057E000C32A08950F931F93CF93DF93EC010E9478
:1057F000D0298C016AE576E0CE010E94D029800F85
:10580000911FDF91CF911F910F9108950F931F93D7
:10581000CF93DF93EC01E881F981DB0114964D9180
:105820005C9115976D917C910280F381E02D199523
:105830008C016AE576E0CE010E94D029800F911F8D
:10584000DF91CF911F910F9108951F920F920FB684
:105850000F9211240BB60F922F933F934F935F93A8
:105860006F937F938F939F93AF93BF93EF93FF9328
:105870008CE897E00E942723FF91EF91BF91AF91B1
:105880009F918F917F916F915F914F913F912F9158
:105890000F900BBE0F900FBE0F901F9018951F9288
:1058A0000F920FB60F9211240BB60F922F933F93C6
:1058B0004F935F936F937F938F939F93AF93BF9318
:1058C000EF93FF9389E298E00E942723FF91EF91E5
:1058D000BF91AF919F918F917F916F915F914F9108
:1058E0003F912F910F900BBE0F900FBE0F901F9006
:1058F0001895FC01A089B1898C91A689B78982FD90
:105900000FC09C91818D8F5F8F73228D821749F01C
:10591000218DDF01A20FB11D5D969C93818F0895AB
:105920008C9108951F920F920FB60F9211240BB60F
:105930000F922F933F934F935F936F937F938F9328
:105940009F93AF93BF93EF93FF938CE897E00E94F0
:10595000792CFF91EF91BF91AF919F918F917F91A2
:105960006F915F914F913F912F910F900BBE0F90D0
:105970000FBE0F901F9018951F920F920FB60F92A7
:1059800011240BB60F922F933F934F935F936F9316
:105990007F938F939F93AF93BF93EF93FF9389E28E
:1059A00098E00E94792CFF91EF91BF91AF919F9168
:1059B0008F917F916F915F914F913F912F910F90B8
:1059C0000BBE0F900FBE0F901F901895CF93DF93D3
:1059D00000D000D0CDB7DEB7BC01CE0101960E9449
:1059E000D42BBE016F5F7F4F8BED9CE00E943B216B
:1059F000CE0101960E94122B26960FB6F894DEBFB8
:105A00000FBECDBFDF91CF9108952FB7F89460916D
:105A10003E0D70913F0D8091400D9091410D2FBF33
:105A200008951F920F920FB60F9211242F933F9358
:105A30008F939F93AF93BF9380913E0D90913F0DB5
:105A4000A091400DB091410D30913D0D23E0230F09
:105A50002D3720F40196A11DB11D05C026E8230FA6
:105A60000296A11DB11D20933D0D80933E0D909394
:105A70003F0DA093400DB093410D8091C6089091C9
:105A8000C708A091C808B091C9080196A11DB11D11
:105A90008093C6089093C708A093C808B093C9081C
:105AA000BF91AF919F918F913F912F910F900FBE1A
:105AB0000F901F901895CF93DF93CDB7DEB7CD55DC
:105AC000D1090FB6F894DEBF0FBECDBF789484B570
:105AD000826084BD84B5816084BD85B5826085BDEA
