:100000000C94BD030C94EE030C94EE030C94EE03DD
:100010000C94EE030C94EE030C94EE030C94EE039C
:100020000C94EE030C94EE030C94EE030C94EE038C
:100030000C94EE030C94EE030C94EE030C94EE037C
:100040000C94EE030C94EE030C94EE030C94EE036C
:100050000C948B240C94EE030C94EE030C94AD27BB
:100060000C94EE030C94112B0C94A42A0C94EE0324
:100070000C94EE030C94EE030C94EE030C94EE033C
:100080000C94EE030C94EE030C94EE030C94EE032C
:100090000C94EE030C94EE030C94EE030C94EE031C
:1000A0000C94EE030C94EE030C94EE030C94EE030C
:1000B0000C94EE030C94EE030C94EE030C94EE03FC
:1000C0000C94EE030C94EE030C94EE030C94212399
:1000D0000C94F7220C94EE030C94E72A0C947A2AE1
:1000E0000C94EE0338043B043E0447044A044D04D8
:1000F0005004530487048A048D04900493049604E6
:100100009904A204AB04B404B704BA041C171C1766
:100110002D172D172D173E173E174F17C523C82330
:10012000B723BB23C123FF23CC23D023D623DA2339
:10013000DE23E423E823EC23FF23F223F623FA2330
:100140000C94C1230C9490040C9496040C942D17D9
:100150000C94C8230C94DE230C945F230C94380475
:100160000C943E170C9487040C943B040C948A0462
:100170000C94A2040C944D040C94D0230C941C17E2
:100180000C94F0030C94CC230C942F380C944F1740
:100190000C9450040C944B230C94B4040C949304CE
:1001A0000C94AB040C94D6230C94FF230C948D0474
:1001B0000C94D7240C94EC230C94E4230C94F62395
:1001C0000C94C5230C946D230C94BB230C949904BC
:1001D0000C94BA040C942B3D0C944A040C94DA232E
:1001E0000C941E250C94F2230C94E8230C944704E1
:1001F0000C943E040C94B7230C9453040C94FA23EF
:100200000C94B7040C94F8274C4544204375702097
:1002100048616E646C65202D204F46460072656112
:1002200064206565702E2063757020737461636B44
:10023000657220706F732E203D20004F4B00437578
:100240007020737461636B6572203E3E204F4B00DB
:10025000454D5054590043757020737461636B654C
:1002600072203E3E20456D707479004F4646004F27
:100270004E004F4B00504F574552204F4E00232306
:10028000206D696E69436F66666565204861636BC2
:1002900020762E323031203E3E2053746172742E0F
:1002A0002E2E007772697465206565702E20697442
:1002B000656D5F70726963655B004F726465722083
:1002C0004E6F2E2069732057726F6E6720212100B8
:1002D0006D616B655369676E616C546F436F696ED6
:1002E000203E3E20556E7375636365737320212134
:1002F000004F72646572205061796F7574203E3EC4
:10030000204F4B004F72646572205061796F757495
:10031000203E3E2054696D656F7574002000554E77
:1003200053554343455353005472616E7361637474
:10033000696F6E203E3E20554E53554343455353FF
:10034000200053554343455353005472616E73610B
:100350006374696F6E203E3E2053554343455353AB
:100360002000454D505459004375702073746163EB
:100370006B6572203E3E20456D707479004F4B00D6
:1003800043757020737461636B6572203E3E204F2D
:100390004B004F4E00426F696C6572203E3E20500C
:1003A0006F776572204F4E004F464600426F696C72
:1003B0006572203E3E20506F776572204F464600A2
:1003C0004C4F57005761746572204C6576656C2000
:1003D0003E3E204C4F57004F4B00576174657220D2
:1003E0004C6576656C203E3E204F4B004F464600E4
:1003F00050756D70203E3E20436C6F736500455212
:10040000524F520050756D70203E3E204572726F03
:1004100072004F4E0050756D70203E3E204F70654B
:100420006E007772697465206565702E2063757043
:1004300020737461636B657220706F732E203D2092
:100440000072656164206565702E206974656D5F5A
:1004500070726963655B00300030300045004F4BBF
:10046000004F50454E00434C4F5345005365742098
:1004700050756D702031202D204F4E005365742033
:1004800050756D702031202D204F464600736574E5
:100490004C45444974656D53656C6563745077725F
:1004A000203E3E204E6F7420666F756E64202121C1
:1004B00000434354414C4B00434C4F5544424F582A
:1004C00000434354414C4B2D444556494345002D70
:1004D000002D002D002D002D002D002D002D002DB4
:1004E000002D002D002D002D003D003A0043422B31
:1004F000534554400023000043422B555000230035
:100500000064617461203E3E20656D707479212124
:1005100000436865636B20436C6F7564426F78209D
:100520005265616479203F00436865636B20436CCA
:100530006F7564426F7820436F6E6E656374696F88
:100540006E203F00526573657420436F6D706F724B
:1005500074212100526573706F6E73652054696D4C
:10056000656F757421210053746174652072657420
:1005700075726E2054696D656F757421210000439A
:100580006C6F7564426F782052657475726E203E90
:100590003E204552524F520000436C6F7564426FCB
:1005A000782052657475726E203C3C204255535938
:1005B0000000436C6F7564426F78205265747572E9
:1005C0006E203C3C2052656164790000436C6F757D
:1005D00064426F782052657475726E203C3C204FE7
:1005E0004B005245414459004E4F5420524541441E
:1005F00059004E4F54205245414459004E4F54200B
:100600005245414459004E4F5420524541445900EF
:100610004E4F54205245414459004E4F54205245AC
:10062000414459202D204F5045524154494E4700D6
:100630004E4F54205245414459004C454420437587
:10064000702048616E646C65202D204F4E000000C4
:100650002100240027002A002D0030003300010172
:100660000000040107010A01000022002500280003
:100670002B002E00310034000201000005010801AA
:100680000B01000020002300260029002C002F0071
:1006900032000001000003010601090105050505FE
:1006A000070508080808020202020A0A08080404EA
:1006B0000404010101010101010103030303030318
:1006C0000303040707070C0C0C0C0C0C0C0C0202A7
:1006D000020206060606060606060B0B0B0B0B0BA4
:1006E0000B0B010210202008081020401020408031
:1006F00002010201080402010102040810204080E6
:100700008040201008040201800402018040201073
:1007100008040201080402010102040810204080BC
:10072000010204081020408000000A0B02090C0D91
:100730000E08070304010000000000000000000094
:1007400000000000000000000000000000000000A9
:100750000000000012111000000000000000000066
:100760000000000000000000000000000000300059
:10077000003A003A00002F382B3D11241FBECFEF66
:10078000D1E2DEBFCDBF00E00CBF15E0A0E0B2E0DB
:10079000EAE6FAE800E00BBF02C007900D92A03C29
:1007A000B107D9F72CE0A0ECB5E001C01D92A53847
:1007B000B207E1F713E0CCEBD3E000E006C02197ED
:1007C0000109802FFE010E941F3ECB3BD10780E034
:1007D0000807A9F70E945A2B0C9423450C9400009B
:1007E000CF9380910802833009F4E3C034F4813060
:1007F00059F0823009F470C082C1843009F4F2C02B
:10080000853009F446C17BC12091D7058091EF0561
:100810009091F005222389F02091D5053091D605DD
:100820002817390728F0A901481B590BCA0102C033
:1008300080E090E0CF910C94060F0097D9F780915B
:10084000170C9091180C01979093180C8093170C2B
:10085000892B09F054C180910F0C90E088309105EC
:1008600050F5FC018827EE58FF4F8F4F0C941F3E28
:100870008BEF90E005C087EF90E017C08FEE90E01F
:100880009093160C8093150C0E94331014C08DEFBA
:1008900090E00BC08DEF90E0F3CF8FEE90E005C0BD
:1008A00087EF90E0EDCF8BEF90E09093160C809364
:1008B000150C0E943D1080910F0C8F5F883018F44A
:1008C00080930F0C02C010920F0C86E990E0909379
:1008D000180C8093170C13C18091190C90911A0C6D
:1008E000019790931A0C8093190C892B09F007C17A
:1008F0009091120C492F50E04C30510508F046C041
:10090000FA018827E658FF4F8F4F0C941F3E2EEFB9
:1009100030E032C02EEF30E020C02EEF30E014C0C7
:100920002EEF30E008C02BEF30E005C02FEE30E0B6
:1009300002C02FEB30E03093140C2093130C2DEFFA
:1009400030E020C02FEB30E03093140C2093130CD8
:100950002FEE30E017C02FEB30E03093140C2093D3
:10096000130C27EF30E00EC02FEB30E005C02FE76F
:1009700030E002C02DEF30E03093140C2093130CC4
:100980002BEF30E03093160C2093150C24E130E06F
:1009900030931A0C2093190C9F5F9C3018F490939D
:1009A000120C02C01092120C83E19CE0CF910C94C7
:1009B000C10EC0911206C13059F008F474C0C230A3
:1009C00061F0C33011F56DEF70E08BE590E01BC076
:1009D00067EF70E082EC90E016C06FEE70E087ED9C
:1009E00090E011C08091F40B882309F44DC0082ECB
:1009F000000C990BC0911206C130A9F078F46BEF8E
:100A000070E08BEC90E00E942510CF5FC09312063F
:100A1000C43008F474C01092120671C0C23041F0A4
:100A2000C330E1F0F2CF67EF70E083EE90E0EBCF00
:100A30008F3F5FEF950709F440C0843691051CF0A5
:100A40006FEE70E017C08A309105BCF16AE070E08B
:100A50000E94E93DCB016FEE70E033C08F3F2FEF76
:100A6000920719F46DEF70E02AC0843691052CF0DE
:100A70006DEF70E089E090E024C06AE070E00E94D1
:100A8000E93D6DEF70E01DC08091EE058093080296
:100A900036C0C0911206C13059F028F0C23069F05A
:100AA000C33091F0B2CF6BEF70E083EC90E0ABCF4E
:100AB00067EF70E088E090E0A6CF6FEE70E080E036
:100AC00090E00E941510A1CF8091050283FD05C022
:100AD0006DEF70E081E090E0F4CF82FD05C06DEF36
:100AE00070E082E090E0EDCF84FD05C06DEF70E036
:100AF00083E090E0E6CF81E08093080286CFCF913B
:100B0000089583E00E94402521E0892B09F020E030
:100B1000822F0895CF93DF9300D000D0CDB7DEB7FA
:100B2000FC01E853FA4F208126136083823091053F
:100B300039F08330910531F0019741F484E303C02B
:100B400083E301C08FE20E9469250EC06DE874E066
:100B5000CE0101960E94F129CE0101960E943B2B05
:100B6000CE0101960E94672926960FB6F894DEBF43
:100B70000FBECDBFDF91CF9108950F931F93CF93F9
:100B8000DF938C01C1E0D0E0C017D10711F461E020
:100B900001C060E0CE010E948A052196C430D105D3
:100BA00099F7DF91CF911F910F910895E1E8F0E05F
:100BB000908180911308892B8083089510920802F8
:100BC000E1E8F0E08081887F80830895CF92DF9212
:100BD000EF92FF920F931F936B017C010E940F26EF
:100BE0000091D0051091D1052091D2053091D30507
:100BF000601771078207930750F40E940F266093D5
:100C0000D0057093D1058093D2059093D3050E94AF
:100C10000F260091D0051091D1052091D205309179
:100C2000D305AB01BC01401B510B620B730B81E080
:100C3000C416D506E606F70608F080E01F910F916E
:100C4000FF90EF90DF90CF900895ECEDF5E01182EA
:100C5000128213821092D7051092E8051092D605E1
:100C60001092D505E2E0FCE0158686E990E0968BCF
:100C7000858B108A84E190E0908F878B08951F9375
:100C8000CF93DF9300D000D0CDB7DEB7182F8CE222
:100C90000E94402521E0892B09F420E0121721F160
:100CA000112381F06CE674E0CE0101960E94F129D7
:100CB000CE0101960E943B2BCE0101960E9467292E
:100CC00061E00FC06CE774E0CE0101960E94F1294B
:100CD000CE0101960E943B2BCE0101960E9467290E
:100CE00060E08CE20E94692526960FB6F894DEBF7C
:100CF0000FBECDBFDF91CF911F9108958F929F922C
:100D0000AF92BF92EF92FF921F93CF93DF9300D0E9
:100D100000D0CDB7DEB780E30E94402511E0892BDB
:100D200009F410E080911106181761F00E940F2657
:100D300060930D0670930E0680930F069093100635
:100D4000109311060E940F2680900D0690900E06BB
:100D5000A0900F06B0901006DC01CB01881999090C
:100D6000AA09BB09893E9340A105B10558F40E9428
:100D70000F26681579058A059B0520F080910C02E5
:100D8000882389F12091050230910602812F90E09D
:100D900021FBEE24E0F8F12C8E159F0521F48091C3
:100DA0000C02882301F1112311F0226001C02D7F74
:100DB00030930602209305028091050281FF03C053
:100DC00066E674E002C061E674E0CE0101960E941E
:100DD000F129CE0101960E94E414CE0101960E94F1
:100DE000672910920C02812F26960FB6F894DEBF69
:100DF0000FBECDBFDF91CF911F91FF90EF90BF90BD
:100E0000AF909F908F9008951F93CF93DF93CDB7AE
:100E1000DEB768970FB6F894DEBF0FBECDBF109156
:100E2000F40B111118C06EE574E0CE0101960E941A
:100E3000F129CE0101960E94AA14CE0101960E94CA
:100E400067298091050290910602806290930602C4
:100E5000809305027EC06CE574E0CE0101960E948D
:100E6000F1291F3F29F5BE016F5F7F4FCE01079625
:100E70000E94292A69E574E0CE0107960E94752830
:100E8000811104C0CE0107960E94DA28BE01695F75
:100E90007F4FCE010D960E94292ACE010D960E9409
:100EA000AA14CE010D960E946729CE01079642C072
:100EB000612F012E000C770B4AE0CE010D961A30FF
:100EC000B4F40E949829BE016F5F7F4FCE01079650
:100ED0000E94292A67E574E0CE0107960E947528D2
:100EE00081110EC0CE0107960E94DA2809C00E9427
:100EF0009829BE016F5F7F4FCE0107960E94292A75
:100F0000BE01635F7F4FCE0107960E940529BC0199
:100F1000CE0143960E94292ACE0143960E94AA142C
:100F2000CE0143960E946729CE0107960E94672949
:100F3000CE010D960E9467298091050290910602CC
:100F40008F7D9093060280930502CE0101960E9448
:100F5000672968960FB6F894DEBF0FBECDBFDF914C
:100F6000CF911F9108955F926F927F928F929F927F
:100F7000AF92BF92CF92DF92EF92FF920F931F93A7
:100F8000CF93DF93CDB7DEB7A0970FB6F894DEBF4F
:100F90000FBECDBF66246394712C552453948E01EB
:100FA0000F5F1F4F96E4E92E93E0F92E22E3C22E45
:100FB00023E0D22E82E0681629F093E0691621F032
:100FC00082E303C085E301C081E30E94402521E064
:100FD000892B09F420E0F301E852FA4F4F012083F6
:100FE000C30184539A4F5C01FC0180818217E9F0B0
:100FF000211109C0F301E452FA4F50827F926F929F
:10100000DF92CF9204C07F926F92FF92EF921F9374
:101010000F930E94A4400F900F900F900F900F908D
:101020000F90F4018081F5018083FFEF6F1A7F0A32
:1010300084E06816710409F0BDCFA0960FB6F8944D
:10104000DEBF0FBECDBFDF91CF911F910F91FF90FB
:10105000EF90DF90CF90BF90AF909F908F907F9058
:101060006F905F900895CF93DF93CDB7DEB7689709
:101070000FB6F894DEBF0FBECDBF62E274E0CE01C2
:1010800001960E94F1296091ED0580E190E00E94B7
:1010900015456AE070E080E090E00E94D5256091FF
:1010A000ED05062E000C770B4AE0CE010D960E944E
:1010B0009829BE016F5F7F4FCE0107960E94292AB3
:1010C000BE01635F7F4FCE0107960E940529BC01D8
:1010D000CE0143960E94292ACE0143960E943B2BC3
:1010E000CE0143960E946729CE0107960E94672988
:1010F000CE010D960E946729CE0101960E946729B4
:1011000068960FB6F894DEBF0FBECDBFDF91CF91CA
:101110000895E0EEF5E082819381883E934010F0DF
:1011200013821282329685E0E63EF807A1F7089511
:101130008F929F92AF92BF92CF92DF92EF92FF92E7
:101140001F93CF93DF93CDB7DEB762970FB6F894B6
:10115000DEBF0FBECDBF82EEA82E85E0B82E9AEE80
:10116000E92E95E0F92E11E02AE0C22ED12CC6011D
:101170000E940D45982EC60101960E940D45292D0D
:1011800030E0A901582BCA014501F5015183408384
:101190002091050230910602F701892BD9F4808154
:1011A00080688083123039F0133071F02F7B3093D8
:1011B00006022093050280910502909106029E7F0F
:1011C0009093060280930502809105029091060299
:1011D0009B7F1AC080818F778083123039F0133063
:1011E00071F020643093060220930502809105027D
:1011F000909106029160909306028093050280917F
:101200000502909106029460909306028093050275
:101210000E94890861E474E0CE010D960E94F129D4
:101220004AE0612FCE0107960E94C429BE01695F82
:101230007F4FCE0101960E94292A6CE472E0CE0114
:1012400001960E94EC28BC01CE010D960E94D32885
:10125000CE0101960E946729CE0107960E94672958
:10126000F2E0AF0EB11CF401608171814AE0CE0161
:1012700001960E946C29BE016F5F7F4FCE010D96D3
:101280000E94D328CE0101960E946729BE01635FA8
:101290007F4FCE0101960E94292ACE0101960E941D
:1012A0003B2BCE0101960E946729CE010D960E942C
:1012B0006729F2E0CF0ED11C1F5F4FEFE41AF40A4A
:1012C000143009F054CF62960FB6F894DEBF0FBE0B
:1012D000CDBFDF91CF911F91FF90EF90DF90CF9026
:1012E000BF90AF909F908F90089585E30E94402516
:1012F00021E0892B09F420E0822F0895CF92DF921C
:10130000EF92FF92CF93DF9300D000D0CDB7DEB73E
:101310008091050284FD34C08CE20E944025892B17
:1013200079F580910B02882359F181E00E943F06F4
:1013300065E174E0CE0101960E94F129CE0101968B
:101340000E943B2BCE0101960E94672962E174E066
:10135000CE0101960E94F12960E0CE0101960E9423
:101360000714CE0101960E9467290E940F26609300
:10137000090670930A0680930B0690930C0682C0B0
:101380008CE20E944025892B09F47CC080910502E3
:1013900084FD39C00E940F26C0900906D0900A062D
:1013A000E0900B06F0900C06DC01CB018C199D0936
:1013B000AE09BF0981349F41A105B10508F462C09F
:1013C00080E00E943F0664E074E0CE0101960E9436
:1013D000F129CE0101960E943B2BCE0101960E947D
:1013E00067296EEF73E0CE0101960E94F12961E05A
:1013F000CE0101960E940714CE0101960E94672932
:1014000010920B023FC00E940F26C0900906D09098
:101410000A06E0900B06F0900C06DC01CB018C195B
:101420009D09AE09BF0981349C49A105B10538F475
:101430000E940F266C157D058E059F0518F580E02E
:101440000E943F0660EF73E0CE0101960E94F129F1
:10145000CE0101960E943B2BCE0101960E94672986
:101460006CEE73E0CE0101960E94F12961E0CE019D
:1014700001960E940714CE0101960E94672981E01F
:1014800080930B0226960FB6F894DEBF0FBECDBF39
:10149000DF91CF91FF90EF90DF90CF900895CF92A2
:1014A000DF92EF92FF921F93CF93DF93C82F0E949A
:1014B0000F266B017C0110E0D0E00E947E090E94A3
:1014C0006B17CE010E94241D0E940F266C157D050E
:1014D0008E059F0520F40E940F266B017C010E945F
:1014E0000F26DC01CB018C199D09AE09BF09893C8F
:1014F0009105A105B10558F48FE10E944025892B83
:10150000E1F20E940F266B017C0111E0D6CF812F02
:10151000DF91CF911F91FF90EF90DF90CF900895D2
:101520000F931F93CF93DF9300D000D0CDB7DEB7DA
:101530008DE10E9440252091050230910602892B01
:1015400011F0206101C02F7E309306022093050226
:10155000209105028091080690E024FB002700F905
:1015600010E08017910729F480910A02882309F47A
:101570004AC024FF1DC06AED73E0CE0101960E94AF
:10158000F129CE0101960E943B2BCE0101960E94CB
:10159000672967ED73E0CE0101960E94F129CE0123
:1015A00001960E94821ECE0101960E94672923C0E7
:1015B00064EC73E0CE0101960E94F129CE01019600
:1015C0000E943B2BCE0101960E94672960EC73E0DC
:1015D000CE0101960E94F129CE0101960E94821E41
:1015E000CE0101960E946729809108028093EE0542
:1015F00085E0809308028091050282958170809336
:10160000080610920A0226960FB6F894DEBF0FBEA7
:10161000CDBFDF91CF911F910F9108950F931F932D
:1016200087E20E944025892B59F40E940F2660937F
:10163000C4057093C5058093C6059093C70524C063
:101640000E940F260091C4051091C5052091C60582
:101650003091C705DC01CB01801B910BA20BB30BB2
:10166000853F9140A105B10588F40E940F260091A5
:10167000C4051091C5052091C6053091C7056017B6
:1016800071078207930710F081E001C080E01F918D
:101690000F9108950F931F9385E20E944025892B97
:1016A00061F40E940F266093C0057093C10580937A
:1016B000C2059093C30581E027C00E940F260091C8
:1016C000C0051091C1052091C2053091C305DC0110
:1016D000CB01801B910BA20BB30B853F9140A10561
:1016E000B10588F40E940F260091C0051091C10534
:1016F0002091C2053091C3056017710782079307D7
:1017000010F08FEF01C080E01F910F9108950F93AB
:101710001F93CF93DF9300D000D0CDB7DEB70E94E8
:101720004A0B2091050230910602811102C0286007
:1017300003C0813029F4277F3093060220930502ED
:10174000209105028091070690E023FB002700F915
:1017500010E08017910729F480910902882309F489
:101760004BC023FF1DC06CEA73E0CE0101960E94BE
:10177000F129CE0101960E943B2BCE0101960E94D9
:10178000672968EA73E0CE0101960E94F129CE0133
:1017900001960E94481ECE0101960E94672923C02F
:1017A00065E973E0CE0101960E94F129CE01019610
:1017B0000E943B2BCE0101960E94672962E973E0EB
:1017C000CE0101960E94F129CE0101960E94481E89
:1017D000CE0101960E946729809108028093EE0550
:1017E00085E0809308028091050283FB882780F9B9
:1017F000809307061092090226960FB6F894DEBF72
:101800000FBECDBFDF91CF911F910F91089561E081
:1018100085E00C946925CF92DF92EF92FF920F93AF
:101820001F93CF93DF93CDB7DEB762970FB6F894CF
:10183000DEBF0FBECDBF0E948105811106C061E0F1
:1018400086E00E946925F12C06C060E086E00E94D7
:101850006925FF24F39460E085E00E9469250E94D9
:10186000BC1E00E010E0EE24E3948BE9C82E8FE06C
:10187000D82E0E947E0983E20E944025892B69F0C0
:101880006DE273E0CE0101960E94322ACE010196EC
:101890000E943B2BCE01019657C061E087E00E9479
:1018A0006925C6010197F1F760E087E00E9469258C
:1018B000C6010197F1F70E948105882311F0E1101C
:1018C00031C0FF2009F46EC00E948105811168C0FB
:1018D00081E08093ED054AE0B801CE0107960E94B1
:1018E0006C2960E773E0CE0101960E94322ABE01A6
:1018F000695F7F4FCE0101960E940529BC01CE0190
:101900000D960E94292ACE010D960E943B2BCE01F6
:101910000D960E946729CE0101960E946729CE018B
:10192000079612C00E94070C6CE271E080E090E024
:101930000E94D52560E086E00E94692560E085E090
:101940000E946925E12CC0CF0E9467290E94070CE4
:101950000E9433088091ED05833679F56CE573E0DC
:10196000CE0101960E94322ACE0101960E943B2BA5
:10197000CE0101960E9467296091ED05062E000CAC
:10198000770B4AE0CE0101960E94982961E0CE01D2
:1019900001960E94B91DCE0101960E9467290DC0D3
:1019A000FF24F3940F5F1F4F093883E1180709F0F4
:1019B00060CF83E68093ED05C9CF62960FB6F894A9
:1019C000DEBF0FBECDBFDF91CF911F910F91FF9072
:1019D000EF90DF90CF900895CF93DF9300D000D0A9
:1019E000CDB7DEB7BC01CE0101960E94292ABE0107
:1019F0006F5F7F4F8091330C9091340C0E941B26B7
:101A0000CE0101960E94672926960FB6F894DEBF94
:101A10000FBECDBFDF91CF9108950E940F26609336
:101A20003B0C70933C0C80933D0C90933E0C0895BE
:101A30000F931F930E940F2600913B0C10913C0CBA
:101A400020913D0C30913E0C60177107820793077F
:101A500010F40E940D0D0E940F2600913B0C109176
:101A60003C0C20913D0C30913E0CDC01CB01801BE5
:101A7000910BA20BB30B21E0883C9105A105B105A8
:101A800008F420E0822F1F910F910895CF92DF92EA
:101A9000FF920F931F93CF93DF9300D000D0CDB769
:101AA000DEB70E940D0D00E010E08091350C9091A2
:101AB000360CDC01ED91FC910480F581E02D199547
:101AC000892BD9F005301105A1F08091350C90914A
:101AD000360CDC01ED91FC910680F781E02D199523
:101AE000F801ED5CF34F848F0F5F1F4F0E940D0DC7
:101AF000DCCF85E0C82ED12C01C068010E94180DF2
:101B0000F82E811124C0B5E0CB16D10471F6053052
:101B1000110569F520E080E090E0FC01ED5CF34FF9
:101B2000348D230F019685309105B9F78091510CC2
:101B3000883221F08091510C823059F48091520CFE
:101B4000811107C0211105C0FF24F39410C0F12CAE
:101B50000EC066E973E0CE0101960E94322ACE01E2
:101B600001960E94EC0CCE0101960E9467298F2DF0
:101B700026960FB6F894DEBF0FBECDBFDF91CF9192
:101B80001F910F91FF90DF90CF9008951F93CF93F7
:101B9000DF9300D000D0CDB7DEB7182F0E940D0D17
:101BA000112379F18091350C9091360CDC01ED9187
:101BB000FC910480F581E02D1995892B71F08091BD
:101BC000350C9091360CDC01ED91FC910680F7818B
:101BD000E02D199511500E940D0D0E94180D8823BB
:101BE000F9F265EB73E0CE0101960E94322ACE0134
:101BF00001960E94EC0CCE0101960E94672980E0BC
:101C000001C081E026960FB6F894DEBF0FBECDBFAF
:101C1000DF91CF911F910895FF920F931F93CF9360
:101C2000DF93CDB7DEB7C058D1090FB6F894DEBF49
:101C30000FBECDBF80913F0C89830091410C0A8378
:101C40008091420C8B838091440C8C83FE013596ED
:101C500080E090E010E08017910744F4DC01AD5C77
:101C6000B34F53962C9121930196F5CF0C5F1F4FE4
:101C7000E1E0F0E0EC0FFD1FE00FF11F80914E0C52
:101C80008083F12C2F2D30E002171307A4F08091F0
:101C9000350C9091360CDC01ED91FC91A1E0B0E0A7
:101CA000AC0FBD1FA20FB31F0190F081E02D6C910E
:101CB0001995F394E7CF80E0C058DF4F0FB6F89442
:101CC000DEBF0FBECDBFDF91CF911F910F91FF906F
:101CD00008951F93CF93DF9300D000D0CDB7DEB728
:101CE000182F882319F067ED73E002C068EE73E0E7
:101CF000CE0101960E94322ACE0101960E94EC0C80
:101D0000CE0101960E94672982E090E09093400CFA
:101D100080933F0C91E09093410C21E030E03093B0
:101D2000430C2093420C24EE30E03093450C20937A
:101D3000440C112319F09093460C02C01092460CEB
:101D40008091460C8851819580934E0C0E940C0E18
:101D500086E00E94C60D81110E94460D26960FB6A0
:101D6000F894DEBF0FBECDBFDF91CF911F910895D4
:101D70008091F40B811104C00E94690E1092FC0B3B
:101D80000895AF92BF92CF92DF92EF92FF920F939E
:101D90001F93CF93DF936C0160E08091040C0E944D
:101DA0006925E6012496BA90AA9008E010E090E830
:101DB000E92EF12C60E08091020C0E94692561E01F
:101DC00097012A213B21232B09F460E08091030C29
:101DD0000E94692561E08091020C0E946925F594BA
:101DE000E7940150110931F7CC15DD05E1F661E00A
:101DF0008091040CDF91CF911F910F91FF90EF9094
:101E0000DF90CF90BF90AF900C946925FC0180913A
:101E10001D0C90911E0CE817F90769F1E03533ECC1
:101E2000F30730F4E0348CE9F80740F09F0102C07A
:101E30002FE433ECC90180549C4919C0E03395E785
:101E4000F90720F0CF018053954711C0E0323EE4FE
:101E5000F30720F0CF0180529E4409C0E03187E2B1
:101E6000F80720F0CF018051974201C0CF01909335
:101E70001E0C80931D0C2091100C2130E9F038F0DD
:101E8000223009F458C0233009F48DC0C2C06AE082
:101E900070E00E94D53DDC01AE5FB34F13968C918C
:101EA000E031F74208F08F7D90E09093140C80931E
:101EB000130C8DEF90E0A9C0E032FE4420F18A308F
:101EC000910568F064E670E00E94D53D6AE070E03C
:101ED0000E94D53DFB01EE5FF34F838102C08091EC
:101EE000050C90E09093140C8093130C8091130CCC
:101EF0009091140C8F7D99279093140C8093130C60
:101F00008FEE90E082C08A30910570F064E670E058
:101F10000E94D53D6AE070E00E94D53DFB01EE5F76
:101F2000F34F838190E0E8CF8FEF90E09093140C13
:101F30008093130C6AC0E033F54720F18436910595
:101F400068F068EE73E00E94D53D64E670E00E94A0
:101F5000D53DFB01EE5FF34F838102C08091050CFC
:101F600090E09093140C8093130C8091130C90913B
:101F7000140C8F7D99279093140C8093130C87EF8A
:101F800090E043C08436910578F268EE73E00E94D9
:101F9000D53D64E670E00E94D53DFB01EE5FF34F56
:101FA000838190E0E8CFE034FC49D8F0883E33E00C
:101FB000930748F068EE73E00E94D53DFB01EE5FA9
:101FC000F34F838102C08091050C90E09093140C34
:101FD0008093130C8091130C9091140C8F7D992792
:101FE0000EC0883E33E0930708F49ECF68EE73E09E
:101FF0000E94D53DFB01EE5FF34F838190E090930B
:10200000140C8093130C8BEF90E09093160C80933C
:10201000150C2F5F243018F42093100C02C010927E
:10202000100C83E19CE00C94C10EE2E0FCE08E5FBA
:10203000934FDC0113968C9190E0928B818B748B83
:10204000638B83E19CE00C94C10EE2E0FCE02FEF97
:1020500030E0281B390B328B218B748B638B83E12F
:102060009CE00C94C10E87E290E09093140C809356
:10207000130C83E19CE00C94C10E80EF90E09093F0
:10208000140C8093130C83E19CE00C94C10ECF934D
:10209000DF9300D000D0CDB7DEB7BC01CE010196F2
:1020A0000E94292ABE016F5F7F4F80913008909176
:1020B00031080E941B26CE0101960E9467292696B0
:1020C0000FB6F894DEBF0FBECDBFDF91CF9108955C
:1020D0000F931F93CF93DF93CDB7DEB762970FB601
:1020E000F894DEBF0FBECDBF8C0167EC74E0CE016B
:1020F0000D960E94322AF80184819581892B09F47A
:1021000057C06AEF73E0CE010D960E9439296091A5
:102110003708709138084AE0CE0107960E946C2972
:10212000BE01695F7F4FCE0101960E94292A6CE4AF
:1021300072E0CE0101960E94EC28BC01CE010D9602
:102140000E94D328CE0101960E946729CE010796EE
:102150000E946729B801CE010D960E94D328BE01C6
:10216000635F7F4FCE0101960E94292ACE0101961E
:102170000E944710CE0101960E94672920913708DE
:102180003091380846E0429FC001439F900D1124D2
:10219000B801895B974F0E94502980913708909130
:1021A000380801968F7799279093380880933708DD
:1021B000CE010D960E94672962960FB6F894DEBF95
:1021C0000FBECDBFDF91CF911F910F910895CF9397
:1021D000DF93CDB7DEB72C970FB6F894DEBF0FBEF6
:1021E000CDBF60E075E0CE0107960E94F1296EEF49
:1021F00074E0CE0107960E947528609137087091AF
:1022000038084AE0CE0101960E946C29BE016F5F3A
:102210007F4FCE0107960E94D328CE0101960E94DF
:10222000672968EF74E0CE0107960E947528BE0109
:10223000695F7F4FCE0101960E94292ACE01019647
:102240000E946810CE0101960E946729CE01079670
:102250000E94672980E02C960FB6F894DEBF0FBE6F
:10226000CDBFDF91CF910895CF92DF92EF92FF9291
:102270000F931F93CF93DF93CDB7DEB72C970FB695
:10228000F894DEBF0FBECDBF6C017B018A0167EF02
:1022900074E0CE0107960E94F12965EF74E0CE014B
:1022A00007960E94752860913708709138084AE0B7
:1022B000CE0101960E946C29BE016F5F7F4FCE0157
:1022C00007960E94D328CE0101960E9467296DEEE1
:1022D00074E0CE0107960E947528B601CE010796DC
:1022E0000E94D3286BEE74E0CE0107960E947528F9
:1022F000B701CE0107960E94D32869EE74E0CE01A3
:1023000007960E947528B801CE0107960E94D3282F
:10231000BE01695F7F4FCE0101960E94292ACE013E
:1023200001960E946810CE0101960E946729CE0195
:1023300007960E94672980E02C960FB6F894DEBFBE
:102340000FBECDBFDF91CF911F910F91FF90EF9006
:10235000DF90CF900895FF920F931F93CF93DF9359
:10236000CDB7DEB762970FB6F894DEBF0FBECDBF14
:102370008C01F62EBC01CE0101960E94292A63E849
:102380007BE0CE0107960E94292A6DE77BE0CE0113
:102390000D960E94292AAE014F5F5F4FBE01695F13
:1023A0007F4FCE010D960E943411CE010D960E94F2
:1023B0006729CE0107960E946729CE0101960E94E7
:1023C0006729F80184819581892B09F411C265E0A0
:1023D00074E0808191810E947A40892B09F008C2C3
:1023E00067EE74E0CE0101960E94F12969E87BE076
:1023F000CE0107960E94292A6DE77BE0CE010D965B
:102400000E94292AAE014F5F5F4FBE01695F7F4F77
:10241000CE010D960E943411CE010D960E946729BF
:10242000CE0107960E946729CE0101960E94672976
:1024300065EE74E0CE0101960E94F1296FE87BE021
:10244000CE0107960E94292A6DE77BE0CE010D960A
:102450000E94292AAE014F5F5F4FBE01695F7F4F27
:10246000CE010D960E943411CE010D960E9467296F
:10247000CE0107960E946729CE0101960E94672926
:1024800063EE74E0CE0101960E94F12965E97BE0DC
:10249000CE0107960E94292A6DE77BE0CE010D96BA
:1024A0000E94292AAE014F5F5F4FBE01695F7F4FD7
:1024B000CE010D960E943411CE010D960E9467291F
:1024C000CE0107960E946729CE0101960E946729D6
:1024D00061EE74E0CE0101960E94F1296BE97BE088
:1024E000CE0107960E94292A6DE77BE0CE010D966A
:1024F0000E94292AAE014F5F5F4FBE01695F7F4F87
:10250000CE010D960E943411CE010D960E946729CE
:10251000CE0107960E946729CE0101960E94672985
:102520006FED74E0CE0101960E94F12961EA7BE033
:10253000CE0107960E94292A6DE77BE0CE010D9619
:102540000E94292AAE014F5F5F4FBE01695F7F4F36
:10255000CE010D960E943411CE010D960E9467297E
:10256000CE0107960E946729CE0101960E94672935
:102570006DED74E0CE0101960E94F12967EA7BE0DF
:10258000CE0107960E94292A6DE77BE0CE010D96C9
:102590000E94292AAE014F5F5F4FBE01695F7F4FE6
:1025A000CE010D960E943411CE010D960E9467292E
:1025B000CE0107960E946729CE0101960E946729E5
:1025C0006BED74E0CE0101960E94F1296DEA7BE08B
:1025D000CE0107960E94292A6DE77BE0CE010D9679
:1025E0000E94292AAE014F5F5F4FBE01695F7F4F96
:1025F000CE010D960E943411CE010D960E946729DE
:10260000CE0107960E946729CE0101960E94672994
:1026100069ED74E0CE0101960E94F12963EB7BE045
:10262000CE0107960E94292A6DE77BE0CE010D9628
:102630000E94292AAE014F5F5F4FBE01695F7F4F45
:10264000CE010D960E943411CE010D960E9467298D
:10265000CE0107960E946729CE0101960E94672944
:1026600067ED74E0CE0101960E94F12969EB7BE0F1
:10267000CE0107960E94292A6DE77BE0CE010D96D8
:102680000E94292AAE014F5F5F4FBE01695F7F4FF5
:10269000CE010D960E943411CE010D960E9467293D
:1026A000CE0107960E946729CE0101960E946729F4
:1026B00065ED74E0CE0101960E94F1296FEB7BE09D
:1026C000CE0107960E94292A6DE77BE0CE010D9688
:1026D0000E94292AAE014F5F5F4FBE01695F7F4FA5
:1026E000CE010D960E943411CE010D960E946729ED
:1026F000CE0107960E946729CE0101960E946729A4
:1027000063ED74E0CE0101960E94F12965EC7BE057
:10271000CE0107960E94292A6DE77BE0CE010D9637
:102720000E94292AAE014F5F5F4FBE01695F7F4F54
:10273000CE010D960E943411CE010D960E9467299C
:10274000CE0107960E946729CE0101960E94672953
:1027500061ED74E0CE0101960E94F1296BEC7BE003
:10276000CE0107960E94292A6DE77BE0CE010D96E7
:102770000E94292AAE014F5F5F4FBE01695F7F4F04
:10278000CE010D960E943411CE010D960E9467294C
:10279000CE0107960E946729CE0101960E94672903
:1027A0006FEC74E0CE0101960E94F12961ED7BE0AF
:1027B000CE0107960E94292A6DE77BE0CE010D9697
:1027C0000E94292AAE014F5F5F4FBE01695F7F4FB4
:1027D000CE010D960E943411CE010D960E946729FC
:1027E000CE0107960E946729CE0101960E946729B3
:1027F000F1100E94E71062960FB6F894DEBF0FBE8C
:10280000CDBFDF91CF911F910F91FF9008951F933E
:10281000CF93DF93CDB7DEB762970FB6F894DEBFE4
:102820000FBECDBF162FBC01CE0101960E94292AF2
:1028300061EA7BE0CE0107960E94292A6DE77BE0E2
:10284000CE010D960E94292AAE014F5F5F4FBE0157
:10285000695F7F4FCE010D960E943411CE010D9617
:102860000E946729CE0107960E946729CE01019632
:102870000E94672911110E94E71062960FB6F89422
:10288000DEBF0FBECDBFDF91CF911F9108950F9393
:102890001F93CF93DF93CDB7DEB769970FB6F89448
:1028A000DEBF0FBECDBF282F8B016DE77BE0CE01D1
:1028B0004396298F0E94292A298D223061F02330E6
:1028C00091F02130C1F5B801CE0101960E94292A6C
:1028D00063EB7BE00FC0B801CE0101960E94292A6C
:1028E0006FEB7BE007C0B801CE0101960E94292A58
:1028F0006BEC7BE0CE0107960E94292ABE016D5E3B
:102900007F4FCE010D960E94292AAE014F5F5F4F87
:10291000BE01695F7F4FCE010D960E943411CE013A
:102920000D960E946729CE0107960E946729CE0165
:1029300001960E946729CE0143960E9467296996F5
:102940000FB6F894DEBF0FBECDBFDF91CF911F91C0
:102950000F910895CF93DF93CDB7DEB762970FB68F
:10296000F894DEBF0FBECDBFBC01CE0101960E9420
:10297000292A67EA7BE0CE0107960E94292A6DE7A3
:102980007BE0CE010D960E94292AAE014F5F5F4F7A
:10299000BE01695F7F4FCE010D960E943411CE01BA
:1029A0000D960E946729CE0107960E946729CE01E5
:1029B00001960E94672962960FB6F894DEBF0FBE9B
:1029C000CDBFDF91CF910895CF93DF93CDB7DEB721
:1029D00062970FB6F894DEBF0FBECDBFBC01CE012B
:1029E00001960E94292A69E87BE0CE0107960E94A1
:1029F000292A6DE77BE0CE010D960E94292AAE01BF
:102A00004F5F5F4FBE01695F7F4FCE010D960E9401
:102A10003411CE010D960E946729CE0107960E94BF
:102A20006729CE0101960E94672962960FB6F89435
:102A3000DEBF0FBECDBFDF91CF910895CF93DF935F
:102A400000D000D0CDB7DEB7BC01CE0101960E9408
:102A5000292ABE016F5F7F4F8091E30B9091E40BB9
:102A60000E941B26CE0101960E94672926960FB66A
:102A7000F894DEBF0FBECDBFDF91CF910895EF92E6
:102A8000FF920F931F93CF93DF93CDB7DEB762977B
:102A90000FB6F894DEBF0FBECDBF82E090E09093FA
:102AA000400C80933F0C1092410C81E090E0909399
:102AB000430C8093420C9093450C8093440C8CEF14
:102AC00080934E0C0E940C0E85E00E94C60D882358
:102AD00009F447C10E94460D882309F442C1809140
:102AE000F40B8F3F71F46EE074E0CE0101960E940A
:102AF000322ACE0101960E941E15CE0101960E9437
:102B0000672968EC70E080E090E00E94D52582E0C3
:102B100090E09093400C80933F0C1092410C81E028
:102B200090E09093430C8093420C88EE90E0909359
:102B3000450C8093440C85E180934E0C0E940C0E52
:102B400085E00E94C60D882399F10E940D0DE12CAD
:102B5000F12C87018091350C9091360CDC01ED91C0
:102B6000FC910480F581E02D1995892BD9F0063070
:102B70001105A1F08091350C9091360CDC01ED919E
:102B8000FC910680F781E02D1995F801ED5CF34F7B
:102B900081A30F5F1F4F0E940D0DDCCF86E0E82E52
:102BA000F12C01C078010E94180D882309F4E2C0BD
:102BB00068EC70E080E090E00E94D5256091800C88
:102BC0006093F40B611143C068E274E0CE0101969A
:102BD0000E94322ACE0101960E94EC0CCE01019691
:102BE0000E94672982E090E09093400C80933F0C14
:102BF0008093410C81E090E09093430C8093420CD1
:102C000087EE90E09093450C8093440C80E880938D
:102C1000460C8FEF8093470C85E980934E0C0E9401
:102C20000C0E87E00E94C60D81110E94460D809116
:102C3000F40B81116EC081E00E94690E882321F09F
:102C400081E08093FC0B65C01092FC0B62C0809108
:102C5000F50B1616E4F56A3074F4681709F459C0D8
:102C6000062E000C770B4AE0CE0107960E949829A9
:102C700067E374E00DC0681709F44BC0062E000C22
:102C8000770B4AE0CE0107960E9498296DE474E024
:102C9000CE010D960E94322ABE01695F7F4FCE01A0
:102CA0000D960E940529BC01CE0101960E94292A99
:102CB000CE0101960E941E15CE0101960E94672941
:102CC000CE010D960E946729CE0107961CC0681799
:102CD00001F162E674E0CE0101960E94322ACE0133
:102CE00001960E941E15CE0101960E9467296FE78A
:102CF00074E0CE0101960E94322ACE0101960E9414
:102D00001E15CE0101960E9467298091F40B8093D5
:102D1000F50B8091F40B811122C08091F50B882373
:102D200091F066E974E0CE0101960E94322ACE014C
:102D300001960E941E15CE0101960E94672980917E
:102D4000F40B8093F50B0E940F266093E90B7093B0
:102D5000EA0B8093EB0B9093EC0B81E04DC080E08D
:102D60004BC08FEF8093F40B8091F50B8F3F09F0F0
:102D7000B0CFCFCF0630110509F0EBCEB6E0EB16A1
:102D8000F10409F015CF20E080E090E0FC01ED5C5B
:102D9000F34F31A1230F019686309105B9F7809149
:102DA000510C883221F08091510C823029F421118C
:102DB00003C08091580C1DC06FEA74E0CE010196EB
:102DC0000E94322ACE0101960E94EC0CCE0101969F
:102DD0000E94672968EC74E0CE0101960E94322AB5
:102DE000CE0101960E94EC0CCE0101960E9467294B
:102DF0008FEF8093800CDCCE62960FB6F894DEBF26
:102E00000FBECDBFDF91CF911F910F91FF90EF903B
:102E10000895CF93DF9300D000D0CDB7DEB790E018
:102E2000FC013897E830F10508F04AC08827EA57D6
:102E3000FF4F8F4F0C941F3E6CED74E0CE01019656
:102E40000E94322ACE0101960E94EC0CCE0101961E
:102E50000E94672981E090E035C06FEE74E0CE01FA
:102E600001960E94322ACE0101960E94EC0CCE01FE
:102E700001960E94672982E090E024C062E075E03C
:102E8000CE0101960E94322ACE0101960E94EC0CDE
:102E9000CE0101960E94672985E090E013C065E1AC
:102EA00075E0CE0101960E94322ACE0101960E9461
:102EB000EC0CCE0101960E9467298AE090E002C0E6
:102EC00080E090E026960FB6F894DEBF0FBECDBF2F
:102ED000DF91CF910895CF92DF92EF92FF920F93FF
:102EE0001F93CF93DF93CDB7DEB72C970FB6F8942F
:102EF000DEBF0FBECDBF9091340880913508992375
:102F000009F45BC08F3FB1F40E944B1F882309F482
:102F100068C167E675E0CE0101960E94F129CE01F5
:102F200001960E944710CE0101960E9467291092D7
:102F3000340857C10E944B1F882309F452C11092D4
:102F4000340864E575E0CE0101960E94F129CE01B6
:102F500001960E944710CE0101960E946729809138
:102F600036088F5F809336088B3018F164E475E083
:102F7000CE0101960E94F129CE0101960E944710D0
:102F8000CE0101960E94672940E052EC61E070E0BA
:102F900080913208909133080E94E41E809132089B
:102FA00090913308DC01ED91FC910284F385E02DD2
:102FB00019958FEF8093350814C18F3FA9F569E209
:102FC00075E08DE49BE00E94392968E275E0CE014E
:102FD00001960E94F129CE0101960E944710CE0170
:102FE00001960E94672940E052EC61E070E0809118
:102FF0003208909133080E94E41E69E275E08091E6
:103000003208909133080E94472A809132089091AB
:103010003308DC01ED91FC910284F385E02D1995D4
:1030200081E08093340840C4823039F10E940F2639
:1030300000914308109144082091450830914608BA
:10304000DC01CB01801B910BA20BB30B89389341A0
:10305000A105B10508F0F4C30E940F2600914308B2
:103060001091440820914508309146086017710777
:103070008207930708F4E4C3B4C0809137089091A5
:1030800038082091390830913A08821B930B8F77CA
:103090009927892B09F47FC08091390890913A08CB
:1030A00016E0189FF001199FF00D1124E95BF74F0E
:1030B00084819581892B09F45AC0809139089091B7
:1030C0003A08189FB001199F700D1124695B774F62
:1030D00080913208909133080E945B2A80913208D7
:1030E00090913308DC01ED91FC910284F385E02D91
:1030F0001995E0903908F0903A0862E375E0CE0146
:1031000001960E94322A1E9DB0011F9D700D112450
:10311000695B774FCE0101960E940529BC01CE0163
:1031200007960E94292ACE0107960E944710CE01D9
:1031300007960E946729CE0101960E94672981E0C7
:10314000809334080E940F2660933B0870933C08DC
:1031500080933D0890933E080E940F2660933F089D
:103160007093400880934108909342080EC061E03C
:1031700075E0CE0101960E94F129CE0101960E94D0
:103180004710CE0101960E9467296AE375E08DE43D
:103190009BE00E9439290E940F2600913F08109160
:1031A00040082091410830914208DC01CB01801B8E
:1031B000910BA20BB30B89389341A105B10508F01F
:1031C0007EC30E940F2600913F0810914008209175
:1031D000410830914208601771078207930708F48D
:1031E0006EC38091320890913308DC01ED91FC911F
:1031F0000480F581E02D1995892B09F448C180914F
:10320000320890913308DC01ED91FC910680F78142
:10321000E02D1995182F89831A8241E050E0BE01F4
:103220006F5F7F4F87E49BE00E94A52810923608CD
:103230001D3009F02CC16FE375E0CE0107960E94A6
:10324000322A67E47BE0CE0107960E940529BC0183
:10325000CE0101960E94292ACE0101960E944710B4
:10326000CE0101960E946729CE0107960E94672928
:103270008091510B9091520B892B79F16AE375E0A3
:1032800080914D0B90914E0B0E947A40892B29F52D
:103290008091470B9091480B009719F00E947B4357
:1032A00003C060E070E0CB012091390830913A080A
:1032B000890120E030E0601771078207930709F069
:1032C000E0C08091390890913A0801968F7799274C
:1032D00090933A0880933908D2C065E274E0CE0139
:1032E00001960E94322ACE0101960E94C81E8C01CE
:1032F000CE0101960E9467290F3F1F4F79F16CECB8
:1033000075E0CE0101960E94F129CE0101960E943E
:103310004710CE0101960E9467296BEC75E0CE0143
:1033200001960E94F129CE0101960E944710CE011C
:1033300001960E9467298091510B9091520B892B25
:1033400009F49DC069E275E080914D0B90914E0BA0
:103350000E947A40892B09F48FC091C063E775E021
:10336000CE0101960E94322ACE0101960E94C81E0B
:103370008C01CE0101960E9467290F3F1F4FF1F08B
:1033800062EB75E0CE0101960E94F129CE01019613
:103390000E944710CE0101960E94672961EB75E0FB
:1033A000CE0101960E94F129CE0101960E9447109C
:1033B000CE0101960E94672982E05FC068E475E053
:1033C000CE0101960E94322ACE0101960E94C81EAB
:1033D0008C01CE0101960E9467290F3F1F4FF1F02B
:1033E00069E975E0CE0101960E94F129CE010196AE
:1033F0000E944710CE0101960E94672968E975E096
:10340000CE0101960E94F129CE0101960E9447103B
:10341000CE0101960E94672983E02FC06BEA72E01B
:10342000CE0101960E94322ACE0101960E94C81E4A
:103430008C01CE0101960E9467290F3F1F4F09F1B1
:103440006FE775E0CE0101960E94F129CE01019649
:103450000E944710CE0101960E9467296EE775E031
:10346000CE0101960E94F129CE0101960E944710DB
:10347000CE0101960E94672981E080933508109261
:10348000340867EC74E087E49BE00E9439290E94CD
:103490007E0620910502309106028091EF079091FF
:1034A000F0078217930709F469C08091040221FD97
:1034B00006C0882309F458C060E376E019C020FDF7
:1034C00006C0882309F450C06AE176E011C025FDEA
:1034D00006C0882309F448C060E176E009C0A9016C
:1034E00040745570452BA1F48823F1F166E076E035
:1034F000CE0101960E94F12960E0CE0101960E9462
:10350000AB11CE0101960E946729109204022CC0D3
:10351000A90140785A70452B29F4882329F16CEFD2
:1035200075E0E6CF22FD05C08823F1F062EF75E07B
:10353000DFCF23FD05C08823B9F068EE75E0D8CF52
:10354000813091F062EE75E0CE0101960E94F12982
:1035500060E0CE0101960E94AB11CE0101960E945F
:10356000672981E0809304020E94E71080910502A0
:10357000909106029093F0078093EF070E940E0B44
:103580000E944A0B8091D405882329F10E940F26BE
:103590006093F2077093F3078093F4079093F50715
:1035A0008091F107811115C06AE376E0CE010196A2
:1035B0000E94F129CE0101960E943B2BCE0101967B
:1035C0000E94672961E08EE20E94692581E0809374
:1035D000F1071092D4058091F1078823D9F10E9458
:1035E0000F26C090F207D090F307E090F407F09018
:1035F000F507DC01CB018C199D09AE09BF0989389B
:103600009341A105B105A8F068E072E0CE010196F2
:103610000E94F129CE0101960E943B2BCE0101961A
:103620000E94672960E08EE20E9469251092F107EE
:1036300011C00E940F266C157D058E059F0550F464
:103640000E940F266093F2077093F3078093F407AC
:103650009093F50780910508882321F00E94B30715
:103660001092050880910408882309F466C08091AF
:10367000F40B811160C08091FC0B882309F45BC0BE
:103680008091FA0B8F5F8093FA0B823008F453C05D
:1036900082E090E09093400C80933F0C1092410C9C
:1036A00081E090E09093430C8093420C85EE90E093
:1036B0009093450C8093440C88E180934E0C0E94BB
:1036C0000C0E81E080937A0C85E00E94C60D882361
:1036D00081F10E940D0DF12CE12C0F2D1E2D8091FA
:1036E000350C9091360CDC01ED91FC910480F58154
:1036F000E02D1995892B41F00031110509F015C114
:1037000090E1F92EE12C02C0F02EE12E0E94180D5E
:10371000882309F405C16DE475E0CE0101960E948D
:10372000322ACE0101960E94EC0CCE0101960E9435
:1037300067290E943F15109204088091030888238E
:1037400099F08CE00E94402561E0892B09F060E04F
:103750008CE00E9469258CE00E944025682F8DE056
:103760000E9469251092030880910208811110922D
:1037700002080E940F266093FE077093FF07809354
:10378000000890930108C090FA07D090FB07E090E2
:10379000FC07F090FD078B019C010C191D092E09F7
:1037A0003F090230110521053105D8F12091F907B3
:1037B0002C19260F2093F9076093FA077093FB07E3
:1037C0008093FC079093FD072A3008F41FC11092E4
:1037D000F9079091F8079F5F9093F80781E0809335
:1037E00005089A3008F412C11092F8079091F70773
:1037F0009F5F9093F70780930408953008F406C103
:103800001092F7079091F6079F5F9093F6078093C9
:103810000308923008F4FAC01092F6078093020869
:10382000F5C06C157D058E059F0508F0EFC060930F
:10383000FA077093FB078093FC079093FD07E6C09F
:1038400060E775E08DE49BE00E94392961E175E055
:10385000CE0101960E94F129CE0101960E944710E7
:10386000CE0101960E94672960E775E080913208D9
:10387000909133080E94472A809132089091330832
:10388000DC01ED91FC910284F385E02D199581E036
:10389000809334080E940F26609343087093440875
:1038A00080934508909346080E940F2660933B083A
:1038B00070933C0880933D0890933E0892CC60E75B
:1038C00075E08DE49BE00E94392960E775E0809106
:1038D0003208909133080E94472A809132089091D3
:1038E0003308DC01ED91FC910284F385E02D1995FC
:1038F00081E0809334080E940F2660933B08709308
:103900003C0880933D0890933E080E940F266093E8
:103910003F0870934008809341089093420861CC1F
:103920000031110509F0D9CE14C08091350C909169
:10393000360CDC01ED91FC910680F781E02D1995A4
:10394000F801ED5CF34F87A30F5F1F4F0E940D0D31
:10395000C6CE80915E0C20917B0C90E0821B910979
:103960000297C4F0F0905E0CF21AEF2DEE0F00E01B
:1039700010E08EEFE82EEE0EFF2081F1ED5FF0E01B
:10398000ED5CF34F87A10E940917080F191FFA94E5
:10399000EE2DEFCF80915F0C882351F080915E0C6B
:1039A0002817D1F080915F0C0E9409178C0116C076
:1039B00080915E0C281310C08091600C8E3051F401
:1039C00080917D0C8F5F80937D0C853128F0109263
:1039D0007D0C17C010927D0C00E010E080915E0C11
:1039E00080937B0C0F3F69F08091EF0B9091F00B6F
:1039F000800F911D07FD9A959093F00B8093EF0B2C
:103A000002C00E943F151092FA0B95CE2C960FB66D
:103A1000F894DEBF0FBECDBFDF91CF911F910F9104
:103A2000FF90EF90DF90CF90089560E081E090E00C
:103A30000E948A0560E082E090E00E948A0560E0D2
:103A400083E090E00C948A050F931F93CF93DF934C
:103A5000EC010E940F260091EB071091EC072091DA
:103A6000ED073091EE07DC01CB01801B910BA20B1F
:103A7000B30B8D329140A105B105C8F08091EA07E2
:103A8000811107C0CE010E94BD0581E08093EA0745
:103A900004C00E94151D1092EA070E940F26609331
:103AA000EB077093EC078093ED079093EE070E946D
:103AB0000F260091EB071091EC072091ED07309154
:103AC000EE07601771078207930750F40E940F26D4
:103AD0006093EB077093EC078093ED079093EE07EC
:103AE000DF91CF911F910F91089583E196E00E949D
:103AF0006D2321E0892B09F420E0822F0895CF93D4
:103B0000DF93CDB7DEB762970FB6F894DEBF0FBE76
:103B1000CDBFBC01CE0101960E94292A6FE87BE04F
:103B2000CE0107960E94292A6DE77BE0CE010D9613
:103B30000E94292AAE014F5F5F4FBE01695F7F4F30
:103B4000CE010D960E943411CE010D960E94672978
:103B5000CE0107960E946729CE0101960E9467292F
:103B600062960FB6F894DEBF0FBECDBFDF91CF9146
:103B700008951F93CF93DF93CDB7DEB762970FB64B
:103B8000F894DEBF0FBECDBF162FBC01CE0101964B
:103B90000E94292A61ED7BE0CE0107960E94292A26
:103BA0006DE77BE0CE010D960E94292AAE014F5FA2
:103BB0005F4FBE01695F7F4FCE010D960E943411A9
:103BC000CE010D960E946729CE0107960E946729B3
:103BD000CE0101960E94672911110E94E71062969A
:103BE0000FB6F894DEBF0FBECDBFDF91CF911F910E
:103BF0000895CF93DF93CDB7DEB762970FB6F894F1
:103C0000DEBF0FBECDBF20913508223079F069E7C5
:103C100075E0CE0101960E94322ACE0101960E94E3
:103C20004710CE0101960E94672929C0BC01CE0130
:103C300001960E94292A6DED7BE0CE0107960E9435
:103C4000292A67ED7BE0CE010D960E94292AAE015C
:103C50004F5F5F4FBE01695F7F4FCE010D960E949F
:103C60003411CE010D960E946729CE0107960E945D
:103C70006729CE0101960E9467290E94E71062968B
:103C80000FB6F894DEBF0FBECDBFDF91CF91089580
:103C9000CF93DF93CDB7DEB762970FB6F894DEBF50
:103CA0000FBECDBFBC01CE0101960E94292A65E955
:103CB0007BE0CE0107960E94292A6DE77BE0CE01CA
:103CC0000D960E94292AAE014F5F5F4FBE01695FCA
:103CD0007F4FCE010D960E943411CE010D960E94A9
:103CE0006729CE0107960E946729CE0101960E949E
:103CF000672962960FB6F894DEBF0FBECDBFDF9185
:103D0000CF910895CF93DF93CDB7DEB762970FB60B
:103D1000F894DEBF0FBECDBFBC01CE0101960E945C
:103D2000292A6BE97BE0CE0107960E94292A6DE7DC
:103D30007BE0CE010D960E94292AAE014F5F5F4FB6
:103D4000BE01695F7F4FCE010D960E943411CE01F6
:103D50000D960E946729CE0107960E946729CE0121
:103D600001960E94672962960FB6F894DEBF0FBED7
:103D7000CDBFDF91CF910895E2E0FCE08FEF90E0BE
:103D8000928B818B948B838B83E19CE00C94C10E8E
:103D9000CF93DF9320914B0B30914C0B232B79F079
:103DA000FC01C091470BD091480B60817181CE011D
:103DB0000E948A40009719F08C1B9D0B02C08FEF68
:103DC0009FEFDF91CF910895CF92DF92EF92FF9214
:103DD0000F931F93CF93DF93EC016A017B01E88976
:103DE000F98982E080834115514E61057105B1F07A
:103DF00060E079E08DE390E0A70196010E94FD3D2F
:103E000089019A0101501109210931093695279537
:103E100017950795980101151041A8F0E889F989CF
:103E2000108260E874E88EE190E0A70196010E949C
:103E3000FD3DDA01C9010197A109B109B695A79520
:103E4000979587959C01EC85FD853083EE85FF85F0
:103E50002083188EEC89FD8986E08083EA89FB89BE
:103E6000808180618083EA89FB898081886080838A
:103E7000EA89FB89808180688083EA89FB89808167
:103E80008F7D8083DF91CF911F910F91FF90EF90F5
:103E9000DF90CF9008950F931F930E940F260091FB
:103EA0003B0810913C0820913D0830913E08601776
:103EB00071078207930750F40E940F2660933B0816
:103EC00070933C0880933D0890933E080E940F2613
:103ED00000913B0810913C0820913D0830913E082C
:103EE000DC01CB01801B910BA20BB30B21E08838C6
:103EF0009341A105B10508F420E0822F1F910F9195
:103F00000895CF93DF93CDB7DEB762970FB6F894DD
:103F1000DEBF0FBECDBFBC01CE0101960E94292A93
:103F200067E77BE0CE0107960E94292A61E77BE0E4
:103F3000CE010D960E94292AAE014F5F5F4FBE0150
:103F4000695F7F4FCE010D960E943411CE010D9610
:103F50000E946729CE0107960E946729CE0101962B
:103F60000E9467290E94E71062960FB6F894DEBFA0
:103F70000FBECDBFDF91CF9108950F931F93CF93C5
:103F8000DF93CDB7DEB769970FB6F894DEBF0FBEEB
:103F9000CDBF282F8B016DE77BE0CE014396298FA3
:103FA0000E94292A298D223069F02330A1F0213086
:103FB000D9F54AE0B801CE0101960E946C296DEA5C
:103FC0007BE011C04AE0B801CE0101960E946C2945
:103FD00069EB7BE008C04AE0B801CE0101960E947F
:103FE0006C2965EC7BE0CE0107960E94292ABE0170
:103FF0006D5E7F4FCE010D960E94292AAE014F5F64
:104000005F4FBE01695F7F4FCE010D960E94341154
:10401000CE010D960E946729CE0107960E9467295E
:10402000CE0101960E946729CE0143960E9467291E
:1040300069960FB6F894DEBF0FBECDBFDF91CF916A
:104040001F910F9108952091100C2F5F243018F4C8
:104050002093100C02C01092100C2091100C2130F3
:10406000F9F070F02230D1F1233009F051C080E531
:1040700090E09093140C8093130C8BEF90E044C06D
:104080006AE070E00E94D53DFC01EE5FF34F838152
:1040900090E09093140C8093130C8DEF90E034C05B
:1040A0008A309105A0F064E670E00E94D53D6AE098
:1040B00070E00E94D53DFB01EE5FF34F838190E0FD
:1040C0009093140C8093130C8FEE90E01DC08FEF33
:1040D00090E09093140C8093130C16C084369105D5
:1040E000B0F368EE73E00E94D53D64E670E00E9494
:1040F000D53DFB01EE5FF34F838190E09093140C6C
:104100008093130C87EF90E09093160C8093150C1E
:1041100083E19CE00C94C10E0F931F930E940F2625
:104120000091E90B1091EA0B2091EB0B3091EC0B15
:10413000601771078207930750F40E940F2660935F
:10414000E90B7093EA0B8093EB0B9093EC0B0E94BE
:104150000F260091E90B1091EA0B2091EB0B3091A7
:10416000EC0BDC01CB01801B910BA20BB30B21E00C
:10417000843F9140A105B10508F420E0822F1F91F2
:104180000F9108951F93CF93DF9300D000D0CDB748
:10419000DEB7182F8091ED0B1817D1F0112319F00D
:1041A00061E875E002C06DE975E0CE0101960E94FC
:1041B000322ACE0101960E941E15CE0101960E9460
:1041C0006729612F8091F80B0E9469251093ED0BF0
:1041D0000E940F266093E90B7093EA0B8093EB0B20
:1041E0009093EC0B0E948C20811119C08091350CAA
:1041F0009091360CDC01ED91FC910480F581E02D6D
:104200001995892B79F38091350C9091360CDC014E
:10421000ED91FC910680F781E02D1995E3CF26966C
:104220000FB6F894DEBF0FBECDBFDF91CF911F91C7
:104230000895CF93DF93CDB7DEB762970FB6F894AA
:10424000DEBF0FBECDBF4AE0682FCE0101960E94AF
:10425000C42969E57BE0CE0107960E94292A63E51F
:104260007BE0CE010D960E94292AAE014F5F5F4F81
:10427000BE01695F7F4FCE010D960E943411CE01C1
:104280000D960E946729CE0107960E946729CE01EC
:1042900001960E94672962960FB6F894DEBF0FBEA2
:1042A000CDBFDF91CF910895CF93DF93CDB7DEB728
:1042B00062970FB6F894DEBF0FBECDBF4AE0BC01D7
:1042C000CE0101960E946C296FE57BE0CE01079636
:1042D0000E94292A63E57BE0CE010D960E94292ADF
:1042E000AE014F5F5F4FBE01695F7F4FCE010D96FC
:1042F0000E943411CE010D960E946729CE010796C7
:104300000E946729CE0101960E94672962960FB626
:10431000F894DEBF0FBECDBFDF91CF910895CF934C
:10432000DF93CDB7DEB762970FB6F894DEBF0FBE4E
:10433000CDBF4AE0BC01CE0101960E946C2965E622
:104340007BE0CE0107960E94292A63E57BE0CE013F
:104350000D960E94292AAE014F5F5F4FBE01695F33
:104360007F4FCE010D960E943411CE010D960E9412
:104370006729CE0107960E946729CE0101960E9407
:10438000672962960FB6F894DEBF0FBECDBFDF91EE
:10439000CF910895CF93DF93CDB7DEB762970FB675
:1043A000F894DEBF0FBECDBFBC01CE0101960E94C6
:1043B000292A6BE67BE0CE0107960E94292A63E555
:1043C0007BE0CE010D960E94292AAE014F5F5F4F20
:1043D000BE01695F7F4FCE010D960E943411CE0160
:1043E0000D960E946729CE0107960E946729CE018B
:1043F00001960E94672962960FB6F894DEBF0FBE41
:10440000CDBFDF91CF9108954F925F926F927F92CF
:104410008F929F92AF92BF92CF92DF92EF92FF92D4
:104420000F931F93CF93DF934B015C0180910D0895
:1044300090910E08A0910F08B09110088816990667
:10444000AA06BB0609F4C2C08CE3C82ED12CE12C0D
:10445000F12CC501B401A70196010E94FD3D6093B6
:104460000608CA01B901A70196010E94FD3D6093AB
:104470000708CA01B90128E130E040E050E00E949D
:10448000FD3D69017A0160930808CA01B9016C5FBA
:104490007F4F8F4F9F4F27E030E040E050E00E9479
:1044A000FD3D6F5F60930908412C512C320140E0C3
:1044B00004E610E0C0E9D1E0242F30E02E54384F5C
:1044C000F901E370FF27309789F4C901B8010E9410
:1044D000E93D892B31F4C901BE010E94E93D892BD8
:1044E00029F48EE691E0A0E0B0E004C08DE691E012
:1044F000A0E0B0E0480E591E6A1E7B1ED301C20127
:10450000AA27BB27C816D906EA06FB0610F04F5F9C
:10451000D3CF40930C08309799F4C90164E670E05A
:104520000E94E93D892B39F4C90160E971E00E94DC
:10453000E93D892B29F48EE691E0A0E0B0E004C0CB
:104540008DE691E0A0E0B0E0481A590A6A0A7B0AB9
:10455000C418D508E608F708C90164E670E00E94AF
:10456000E93DEC01C90160E971E00E94E93DA3E287
:10457000B2E020E0213039F4309749F4209729F453
:10458000009729F402C04C9103C04DE101C04CE1F9
:1045900050E060E070E0C416D506E606F70640F08D
:1045A000C41AD50AE60AF70A2F5F11962C3011F7C4
:1045B0002F5F20930B08C394C0920A0880920D08C5
:1045C00090920E08A0920F08B0921008DF91CF9140
:1045D0001F910F91FF90EF90DF90CF90BF90AF9021
:1045E0009F908F907F906F905F904F9008951F9253
:1045F0000F920FB60F9211240BB60F922F933F9389
:104600004F935F936F937F938F939F93AF93BF93DA
:10461000EF93FF9383E196E00E94B624FF91EF9120
:10462000BF91AF919F918F917F916F915F914F91CA
:104630003F912F910F900BBE0F900FBE0F901F90C8
:1046400018951F920F920FB60F9211240BB60F926E
:104650002F933F934F935F936F937F938F939F938A
:10466000AF93BF93EF93FF9383E196E00E94CE2A2E
:10467000FF91EF91BF91AF919F918F917F916F913A
:104680005F914F913F912F910F900BBE0F900FBEF6
:104690000F901F901895FC01918D828D981761F0F5
:1046A000828DDF01A80FB11D5D968C91928D9F5F69
:1046B0009F73928F90E008958FEF9FEF0895FC0114
:1046C000918D828D981731F0828DE80FF11D858DC7
:1046D00090E008958FEF9FEF0895FC01918D228D5A
:1046E000892F90E0805C9F4F821B91098F739927DF
:1046F000089580E090E0892B21F00E946B288111C1
:104700001DC080E090E0892B41F080E090E0892B93
:1047100021F00E940000811114C080E090E0892BFC
:1047200021F00E94751D81110FC080E090E0892B5F
:1047300081F00E94612881110AC008950E94000042
:10474000E0CF0E940000E9CF0E940000EECF0C9461
:104750000000089590E0FC013197E231F10508F086
:104760004EC08827E257FF4F8F4F0C941F3E809119
:1047700080008F7703C0809180008F7D80938000C0
:10478000089580918000877FF9CF84B58F7702C02C
:1047900084B58F7D84BD08958091B0008F7703C06C
:1047A0008091B0008F7D8093B0000895809190003B
:1047B0008F7707C0809190008F7D03C0809190001B
:1047C000877F8093900008958091A0008F7707C025
:1047D0008091A0008F7D03C08091A000877F80938F
:1047E000A0000895809120018F7707C0809120015B
:1047F0008F7D03C080912001877F809320010895E1
:104800003FB7F89480911C0890911D08A0911E0854
:10481000B0911F0826B5A89B05C02F3F19F001963F
:10482000A11DB11D3FBFBA2FA92F982F8827820F36
:10483000911DA11DB11DBC01CD0142E0660F771F86
:10484000881F991F4A95D1F70895EF92FF920F9311
:104850001F93CF93DF9300D000D0CDB7DEB78C018C
:104860007A0160E777E00E94F1298AE0E816F10416
:104870002CF46EE677E0C8010E9475284AE0B70183
:10488000CE0101960E949829BE016F5F7F4FC8013B
:104890000E94D328CE0101960E946729C80126965E
:1048A0000FB6F894DEBF0FBECDBFDF91CF911F9141
:1048B0000F91FF90EF900895EF92FF920F931F9347
:1048C000CF93DF93EC017B0167EC74E008960E94C4
:1048D000322A8E01025F1F4F67EC74E0C8010E940C
:1048E000322A83E196E09983888380E092ECA1E00C
:1048F000B0E08C839D83AE83BF8388EB95E09B8380
:104900008A83B701C801DF91CF911F910F91FF906A
:10491000EF900C9450291F920F920FB60F92112412
:104920000BB60F922F933F934F935F936F937F93A9
:104930008F939F93AF93BF93EF93FF93E0911508ED
:10494000F09116081995FF91EF91BF91AF919F914A
:104950008F917F916F915F914F913F912F910F9028
:104960000BBE0F900FBE0F901F901895FC01848D09
:10497000DF01A80FB11DA35ABF4F2C91848D90E089
:1049800001968F739927848FA689B7892C93A08964
:10499000B1898C9180648C93938D848D981306C01B
:1049A0000288F389E02D80818F7D80830895EF92C6
:1049B000FF920F931F93CF93DF93EC0181E0888FD9
:1049C0009B8D8C8D981305C0E889F989808185FDC0
:1049D00024C0F62E0B8D10E00F5F1F4F0F731127B1
:1049E000E02E8C8DE8120CC00FB607FCFACFE889D8
:1049F000F989808185FFF5CFCE010E94B624F1CFE1
:104A00008B8DFE01E80FF11DE35AFF4FF0820B8FF3
:104A1000EA89FB898081806207C0EE89FF89608313
:104A2000E889F98980818064808381E090E0DF916A
:104A3000CF911F910F91FF90EF900895CF93DF9347
:104A4000EC01888D8823C9F0EA89FB89808185FD86
:104A500005C0A889B9898C9186FD0FC00FB607FCE7
:104A6000F5CF808185FFF2CFA889B9898C9185FF28
:104A7000EDCFCE010E94B624E7CFDF91CF9108950C
:104A8000CF93DF93282F30E0F901E85DF84F849150
:104A9000F901EE51F94FD491F901E456F94FC4915F
:104AA000CC2391F081110E94AA23EC2FF0E0EE0FAD
:104AB000FF1FEE57F94FA591B491EC91ED2381E0E2
:104AC00090E021F480E002C080E090E0DF91CF919F
:104AD00008951F93CF93DF93282F30E0F901E85D0D
:104AE000F84F8491F901EE51F94FD491F901E45650
:104AF000F94FC491CC23C9F0162F81110E94AA232B
:104B0000EC2FF0E0EE0FFF1FE859F94FA591B4919B
:104B10008FB7F894111105C09C91ED2FE095E92312
:104B200002C0EC91ED2BEC938FBFDF91CF911F91E1
:104B30000895CF93DF9390E0FC01EE51F94F24915B
:104B4000FC01E456F94F8491882361F190E0880FCD
:104B5000991FFC01E25BF94FC591D491FC01E85922
:104B6000F94FA591B491611109C09FB7F89488815C
:104B7000209582238883EC912E230BC0623061F450
:104B80009FB7F8943881822F809583238883EC9196
:104B90002E2B2C939FBF06C08FB7F894E8812E2B45
:104BA00028838FBFDF91CF9108958F929F92AF920C
:104BB000BF92CF92DF92EF92FF926B017C010E9435
:104BC00000244B015C01C114D104E104F104F1F0B3
:104BD0000E940024DC01CB0188199909AA09BB09AC
:104BE000883E9340A105B10570F321E0C21AD108B7
:104BF000E108F10888EE880E83E0981EA11CB11C24
:104C0000C114D104E104F10419F7DDCFFF90EF9056
:104C1000DF90CF90BF90AF909F908F9008952FB767
:104C2000F894609118087091190880911A08909171
:104C30001B082FBF08954F925F926F927F928F92C1
:104C40009F92AF92BF92EF92FF920F931F93CF93D9
:104C5000DF93CDB7DEB76E970FB6F894DEBF0FBE09
:104C6000CDBF8C017B0167EC74E0CE010D960E94F4
:104C7000322AB701CE0143960E94292A67EC74E0DC
:104C8000CE0149960E94322A78012EE0E20EF11CF4
:104C90000E940F26409028085090290860902A080A
:104CA00070902B084B015C0184189508A608B70882
:104CB00080912C0890912D08A0912E08B0912F087A
:104CC000E8EE8E16E3E09E06A104B104D0F0019652
:104CD000A11DB11D80932C0890932D08A0932E0840
:104CE000B0932F08B301A20148515C4F6F4F7F4F23
:104CF000409328085093290860932A0870932B0842
:104D0000C7CF4091240850912508609126087091E2
:104D1000270884179507A607B70708F456C0E0913F
:104D20002208F0912308309709F44FC019956115B6
:104D300071058105910539F160932C0870932D0858
:104D400080932E0890932F08DC01CB01845D9E4F49
:104D5000AF4FBF4F8093240890932508A093260857
:104D6000B093270882E090E0909321088093200878
:104D70000E940F26609328087093290880932A08C0
:104D800090932B0822C080912C0890912D08A0911F
:104D90002E08B0912F08845D9E4FAF4FBF4F809378
:104DA000240890932508A0932608B093270881E053
:104DB00090E02091200830912108232B11F480E00D
:104DC00090E0909321088093200880902C08909088
:104DD0002D08A0902E08B0902F08C501B4010E94A4
:104DE00004224091080850E0B801CE0107960E94C5
:104DF000252463E777E0CE0107960E947528C50158
:104E0000B4010E9404224091070850E0B801CE018D
:104E100001960E942524BE016F5F7F4FCE01079649
:104E20000E94D328CE0101960E94672961E777E0AE
:104E3000CE0107960E947528C501B4010E94042284
:104E40004091060850E0B801CE0101960E94252449
:104E5000BE016F5F7F4FCE0107960E94D328CE011F
:104E600001960E946729BE01695F7F4FCE010196BE
:104E70000E94292A6EEB75E0CE0101960E94EC2873
:104E8000B7010E9405296CEB75E00E94EC28BE0179
:104E90006D5E7F4F0E940529BC01CE0149960E949C
:104EA0005029CE0101960E946729CE0107960E94E3
:104EB00067298D859E850097A9F0698D7A8D61158A
:104EC000710571F04F8558892D8D3E8D421753071E
:104ED00038F00E9483408D8D9E8D9A8B898B12C0F5
:104EE0000E94EB3E898D9A8D9E878D878B8D9C8D40
:104EF000988B8F878D8D9E8D9A8B898B1A8E198EAC
:104F00001C8E1B8E1E8E1D8ECE0149960E94672917
:104F1000CE0143960E946729BE01635F7F4FF8016F
:104F2000808191810E945B2ACE010D960E946729A3
:104F30006E960FB6F894DEBF0FBECDBFDF91CF9156
:104F40001F910F91FF90EF90BF90AF909F908F9027
:104F50007F906F905F904F9008951F920F920FB6C1
:104F60000F9211242F933F938F939F93AF93BF93EF
:104F70008091180890911908A0911A08B0911B0807
:104F80003091170823E0230F2D3720F40196A11D3F
:104F9000B11D05C026E8230F0296A11DB11D209367
:104FA00017088093180890931908A0931A08B093D3
:104FB0001B0880911C0890911D08A0911E08B091BB
:104FC0001F080196A11DB11D80931C0890931D0818
:104FD000A0931E08B0931F08BF91AF919F918F912E
:104FE0003F912F910F900FBE0F901F90189508952D
:104FF000CF92DF92EF92FF920F931F93CF93DF93A5
:105000006C017A018B01C0E0D0E0CE15DF0589F09C
:10501000D8016D918D01D601ED91FC910190F08147
:10502000E02DC6011995892B11F47E0102C021964D
:10503000ECCFC701DF91CF911F910F91FF90EF90BF
:10504000DF90CF9008950E946C406115710579F052
:10505000FB0101900020E9F73197AF01461B570B88
:10506000DC01ED91FC910280F381E02D199480E048
:1050700090E008950F931F93CF93DF93EC01888105
:105080009981009729F02A813B812617370788F4F8
:105090008B016F5F7F4F0E94833F009761F0998380
:1050A00088831B830A832C813D81232B11F4FC010F
:1050B000108281E001C080E0DF91CF911F910F91BC
:1050C000089580EB96E00E946D2321E0892B09F47E
:1050D00020E0822F08958DE497E00E946D2321E067
:1050E000892B09F420E0822F0895EF92FF920F930D
:1050F0001F93CF93DF936115710511F480E01EC0FB
:105100008B01EC01CB010E94A9430097B1F02C81E7
:105110003D817C01E20EF31EB701CE010E943A28C8
:10512000882361F3288139818C819D81B801820FA8
:10513000931F0E94A243FD82EC8281E0DF91CF9118
:105140001F910F91FF90EF900895EF92FF920F93B0
:105150001F93CF93DF93FC01248135816115710585
:1051600011F480E019C041155105A9F07B01EC0153
:105170008A01020F131FB8010E943A28882389F37D
:10518000288139818C819D81B701820F931F0E94F4
:1051900083401D830C8381E0DF91CF911F910F919C
:1051A000FF90EF900895FB014481558160817181EA
:1051B0000C94A528CF93DF93EC0188819981009707
:1051C00011F00E94EB3E198218821D821C821B8204
:1051D0001A82DF91CF910895CF93DF93EC0161158F
:1051E000710561F0FB0101900020E9F73197AF01F3
:1051F000461B570B0E94A528811103C0CE010E94B7
:10520000DA28CE01DF91CF910895CF93DF93EC019F
:10521000FB0144815581608171810E94A528811123
:1052200003C0CE010E94DA28CE01DF91CF9108950C
:10523000EF92FF920F931F93CF93DF93EC017B01CB
:105240008A01BA010E943A28811104C0CE010E944D
:10525000DA2807C01D830C83B701888199810E94D9
:105260008340CE01DF91CF911F910F91FF90EF907E
:105270000895CF93DF93EC016115710559F0FB019F
:1052800001900020E9F73197AF01461B570B0E94B0
:10529000182902C00E94DA28CE01DF91CF9108952B
:1052A000CF93DF93EC01FB018617970761F06081D4
:1052B00071816115710529F0448155810E94182979
:1052C00002C00E94DA28CE01DF91CF910895FC013F
:1052D000808191810C94EB3E0F931F93CF93DF93CA
:1052E000CDB7DEB761970FB6F894DEBF0FBECDBF66
:1052F0008C01CB01F8011182108213821282158277
:10530000148250E0BE016F5F7F4F0E94DD43BE01FB
:105310006F5F7F4FC8010E94392961960FB6F894DC
:10532000DEBF0FBECDBFDF91CF911F910F910895CA
:105330000F931F93CF93DF93CDB7DEB762970FB66E
:10534000F894DEBF0FBECDBF8C01CB01F8011182F6
:105350001082138212821582148250E0BE016F5FA8
:105360007F4F0E94B243BE016F5F7F4FC8010E9412
:10537000392962960FB6F894DEBF0FBECDBFDF911C
:10538000CF911F910F9108950F931F93CF93DF93A8
:10539000CDB7DEB729970FB6F894DEBF0FBECDBFED
:1053A0008C01862FF80111821082138212821582DD
:1053B000148250E0BE016F5F7F4F90E00E94DD439A
:1053C000BE016F5F7F4FC8010E94392929960FB631
:1053D000F894DEBF0FBECDBFDF91CF911F910F912B
:1053E0000895EF92FF920F931F93CF93DF93EC01F9
:1053F000198218821B821A821D821C826115710516
:1054000009F18B01CB010E94A9437C01BC01CE01B3
:105410000E943A28811109C0CE01DF91CF911F91DE
:105420000F91FF90EF900C94DA28FD82EC82B80186
:1054300088819981DF91CF911F910F91FF90EF901B
:105440000C94A243DF91CF911F910F91FF90EF90A9
:105450000895FC0111821082138212821582148237
:105460000C945029FC011182108213821282158241
:1054700014826115710551F0FB0101900020E9F7DC
:105480003197AF01461B570B0C94182908950F93C1
:105490001F93CF93DF93EC010E9425288C0165ECCC
:1054A00074E0CE010E942528800F911FDF91CF91DB
:1054B0001F910F9108950F931F93CF93DF93EC01EA
:1054C000E881F981DB0114964D915C9115976D91FE
:1054D0007C910280F381E02D19958C0165EC74E0DC
:1054E000CE010E942528800F911FDF91CF911F913F
:1054F0000F9108951F920F920FB60F9211240BB6C1
:105500000F922F933F934F935F936F937F938F935C
:105510009F93AF93BF93EF93FF9380EB96E00E942E
:10552000B624FF91EF91BF91AF919F918F917F91A1
:105530006F915F914F913F912F910F900BBE0F9004
:105540000FBE0F901F9018951F920F920FB60F92DB
:1055500011240BB60F922F933F934F935F936F934A
:105560007F938F939F93AF93BF93EF93FF938DE4BC
:1055700097E00E94B624FF91EF91BF91AF919F9168
:105580008F917F916F915F914F913F912F910F90EC
:105590000BBE0F900FBE0F901F901895FC01A089B5
:1055A000B1898C91A689B78982FD0FC09C91818DAC
:1055B0008F5F8F73228D821749F0218DDF01A20F3B
:1055C000B11D5D969C93818F08958C9108951F92D3
:1055D0000F920FB60F9211240BB60F922F933F9399
:1055E0004F935F936F937F938F939F93AF93BF93EB
:1055F000EF93FF9380EB96E00E94CE2AFF91EF910C
:10560000BF91AF919F918F917F916F915F914F91DA
:105610003F912F910F900BBE0F900FBE0F901F90D8
:1056200018951F920F920FB60F9211240BB60F927E
:105630002F933F934F935F936F937F938F939F939A
:10564000AF93BF93EF93FF938DE497E00E94CE2A30
:10565000FF91EF91BF91AF919F918F917F916F914A
:105660005F914F913F912F910F900BBE0F900FBE06
:105670000F901F901895CF93DF9300D000D0CDB737
:10568000DEB7BC01CE0101960E94292ABE016F5FE0
:105690007F4F8FE19CE00E941B26CE0101960E9465
:1056A000672926960FB6F894DEBF0FBECDBFDF91F7
:1056B000CF910895CF93DF93CDB7DEB7CE55D10903
:1056C0000FB6F894DEBF0FBECDBF789484B582606C
:1056D00084BD84B5816084BD85B5826085BD85B596
:1056E000816085BD80916E00816080936E00109214
:1056F000810080918100826080938100809181008F
:10570000816080938100809180008160809380001F
:105710008091B10084608093B1008091B00081607D
:105720008093B0008091910082608093910080917D
:1057300091008160809391008091900081608093BE
:1057400090008091A10082608093A1008091A100CF
:1057500081608093A1008091A00081608093A0006F
:1057600080912101826080932101809121018160DB
:10577000809321018091200181608093200180919C
:105780007A00846080937A0080917A0082608093AE
:105790007A0080917A00816080937A0080917A000B
:1057A000806880937A001092C1004091230C509140
:1057B000240C6091250C7091260C80911F0C909107
:1057C000200C0E94E41E1092800080E180938100F2
:1057D000FF24F394F09213088FB780931408F89481
:1057E00080E09DE7909312088093110890938700C2
:1057F00080938600809114088FBF80918100887FFC
:10580000809381009091810080911308982B909350
:10581000810020EF33E03093160820931508F092B2
:105820006F0090918100892B80938100809181008D
:10583000887F809381006EE772E08E010F5F1F4FBB
:10584000C8010E94F129C8010E943B2BC8010E9497
:10585000672961E08DE20E94992561E08BE20E9458
:10586000992561E089E20E94992561E081E20E9428
:10587000992561E084E30E94992561E083E30E9419
:10588000992561E08FE20E94992561E08AE20E94F9
:10589000992561E08BE00E94992561E08AE00E94F1
:1058A000992561E089E00E94992561E08CE20E94DF
:1058B000992561E08EE20E94992561E08CE00E94CA
:1058C000992561E08DE00E94992561E086E00E94C3
:1058D000992561E087E00E94992561E085E00E94BA
:1058E000992560E083E00E94992560E084E00E94B1
:1058F000992560E08DE00E94692560E086E00E94C5
:10590000692560E087E00E94692560E085E00E94EB
:10591000692561E08DE20E94692561E08BE20E94C9
:10592000692561E089E20E94692560E081E20E94C8
:10593000692561E084E30E94692561E083E30E94B8
:10594000692561E08FE20E94692560E08AE20E9499
:10595000692560E08BE00E94692560E08AE00E9492
:10596000692560E089E00E94692560E08CE20E9480
:10597000692560E08EE20E94692560E08CE00E946B
:10598000692560E08FE10E94992560E087E20E942E
:10599000992560E085E20E94992560E083E20E94FB
:1059A000992560E08BE10E94992560E089E10E94E1
:1059B000992560E087E10E94992560E08FE00E94D0
:1059C000992560E08DE10E94992560E082E30E94C4
:1059D000992560E085E30E94992560E081E30E94BB
:1059E0009925F09208020E94070C60E081E090E0A7
:1059F0000E948A0560E082E090E00E948A0560E0F3
:105A000083E090E00E948A0568E072E0C8010E948D
:105A1000F129C8010E943B2BC8010E94672960E060
:105A20008EE20E94692580E00E943F0661E080913D
:105A3000020C0E94992561E08091030C0E94992537
:105A400061E08091040C0E94992588E28093050C06
:105A50008BEE8093060C82E38093070C82EA80939E
:105A6000080C81EE8093090C84EA80930A0C84E28E
:105A700080930B0C8AEE80930C0C80E280930D0CCB
:105A800080EA80930E0C0E94BC1E87EF90E09093FA
:105A9000140C8093130C8BEF90E09093160C809372
:105AA000150C83E19CE00E94C10E8DE497E0909379
:105AB00033088093320840E052EC61E070E00E94CD
:105AC000E41E65E772E0C8010E94F12961E0C801A7
:105AD0000E94AB11C8010E9467296FE272E0C80101
