:100000000C949D030C94CE030C94CE030C94CE035D
:100010000C94CE030C94CE030C94CE030C94CE031C
:100020000C94CE030C94CE030C94CE030C94CE030C
:100030000C94CE030C94CE030C94CE030C94CE03FC
:100040000C94CE030C94CE030C94CE030C94CE03EC
:100050000C94B6220C94CE030C94CE030C94CB2CAF
:100060000C94CE030C94762C0C94092C0C94CE0397
:100070000C94CE030C94CE030C94CE030C94CE03BC
:100080000C94CE030C94CE030C94CE030C94CE03AC
:100090000C94CE030C94CE030C94CE030C94CE039C
:1000A0000C94CE030C94CE030C94CE030C94CE038C
:1000B0000C94CE030C94CE030C94CE030C94CE037C
:1000C0000C94CE030C94CE030C94CE030C94CB2052
:1000D0000C9402230C94CE030C944C2C0C94DF2B28
:1000E0000C94CE03120515051805210524052705D6
:1000F0002A052D056105640567056A056D0570050E
:1001000073057C0585058E0591059405C118C118F8
:10011000D218D218D218E318E318F418841F871FD6
:10012000761F7A1F801FBE1F8B1F8F1F951F991F61
:100130009D1FA31FA71FAB1FBE1FB11FB51FB91F58
:100140000C9461050C94A31F0C948F1F0C947C05D8
:100150000C94A43E0C9467050C9470050C94240533
:100160000C94A71F0C9473050C94801F0C94F41826
:100170000C9415050C94761F0C94B91F0C949D1FBC
:100180000C945D290C942C230C942A050C94910555
:100190000C94951F0C94141F0C9418050C94841F38
:1001A0000C94991F0C947A1F0C94B11F0C942D057C
:1001B0000C94D2180C9412050C94BE1F0C94E318E6
:1001C0000C94A7390C946D050C948B1F0C946A0544
:1001D0000C9485050C94D0030C94221F0C942705D5
:1001E0000C94B51F0C9494050C9464050C94C118E0
:1001F0000C94001F0C9473230C948E050C94AB1F6D
:100200000C9421050C94871F4C45442043757020A5
:1002100048616E646C65202D204F46460072656112
:1002200064206565702E2063757020737461636B44
:10023000657220706F732E203D20004F4B00437578
:100240007020737461636B6572203E3E204F4B00DB
:10025000454D5054590043757020737461636B654C
:1002600072203E3E20456D707479004F4646004F27
:100270004E004F4B00504F574552204F4E00232306
:1002800023206D696E69436F66666565204861630A
:100290006B20762E3330325F6465627567203E3E98
:1002A0002053746172742E2E007772697465206514
:1002B00065702E206974656D5F70726963655B009F
:1002C0004F72646572204E6F2E2069732057726FD3
:1002D0006E67202121006D616B655369676E616CEB
:1002E000546F436F696E203E3E20556E7375636395
:1002F000657373202121004F72646572205061790B
:100300006F7574203E3E204F4B004F726465722023
:100310005061796F7574203E3E2054696D656F752C
:1003200074002000554E53554343455353005472B7
:10033000616E73616374696F6E203E3E20554E534B
:1003400055434345535320005355434345535300AE
:100350005472616E73616374696F6E203E3E205308
:100360005543434553532000454D50545900437560
:100370007020737461636B6572203E3E20456D7022
:100380007479004F4B0043757020737461636B6523
:1003900072203E3E204F4B004F4E00426F696C650D
:1003A00072203E3E20506F776572204F4E004F46C0
:1003B0004600426F696C6572203E3E20506F776543
:1003C00072204F4646004C4F5700576174657220AB
:1003D0004C6576656C203E3E204C4F57004F4B00DD
:1003E0005761746572204C6576656C203E3E204FE7
:1003F0004B004F46460050756D70203E3E20436CCA
:100400006F7365004552524F520050756D70203E1B
:100410003E204572726F72004F4E0050756D702015
:100420003E3E204F70656E00777269746520656589
:10043000702E2063757020737461636B6572207019
:100440006F732E203D200072656164206565702EFB
:10045000206974656D5F70726963655B00300030A0
:10046000300045004F4B004F50454E00434C4F531A
:1004700045005365742050756D702031202D204F3C
:100480004E005365742050756D702031202D204F23
:100490004646007365744C45444974656D53656CFC
:1004A000656374507772203E3E204E6F7420666FF5
:1004B000756E642021210064617461203E3E2065D8
:1004C0006D707479212100526573657420436F6DDE
:1004D000706F7274212100526573706F6E736520A6
:1004E00054696D656F757421210000436C6F7564EC
:1004F000426F782052657475726E203E3E205245E0
:100500005345540000436C6F7564426F7820526508
:100510007475726E203E3E204552524F5200004389
:100520006C6F7564426F782052657475726E203CF2
:100530003C20425553590000436C6F7564426F78FC
:100540002052657475726E203C3C2052656164795E
:100550000000436C6F7564426F7820526574757249
:100560006E203C3C204F4B005245414459004E4FB9
:1005700054205245414459004E4F54205245414465
:1005800059004E4F54205245414459004E4F54207B
:100590005245414459004E4F542052454144590060
:1005A0004E4F54205245414459004C454420437518
:1005B000702048616E646C65202D204F4E002D0028
:1005C0002D002D002D002D002D002D002D002D00C3
:1005D0002D002D002D002D003D003A0043422B53ED
:1005E0004554400023000043422B55500023000097
:1005F000434354414C4B00434C4F5544424F5800E9
:10060000434354414C4B2D4445564943450000005B
:100610002100240027002A002D00300033000101B2
:100620000000040107010A01000022002500280043
:100630002B002E00310034000201000005010801EA
:100640000B01000020002300260029002C002F00B1
:10065000320000010000030106010901050505053E
:10066000070508080808020202020A0A080804042A
:100670000404010101010101010103030303030358
:100680000303040707070C0C0C0C0C0C0C0C0202E7
:10069000020206060606060606060B0B0B0B0B0BE4
:1006A0000B0B010210202008081020401020408071
:1006B0000201020108040201010204081020408026
:1006C00080402010080402018004020180402010B4
:1006D00008040201080402010102040810204080FD
:1006E000010204081020408000000A0B02090C0DD2
:1006F0000E080703040100000000000000000000D5
:1007000000000000000000000000000000000000E9
:1007100000000000121110000000000000000000A6
:100720000000000000000000000000000000300099
:10073000003A003A0000A739A43E11241FBECFEFB3
:10074000D1E2DEBFCDBF00E00CBF16E0A0E0B2E01A
:10075000ECE5FDE800E00BBF02C007900D92AC375E
:10076000B107D9F72DE0ACE7B6E001C01D92A13486
:10077000B207E1F713E0CCE9D3E000E006C021972F
:100780000109802FFE010E94983FCB39D10780E0FC
:100790000807A9F70E94152D0C949C460C940000A4
:1007A000CF9380910802833009F4D9C134F48130A9
:1007B00059F0823009F46AC178C2843009F4E8C182
:1007C000853009F43CC271C22091AA063091AB0673
:1007D0002115310509F40DC18091D40C9091D50CEF
:1007E0002817390761F1203553EC350730F42034F0
:1007F0008CE9380738F0C90102C08FE493EC8054CB
:100800009C4919C0203395E7390720F0C90180536E
:10081000954711C020325EE4350720F0C9018052AF
:100820009E4409C0203187E2380720F0C901805179
:10083000974201C0C9019093D50C8093D40C40918C
:10084000C70C4130E1F038F0423009F457C0433072
:1008500009F48CC0C1C06AE070E00E944E3FFC0108
:10086000E754F34F83812031374208F08F7D90E0C9
:100870009093CB0C8093CA0C8DEF90E0A9C02032EE
:100880003E4420F18A30910568F064E670E00E94F1
:100890004E3F6AE070E00E944E3FFB01E754F34F89
:1008A000838102C08091BC0C90E09093CB0C80932C
:1008B000CA0C8091CA0C9091CB0C8F7D9927909394
:1008C000CB0C8093CA0C8FEE90E082C08A309105E9
:1008D00070F064E670E00E944E3F6AE070E00E94B3
:1008E0004E3FFB01E754F34F838190E0E8CF8FEF59
:1008F00090E09093CB0C8093CA0C6AC020333547AC
:1009000020F18436910568F068EE73E00E944E3F56
:1009100064E670E00E944E3FFB01E754F34F838191
:1009200002C08091BC0C90E09093CB0C8093CA0CD9
:100930008091CA0C9091CB0C8F7D99279093CB0C12
:100940008093CA0C87EF90E043C08436910578F21B
:1009500068EE73E00E944E3F64E670E00E944E3FF6
:10096000FB01E754F34F838190E0E8CF20343C490A
:10097000D8F0883E23E0920748F068EE73E00E94CA
:100980004E3FFB01E754F34F838102C08091BC0CC2
:1009900090E09093CB0C8093CA0C8091CA0C9091FC
:1009A000CB0C8F7D99270EC0883E53E0950708F445
:1009B0009ECF68EE73E00E944E3FFB01E754F34F79
:1009C000838190E09093CB0C8093CA0C8BEF90E0E6
:1009D0009093CD0C8093CC0C4F5F443018F440932F
:1009E000C70C02C01092C70C8AEC9CE0CF910C940B
:1009F00045288091CE0C9091CF0C01979093CF0C0D
:100A00008093CE0C892B09F050C18091C60C90E0E8
:100A10008830910550F5FC018827EE58FF4F8F4F25
:100A20000C94983F8BEF90E005C087EF90E017C0E3
:100A30008FEE90E09093CD0C8093CC0C0E948A288E
:100A400014C08DEF90E00BC08DEF90E0F3CF8FEEF0
:100A500090E005C087EF90E0EDCF8BEF90E09093B2
:100A6000CD0C8093CC0C0E9494288091C60C8F5F93
:100A7000883018F48093C60C02C01092C60C86E928
:100A800090E09093CF0C8093CE0C0FC18091D00C4E
:100A90009091D10C01979093D10C8093D00C892B1D
:100AA00009F003C19091C90C492F50E04C30510519
:100AB00008F046C0FA018827E658FF4F8F4F0C9484
:100AC000983F2EEF30E032C02EEF30E020C02EEF06
:100AD00030E014C02EEF30E008C02BEF30E005C04E
:100AE0002FEE30E002C02FEB30E03093CB0C2093A0
:100AF000CA0C2DEF30E020C02FEB30E03093CB0C50
:100B00002093CA0C2FEE30E017C02FEB30E030936B
:100B1000CB0C2093CA0C27EF30E00EC02FEB30E057
:100B200005C02FE730E002C02DEF30E03093CB0C52
:100B30002093CA0C2BEF30E03093CD0C2093CC0CDB
:100B400024E130E03093D10C2093D00C9F5F9C3097
:100B500018F49093C90C48CF1092C90C45CFC0919E
:100B6000CD06C13059F008F474C0C23061F0C33012
:100B700011F56DEF70E08BE590E01BC067EF70E062
:100B800082EC90E016C06FEE70E087ED90E011C04F
:100B90008091AA0C882309F44DC0082E000C990BF3
:100BA000C091CD06C130A9F078F46BEF70E08BEC0A
:100BB00090E00E94AE28CF5FC093CD06C43008F409
:100BC00074C01092CD0671C0C23041F0C330E1F064
:100BD000F2CF67EF70E083EE90E0EBCF8F3F2FEF27
:100BE000920709F440C0843691051CF06FEE70E066
:100BF00017C08A309105BCF16AE070E00E94623F44
:100C0000CB016FEE70E033C08F3F5FEF950719F4B3
:100C10006DEF70E02AC0843691052CF06DEF70E026
:100C200089E090E024C06AE070E00E94623F6DEFCE
:100C300070E01DC08091A9068093080236C0C09163
:100C4000CD06C13059F028F0C23069F0C33091F0C0
:100C5000B2CF6BEF70E083EC90E0ABCF67EF70E06A
:100C600088E090E0A6CF6FEE70E080E090E00E9418
:100C70009E28A1CF8091050283FD05C06DEF70E035
:100C800081E090E0F4CF82FD05C06DEF70E082E07E
:100C900090E0EDCF84FD05C06DEF70E083E090E063
:100CA000E6CF81E08093080286CFCF91089583E05C
:100CB0000E94952321E0892B09F020E0822F0895DE
:100CC000CF93DF9300D000D0CDB7DEB7FC01EC5757
:100CD000F94F20812617F9F060838230910539F0B1
:100CE0008330910531F0019741F484E303C083E33D
:100CF00001C08FE20E94BE230EC063E974E0CE0102
:100D000001960E94562BCE0101960E94A02CCE0186
:100D100001960E94CC2A26960FB6F894DEBF0FBE2D
:100D2000CDBFDF91CF9108950F931F93CF93DF93A2
:100D30008C01C1E0D0E0C017D10711F461E001C01F
:100D400060E0CE010E9460062196C430D10599F77B
:100D5000DF91CF911F910F910895E1E8F0E090812C
:100D60008091C708892B8083089510920802E1E8DA
:100D7000F0E08081887F80830895CF92DF92EF92A8
:100D8000FF920F931F936B017C010E94BF2C009177
:100D90009C0610919D0620919E0630919F0660173B
:100DA00071078207930750F40E94BF2C60939C0642
:100DB00070939D0680939E0690939F060E94BF2C81
:100DC00000919C0610919D0620919E0630919F06F1
:100DD000AB01BC01401B510B620B730B81E0C416CD
:100DE000D506E606F70608F080E01F910F91FF9008
:100DF000EF90DF90CF900895E0E9F6E01182128243
:100E000013821092A5061092A7061092A606E9EB8F
:100E1000FCE0158686E990E0968B858B108A84E14C
:100E200090E0908F878B08951F93CF93DF9300D02E
:100E300000D0CDB7DEB7182F8CE20E94952321E0B9
:100E4000892B09F420E0121721F1112381F062E7C8
:100E500074E0CE0101960E94562BCE0101960E94AD
:100E6000A02CCE0101960E94CC2A61E00FC062E85E
:100E700074E0CE0101960E94562BCE0101960E948D
:100E8000A02CCE0101960E94CC2A60E08CE20E9448
:100E9000BE2326960FB6F894DEBF0FBECDBFDF91FE
:100EA000CF911F9108958F929F92AF92BF92EF9230
:100EB000FF921F93CF93DF9300D000D0CDB7DEB762
:100EC00080E30E94952311E0892B09F410E08091C2
:100ED000CC06181761F00E94BF2C6093C80670936F
:100EE000C9068093CA069093CB061093CC060E9445
:100EF000BF2C8090C8069090C906A090CA06B090FA
:100F0000CB06DC01CB0188199909AA09BB09893EE6
:100F10009340A105B10558F40E94BF2C68157905CE
:100F20008A059B0520F080910C02882389F120918D
:100F3000050230910602812F90E021FBEE24E0F8BB
:100F4000F12C8E159F0521F480910C02882301F16C
:100F5000112311F0226001C02D7F309306022093EF
:100F600005028091050281FF03C06CE674E002C0B7
:100F700067E674E0CE0101960E94562BCE010196E1
:100F80000E947418CE0101960E94CC2A10920C0285
:100F9000812F26960FB6F894DEBF0FBECDBFDF912E
:100FA000CF911F91FF90EF90BF90AF909F908F9047
:100FB00008951F93CF93DF93CDB7DEB768970FB631
:100FC000F894DEBF0FBECDBF1091AA0C111118C04E
:100FD00064E674E0CE0101960E94562BCE01019684
:100FE0000E943A18CE0101960E94CC2A80910502F7
:100FF00090910602806290930602809305027EC063
:1010000062E674E0CE0101960E94562B1F3F29F53F
:10101000BE016F5F7F4FCE0107960E948E2B6FE55A
:1010200074E0CE0107960E94DA29811104C0CE0136
:1010300007960E943F2ABE01695F7F4FCE010D9641
:101040000E948E2BCE010D960E943A18CE010D966D
:101050000E94CC2ACE01079642C0612F012E000CBF
:10106000770B4AE0CE010D961A30B4F40E94FD2AA7
:10107000BE016F5F7F4FCE0107960E948E2B6DE5FC
:1010800074E0CE0107960E94DA2981110EC0CE01CC
:1010900007960E943F2A09C00E94FD2ABE016F5F89
:1010A0007F4FCE0107960E948E2BBE01635F7F4F5C
:1010B000CE0107960E946A2ABC01CE0143960E9487
:1010C0008E2BCE0143960E943A18CE0143960E9481
:1010D000CC2ACE0107960E94CC2ACE010D960E9402
:1010E000CC2A80910502909106028F7D9093060292
:1010F00080930502CE0101960E94CC2A68960FB615
:10110000F894DEBF0FBECDBFDF91CF911F91089540
:101110005F926F927F928F929F92AF92BF92CF9287
:10112000DF92EF92FF920F931F93CF93DF93CDB790
:10113000DEB7A0970FB6F894DEBF0FBECDBF662412
:101140006394712C552453948E010F5F1F4F96E4C6
:10115000E92E93E0F92E22E3C22E23E0D22E82E084
:10116000681629F093E0691621F082E303C085E355
:1011700001C081E30E94952321E0892B09F420E03E
:10118000F301E457F94F4F012083C3018857994F6A
:101190005C01FC0180818217E9F0211109C0F30193
:1011A000E057F94F50827F926F92DF92CF9204C046
:1011B0007F926F92FF92EF921F930F930E941D42B6
:1011C0000F900F900F900F900F900F90F40180816F
:1011D000F5018083FFEF6F1A7F0A84E068167104BF
:1011E00009F0BDCFA0960FB6F894DEBF0FBECDBFFD
:1011F000DF91CF911F910F91FF90EF90DF90CF90F3
:10120000BF90AF909F908F907F906F905F90089568
:10121000CF93DF93CDB7DEB768970FB6F894DEBFF4
:101220000FBECDBF68E274E0CE0101960E94562B3E
:101230006091A80680E190E00E948E466AE070E02E
:1012400080E090E00E942A246091A806062E000CFF
:10125000770B4AE0CE010D960E94FD2ABE016F5F1A
:101260007F4FCE0107960E948E2BBE01635F7F4F9A
:10127000CE0107960E946A2ABC01CE0143960E94C5
:101280008E2BCE0143960E94A02CCE0143960E9445
:10129000CC2ACE0107960E94CC2ACE010D960E9440
:1012A000CC2ACE0101960E94CC2A68960FB6F894FB
:1012B000DEBF0FBECDBFDF91CF910895E4E9F6E028
:1012C00082819381883E934010F01382128232967D
:1012D00086E0EA39F807A1F708958F929F92AF92BE
:1012E000BF92CF92DF92EF92FF921F93CF93DF9343
:1012F000CDB7DEB762970FB6F894DEBF0FBECDBF95
:1013000086E9A82E86E0B82E92EAE92E96E0F92E1C
:1013100011E02AE0C22ED12CC6010E948646982EEA
:10132000C60101960E948646292D30E0A901582B5E
:10133000CA014501F5015183408320910502309196
:101340000602F701892BD9F48081806880831230EE
:1013500039F0133071F02F7B309306022093050291
:1013600080910502909106029E7F909306028093E1
:10137000050280910502909106029B7F1AC0808130
:101380008F778083123039F0133071F020643093FE
:101390000602209305028091050290910602916059
:1013A00090930602809305028091050290910602B7
:1013B000946090930602809305020E945E0967E4A0
:1013C00074E0CE010D960E94562B4AE0612FCE01AB
:1013D00007960E94292BBE01695F7F4FCE010196BF
:1013E0000E948E2B6CE472E0CE0101960E94512A7D
:1013F000BC01CE010D960E94382ACE0101960E94B2
:10140000CC2ACE0107960E94CC2AF2E0AF0EB11C86
:10141000F401608171814AE0CE0101960E94D12AD7
:10142000BE016F5F7F4FCE010D960E94382ACE011C
:1014300001960E94CC2ABE01635F7F4FCE010196C8
:101440000E948E2BCE0101960E94A02CCE01019607
:101450000E94CC2ACE010D960E94CC2AF2E0CF0E3B
:10146000D11C1F5F4FEFE41AF40A143009F054CF77
:1014700062960FB6F894DEBF0FBECDBFDF91CF915D
:101480001F91FF90EF90DF90CF90BF90AF909F9013
:101490008F90089585E30E94952321E0892B09F41C
:1014A00020E0822F0895CF92DF92EF92FF92CF93A8
:1014B000DF9300D000D0CDB7DEB78091050284FD68
:1014C00034C08CE20E949523892B79F580910B0220
:1014D000882359F181E00E9414076BE174E0CE018A
:1014E00001960E94562BCE0101960E94A02CCE019F
:1014F00001960E94CC2A68E174E0CE0101960E9418
:10150000562B61E0CE0101960E949717CE010196FD
:101510000E94CC2A0E94BF2C6093C4067093C5061B
:101520008093C6069093C70682C08CE20E949523E2
:10153000892B09F47CC08091050284FD39C00E948A
:10154000BF2CC090C406D090C506E090C606F090AF
:10155000C706DC01CB018C199D09AE09BF09813496
:101560009C49A105B10508F462C080E00E941407FF
:101570006AE074E0CE0101960E94562BCE010196DE
:101580000E94A02CCE0101960E94CC2A64E074E057
:10159000CE0101960E94562B61E0CE0101960E9479
:1015A0009717CE0101960E94CC2A10920B023FC0E1
:1015B0000E94BF2CC090C406D090C506E090C6061D
:1015C000F090C706DC01CB018C199D09AE09BF095B
:1015D00081349C49A105B10538F40E94BF2C6C15DB
:1015E0007D058E059F0518F580E00E94140766EFC3
:1015F00073E0CE0101960E94562BCE0101960E9407
:10160000A02CCE0101960E94CC2A62EF73E0CE019D
:1016100001960E94562B61E0CE0101960E94971719
:10162000CE0101960E94CC2A81E080930B0226967F
:101630000FB6F894DEBF0FBECDBFDF91CF91FF9004
:10164000EF90DF90CF900895CF92DF92EF92FF92CC
:101650001F93CF93DF93C82F0E94BF2C6B017C0197
:1016600010E0D0E00E94530A0E94840DCE010E9437
:1016700026140E94BF2C6C157D058E059F0520F455
:101680000E94BF2C6B017C010E94BF2CDC01CB01AE
:101690008C199D09AE09BF09893C9105A105B105C9
:1016A00058F48FE10E949523892BE1F20E94BF2C10
:1016B0006B017C0111E0D6CF812FDF91CF911F917B
:1016C000FF90EF90DF90CF9008950F931F93CF93EB
:1016D000DF9300D000D0CDB7DEB78DE10E94952317
:1016E0002091050230910602892B11F0206101C082
:1016F0002F7E3093060220930502209105028091EF
:10170000C30690E024FB002700F910E08017910742
:1017100029F480910A02882309F44AC024FF1DC0DD
:1017200060EE73E0CE0101960E94562BCE01019629
:101730000E94A02CCE0101960E94CC2A6DED73E090
:10174000CE0101960E94562BCE0101960E94D3191C
:10175000CE0101960E94CC2A23C06AEC73E0CE0130
:1017600001960E94562BCE0101960E94A02CCE011C
:1017700001960E94CC2A66EC73E0CE0101960E948D
:10178000562BCE0101960E94D319CE0101960E94DC
:10179000CC2A809108028093A90685E080930802F4
:1017A00080910502829581708093C30610920A028F
:1017B00026960FB6F894DEBF0FBECDBFDF91CF9156
:1017C0001F910F9108950F931F9385E20E94952317
:1017D000892B61F40E94BF2C60937C0670937D0678
:1017E00080937E0690937F0681E027C00E94BF2CE5
:1017F00000917C0610917D0620917E0630917F0637
:10180000DC01CB01801B910BA20BB30B853F9140F8
:10181000A105B10588F40E94BF2C00917C061091AF
:101820007D0620917E0630917F0660177107820742
:10183000930710F08FEF01C080E01F910F91089582
:101840000F931F93CF93DF9300D000D0CDB7DEB7B7
:101850000E94E30B2091050230910602811102C023
:10186000286003C0813029F4277F3093060220933B
:101870000502209105028091C20690E023FB00271B
:1018800000F910E08017910729F48091090288235C
:1018900009F44BC023FF1DC062EB73E0CE0101963B
:1018A0000E94562BCE0101960E94A02CCE010196DB
:1018B0000E94CC2A6EEA73E0CE0101960E94562B5C
:1018C000CE0101960E949919CE0101960E94CC2A60
:1018D00023C06BE973E0CE0101960E94562BCE0126
:1018E00001960E94A02CCE0101960E94CC2A68E9A4
:1018F00073E0CE0101960E94562BCE0101960E9404
:101900009919CE0101960E94CC2A809108028093F9
:10191000A90685E0809308028091050283FB882751
:1019200080F98093C2061092090226960FB6F894A9
:10193000DEBF0FBECDBFDF91CF911F910F910895F4
:1019400061E085E00C94BE23CF92DF92EF92FF928C
:101950000F931F93CF93DF93CDB7DEB762970FB688
:10196000F894DEBF0FBECDBF0E945706811106C09E
:1019700061E086E00E94BE23F12C06C060E086E0B4
:101980000E94BE23FF24F39460E085E00E94BE2302
:101990000E944D1A00E010E0EE24E3948BE9C82E7B
:1019A0008FE0D82E0E94530A83E20E949523892B50
:1019B00069F066E173E0CE0101960E94972BCE019B
:1019C00001960E94A02CCE01019657C061E087E0ED
:1019D0000E94BE23C6010197F1F760E087E00E94F4
:1019E000BE23C6010197F1F70E945706882311F024
:1019F000E11031C0FF2009F47CC00E94570681111C
:101A000076C081E08093A8064AE0B801CE0107962F
:101A10000E94D12A60E773E0CE0101960E94972BC5
:101A2000BE01695F7F4FCE0101960E946A2ABC0108
:101A3000CE010D960E948E2BCE010D960E94A02CF9
:101A4000CE010D960E94CC2ACE0101960E94CC2A8E
:101A5000CE01079612C00E94A00C6CE271E080E0FB
:101A600090E00E942A2460E086E00E94BE2360E0AD
:101A700085E00E94BE23E12CC0CF0E94CC2A0E94A8
:101A8000A00C0E9408096091A806633681F46CE5F9
:101A900073E0CE0101960E94972BCE0101960E9421
:101AA000A02CCE0101960E94CC2A6091A806062E99
:101AB000000C770B4AE0CE0101960E94FD2A61E0FE
:101AC000CE0101960E940D1ACE0101960E94CC2AE9
:101AD00062960FB6F894DEBF0FBECDBFDF91CF91F7
:101AE0001F910F91FF90EF90DF90CF900895FF240A
:101AF000F3940F5F1F4F093883E1180709F052CFA5
:101B000083E68093A806BBCFCF92DF92EF92FF923D
:101B10000F931F93CF93DF93CDB7DEB762970FB6C6
:101B2000F894DEBF0FBECDBF9091EA088091EB081C
:101B3000992309F44BC08F3F41F40E94DC1A88239B
:101B400009F488C11092EA0885C10E94DC1A882332
:101B500009F480C11092EA0867ED74E0CE010196A5
:101B60000E94562BCE0101960E94BC28CE01019600
:101B70000E94CC2A8091EC088F5F8093EC088B3018
:101B800008F45EC067EC74E0CE0101960E94562B0B
:101B9000CE0101960E94BC28CE0101960E94CC2A5B
:101BA00040E052EC61E070E08091E8089091E90833
:101BB0000E94751A8091E8089091E908DC01ED9186
:101BC000FC910284F385E02D19953AC08430E1F54B
:101BD00068E773E0CE0101960E94972BCE01019633
:101BE0000E94BC28CE0101960E94CC2A64EA75E0CE
:101BF0008091E8089091E9080E94AC2B8091E80858
:101C00009091E908DC01ED91FC910284F385E02DCF
:101C1000199564E670E080E090E00E942A2461E07B
:101C200088E00E94BE230E94BF2C6093F10870934D
:101C3000F2088093F3089093F40881E08093EA0817
:101C40008FEF8093EB0806C18F3F39F567E873E0AB
:101C500083E09CE00E949E2A40E052EC61E070E04C
:101C60008091E8089091E9080E94751A67E873E08E
:101C70008091E8089091E9080E94AC2B8091E808D7
:101C80009091E908DC01ED91FC910284F385E02D4F
:101C9000199581E08093EA08ACC4823039F10E9442
:101CA000BF2C0091F9081091FA082091FB0830919F
:101CB000FC08DC01CB01801B910BA20BB30B893814
:101CC0009341A105B10508F06EC40E94BF2C00919C
:101CD000F9081091FA082091FB083091FC08601770
:101CE00071078207930708F45EC4B4C08091ED08C1
:101CF0009091EE082091EF083091F008821B930B31
:101D00008F779927892B09F47FC08091EF089091F4
:101D1000F00816E0189FF001199FF00D1124E35010
:101D2000F74F84819581892B09F45AC08091EF087F
:101D30009091F008189FB001199F700D1124635005
:101D4000774F8091E8089091E9080E94C02B80911C
:101D5000E8089091E908DC01ED91FC910284F3859B
:101D6000E02D1995E090EF08F090F00860E973E03D
:101D7000CE0101960E94972B1E9DB0011F9D700DF4
:101D800011246350774FCE0101960E946A2ABC014C
:101D9000CE0107960E948E2BCE0107960E94BC288A
:101DA000CE0107960E94CC2ACE0101960E94CC2A31
:101DB00081E08093EA080E94BF2C6093F108709341
:101DC000F2088093F3089093F4080E94BF2C60936C
:101DD000F5087093F6088093F7089093F8080EC002
:101DE00067EB74E0CE0101960E94562BCE0101965E
:101DF0000E94BC28CE0101960E94CC2A68E973E0BB
:101E000083E09CE00E949E2A0E94BF2C0091F5086E
:101E10001091F6082091F7083091F808DC01CB0109
:101E2000801B910BA20BB30B89389341A105B1051F
:101E300008F0EAC30E94BF2C0091F5081091F60843
:101E40002091F7083091F80860177107820793070F
:101E500008F4DAC38091E8089091E908DC01ED917B
:101E6000FC910480F581E02D1995892B09F478C146
:101E70008091E8089091E908DC01ED91FC910680E1
:101E8000F781E02D1995182F89831A8241E050E0DF
:101E9000BE016F5F7F4F8DEF9BE00E940A2A109278
:101EA000EC081D3009F05CC16DE973E0CE010796C6
:101EB0000E94972B6DEF7BE0CE0107960E946A2A65
:101EC000BC01CE0101960E948E2BCE0101960E948C
:101ED000BC28CE0101960E94CC2ACE0107960E9412
:101EE000CC2A8091070C9091080C892B79F168E934
:101EF00073E08091030C9091040C0E94F341892BB4
:101F000029F58091FD0B9091FE0B009719F00E942E
:101F1000F44403C060E070E0CB012091EF08309101
:101F2000F008890120E030E060177107820793070D
:101F300009F010C18091EF089091F00801968F7719
:101F400099279093F0088093EF0802C164EA75E046
:101F5000CE0101960E94972BCE0101960E94591A3C
:101F60008C01CE0101960E94CC2A0F3F1F4F79F1C0
:101F700062E575E0CE0101960E94562BCE010196D6
:101F80000E94BC28CE0101960E94CC2A61E575E032
:101F9000CE0101960E94562BCE0101960E94BC28CC
:101FA000CE0101960E94CC2A8091070C9091080CDA
:101FB000892B09F4CDC067E873E08091030C909100
:101FC000040C0E94F341892B09F48FC0C1C06CEF4F
:101FD00073E0CE0101960E94972BCE0101960E94DC
:101FE000591A8C01CE0101960E94CC2A0F3F1F4F37
:101FF000F1F068E375E0CE0101960E94562BCE0108
:1020000001960E94BC28CE0101960E94CC2A67E36B
:1020100075E0CE0101960E94562BCE0101960E94DA
:10202000BC28CE0101960E94CC2A82E08FC066EACD
:1020300073E0CE0101960E94972BCE0101960E947B
:10204000591A8C01CE0101960E94CC2A0F3F1F4FD6
:10205000F1F06FE175E0CE0101960E94562BCE01A2
:1020600001960E94BC28CE0101960E94CC2A6EE106
:1020700075E0CE0101960E94562BCE0101960E947A
:10208000BC28CE0101960E94CC2A83E05FC067EF96
:1020900072E0CE0101960E94972BCE0101960E941C
:1020A000591A8C01CE0101960E94CC2A0F3F1F4F76
:1020B000F1F065E075E0CE0101960E94562BCE014D
:1020C00001960E94BC28CE0101960E94CC2A64E0B1
:1020D00075E0CE0101960E94562BCE0101960E941A
:1020E000BC28CE0101960E94CC2A81E02FC06BEA69
:1020F00073E0CE0101960E94972BCE0101960E94BB
:10210000591A8C01CE0101960E94CC2A0F3F1F4F15
:1021100009F16BEE74E0CE0101960E94562BCE01C0
:1021200001960E94BC28CE0101960E94CC2A6AEE3C
:1021300074E0CE0101960E94562BCE0101960E94BA
:10214000BC28CE0101960E94CC2A84E08093EB0843
:102150001092EA086CE576E08DEF9BE00E949E2AE3
:102160000E94530720910502309106028091D30608
:102170009091D4068217930709F461C080910402FC
:1021800021FD06C0882309F450C060EA75E01BC039
:1021900025FD06C0882309F448C066E975E013C030
:1021A000A90140745570452B29F48823F1F16CE89E
:1021B00075E009C0A90140785A70452BA1F4882325
:1021C000A1F162E875E0CE0101960E94562B60E015
:1021D000CE0101960E943B15CE0101960E94CC2AA9
:1021E0001092040222C022FD05C08823F1F068E7A6
:1021F00075E0E9CF23FD05C08823B9F06EE675E0F0
:10220000E2CF813091F068E675E0CE0101960E9440
:10221000562B60E0CE0101960E943B15CE0101963F
:102220000E94CC2A81E0809304020E94771480915E
:102230000502909106029093D4068093D30687E21C
:102240000E949523892B59F40E94BF2C609380062D
:1022500070938106809382069093830617C00E9434
:10226000BF2C00918006109181062091820630914A
:102270008306DC01CB01801B910BA20BB30B813DCC
:102280009740A105B10510F40E94BF2C0E94E30BFA
:102290008091A006882329F10E94BF2C6093D60666
:1022A0007093D7068093D8069093D9068091D5066F
:1022B000811115C06AEA75E0CE0101960E94562B85
:1022C000CE0101960E94A02CCE0101960E94CC2A3C
:1022D00061E08EE20E94BE2381E08093D5061092D9
:1022E000A0068091D5068823D9F10E94BF2CC0900A
:1022F000D606D090D706E090D806F090D906DC013B
:10230000CB018C199D09AE09BF0989389341A105FC
:10231000B105A8F068E072E0CE0101960E94562B4C
:10232000CE0101960E94A02CCE0101960E94CC2ADB
:1023300060E08EE20E94BE231092D50611C00E947A
:10234000BF2C6C157D058E059F0550F40E94BF2C97
:102350006093D6067093D7068093D8069093D906DB
:102360008091E906882321F00E9488081092E906EE
:102370008091E806882309F493C08091AA0C81110A
:102380008DC08091B30C882309F488C08091B00C73
:102390008F5F8093B00C823008F480C082E090E0C0
:1023A0009093F70C8093F60C1092F80C81E090E07B
:1023B0009093FA0C8093F90C85EE90E09093FC0CCE
:1023C0008093FB0C88E18093050D0E94002581E03D
:1023D0008093310D60E085E00E946424F82E88230C
:1023E00009F499C16CE576E0CE010D960E94972B19
:1023F0000E94061DE12CD12C0E2D1D2D8091EC0C80
:102400009091ED0CDC01ED91FC910480F581E02DC3
:102410001995892B09F429C10031110509F046C12C
:1024200090E1E92ED12C23C18091160D882309F467
:10243000CEC18091150D281709F4DDC18091160DCC
:102440000E94AE188C018091150D8093320D0F3FC4
:1024500009F4D4C18091A50C9091A60C800F911D18
:1024600007FD9A959093A60C8093A50C8091B20CD1
:10247000882391F064ED73E0CE0101960E94972BC2
:10248000CE0101960E945D25CE0101960E94CC2AC4
:102490000E94C4251092B20C1092B00C1092E80663
:1024A0008091E706882399F08CE00E94952361E0F3
:1024B000892B09F060E08CE00E94BE238CE00E9432
:1024C0009523682F8DE00E94BE231092E70680912D
:1024D000E60681111092E6060E94BF2C6093E20688
:1024E0007093E3068093E4069093E506C090DE06C1
:1024F000D090DF06E090E006F090E1068B019C01B1
:102500000C191D092E093F0902301105210531055D
:10251000D8F12091DD062C19260F2093DD0660935B
:10252000DE067093DF068093E0069093E1062A3082
:1025300008F46EC11092DD069091DC069F5F9093C7
:10254000DC0681E08093E9069A3008F461C11092BC
:10255000DC069091DB069F5F9093DB068093E80694
:10256000953008F455C11092DB069091DA069F5F12
:102570009093DA068093E706923008F449C11092EE
:10258000DA068093E60644C16C157D058E059F052D
:1025900008F03EC16093DE067093DF068093E0068C
:1025A0009093E10635C169EF73E083E09CE00E94FF
:1025B0009E2A69EF73E08091E8089091E9080E94F3
:1025C000AC2B8091E8089091E908DC01ED91FC9139
:1025D0000284F385E02D199581E08093EA080E943A
:1025E000BF2C6093F9087093FA088093FB089093CE
:1025F000FC080E94BF2C6093F1087093F20880934E
:10260000F3089093F40826CC69EF73E083E09CE034
:102610000E949E2A69EF73E08091E8089091E90892
:102620000E94AC2B8091E8089091E908DC01ED91C3
:10263000FC910284F385E02D199581E08093EA08EE
:102640000E94BF2C6093F1087093F2088093F30806
:102650009093F4080E94BF2C6093F5087093F608DD
:102660008093F7089093F808F5CBE02ED12E0E94C6
:10267000111D882381F061EB73E0CE0101960E9469
:10268000972BCE0101960E94E51CCE0101960E9477
:10269000CC2AF12C04C00031110509F0ADCECE01D9
:1026A0000D960E94CC2AFF20B1F16EC08091EC0CF7
:1026B0009091ED0CDC01ED91FC910680F781E02D0D
:1026C0001995E82E4AE0682FCE0101960E94292B29
:1026D000BE016F5F7F4FCE0107960E948E2B63E095
:1026E00075E0CE0107960E94512ABC01CE010D96DD
:1026F0000E94382ACE0107960E94CC2ACE0101966C
:102700000E94CC2AF801E651F34FE7A20F5F1F4F5A
:102710000E94061D73CE4AE06091B20CCE0107966E
:102720000E94292B62E074E0CE010D960E94972B47
:10273000BE01695F7F4FCE010D960E946A2ABC01DF
:10274000CE0101960E948E2BCE0101960E945D253E
:10275000CE0101960E94CC2ACE010D960E94CC2A71
:10276000CE0107960E94CC2A8091B20C8F5F809395
:10277000B20C8B3008F490CE0E947E2581E08093CD
:10278000B30C0E94142686CE8091150D2091320D37
:1027900090E0821B910902970CF446CEF090150D43
:1027A000F21AEF2DEE0F00E010E08EEFE82EEE0EA5
:1027B000FF2009F448CEED5FF0E0E651F34F87A12A
:1027C0000E94AE18080F191FFA94EE2DEECF8091DB
:1027D000150D281310C08091170D8E3051F4809183
:1027E000340D8F5F8093340D853128F01092340DB5
:1027F00005C01092340D00E010E025CE4AE0609153
:10280000B20CCE0107960E94292B69ED73E08CCFA4
:1028100062960FB6F894DEBF0FBECDBFDF91CF91A9
:102820001F910F91FF90EF90DF90CF90089560E09F
:1028300081E090E00E94600660E082E090E00E940B
:10284000600660E083E090E00C9460060F931F93B5
:10285000CF93DF93EC010E94BF2C0091CF06109123
:10286000D0062091D1063091D206DC01CB01801B2D
:10287000910BA20BB30B8D329140A105B105C8F0AD
:102880008091CE06811107C0CE010E94940681E09E
:102890008093CE0604C00E9417141092CE060E94A8
:1028A000BF2C6093CF067093D0068093D10690938F
:1028B000D2060E94BF2C0091CF061091D006209125
:1028C000D1063091D206601771078207930750F442
:1028D0000E94BF2C6093CF067093D0068093D106E0
:1028E0009093D206DF91CF911F910F910895CF93CE
:1028F000DF93CDB7DEB72C970FB6F894DEBF0FBECF
:10290000CDBF6FEE75E0CE0107960E94562B6DEE9F
:1029100075E0CE0107960E94DA296091ED0870916A
:10292000EE084AE0CE0101960E94D12ABE016F5FF7
:102930007F4FCE0107960E94382ACE0101960E9451
:10294000CC2A67EE75E0CE0107960E94DA29BE0117
:10295000695F7F4FCE0101960E948E2BCE010196BA
:102960000E94DD28CE0101960E94CC2ACE01079656
:102970000E94CC2A80E02C960FB6F894DEBF0FBEE2
:10298000CDBFDF91CF910895CF92DF92EF92FF926A
:102990000F931F93CF93DF93CDB7DEB72C970FB66E
:1029A000F894DEBF0FBECDBF6C017B018A0166EEDD
:1029B00075E0CE0107960E94562B64EE75E0CE01BD
:1029C00007960E94DA296091ED087091EE084AE0BE
:1029D000CE0101960E94D12ABE016F5F7F4FCE01CA
:1029E00007960E94382ACE0101960E94CC2A6CEDEF
:1029F00075E0CE0107960E94DA29B601CE0107964E
:102A00000E94382A6AED75E0CE0107960E94DA2905
:102A1000B701CE0107960E94382A68ED75E0CE0115
:102A200007960E94DA29B801CE0107960E94382A3B
:102A3000BE01695F7F4FCE0101960E948E2BCE01B1
:102A400001960E94DD28CE0101960E94CC2ACE017B
:102A500007960E94CC2A80E02C960FB6F894DEBF31
:102A60000FBECDBFDF91CF911F910F91FF90EF90DF
:102A7000DF90CF900895FF920F931F93CF93DF9332
:102A8000CDB7DEB762970FB6F894DEBF0FBECDBFED
:102A90008C01F62EBC01CE0101960E948E2B69E3BB
:102AA0007CE0CE0107960E948E2B63E37CE0CE0192
:102AB0000D960E948E2BAE014F5F5F4FBE01695F86
:102AC0007F4FCE010D960E94C414CE010D960E9438
:102AD000CC2ACE0107960E94CC2ACE0101960E94F4
:102AE000CC2AF80184819581892B09F411C262E214
:102AF00074E0808191810E94F341892B09F008C222
:102B000066ED75E0CE0101960E94562B6FE37CE0E6
:102B1000CE0107960E948E2B63E37CE0CE010D96DA
:102B20000E948E2BAE014F5F5F4FBE01695F7F4FEA
:102B3000CE010D960E94C414CE010D960E94CC2A9F
:102B4000CE0107960E94CC2ACE0101960E94CC2A83
:102B500064ED75E0CE0101960E94562B65E47CE0A1
:102B6000CE0107960E948E2B63E37CE0CE010D968A
:102B70000E948E2BAE014F5F5F4FBE01695F7F4F9A
:102B8000CE010D960E94C414CE010D960E94CC2A4F
:102B9000CE0107960E94CC2ACE0101960E94CC2A33
:102BA00062ED75E0CE0101960E94562B6BE47CE04D
:102BB000CE0107960E948E2B63E37CE0CE010D963A
:102BC0000E948E2BAE014F5F5F4FBE01695F7F4F4A
:102BD000CE010D960E94C414CE010D960E94CC2AFF
:102BE000CE0107960E94CC2ACE0101960E94CC2AE3
:102BF00060ED75E0CE0101960E94562B61E57CE008
:102C0000CE0107960E948E2B63E37CE0CE010D96E9
:102C10000E948E2BAE014F5F5F4FBE01695F7F4FF9
:102C2000CE010D960E94C414CE010D960E94CC2AAE
:102C3000CE0107960E94CC2ACE0101960E94CC2A92
:102C40006EEC75E0CE0101960E94562B67E57CE0A4
:102C5000CE0107960E948E2B63E37CE0CE010D9699
:102C60000E948E2BAE014F5F5F4FBE01695F7F4FA9
:102C7000CE010D960E94C414CE010D960E94CC2A5E
:102C8000CE0107960E94CC2ACE0101960E94CC2A42
:102C90006CEC75E0CE0101960E94562B6DE57CE050
:102CA000CE0107960E948E2B63E37CE0CE010D9649
:102CB0000E948E2BAE014F5F5F4FBE01695F7F4F59
:102CC000CE010D960E94C414CE010D960E94CC2A0E
:102CD000CE0107960E94CC2ACE0101960E94CC2AF2
:102CE0006AEC75E0CE0101960E94562B63E67CE00B
:102CF000CE0107960E948E2B63E37CE0CE010D96F9
:102D00000E948E2BAE014F5F5F4FBE01695F7F4F08
:102D1000CE010D960E94C414CE010D960E94CC2ABD
:102D2000CE0107960E94CC2ACE0101960E94CC2AA1
:102D300068EC75E0CE0101960E94562B69E67CE0B6
:102D4000CE0107960E948E2B63E37CE0CE010D96A8
:102D50000E948E2BAE014F5F5F4FBE01695F7F4FB8
:102D6000CE010D960E94C414CE010D960E94CC2A6D
:102D7000CE0107960E94CC2ACE0101960E94CC2A51
:102D800066EC75E0CE0101960E94562B6FE67CE062
:102D9000CE0107960E948E2B63E37CE0CE010D9658
:102DA0000E948E2BAE014F5F5F4FBE01695F7F4F68
:102DB000CE010D960E94C414CE010D960E94CC2A1D
:102DC000CE0107960E94CC2ACE0101960E94CC2A01
:102DD00064EC75E0CE0101960E94562B65E77CE01D
:102DE000CE0107960E948E2B63E37CE0CE010D9608
:102DF0000E948E2BAE014F5F5F4FBE01695F7F4F18
:102E0000CE010D960E94C414CE010D960E94CC2ACC
:102E1000CE0107960E94CC2ACE0101960E94CC2AB0
:102E200062EC75E0CE0101960E94562B6BE77CE0C8
:102E3000CE0107960E948E2B63E37CE0CE010D96B7
:102E40000E948E2BAE014F5F5F4FBE01695F7F4FC7
:102E5000CE010D960E94C414CE010D960E94CC2A7C
:102E6000CE0107960E94CC2ACE0101960E94CC2A60
:102E700060EC75E0CE0101960E94562B61E87CE083
:102E8000CE0107960E948E2B63E37CE0CE010D9667
:102E90000E948E2BAE014F5F5F4FBE01695F7F4F77
:102EA000CE010D960E94C414CE010D960E94CC2A2C
:102EB000CE0107960E94CC2ACE0101960E94CC2A10
:102EC0006EEB75E0CE0101960E94562B67E87CE020
:102ED000CE0107960E948E2B63E37CE0CE010D9617
:102EE0000E948E2BAE014F5F5F4FBE01695F7F4F27
:102EF000CE010D960E94C414CE010D960E94CC2ADC
:102F0000CE0107960E94CC2ACE0101960E94CC2ABF
:102F1000F1100E94771462960FB6F894DEBF0FBED0
:102F2000CDBFDF91CF911F910F91FF9008951F9317
:102F3000CF93DF93CDB7DEB762970FB6F894DEBFBD
:102F40000FBECDBF162FBC01CE0101960E948E2B65
:102F500067E57CE0CE0107960E948E2B63E37CE060
:102F6000CE010D960E948E2BAE014F5F5F4FBE01CA
:102F7000695F7F4FCE010D960E94C414CE010D965D
:102F80000E94CC2ACE0107960E94CC2ACE0101963F
:102F90000E94CC2A11110E94771462960FB6F89401
:102FA000DEBF0FBECDBFDF91CF911F9108950F936C
:102FB0001F93CF93DF93CDB7DEB769970FB6F89421
:102FC000DEBF0FBECDBF282F8B0163E37CE0CE01B7
:102FD0004396298F0E948E2B298D223061F0233059
:102FE00091F02130C1F5B801CE0101960E948E2BDF
:102FF00069E67CE00FC0B801CE0101960E948E2BDD
:1030000065E77CE007C0B801CE0101960E948E2BD7
:1030100061E87CE0CE0107960E948E2BBE016D5EBA
:103020007F4FCE010D960E948E2BAE014F5F5F4FFA
:10303000BE01695F7F4FCE010D960E94C414CE0180
:103040000D960E94CC2ACE0107960E94CC2ACE0172
:1030500001960E94CC2ACE0143960E94CC2A699602
:103060000FB6F894DEBF0FBECDBFDF91CF911F9199
:103070000F910895CF93DF93CDB7DEB762970FB668
:10308000F894DEBF0FBECDBFBC01CE0101960E94F9
:103090008E2B6DE57CE0CE0107960E948E2B63E3BC
:1030A0007CE0CE010D960E948E2BAE014F5F5F4FEC
:1030B000BE01695F7F4FCE010D960E94C414CE0100
:1030C0000D960E94CC2ACE0107960E94CC2ACE01F2
:1030D00001960E94CC2A62960FB6F894DEBF0FBE0E
:1030E000CDBFDF91CF910895CF93DF93CDB7DEB7FA
:1030F00062970FB6F894DEBF0FBECDBFBC01CE0104
:1031000001960E948E2B6FE37CE0CE0107960E9411
:103110008E2B63E37CE0CE010D960E948E2BAE01D8
:103120004F5F5F4FBE01695F7F4FCE010D960E94DA
:10313000C414CE010D960E94CC2ACE0107960E949F
:10314000CC2ACE0101960E94CC2A62960FB6F89442
:10315000DEBF0FBECDBFDF91CF910895CF93DF9338
:1031600000D000D0CDB7DEB790E0FC013897E83052
:10317000F10508F04AC08827EA57FF4F8F4F0C949B
:10318000983F6BE274E0CE0101960E94972BCE012E
:1031900001960E94E51CCE0101960E94CC2A81E096
:1031A00090E035C06EE374E0CE0101960E94972B4B
:1031B000CE0101960E94E51CCE0101960E94CC2A08
:1031C00082E090E024C061E574E0CE0101960E94A7
:1031D000972BCE0101960E94E51CCE0101960E941C
:1031E000CC2A85E090E013C064E674E0CE0101963D
:1031F0000E94972BCE0101960E94E51CCE010196FC
:103200000E94CC2A8AE090E002C080E090E02696FE
:103210000FB6F894DEBF0FBECDBFDF91CF910895FA
:10322000CF93DF93CDB7DEB762970FB6F894DEBFCA
:103230000FBECDBFBC01CE0101960E948E2B65E46E
:103240007CE0CE0107960E948E2B63E37CE0CE01EA
:103250000D960E948E2BAE014F5F5F4FBE01695FDE
:103260007F4FCE010D960E94C414CE010D960E9490
:10327000CC2ACE0107960E94CC2ACE0101960E944C
:10328000CC2A62960FB6F894DEBF0FBECDBFDF9199
:10329000CF910895CF93DF93CDB7DEB762970FB686
:1032A000F894DEBF0FBECDBF2091EB08223079F03D
:1032B00068E774E0CE0101960E94972BCE0101963B
:1032C0000E94BC28CE0101960E94CC2A29C0BC01D4
:1032D000CE0101960E948E2B63E97CE0CE01079619
:1032E0000E948E2B6DE87CE0CE010D960E948E2B05
:1032F000AE014F5F5F4FBE01695F7F4FCE010D96FC
:103300000E94C414CE010D960E94CC2ACE010796CD
:103310000E94CC2ACE0101960E94CC2A0E947714EA
:1033200062960FB6F894DEBF0FBECDBFDF91CF918E
:103330000895CF93DF93CDB7DEB762970FB6F894B9
:10334000DEBF0FBECDBFBC01CE0101960E948E2B09
:103350006BE47CE0CE0107960E948E2B63E37CE059
:10336000CE010D960E948E2BAE014F5F5F4FBE01C6
:10337000695F7F4FCE010D960E94C414CE010D9659
:103380000E94CC2ACE0107960E94CC2ACE0101963B
:103390000E94CC2A62960FB6F894DEBF0FBECDBF56
:1033A000DF91CF910895CF93DF93CDB7DEB76297CA
:1033B0000FB6F894DEBF0FBECDBFBC01CE010196A3
:1033C0000E948E2B61E57CE0CE0107960E948E2B39
:1033D00063E37CE0CE010D960E948E2BAE014F5F21
:1033E0005F4FBE01695F7F4FCE010D960E94C414EE
:1033F000CE010D960E94CC2ACE0107960E94CC2ABF
:10340000CE0101960E94CC2A62960FB6F894DEBFD8
:103410000FBECDBFDF91CF9108951F93CF93DF9360
:10342000CDB7DEB762970FB6F894DEBF0FBECDBF43
:10343000162FBC01CE0101960E948E2B67E87CE01E
:10344000CE0107960E948E2B63E37CE0CE010D96A1
:103450000E948E2BAE014F5F5F4FBE01695F7F4FB1
:10346000CE010D960E94C414CE010D960E94CC2A66
:10347000CE0107960E94CC2ACE0101960E94CC2A4A
:1034800011110E94771462960FB6F894DEBF0FBE3A
:10349000CDBFDF91CF911F910895E9EBFCE08FEF55
:1034A00090E0928B818B948B838B8AEC9CE00C94C4
:1034B0004528CF93DF932091010C3091020C232BF0
:1034C00079F0FC01C091FD0BD091FE0B6081718100
:1034D000CE010E940342009719F08C1B9D0B02C085
:1034E0008FEF9FEFDF91CF910895CF92DF92EF9210
:1034F000FF920F931F93CF93DF93EC016A017B013F
:10350000E889F98982E080834115514E6105710592
:10351000B1F060E079E08DE390E0A70196010E94B0
:10352000763F89019A010150110921093109369527
:10353000279517950795980101151041A8F0E8897E
:10354000F989108260E874E88EE190E0A7019601A5
:103550000E94763FDA01C9010197A109B109B69528
:10356000A795979587959C01EC85FD853083EE8521
:10357000FF852083188EEC89FD8986E08083EA89A7
:10358000FB89808180618083EA89FB8980818860F2
:103590008083EA89FB89808180688083EA89FB894E
:1035A00080818F7D8083DF91CF911F910F91FF905C
:1035B000EF90DF90CF9008950F931F930E94BF2C40
:1035C0000091F1081091F2082091F3083091F4086D
:1035D000601771078207930750F40E94BF2C609315
:1035E000F1087093F2088093F3089093F4080E9416
:1035F000BF2C0091F1081091F2082091F30830914E
:10360000F408DC01CB01801B910BA20BB30B21E072
:1036100088389341A105B10508F420E0822F1F915D
:103620000F910895CF93DF93CDB7DEB762970FB6B2
:10363000F894DEBF0FBECDBFBC01CE0101960E9443
:103640008E2B6DE27CE0CE0107960E948E2B67E206
:103650007CE0CE010D960E948E2BAE014F5F5F4F36
:10366000BE01695F7F4FCE010D960E94C414CE014A
:103670000D960E94CC2ACE0107960E94CC2ACE013C
:1036800001960E94CC2A0E94771462960FB6F89495
:10369000DEBF0FBECDBFDF91CF9108950F931F9373
:1036A000CF93DF93CDB7DEB769970FB6F894DEBF3F
:1036B0000FBECDBF282F8B0163E37CE0CE01439684
:1036C000298F0E948E2B298D223069F02330A1F0A2
:1036D0002130D9F54AE0B801CE0101960E94D12AE5
:1036E00063E67CE011C04AE0B801CE0101960E9479
:1036F000D12A6FE67CE008C04AE0B801CE0101960D
:103700000E94D12A6BE77CE0CE0107960E948E2BA7
:10371000BE016D5E7F4FCE010D960E948E2BAE01D5
:103720004F5F5F4FBE01695F7F4FCE010D960E94D4
:10373000C414CE010D960E94CC2ACE0107960E9499
:10374000CC2ACE0101960E94CC2ACE0143960E943B
:10375000CC2A69960FB6F894DEBF0FBECDBFDF91BD
:10376000CF911F910F9108952091C70C2F5F2430A6
:1037700018F42093C70C02C01092C70C2091C70CFC
:103780002130F9F070F02230D1F1233009F051C02E
:1037900080E590E09093CB0C8093CA0C8BEF90E087
:1037A00044C06AE070E00E944E3FFC01E754F34FD2
:1037B000838190E09093CB0C8093CA0C8DEF90E0C6
:1037C00034C08A309105A0F064E670E00E944E3F5C
:1037D0006AE070E00E944E3FFB01E754F34F8381A3
:1037E00090E09093CB0C8093CA0C8FEE90E01DC0BC
:1037F0008FEF90E09093CB0C8093CA0C16C0843668
:103800009105B0F368EE73E00E944E3F64E670E00D
:103810000E944E3FFB01E754F34F838190E0909369
:10382000CB0C8093CA0C87EF90E09093CD0C8093E3
:10383000CC0C8AEC9CE00C9445280F931F930E94BB
:10384000BF2C00919F0C1091A00C2091A10C3091E5
:10385000A20C601771078207930750F40E94BF2CD7
:1038600060939F0C7093A00C8093A10C9093A20C7A
:103870000E94BF2C00919F0C1091A00C2091A10CD4
:103880003091A20CDC01CB01801B910BA20BB30B7E
:1038900021E0843F9140A105B10508F420E0822F8A
:1038A0001F910F9108951F93CF93DF9300D000D005
:1038B000CDB7DEB7182F8091A30C1817D1F01123C4
:1038C00019F060E874E002C06CE974E0CE01019682
:1038D0000E94972BCE0101960E945D25CE01019694
:1038E0000E94CC2A612F8091AE0C0E94BE231093BF
:1038F000A30C0E94BF2C60939F0C7093A00C80932C
:10390000A10C9093A20C0E941D1C811119C08091E2
:10391000EC0C9091ED0CDC01ED91FC910480F581B3
:10392000E02D1995892B79F38091EC0C9091ED0C99
:10393000DC01ED91FC910680F781E02D1995E3CF34
:1039400026960FB6F894DEBF0FBECDBFDF91CF91A4
:103950001F910895CF93DF93CDB7DEB762970FB66F
:10396000F894DEBF0FBECDBF4AE0682FCE010196AE
:103970000E94292B6FE07CE0CE0107960E948E2BDF
:1039800069E07CE0CE010D960E948E2BAE014F5F68
:103990005F4FBE01695F7F4FCE010D960E94C41438
:1039A000CE010D960E94CC2ACE0107960E94CC2A09
:1039B000CE0101960E94CC2A62960FB6F894DEBF23
:1039C0000FBECDBFDF91CF910895CF93DF9300D08D
:1039D00000D0CDB7DEB7BC01CE0101960E948E2B80
:1039E000BE016F5F7F4F8091EA0C9091EB0C0E94BB
:1039F000F520CE0101960E94CC2A26960FB6F894A7
:103A0000DEBF0FBECDBFDF91CF9108950E94BF2CC6
:103A10006093F20C7093F30C8093F40C9093F50C7C
:103A200008950F931F930E94BF2C0091F20C1091E8
:103A3000F30C2091F40C3091F50C6017710782079C
:103A4000930710F40E94061D0E94BF2C0091F20CF7
:103A50001091F30C2091F40C3091F50CDC01CB01AA
:103A6000801B910BA20BB30B21E0883C9105A105B3
:103A7000B10508F420E0822F1F910F910895CF9295
:103A8000DF92FF920F931F93CF93DF93CDB7DEB7F3
:103A900062970FB6F894DEBF0FBECDBF6CE576E03F
:103AA000CE010D960E94972B0E94061D00E010E0AB
:103AB0008091EC0C9091ED0CDC01ED91FC91048077
:103AC000F581E02D1995892B41F00530110509F09C
:103AD0004EC085E0C82ED12C01C068010E94111D86
:103AE000F82E811125C0B5E0CB16D10409F765ED9C
:103AF00074E0CE0107960E94972BBE01635F7F4F53
:103B0000CE0107960E946A2ABC01CE0101960E944E
:103B10008E2BCE0101960E94E51CCE0101960E94DB
:103B2000CC2ACE0107960E94CC2A0530110511F04F
:103B3000F12C60C020E080E090E0FC01E651F34F02
:103B4000348D230F019685309105B9F78091080DCA
:103B5000883221F08091080D8230F1F58091090DB5
:103B600081113AC0211138C0FF24F39443C08091E1
:103B7000EC0C9091ED0CDC01ED91FC910680F7814D
:103B8000E02D1995F82E4AE0682FCE0107960E9485
:103B9000292BBE01695F7F4FCE0101960E948E2BBB
:103BA00063E075E0CE0101960E94512ABC01CE016E
:103BB0000D960E94382ACE0101960E94CC2ACE0191
:103BC00007960E94CC2AF801E651F34FF48E0F5F5E
:103BD0001F4F0E94061D6CCF62EE74E0CE0101966D
:103BE0000E94972BCE0101960E94E51CCE01019602
:103BF0000E94CC2ACE010D960E94CC2A8F2D62966F
:103C00000FB6F894DEBF0FBECDBFDF91CF911F91ED
:103C10000F91FF90DF90CF9008954F925F926F9237
:103C20007F928F929F92AF92BF92CF92DF92EF924C
:103C3000FF920F931F93CF93DF934B015C01809111
:103C4000E2089091E308A091E408B091E508881695
:103C50009906AA06BB0609F4C2C08CE3C82ED12C73
:103C6000E12CF12CC501B401A70196010E94763F19
:103C70006093DB08CA01B901A70196010E94763F53
:103C80006093DC08CA01B90128E130E040E050E06F
:103C90000E94763F69017A016093DD08CA01B9018B
:103CA0006C5F7F4F8F4F9F4F27E030E040E050E048
:103CB0000E94763F6F5F6093DE08412C512C3201E9
:103CC00040E004E610E0C0E9D1E0242F30E02E54BB
:103CD000384FF901E370FF27309789F4C901B80123
:103CE0000E94623F892B31F4C901BE010E94623FEC
:103CF000892B29F48EE691E0A0E0B0E004C08DE6C7
:103D000091E0A0E0B0E0480E591E6A1E7B1ED30170
:103D1000C201AA27BB27C816D906EA06FB0610F07F
:103D20004F5FD3CF4093E108309799F4C90164E61F
:103D300070E00E94623F892B39F4C90160E971E0AB
:103D40000E94623F892B29F48EE691E0A0E0B0E06A
:103D500004C08DE691E0A0E0B0E0481A590A6A0A72
:103D60007B0AC418D508E608F708C90164E670E0C4
:103D70000E94623FEC01C90160E971E00E94623F6C
:103D8000A3E2B2E020E0213039F4309749F42097E3
:103D900029F4009729F402C04C9103C04DE101C001
:103DA0004CE150E060E070E0C416D506E606F70688
:103DB00040F0C41AD50AE60AF70A2F5F11962C3094
:103DC00011F72F5F2093E008C394C092DF08809220
:103DD000E2089092E308A092E408B092E508DF912F
:103DE000CF911F910F91FF90EF90DF90CF90BF90F8
:103DF000AF909F908F907F906F905F904F900895BD
:103E0000FC01918D828D981761F0828DDF01A80FE2
:103E1000B11D5D968C91928D9F5F9F73928F90E004
:103E200008958FEF9FEF0895FC01918D828D981773
:103E300031F0828DE80FF11D858D90E008958FEFB0
:103E40009FEF0895FC01918D228D892F90E0805C79
:103E50009F4F821B91098F73992708958AEE96E0F0
:103E60000E94221F21E0892B09F420E0822F08956F
:103E700080E090E0892B21F00E94D02981111DC0A3
:103E800080E090E0892B41F080E090E0892B21F0E8
:103E90000E940000811114C080E090E0892B21F085
:103EA0000E942E1F81110FC080E090E0892B81F0CD
:103EB0000E94C62981110AC008950E940000E0CF27
:103EC0000E940000E9CF0E940000EECF0C94000099
:103ED000089590E0FC013197E231F10508F04EC001
:103EE0008827E257FF4F8F4F0C94983F80918000B6
:103EF0008F7703C0809180008F7D8093800008952C
:103F000080918000877FF9CF84B58F7702C084B518
:103F10008F7D84BD08958091B0008F7703C080911C
:103F2000B0008F7D8093B0000895809190008F77CE
:103F300007C0809190008F7D03C080919000877FA3
:103F40008093900008958091A0008F7707C08091A2
:103F5000A0008F7D03C08091A000877F8093A00088
:103F60000895809120018F7707C0809120018F7D77
:103F700003C080912001877F8093200108953FB77F
:103F8000F8948091C1089091C208A091C308B091A3
:103F9000C40826B5A89B05C02F3F19F00196A11DA6
:103FA000B11D3FBFBA2FA92F982F8827820F911DCF
:103FB000A11DB11DBC01CD0142E0660F771F881F16
:103FC000991F4A95D1F70895EF92FF920F931F938F
:103FD000CF93DF9300D000D0CDB7DEB78C017A014C
:103FE00060E377E00E94562B8AE0E816F1042CF497
:103FF0006EE277E0C8010E94DA294AE0B701CE01FB
:1040000001960E94FD2ABE016F5F7F4FC8010E948A
:10401000382ACE0101960E94CC2AC80126960FB6F6
:10402000F894DEBF0FBECDBFDF91CF911F910F91EE
:10403000FF90EF900895CF93DF93CDB7DEB76297EF
:104040000FB6F894DEBF0FBECDBF4AE0BC01CE0173
:1040500001960E94D12A65E17CE0CE0107960E947C
:104060008E2B69E07CE0CE010D960E948E2BAE0176
:104070004F5F5F4FBE01695F7F4FCE010D960E947B
:10408000C414CE010D960E94CC2ACE0107960E9440
:10409000CC2ACE0101960E94CC2A62960FB6F894E3
:1040A000DEBF0FBECDBFDF91CF910895CF93DF93D9
:1040B000CDB7DEB762970FB6F894DEBF0FBECDBFA7
:1040C0004AE0BC01CE0101960E94D12A6BE17CE05E
:1040D000CE0107960E948E2B69E07CE0CE010D9602
:1040E0000E948E2BAE014F5F5F4FBE01695F7F4F15
:1040F000CE010D960E94C414CE010D960E94CC2ACA
:10410000CE0107960E94CC2ACE0101960E94CC2AAD
:1041100062960FB6F894DEBF0FBECDBFDF91CF9190
:104120000895CF93DF93CDB7DEB762970FB6F894BB
:10413000DEBF0FBECDBFBC01CE0101960E948E2B0B
:1041400061E27CE0CE0107960E948E2B69E07CE064
:10415000CE010D960E948E2BAE014F5F5F4FBE01C8
:10416000695F7F4FCE010D960E94C414CE010D965B
:104170000E94CC2ACE0107960E94CC2ACE0101963D
:104180000E94CC2A62960FB6F894DEBF0FBECDBF58
:10419000DF91CF9108951F920F920FB60F921124C5
:1041A0000BB60F922F933F934F935F936F937F9331
:1041B0008F939F93AF93BF93EF93FF938AEE96E015
:1041C0000E94332CFF91EF91BF91AF919F918F91FE
:1041D0007F916F915F914F913F912F910F900BBE07
:1041E0000F900FBE0F901F9018954F925F926F9295
:1041F0007F928F929F92AF92BF92EF92FF920F9316
:104200001F93CF93DF93CDB7DEB76E970FB6F894B9
:10421000DEBF0FBECDBF8C017B016CE576E0CE0129
:104220000D960E94972BB701CE0143960E948E2BCC
:104230006CE576E0CE0149960E94972B78012EE03E
:10424000E20EF11C0E94BF2C4090D3085090D4087D
:104250006090D5087090D6084B015C0184189508D1
:10426000A608B7088091D7089091D808A091D908DE
:10427000B091DA08E8EE8E16E3E09E06A104B104E0
:10428000D0F00196A11DB11D8093D7089093D80856
:10429000A093D908B093DA08B301A20148515C4F4A
:1042A0006F4F7F4F4093D3085093D4086093D50845
:1042B0007093D608C7CF4091CF085091D008609135
:1042C000D1087091D20884179507A607B70708F49C
:1042D00056C0E091CD08F091CE08309709F44FC058
:1042E0001995611571058105910539F16093D7081C
:1042F0007093D8088093D9089093DA08DC01CB0139
:10430000845D9E4FAF4FBF4F8093CF089093D008EE
:10431000A093D108B093D20882E090E09093CC08AB
:104320008093CB080E94BF2C6093D3087093D4086D
:104330008093D5089093D60822C08091D708909199
:10434000D808A091D908B091DA08845D9E4FAF4F8C
:10435000BF4F8093CF089093D008A093D108B0931B
:10436000D20881E090E02091CB083091CC08232B3B
:1043700011F480E090E09093CC088093CB0880907B
:10438000D7089090D808A090D908B090DA08C50155
:10439000B4010E940D1E4091DD0850E0B801CE012D
:1043A00007960E94E41F63E377E0CE0107960E9420
:1043B000DA29C501B4010E940D1E4091DC0850E0CD
:1043C000B801CE0101960E94E41FBE016F5F7F4FCE
:1043D000CE0107960E94382ACE0101960E94CC2A6F
:1043E00061E377E0CE0107960E94DA29C501B401A6
:1043F0000E940D1E4091DB0850E0B801CE010196ED
:104400000E94E41FBE016F5F7F4FCE0107960E949E
:10441000382ACE0101960E94CC2ABE01695F7F4FE7
:10442000CE0101960E948E2B63E075E0CE010196CD
:104430000E94512AB7010E946A2A61E075E00E9439
:10444000512ABE016D5E7F4F0E946A2ABC01CE01D7
:1044500049960E94B52ACE0101960E94CC2ACE012F
:1044600007960E94CC2A8D859E850097A9F0698DBC
:104470007A8D6115710571F04F8558892D8D3E8DAE
:104480004217530738F00E94FC418D8D9E8D9A8B08
:10449000898B12C00E946440898D9A8D9E878D877A
:1044A0008B8D9C8D988B8F878D8D9E8D9A8B898B14
:1044B0001A8E198E1C8E1B8E1E8E1D8ECE01499655
:1044C0000E94CC2ACE0143960E94CC2ABE01635F93
:1044D0007F4FF801808191810E94C02BCE010D9603
:1044E0000E94CC2A6E960FB6F894DEBF0FBECDBFE9
:1044F000DF91CF911F910F91FF90EF90BF90AF9000
:104500009F908F907F906F905F904F900895EF9263
:10451000FF920F931F93CF93DF93EC017B016CE528
:1045200076E008960E94972B8E01025F1F4F6CE584
:1045300076E0C8010E94972B8AEE96E099838883E3
:1045400080E092ECA1E0B0E08C839D83AE83BF83DA
:1045500085E095E09B838A83B701C801DF91CF9105
:104560001F910F91FF90EF900C94B52A1F920F921C
:104570000FB60F9211240BB60F922F933F934F93C8
:104580005F936F937F938F939F93AF93BF93EF93BB
:10459000FF93E091C908F091CA081995FF91EF9136
:1045A000BF91AF919F918F917F916F915F914F914B
:1045B0003F912F910F900BBE0F900FBE0F901F9049
:1045C0001895FC01848DDF01A80FB11DA35ABF4FC0
:1045D0002C91848D90E001968F739927848FA68902
:1045E000B7892C93A089B1898C9180648C93938D29
:1045F000848D981306C00288F389E02D80818F7D19
:10460000808308951F920F920FB60F9211240BB65C
:104610000F922F933F934F935F936F937F938F935B
:104620009F93AF93BF93EF93FF938AEE96E00E9420
:10463000E122FF91EF91BF91AF919F918F917F9177
:104640006F915F914F913F912F910F900BBE0F9003
:104650000FBE0F901F901895EF92FF920F931F932C
:10466000CF93DF93EC0181E0888F9B8D8C8D981325
:1046700005C0E889F989808185FD24C0F62E0B8D5F
:1046800010E00F5F1F4F0F731127E02E8C8DE81283
:104690000CC00FB607FCFACFE889F989808185FF45
:1046A000F5CFCE010E94E122F1CF8B8DFE01E80F04
:1046B000F11DE35AFF4FF0820B8FEA89FB8980815D
:1046C000806207C0EE89FF896083E889F98980816B
:1046D0008064808381E090E0DF91CF911F910F9102
:1046E000FF90EF900895CF93DF93EC01888D88239E
:1046F000C9F0EA89FB89808185FD05C0A889B9894F
:104700008C9186FD0FC00FB607FCF5CF808185FF29
:10471000F2CFA889B9898C9185FFEDCFCE010E9497
:10472000E122E7CFDF91CF910895CF93DF93282F38
:1047300030E0F901E851F94F8491F901EE55F94F54
:10474000D491F901E45AF94FC491CC2391F081112D
:104750000E94691FEC2FF0E0EE0FFF1FEE5BF94F98
:10476000A591B491EC91ED2381E090E021F480E0FB
:1047700002C080E090E0DF91CF9108951F93CF9326
:10478000DF93282F30E0F901E851F94F8491F901C6
:10479000EE55F94FD491F901E45AF94FC491CC2365
:1047A000C9F0162F81110E94691FEC2FF0E0EE0F67
:1047B000FF1FE85DF94FA591B4918FB7F8941111DF
:1047C00005C09C91ED2FE095E92302C0EC91ED2B03
:1047D000EC938FBFDF91CF911F910895CF93DF931B
:1047E00090E0FC01EE55F94F2491FC01E45AF94F99
:1047F0008491882361F190E0880F991FFC01E25FAA
:10480000F94FC591D491FC01E85DF94FA591B491A0
:10481000611109C09FB7F89488812095822388830D
:10482000EC912E230BC0623061F49FB7F89438816D
:10483000822F809583238883EC912E2B2C939FBF0E
:1048400006C08FB7F894E8812E2B28838FBFDF91A5
:10485000CF9108958F929F92AF92BF92CF92DF92A5
:10486000EF92FF926B017C010E94BF1F4B015C0124
:10487000C114D104E104F104F1F00E94BF1FDC0176
:10488000CB0188199909AA09BB09883E9340A10563
:10489000B10570F321E0C21AD108E108F10888EEF1
:1048A000880E83E0981EA11CB11CC114D104E10440
:1048B000F10419F7DDCFFF90EF90DF90CF90BF901C
:1048C000AF909F908F9008950F931F93CF93DF9396
:1048D000CDB7DEB762970FB6F894DEBF0FBECDBF7F
:1048E000182F062F6CE576E0CE010D960E94972BCF
:1048F0000E94061D112309F452C08091EC0C909186
:10490000ED0CDC01ED91FC910480F581E02D199511
:10491000892B81F18091EC0C9091ED0CDC01ED91F3
:10492000FC910680F781E02D1995002301F14AE002
:10493000682FCE0107960E94292BBE01695F7F4F29
:10494000CE0101960E948E2B63E075E0CE010196A8
:104950000E94512ABC01CE010D960E94382ACE0138
:1049600001960E94CC2ACE0107960E94CC2A1150B3
:104970000E94061D0E94111D882309F4BBCF69E027
:1049800075E0CE0101960E94972BCE0101960E9400
:10499000E51CCE0101960E94CC2A10E021C0002324
:1049A000F1F06BE275E0CE0107960E94972BBE01F5
:1049B000635F7F4FCE0107960E946A2ABC01CE0139
:1049C00001960E948E2BCE0101960E94E51CCE011D
:1049D00001960E94CC2ACE0107960E94CC2A11E0B3
:1049E000CE010D960E94CC2A812F62960FB6F894C4
:1049F000DEBF0FBECDBFDF91CF911F910F91089504
:104A0000FF920F931F93CF93DF93CDB7DEB7C058BC
:104A1000D1090FB6F894DEBF0FBECDBF8091F60C62
:104A200089830091F80C0A838091F90C8B83809123
:104A3000FB0C8C83FE01359680E090E010E080173F
:104A4000910744F4DC01A651B34F53962C91219366
:104A50000196F5CF0C5F1F4FE1E0F0E0EC0FFD1F7A
:104A6000E00FF11F8091050D8083F12C2F2D30E098
:104A700002171307A4F08091EC0C9091ED0CDC016F
:104A8000ED91FC91A1E0B0E0AC0FBD1FA20FB31FF0
:104A90000190F081E02D6C911995F394E7CF80E0BF
:104AA000C058DF4F0FB6F894DEBF0FBECDBFDF9109
:104AB000CF911F910F91FF900895CF93DF9300D076
:104AC00000D0CDB7DEB7BC01CE0101960E948E2B7F
:104AD000BE016F5F7F4F8091990C90919A0C0E945C
:104AE000F520CE0101960E94CC2A26960FB6F894A6
:104AF000DEBF0FBECDBFDF91CF910895CF93DF937F
:104B000000D000D0CDB7DEB78091AA0C811133C0A0
:104B10006AE375E0CE0101960E94972BCE010196C3
:104B20000E94E51CCE0101960E94CC2A82E090E012
:104B30009093F70C8093F60C81E08093F80C81E061
:104B400090E09093FA0C8093F90C84EE90E09093AF
:104B5000FC0C8093FB0C1092FD0C88E18093050DFA
:104B60000E94002561E086E00E94642481110E9479
:104B70003F1D1092B30C26960FB6F894DEBF0FBE01
:104B8000CDBFDF91CF9108951F93CF93DF9300D0D6
:104B900000D0CDB7DEB78091AA0C81113BC06CE488
:104BA00075E0CE0101960E94972BCE0101960E94DE
:104BB000E51CCE0101960E94CC2A82E090E0909301
:104BC000F70C8093F60C11E01093F80C81E090E064
:104BD0009093FA0C8093F90C84EE90E09093FC0C87
:104BE0008093FB0C1093FD0C87E18093050D0E94D0
:104BF000002561E086E00E946424882339F00E9449
:104C00003F1D882319F01093B30C04C01092B30C0D
:104C10000E94142626960FB6F894DEBF0FBECDBFB5
:104C2000DF91CF911F910895EF92FF920F931F9301
:104C3000CF93DF93CDB7DEB762970FB6F894DEBFA0
:104C40000FBECDBF6DE575E0CE0101960E94972B9A
:104C5000CE0101960E94E51CCE0101960E94CC2A4D
:104C600082E090E09093F70C8093F60C1092F80C91
:104C700081E090E09093FA0C8093F90C9093FC0CF7
:104C80008093FB0C8CEF8093050D0E94002561E062
:104C900085E00E946424882339F00E943F1D811121
:104CA0001AC06DE675E002C06DE775E0CE010196B1
:104CB0000E94972BCE0101960E94E51CCE01019621
:104CC0000E94CC2A8FEF8093AA0C8091AB0C8F3F6F
:104CD00009F075C094C08091AA0C8F3F71F46DE803
:104CE00075E0CE0101960E94972BCE0101960E949D
:104CF0005D25CE0101960E94CC2A68EC70E080E030
:104D000090E00E942A2482E090E09093F70C809338
:104D1000F60C1092F80C81E090E09093FA0C8093DE
:104D2000F90C88EE90E09093FC0C8093FB0C85E1ED
:104D30008093050D0E94002561E085E00E946424B7
:104D4000882349F16CE576E0CE010D960E94972B01
:104D50000E94061DE12CF12C87018091EC0C9091B2
:104D6000ED0CDC01ED91FC910480F581E02D1995AD
:104D7000892B09F4E6C00630110509F024C186E04C
:104D8000E82EF12C0E94111D882309F4DCC0CE010D
:104D90000D960E94CC2A68EC70E080E090E00E94C2
:104DA0002A246091370D6093AA0C662309F44FC042
:104DB0008091AB0C16160CF488C0681701F167EFF0
:104DC00075E0CE0101960E94972BCE0101960E94BC
:104DD0005D25CE0101960E94CC2A64E176E0CE01E9
:104DE00001960E94972BCE0101960E945D25CE016F
:104DF00001960E94CC2A8091AA0C8093AB0C8091E2
:104E0000AA0C811122C08091AB0C882391F06BE237
:104E100076E0CE0101960E94972BCE0101960E946A
:104E20005D25CE0101960E94CC2A8091AA0C809328
:104E3000AB0C0E94BF2C60939F0C7093A00C8093CE
:104E4000A10C9093A20C81E013C180E011C16DEB25
:104E500075E0CE0101960E94972BCE0101960E942B
:104E6000E51CCE0101960E94CC2A82E090E090934E
:104E7000F70C8093F60C8093F80C81E090E090930F
:104E8000FA0C8093F90C87EE90E09093FC0C8093E1
:104E9000FB0C80E88093FD0C8FEF8093FE0C85E97E
:104EA0008093050D0E94002561E087E00E94642444
:104EB00081110E943F1D8091B30C882319F00E943C
:104EC000C4259DCF0E947E259ACF6A3074F468175E
:104ED00009F495CF062E000C770B4AE0CE01079619
:104EE0000E94FD2A6CEC75E00DC0681709F487CFAD
:104EF000062E000C770B4AE0CE0107960E94FD2A91
:104F000062EE75E0CE010D960E94972BBE01695F9F
:104F10007F4FCE010D960E946A2ABC01CE010196F8
:104F20000E948E2BCE0101960E945D25CE01019636
:104F30000E94CC2ACE010D960E94CC2ACE01079663
:104F400058CF78011FCF0630110509F005CF67EA69
:104F500075E0CE0101960E94972BBE01635F7F4FE3
:104F6000CE0101960E946A2ABC01CE0107960E94DA
:104F70008E2BCE0107960E94E51CCE0107960E945B
:104F8000CC2ACE0101960E94CC2AB6E0EB16F104A1
:104F900009F0FDCE20E080E090E0FC01E651F34F07
:104FA00031A1230F019686309105B9F78091080D44
:104FB000883221F08091080D8230D1F5211138C05E
:104FC00080910F0D52C08091EC0C9091ED0CDC01A2
:104FD000ED91FC910680F781E02D1995F82E4AE0BD
:104FE000682FCE0101960E94292BBE016F5F7F4F73
:104FF000CE0107960E948E2B63E075E0CE010796E6
:105000000E94512ABC01CE010D960E94382ACE0181
:1050100007960E94CC2ACE0101960E94CC2AF80164
:10502000E651F34FF1A20F5F1F4F0E94061D95CE70
:1050300064E476E0CE0101960E94972BCE010196A2
:105040000E94E51CCE0101960E94CC2A6DE576E017
:10505000CE0101960E94972BCE0101960E94E51C7D
:10506000CE0101960E94CC2A8FEF8093370D8FCE10
:1050700062960FB6F894DEBF0FBECDBFDF91CF9121
:105080001F910F91FF90EF900895AF92BF92CF9232
:10509000DF92EF92FF920F931F93CF93DF936C01F8
:1050A00060E08091BB0C0E94BE23E6012496BA907A
:1050B000AA9008E010E090E8E92EF12C60E08091E1
:1050C000B90C0E94BE2361E097012A213B21232BCA
:1050D00009F460E08091BA0C0E94BE2361E08091E7
:1050E000B90C0E94BE23F594E7940150110931F7E1
:1050F000CC15DD05E1F661E08091BB0CDF91CF912D
:105100001F910F91FF90EF90DF90CF90BF90AF90E5
:105110000C94BE2387E290E09093CB0C8093CA0C52
:105120008AEC9CE00C94452880EF90E09093CB0CA7
:105130008093CA0C8AEC9CE00C944528E9EBFCE0D7
:105140008754934FDC0113968C9190E0928B818B66
:10515000748B638B8AEC9CE00C944528E9EBFCE0B3
:105160002FEF30E0281B390B328B218B748B638B34
:105170008AEC9CE00C944528CF93DF9300D000D0BC
:10518000CDB7DEB7BC01CE0101960E948E2BBE01C9
:105190006F5F7F4F8091E6089091E7080E94F520AD
:1051A000CE0101960E94CC2A26960FB6F894DEBF57
:1051B0000FBECDBFDF91CF9108950F931F93CF9373
:1051C000DF93CDB7DEB762970FB6F894DEBF0FBEA0
:1051D000CDBF8C016CE576E0CE010D960E94972B39
:1051E000F80184819581892B09F457C061E776E045
:1051F000CE010D960E949E2A6091ED087091EE08F6
:105200004AE0CE0107960E94D12ABE01695F7F4F16
:10521000CE0101960E948E2B6CE472E0CE010196C5
:105220000E94512ABC01CE010D960E94382ACE015F
:1052300001960E94CC2ACE0107960E94CC2AB80182
:10524000CE010D960E94382ABE01635F7F4FCE01CA
:1052500001960E948E2BCE0101960E94BC28CE01A1
:1052600001960E94CC2A2091ED083091EE0846E08C
:10527000429FC001439F900D1124B8018350974F66
:105280000E94B52A8091ED089091EE0801968F77E3
:1052900099279093EE088093ED08CE010D960E9419
:1052A000CC2A62960FB6F894DEBF0FBECDBFDF9159
:1052B000CF911F910F9108950895CF92DF92EF92B1
:1052C000FF920F931F93CF93DF936C017A018B01B1
:1052D000C0E0D0E0CE15DF0589F0D8016D918D01D9
:1052E000D601ED91FC910190F081E02DC601199558
:1052F000892B11F47E0102C02196ECCFC701DF910A
:10530000CF911F910F91FF90EF90DF90CF90089574
:105310000E94E5416115710579F0FB0101900020C3
:10532000E9F73197AF01461B570BDC01ED91FC917A
:105330000280F381E02D199480E090E008950F93AE
:105340001F93CF93DF93EC0188819981009729F017
:105350002A813B812617370788F48B016F5F7F4FC7
:105360000E94FC40009761F0998388831B830A8325
:105370002C813D81232B11F4FC01108281E001C0BE
:1053800080E0DF91CF911F910F91089587E897E01A
:105390000E94221F21E0892B09F420E0822F08952A
:1053A00084E298E00E94221F21E0892B09F420E08A
:1053B000822F0895EF92FF920F931F93CF93DF9365
:1053C0006115710511F480E01EC08B01EC01CB0169
:1053D0000E9422450097B1F02C813D817C01E20EB4
:1053E000F31EB701CE010E949F29882361F3288113
:1053F00039818C819D81B801820F931F0E941B45CA
:10540000FD82EC8281E0DF91CF911F910F91FF909F
:10541000EF900895EF92FF920F931F93CF93DF9336
:10542000FC01248135816115710511F480E019C0FA
:1054300041155105A9F07B01EC018A01020F131FF0
:10544000B8010E949F29882389F3288139818C81A2
:105450009D81B701820F931F0E94FC411D830C8325
:1054600081E0DF91CF911F910F91FF90EF90089510
:10547000FB0144815581608171810C940A2ACF938C
:10548000DF93EC0188819981009711F00E946440BC
:10549000198218821D821C821B821A82DF91CF9191
:1054A0000895CF93DF93EC016115710561F0FB0165
:1054B00001900020E9F73197AF01461B570B0E947E
:1054C0000A2A811103C0CE010E943F2ACE01DF913A
:1054D000CF910895CF93DF93EC01FB014481558177
:1054E000608171810E940A2A811103C0CE010E944D
:1054F0003F2ACE01DF91CF910895EF92FF920F9353
:105500001F93CF93DF93EC017B018A01BA010E94C4
:105510009F29811104C0CE010E943F2A07C01D832C
:105520000C83B701888199810E94FC41CE01DF91F3
:10553000CF911F910F91FF90EF900895CF93DF933C
:10554000EC016115710559F0FB0101900020E9F7AC
:105550003197AF01461B570B0E947D2A02C00E9463
:105560003F2ACE01DF91CF910895CF93DF93EC01D5
:10557000FB018617970761F06081718161157105E4
:1055800029F0448155810E947D2A02C00E943F2A51
:10559000CE01DF91CF910895FC01808191810C941F
:1055A00064400F931F93CF93DF93CDB7DEB761971E
:1055B0000FB6F894DEBF0FBECDBF8C01CB01F80152
:1055C00011821082138212821582148250E0BE0171
:1055D0006F5F7F4F0E945645BE016F5F7F4FC801CE
:1055E0000E949E2A61960FB6F894DEBF0FBECDBF13
:1055F000DF91CF911F910F9108950F931F93CF9338
:10560000DF93CDB7DEB762970FB6F894DEBF0FBE5B
:10561000CDBF8C01CB01F80111821082138212825E
:105620001582148250E0BE016F5F7F4F0E942B45B0
:10563000BE016F5F7F4FC8010E949E2A62960FB61F
:10564000F894DEBF0FBECDBFDF91CF911F910F91B8
:1056500008950F931F93CF93DF93CDB7DEB72997AC
:105660000FB6F894DEBF0FBECDBF8C01862FF801B8
:1056700011821082138212821582148250E0BE01C0
:105680006F5F7F4F90E00E945645BE016F5F7F4F76
:10569000C8010E949E2A29960FB6F894DEBF0FBE5D
:1056A000CDBFDF91CF911F910F910895EF92FF929F
:1056B0000F931F93CF93DF93EC01198218821B8203
:1056C0001A821D821C826115710509F18B01CB01C3
:1056D0000E9422457C01BC01CE010E949F298111BC
:1056E00009C0CE01DF91CF911F910F91FF90EF90F4
:1056F0000C943F2AFD82EC82B80188819981DF9168
:10570000CF911F910F91FF90EF900C941B45DF916B
:10571000CF911F910F91FF90EF900895FC0111829E
:10572000108213821282158214820C94B52AFC0115
:105730001182108213821282158214826115710502
:1057400051F0FB0101900020E9F73197AF01461BB2
:10575000570B0C947D2A08950F931F93CF93DF93DB
:10576000EC010E948A298C016AE576E0CE010E9454
:105770008A29800F911FDF91CF911F910F9108957A
:105780000F931F93CF93DF93EC01E881F981DB0145
:1057900014964D915C9115976D917C910280F381E7
:1057A000E02D19958C016AE576E0CE010E948A29E8
:1057B000800F911FDF91CF911F910F9108951F923C
:1057C0000F920FB60F9211240BB60F922F933F93A7
:1057D0004F935F936F937F938F939F93AF93BF93F9
:1057E000EF93FF9387E897E00E94E122FF91EF910A
:1057F000BF91AF919F918F917F916F915F914F91E9
:105800003F912F910F900BBE0F900FBE0F901F90E6
:1058100018951F920F920FB60F9211240BB60F928C
:105820002F933F934F935F936F937F938F939F93A8
:10583000AF93BF93EF93FF9384E298E00E94E1223D
:10584000FF91EF91BF91AF919F918F917F916F9158
:105850005F914F913F912F910F900BBE0F900FBE14
:105860000F901F901895FC01A089B1898C91A68991
:10587000B78982FD0FC09C91818D8F5F8F73228DC0
:10588000821749F0218DDF01A20FB11D5D969C9317
:10589000818F08958C9108951F920F920FB60F92E9
:1058A00011240BB60F922F933F934F935F936F93F7
:1058B0007F938F939F93AF93BF93EF93FF9387E86B
:1058C00097E00E94332CFF91EF91BF91AF919F9190
:1058D0008F917F916F915F914F913F912F910F9099
:1058E0000BBE0F900FBE0F901F9018951F920F9236
:1058F0000FB60F9211240BB60F922F933F934F9335
:105900005F936F937F938F939F93AF93BF93EF9327
:10591000FF9384E298E00E94332CFF91EF91BF91B6
:10592000AF919F918F917F916F915F914F913F9137
:105930002F910F900BBE0F900FBE0F901F901895D8
:10594000CF93DF9300D000D0CDB7DEB7BC01CE013E
:1059500001960E948E2BBE016F5F7F4F86ED9CE00B
:105960000E94F520CE0101960E94CC2A26960FB601
:10597000F894DEBF0FBECDBFDF91CF9108952FB752
:10598000F8946091390D70913A0D80913B0D909192
:105990003C0D2FBF08951F920F920FB60F92112446
:1059A0002F933F938F939F93AF93BF938091390D24
:1059B00090913A0DA0913B0DB0913C0D3091380D76
:1059C00023E0230F2D3720F40196A11DB11D05C042
:1059D00026E8230F0296A11DB11D2093380D809358
:1059E000390D90933A0DA0933B0DB0933C0D8091EF
:1059F000C1089091C208A091C308B091C408019653
:105A0000A11DB11D8093C1089093C208A093C30843
:105A1000B093C408BF91AF919F918F913F912F9107
:105A20000F900FBE0F901F901895CF93DF93CDB7B7
:105A3000DEB7CD55D1090FB6F894DEBF0FBECDBF8E
:105A4000789484B5826084BD84B5816084BD85B559
:105A5000826085BD85B5816085BD80916E00816065
:105A600080936E001092810080918100826080930B
:105A7000810080918100816080938100809180000D
:105A80008160809380008091B10084608093B10038
:105A90008091B00081608093B0008091910082601D
:105AA000809391008091910081608093910080911A
:105AB00090008160809390008091A100826080932B
:105AC000A1008091A10081608093A1008091A0003D
:105AD00081608093A00080912101826080932101E8
